{
	"projects/exchange-protocol/contracts/ExzoneRouter01.sol": {
		"ExzoneRouter01": {
			"abi": [
				{
					"inputs": [
						{
							"internalType": "address",
							"name": "_factory",
							"type": "address"
						},
						{
							"internalType": "address",
							"name": "_WETH",
							"type": "address"
						}
					],
					"stateMutability": "nonpayable",
					"type": "constructor"
				},
				{
					"inputs": [],
					"name": "WETH",
					"outputs": [
						{
							"internalType": "address",
							"name": "",
							"type": "address"
						}
					],
					"stateMutability": "view",
					"type": "function"
				},
				{
					"inputs": [
						{
							"internalType": "address",
							"name": "tokenA",
							"type": "address"
						},
						{
							"internalType": "address",
							"name": "tokenB",
							"type": "address"
						},
						{
							"internalType": "uint256",
							"name": "amountADesired",
							"type": "uint256"
						},
						{
							"internalType": "uint256",
							"name": "amountBDesired",
							"type": "uint256"
						},
						{
							"internalType": "uint256",
							"name": "amountAMin",
							"type": "uint256"
						},
						{
							"internalType": "uint256",
							"name": "amountBMin",
							"type": "uint256"
						},
						{
							"internalType": "address",
							"name": "to",
							"type": "address"
						},
						{
							"internalType": "uint256",
							"name": "deadline",
							"type": "uint256"
						}
					],
					"name": "addLiquidity",
					"outputs": [
						{
							"internalType": "uint256",
							"name": "amountA",
							"type": "uint256"
						},
						{
							"internalType": "uint256",
							"name": "amountB",
							"type": "uint256"
						},
						{
							"internalType": "uint256",
							"name": "liquidity",
							"type": "uint256"
						}
					],
					"stateMutability": "nonpayable",
					"type": "function"
				},
				{
					"inputs": [
						{
							"internalType": "address",
							"name": "token",
							"type": "address"
						},
						{
							"internalType": "uint256",
							"name": "amountTokenDesired",
							"type": "uint256"
						},
						{
							"internalType": "uint256",
							"name": "amountTokenMin",
							"type": "uint256"
						},
						{
							"internalType": "uint256",
							"name": "amountETHMin",
							"type": "uint256"
						},
						{
							"internalType": "address",
							"name": "to",
							"type": "address"
						},
						{
							"internalType": "uint256",
							"name": "deadline",
							"type": "uint256"
						}
					],
					"name": "addLiquidityETH",
					"outputs": [
						{
							"internalType": "uint256",
							"name": "amountToken",
							"type": "uint256"
						},
						{
							"internalType": "uint256",
							"name": "amountETH",
							"type": "uint256"
						},
						{
							"internalType": "uint256",
							"name": "liquidity",
							"type": "uint256"
						}
					],
					"stateMutability": "payable",
					"type": "function"
				},
				{
					"inputs": [],
					"name": "factory",
					"outputs": [
						{
							"internalType": "address",
							"name": "",
							"type": "address"
						}
					],
					"stateMutability": "view",
					"type": "function"
				},
				{
					"inputs": [
						{
							"internalType": "uint256",
							"name": "amountOut",
							"type": "uint256"
						},
						{
							"internalType": "uint256",
							"name": "reserveIn",
							"type": "uint256"
						},
						{
							"internalType": "uint256",
							"name": "reserveOut",
							"type": "uint256"
						}
					],
					"name": "getAmountIn",
					"outputs": [
						{
							"internalType": "uint256",
							"name": "amountIn",
							"type": "uint256"
						}
					],
					"stateMutability": "pure",
					"type": "function"
				},
				{
					"inputs": [
						{
							"internalType": "uint256",
							"name": "amountIn",
							"type": "uint256"
						},
						{
							"internalType": "uint256",
							"name": "reserveIn",
							"type": "uint256"
						},
						{
							"internalType": "uint256",
							"name": "reserveOut",
							"type": "uint256"
						}
					],
					"name": "getAmountOut",
					"outputs": [
						{
							"internalType": "uint256",
							"name": "amountOut",
							"type": "uint256"
						}
					],
					"stateMutability": "pure",
					"type": "function"
				},
				{
					"inputs": [
						{
							"internalType": "uint256",
							"name": "amountOut",
							"type": "uint256"
						},
						{
							"internalType": "address[]",
							"name": "path",
							"type": "address[]"
						}
					],
					"name": "getAmountsIn",
					"outputs": [
						{
							"internalType": "uint256[]",
							"name": "amounts",
							"type": "uint256[]"
						}
					],
					"stateMutability": "view",
					"type": "function"
				},
				{
					"inputs": [
						{
							"internalType": "uint256",
							"name": "amountIn",
							"type": "uint256"
						},
						{
							"internalType": "address[]",
							"name": "path",
							"type": "address[]"
						}
					],
					"name": "getAmountsOut",
					"outputs": [
						{
							"internalType": "uint256[]",
							"name": "amounts",
							"type": "uint256[]"
						}
					],
					"stateMutability": "view",
					"type": "function"
				},
				{
					"inputs": [
						{
							"internalType": "uint256",
							"name": "amountA",
							"type": "uint256"
						},
						{
							"internalType": "uint256",
							"name": "reserveA",
							"type": "uint256"
						},
						{
							"internalType": "uint256",
							"name": "reserveB",
							"type": "uint256"
						}
					],
					"name": "quote",
					"outputs": [
						{
							"internalType": "uint256",
							"name": "amountB",
							"type": "uint256"
						}
					],
					"stateMutability": "pure",
					"type": "function"
				},
				{
					"inputs": [
						{
							"internalType": "address",
							"name": "tokenA",
							"type": "address"
						},
						{
							"internalType": "address",
							"name": "tokenB",
							"type": "address"
						},
						{
							"internalType": "uint256",
							"name": "liquidity",
							"type": "uint256"
						},
						{
							"internalType": "uint256",
							"name": "amountAMin",
							"type": "uint256"
						},
						{
							"internalType": "uint256",
							"name": "amountBMin",
							"type": "uint256"
						},
						{
							"internalType": "address",
							"name": "to",
							"type": "address"
						},
						{
							"internalType": "uint256",
							"name": "deadline",
							"type": "uint256"
						}
					],
					"name": "removeLiquidity",
					"outputs": [
						{
							"internalType": "uint256",
							"name": "amountA",
							"type": "uint256"
						},
						{
							"internalType": "uint256",
							"name": "amountB",
							"type": "uint256"
						}
					],
					"stateMutability": "nonpayable",
					"type": "function"
				},
				{
					"inputs": [
						{
							"internalType": "address",
							"name": "token",
							"type": "address"
						},
						{
							"internalType": "uint256",
							"name": "liquidity",
							"type": "uint256"
						},
						{
							"internalType": "uint256",
							"name": "amountTokenMin",
							"type": "uint256"
						},
						{
							"internalType": "uint256",
							"name": "amountETHMin",
							"type": "uint256"
						},
						{
							"internalType": "address",
							"name": "to",
							"type": "address"
						},
						{
							"internalType": "uint256",
							"name": "deadline",
							"type": "uint256"
						}
					],
					"name": "removeLiquidityETH",
					"outputs": [
						{
							"internalType": "uint256",
							"name": "amountToken",
							"type": "uint256"
						},
						{
							"internalType": "uint256",
							"name": "amountETH",
							"type": "uint256"
						}
					],
					"stateMutability": "nonpayable",
					"type": "function"
				},
				{
					"inputs": [
						{
							"internalType": "address",
							"name": "token",
							"type": "address"
						},
						{
							"internalType": "uint256",
							"name": "liquidity",
							"type": "uint256"
						},
						{
							"internalType": "uint256",
							"name": "amountTokenMin",
							"type": "uint256"
						},
						{
							"internalType": "uint256",
							"name": "amountETHMin",
							"type": "uint256"
						},
						{
							"internalType": "address",
							"name": "to",
							"type": "address"
						},
						{
							"internalType": "uint256",
							"name": "deadline",
							"type": "uint256"
						},
						{
							"internalType": "bool",
							"name": "approveMax",
							"type": "bool"
						},
						{
							"internalType": "uint8",
							"name": "v",
							"type": "uint8"
						},
						{
							"internalType": "bytes32",
							"name": "r",
							"type": "bytes32"
						},
						{
							"internalType": "bytes32",
							"name": "s",
							"type": "bytes32"
						}
					],
					"name": "removeLiquidityETHWithPermit",
					"outputs": [
						{
							"internalType": "uint256",
							"name": "amountToken",
							"type": "uint256"
						},
						{
							"internalType": "uint256",
							"name": "amountETH",
							"type": "uint256"
						}
					],
					"stateMutability": "nonpayable",
					"type": "function"
				},
				{
					"inputs": [
						{
							"internalType": "address",
							"name": "tokenA",
							"type": "address"
						},
						{
							"internalType": "address",
							"name": "tokenB",
							"type": "address"
						},
						{
							"internalType": "uint256",
							"name": "liquidity",
							"type": "uint256"
						},
						{
							"internalType": "uint256",
							"name": "amountAMin",
							"type": "uint256"
						},
						{
							"internalType": "uint256",
							"name": "amountBMin",
							"type": "uint256"
						},
						{
							"internalType": "address",
							"name": "to",
							"type": "address"
						},
						{
							"internalType": "uint256",
							"name": "deadline",
							"type": "uint256"
						},
						{
							"internalType": "bool",
							"name": "approveMax",
							"type": "bool"
						},
						{
							"internalType": "uint8",
							"name": "v",
							"type": "uint8"
						},
						{
							"internalType": "bytes32",
							"name": "r",
							"type": "bytes32"
						},
						{
							"internalType": "bytes32",
							"name": "s",
							"type": "bytes32"
						}
					],
					"name": "removeLiquidityWithPermit",
					"outputs": [
						{
							"internalType": "uint256",
							"name": "amountA",
							"type": "uint256"
						},
						{
							"internalType": "uint256",
							"name": "amountB",
							"type": "uint256"
						}
					],
					"stateMutability": "nonpayable",
					"type": "function"
				},
				{
					"inputs": [
						{
							"internalType": "uint256",
							"name": "amountOut",
							"type": "uint256"
						},
						{
							"internalType": "address[]",
							"name": "path",
							"type": "address[]"
						},
						{
							"internalType": "address",
							"name": "to",
							"type": "address"
						},
						{
							"internalType": "uint256",
							"name": "deadline",
							"type": "uint256"
						}
					],
					"name": "swapETHForExactTokens",
					"outputs": [
						{
							"internalType": "uint256[]",
							"name": "amounts",
							"type": "uint256[]"
						}
					],
					"stateMutability": "payable",
					"type": "function"
				},
				{
					"inputs": [
						{
							"internalType": "uint256",
							"name": "amountOutMin",
							"type": "uint256"
						},
						{
							"internalType": "address[]",
							"name": "path",
							"type": "address[]"
						},
						{
							"internalType": "address",
							"name": "to",
							"type": "address"
						},
						{
							"internalType": "uint256",
							"name": "deadline",
							"type": "uint256"
						}
					],
					"name": "swapExactETHForTokens",
					"outputs": [
						{
							"internalType": "uint256[]",
							"name": "amounts",
							"type": "uint256[]"
						}
					],
					"stateMutability": "payable",
					"type": "function"
				},
				{
					"inputs": [
						{
							"internalType": "uint256",
							"name": "amountIn",
							"type": "uint256"
						},
						{
							"internalType": "uint256",
							"name": "amountOutMin",
							"type": "uint256"
						},
						{
							"internalType": "address[]",
							"name": "path",
							"type": "address[]"
						},
						{
							"internalType": "address",
							"name": "to",
							"type": "address"
						},
						{
							"internalType": "uint256",
							"name": "deadline",
							"type": "uint256"
						}
					],
					"name": "swapExactTokensForETH",
					"outputs": [
						{
							"internalType": "uint256[]",
							"name": "amounts",
							"type": "uint256[]"
						}
					],
					"stateMutability": "nonpayable",
					"type": "function"
				},
				{
					"inputs": [
						{
							"internalType": "uint256",
							"name": "amountIn",
							"type": "uint256"
						},
						{
							"internalType": "uint256",
							"name": "amountOutMin",
							"type": "uint256"
						},
						{
							"internalType": "address[]",
							"name": "path",
							"type": "address[]"
						},
						{
							"internalType": "address",
							"name": "to",
							"type": "address"
						},
						{
							"internalType": "uint256",
							"name": "deadline",
							"type": "uint256"
						}
					],
					"name": "swapExactTokensForTokens",
					"outputs": [
						{
							"internalType": "uint256[]",
							"name": "amounts",
							"type": "uint256[]"
						}
					],
					"stateMutability": "nonpayable",
					"type": "function"
				},
				{
					"inputs": [
						{
							"internalType": "uint256",
							"name": "amountOut",
							"type": "uint256"
						},
						{
							"internalType": "uint256",
							"name": "amountInMax",
							"type": "uint256"
						},
						{
							"internalType": "address[]",
							"name": "path",
							"type": "address[]"
						},
						{
							"internalType": "address",
							"name": "to",
							"type": "address"
						},
						{
							"internalType": "uint256",
							"name": "deadline",
							"type": "uint256"
						}
					],
					"name": "swapTokensForExactETH",
					"outputs": [
						{
							"internalType": "uint256[]",
							"name": "amounts",
							"type": "uint256[]"
						}
					],
					"stateMutability": "nonpayable",
					"type": "function"
				},
				{
					"inputs": [
						{
							"internalType": "uint256",
							"name": "amountOut",
							"type": "uint256"
						},
						{
							"internalType": "uint256",
							"name": "amountInMax",
							"type": "uint256"
						},
						{
							"internalType": "address[]",
							"name": "path",
							"type": "address[]"
						},
						{
							"internalType": "address",
							"name": "to",
							"type": "address"
						},
						{
							"internalType": "uint256",
							"name": "deadline",
							"type": "uint256"
						}
					],
					"name": "swapTokensForExactTokens",
					"outputs": [
						{
							"internalType": "uint256[]",
							"name": "amounts",
							"type": "uint256[]"
						}
					],
					"stateMutability": "nonpayable",
					"type": "function"
				},
				{
					"stateMutability": "payable",
					"type": "receive"
				}
			],
			"devdoc": {
				"methods": {}
			},
			"evm": {
				"assembly": "    /* \"projects/exchange-protocol/contracts/ExzoneRouter01.sol\":317:12540  contract ExzoneRouter01 is IExzoneRouter01 {... */\n  mstore(0x40, 0xc0)\n    /* \"projects/exchange-protocol/contracts/ExzoneRouter01.sol\":584:693  constructor(address _factory, address _WETH) public {... */\n  callvalue\n    /* \"--CODEGEN--\":5:14   */\n  dup1\n    /* \"--CODEGEN--\":2:4   */\n  iszero\n  tag_1\n  jumpi\n    /* \"--CODEGEN--\":27:28   */\n  0x00\n    /* \"--CODEGEN--\":24:25   */\n  dup1\n    /* \"--CODEGEN--\":17:29   */\n  revert\n    /* \"--CODEGEN--\":2:4   */\ntag_1:\n    /* \"projects/exchange-protocol/contracts/ExzoneRouter01.sol\":584:693  constructor(address _factory, address _WETH) public {... */\n  pop\n  mload(0x40)\n  sub(codesize, bytecodeSize)\n  dup1\n  bytecodeSize\n  dup4\n  codecopy\n  dup2\n  dup2\n  add\n  0x40\n  mstore\n    /* \"--CODEGEN--\":15:17   */\n  0x40\n    /* \"--CODEGEN--\":10:13   */\n  dup2\n    /* \"--CODEGEN--\":7:18   */\n  lt\n    /* \"--CODEGEN--\":4:6   */\n  iszero\n  tag_2\n  jumpi\n    /* \"--CODEGEN--\":31:32   */\n  0x00\n    /* \"--CODEGEN--\":28:29   */\n  dup1\n    /* \"--CODEGEN--\":21:33   */\n  revert\n    /* \"--CODEGEN--\":4:6   */\ntag_2:\n    /* \"projects/exchange-protocol/contracts/ExzoneRouter01.sol\":584:693  constructor(address _factory, address _WETH) public {... */\n  dup2\n  add\n  swap1\n  dup1\n  dup1\n  mload\n  swap1\n  0x20\n  add\n  swap1\n  swap3\n  swap2\n  swap1\n  dup1\n  mload\n  swap1\n  0x20\n  add\n  swap1\n  swap3\n  swap2\n  swap1\n  pop\n  pop\n  pop\n    /* \"projects/exchange-protocol/contracts/ExzoneRouter01.sol\":656:664  _factory */\n  dup2\n    /* \"projects/exchange-protocol/contracts/ExzoneRouter01.sol\":646:664  factory = _factory */\n  0xffffffffffffffffffffffffffffffffffffffff\n  and\n  0x80\n  dup2\n  0xffffffffffffffffffffffffffffffffffffffff\n  and\n  0x60\n  shl\n  dup2\n  mstore\n  pop\n  pop\n    /* \"projects/exchange-protocol/contracts/ExzoneRouter01.sol\":681:686  _WETH */\n  dup1\n    /* \"projects/exchange-protocol/contracts/ExzoneRouter01.sol\":674:686  WETH = _WETH */\n  0xffffffffffffffffffffffffffffffffffffffff\n  and\n  0xa0\n  dup2\n  0xffffffffffffffffffffffffffffffffffffffff\n  and\n  0x60\n  shl\n  dup2\n  mstore\n  pop\n  pop\n    /* \"projects/exchange-protocol/contracts/ExzoneRouter01.sol\":584:693  constructor(address _factory, address _WETH) public {... */\n  pop\n  pop\n    /* \"projects/exchange-protocol/contracts/ExzoneRouter01.sol\":317:12540  contract ExzoneRouter01 is IExzoneRouter01 {... */\n  shr(0x60, mload(0x80))\n  shr(0x60, mload(0xa0))\n  codecopy(0x00, dataOffset(sub_0), dataSize(sub_0))\n  assignImmutable(\"0x9abd569a0444be7ce52d46a7fb79009940c0c0442116f15017290ff13cb4450c\")\n  assignImmutable(\"0x5bcd163b2238ff85648d293e01a327b5c7f9ae69498a752a4883e839ddddafcb\")\n  return(0x00, dataSize(sub_0))\nstop\n\nsub_0: assembly {\n        /* \"projects/exchange-protocol/contracts/ExzoneRouter01.sol\":317:12540  contract ExzoneRouter01 is IExzoneRouter01 {... */\n      mstore(0x40, 0x80)\n      jumpi(tag_1, lt(calldatasize, 0x04))\n      shr(0xe0, calldataload(0x00))\n      dup1\n      0x8803dbee\n      gt\n      tag_22\n      jumpi\n      dup1\n      0xd06ca61f\n      gt\n      tag_23\n      jumpi\n      dup1\n      0xd06ca61f\n      eq\n      tag_17\n      jumpi\n      dup1\n      0xded9382a\n      eq\n      tag_18\n      jumpi\n      dup1\n      0xe8e33700\n      eq\n      tag_19\n      jumpi\n      dup1\n      0xf305d719\n      eq\n      tag_20\n      jumpi\n      dup1\n      0xfb3bdb41\n      eq\n      tag_21\n      jumpi\n      jump(tag_2)\n    tag_23:\n      dup1\n      0x8803dbee\n      eq\n      tag_12\n      jumpi\n      dup1\n      0xad5c4648\n      eq\n      tag_13\n      jumpi\n      dup1\n      0xad615dec\n      eq\n      tag_14\n      jumpi\n      dup1\n      0xbaa2abde\n      eq\n      tag_15\n      jumpi\n      dup1\n      0xc45a0155\n      eq\n      tag_16\n      jumpi\n      jump(tag_2)\n    tag_22:\n      dup1\n      0x2195995c\n      gt\n      tag_24\n      jumpi\n      dup1\n      0x2195995c\n      eq\n      tag_7\n      jumpi\n      dup1\n      0x38ed1739\n      eq\n      tag_8\n      jumpi\n      dup1\n      0x4a25d94a\n      eq\n      tag_9\n      jumpi\n      dup1\n      0x7ff36ab5\n      eq\n      tag_10\n      jumpi\n      dup1\n      0x85f8c259\n      eq\n      tag_11\n      jumpi\n      jump(tag_2)\n    tag_24:\n      dup1\n      0x02751cec\n      eq\n      tag_3\n      jumpi\n      dup1\n      0x054d50d4\n      eq\n      tag_4\n      jumpi\n      dup1\n      0x18cbafe5\n      eq\n      tag_5\n      jumpi\n      dup1\n      0x1f00ca74\n      eq\n      tag_6\n      jumpi\n      jump(tag_2)\n    tag_1:\n      jumpi(tag_2, calldatasize)\n        /* \"projects/exchange-protocol/contracts/ExzoneRouter01.sol\":757:761  WETH */\n      immutable(\"0x9abd569a0444be7ce52d46a7fb79009940c0c0442116f15017290ff13cb4450c\")\n        /* \"projects/exchange-protocol/contracts/ExzoneRouter01.sol\":743:761  msg.sender == WETH */\n      0xffffffffffffffffffffffffffffffffffffffff\n      and\n        /* \"projects/exchange-protocol/contracts/ExzoneRouter01.sol\":743:753  msg.sender */\n      caller\n        /* \"projects/exchange-protocol/contracts/ExzoneRouter01.sol\":743:761  msg.sender == WETH */\n      0xffffffffffffffffffffffffffffffffffffffff\n      and\n      eq\n        /* \"projects/exchange-protocol/contracts/ExzoneRouter01.sol\":736:762  assert(msg.sender == WETH) */\n      tag_27\n      jumpi\n      invalid\n    tag_27:\n        /* \"projects/exchange-protocol/contracts/ExzoneRouter01.sol\":317:12540  contract ExzoneRouter01 is IExzoneRouter01 {... */\n      stop\n    tag_2:\n        /* \"--CODEGEN--\":12:13   */\n      0x00\n        /* \"--CODEGEN--\":9:10   */\n      dup1\n        /* \"--CODEGEN--\":2:14   */\n      revert\n        /* \"projects/exchange-protocol/contracts/ExzoneRouter01.sol\":4710:5355  function removeLiquidityETH(... */\n    tag_3:\n      callvalue\n        /* \"--CODEGEN--\":5:14   */\n      dup1\n        /* \"--CODEGEN--\":2:4   */\n      iszero\n      tag_28\n      jumpi\n        /* \"--CODEGEN--\":27:28   */\n      0x00\n        /* \"--CODEGEN--\":24:25   */\n      dup1\n        /* \"--CODEGEN--\":17:29   */\n      revert\n        /* \"--CODEGEN--\":2:4   */\n    tag_28:\n        /* \"projects/exchange-protocol/contracts/ExzoneRouter01.sol\":4710:5355  function removeLiquidityETH(... */\n      pop\n      tag_29\n      0x04\n      dup1\n      calldatasize\n      sub\n        /* \"--CODEGEN--\":15:18   */\n      0xc0\n        /* \"--CODEGEN--\":10:13   */\n      dup2\n        /* \"--CODEGEN--\":7:19   */\n      lt\n        /* \"--CODEGEN--\":4:6   */\n      iszero\n      tag_30\n      jumpi\n        /* \"--CODEGEN--\":32:33   */\n      0x00\n        /* \"--CODEGEN--\":29:30   */\n      dup1\n        /* \"--CODEGEN--\":22:34   */\n      revert\n        /* \"--CODEGEN--\":4:6   */\n    tag_30:\n        /* \"projects/exchange-protocol/contracts/ExzoneRouter01.sol\":4710:5355  function removeLiquidityETH(... */\n      dup2\n      add\n      swap1\n      dup1\n      dup1\n      calldataload\n      0xffffffffffffffffffffffffffffffffffffffff\n      and\n      swap1\n      0x20\n      add\n      swap1\n      swap3\n      swap2\n      swap1\n      dup1\n      calldataload\n      swap1\n      0x20\n      add\n      swap1\n      swap3\n      swap2\n      swap1\n      dup1\n      calldataload\n      swap1\n      0x20\n      add\n      swap1\n      swap3\n      swap2\n      swap1\n      dup1\n      calldataload\n      swap1\n      0x20\n      add\n      swap1\n      swap3\n      swap2\n      swap1\n      dup1\n      calldataload\n      0xffffffffffffffffffffffffffffffffffffffff\n      and\n      swap1\n      0x20\n      add\n      swap1\n      swap3\n      swap2\n      swap1\n      dup1\n      calldataload\n      swap1\n      0x20\n      add\n      swap1\n      swap3\n      swap2\n      swap1\n      pop\n      pop\n      pop\n      tag_31\n      jump\t// in\n    tag_29:\n      mload(0x40)\n      dup1\n      dup4\n      dup2\n      mstore\n      0x20\n      add\n      dup3\n      dup2\n      mstore\n      0x20\n      add\n      swap3\n      pop\n      pop\n      pop\n      mload(0x40)\n      dup1\n      swap2\n      sub\n      swap1\n      return\n        /* \"projects/exchange-protocol/contracts/ExzoneRouter01.sol\":11742:11941  function getAmountOut(uint amountIn, uint reserveIn, uint reserveOut) public pure override returns (uint amountOut) {... */\n    tag_4:\n      callvalue\n        /* \"--CODEGEN--\":5:14   */\n      dup1\n        /* \"--CODEGEN--\":2:4   */\n      iszero\n      tag_32\n      jumpi\n        /* \"--CODEGEN--\":27:28   */\n      0x00\n        /* \"--CODEGEN--\":24:25   */\n      dup1\n        /* \"--CODEGEN--\":17:29   */\n      revert\n        /* \"--CODEGEN--\":2:4   */\n    tag_32:\n        /* \"projects/exchange-protocol/contracts/ExzoneRouter01.sol\":11742:11941  function getAmountOut(uint amountIn, uint reserveIn, uint reserveOut) public pure override returns (uint amountOut) {... */\n      pop\n      tag_33\n      0x04\n      dup1\n      calldatasize\n      sub\n        /* \"--CODEGEN--\":15:17   */\n      0x60\n        /* \"--CODEGEN--\":10:13   */\n      dup2\n        /* \"--CODEGEN--\":7:18   */\n      lt\n        /* \"--CODEGEN--\":4:6   */\n      iszero\n      tag_34\n      jumpi\n        /* \"--CODEGEN--\":31:32   */\n      0x00\n        /* \"--CODEGEN--\":28:29   */\n      dup1\n        /* \"--CODEGEN--\":21:33   */\n      revert\n        /* \"--CODEGEN--\":4:6   */\n    tag_34:\n        /* \"projects/exchange-protocol/contracts/ExzoneRouter01.sol\":11742:11941  function getAmountOut(uint amountIn, uint reserveIn, uint reserveOut) public pure override returns (uint amountOut) {... */\n      dup2\n      add\n      swap1\n      dup1\n      dup1\n      calldataload\n      swap1\n      0x20\n      add\n      swap1\n      swap3\n      swap2\n      swap1\n      dup1\n      calldataload\n      swap1\n      0x20\n      add\n      swap1\n      swap3\n      swap2\n      swap1\n      dup1\n      calldataload\n      swap1\n      0x20\n      add\n      swap1\n      swap3\n      swap2\n      swap1\n      pop\n      pop\n      pop\n      tag_35\n      jump\t// in\n    tag_33:\n      mload(0x40)\n      dup1\n      dup3\n      dup2\n      mstore\n      0x20\n      add\n      swap2\n      pop\n      pop\n      mload(0x40)\n      dup1\n      swap2\n      sub\n      swap1\n      return\n        /* \"projects/exchange-protocol/contracts/ExzoneRouter01.sol\":10008:10792  function swapExactTokensForETH(uint amountIn, uint amountOutMin, address[] calldata path, address to, uint deadline)... */\n    tag_5:\n      callvalue\n        /* \"--CODEGEN--\":5:14   */\n      dup1\n        /* \"--CODEGEN--\":2:4   */\n      iszero\n      tag_36\n      jumpi\n        /* \"--CODEGEN--\":27:28   */\n      0x00\n        /* \"--CODEGEN--\":24:25   */\n      dup1\n        /* \"--CODEGEN--\":17:29   */\n      revert\n        /* \"--CODEGEN--\":2:4   */\n    tag_36:\n        /* \"projects/exchange-protocol/contracts/ExzoneRouter01.sol\":10008:10792  function swapExactTokensForETH(uint amountIn, uint amountOutMin, address[] calldata path, address to, uint deadline)... */\n      pop\n      tag_37\n      0x04\n      dup1\n      calldatasize\n      sub\n        /* \"--CODEGEN--\":15:18   */\n      0xa0\n        /* \"--CODEGEN--\":10:13   */\n      dup2\n        /* \"--CODEGEN--\":7:19   */\n      lt\n        /* \"--CODEGEN--\":4:6   */\n      iszero\n      tag_38\n      jumpi\n        /* \"--CODEGEN--\":32:33   */\n      0x00\n        /* \"--CODEGEN--\":29:30   */\n      dup1\n        /* \"--CODEGEN--\":22:34   */\n      revert\n        /* \"--CODEGEN--\":4:6   */\n    tag_38:\n        /* \"projects/exchange-protocol/contracts/ExzoneRouter01.sol\":10008:10792  function swapExactTokensForETH(uint amountIn, uint amountOutMin, address[] calldata path, address to, uint deadline)... */\n      dup2\n      add\n      swap1\n      dup1\n      dup1\n      calldataload\n      swap1\n      0x20\n      add\n      swap1\n      swap3\n      swap2\n      swap1\n      dup1\n      calldataload\n      swap1\n      0x20\n      add\n      swap1\n      swap3\n      swap2\n      swap1\n      dup1\n      calldataload\n      swap1\n      0x20\n      add\n      swap1\n        /* \"--CODEGEN--\":27:38   */\n      0x0100000000\n        /* \"--CODEGEN--\":14:25   */\n      dup2\n        /* \"--CODEGEN--\":11:39   */\n      gt\n        /* \"--CODEGEN--\":8:10   */\n      iszero\n      tag_39\n      jumpi\n        /* \"--CODEGEN--\":52:53   */\n      0x00\n        /* \"--CODEGEN--\":49:50   */\n      dup1\n        /* \"--CODEGEN--\":42:54   */\n      revert\n        /* \"--CODEGEN--\":8:10   */\n    tag_39:\n        /* \"projects/exchange-protocol/contracts/ExzoneRouter01.sol\":10008:10792  function swapExactTokensForETH(uint amountIn, uint amountOutMin, address[] calldata path, address to, uint deadline)... */\n      dup3\n      add\n        /* \"--CODEGEN--\":41:50   */\n      dup4\n        /* \"--CODEGEN--\":34:38   */\n      0x20\n        /* \"--CODEGEN--\":18:32   */\n      dup3\n        /* \"--CODEGEN--\":14:39   */\n      add\n        /* \"--CODEGEN--\":11:51   */\n      gt\n        /* \"--CODEGEN--\":8:10   */\n      iszero\n      tag_40\n      jumpi\n        /* \"--CODEGEN--\":64:65   */\n      0x00\n        /* \"--CODEGEN--\":61:62   */\n      dup1\n        /* \"--CODEGEN--\":54:66   */\n      revert\n        /* \"--CODEGEN--\":8:10   */\n    tag_40:\n        /* \"projects/exchange-protocol/contracts/ExzoneRouter01.sol\":10008:10792  function swapExactTokensForETH(uint amountIn, uint amountOutMin, address[] calldata path, address to, uint deadline)... */\n      dup1\n      calldataload\n      swap1\n      0x20\n      add\n      swap2\n        /* \"--CODEGEN--\":101:110   */\n      dup5\n        /* \"--CODEGEN--\":95:97   */\n      0x20\n        /* \"--CODEGEN--\":81:93   */\n      dup4\n        /* \"--CODEGEN--\":77:98   */\n      mul\n        /* \"--CODEGEN--\":67:75   */\n      dup5\n        /* \"--CODEGEN--\":63:99   */\n      add\n        /* \"--CODEGEN--\":60:111   */\n      gt\n        /* \"--CODEGEN--\":39:50   */\n      0x0100000000\n        /* \"--CODEGEN--\":25:37   */\n      dup4\n        /* \"--CODEGEN--\":22:51   */\n      gt\n        /* \"--CODEGEN--\":11:119   */\n      or\n        /* \"--CODEGEN--\":8:10   */\n      iszero\n      tag_41\n      jumpi\n        /* \"--CODEGEN--\":132:133   */\n      0x00\n        /* \"--CODEGEN--\":129:130   */\n      dup1\n        /* \"--CODEGEN--\":122:134   */\n      revert\n        /* \"--CODEGEN--\":8:10   */\n    tag_41:\n        /* \"projects/exchange-protocol/contracts/ExzoneRouter01.sol\":10008:10792  function swapExactTokensForETH(uint amountIn, uint amountOutMin, address[] calldata path, address to, uint deadline)... */\n      swap1\n      swap2\n      swap3\n      swap4\n      swap2\n      swap3\n      swap4\n      swap1\n      dup1\n      calldataload\n      0xffffffffffffffffffffffffffffffffffffffff\n      and\n      swap1\n      0x20\n      add\n      swap1\n      swap3\n      swap2\n      swap1\n      dup1\n      calldataload\n      swap1\n      0x20\n      add\n      swap1\n      swap3\n      swap2\n      swap1\n      pop\n      pop\n      pop\n      tag_42\n      jump\t// in\n    tag_37:\n      mload(0x40)\n      dup1\n      dup1\n      0x20\n      add\n      dup3\n      dup2\n      sub\n      dup3\n      mstore\n      dup4\n      dup2\n      dup2\n      mload\n      dup2\n      mstore\n      0x20\n      add\n      swap2\n      pop\n      dup1\n      mload\n      swap1\n      0x20\n      add\n      swap1\n      0x20\n      mul\n      dup1\n      dup4\n      dup4\n        /* \"--CODEGEN--\":23:24   */\n      0x00\n        /* \"--CODEGEN--\":8:108   */\n    tag_43:\n        /* \"--CODEGEN--\":33:36   */\n      dup4\n        /* \"--CODEGEN--\":30:31   */\n      dup2\n        /* \"--CODEGEN--\":27:37   */\n      lt\n        /* \"--CODEGEN--\":8:108   */\n      iszero\n      tag_45\n      jumpi\n        /* \"--CODEGEN--\":99:100   */\n      dup1\n        /* \"--CODEGEN--\":94:97   */\n      dup3\n        /* \"--CODEGEN--\":90:101   */\n      add\n        /* \"--CODEGEN--\":84:102   */\n      mload\n        /* \"--CODEGEN--\":80:81   */\n      dup2\n        /* \"--CODEGEN--\":75:78   */\n      dup5\n        /* \"--CODEGEN--\":71:82   */\n      add\n        /* \"--CODEGEN--\":64:103   */\n      mstore\n        /* \"--CODEGEN--\":52:54   */\n      0x20\n        /* \"--CODEGEN--\":49:50   */\n      dup2\n        /* \"--CODEGEN--\":45:55   */\n      add\n        /* \"--CODEGEN--\":40:55   */\n      swap1\n      pop\n        /* \"--CODEGEN--\":8:108   */\n      jump(tag_43)\n    tag_45:\n        /* \"--CODEGEN--\":12:26   */\n      pop\n        /* \"projects/exchange-protocol/contracts/ExzoneRouter01.sol\":10008:10792  function swapExactTokensForETH(uint amountIn, uint amountOutMin, address[] calldata path, address to, uint deadline)... */\n      pop\n      pop\n      pop\n      swap1\n      pop\n      add\n      swap3\n      pop\n      pop\n      pop\n      mload(0x40)\n      dup1\n      swap2\n      sub\n      swap1\n      return\n        /* \"projects/exchange-protocol/contracts/ExzoneRouter01.sol\":12348:12538  function getAmountsIn(uint amountOut, address[] memory path) public view override returns (uint[] memory amounts) {... */\n    tag_6:\n      callvalue\n        /* \"--CODEGEN--\":5:14   */\n      dup1\n        /* \"--CODEGEN--\":2:4   */\n      iszero\n      tag_46\n      jumpi\n        /* \"--CODEGEN--\":27:28   */\n      0x00\n        /* \"--CODEGEN--\":24:25   */\n      dup1\n        /* \"--CODEGEN--\":17:29   */\n      revert\n        /* \"--CODEGEN--\":2:4   */\n    tag_46:\n        /* \"projects/exchange-protocol/contracts/ExzoneRouter01.sol\":12348:12538  function getAmountsIn(uint amountOut, address[] memory path) public view override returns (uint[] memory amounts) {... */\n      pop\n      tag_47\n      0x04\n      dup1\n      calldatasize\n      sub\n        /* \"--CODEGEN--\":15:17   */\n      0x40\n        /* \"--CODEGEN--\":10:13   */\n      dup2\n        /* \"--CODEGEN--\":7:18   */\n      lt\n        /* \"--CODEGEN--\":4:6   */\n      iszero\n      tag_48\n      jumpi\n        /* \"--CODEGEN--\":31:32   */\n      0x00\n        /* \"--CODEGEN--\":28:29   */\n      dup1\n        /* \"--CODEGEN--\":21:33   */\n      revert\n        /* \"--CODEGEN--\":4:6   */\n    tag_48:\n        /* \"projects/exchange-protocol/contracts/ExzoneRouter01.sol\":12348:12538  function getAmountsIn(uint amountOut, address[] memory path) public view override returns (uint[] memory amounts) {... */\n      dup2\n      add\n      swap1\n      dup1\n      dup1\n      calldataload\n      swap1\n      0x20\n      add\n      swap1\n      swap3\n      swap2\n      swap1\n      dup1\n      calldataload\n      swap1\n      0x20\n      add\n      swap1\n        /* \"--CODEGEN--\":27:38   */\n      0x0100000000\n        /* \"--CODEGEN--\":14:25   */\n      dup2\n        /* \"--CODEGEN--\":11:39   */\n      gt\n        /* \"--CODEGEN--\":8:10   */\n      iszero\n      tag_49\n      jumpi\n        /* \"--CODEGEN--\":52:53   */\n      0x00\n        /* \"--CODEGEN--\":49:50   */\n      dup1\n        /* \"--CODEGEN--\":42:54   */\n      revert\n        /* \"--CODEGEN--\":8:10   */\n    tag_49:\n        /* \"projects/exchange-protocol/contracts/ExzoneRouter01.sol\":12348:12538  function getAmountsIn(uint amountOut, address[] memory path) public view override returns (uint[] memory amounts) {... */\n      dup3\n      add\n        /* \"--CODEGEN--\":41:50   */\n      dup4\n        /* \"--CODEGEN--\":34:38   */\n      0x20\n        /* \"--CODEGEN--\":18:32   */\n      dup3\n        /* \"--CODEGEN--\":14:39   */\n      add\n        /* \"--CODEGEN--\":11:51   */\n      gt\n        /* \"--CODEGEN--\":8:10   */\n      iszero\n      tag_50\n      jumpi\n        /* \"--CODEGEN--\":64:65   */\n      0x00\n        /* \"--CODEGEN--\":61:62   */\n      dup1\n        /* \"--CODEGEN--\":54:66   */\n      revert\n        /* \"--CODEGEN--\":8:10   */\n    tag_50:\n        /* \"projects/exchange-protocol/contracts/ExzoneRouter01.sol\":12348:12538  function getAmountsIn(uint amountOut, address[] memory path) public view override returns (uint[] memory amounts) {... */\n      dup1\n      calldataload\n      swap1\n      0x20\n      add\n      swap2\n        /* \"--CODEGEN--\":101:110   */\n      dup5\n        /* \"--CODEGEN--\":95:97   */\n      0x20\n        /* \"--CODEGEN--\":81:93   */\n      dup4\n        /* \"--CODEGEN--\":77:98   */\n      mul\n        /* \"--CODEGEN--\":67:75   */\n      dup5\n        /* \"--CODEGEN--\":63:99   */\n      add\n        /* \"--CODEGEN--\":60:111   */\n      gt\n        /* \"--CODEGEN--\":39:50   */\n      0x0100000000\n        /* \"--CODEGEN--\":25:37   */\n      dup4\n        /* \"--CODEGEN--\":22:51   */\n      gt\n        /* \"--CODEGEN--\":11:119   */\n      or\n        /* \"--CODEGEN--\":8:10   */\n      iszero\n      tag_51\n      jumpi\n        /* \"--CODEGEN--\":132:133   */\n      0x00\n        /* \"--CODEGEN--\":129:130   */\n      dup1\n        /* \"--CODEGEN--\":122:134   */\n      revert\n        /* \"--CODEGEN--\":8:10   */\n    tag_51:\n        /* \"projects/exchange-protocol/contracts/ExzoneRouter01.sol\":12348:12538  function getAmountsIn(uint amountOut, address[] memory path) public view override returns (uint[] memory amounts) {... */\n      swap2\n      swap1\n      dup1\n      dup1\n      0x20\n      mul\n      0x20\n      add\n      mload(0x40)\n      swap1\n      dup2\n      add\n      0x40\n      mstore\n      dup1\n      swap4\n      swap3\n      swap2\n      swap1\n      dup2\n      dup2\n      mstore\n      0x20\n      add\n      dup4\n      dup4\n      0x20\n      mul\n        /* \"--CODEGEN--\":30:33   */\n      dup1\n        /* \"--CODEGEN--\":22:28   */\n      dup3\n        /* \"--CODEGEN--\":14:20   */\n      dup5\n        /* \"--CODEGEN--\":1:34   */\n      calldatacopy\n        /* \"--CODEGEN--\":99:100   */\n      0x00\n        /* \"--CODEGEN--\":93:96   */\n      dup2\n        /* \"--CODEGEN--\":85:91   */\n      dup5\n        /* \"--CODEGEN--\":81:97   */\n      add\n        /* \"--CODEGEN--\":74:101   */\n      mstore\n        /* \"--CODEGEN--\":137:141   */\n      0x1f\n        /* \"--CODEGEN--\":133:142   */\n      not\n        /* \"--CODEGEN--\":126:130   */\n      0x1f\n        /* \"--CODEGEN--\":121:124   */\n      dup3\n        /* \"--CODEGEN--\":117:131   */\n      add\n        /* \"--CODEGEN--\":113:143   */\n      and\n        /* \"--CODEGEN--\":106:143   */\n      swap1\n      pop\n        /* \"--CODEGEN--\":169:172   */\n      dup1\n        /* \"--CODEGEN--\":161:167   */\n      dup4\n        /* \"--CODEGEN--\":157:173   */\n      add\n        /* \"--CODEGEN--\":147:173   */\n      swap3\n      pop\n        /* \"projects/exchange-protocol/contracts/ExzoneRouter01.sol\":12348:12538  function getAmountsIn(uint amountOut, address[] memory path) public view override returns (uint[] memory amounts) {... */\n      pop\n      pop\n      pop\n      pop\n      pop\n      pop\n      swap2\n      swap3\n      swap2\n      swap3\n      swap1\n      pop\n      pop\n      pop\n      tag_52\n      jump\t// in\n    tag_47:\n      mload(0x40)\n      dup1\n      dup1\n      0x20\n      add\n      dup3\n      dup2\n      sub\n      dup3\n      mstore\n      dup4\n      dup2\n      dup2\n      mload\n      dup2\n      mstore\n      0x20\n      add\n      swap2\n      pop\n      dup1\n      mload\n      swap1\n      0x20\n      add\n      swap1\n      0x20\n      mul\n      dup1\n      dup4\n      dup4\n        /* \"--CODEGEN--\":23:24   */\n      0x00\n        /* \"--CODEGEN--\":8:108   */\n    tag_53:\n        /* \"--CODEGEN--\":33:36   */\n      dup4\n        /* \"--CODEGEN--\":30:31   */\n      dup2\n        /* \"--CODEGEN--\":27:37   */\n      lt\n        /* \"--CODEGEN--\":8:108   */\n      iszero\n      tag_55\n      jumpi\n        /* \"--CODEGEN--\":99:100   */\n      dup1\n        /* \"--CODEGEN--\":94:97   */\n      dup3\n        /* \"--CODEGEN--\":90:101   */\n      add\n        /* \"--CODEGEN--\":84:102   */\n      mload\n        /* \"--CODEGEN--\":80:81   */\n      dup2\n        /* \"--CODEGEN--\":75:78   */\n      dup5\n        /* \"--CODEGEN--\":71:82   */\n      add\n        /* \"--CODEGEN--\":64:103   */\n      mstore\n        /* \"--CODEGEN--\":52:54   */\n      0x20\n        /* \"--CODEGEN--\":49:50   */\n      dup2\n        /* \"--CODEGEN--\":45:55   */\n      add\n        /* \"--CODEGEN--\":40:55   */\n      swap1\n      pop\n        /* \"--CODEGEN--\":8:108   */\n      jump(tag_53)\n    tag_55:\n        /* \"--CODEGEN--\":12:26   */\n      pop\n        /* \"projects/exchange-protocol/contracts/ExzoneRouter01.sol\":12348:12538  function getAmountsIn(uint amountOut, address[] memory path) public view override returns (uint[] memory amounts) {... */\n      pop\n      pop\n      pop\n      swap1\n      pop\n      add\n      swap3\n      pop\n      pop\n      pop\n      mload(0x40)\n      dup1\n      swap2\n      sub\n      swap1\n      return\n        /* \"projects/exchange-protocol/contracts/ExzoneRouter01.sol\":5360:6009  function removeLiquidityWithPermit(... */\n    tag_7:\n      callvalue\n        /* \"--CODEGEN--\":5:14   */\n      dup1\n        /* \"--CODEGEN--\":2:4   */\n      iszero\n      tag_56\n      jumpi\n        /* \"--CODEGEN--\":27:28   */\n      0x00\n        /* \"--CODEGEN--\":24:25   */\n      dup1\n        /* \"--CODEGEN--\":17:29   */\n      revert\n        /* \"--CODEGEN--\":2:4   */\n    tag_56:\n        /* \"projects/exchange-protocol/contracts/ExzoneRouter01.sol\":5360:6009  function removeLiquidityWithPermit(... */\n      pop\n      tag_57\n      0x04\n      dup1\n      calldatasize\n      sub\n        /* \"--CODEGEN--\":15:18   */\n      0x0160\n        /* \"--CODEGEN--\":10:13   */\n      dup2\n        /* \"--CODEGEN--\":7:19   */\n      lt\n        /* \"--CODEGEN--\":4:6   */\n      iszero\n      tag_58\n      jumpi\n        /* \"--CODEGEN--\":32:33   */\n      0x00\n        /* \"--CODEGEN--\":29:30   */\n      dup1\n        /* \"--CODEGEN--\":22:34   */\n      revert\n        /* \"--CODEGEN--\":4:6   */\n    tag_58:\n        /* \"projects/exchange-protocol/contracts/ExzoneRouter01.sol\":5360:6009  function removeLiquidityWithPermit(... */\n      dup2\n      add\n      swap1\n      dup1\n      dup1\n      calldataload\n      0xffffffffffffffffffffffffffffffffffffffff\n      and\n      swap1\n      0x20\n      add\n      swap1\n      swap3\n      swap2\n      swap1\n      dup1\n      calldataload\n      0xffffffffffffffffffffffffffffffffffffffff\n      and\n      swap1\n      0x20\n      add\n      swap1\n      swap3\n      swap2\n      swap1\n      dup1\n      calldataload\n      swap1\n      0x20\n      add\n      swap1\n      swap3\n      swap2\n      swap1\n      dup1\n      calldataload\n      swap1\n      0x20\n      add\n      swap1\n      swap3\n      swap2\n      swap1\n      dup1\n      calldataload\n      swap1\n      0x20\n      add\n      swap1\n      swap3\n      swap2\n      swap1\n      dup1\n      calldataload\n      0xffffffffffffffffffffffffffffffffffffffff\n      and\n      swap1\n      0x20\n      add\n      swap1\n      swap3\n      swap2\n      swap1\n      dup1\n      calldataload\n      swap1\n      0x20\n      add\n      swap1\n      swap3\n      swap2\n      swap1\n      dup1\n      calldataload\n      iszero\n      iszero\n      swap1\n      0x20\n      add\n      swap1\n      swap3\n      swap2\n      swap1\n      dup1\n      calldataload\n      0xff\n      and\n      swap1\n      0x20\n      add\n      swap1\n      swap3\n      swap2\n      swap1\n      dup1\n      calldataload\n      swap1\n      0x20\n      add\n      swap1\n      swap3\n      swap2\n      swap1\n      dup1\n      calldataload\n      swap1\n      0x20\n      add\n      swap1\n      swap3\n      swap2\n      swap1\n      pop\n      pop\n      pop\n      tag_59\n      jump\t// in\n    tag_57:\n      mload(0x40)\n      dup1\n      dup4\n      dup2\n      mstore\n      0x20\n      add\n      dup3\n      dup2\n      mstore\n      0x20\n      add\n      swap3\n      pop\n      pop\n      pop\n      mload(0x40)\n      dup1\n      swap2\n      sub\n      swap1\n      return\n        /* \"projects/exchange-protocol/contracts/ExzoneRouter01.sol\":7441:8017  function swapExactTokensForTokens(... */\n    tag_8:\n      callvalue\n        /* \"--CODEGEN--\":5:14   */\n      dup1\n        /* \"--CODEGEN--\":2:4   */\n      iszero\n      tag_60\n      jumpi\n        /* \"--CODEGEN--\":27:28   */\n      0x00\n        /* \"--CODEGEN--\":24:25   */\n      dup1\n        /* \"--CODEGEN--\":17:29   */\n      revert\n        /* \"--CODEGEN--\":2:4   */\n    tag_60:\n        /* \"projects/exchange-protocol/contracts/ExzoneRouter01.sol\":7441:8017  function swapExactTokensForTokens(... */\n      pop\n      tag_61\n      0x04\n      dup1\n      calldatasize\n      sub\n        /* \"--CODEGEN--\":15:18   */\n      0xa0\n        /* \"--CODEGEN--\":10:13   */\n      dup2\n        /* \"--CODEGEN--\":7:19   */\n      lt\n        /* \"--CODEGEN--\":4:6   */\n      iszero\n      tag_62\n      jumpi\n        /* \"--CODEGEN--\":32:33   */\n      0x00\n        /* \"--CODEGEN--\":29:30   */\n      dup1\n        /* \"--CODEGEN--\":22:34   */\n      revert\n        /* \"--CODEGEN--\":4:6   */\n    tag_62:\n        /* \"projects/exchange-protocol/contracts/ExzoneRouter01.sol\":7441:8017  function swapExactTokensForTokens(... */\n      dup2\n      add\n      swap1\n      dup1\n      dup1\n      calldataload\n      swap1\n      0x20\n      add\n      swap1\n      swap3\n      swap2\n      swap1\n      dup1\n      calldataload\n      swap1\n      0x20\n      add\n      swap1\n      swap3\n      swap2\n      swap1\n      dup1\n      calldataload\n      swap1\n      0x20\n      add\n      swap1\n        /* \"--CODEGEN--\":27:38   */\n      0x0100000000\n        /* \"--CODEGEN--\":14:25   */\n      dup2\n        /* \"--CODEGEN--\":11:39   */\n      gt\n        /* \"--CODEGEN--\":8:10   */\n      iszero\n      tag_63\n      jumpi\n        /* \"--CODEGEN--\":52:53   */\n      0x00\n        /* \"--CODEGEN--\":49:50   */\n      dup1\n        /* \"--CODEGEN--\":42:54   */\n      revert\n        /* \"--CODEGEN--\":8:10   */\n    tag_63:\n        /* \"projects/exchange-protocol/contracts/ExzoneRouter01.sol\":7441:8017  function swapExactTokensForTokens(... */\n      dup3\n      add\n        /* \"--CODEGEN--\":41:50   */\n      dup4\n        /* \"--CODEGEN--\":34:38   */\n      0x20\n        /* \"--CODEGEN--\":18:32   */\n      dup3\n        /* \"--CODEGEN--\":14:39   */\n      add\n        /* \"--CODEGEN--\":11:51   */\n      gt\n        /* \"--CODEGEN--\":8:10   */\n      iszero\n      tag_64\n      jumpi\n        /* \"--CODEGEN--\":64:65   */\n      0x00\n        /* \"--CODEGEN--\":61:62   */\n      dup1\n        /* \"--CODEGEN--\":54:66   */\n      revert\n        /* \"--CODEGEN--\":8:10   */\n    tag_64:\n        /* \"projects/exchange-protocol/contracts/ExzoneRouter01.sol\":7441:8017  function swapExactTokensForTokens(... */\n      dup1\n      calldataload\n      swap1\n      0x20\n      add\n      swap2\n        /* \"--CODEGEN--\":101:110   */\n      dup5\n        /* \"--CODEGEN--\":95:97   */\n      0x20\n        /* \"--CODEGEN--\":81:93   */\n      dup4\n        /* \"--CODEGEN--\":77:98   */\n      mul\n        /* \"--CODEGEN--\":67:75   */\n      dup5\n        /* \"--CODEGEN--\":63:99   */\n      add\n        /* \"--CODEGEN--\":60:111   */\n      gt\n        /* \"--CODEGEN--\":39:50   */\n      0x0100000000\n        /* \"--CODEGEN--\":25:37   */\n      dup4\n        /* \"--CODEGEN--\":22:51   */\n      gt\n        /* \"--CODEGEN--\":11:119   */\n      or\n        /* \"--CODEGEN--\":8:10   */\n      iszero\n      tag_65\n      jumpi\n        /* \"--CODEGEN--\":132:133   */\n      0x00\n        /* \"--CODEGEN--\":129:130   */\n      dup1\n        /* \"--CODEGEN--\":122:134   */\n      revert\n        /* \"--CODEGEN--\":8:10   */\n    tag_65:\n        /* \"projects/exchange-protocol/contracts/ExzoneRouter01.sol\":7441:8017  function swapExactTokensForTokens(... */\n      swap1\n      swap2\n      swap3\n      swap4\n      swap2\n      swap3\n      swap4\n      swap1\n      dup1\n      calldataload\n      0xffffffffffffffffffffffffffffffffffffffff\n      and\n      swap1\n      0x20\n      add\n      swap1\n      swap3\n      swap2\n      swap1\n      dup1\n      calldataload\n      swap1\n      0x20\n      add\n      swap1\n      swap3\n      swap2\n      swap1\n      pop\n      pop\n      pop\n      tag_66\n      jump\t// in\n    tag_61:\n      mload(0x40)\n      dup1\n      dup1\n      0x20\n      add\n      dup3\n      dup2\n      sub\n      dup3\n      mstore\n      dup4\n      dup2\n      dup2\n      mload\n      dup2\n      mstore\n      0x20\n      add\n      swap2\n      pop\n      dup1\n      mload\n      swap1\n      0x20\n      add\n      swap1\n      0x20\n      mul\n      dup1\n      dup4\n      dup4\n        /* \"--CODEGEN--\":23:24   */\n      0x00\n        /* \"--CODEGEN--\":8:108   */\n    tag_67:\n        /* \"--CODEGEN--\":33:36   */\n      dup4\n        /* \"--CODEGEN--\":30:31   */\n      dup2\n        /* \"--CODEGEN--\":27:37   */\n      lt\n        /* \"--CODEGEN--\":8:108   */\n      iszero\n      tag_69\n      jumpi\n        /* \"--CODEGEN--\":99:100   */\n      dup1\n        /* \"--CODEGEN--\":94:97   */\n      dup3\n        /* \"--CODEGEN--\":90:101   */\n      add\n        /* \"--CODEGEN--\":84:102   */\n      mload\n        /* \"--CODEGEN--\":80:81   */\n      dup2\n        /* \"--CODEGEN--\":75:78   */\n      dup5\n        /* \"--CODEGEN--\":71:82   */\n      add\n        /* \"--CODEGEN--\":64:103   */\n      mstore\n        /* \"--CODEGEN--\":52:54   */\n      0x20\n        /* \"--CODEGEN--\":49:50   */\n      dup2\n        /* \"--CODEGEN--\":45:55   */\n      add\n        /* \"--CODEGEN--\":40:55   */\n      swap1\n      pop\n        /* \"--CODEGEN--\":8:108   */\n      jump(tag_67)\n    tag_69:\n        /* \"--CODEGEN--\":12:26   */\n      pop\n        /* \"projects/exchange-protocol/contracts/ExzoneRouter01.sol\":7441:8017  function swapExactTokensForTokens(... */\n      pop\n      pop\n      pop\n      swap1\n      pop\n      add\n      swap3\n      pop\n      pop\n      pop\n      mload(0x40)\n      dup1\n      swap2\n      sub\n      swap1\n      return\n        /* \"projects/exchange-protocol/contracts/ExzoneRouter01.sol\":9241:10003  function swapTokensForExactETH(uint amountOut, uint amountInMax, address[] calldata path, address to, uint deadline)... */\n    tag_9:\n      callvalue\n        /* \"--CODEGEN--\":5:14   */\n      dup1\n        /* \"--CODEGEN--\":2:4   */\n      iszero\n      tag_70\n      jumpi\n        /* \"--CODEGEN--\":27:28   */\n      0x00\n        /* \"--CODEGEN--\":24:25   */\n      dup1\n        /* \"--CODEGEN--\":17:29   */\n      revert\n        /* \"--CODEGEN--\":2:4   */\n    tag_70:\n        /* \"projects/exchange-protocol/contracts/ExzoneRouter01.sol\":9241:10003  function swapTokensForExactETH(uint amountOut, uint amountInMax, address[] calldata path, address to, uint deadline)... */\n      pop\n      tag_71\n      0x04\n      dup1\n      calldatasize\n      sub\n        /* \"--CODEGEN--\":15:18   */\n      0xa0\n        /* \"--CODEGEN--\":10:13   */\n      dup2\n        /* \"--CODEGEN--\":7:19   */\n      lt\n        /* \"--CODEGEN--\":4:6   */\n      iszero\n      tag_72\n      jumpi\n        /* \"--CODEGEN--\":32:33   */\n      0x00\n        /* \"--CODEGEN--\":29:30   */\n      dup1\n        /* \"--CODEGEN--\":22:34   */\n      revert\n        /* \"--CODEGEN--\":4:6   */\n    tag_72:\n        /* \"projects/exchange-protocol/contracts/ExzoneRouter01.sol\":9241:10003  function swapTokensForExactETH(uint amountOut, uint amountInMax, address[] calldata path, address to, uint deadline)... */\n      dup2\n      add\n      swap1\n      dup1\n      dup1\n      calldataload\n      swap1\n      0x20\n      add\n      swap1\n      swap3\n      swap2\n      swap1\n      dup1\n      calldataload\n      swap1\n      0x20\n      add\n      swap1\n      swap3\n      swap2\n      swap1\n      dup1\n      calldataload\n      swap1\n      0x20\n      add\n      swap1\n        /* \"--CODEGEN--\":27:38   */\n      0x0100000000\n        /* \"--CODEGEN--\":14:25   */\n      dup2\n        /* \"--CODEGEN--\":11:39   */\n      gt\n        /* \"--CODEGEN--\":8:10   */\n      iszero\n      tag_73\n      jumpi\n        /* \"--CODEGEN--\":52:53   */\n      0x00\n        /* \"--CODEGEN--\":49:50   */\n      dup1\n        /* \"--CODEGEN--\":42:54   */\n      revert\n        /* \"--CODEGEN--\":8:10   */\n    tag_73:\n        /* \"projects/exchange-protocol/contracts/ExzoneRouter01.sol\":9241:10003  function swapTokensForExactETH(uint amountOut, uint amountInMax, address[] calldata path, address to, uint deadline)... */\n      dup3\n      add\n        /* \"--CODEGEN--\":41:50   */\n      dup4\n        /* \"--CODEGEN--\":34:38   */\n      0x20\n        /* \"--CODEGEN--\":18:32   */\n      dup3\n        /* \"--CODEGEN--\":14:39   */\n      add\n        /* \"--CODEGEN--\":11:51   */\n      gt\n        /* \"--CODEGEN--\":8:10   */\n      iszero\n      tag_74\n      jumpi\n        /* \"--CODEGEN--\":64:65   */\n      0x00\n        /* \"--CODEGEN--\":61:62   */\n      dup1\n        /* \"--CODEGEN--\":54:66   */\n      revert\n        /* \"--CODEGEN--\":8:10   */\n    tag_74:\n        /* \"projects/exchange-protocol/contracts/ExzoneRouter01.sol\":9241:10003  function swapTokensForExactETH(uint amountOut, uint amountInMax, address[] calldata path, address to, uint deadline)... */\n      dup1\n      calldataload\n      swap1\n      0x20\n      add\n      swap2\n        /* \"--CODEGEN--\":101:110   */\n      dup5\n        /* \"--CODEGEN--\":95:97   */\n      0x20\n        /* \"--CODEGEN--\":81:93   */\n      dup4\n        /* \"--CODEGEN--\":77:98   */\n      mul\n        /* \"--CODEGEN--\":67:75   */\n      dup5\n        /* \"--CODEGEN--\":63:99   */\n      add\n        /* \"--CODEGEN--\":60:111   */\n      gt\n        /* \"--CODEGEN--\":39:50   */\n      0x0100000000\n        /* \"--CODEGEN--\":25:37   */\n      dup4\n        /* \"--CODEGEN--\":22:51   */\n      gt\n        /* \"--CODEGEN--\":11:119   */\n      or\n        /* \"--CODEGEN--\":8:10   */\n      iszero\n      tag_75\n      jumpi\n        /* \"--CODEGEN--\":132:133   */\n      0x00\n        /* \"--CODEGEN--\":129:130   */\n      dup1\n        /* \"--CODEGEN--\":122:134   */\n      revert\n        /* \"--CODEGEN--\":8:10   */\n    tag_75:\n        /* \"projects/exchange-protocol/contracts/ExzoneRouter01.sol\":9241:10003  function swapTokensForExactETH(uint amountOut, uint amountInMax, address[] calldata path, address to, uint deadline)... */\n      swap1\n      swap2\n      swap3\n      swap4\n      swap2\n      swap3\n      swap4\n      swap1\n      dup1\n      calldataload\n      0xffffffffffffffffffffffffffffffffffffffff\n      and\n      swap1\n      0x20\n      add\n      swap1\n      swap3\n      swap2\n      swap1\n      dup1\n      calldataload\n      swap1\n      0x20\n      add\n      swap1\n      swap3\n      swap2\n      swap1\n      pop\n      pop\n      pop\n      tag_76\n      jump\t// in\n    tag_71:\n      mload(0x40)\n      dup1\n      dup1\n      0x20\n      add\n      dup3\n      dup2\n      sub\n      dup3\n      mstore\n      dup4\n      dup2\n      dup2\n      mload\n      dup2\n      mstore\n      0x20\n      add\n      swap2\n      pop\n      dup1\n      mload\n      swap1\n      0x20\n      add\n      swap1\n      0x20\n      mul\n      dup1\n      dup4\n      dup4\n        /* \"--CODEGEN--\":23:24   */\n      0x00\n        /* \"--CODEGEN--\":8:108   */\n    tag_77:\n        /* \"--CODEGEN--\":33:36   */\n      dup4\n        /* \"--CODEGEN--\":30:31   */\n      dup2\n        /* \"--CODEGEN--\":27:37   */\n      lt\n        /* \"--CODEGEN--\":8:108   */\n      iszero\n      tag_79\n      jumpi\n        /* \"--CODEGEN--\":99:100   */\n      dup1\n        /* \"--CODEGEN--\":94:97   */\n      dup3\n        /* \"--CODEGEN--\":90:101   */\n      add\n        /* \"--CODEGEN--\":84:102   */\n      mload\n        /* \"--CODEGEN--\":80:81   */\n      dup2\n        /* \"--CODEGEN--\":75:78   */\n      dup5\n        /* \"--CODEGEN--\":71:82   */\n      add\n        /* \"--CODEGEN--\":64:103   */\n      mstore\n        /* \"--CODEGEN--\":52:54   */\n      0x20\n        /* \"--CODEGEN--\":49:50   */\n      dup2\n        /* \"--CODEGEN--\":45:55   */\n      add\n        /* \"--CODEGEN--\":40:55   */\n      swap1\n      pop\n        /* \"--CODEGEN--\":8:108   */\n      jump(tag_77)\n    tag_79:\n        /* \"--CODEGEN--\":12:26   */\n      pop\n        /* \"projects/exchange-protocol/contracts/ExzoneRouter01.sol\":9241:10003  function swapTokensForExactETH(uint amountOut, uint amountInMax, address[] calldata path, address to, uint deadline)... */\n      pop\n      pop\n      pop\n      swap1\n      pop\n      add\n      swap3\n      pop\n      pop\n      pop\n      mload(0x40)\n      dup1\n      swap2\n      sub\n      swap1\n      return\n        /* \"projects/exchange-protocol/contracts/ExzoneRouter01.sol\":8581:9236  function swapExactETHForTokens(uint amountOutMin, address[] calldata path, address to, uint deadline)... */\n    tag_10:\n      tag_80\n      0x04\n      dup1\n      calldatasize\n      sub\n        /* \"--CODEGEN--\":15:18   */\n      0x80\n        /* \"--CODEGEN--\":10:13   */\n      dup2\n        /* \"--CODEGEN--\":7:19   */\n      lt\n        /* \"--CODEGEN--\":4:6   */\n      iszero\n      tag_81\n      jumpi\n        /* \"--CODEGEN--\":32:33   */\n      0x00\n        /* \"--CODEGEN--\":29:30   */\n      dup1\n        /* \"--CODEGEN--\":22:34   */\n      revert\n        /* \"--CODEGEN--\":4:6   */\n    tag_81:\n        /* \"projects/exchange-protocol/contracts/ExzoneRouter01.sol\":8581:9236  function swapExactETHForTokens(uint amountOutMin, address[] calldata path, address to, uint deadline)... */\n      dup2\n      add\n      swap1\n      dup1\n      dup1\n      calldataload\n      swap1\n      0x20\n      add\n      swap1\n      swap3\n      swap2\n      swap1\n      dup1\n      calldataload\n      swap1\n      0x20\n      add\n      swap1\n        /* \"--CODEGEN--\":27:38   */\n      0x0100000000\n        /* \"--CODEGEN--\":14:25   */\n      dup2\n        /* \"--CODEGEN--\":11:39   */\n      gt\n        /* \"--CODEGEN--\":8:10   */\n      iszero\n      tag_82\n      jumpi\n        /* \"--CODEGEN--\":52:53   */\n      0x00\n        /* \"--CODEGEN--\":49:50   */\n      dup1\n        /* \"--CODEGEN--\":42:54   */\n      revert\n        /* \"--CODEGEN--\":8:10   */\n    tag_82:\n        /* \"projects/exchange-protocol/contracts/ExzoneRouter01.sol\":8581:9236  function swapExactETHForTokens(uint amountOutMin, address[] calldata path, address to, uint deadline)... */\n      dup3\n      add\n        /* \"--CODEGEN--\":41:50   */\n      dup4\n        /* \"--CODEGEN--\":34:38   */\n      0x20\n        /* \"--CODEGEN--\":18:32   */\n      dup3\n        /* \"--CODEGEN--\":14:39   */\n      add\n        /* \"--CODEGEN--\":11:51   */\n      gt\n        /* \"--CODEGEN--\":8:10   */\n      iszero\n      tag_83\n      jumpi\n        /* \"--CODEGEN--\":64:65   */\n      0x00\n        /* \"--CODEGEN--\":61:62   */\n      dup1\n        /* \"--CODEGEN--\":54:66   */\n      revert\n        /* \"--CODEGEN--\":8:10   */\n    tag_83:\n        /* \"projects/exchange-protocol/contracts/ExzoneRouter01.sol\":8581:9236  function swapExactETHForTokens(uint amountOutMin, address[] calldata path, address to, uint deadline)... */\n      dup1\n      calldataload\n      swap1\n      0x20\n      add\n      swap2\n        /* \"--CODEGEN--\":101:110   */\n      dup5\n        /* \"--CODEGEN--\":95:97   */\n      0x20\n        /* \"--CODEGEN--\":81:93   */\n      dup4\n        /* \"--CODEGEN--\":77:98   */\n      mul\n        /* \"--CODEGEN--\":67:75   */\n      dup5\n        /* \"--CODEGEN--\":63:99   */\n      add\n        /* \"--CODEGEN--\":60:111   */\n      gt\n        /* \"--CODEGEN--\":39:50   */\n      0x0100000000\n        /* \"--CODEGEN--\":25:37   */\n      dup4\n        /* \"--CODEGEN--\":22:51   */\n      gt\n        /* \"--CODEGEN--\":11:119   */\n      or\n        /* \"--CODEGEN--\":8:10   */\n      iszero\n      tag_84\n      jumpi\n        /* \"--CODEGEN--\":132:133   */\n      0x00\n        /* \"--CODEGEN--\":129:130   */\n      dup1\n        /* \"--CODEGEN--\":122:134   */\n      revert\n        /* \"--CODEGEN--\":8:10   */\n    tag_84:\n        /* \"projects/exchange-protocol/contracts/ExzoneRouter01.sol\":8581:9236  function swapExactETHForTokens(uint amountOutMin, address[] calldata path, address to, uint deadline)... */\n      swap1\n      swap2\n      swap3\n      swap4\n      swap2\n      swap3\n      swap4\n      swap1\n      dup1\n      calldataload\n      0xffffffffffffffffffffffffffffffffffffffff\n      and\n      swap1\n      0x20\n      add\n      swap1\n      swap3\n      swap2\n      swap1\n      dup1\n      calldataload\n      swap1\n      0x20\n      add\n      swap1\n      swap3\n      swap2\n      swap1\n      pop\n      pop\n      pop\n      tag_85\n      jump\t// in\n    tag_80:\n      mload(0x40)\n      dup1\n      dup1\n      0x20\n      add\n      dup3\n      dup2\n      sub\n      dup3\n      mstore\n      dup4\n      dup2\n      dup2\n      mload\n      dup2\n      mstore\n      0x20\n      add\n      swap2\n      pop\n      dup1\n      mload\n      swap1\n      0x20\n      add\n      swap1\n      0x20\n      mul\n      dup1\n      dup4\n      dup4\n        /* \"--CODEGEN--\":23:24   */\n      0x00\n        /* \"--CODEGEN--\":8:108   */\n    tag_86:\n        /* \"--CODEGEN--\":33:36   */\n      dup4\n        /* \"--CODEGEN--\":30:31   */\n      dup2\n        /* \"--CODEGEN--\":27:37   */\n      lt\n        /* \"--CODEGEN--\":8:108   */\n      iszero\n      tag_88\n      jumpi\n        /* \"--CODEGEN--\":99:100   */\n      dup1\n        /* \"--CODEGEN--\":94:97   */\n      dup3\n        /* \"--CODEGEN--\":90:101   */\n      add\n        /* \"--CODEGEN--\":84:102   */\n      mload\n        /* \"--CODEGEN--\":80:81   */\n      dup2\n        /* \"--CODEGEN--\":75:78   */\n      dup5\n        /* \"--CODEGEN--\":71:82   */\n      add\n        /* \"--CODEGEN--\":64:103   */\n      mstore\n        /* \"--CODEGEN--\":52:54   */\n      0x20\n        /* \"--CODEGEN--\":49:50   */\n      dup2\n        /* \"--CODEGEN--\":45:55   */\n      add\n        /* \"--CODEGEN--\":40:55   */\n      swap1\n      pop\n        /* \"--CODEGEN--\":8:108   */\n      jump(tag_86)\n    tag_88:\n        /* \"--CODEGEN--\":12:26   */\n      pop\n        /* \"projects/exchange-protocol/contracts/ExzoneRouter01.sol\":8581:9236  function swapExactETHForTokens(uint amountOutMin, address[] calldata path, address to, uint deadline)... */\n      pop\n      pop\n      pop\n      swap1\n      pop\n      add\n      swap3\n      pop\n      pop\n      pop\n      mload(0x40)\n      dup1\n      swap2\n      sub\n      swap1\n      return\n        /* \"projects/exchange-protocol/contracts/ExzoneRouter01.sol\":11947:12146  function getAmountIn(uint amountOut, uint reserveIn, uint reserveOut) public pure override returns (uint amountIn) {... */\n    tag_11:\n      callvalue\n        /* \"--CODEGEN--\":5:14   */\n      dup1\n        /* \"--CODEGEN--\":2:4   */\n      iszero\n      tag_89\n      jumpi\n        /* \"--CODEGEN--\":27:28   */\n      0x00\n        /* \"--CODEGEN--\":24:25   */\n      dup1\n        /* \"--CODEGEN--\":17:29   */\n      revert\n        /* \"--CODEGEN--\":2:4   */\n    tag_89:\n        /* \"projects/exchange-protocol/contracts/ExzoneRouter01.sol\":11947:12146  function getAmountIn(uint amountOut, uint reserveIn, uint reserveOut) public pure override returns (uint amountIn) {... */\n      pop\n      tag_90\n      0x04\n      dup1\n      calldatasize\n      sub\n        /* \"--CODEGEN--\":15:17   */\n      0x60\n        /* \"--CODEGEN--\":10:13   */\n      dup2\n        /* \"--CODEGEN--\":7:18   */\n      lt\n        /* \"--CODEGEN--\":4:6   */\n      iszero\n      tag_91\n      jumpi\n        /* \"--CODEGEN--\":31:32   */\n      0x00\n        /* \"--CODEGEN--\":28:29   */\n      dup1\n        /* \"--CODEGEN--\":21:33   */\n      revert\n        /* \"--CODEGEN--\":4:6   */\n    tag_91:\n        /* \"projects/exchange-protocol/contracts/ExzoneRouter01.sol\":11947:12146  function getAmountIn(uint amountOut, uint reserveIn, uint reserveOut) public pure override returns (uint amountIn) {... */\n      dup2\n      add\n      swap1\n      dup1\n      dup1\n      calldataload\n      swap1\n      0x20\n      add\n      swap1\n      swap3\n      swap2\n      swap1\n      dup1\n      calldataload\n      swap1\n      0x20\n      add\n      swap1\n      swap3\n      swap2\n      swap1\n      dup1\n      calldataload\n      swap1\n      0x20\n      add\n      swap1\n      swap3\n      swap2\n      swap1\n      pop\n      pop\n      pop\n      tag_92\n      jump\t// in\n    tag_90:\n      mload(0x40)\n      dup1\n      dup3\n      dup2\n      mstore\n      0x20\n      add\n      swap2\n      pop\n      pop\n      mload(0x40)\n      dup1\n      swap2\n      sub\n      swap1\n      return\n        /* \"projects/exchange-protocol/contracts/ExzoneRouter01.sol\":8022:8576  function swapTokensForExactTokens(... */\n    tag_12:\n      callvalue\n        /* \"--CODEGEN--\":5:14   */\n      dup1\n        /* \"--CODEGEN--\":2:4   */\n      iszero\n      tag_93\n      jumpi\n        /* \"--CODEGEN--\":27:28   */\n      0x00\n        /* \"--CODEGEN--\":24:25   */\n      dup1\n        /* \"--CODEGEN--\":17:29   */\n      revert\n        /* \"--CODEGEN--\":2:4   */\n    tag_93:\n        /* \"projects/exchange-protocol/contracts/ExzoneRouter01.sol\":8022:8576  function swapTokensForExactTokens(... */\n      pop\n      tag_94\n      0x04\n      dup1\n      calldatasize\n      sub\n        /* \"--CODEGEN--\":15:18   */\n      0xa0\n        /* \"--CODEGEN--\":10:13   */\n      dup2\n        /* \"--CODEGEN--\":7:19   */\n      lt\n        /* \"--CODEGEN--\":4:6   */\n      iszero\n      tag_95\n      jumpi\n        /* \"--CODEGEN--\":32:33   */\n      0x00\n        /* \"--CODEGEN--\":29:30   */\n      dup1\n        /* \"--CODEGEN--\":22:34   */\n      revert\n        /* \"--CODEGEN--\":4:6   */\n    tag_95:\n        /* \"projects/exchange-protocol/contracts/ExzoneRouter01.sol\":8022:8576  function swapTokensForExactTokens(... */\n      dup2\n      add\n      swap1\n      dup1\n      dup1\n      calldataload\n      swap1\n      0x20\n      add\n      swap1\n      swap3\n      swap2\n      swap1\n      dup1\n      calldataload\n      swap1\n      0x20\n      add\n      swap1\n      swap3\n      swap2\n      swap1\n      dup1\n      calldataload\n      swap1\n      0x20\n      add\n      swap1\n        /* \"--CODEGEN--\":27:38   */\n      0x0100000000\n        /* \"--CODEGEN--\":14:25   */\n      dup2\n        /* \"--CODEGEN--\":11:39   */\n      gt\n        /* \"--CODEGEN--\":8:10   */\n      iszero\n      tag_96\n      jumpi\n        /* \"--CODEGEN--\":52:53   */\n      0x00\n        /* \"--CODEGEN--\":49:50   */\n      dup1\n        /* \"--CODEGEN--\":42:54   */\n      revert\n        /* \"--CODEGEN--\":8:10   */\n    tag_96:\n        /* \"projects/exchange-protocol/contracts/ExzoneRouter01.sol\":8022:8576  function swapTokensForExactTokens(... */\n      dup3\n      add\n        /* \"--CODEGEN--\":41:50   */\n      dup4\n        /* \"--CODEGEN--\":34:38   */\n      0x20\n        /* \"--CODEGEN--\":18:32   */\n      dup3\n        /* \"--CODEGEN--\":14:39   */\n      add\n        /* \"--CODEGEN--\":11:51   */\n      gt\n        /* \"--CODEGEN--\":8:10   */\n      iszero\n      tag_97\n      jumpi\n        /* \"--CODEGEN--\":64:65   */\n      0x00\n        /* \"--CODEGEN--\":61:62   */\n      dup1\n        /* \"--CODEGEN--\":54:66   */\n      revert\n        /* \"--CODEGEN--\":8:10   */\n    tag_97:\n        /* \"projects/exchange-protocol/contracts/ExzoneRouter01.sol\":8022:8576  function swapTokensForExactTokens(... */\n      dup1\n      calldataload\n      swap1\n      0x20\n      add\n      swap2\n        /* \"--CODEGEN--\":101:110   */\n      dup5\n        /* \"--CODEGEN--\":95:97   */\n      0x20\n        /* \"--CODEGEN--\":81:93   */\n      dup4\n        /* \"--CODEGEN--\":77:98   */\n      mul\n        /* \"--CODEGEN--\":67:75   */\n      dup5\n        /* \"--CODEGEN--\":63:99   */\n      add\n        /* \"--CODEGEN--\":60:111   */\n      gt\n        /* \"--CODEGEN--\":39:50   */\n      0x0100000000\n        /* \"--CODEGEN--\":25:37   */\n      dup4\n        /* \"--CODEGEN--\":22:51   */\n      gt\n        /* \"--CODEGEN--\":11:119   */\n      or\n        /* \"--CODEGEN--\":8:10   */\n      iszero\n      tag_98\n      jumpi\n        /* \"--CODEGEN--\":132:133   */\n      0x00\n        /* \"--CODEGEN--\":129:130   */\n      dup1\n        /* \"--CODEGEN--\":122:134   */\n      revert\n        /* \"--CODEGEN--\":8:10   */\n    tag_98:\n        /* \"projects/exchange-protocol/contracts/ExzoneRouter01.sol\":8022:8576  function swapTokensForExactTokens(... */\n      swap1\n      swap2\n      swap3\n      swap4\n      swap2\n      swap3\n      swap4\n      swap1\n      dup1\n      calldataload\n      0xffffffffffffffffffffffffffffffffffffffff\n      and\n      swap1\n      0x20\n      add\n      swap1\n      swap3\n      swap2\n      swap1\n      dup1\n      calldataload\n      swap1\n      0x20\n      add\n      swap1\n      swap3\n      swap2\n      swap1\n      pop\n      pop\n      pop\n      tag_99\n      jump\t// in\n    tag_94:\n      mload(0x40)\n      dup1\n      dup1\n      0x20\n      add\n      dup3\n      dup2\n      sub\n      dup3\n      mstore\n      dup4\n      dup2\n      dup2\n      mload\n      dup2\n      mstore\n      0x20\n      add\n      swap2\n      pop\n      dup1\n      mload\n      swap1\n      0x20\n      add\n      swap1\n      0x20\n      mul\n      dup1\n      dup4\n      dup4\n        /* \"--CODEGEN--\":23:24   */\n      0x00\n        /* \"--CODEGEN--\":8:108   */\n    tag_100:\n        /* \"--CODEGEN--\":33:36   */\n      dup4\n        /* \"--CODEGEN--\":30:31   */\n      dup2\n        /* \"--CODEGEN--\":27:37   */\n      lt\n        /* \"--CODEGEN--\":8:108   */\n      iszero\n      tag_102\n      jumpi\n        /* \"--CODEGEN--\":99:100   */\n      dup1\n        /* \"--CODEGEN--\":94:97   */\n      dup3\n        /* \"--CODEGEN--\":90:101   */\n      add\n        /* \"--CODEGEN--\":84:102   */\n      mload\n        /* \"--CODEGEN--\":80:81   */\n      dup2\n        /* \"--CODEGEN--\":75:78   */\n      dup5\n        /* \"--CODEGEN--\":71:82   */\n      add\n        /* \"--CODEGEN--\":64:103   */\n      mstore\n        /* \"--CODEGEN--\":52:54   */\n      0x20\n        /* \"--CODEGEN--\":49:50   */\n      dup2\n        /* \"--CODEGEN--\":45:55   */\n      add\n        /* \"--CODEGEN--\":40:55   */\n      swap1\n      pop\n        /* \"--CODEGEN--\":8:108   */\n      jump(tag_100)\n    tag_102:\n        /* \"--CODEGEN--\":12:26   */\n      pop\n        /* \"projects/exchange-protocol/contracts/ExzoneRouter01.sol\":8022:8576  function swapTokensForExactTokens(... */\n      pop\n      pop\n      pop\n      swap1\n      pop\n      add\n      swap3\n      pop\n      pop\n      pop\n      mload(0x40)\n      dup1\n      swap2\n      sub\n      swap1\n      return\n        /* \"projects/exchange-protocol/contracts/ExzoneRouter01.sol\":413:451  address public immutable override WETH */\n    tag_13:\n      callvalue\n        /* \"--CODEGEN--\":5:14   */\n      dup1\n        /* \"--CODEGEN--\":2:4   */\n      iszero\n      tag_103\n      jumpi\n        /* \"--CODEGEN--\":27:28   */\n      0x00\n        /* \"--CODEGEN--\":24:25   */\n      dup1\n        /* \"--CODEGEN--\":17:29   */\n      revert\n        /* \"--CODEGEN--\":2:4   */\n    tag_103:\n        /* \"projects/exchange-protocol/contracts/ExzoneRouter01.sol\":413:451  address public immutable override WETH */\n      pop\n      tag_104\n      tag_105\n      jump\t// in\n    tag_104:\n      mload(0x40)\n      dup1\n      dup3\n      0xffffffffffffffffffffffffffffffffffffffff\n      and\n      0xffffffffffffffffffffffffffffffffffffffff\n      and\n      dup2\n      mstore\n      0x20\n      add\n      swap2\n      pop\n      pop\n      mload(0x40)\n      dup1\n      swap2\n      sub\n      swap1\n      return\n        /* \"projects/exchange-protocol/contracts/ExzoneRouter01.sol\":11561:11736  function quote(uint amountA, uint reserveA, uint reserveB) public pure override returns (uint amountB) {... */\n    tag_14:\n      callvalue\n        /* \"--CODEGEN--\":5:14   */\n      dup1\n        /* \"--CODEGEN--\":2:4   */\n      iszero\n      tag_106\n      jumpi\n        /* \"--CODEGEN--\":27:28   */\n      0x00\n        /* \"--CODEGEN--\":24:25   */\n      dup1\n        /* \"--CODEGEN--\":17:29   */\n      revert\n        /* \"--CODEGEN--\":2:4   */\n    tag_106:\n        /* \"projects/exchange-protocol/contracts/ExzoneRouter01.sol\":11561:11736  function quote(uint amountA, uint reserveA, uint reserveB) public pure override returns (uint amountB) {... */\n      pop\n      tag_107\n      0x04\n      dup1\n      calldatasize\n      sub\n        /* \"--CODEGEN--\":15:17   */\n      0x60\n        /* \"--CODEGEN--\":10:13   */\n      dup2\n        /* \"--CODEGEN--\":7:18   */\n      lt\n        /* \"--CODEGEN--\":4:6   */\n      iszero\n      tag_108\n      jumpi\n        /* \"--CODEGEN--\":31:32   */\n      0x00\n        /* \"--CODEGEN--\":28:29   */\n      dup1\n        /* \"--CODEGEN--\":21:33   */\n      revert\n        /* \"--CODEGEN--\":4:6   */\n    tag_108:\n        /* \"projects/exchange-protocol/contracts/ExzoneRouter01.sol\":11561:11736  function quote(uint amountA, uint reserveA, uint reserveB) public pure override returns (uint amountB) {... */\n      dup2\n      add\n      swap1\n      dup1\n      dup1\n      calldataload\n      swap1\n      0x20\n      add\n      swap1\n      swap3\n      swap2\n      swap1\n      dup1\n      calldataload\n      swap1\n      0x20\n      add\n      swap1\n      swap3\n      swap2\n      swap1\n      dup1\n      calldataload\n      swap1\n      0x20\n      add\n      swap1\n      swap3\n      swap2\n      swap1\n      pop\n      pop\n      pop\n      tag_109\n      jump\t// in\n    tag_107:\n      mload(0x40)\n      dup1\n      dup3\n      dup2\n      mstore\n      0x20\n      add\n      swap2\n      pop\n      pop\n      mload(0x40)\n      dup1\n      swap2\n      sub\n      swap1\n      return\n        /* \"projects/exchange-protocol/contracts/ExzoneRouter01.sol\":3882:4705  function removeLiquidity(... */\n    tag_15:\n      callvalue\n        /* \"--CODEGEN--\":5:14   */\n      dup1\n        /* \"--CODEGEN--\":2:4   */\n      iszero\n      tag_110\n      jumpi\n        /* \"--CODEGEN--\":27:28   */\n      0x00\n        /* \"--CODEGEN--\":24:25   */\n      dup1\n        /* \"--CODEGEN--\":17:29   */\n      revert\n        /* \"--CODEGEN--\":2:4   */\n    tag_110:\n        /* \"projects/exchange-protocol/contracts/ExzoneRouter01.sol\":3882:4705  function removeLiquidity(... */\n      pop\n      tag_111\n      0x04\n      dup1\n      calldatasize\n      sub\n        /* \"--CODEGEN--\":15:18   */\n      0xe0\n        /* \"--CODEGEN--\":10:13   */\n      dup2\n        /* \"--CODEGEN--\":7:19   */\n      lt\n        /* \"--CODEGEN--\":4:6   */\n      iszero\n      tag_112\n      jumpi\n        /* \"--CODEGEN--\":32:33   */\n      0x00\n        /* \"--CODEGEN--\":29:30   */\n      dup1\n        /* \"--CODEGEN--\":22:34   */\n      revert\n        /* \"--CODEGEN--\":4:6   */\n    tag_112:\n        /* \"projects/exchange-protocol/contracts/ExzoneRouter01.sol\":3882:4705  function removeLiquidity(... */\n      dup2\n      add\n      swap1\n      dup1\n      dup1\n      calldataload\n      0xffffffffffffffffffffffffffffffffffffffff\n      and\n      swap1\n      0x20\n      add\n      swap1\n      swap3\n      swap2\n      swap1\n      dup1\n      calldataload\n      0xffffffffffffffffffffffffffffffffffffffff\n      and\n      swap1\n      0x20\n      add\n      swap1\n      swap3\n      swap2\n      swap1\n      dup1\n      calldataload\n      swap1\n      0x20\n      add\n      swap1\n      swap3\n      swap2\n      swap1\n      dup1\n      calldataload\n      swap1\n      0x20\n      add\n      swap1\n      swap3\n      swap2\n      swap1\n      dup1\n      calldataload\n      swap1\n      0x20\n      add\n      swap1\n      swap3\n      swap2\n      swap1\n      dup1\n      calldataload\n      0xffffffffffffffffffffffffffffffffffffffff\n      and\n      swap1\n      0x20\n      add\n      swap1\n      swap3\n      swap2\n      swap1\n      dup1\n      calldataload\n      swap1\n      0x20\n      add\n      swap1\n      swap3\n      swap2\n      swap1\n      pop\n      pop\n      pop\n      tag_113\n      jump\t// in\n    tag_111:\n      mload(0x40)\n      dup1\n      dup4\n      dup2\n      mstore\n      0x20\n      add\n      dup3\n      dup2\n      mstore\n      0x20\n      add\n      swap3\n      pop\n      pop\n      pop\n      mload(0x40)\n      dup1\n      swap2\n      sub\n      swap1\n      return\n        /* \"projects/exchange-protocol/contracts/ExzoneRouter01.sol\":366:407  address public immutable override factory */\n    tag_16:\n      callvalue\n        /* \"--CODEGEN--\":5:14   */\n      dup1\n        /* \"--CODEGEN--\":2:4   */\n      iszero\n      tag_114\n      jumpi\n        /* \"--CODEGEN--\":27:28   */\n      0x00\n        /* \"--CODEGEN--\":24:25   */\n      dup1\n        /* \"--CODEGEN--\":17:29   */\n      revert\n        /* \"--CODEGEN--\":2:4   */\n    tag_114:\n        /* \"projects/exchange-protocol/contracts/ExzoneRouter01.sol\":366:407  address public immutable override factory */\n      pop\n      tag_115\n      tag_116\n      jump\t// in\n    tag_115:\n      mload(0x40)\n      dup1\n      dup3\n      0xffffffffffffffffffffffffffffffffffffffff\n      and\n      0xffffffffffffffffffffffffffffffffffffffff\n      and\n      dup2\n      mstore\n      0x20\n      add\n      swap2\n      pop\n      pop\n      mload(0x40)\n      dup1\n      swap2\n      sub\n      swap1\n      return\n        /* \"projects/exchange-protocol/contracts/ExzoneRouter01.sol\":12152:12342  function getAmountsOut(uint amountIn, address[] memory path) public view override returns (uint[] memory amounts) {... */\n    tag_17:\n      callvalue\n        /* \"--CODEGEN--\":5:14   */\n      dup1\n        /* \"--CODEGEN--\":2:4   */\n      iszero\n      tag_117\n      jumpi\n        /* \"--CODEGEN--\":27:28   */\n      0x00\n        /* \"--CODEGEN--\":24:25   */\n      dup1\n        /* \"--CODEGEN--\":17:29   */\n      revert\n        /* \"--CODEGEN--\":2:4   */\n    tag_117:\n        /* \"projects/exchange-protocol/contracts/ExzoneRouter01.sol\":12152:12342  function getAmountsOut(uint amountIn, address[] memory path) public view override returns (uint[] memory amounts) {... */\n      pop\n      tag_118\n      0x04\n      dup1\n      calldatasize\n      sub\n        /* \"--CODEGEN--\":15:17   */\n      0x40\n        /* \"--CODEGEN--\":10:13   */\n      dup2\n        /* \"--CODEGEN--\":7:18   */\n      lt\n        /* \"--CODEGEN--\":4:6   */\n      iszero\n      tag_119\n      jumpi\n        /* \"--CODEGEN--\":31:32   */\n      0x00\n        /* \"--CODEGEN--\":28:29   */\n      dup1\n        /* \"--CODEGEN--\":21:33   */\n      revert\n        /* \"--CODEGEN--\":4:6   */\n    tag_119:\n        /* \"projects/exchange-protocol/contracts/ExzoneRouter01.sol\":12152:12342  function getAmountsOut(uint amountIn, address[] memory path) public view override returns (uint[] memory amounts) {... */\n      dup2\n      add\n      swap1\n      dup1\n      dup1\n      calldataload\n      swap1\n      0x20\n      add\n      swap1\n      swap3\n      swap2\n      swap1\n      dup1\n      calldataload\n      swap1\n      0x20\n      add\n      swap1\n        /* \"--CODEGEN--\":27:38   */\n      0x0100000000\n        /* \"--CODEGEN--\":14:25   */\n      dup2\n        /* \"--CODEGEN--\":11:39   */\n      gt\n        /* \"--CODEGEN--\":8:10   */\n      iszero\n      tag_120\n      jumpi\n        /* \"--CODEGEN--\":52:53   */\n      0x00\n        /* \"--CODEGEN--\":49:50   */\n      dup1\n        /* \"--CODEGEN--\":42:54   */\n      revert\n        /* \"--CODEGEN--\":8:10   */\n    tag_120:\n        /* \"projects/exchange-protocol/contracts/ExzoneRouter01.sol\":12152:12342  function getAmountsOut(uint amountIn, address[] memory path) public view override returns (uint[] memory amounts) {... */\n      dup3\n      add\n        /* \"--CODEGEN--\":41:50   */\n      dup4\n        /* \"--CODEGEN--\":34:38   */\n      0x20\n        /* \"--CODEGEN--\":18:32   */\n      dup3\n        /* \"--CODEGEN--\":14:39   */\n      add\n        /* \"--CODEGEN--\":11:51   */\n      gt\n        /* \"--CODEGEN--\":8:10   */\n      iszero\n      tag_121\n      jumpi\n        /* \"--CODEGEN--\":64:65   */\n      0x00\n        /* \"--CODEGEN--\":61:62   */\n      dup1\n        /* \"--CODEGEN--\":54:66   */\n      revert\n        /* \"--CODEGEN--\":8:10   */\n    tag_121:\n        /* \"projects/exchange-protocol/contracts/ExzoneRouter01.sol\":12152:12342  function getAmountsOut(uint amountIn, address[] memory path) public view override returns (uint[] memory amounts) {... */\n      dup1\n      calldataload\n      swap1\n      0x20\n      add\n      swap2\n        /* \"--CODEGEN--\":101:110   */\n      dup5\n        /* \"--CODEGEN--\":95:97   */\n      0x20\n        /* \"--CODEGEN--\":81:93   */\n      dup4\n        /* \"--CODEGEN--\":77:98   */\n      mul\n        /* \"--CODEGEN--\":67:75   */\n      dup5\n        /* \"--CODEGEN--\":63:99   */\n      add\n        /* \"--CODEGEN--\":60:111   */\n      gt\n        /* \"--CODEGEN--\":39:50   */\n      0x0100000000\n        /* \"--CODEGEN--\":25:37   */\n      dup4\n        /* \"--CODEGEN--\":22:51   */\n      gt\n        /* \"--CODEGEN--\":11:119   */\n      or\n        /* \"--CODEGEN--\":8:10   */\n      iszero\n      tag_122\n      jumpi\n        /* \"--CODEGEN--\":132:133   */\n      0x00\n        /* \"--CODEGEN--\":129:130   */\n      dup1\n        /* \"--CODEGEN--\":122:134   */\n      revert\n        /* \"--CODEGEN--\":8:10   */\n    tag_122:\n        /* \"projects/exchange-protocol/contracts/ExzoneRouter01.sol\":12152:12342  function getAmountsOut(uint amountIn, address[] memory path) public view override returns (uint[] memory amounts) {... */\n      swap2\n      swap1\n      dup1\n      dup1\n      0x20\n      mul\n      0x20\n      add\n      mload(0x40)\n      swap1\n      dup2\n      add\n      0x40\n      mstore\n      dup1\n      swap4\n      swap3\n      swap2\n      swap1\n      dup2\n      dup2\n      mstore\n      0x20\n      add\n      dup4\n      dup4\n      0x20\n      mul\n        /* \"--CODEGEN--\":30:33   */\n      dup1\n        /* \"--CODEGEN--\":22:28   */\n      dup3\n        /* \"--CODEGEN--\":14:20   */\n      dup5\n        /* \"--CODEGEN--\":1:34   */\n      calldatacopy\n        /* \"--CODEGEN--\":99:100   */\n      0x00\n        /* \"--CODEGEN--\":93:96   */\n      dup2\n        /* \"--CODEGEN--\":85:91   */\n      dup5\n        /* \"--CODEGEN--\":81:97   */\n      add\n        /* \"--CODEGEN--\":74:101   */\n      mstore\n        /* \"--CODEGEN--\":137:141   */\n      0x1f\n        /* \"--CODEGEN--\":133:142   */\n      not\n        /* \"--CODEGEN--\":126:130   */\n      0x1f\n        /* \"--CODEGEN--\":121:124   */\n      dup3\n        /* \"--CODEGEN--\":117:131   */\n      add\n        /* \"--CODEGEN--\":113:143   */\n      and\n        /* \"--CODEGEN--\":106:143   */\n      swap1\n      pop\n        /* \"--CODEGEN--\":169:172   */\n      dup1\n        /* \"--CODEGEN--\":161:167   */\n      dup4\n        /* \"--CODEGEN--\":157:173   */\n      add\n        /* \"--CODEGEN--\":147:173   */\n      swap3\n      pop\n        /* \"projects/exchange-protocol/contracts/ExzoneRouter01.sol\":12152:12342  function getAmountsOut(uint amountIn, address[] memory path) public view override returns (uint[] memory amounts) {... */\n      pop\n      pop\n      pop\n      pop\n      pop\n      pop\n      swap2\n      swap3\n      swap2\n      swap3\n      swap1\n      pop\n      pop\n      pop\n      tag_123\n      jump\t// in\n    tag_118:\n      mload(0x40)\n      dup1\n      dup1\n      0x20\n      add\n      dup3\n      dup2\n      sub\n      dup3\n      mstore\n      dup4\n      dup2\n      dup2\n      mload\n      dup2\n      mstore\n      0x20\n      add\n      swap2\n      pop\n      dup1\n      mload\n      swap1\n      0x20\n      add\n      swap1\n      0x20\n      mul\n      dup1\n      dup4\n      dup4\n        /* \"--CODEGEN--\":23:24   */\n      0x00\n        /* \"--CODEGEN--\":8:108   */\n    tag_124:\n        /* \"--CODEGEN--\":33:36   */\n      dup4\n        /* \"--CODEGEN--\":30:31   */\n      dup2\n        /* \"--CODEGEN--\":27:37   */\n      lt\n        /* \"--CODEGEN--\":8:108   */\n      iszero\n      tag_126\n      jumpi\n        /* \"--CODEGEN--\":99:100   */\n      dup1\n        /* \"--CODEGEN--\":94:97   */\n      dup3\n        /* \"--CODEGEN--\":90:101   */\n      add\n        /* \"--CODEGEN--\":84:102   */\n      mload\n        /* \"--CODEGEN--\":80:81   */\n      dup2\n        /* \"--CODEGEN--\":75:78   */\n      dup5\n        /* \"--CODEGEN--\":71:82   */\n      add\n        /* \"--CODEGEN--\":64:103   */\n      mstore\n        /* \"--CODEGEN--\":52:54   */\n      0x20\n        /* \"--CODEGEN--\":49:50   */\n      dup2\n        /* \"--CODEGEN--\":45:55   */\n      add\n        /* \"--CODEGEN--\":40:55   */\n      swap1\n      pop\n        /* \"--CODEGEN--\":8:108   */\n      jump(tag_124)\n    tag_126:\n        /* \"--CODEGEN--\":12:26   */\n      pop\n        /* \"projects/exchange-protocol/contracts/ExzoneRouter01.sol\":12152:12342  function getAmountsOut(uint amountIn, address[] memory path) public view override returns (uint[] memory amounts) {... */\n      pop\n      pop\n      pop\n      swap1\n      pop\n      add\n      swap3\n      pop\n      pop\n      pop\n      mload(0x40)\n      dup1\n      swap2\n      sub\n      swap1\n      return\n        /* \"projects/exchange-protocol/contracts/ExzoneRouter01.sol\":6014:6656  function removeLiquidityETHWithPermit(... */\n    tag_18:\n      callvalue\n        /* \"--CODEGEN--\":5:14   */\n      dup1\n        /* \"--CODEGEN--\":2:4   */\n      iszero\n      tag_127\n      jumpi\n        /* \"--CODEGEN--\":27:28   */\n      0x00\n        /* \"--CODEGEN--\":24:25   */\n      dup1\n        /* \"--CODEGEN--\":17:29   */\n      revert\n        /* \"--CODEGEN--\":2:4   */\n    tag_127:\n        /* \"projects/exchange-protocol/contracts/ExzoneRouter01.sol\":6014:6656  function removeLiquidityETHWithPermit(... */\n      pop\n      tag_128\n      0x04\n      dup1\n      calldatasize\n      sub\n        /* \"--CODEGEN--\":15:18   */\n      0x0140\n        /* \"--CODEGEN--\":10:13   */\n      dup2\n        /* \"--CODEGEN--\":7:19   */\n      lt\n        /* \"--CODEGEN--\":4:6   */\n      iszero\n      tag_129\n      jumpi\n        /* \"--CODEGEN--\":32:33   */\n      0x00\n        /* \"--CODEGEN--\":29:30   */\n      dup1\n        /* \"--CODEGEN--\":22:34   */\n      revert\n        /* \"--CODEGEN--\":4:6   */\n    tag_129:\n        /* \"projects/exchange-protocol/contracts/ExzoneRouter01.sol\":6014:6656  function removeLiquidityETHWithPermit(... */\n      dup2\n      add\n      swap1\n      dup1\n      dup1\n      calldataload\n      0xffffffffffffffffffffffffffffffffffffffff\n      and\n      swap1\n      0x20\n      add\n      swap1\n      swap3\n      swap2\n      swap1\n      dup1\n      calldataload\n      swap1\n      0x20\n      add\n      swap1\n      swap3\n      swap2\n      swap1\n      dup1\n      calldataload\n      swap1\n      0x20\n      add\n      swap1\n      swap3\n      swap2\n      swap1\n      dup1\n      calldataload\n      swap1\n      0x20\n      add\n      swap1\n      swap3\n      swap2\n      swap1\n      dup1\n      calldataload\n      0xffffffffffffffffffffffffffffffffffffffff\n      and\n      swap1\n      0x20\n      add\n      swap1\n      swap3\n      swap2\n      swap1\n      dup1\n      calldataload\n      swap1\n      0x20\n      add\n      swap1\n      swap3\n      swap2\n      swap1\n      dup1\n      calldataload\n      iszero\n      iszero\n      swap1\n      0x20\n      add\n      swap1\n      swap3\n      swap2\n      swap1\n      dup1\n      calldataload\n      0xff\n      and\n      swap1\n      0x20\n      add\n      swap1\n      swap3\n      swap2\n      swap1\n      dup1\n      calldataload\n      swap1\n      0x20\n      add\n      swap1\n      swap3\n      swap2\n      swap1\n      dup1\n      calldataload\n      swap1\n      0x20\n      add\n      swap1\n      swap3\n      swap2\n      swap1\n      pop\n      pop\n      pop\n      tag_130\n      jump\t// in\n    tag_128:\n      mload(0x40)\n      dup1\n      dup4\n      dup2\n      mstore\n      0x20\n      add\n      dup3\n      dup2\n      mstore\n      0x20\n      add\n      swap3\n      pop\n      pop\n      pop\n      mload(0x40)\n      dup1\n      swap2\n      sub\n      swap1\n      return\n        /* \"projects/exchange-protocol/contracts/ExzoneRouter01.sol\":2199:2908  function addLiquidity(... */\n    tag_19:\n      callvalue\n        /* \"--CODEGEN--\":5:14   */\n      dup1\n        /* \"--CODEGEN--\":2:4   */\n      iszero\n      tag_131\n      jumpi\n        /* \"--CODEGEN--\":27:28   */\n      0x00\n        /* \"--CODEGEN--\":24:25   */\n      dup1\n        /* \"--CODEGEN--\":17:29   */\n      revert\n        /* \"--CODEGEN--\":2:4   */\n    tag_131:\n        /* \"projects/exchange-protocol/contracts/ExzoneRouter01.sol\":2199:2908  function addLiquidity(... */\n      pop\n      tag_132\n      0x04\n      dup1\n      calldatasize\n      sub\n        /* \"--CODEGEN--\":15:18   */\n      0x0100\n        /* \"--CODEGEN--\":10:13   */\n      dup2\n        /* \"--CODEGEN--\":7:19   */\n      lt\n        /* \"--CODEGEN--\":4:6   */\n      iszero\n      tag_133\n      jumpi\n        /* \"--CODEGEN--\":32:33   */\n      0x00\n        /* \"--CODEGEN--\":29:30   */\n      dup1\n        /* \"--CODEGEN--\":22:34   */\n      revert\n        /* \"--CODEGEN--\":4:6   */\n    tag_133:\n        /* \"projects/exchange-protocol/contracts/ExzoneRouter01.sol\":2199:2908  function addLiquidity(... */\n      dup2\n      add\n      swap1\n      dup1\n      dup1\n      calldataload\n      0xffffffffffffffffffffffffffffffffffffffff\n      and\n      swap1\n      0x20\n      add\n      swap1\n      swap3\n      swap2\n      swap1\n      dup1\n      calldataload\n      0xffffffffffffffffffffffffffffffffffffffff\n      and\n      swap1\n      0x20\n      add\n      swap1\n      swap3\n      swap2\n      swap1\n      dup1\n      calldataload\n      swap1\n      0x20\n      add\n      swap1\n      swap3\n      swap2\n      swap1\n      dup1\n      calldataload\n      swap1\n      0x20\n      add\n      swap1\n      swap3\n      swap2\n      swap1\n      dup1\n      calldataload\n      swap1\n      0x20\n      add\n      swap1\n      swap3\n      swap2\n      swap1\n      dup1\n      calldataload\n      swap1\n      0x20\n      add\n      swap1\n      swap3\n      swap2\n      swap1\n      dup1\n      calldataload\n      0xffffffffffffffffffffffffffffffffffffffff\n      and\n      swap1\n      0x20\n      add\n      swap1\n      swap3\n      swap2\n      swap1\n      dup1\n      calldataload\n      swap1\n      0x20\n      add\n      swap1\n      swap3\n      swap2\n      swap1\n      pop\n      pop\n      pop\n      tag_134\n      jump\t// in\n    tag_132:\n      mload(0x40)\n      dup1\n      dup5\n      dup2\n      mstore\n      0x20\n      add\n      dup4\n      dup2\n      mstore\n      0x20\n      add\n      dup3\n      dup2\n      mstore\n      0x20\n      add\n      swap4\n      pop\n      pop\n      pop\n      pop\n      mload(0x40)\n      dup1\n      swap2\n      sub\n      swap1\n      return\n        /* \"projects/exchange-protocol/contracts/ExzoneRouter01.sol\":2913:3842  function addLiquidityETH(... */\n    tag_20:\n      tag_135\n      0x04\n      dup1\n      calldatasize\n      sub\n        /* \"--CODEGEN--\":15:18   */\n      0xc0\n        /* \"--CODEGEN--\":10:13   */\n      dup2\n        /* \"--CODEGEN--\":7:19   */\n      lt\n        /* \"--CODEGEN--\":4:6   */\n      iszero\n      tag_136\n      jumpi\n        /* \"--CODEGEN--\":32:33   */\n      0x00\n        /* \"--CODEGEN--\":29:30   */\n      dup1\n        /* \"--CODEGEN--\":22:34   */\n      revert\n        /* \"--CODEGEN--\":4:6   */\n    tag_136:\n        /* \"projects/exchange-protocol/contracts/ExzoneRouter01.sol\":2913:3842  function addLiquidityETH(... */\n      dup2\n      add\n      swap1\n      dup1\n      dup1\n      calldataload\n      0xffffffffffffffffffffffffffffffffffffffff\n      and\n      swap1\n      0x20\n      add\n      swap1\n      swap3\n      swap2\n      swap1\n      dup1\n      calldataload\n      swap1\n      0x20\n      add\n      swap1\n      swap3\n      swap2\n      swap1\n      dup1\n      calldataload\n      swap1\n      0x20\n      add\n      swap1\n      swap3\n      swap2\n      swap1\n      dup1\n      calldataload\n      swap1\n      0x20\n      add\n      swap1\n      swap3\n      swap2\n      swap1\n      dup1\n      calldataload\n      0xffffffffffffffffffffffffffffffffffffffff\n      and\n      swap1\n      0x20\n      add\n      swap1\n      swap3\n      swap2\n      swap1\n      dup1\n      calldataload\n      swap1\n      0x20\n      add\n      swap1\n      swap3\n      swap2\n      swap1\n      pop\n      pop\n      pop\n      tag_137\n      jump\t// in\n    tag_135:\n      mload(0x40)\n      dup1\n      dup5\n      dup2\n      mstore\n      0x20\n      add\n      dup4\n      dup2\n      mstore\n      0x20\n      add\n      dup3\n      dup2\n      mstore\n      0x20\n      add\n      swap4\n      pop\n      pop\n      pop\n      pop\n      mload(0x40)\n      dup1\n      swap2\n      sub\n      swap1\n      return\n        /* \"projects/exchange-protocol/contracts/ExzoneRouter01.sol\":10797:11555  function swapETHForExactTokens(uint amountOut, address[] calldata path, address to, uint deadline)... */\n    tag_21:\n      tag_138\n      0x04\n      dup1\n      calldatasize\n      sub\n        /* \"--CODEGEN--\":15:18   */\n      0x80\n        /* \"--CODEGEN--\":10:13   */\n      dup2\n        /* \"--CODEGEN--\":7:19   */\n      lt\n        /* \"--CODEGEN--\":4:6   */\n      iszero\n      tag_139\n      jumpi\n        /* \"--CODEGEN--\":32:33   */\n      0x00\n        /* \"--CODEGEN--\":29:30   */\n      dup1\n        /* \"--CODEGEN--\":22:34   */\n      revert\n        /* \"--CODEGEN--\":4:6   */\n    tag_139:\n        /* \"projects/exchange-protocol/contracts/ExzoneRouter01.sol\":10797:11555  function swapETHForExactTokens(uint amountOut, address[] calldata path, address to, uint deadline)... */\n      dup2\n      add\n      swap1\n      dup1\n      dup1\n      calldataload\n      swap1\n      0x20\n      add\n      swap1\n      swap3\n      swap2\n      swap1\n      dup1\n      calldataload\n      swap1\n      0x20\n      add\n      swap1\n        /* \"--CODEGEN--\":27:38   */\n      0x0100000000\n        /* \"--CODEGEN--\":14:25   */\n      dup2\n        /* \"--CODEGEN--\":11:39   */\n      gt\n        /* \"--CODEGEN--\":8:10   */\n      iszero\n      tag_140\n      jumpi\n        /* \"--CODEGEN--\":52:53   */\n      0x00\n        /* \"--CODEGEN--\":49:50   */\n      dup1\n        /* \"--CODEGEN--\":42:54   */\n      revert\n        /* \"--CODEGEN--\":8:10   */\n    tag_140:\n        /* \"projects/exchange-protocol/contracts/ExzoneRouter01.sol\":10797:11555  function swapETHForExactTokens(uint amountOut, address[] calldata path, address to, uint deadline)... */\n      dup3\n      add\n        /* \"--CODEGEN--\":41:50   */\n      dup4\n        /* \"--CODEGEN--\":34:38   */\n      0x20\n        /* \"--CODEGEN--\":18:32   */\n      dup3\n        /* \"--CODEGEN--\":14:39   */\n      add\n        /* \"--CODEGEN--\":11:51   */\n      gt\n        /* \"--CODEGEN--\":8:10   */\n      iszero\n      tag_141\n      jumpi\n        /* \"--CODEGEN--\":64:65   */\n      0x00\n        /* \"--CODEGEN--\":61:62   */\n      dup1\n        /* \"--CODEGEN--\":54:66   */\n      revert\n        /* \"--CODEGEN--\":8:10   */\n    tag_141:\n        /* \"projects/exchange-protocol/contracts/ExzoneRouter01.sol\":10797:11555  function swapETHForExactTokens(uint amountOut, address[] calldata path, address to, uint deadline)... */\n      dup1\n      calldataload\n      swap1\n      0x20\n      add\n      swap2\n        /* \"--CODEGEN--\":101:110   */\n      dup5\n        /* \"--CODEGEN--\":95:97   */\n      0x20\n        /* \"--CODEGEN--\":81:93   */\n      dup4\n        /* \"--CODEGEN--\":77:98   */\n      mul\n        /* \"--CODEGEN--\":67:75   */\n      dup5\n        /* \"--CODEGEN--\":63:99   */\n      add\n        /* \"--CODEGEN--\":60:111   */\n      gt\n        /* \"--CODEGEN--\":39:50   */\n      0x0100000000\n        /* \"--CODEGEN--\":25:37   */\n      dup4\n        /* \"--CODEGEN--\":22:51   */\n      gt\n        /* \"--CODEGEN--\":11:119   */\n      or\n        /* \"--CODEGEN--\":8:10   */\n      iszero\n      tag_142\n      jumpi\n        /* \"--CODEGEN--\":132:133   */\n      0x00\n        /* \"--CODEGEN--\":129:130   */\n      dup1\n        /* \"--CODEGEN--\":122:134   */\n      revert\n        /* \"--CODEGEN--\":8:10   */\n    tag_142:\n        /* \"projects/exchange-protocol/contracts/ExzoneRouter01.sol\":10797:11555  function swapETHForExactTokens(uint amountOut, address[] calldata path, address to, uint deadline)... */\n      swap1\n      swap2\n      swap3\n      swap4\n      swap2\n      swap3\n      swap4\n      swap1\n      dup1\n      calldataload\n      0xffffffffffffffffffffffffffffffffffffffff\n      and\n      swap1\n      0x20\n      add\n      swap1\n      swap3\n      swap2\n      swap1\n      dup1\n      calldataload\n      swap1\n      0x20\n      add\n      swap1\n      swap3\n      swap2\n      swap1\n      pop\n      pop\n      pop\n      tag_143\n      jump\t// in\n    tag_138:\n      mload(0x40)\n      dup1\n      dup1\n      0x20\n      add\n      dup3\n      dup2\n      sub\n      dup3\n      mstore\n      dup4\n      dup2\n      dup2\n      mload\n      dup2\n      mstore\n      0x20\n      add\n      swap2\n      pop\n      dup1\n      mload\n      swap1\n      0x20\n      add\n      swap1\n      0x20\n      mul\n      dup1\n      dup4\n      dup4\n        /* \"--CODEGEN--\":23:24   */\n      0x00\n        /* \"--CODEGEN--\":8:108   */\n    tag_144:\n        /* \"--CODEGEN--\":33:36   */\n      dup4\n        /* \"--CODEGEN--\":30:31   */\n      dup2\n        /* \"--CODEGEN--\":27:37   */\n      lt\n        /* \"--CODEGEN--\":8:108   */\n      iszero\n      tag_146\n      jumpi\n        /* \"--CODEGEN--\":99:100   */\n      dup1\n        /* \"--CODEGEN--\":94:97   */\n      dup3\n        /* \"--CODEGEN--\":90:101   */\n      add\n        /* \"--CODEGEN--\":84:102   */\n      mload\n        /* \"--CODEGEN--\":80:81   */\n      dup2\n        /* \"--CODEGEN--\":75:78   */\n      dup5\n        /* \"--CODEGEN--\":71:82   */\n      add\n        /* \"--CODEGEN--\":64:103   */\n      mstore\n        /* \"--CODEGEN--\":52:54   */\n      0x20\n        /* \"--CODEGEN--\":49:50   */\n      dup2\n        /* \"--CODEGEN--\":45:55   */\n      add\n        /* \"--CODEGEN--\":40:55   */\n      swap1\n      pop\n        /* \"--CODEGEN--\":8:108   */\n      jump(tag_144)\n    tag_146:\n        /* \"--CODEGEN--\":12:26   */\n      pop\n        /* \"projects/exchange-protocol/contracts/ExzoneRouter01.sol\":10797:11555  function swapETHForExactTokens(uint amountOut, address[] calldata path, address to, uint deadline)... */\n      pop\n      pop\n      pop\n      swap1\n      pop\n      add\n      swap3\n      pop\n      pop\n      pop\n      mload(0x40)\n      dup1\n      swap2\n      sub\n      swap1\n      return\n        /* \"projects/exchange-protocol/contracts/ExzoneRouter01.sol\":4710:5355  function removeLiquidityETH(... */\n    tag_31:\n        /* \"projects/exchange-protocol/contracts/ExzoneRouter01.sol\":4932:4948  uint amountToken */\n      0x00\n        /* \"projects/exchange-protocol/contracts/ExzoneRouter01.sol\":4950:4964  uint amountETH */\n      dup1\n        /* \"projects/exchange-protocol/contracts/ExzoneRouter01.sol\":4913:4921  deadline */\n      dup3\n        /* \"projects/exchange-protocol/contracts/ExzoneRouter01.sol\":519:534  block.timestamp */\n      timestamp\n        /* \"projects/exchange-protocol/contracts/ExzoneRouter01.sol\":507:515  deadline */\n      dup2\n        /* \"projects/exchange-protocol/contracts/ExzoneRouter01.sol\":507:534  deadline >= block.timestamp */\n      lt\n      iszero\n        /* \"projects/exchange-protocol/contracts/ExzoneRouter01.sol\":499:560  require(deadline >= block.timestamp, 'ExzoneRouter: EXPIRED') */\n      tag_148\n      jumpi\n      mload(0x40)\n      0x08c379a000000000000000000000000000000000000000000000000000000000\n      dup2\n      mstore\n      0x04\n      add\n      dup1\n      dup1\n      0x20\n      add\n      dup3\n      dup2\n      sub\n      dup3\n      mstore\n      0x15\n      dup2\n      mstore\n      0x20\n      add\n      dup1\n      0x45787a6f6e65526f757465723a20455850495245440000000000000000000000\n      dup2\n      mstore\n      pop\n      0x20\n      add\n      swap2\n      pop\n      pop\n      mload(0x40)\n      dup1\n      swap2\n      sub\n      swap1\n      revert\n    tag_148:\n        /* \"projects/exchange-protocol/contracts/ExzoneRouter01.sol\":5003:5191  removeLiquidity(... */\n      tag_150\n        /* \"projects/exchange-protocol/contracts/ExzoneRouter01.sol\":5032:5037  token */\n      dup10\n        /* \"projects/exchange-protocol/contracts/ExzoneRouter01.sol\":5051:5055  WETH */\n      immutable(\"0x9abd569a0444be7ce52d46a7fb79009940c0c0442116f15017290ff13cb4450c\")\n        /* \"projects/exchange-protocol/contracts/ExzoneRouter01.sol\":5069:5078  liquidity */\n      dup11\n        /* \"projects/exchange-protocol/contracts/ExzoneRouter01.sol\":5092:5106  amountTokenMin */\n      dup11\n        /* \"projects/exchange-protocol/contracts/ExzoneRouter01.sol\":5120:5132  amountETHMin */\n      dup11\n        /* \"projects/exchange-protocol/contracts/ExzoneRouter01.sol\":5154:5158  this */\n      address\n        /* \"projects/exchange-protocol/contracts/ExzoneRouter01.sol\":5173:5181  deadline */\n      dup11\n        /* \"projects/exchange-protocol/contracts/ExzoneRouter01.sol\":5003:5018  removeLiquidity */\n      tag_113\n        /* \"projects/exchange-protocol/contracts/ExzoneRouter01.sol\":5003:5191  removeLiquidity(... */\n      jump\t// in\n    tag_150:\n        /* \"projects/exchange-protocol/contracts/ExzoneRouter01.sol\":4976:5191  (amountToken, amountETH) = removeLiquidity(... */\n      dup1\n      swap4\n      pop\n      dup2\n      swap5\n      pop\n      pop\n      pop\n        /* \"projects/exchange-protocol/contracts/ExzoneRouter01.sol\":5201:5252  TransferHelper.safeTransfer(token, to, amountToken) */\n      tag_151\n        /* \"projects/exchange-protocol/contracts/ExzoneRouter01.sol\":5229:5234  token */\n      dup10\n        /* \"projects/exchange-protocol/contracts/ExzoneRouter01.sol\":5236:5238  to */\n      dup7\n        /* \"projects/exchange-protocol/contracts/ExzoneRouter01.sol\":5240:5251  amountToken */\n      dup6\n        /* \"projects/exchange-protocol/contracts/ExzoneRouter01.sol\":5201:5228  TransferHelper.safeTransfer */\n      tag_152\n        /* \"projects/exchange-protocol/contracts/ExzoneRouter01.sol\":5201:5252  TransferHelper.safeTransfer(token, to, amountToken) */\n      jump\t// in\n    tag_151:\n        /* \"projects/exchange-protocol/contracts/ExzoneRouter01.sol\":5268:5272  WETH */\n      immutable(\"0x9abd569a0444be7ce52d46a7fb79009940c0c0442116f15017290ff13cb4450c\")\n        /* \"projects/exchange-protocol/contracts/ExzoneRouter01.sol\":5262:5282  IWETH(WETH).withdraw */\n      0xffffffffffffffffffffffffffffffffffffffff\n      and\n      0x2e1a7d4d\n        /* \"projects/exchange-protocol/contracts/ExzoneRouter01.sol\":5283:5292  amountETH */\n      dup4\n        /* \"projects/exchange-protocol/contracts/ExzoneRouter01.sol\":5262:5293  IWETH(WETH).withdraw(amountETH) */\n      mload(0x40)\n      dup3\n      0xffffffff\n      and\n      0xe0\n      shl\n      dup2\n      mstore\n      0x04\n      add\n      dup1\n      dup3\n      dup2\n      mstore\n      0x20\n      add\n      swap2\n      pop\n      pop\n      0x00\n      mload(0x40)\n      dup1\n      dup4\n      sub\n      dup2\n      0x00\n      dup8\n      dup1\n      extcodesize\n      iszero\n        /* \"--CODEGEN--\":5:14   */\n      dup1\n        /* \"--CODEGEN--\":2:4   */\n      iszero\n      tag_153\n      jumpi\n        /* \"--CODEGEN--\":27:28   */\n      0x00\n        /* \"--CODEGEN--\":24:25   */\n      dup1\n        /* \"--CODEGEN--\":17:29   */\n      revert\n        /* \"--CODEGEN--\":2:4   */\n    tag_153:\n        /* \"projects/exchange-protocol/contracts/ExzoneRouter01.sol\":5262:5293  IWETH(WETH).withdraw(amountETH) */\n      pop\n      gas\n      call\n      iszero\n        /* \"--CODEGEN--\":8:17   */\n      dup1\n        /* \"--CODEGEN--\":5:7   */\n      iszero\n      tag_155\n      jumpi\n        /* \"--CODEGEN--\":45:61   */\n      returndatasize\n        /* \"--CODEGEN--\":42:43   */\n      0x00\n        /* \"--CODEGEN--\":39:40   */\n      dup1\n        /* \"--CODEGEN--\":24:62   */\n      returndatacopy\n        /* \"--CODEGEN--\":77:93   */\n      returndatasize\n        /* \"--CODEGEN--\":74:75   */\n      0x00\n        /* \"--CODEGEN--\":67:94   */\n      revert\n        /* \"--CODEGEN--\":5:7   */\n    tag_155:\n        /* \"projects/exchange-protocol/contracts/ExzoneRouter01.sol\":5262:5293  IWETH(WETH).withdraw(amountETH) */\n      pop\n      pop\n      pop\n      pop\n        /* \"projects/exchange-protocol/contracts/ExzoneRouter01.sol\":5303:5348  TransferHelper.safeTransferETH(to, amountETH) */\n      tag_156\n        /* \"projects/exchange-protocol/contracts/ExzoneRouter01.sol\":5334:5336  to */\n      dup6\n        /* \"projects/exchange-protocol/contracts/ExzoneRouter01.sol\":5338:5347  amountETH */\n      dup4\n        /* \"projects/exchange-protocol/contracts/ExzoneRouter01.sol\":5303:5333  TransferHelper.safeTransferETH */\n      tag_157\n        /* \"projects/exchange-protocol/contracts/ExzoneRouter01.sol\":5303:5348  TransferHelper.safeTransferETH(to, amountETH) */\n      jump\t// in\n    tag_156:\n        /* \"projects/exchange-protocol/contracts/ExzoneRouter01.sol\":4710:5355  function removeLiquidityETH(... */\n      pop\n      swap7\n      pop\n      swap7\n      swap5\n      pop\n      pop\n      pop\n      pop\n      pop\n      jump\t// out\n        /* \"projects/exchange-protocol/contracts/ExzoneRouter01.sol\":11742:11941  function getAmountOut(uint amountIn, uint reserveIn, uint reserveOut) public pure override returns (uint amountOut) {... */\n    tag_35:\n        /* \"projects/exchange-protocol/contracts/ExzoneRouter01.sol\":11842:11856  uint amountOut */\n      0x00\n        /* \"projects/exchange-protocol/contracts/ExzoneRouter01.sol\":11875:11934  ExzoneLibrary.getAmountOut(amountIn, reserveIn, reserveOut) */\n      tag_159\n        /* \"projects/exchange-protocol/contracts/ExzoneRouter01.sol\":11902:11910  amountIn */\n      dup5\n        /* \"projects/exchange-protocol/contracts/ExzoneRouter01.sol\":11912:11921  reserveIn */\n      dup5\n        /* \"projects/exchange-protocol/contracts/ExzoneRouter01.sol\":11923:11933  reserveOut */\n      dup5\n        /* \"projects/exchange-protocol/contracts/ExzoneRouter01.sol\":11875:11901  ExzoneLibrary.getAmountOut */\n      tag_160\n        /* \"projects/exchange-protocol/contracts/ExzoneRouter01.sol\":11875:11934  ExzoneLibrary.getAmountOut(amountIn, reserveIn, reserveOut) */\n      jump\t// in\n    tag_159:\n        /* \"projects/exchange-protocol/contracts/ExzoneRouter01.sol\":11868:11934  return ExzoneLibrary.getAmountOut(amountIn, reserveIn, reserveOut) */\n      swap1\n      pop\n        /* \"projects/exchange-protocol/contracts/ExzoneRouter01.sol\":11742:11941  function getAmountOut(uint amountIn, uint reserveIn, uint reserveOut) public pure override returns (uint amountOut) {... */\n      swap4\n      swap3\n      pop\n      pop\n      pop\n      jump\t// out\n        /* \"projects/exchange-protocol/contracts/ExzoneRouter01.sol\":10008:10792  function swapExactTokensForETH(uint amountIn, uint amountOutMin, address[] calldata path, address to, uint deadline)... */\n    tag_42:\n        /* \"projects/exchange-protocol/contracts/ExzoneRouter01.sol\":10201:10222  uint[] memory amounts */\n      0x60\n        /* \"projects/exchange-protocol/contracts/ExzoneRouter01.sol\":10174:10182  deadline */\n      dup2\n        /* \"projects/exchange-protocol/contracts/ExzoneRouter01.sol\":519:534  block.timestamp */\n      timestamp\n        /* \"projects/exchange-protocol/contracts/ExzoneRouter01.sol\":507:515  deadline */\n      dup2\n        /* \"projects/exchange-protocol/contracts/ExzoneRouter01.sol\":507:534  deadline >= block.timestamp */\n      lt\n      iszero\n        /* \"projects/exchange-protocol/contracts/ExzoneRouter01.sol\":499:560  require(deadline >= block.timestamp, 'ExzoneRouter: EXPIRED') */\n      tag_162\n      jumpi\n      mload(0x40)\n      0x08c379a000000000000000000000000000000000000000000000000000000000\n      dup2\n      mstore\n      0x04\n      add\n      dup1\n      dup1\n      0x20\n      add\n      dup3\n      dup2\n      sub\n      dup3\n      mstore\n      0x15\n      dup2\n      mstore\n      0x20\n      add\n      dup1\n      0x45787a6f6e65526f757465723a20455850495245440000000000000000000000\n      dup2\n      mstore\n      pop\n      0x20\n      add\n      swap2\n      pop\n      pop\n      mload(0x40)\n      dup1\n      swap2\n      sub\n      swap1\n      revert\n    tag_162:\n        /* \"projects/exchange-protocol/contracts/ExzoneRouter01.sol\":10271:10275  WETH */\n      immutable(\"0x9abd569a0444be7ce52d46a7fb79009940c0c0442116f15017290ff13cb4450c\")\n        /* \"projects/exchange-protocol/contracts/ExzoneRouter01.sol\":10246:10275  path[path.length - 1] == WETH */\n      0xffffffffffffffffffffffffffffffffffffffff\n      and\n        /* \"projects/exchange-protocol/contracts/ExzoneRouter01.sol\":10246:10250  path */\n      dup7\n      dup7\n        /* \"projects/exchange-protocol/contracts/ExzoneRouter01.sol\":10265:10266  1 */\n      0x01\n        /* \"projects/exchange-protocol/contracts/ExzoneRouter01.sol\":10251:10255  path */\n      dup10\n      dup10\n        /* \"projects/exchange-protocol/contracts/ExzoneRouter01.sol\":10251:10262  path.length */\n      swap1\n      pop\n        /* \"projects/exchange-protocol/contracts/ExzoneRouter01.sol\":10251:10266  path.length - 1 */\n      sub\n        /* \"projects/exchange-protocol/contracts/ExzoneRouter01.sol\":10246:10267  path[path.length - 1] */\n      dup2\n      dup2\n      lt\n      tag_164\n      jumpi\n      invalid\n    tag_164:\n      swap1\n      pop\n      0x20\n      mul\n      add\n      calldataload\n      0xffffffffffffffffffffffffffffffffffffffff\n      and\n        /* \"projects/exchange-protocol/contracts/ExzoneRouter01.sol\":10246:10275  path[path.length - 1] == WETH */\n      0xffffffffffffffffffffffffffffffffffffffff\n      and\n      eq\n        /* \"projects/exchange-protocol/contracts/ExzoneRouter01.sol\":10238:10306  require(path[path.length - 1] == WETH, 'ExzoneRouter: INVALID_PATH') */\n      tag_165\n      jumpi\n      mload(0x40)\n      0x08c379a000000000000000000000000000000000000000000000000000000000\n      dup2\n      mstore\n      0x04\n      add\n      dup1\n      dup1\n      0x20\n      add\n      dup3\n      dup2\n      sub\n      dup3\n      mstore\n      0x1a\n      dup2\n      mstore\n      0x20\n      add\n      dup1\n      0x45787a6f6e65526f757465723a20494e56414c49445f50415448000000000000\n      dup2\n      mstore\n      pop\n      0x20\n      add\n      swap2\n      pop\n      pop\n      mload(0x40)\n      dup1\n      swap2\n      sub\n      swap1\n      revert\n    tag_165:\n        /* \"projects/exchange-protocol/contracts/ExzoneRouter01.sol\":10326:10378  ExzoneLibrary.getAmountsOut(factory, amountIn, path) */\n      tag_166\n        /* \"projects/exchange-protocol/contracts/ExzoneRouter01.sol\":10354:10361  factory */\n      immutable(\"0x5bcd163b2238ff85648d293e01a327b5c7f9ae69498a752a4883e839ddddafcb\")\n        /* \"projects/exchange-protocol/contracts/ExzoneRouter01.sol\":10363:10371  amountIn */\n      dup10\n        /* \"projects/exchange-protocol/contracts/ExzoneRouter01.sol\":10373:10377  path */\n      dup9\n      dup9\n        /* \"projects/exchange-protocol/contracts/ExzoneRouter01.sol\":10326:10378  ExzoneLibrary.getAmountsOut(factory, amountIn, path) */\n      dup1\n      dup1\n      0x20\n      mul\n      0x20\n      add\n      mload(0x40)\n      swap1\n      dup2\n      add\n      0x40\n      mstore\n      dup1\n      swap4\n      swap3\n      swap2\n      swap1\n      dup2\n      dup2\n      mstore\n      0x20\n      add\n      dup4\n      dup4\n      0x20\n      mul\n        /* \"--CODEGEN--\":30:33   */\n      dup1\n        /* \"--CODEGEN--\":22:28   */\n      dup3\n        /* \"--CODEGEN--\":14:20   */\n      dup5\n        /* \"--CODEGEN--\":1:34   */\n      calldatacopy\n        /* \"--CODEGEN--\":99:100   */\n      0x00\n        /* \"--CODEGEN--\":93:96   */\n      dup2\n        /* \"--CODEGEN--\":85:91   */\n      dup5\n        /* \"--CODEGEN--\":81:97   */\n      add\n        /* \"--CODEGEN--\":74:101   */\n      mstore\n        /* \"--CODEGEN--\":137:141   */\n      0x1f\n        /* \"--CODEGEN--\":133:142   */\n      not\n        /* \"--CODEGEN--\":126:130   */\n      0x1f\n        /* \"--CODEGEN--\":121:124   */\n      dup3\n        /* \"--CODEGEN--\":117:131   */\n      add\n        /* \"--CODEGEN--\":113:143   */\n      and\n        /* \"--CODEGEN--\":106:143   */\n      swap1\n      pop\n        /* \"--CODEGEN--\":169:172   */\n      dup1\n        /* \"--CODEGEN--\":161:167   */\n      dup4\n        /* \"--CODEGEN--\":157:173   */\n      add\n        /* \"--CODEGEN--\":147:173   */\n      swap3\n      pop\n        /* \"projects/exchange-protocol/contracts/ExzoneRouter01.sol\":10326:10378  ExzoneLibrary.getAmountsOut(factory, amountIn, path) */\n      pop\n      pop\n      pop\n      pop\n      pop\n      pop\n        /* \"projects/exchange-protocol/contracts/ExzoneRouter01.sol\":10326:10353  ExzoneLibrary.getAmountsOut */\n      tag_167\n        /* \"projects/exchange-protocol/contracts/ExzoneRouter01.sol\":10326:10378  ExzoneLibrary.getAmountsOut(factory, amountIn, path) */\n      jump\t// in\n    tag_166:\n        /* \"projects/exchange-protocol/contracts/ExzoneRouter01.sol\":10316:10378  amounts = ExzoneLibrary.getAmountsOut(factory, amountIn, path) */\n      swap2\n      pop\n        /* \"projects/exchange-protocol/contracts/ExzoneRouter01.sol\":10427:10439  amountOutMin */\n      dup7\n        /* \"projects/exchange-protocol/contracts/ExzoneRouter01.sol\":10396:10403  amounts */\n      dup3\n        /* \"projects/exchange-protocol/contracts/ExzoneRouter01.sol\":10421:10422  1 */\n      0x01\n        /* \"projects/exchange-protocol/contracts/ExzoneRouter01.sol\":10404:10411  amounts */\n      dup5\n        /* \"projects/exchange-protocol/contracts/ExzoneRouter01.sol\":10404:10418  amounts.length */\n      mload\n        /* \"projects/exchange-protocol/contracts/ExzoneRouter01.sol\":10404:10422  amounts.length - 1 */\n      sub\n        /* \"projects/exchange-protocol/contracts/ExzoneRouter01.sol\":10396:10423  amounts[amounts.length - 1] */\n      dup2\n      mload\n      dup2\n      lt\n      tag_168\n      jumpi\n      invalid\n    tag_168:\n      0x20\n      mul\n      0x20\n      add\n      add\n      mload\n        /* \"projects/exchange-protocol/contracts/ExzoneRouter01.sol\":10396:10439  amounts[amounts.length - 1] >= amountOutMin */\n      lt\n      iszero\n        /* \"projects/exchange-protocol/contracts/ExzoneRouter01.sol\":10388:10484  require(amounts[amounts.length - 1] >= amountOutMin, 'ExzoneRouter: INSUFFICIENT_OUTPUT_AMOUNT') */\n      tag_169\n      jumpi\n      mload(0x40)\n      0x08c379a000000000000000000000000000000000000000000000000000000000\n      dup2\n      mstore\n      0x04\n      add\n      dup1\n      dup1\n      0x20\n      add\n      dup3\n      dup2\n      sub\n      dup3\n      mstore\n      0x28\n      dup2\n      mstore\n      0x20\n      add\n      dup1\n      data_dfe53cb4b8f379dd7e444b85c71aa868238e1e299fbf8fcb68a883a9f3588fea\n      0x28\n      swap2\n      codecopy\n      0x40\n      add\n      swap2\n      pop\n      pop\n      mload(0x40)\n      dup1\n      swap2\n      sub\n      swap1\n      revert\n    tag_169:\n        /* \"projects/exchange-protocol/contracts/ExzoneRouter01.sol\":10494:10608  TransferHelper.safeTransferFrom(path[0], msg.sender, ExzoneLibrary.pairFor(factory, path[0], path[1]), amounts[0]) */\n      tag_170\n        /* \"projects/exchange-protocol/contracts/ExzoneRouter01.sol\":10526:10530  path */\n      dup7\n      dup7\n        /* \"projects/exchange-protocol/contracts/ExzoneRouter01.sol\":10531:10532  0 */\n      0x00\n        /* \"projects/exchange-protocol/contracts/ExzoneRouter01.sol\":10526:10533  path[0] */\n      dup2\n      dup2\n      lt\n      tag_171\n      jumpi\n      invalid\n    tag_171:\n      swap1\n      pop\n      0x20\n      mul\n      add\n      calldataload\n      0xffffffffffffffffffffffffffffffffffffffff\n      and\n        /* \"projects/exchange-protocol/contracts/ExzoneRouter01.sol\":10535:10545  msg.sender */\n      caller\n        /* \"projects/exchange-protocol/contracts/ExzoneRouter01.sol\":10547:10595  ExzoneLibrary.pairFor(factory, path[0], path[1]) */\n      tag_172\n        /* \"projects/exchange-protocol/contracts/ExzoneRouter01.sol\":10569:10576  factory */\n      immutable(\"0x5bcd163b2238ff85648d293e01a327b5c7f9ae69498a752a4883e839ddddafcb\")\n        /* \"projects/exchange-protocol/contracts/ExzoneRouter01.sol\":10578:10582  path */\n      dup11\n      dup11\n        /* \"projects/exchange-protocol/contracts/ExzoneRouter01.sol\":10583:10584  0 */\n      0x00\n        /* \"projects/exchange-protocol/contracts/ExzoneRouter01.sol\":10578:10585  path[0] */\n      dup2\n      dup2\n      lt\n      tag_173\n      jumpi\n      invalid\n    tag_173:\n      swap1\n      pop\n      0x20\n      mul\n      add\n      calldataload\n      0xffffffffffffffffffffffffffffffffffffffff\n      and\n        /* \"projects/exchange-protocol/contracts/ExzoneRouter01.sol\":10587:10591  path */\n      dup12\n      dup12\n        /* \"projects/exchange-protocol/contracts/ExzoneRouter01.sol\":10592:10593  1 */\n      0x01\n        /* \"projects/exchange-protocol/contracts/ExzoneRouter01.sol\":10587:10594  path[1] */\n      dup2\n      dup2\n      lt\n      tag_174\n      jumpi\n      invalid\n    tag_174:\n      swap1\n      pop\n      0x20\n      mul\n      add\n      calldataload\n      0xffffffffffffffffffffffffffffffffffffffff\n      and\n        /* \"projects/exchange-protocol/contracts/ExzoneRouter01.sol\":10547:10568  ExzoneLibrary.pairFor */\n      tag_175\n        /* \"projects/exchange-protocol/contracts/ExzoneRouter01.sol\":10547:10595  ExzoneLibrary.pairFor(factory, path[0], path[1]) */\n      jump\t// in\n    tag_172:\n        /* \"projects/exchange-protocol/contracts/ExzoneRouter01.sol\":10597:10604  amounts */\n      dup6\n        /* \"projects/exchange-protocol/contracts/ExzoneRouter01.sol\":10605:10606  0 */\n      0x00\n        /* \"projects/exchange-protocol/contracts/ExzoneRouter01.sol\":10597:10607  amounts[0] */\n      dup2\n      mload\n      dup2\n      lt\n      tag_176\n      jumpi\n      invalid\n    tag_176:\n      0x20\n      mul\n      0x20\n      add\n      add\n      mload\n        /* \"projects/exchange-protocol/contracts/ExzoneRouter01.sol\":10494:10525  TransferHelper.safeTransferFrom */\n      tag_177\n        /* \"projects/exchange-protocol/contracts/ExzoneRouter01.sol\":10494:10608  TransferHelper.safeTransferFrom(path[0], msg.sender, ExzoneLibrary.pairFor(factory, path[0], path[1]), amounts[0]) */\n      jump\t// in\n    tag_170:\n        /* \"projects/exchange-protocol/contracts/ExzoneRouter01.sol\":10618:10653  _swap(amounts, path, address(this)) */\n      tag_178\n        /* \"projects/exchange-protocol/contracts/ExzoneRouter01.sol\":10624:10631  amounts */\n      dup3\n        /* \"projects/exchange-protocol/contracts/ExzoneRouter01.sol\":10633:10637  path */\n      dup8\n      dup8\n        /* \"projects/exchange-protocol/contracts/ExzoneRouter01.sol\":10618:10653  _swap(amounts, path, address(this)) */\n      dup1\n      dup1\n      0x20\n      mul\n      0x20\n      add\n      mload(0x40)\n      swap1\n      dup2\n      add\n      0x40\n      mstore\n      dup1\n      swap4\n      swap3\n      swap2\n      swap1\n      dup2\n      dup2\n      mstore\n      0x20\n      add\n      dup4\n      dup4\n      0x20\n      mul\n        /* \"--CODEGEN--\":30:33   */\n      dup1\n        /* \"--CODEGEN--\":22:28   */\n      dup3\n        /* \"--CODEGEN--\":14:20   */\n      dup5\n        /* \"--CODEGEN--\":1:34   */\n      calldatacopy\n        /* \"--CODEGEN--\":99:100   */\n      0x00\n        /* \"--CODEGEN--\":93:96   */\n      dup2\n        /* \"--CODEGEN--\":85:91   */\n      dup5\n        /* \"--CODEGEN--\":81:97   */\n      add\n        /* \"--CODEGEN--\":74:101   */\n      mstore\n        /* \"--CODEGEN--\":137:141   */\n      0x1f\n        /* \"--CODEGEN--\":133:142   */\n      not\n        /* \"--CODEGEN--\":126:130   */\n      0x1f\n        /* \"--CODEGEN--\":121:124   */\n      dup3\n        /* \"--CODEGEN--\":117:131   */\n      add\n        /* \"--CODEGEN--\":113:143   */\n      and\n        /* \"--CODEGEN--\":106:143   */\n      swap1\n      pop\n        /* \"--CODEGEN--\":169:172   */\n      dup1\n        /* \"--CODEGEN--\":161:167   */\n      dup4\n        /* \"--CODEGEN--\":157:173   */\n      add\n        /* \"--CODEGEN--\":147:173   */\n      swap3\n      pop\n        /* \"projects/exchange-protocol/contracts/ExzoneRouter01.sol\":10618:10653  _swap(amounts, path, address(this)) */\n      pop\n      pop\n      pop\n      pop\n      pop\n      pop\n        /* \"projects/exchange-protocol/contracts/ExzoneRouter01.sol\":10647:10651  this */\n      address\n        /* \"projects/exchange-protocol/contracts/ExzoneRouter01.sol\":10618:10623  _swap */\n      tag_179\n        /* \"projects/exchange-protocol/contracts/ExzoneRouter01.sol\":10618:10653  _swap(amounts, path, address(this)) */\n      jump\t// in\n    tag_178:\n        /* \"projects/exchange-protocol/contracts/ExzoneRouter01.sol\":10669:10673  WETH */\n      immutable(\"0x9abd569a0444be7ce52d46a7fb79009940c0c0442116f15017290ff13cb4450c\")\n        /* \"projects/exchange-protocol/contracts/ExzoneRouter01.sol\":10663:10683  IWETH(WETH).withdraw */\n      0xffffffffffffffffffffffffffffffffffffffff\n      and\n      0x2e1a7d4d\n        /* \"projects/exchange-protocol/contracts/ExzoneRouter01.sol\":10684:10691  amounts */\n      dup4\n        /* \"projects/exchange-protocol/contracts/ExzoneRouter01.sol\":10709:10710  1 */\n      0x01\n        /* \"projects/exchange-protocol/contracts/ExzoneRouter01.sol\":10692:10699  amounts */\n      dup6\n        /* \"projects/exchange-protocol/contracts/ExzoneRouter01.sol\":10692:10706  amounts.length */\n      mload\n        /* \"projects/exchange-protocol/contracts/ExzoneRouter01.sol\":10692:10710  amounts.length - 1 */\n      sub\n        /* \"projects/exchange-protocol/contracts/ExzoneRouter01.sol\":10684:10711  amounts[amounts.length - 1] */\n      dup2\n      mload\n      dup2\n      lt\n      tag_180\n      jumpi\n      invalid\n    tag_180:\n      0x20\n      mul\n      0x20\n      add\n      add\n      mload\n        /* \"projects/exchange-protocol/contracts/ExzoneRouter01.sol\":10663:10712  IWETH(WETH).withdraw(amounts[amounts.length - 1]) */\n      mload(0x40)\n      dup3\n      0xffffffff\n      and\n      0xe0\n      shl\n      dup2\n      mstore\n      0x04\n      add\n      dup1\n      dup3\n      dup2\n      mstore\n      0x20\n      add\n      swap2\n      pop\n      pop\n      0x00\n      mload(0x40)\n      dup1\n      dup4\n      sub\n      dup2\n      0x00\n      dup8\n      dup1\n      extcodesize\n      iszero\n        /* \"--CODEGEN--\":5:14   */\n      dup1\n        /* \"--CODEGEN--\":2:4   */\n      iszero\n      tag_181\n      jumpi\n        /* \"--CODEGEN--\":27:28   */\n      0x00\n        /* \"--CODEGEN--\":24:25   */\n      dup1\n        /* \"--CODEGEN--\":17:29   */\n      revert\n        /* \"--CODEGEN--\":2:4   */\n    tag_181:\n        /* \"projects/exchange-protocol/contracts/ExzoneRouter01.sol\":10663:10712  IWETH(WETH).withdraw(amounts[amounts.length - 1]) */\n      pop\n      gas\n      call\n      iszero\n        /* \"--CODEGEN--\":8:17   */\n      dup1\n        /* \"--CODEGEN--\":5:7   */\n      iszero\n      tag_183\n      jumpi\n        /* \"--CODEGEN--\":45:61   */\n      returndatasize\n        /* \"--CODEGEN--\":42:43   */\n      0x00\n        /* \"--CODEGEN--\":39:40   */\n      dup1\n        /* \"--CODEGEN--\":24:62   */\n      returndatacopy\n        /* \"--CODEGEN--\":77:93   */\n      returndatasize\n        /* \"--CODEGEN--\":74:75   */\n      0x00\n        /* \"--CODEGEN--\":67:94   */\n      revert\n        /* \"--CODEGEN--\":5:7   */\n    tag_183:\n        /* \"projects/exchange-protocol/contracts/ExzoneRouter01.sol\":10663:10712  IWETH(WETH).withdraw(amounts[amounts.length - 1]) */\n      pop\n      pop\n      pop\n      pop\n        /* \"projects/exchange-protocol/contracts/ExzoneRouter01.sol\":10722:10785  TransferHelper.safeTransferETH(to, amounts[amounts.length - 1]) */\n      tag_184\n        /* \"projects/exchange-protocol/contracts/ExzoneRouter01.sol\":10753:10755  to */\n      dup5\n        /* \"projects/exchange-protocol/contracts/ExzoneRouter01.sol\":10757:10764  amounts */\n      dup4\n        /* \"projects/exchange-protocol/contracts/ExzoneRouter01.sol\":10782:10783  1 */\n      0x01\n        /* \"projects/exchange-protocol/contracts/ExzoneRouter01.sol\":10765:10772  amounts */\n      dup6\n        /* \"projects/exchange-protocol/contracts/ExzoneRouter01.sol\":10765:10779  amounts.length */\n      mload\n        /* \"projects/exchange-protocol/contracts/ExzoneRouter01.sol\":10765:10783  amounts.length - 1 */\n      sub\n        /* \"projects/exchange-protocol/contracts/ExzoneRouter01.sol\":10757:10784  amounts[amounts.length - 1] */\n      dup2\n      mload\n      dup2\n      lt\n      tag_185\n      jumpi\n      invalid\n    tag_185:\n      0x20\n      mul\n      0x20\n      add\n      add\n      mload\n        /* \"projects/exchange-protocol/contracts/ExzoneRouter01.sol\":10722:10752  TransferHelper.safeTransferETH */\n      tag_157\n        /* \"projects/exchange-protocol/contracts/ExzoneRouter01.sol\":10722:10785  TransferHelper.safeTransferETH(to, amounts[amounts.length - 1]) */\n      jump\t// in\n    tag_184:\n        /* \"projects/exchange-protocol/contracts/ExzoneRouter01.sol\":10008:10792  function swapExactTokensForETH(uint amountIn, uint amountOutMin, address[] calldata path, address to, uint deadline)... */\n      pop\n      swap7\n      swap6\n      pop\n      pop\n      pop\n      pop\n      pop\n      pop\n      jump\t// out\n        /* \"projects/exchange-protocol/contracts/ExzoneRouter01.sol\":12348:12538  function getAmountsIn(uint amountOut, address[] memory path) public view override returns (uint[] memory amounts) {... */\n    tag_52:\n        /* \"projects/exchange-protocol/contracts/ExzoneRouter01.sol\":12439:12460  uint[] memory amounts */\n      0x60\n        /* \"projects/exchange-protocol/contracts/ExzoneRouter01.sol\":12479:12531  ExzoneLibrary.getAmountsIn(factory, amountOut, path) */\n      tag_187\n        /* \"projects/exchange-protocol/contracts/ExzoneRouter01.sol\":12506:12513  factory */\n      immutable(\"0x5bcd163b2238ff85648d293e01a327b5c7f9ae69498a752a4883e839ddddafcb\")\n        /* \"projects/exchange-protocol/contracts/ExzoneRouter01.sol\":12515:12524  amountOut */\n      dup5\n        /* \"projects/exchange-protocol/contracts/ExzoneRouter01.sol\":12526:12530  path */\n      dup5\n        /* \"projects/exchange-protocol/contracts/ExzoneRouter01.sol\":12479:12505  ExzoneLibrary.getAmountsIn */\n      tag_188\n        /* \"projects/exchange-protocol/contracts/ExzoneRouter01.sol\":12479:12531  ExzoneLibrary.getAmountsIn(factory, amountOut, path) */\n      jump\t// in\n    tag_187:\n        /* \"projects/exchange-protocol/contracts/ExzoneRouter01.sol\":12472:12531  return ExzoneLibrary.getAmountsIn(factory, amountOut, path) */\n      swap1\n      pop\n        /* \"projects/exchange-protocol/contracts/ExzoneRouter01.sol\":12348:12538  function getAmountsIn(uint amountOut, address[] memory path) public view override returns (uint[] memory amounts) {... */\n      swap3\n      swap2\n      pop\n      pop\n      jump\t// out\n        /* \"projects/exchange-protocol/contracts/ExzoneRouter01.sol\":5360:6009  function removeLiquidityWithPermit(... */\n    tag_59:\n        /* \"projects/exchange-protocol/contracts/ExzoneRouter01.sol\":5649:5661  uint amountA */\n      0x00\n        /* \"projects/exchange-protocol/contracts/ExzoneRouter01.sol\":5663:5675  uint amountB */\n      dup1\n        /* \"projects/exchange-protocol/contracts/ExzoneRouter01.sol\":5687:5699  address pair */\n      0x00\n        /* \"projects/exchange-protocol/contracts/ExzoneRouter01.sol\":5702:5748  ExzoneLibrary.pairFor(factory, tokenA, tokenB) */\n      tag_190\n        /* \"projects/exchange-protocol/contracts/ExzoneRouter01.sol\":5724:5731  factory */\n      immutable(\"0x5bcd163b2238ff85648d293e01a327b5c7f9ae69498a752a4883e839ddddafcb\")\n        /* \"projects/exchange-protocol/contracts/ExzoneRouter01.sol\":5733:5739  tokenA */\n      dup16\n        /* \"projects/exchange-protocol/contracts/ExzoneRouter01.sol\":5741:5747  tokenB */\n      dup16\n        /* \"projects/exchange-protocol/contracts/ExzoneRouter01.sol\":5702:5723  ExzoneLibrary.pairFor */\n      tag_175\n        /* \"projects/exchange-protocol/contracts/ExzoneRouter01.sol\":5702:5748  ExzoneLibrary.pairFor(factory, tokenA, tokenB) */\n      jump\t// in\n    tag_190:\n        /* \"projects/exchange-protocol/contracts/ExzoneRouter01.sol\":5687:5748  address pair = ExzoneLibrary.pairFor(factory, tokenA, tokenB) */\n      swap1\n      pop\n        /* \"projects/exchange-protocol/contracts/ExzoneRouter01.sol\":5758:5768  uint value */\n      0x00\n        /* \"projects/exchange-protocol/contracts/ExzoneRouter01.sol\":5771:5781  approveMax */\n      dup8\n        /* \"projects/exchange-protocol/contracts/ExzoneRouter01.sol\":5771:5804  approveMax ? uint(-1) : liquidity */\n      tag_191\n      jumpi\n        /* \"projects/exchange-protocol/contracts/ExzoneRouter01.sol\":5795:5804  liquidity */\n      dup13\n        /* \"projects/exchange-protocol/contracts/ExzoneRouter01.sol\":5771:5804  approveMax ? uint(-1) : liquidity */\n      jump(tag_192)\n    tag_191:\n        /* \"projects/exchange-protocol/contracts/ExzoneRouter01.sol\":5789:5791  -1 */\n      0xffffffffffffffffffffffffffffffffffffffffffffffffffffffffffffffff\n        /* \"projects/exchange-protocol/contracts/ExzoneRouter01.sol\":5771:5804  approveMax ? uint(-1) : liquidity */\n    tag_192:\n        /* \"projects/exchange-protocol/contracts/ExzoneRouter01.sol\":5758:5804  uint value = approveMax ? uint(-1) : liquidity */\n      swap1\n      pop\n        /* \"projects/exchange-protocol/contracts/ExzoneRouter01.sol\":5826:5830  pair */\n      dup2\n        /* \"projects/exchange-protocol/contracts/ExzoneRouter01.sol\":5814:5838  IExzonePair(pair).permit */\n      0xffffffffffffffffffffffffffffffffffffffff\n      and\n      0xd505accf\n        /* \"projects/exchange-protocol/contracts/ExzoneRouter01.sol\":5839:5849  msg.sender */\n      caller\n        /* \"projects/exchange-protocol/contracts/ExzoneRouter01.sol\":5859:5863  this */\n      address\n        /* \"projects/exchange-protocol/contracts/ExzoneRouter01.sol\":5866:5871  value */\n      dup5\n        /* \"projects/exchange-protocol/contracts/ExzoneRouter01.sol\":5873:5881  deadline */\n      dup14\n        /* \"projects/exchange-protocol/contracts/ExzoneRouter01.sol\":5883:5884  v */\n      dup13\n        /* \"projects/exchange-protocol/contracts/ExzoneRouter01.sol\":5886:5887  r */\n      dup13\n        /* \"projects/exchange-protocol/contracts/ExzoneRouter01.sol\":5889:5890  s */\n      dup13\n        /* \"projects/exchange-protocol/contracts/ExzoneRouter01.sol\":5814:5891  IExzonePair(pair).permit(msg.sender, address(this), value, deadline, v, r, s) */\n      mload(0x40)\n      dup9\n      0xffffffff\n      and\n      0xe0\n      shl\n      dup2\n      mstore\n      0x04\n      add\n      dup1\n      dup9\n      0xffffffffffffffffffffffffffffffffffffffff\n      and\n      0xffffffffffffffffffffffffffffffffffffffff\n      and\n      dup2\n      mstore\n      0x20\n      add\n      dup8\n      0xffffffffffffffffffffffffffffffffffffffff\n      and\n      0xffffffffffffffffffffffffffffffffffffffff\n      and\n      dup2\n      mstore\n      0x20\n      add\n      dup7\n      dup2\n      mstore\n      0x20\n      add\n      dup6\n      dup2\n      mstore\n      0x20\n      add\n      dup5\n      0xff\n      and\n      0xff\n      and\n      dup2\n      mstore\n      0x20\n      add\n      dup4\n      dup2\n      mstore\n      0x20\n      add\n      dup3\n      dup2\n      mstore\n      0x20\n      add\n      swap8\n      pop\n      pop\n      pop\n      pop\n      pop\n      pop\n      pop\n      pop\n      0x00\n      mload(0x40)\n      dup1\n      dup4\n      sub\n      dup2\n      0x00\n      dup8\n      dup1\n      extcodesize\n      iszero\n        /* \"--CODEGEN--\":5:14   */\n      dup1\n        /* \"--CODEGEN--\":2:4   */\n      iszero\n      tag_193\n      jumpi\n        /* \"--CODEGEN--\":27:28   */\n      0x00\n        /* \"--CODEGEN--\":24:25   */\n      dup1\n        /* \"--CODEGEN--\":17:29   */\n      revert\n        /* \"--CODEGEN--\":2:4   */\n    tag_193:\n        /* \"projects/exchange-protocol/contracts/ExzoneRouter01.sol\":5814:5891  IExzonePair(pair).permit(msg.sender, address(this), value, deadline, v, r, s) */\n      pop\n      gas\n      call\n      iszero\n        /* \"--CODEGEN--\":8:17   */\n      dup1\n        /* \"--CODEGEN--\":5:7   */\n      iszero\n      tag_195\n      jumpi\n        /* \"--CODEGEN--\":45:61   */\n      returndatasize\n        /* \"--CODEGEN--\":42:43   */\n      0x00\n        /* \"--CODEGEN--\":39:40   */\n      dup1\n        /* \"--CODEGEN--\":24:62   */\n      returndatacopy\n        /* \"--CODEGEN--\":77:93   */\n      returndatasize\n        /* \"--CODEGEN--\":74:75   */\n      0x00\n        /* \"--CODEGEN--\":67:94   */\n      revert\n        /* \"--CODEGEN--\":5:7   */\n    tag_195:\n        /* \"projects/exchange-protocol/contracts/ExzoneRouter01.sol\":5814:5891  IExzonePair(pair).permit(msg.sender, address(this), value, deadline, v, r, s) */\n      pop\n      pop\n      pop\n      pop\n        /* \"projects/exchange-protocol/contracts/ExzoneRouter01.sol\":5922:6002  removeLiquidity(tokenA, tokenB, liquidity, amountAMin, amountBMin, to, deadline) */\n      tag_196\n        /* \"projects/exchange-protocol/contracts/ExzoneRouter01.sol\":5938:5944  tokenA */\n      dup16\n        /* \"projects/exchange-protocol/contracts/ExzoneRouter01.sol\":5946:5952  tokenB */\n      dup16\n        /* \"projects/exchange-protocol/contracts/ExzoneRouter01.sol\":5954:5963  liquidity */\n      dup16\n        /* \"projects/exchange-protocol/contracts/ExzoneRouter01.sol\":5965:5975  amountAMin */\n      dup16\n        /* \"projects/exchange-protocol/contracts/ExzoneRouter01.sol\":5977:5987  amountBMin */\n      dup16\n        /* \"projects/exchange-protocol/contracts/ExzoneRouter01.sol\":5989:5991  to */\n      dup16\n        /* \"projects/exchange-protocol/contracts/ExzoneRouter01.sol\":5993:6001  deadline */\n      dup16\n        /* \"projects/exchange-protocol/contracts/ExzoneRouter01.sol\":5922:5937  removeLiquidity */\n      tag_113\n        /* \"projects/exchange-protocol/contracts/ExzoneRouter01.sol\":5922:6002  removeLiquidity(tokenA, tokenB, liquidity, amountAMin, amountBMin, to, deadline) */\n      jump\t// in\n    tag_196:\n        /* \"projects/exchange-protocol/contracts/ExzoneRouter01.sol\":5901:6002  (amountA, amountB) = removeLiquidity(tokenA, tokenB, liquidity, amountAMin, amountBMin, to, deadline) */\n      dup1\n      swap5\n      pop\n      dup2\n      swap6\n      pop\n      pop\n      pop\n        /* \"projects/exchange-protocol/contracts/ExzoneRouter01.sol\":5360:6009  function removeLiquidityWithPermit(... */\n      pop\n      pop\n      swap12\n      pop\n      swap12\n      swap10\n      pop\n      pop\n      pop\n      pop\n      pop\n      pop\n      pop\n      pop\n      pop\n      pop\n      jump\t// out\n        /* \"projects/exchange-protocol/contracts/ExzoneRouter01.sol\":7441:8017  function swapExactTokensForTokens(... */\n    tag_66:\n        /* \"projects/exchange-protocol/contracts/ExzoneRouter01.sol\":7651:7672  uint[] memory amounts */\n      0x60\n        /* \"projects/exchange-protocol/contracts/ExzoneRouter01.sol\":7632:7640  deadline */\n      dup2\n        /* \"projects/exchange-protocol/contracts/ExzoneRouter01.sol\":519:534  block.timestamp */\n      timestamp\n        /* \"projects/exchange-protocol/contracts/ExzoneRouter01.sol\":507:515  deadline */\n      dup2\n        /* \"projects/exchange-protocol/contracts/ExzoneRouter01.sol\":507:534  deadline >= block.timestamp */\n      lt\n      iszero\n        /* \"projects/exchange-protocol/contracts/ExzoneRouter01.sol\":499:560  require(deadline >= block.timestamp, 'ExzoneRouter: EXPIRED') */\n      tag_198\n      jumpi\n      mload(0x40)\n      0x08c379a000000000000000000000000000000000000000000000000000000000\n      dup2\n      mstore\n      0x04\n      add\n      dup1\n      dup1\n      0x20\n      add\n      dup3\n      dup2\n      sub\n      dup3\n      mstore\n      0x15\n      dup2\n      mstore\n      0x20\n      add\n      dup1\n      0x45787a6f6e65526f757465723a20455850495245440000000000000000000000\n      dup2\n      mstore\n      pop\n      0x20\n      add\n      swap2\n      pop\n      pop\n      mload(0x40)\n      dup1\n      swap2\n      sub\n      swap1\n      revert\n    tag_198:\n        /* \"projects/exchange-protocol/contracts/ExzoneRouter01.sol\":7694:7746  ExzoneLibrary.getAmountsOut(factory, amountIn, path) */\n      tag_200\n        /* \"projects/exchange-protocol/contracts/ExzoneRouter01.sol\":7722:7729  factory */\n      immutable(\"0x5bcd163b2238ff85648d293e01a327b5c7f9ae69498a752a4883e839ddddafcb\")\n        /* \"projects/exchange-protocol/contracts/ExzoneRouter01.sol\":7731:7739  amountIn */\n      dup10\n        /* \"projects/exchange-protocol/contracts/ExzoneRouter01.sol\":7741:7745  path */\n      dup9\n      dup9\n        /* \"projects/exchange-protocol/contracts/ExzoneRouter01.sol\":7694:7746  ExzoneLibrary.getAmountsOut(factory, amountIn, path) */\n      dup1\n      dup1\n      0x20\n      mul\n      0x20\n      add\n      mload(0x40)\n      swap1\n      dup2\n      add\n      0x40\n      mstore\n      dup1\n      swap4\n      swap3\n      swap2\n      swap1\n      dup2\n      dup2\n      mstore\n      0x20\n      add\n      dup4\n      dup4\n      0x20\n      mul\n        /* \"--CODEGEN--\":30:33   */\n      dup1\n        /* \"--CODEGEN--\":22:28   */\n      dup3\n        /* \"--CODEGEN--\":14:20   */\n      dup5\n        /* \"--CODEGEN--\":1:34   */\n      calldatacopy\n        /* \"--CODEGEN--\":99:100   */\n      0x00\n        /* \"--CODEGEN--\":93:96   */\n      dup2\n        /* \"--CODEGEN--\":85:91   */\n      dup5\n        /* \"--CODEGEN--\":81:97   */\n      add\n        /* \"--CODEGEN--\":74:101   */\n      mstore\n        /* \"--CODEGEN--\":137:141   */\n      0x1f\n        /* \"--CODEGEN--\":133:142   */\n      not\n        /* \"--CODEGEN--\":126:130   */\n      0x1f\n        /* \"--CODEGEN--\":121:124   */\n      dup3\n        /* \"--CODEGEN--\":117:131   */\n      add\n        /* \"--CODEGEN--\":113:143   */\n      and\n        /* \"--CODEGEN--\":106:143   */\n      swap1\n      pop\n        /* \"--CODEGEN--\":169:172   */\n      dup1\n        /* \"--CODEGEN--\":161:167   */\n      dup4\n        /* \"--CODEGEN--\":157:173   */\n      add\n        /* \"--CODEGEN--\":147:173   */\n      swap3\n      pop\n        /* \"projects/exchange-protocol/contracts/ExzoneRouter01.sol\":7694:7746  ExzoneLibrary.getAmountsOut(factory, amountIn, path) */\n      pop\n      pop\n      pop\n      pop\n      pop\n      pop\n        /* \"projects/exchange-protocol/contracts/ExzoneRouter01.sol\":7694:7721  ExzoneLibrary.getAmountsOut */\n      tag_167\n        /* \"projects/exchange-protocol/contracts/ExzoneRouter01.sol\":7694:7746  ExzoneLibrary.getAmountsOut(factory, amountIn, path) */\n      jump\t// in\n    tag_200:\n        /* \"projects/exchange-protocol/contracts/ExzoneRouter01.sol\":7684:7746  amounts = ExzoneLibrary.getAmountsOut(factory, amountIn, path) */\n      swap2\n      pop\n        /* \"projects/exchange-protocol/contracts/ExzoneRouter01.sol\":7795:7807  amountOutMin */\n      dup7\n        /* \"projects/exchange-protocol/contracts/ExzoneRouter01.sol\":7764:7771  amounts */\n      dup3\n        /* \"projects/exchange-protocol/contracts/ExzoneRouter01.sol\":7789:7790  1 */\n      0x01\n        /* \"projects/exchange-protocol/contracts/ExzoneRouter01.sol\":7772:7779  amounts */\n      dup5\n        /* \"projects/exchange-protocol/contracts/ExzoneRouter01.sol\":7772:7786  amounts.length */\n      mload\n        /* \"projects/exchange-protocol/contracts/ExzoneRouter01.sol\":7772:7790  amounts.length - 1 */\n      sub\n        /* \"projects/exchange-protocol/contracts/ExzoneRouter01.sol\":7764:7791  amounts[amounts.length - 1] */\n      dup2\n      mload\n      dup2\n      lt\n      tag_201\n      jumpi\n      invalid\n    tag_201:\n      0x20\n      mul\n      0x20\n      add\n      add\n      mload\n        /* \"projects/exchange-protocol/contracts/ExzoneRouter01.sol\":7764:7807  amounts[amounts.length - 1] >= amountOutMin */\n      lt\n      iszero\n        /* \"projects/exchange-protocol/contracts/ExzoneRouter01.sol\":7756:7852  require(amounts[amounts.length - 1] >= amountOutMin, 'ExzoneRouter: INSUFFICIENT_OUTPUT_AMOUNT') */\n      tag_202\n      jumpi\n      mload(0x40)\n      0x08c379a000000000000000000000000000000000000000000000000000000000\n      dup2\n      mstore\n      0x04\n      add\n      dup1\n      dup1\n      0x20\n      add\n      dup3\n      dup2\n      sub\n      dup3\n      mstore\n      0x28\n      dup2\n      mstore\n      0x20\n      add\n      dup1\n      data_dfe53cb4b8f379dd7e444b85c71aa868238e1e299fbf8fcb68a883a9f3588fea\n      0x28\n      swap2\n      codecopy\n      0x40\n      add\n      swap2\n      pop\n      pop\n      mload(0x40)\n      dup1\n      swap2\n      sub\n      swap1\n      revert\n    tag_202:\n        /* \"projects/exchange-protocol/contracts/ExzoneRouter01.sol\":7862:7976  TransferHelper.safeTransferFrom(path[0], msg.sender, ExzoneLibrary.pairFor(factory, path[0], path[1]), amounts[0]) */\n      tag_203\n        /* \"projects/exchange-protocol/contracts/ExzoneRouter01.sol\":7894:7898  path */\n      dup7\n      dup7\n        /* \"projects/exchange-protocol/contracts/ExzoneRouter01.sol\":7899:7900  0 */\n      0x00\n        /* \"projects/exchange-protocol/contracts/ExzoneRouter01.sol\":7894:7901  path[0] */\n      dup2\n      dup2\n      lt\n      tag_204\n      jumpi\n      invalid\n    tag_204:\n      swap1\n      pop\n      0x20\n      mul\n      add\n      calldataload\n      0xffffffffffffffffffffffffffffffffffffffff\n      and\n        /* \"projects/exchange-protocol/contracts/ExzoneRouter01.sol\":7903:7913  msg.sender */\n      caller\n        /* \"projects/exchange-protocol/contracts/ExzoneRouter01.sol\":7915:7963  ExzoneLibrary.pairFor(factory, path[0], path[1]) */\n      tag_205\n        /* \"projects/exchange-protocol/contracts/ExzoneRouter01.sol\":7937:7944  factory */\n      immutable(\"0x5bcd163b2238ff85648d293e01a327b5c7f9ae69498a752a4883e839ddddafcb\")\n        /* \"projects/exchange-protocol/contracts/ExzoneRouter01.sol\":7946:7950  path */\n      dup11\n      dup11\n        /* \"projects/exchange-protocol/contracts/ExzoneRouter01.sol\":7951:7952  0 */\n      0x00\n        /* \"projects/exchange-protocol/contracts/ExzoneRouter01.sol\":7946:7953  path[0] */\n      dup2\n      dup2\n      lt\n      tag_206\n      jumpi\n      invalid\n    tag_206:\n      swap1\n      pop\n      0x20\n      mul\n      add\n      calldataload\n      0xffffffffffffffffffffffffffffffffffffffff\n      and\n        /* \"projects/exchange-protocol/contracts/ExzoneRouter01.sol\":7955:7959  path */\n      dup12\n      dup12\n        /* \"projects/exchange-protocol/contracts/ExzoneRouter01.sol\":7960:7961  1 */\n      0x01\n        /* \"projects/exchange-protocol/contracts/ExzoneRouter01.sol\":7955:7962  path[1] */\n      dup2\n      dup2\n      lt\n      tag_207\n      jumpi\n      invalid\n    tag_207:\n      swap1\n      pop\n      0x20\n      mul\n      add\n      calldataload\n      0xffffffffffffffffffffffffffffffffffffffff\n      and\n        /* \"projects/exchange-protocol/contracts/ExzoneRouter01.sol\":7915:7936  ExzoneLibrary.pairFor */\n      tag_175\n        /* \"projects/exchange-protocol/contracts/ExzoneRouter01.sol\":7915:7963  ExzoneLibrary.pairFor(factory, path[0], path[1]) */\n      jump\t// in\n    tag_205:\n        /* \"projects/exchange-protocol/contracts/ExzoneRouter01.sol\":7965:7972  amounts */\n      dup6\n        /* \"projects/exchange-protocol/contracts/ExzoneRouter01.sol\":7973:7974  0 */\n      0x00\n        /* \"projects/exchange-protocol/contracts/ExzoneRouter01.sol\":7965:7975  amounts[0] */\n      dup2\n      mload\n      dup2\n      lt\n      tag_208\n      jumpi\n      invalid\n    tag_208:\n      0x20\n      mul\n      0x20\n      add\n      add\n      mload\n        /* \"projects/exchange-protocol/contracts/ExzoneRouter01.sol\":7862:7893  TransferHelper.safeTransferFrom */\n      tag_177\n        /* \"projects/exchange-protocol/contracts/ExzoneRouter01.sol\":7862:7976  TransferHelper.safeTransferFrom(path[0], msg.sender, ExzoneLibrary.pairFor(factory, path[0], path[1]), amounts[0]) */\n      jump\t// in\n    tag_203:\n        /* \"projects/exchange-protocol/contracts/ExzoneRouter01.sol\":7986:8010  _swap(amounts, path, to) */\n      tag_209\n        /* \"projects/exchange-protocol/contracts/ExzoneRouter01.sol\":7992:7999  amounts */\n      dup3\n        /* \"projects/exchange-protocol/contracts/ExzoneRouter01.sol\":8001:8005  path */\n      dup8\n      dup8\n        /* \"projects/exchange-protocol/contracts/ExzoneRouter01.sol\":7986:8010  _swap(amounts, path, to) */\n      dup1\n      dup1\n      0x20\n      mul\n      0x20\n      add\n      mload(0x40)\n      swap1\n      dup2\n      add\n      0x40\n      mstore\n      dup1\n      swap4\n      swap3\n      swap2\n      swap1\n      dup2\n      dup2\n      mstore\n      0x20\n      add\n      dup4\n      dup4\n      0x20\n      mul\n        /* \"--CODEGEN--\":30:33   */\n      dup1\n        /* \"--CODEGEN--\":22:28   */\n      dup3\n        /* \"--CODEGEN--\":14:20   */\n      dup5\n        /* \"--CODEGEN--\":1:34   */\n      calldatacopy\n        /* \"--CODEGEN--\":99:100   */\n      0x00\n        /* \"--CODEGEN--\":93:96   */\n      dup2\n        /* \"--CODEGEN--\":85:91   */\n      dup5\n        /* \"--CODEGEN--\":81:97   */\n      add\n        /* \"--CODEGEN--\":74:101   */\n      mstore\n        /* \"--CODEGEN--\":137:141   */\n      0x1f\n        /* \"--CODEGEN--\":133:142   */\n      not\n        /* \"--CODEGEN--\":126:130   */\n      0x1f\n        /* \"--CODEGEN--\":121:124   */\n      dup3\n        /* \"--CODEGEN--\":117:131   */\n      add\n        /* \"--CODEGEN--\":113:143   */\n      and\n        /* \"--CODEGEN--\":106:143   */\n      swap1\n      pop\n        /* \"--CODEGEN--\":169:172   */\n      dup1\n        /* \"--CODEGEN--\":161:167   */\n      dup4\n        /* \"--CODEGEN--\":157:173   */\n      add\n        /* \"--CODEGEN--\":147:173   */\n      swap3\n      pop\n        /* \"projects/exchange-protocol/contracts/ExzoneRouter01.sol\":7986:8010  _swap(amounts, path, to) */\n      pop\n      pop\n      pop\n      pop\n      pop\n      pop\n        /* \"projects/exchange-protocol/contracts/ExzoneRouter01.sol\":8007:8009  to */\n      dup7\n        /* \"projects/exchange-protocol/contracts/ExzoneRouter01.sol\":7986:7991  _swap */\n      tag_179\n        /* \"projects/exchange-protocol/contracts/ExzoneRouter01.sol\":7986:8010  _swap(amounts, path, to) */\n      jump\t// in\n    tag_209:\n        /* \"projects/exchange-protocol/contracts/ExzoneRouter01.sol\":7441:8017  function swapExactTokensForTokens(... */\n      pop\n      swap7\n      swap6\n      pop\n      pop\n      pop\n      pop\n      pop\n      pop\n      jump\t// out\n        /* \"projects/exchange-protocol/contracts/ExzoneRouter01.sol\":9241:10003  function swapTokensForExactETH(uint amountOut, uint amountInMax, address[] calldata path, address to, uint deadline)... */\n    tag_76:\n        /* \"projects/exchange-protocol/contracts/ExzoneRouter01.sol\":9434:9455  uint[] memory amounts */\n      0x60\n        /* \"projects/exchange-protocol/contracts/ExzoneRouter01.sol\":9407:9415  deadline */\n      dup2\n        /* \"projects/exchange-protocol/contracts/ExzoneRouter01.sol\":519:534  block.timestamp */\n      timestamp\n        /* \"projects/exchange-protocol/contracts/ExzoneRouter01.sol\":507:515  deadline */\n      dup2\n        /* \"projects/exchange-protocol/contracts/ExzoneRouter01.sol\":507:534  deadline >= block.timestamp */\n      lt\n      iszero\n        /* \"projects/exchange-protocol/contracts/ExzoneRouter01.sol\":499:560  require(deadline >= block.timestamp, 'ExzoneRouter: EXPIRED') */\n      tag_211\n      jumpi\n      mload(0x40)\n      0x08c379a000000000000000000000000000000000000000000000000000000000\n      dup2\n      mstore\n      0x04\n      add\n      dup1\n      dup1\n      0x20\n      add\n      dup3\n      dup2\n      sub\n      dup3\n      mstore\n      0x15\n      dup2\n      mstore\n      0x20\n      add\n      dup1\n      0x45787a6f6e65526f757465723a20455850495245440000000000000000000000\n      dup2\n      mstore\n      pop\n      0x20\n      add\n      swap2\n      pop\n      pop\n      mload(0x40)\n      dup1\n      swap2\n      sub\n      swap1\n      revert\n    tag_211:\n        /* \"projects/exchange-protocol/contracts/ExzoneRouter01.sol\":9504:9508  WETH */\n      immutable(\"0x9abd569a0444be7ce52d46a7fb79009940c0c0442116f15017290ff13cb4450c\")\n        /* \"projects/exchange-protocol/contracts/ExzoneRouter01.sol\":9479:9508  path[path.length - 1] == WETH */\n      0xffffffffffffffffffffffffffffffffffffffff\n      and\n        /* \"projects/exchange-protocol/contracts/ExzoneRouter01.sol\":9479:9483  path */\n      dup7\n      dup7\n        /* \"projects/exchange-protocol/contracts/ExzoneRouter01.sol\":9498:9499  1 */\n      0x01\n        /* \"projects/exchange-protocol/contracts/ExzoneRouter01.sol\":9484:9488  path */\n      dup10\n      dup10\n        /* \"projects/exchange-protocol/contracts/ExzoneRouter01.sol\":9484:9495  path.length */\n      swap1\n      pop\n        /* \"projects/exchange-protocol/contracts/ExzoneRouter01.sol\":9484:9499  path.length - 1 */\n      sub\n        /* \"projects/exchange-protocol/contracts/ExzoneRouter01.sol\":9479:9500  path[path.length - 1] */\n      dup2\n      dup2\n      lt\n      tag_213\n      jumpi\n      invalid\n    tag_213:\n      swap1\n      pop\n      0x20\n      mul\n      add\n      calldataload\n      0xffffffffffffffffffffffffffffffffffffffff\n      and\n        /* \"projects/exchange-protocol/contracts/ExzoneRouter01.sol\":9479:9508  path[path.length - 1] == WETH */\n      0xffffffffffffffffffffffffffffffffffffffff\n      and\n      eq\n        /* \"projects/exchange-protocol/contracts/ExzoneRouter01.sol\":9471:9539  require(path[path.length - 1] == WETH, 'ExzoneRouter: INVALID_PATH') */\n      tag_214\n      jumpi\n      mload(0x40)\n      0x08c379a000000000000000000000000000000000000000000000000000000000\n      dup2\n      mstore\n      0x04\n      add\n      dup1\n      dup1\n      0x20\n      add\n      dup3\n      dup2\n      sub\n      dup3\n      mstore\n      0x1a\n      dup2\n      mstore\n      0x20\n      add\n      dup1\n      0x45787a6f6e65526f757465723a20494e56414c49445f50415448000000000000\n      dup2\n      mstore\n      pop\n      0x20\n      add\n      swap2\n      pop\n      pop\n      mload(0x40)\n      dup1\n      swap2\n      sub\n      swap1\n      revert\n    tag_214:\n        /* \"projects/exchange-protocol/contracts/ExzoneRouter01.sol\":9559:9611  ExzoneLibrary.getAmountsIn(factory, amountOut, path) */\n      tag_215\n        /* \"projects/exchange-protocol/contracts/ExzoneRouter01.sol\":9586:9593  factory */\n      immutable(\"0x5bcd163b2238ff85648d293e01a327b5c7f9ae69498a752a4883e839ddddafcb\")\n        /* \"projects/exchange-protocol/contracts/ExzoneRouter01.sol\":9595:9604  amountOut */\n      dup10\n        /* \"projects/exchange-protocol/contracts/ExzoneRouter01.sol\":9606:9610  path */\n      dup9\n      dup9\n        /* \"projects/exchange-protocol/contracts/ExzoneRouter01.sol\":9559:9611  ExzoneLibrary.getAmountsIn(factory, amountOut, path) */\n      dup1\n      dup1\n      0x20\n      mul\n      0x20\n      add\n      mload(0x40)\n      swap1\n      dup2\n      add\n      0x40\n      mstore\n      dup1\n      swap4\n      swap3\n      swap2\n      swap1\n      dup2\n      dup2\n      mstore\n      0x20\n      add\n      dup4\n      dup4\n      0x20\n      mul\n        /* \"--CODEGEN--\":30:33   */\n      dup1\n        /* \"--CODEGEN--\":22:28   */\n      dup3\n        /* \"--CODEGEN--\":14:20   */\n      dup5\n        /* \"--CODEGEN--\":1:34   */\n      calldatacopy\n        /* \"--CODEGEN--\":99:100   */\n      0x00\n        /* \"--CODEGEN--\":93:96   */\n      dup2\n        /* \"--CODEGEN--\":85:91   */\n      dup5\n        /* \"--CODEGEN--\":81:97   */\n      add\n        /* \"--CODEGEN--\":74:101   */\n      mstore\n        /* \"--CODEGEN--\":137:141   */\n      0x1f\n        /* \"--CODEGEN--\":133:142   */\n      not\n        /* \"--CODEGEN--\":126:130   */\n      0x1f\n        /* \"--CODEGEN--\":121:124   */\n      dup3\n        /* \"--CODEGEN--\":117:131   */\n      add\n        /* \"--CODEGEN--\":113:143   */\n      and\n        /* \"--CODEGEN--\":106:143   */\n      swap1\n      pop\n        /* \"--CODEGEN--\":169:172   */\n      dup1\n        /* \"--CODEGEN--\":161:167   */\n      dup4\n        /* \"--CODEGEN--\":157:173   */\n      add\n        /* \"--CODEGEN--\":147:173   */\n      swap3\n      pop\n        /* \"projects/exchange-protocol/contracts/ExzoneRouter01.sol\":9559:9611  ExzoneLibrary.getAmountsIn(factory, amountOut, path) */\n      pop\n      pop\n      pop\n      pop\n      pop\n      pop\n        /* \"projects/exchange-protocol/contracts/ExzoneRouter01.sol\":9559:9585  ExzoneLibrary.getAmountsIn */\n      tag_188\n        /* \"projects/exchange-protocol/contracts/ExzoneRouter01.sol\":9559:9611  ExzoneLibrary.getAmountsIn(factory, amountOut, path) */\n      jump\t// in\n    tag_215:\n        /* \"projects/exchange-protocol/contracts/ExzoneRouter01.sol\":9549:9611  amounts = ExzoneLibrary.getAmountsIn(factory, amountOut, path) */\n      swap2\n      pop\n        /* \"projects/exchange-protocol/contracts/ExzoneRouter01.sol\":9643:9654  amountInMax */\n      dup7\n        /* \"projects/exchange-protocol/contracts/ExzoneRouter01.sol\":9629:9636  amounts */\n      dup3\n        /* \"projects/exchange-protocol/contracts/ExzoneRouter01.sol\":9637:9638  0 */\n      0x00\n        /* \"projects/exchange-protocol/contracts/ExzoneRouter01.sol\":9629:9639  amounts[0] */\n      dup2\n      mload\n      dup2\n      lt\n      tag_216\n      jumpi\n      invalid\n    tag_216:\n      0x20\n      mul\n      0x20\n      add\n      add\n      mload\n        /* \"projects/exchange-protocol/contracts/ExzoneRouter01.sol\":9629:9654  amounts[0] <= amountInMax */\n      gt\n      iszero\n        /* \"projects/exchange-protocol/contracts/ExzoneRouter01.sol\":9621:9695  require(amounts[0] <= amountInMax, 'ExzoneRouter: EXCESSIVE_INPUT_AMOUNT') */\n      tag_217\n      jumpi\n      mload(0x40)\n      0x08c379a000000000000000000000000000000000000000000000000000000000\n      dup2\n      mstore\n      0x04\n      add\n      dup1\n      dup1\n      0x20\n      add\n      dup3\n      dup2\n      sub\n      dup3\n      mstore\n      0x24\n      dup2\n      mstore\n      0x20\n      add\n      dup1\n      data_07947ce221cad6bb17467d2617ba69ad7eed4ff1cb624d0355f752f6e2c62544\n      0x24\n      swap2\n      codecopy\n      0x40\n      add\n      swap2\n      pop\n      pop\n      mload(0x40)\n      dup1\n      swap2\n      sub\n      swap1\n      revert\n    tag_217:\n        /* \"projects/exchange-protocol/contracts/ExzoneRouter01.sol\":9705:9819  TransferHelper.safeTransferFrom(path[0], msg.sender, ExzoneLibrary.pairFor(factory, path[0], path[1]), amounts[0]) */\n      tag_218\n        /* \"projects/exchange-protocol/contracts/ExzoneRouter01.sol\":9737:9741  path */\n      dup7\n      dup7\n        /* \"projects/exchange-protocol/contracts/ExzoneRouter01.sol\":9742:9743  0 */\n      0x00\n        /* \"projects/exchange-protocol/contracts/ExzoneRouter01.sol\":9737:9744  path[0] */\n      dup2\n      dup2\n      lt\n      tag_219\n      jumpi\n      invalid\n    tag_219:\n      swap1\n      pop\n      0x20\n      mul\n      add\n      calldataload\n      0xffffffffffffffffffffffffffffffffffffffff\n      and\n        /* \"projects/exchange-protocol/contracts/ExzoneRouter01.sol\":9746:9756  msg.sender */\n      caller\n        /* \"projects/exchange-protocol/contracts/ExzoneRouter01.sol\":9758:9806  ExzoneLibrary.pairFor(factory, path[0], path[1]) */\n      tag_220\n        /* \"projects/exchange-protocol/contracts/ExzoneRouter01.sol\":9780:9787  factory */\n      immutable(\"0x5bcd163b2238ff85648d293e01a327b5c7f9ae69498a752a4883e839ddddafcb\")\n        /* \"projects/exchange-protocol/contracts/ExzoneRouter01.sol\":9789:9793  path */\n      dup11\n      dup11\n        /* \"projects/exchange-protocol/contracts/ExzoneRouter01.sol\":9794:9795  0 */\n      0x00\n        /* \"projects/exchange-protocol/contracts/ExzoneRouter01.sol\":9789:9796  path[0] */\n      dup2\n      dup2\n      lt\n      tag_221\n      jumpi\n      invalid\n    tag_221:\n      swap1\n      pop\n      0x20\n      mul\n      add\n      calldataload\n      0xffffffffffffffffffffffffffffffffffffffff\n      and\n        /* \"projects/exchange-protocol/contracts/ExzoneRouter01.sol\":9798:9802  path */\n      dup12\n      dup12\n        /* \"projects/exchange-protocol/contracts/ExzoneRouter01.sol\":9803:9804  1 */\n      0x01\n        /* \"projects/exchange-protocol/contracts/ExzoneRouter01.sol\":9798:9805  path[1] */\n      dup2\n      dup2\n      lt\n      tag_222\n      jumpi\n      invalid\n    tag_222:\n      swap1\n      pop\n      0x20\n      mul\n      add\n      calldataload\n      0xffffffffffffffffffffffffffffffffffffffff\n      and\n        /* \"projects/exchange-protocol/contracts/ExzoneRouter01.sol\":9758:9779  ExzoneLibrary.pairFor */\n      tag_175\n        /* \"projects/exchange-protocol/contracts/ExzoneRouter01.sol\":9758:9806  ExzoneLibrary.pairFor(factory, path[0], path[1]) */\n      jump\t// in\n    tag_220:\n        /* \"projects/exchange-protocol/contracts/ExzoneRouter01.sol\":9808:9815  amounts */\n      dup6\n        /* \"projects/exchange-protocol/contracts/ExzoneRouter01.sol\":9816:9817  0 */\n      0x00\n        /* \"projects/exchange-protocol/contracts/ExzoneRouter01.sol\":9808:9818  amounts[0] */\n      dup2\n      mload\n      dup2\n      lt\n      tag_223\n      jumpi\n      invalid\n    tag_223:\n      0x20\n      mul\n      0x20\n      add\n      add\n      mload\n        /* \"projects/exchange-protocol/contracts/ExzoneRouter01.sol\":9705:9736  TransferHelper.safeTransferFrom */\n      tag_177\n        /* \"projects/exchange-protocol/contracts/ExzoneRouter01.sol\":9705:9819  TransferHelper.safeTransferFrom(path[0], msg.sender, ExzoneLibrary.pairFor(factory, path[0], path[1]), amounts[0]) */\n      jump\t// in\n    tag_218:\n        /* \"projects/exchange-protocol/contracts/ExzoneRouter01.sol\":9829:9864  _swap(amounts, path, address(this)) */\n      tag_224\n        /* \"projects/exchange-protocol/contracts/ExzoneRouter01.sol\":9835:9842  amounts */\n      dup3\n        /* \"projects/exchange-protocol/contracts/ExzoneRouter01.sol\":9844:9848  path */\n      dup8\n      dup8\n        /* \"projects/exchange-protocol/contracts/ExzoneRouter01.sol\":9829:9864  _swap(amounts, path, address(this)) */\n      dup1\n      dup1\n      0x20\n      mul\n      0x20\n      add\n      mload(0x40)\n      swap1\n      dup2\n      add\n      0x40\n      mstore\n      dup1\n      swap4\n      swap3\n      swap2\n      swap1\n      dup2\n      dup2\n      mstore\n      0x20\n      add\n      dup4\n      dup4\n      0x20\n      mul\n        /* \"--CODEGEN--\":30:33   */\n      dup1\n        /* \"--CODEGEN--\":22:28   */\n      dup3\n        /* \"--CODEGEN--\":14:20   */\n      dup5\n        /* \"--CODEGEN--\":1:34   */\n      calldatacopy\n        /* \"--CODEGEN--\":99:100   */\n      0x00\n        /* \"--CODEGEN--\":93:96   */\n      dup2\n        /* \"--CODEGEN--\":85:91   */\n      dup5\n        /* \"--CODEGEN--\":81:97   */\n      add\n        /* \"--CODEGEN--\":74:101   */\n      mstore\n        /* \"--CODEGEN--\":137:141   */\n      0x1f\n        /* \"--CODEGEN--\":133:142   */\n      not\n        /* \"--CODEGEN--\":126:130   */\n      0x1f\n        /* \"--CODEGEN--\":121:124   */\n      dup3\n        /* \"--CODEGEN--\":117:131   */\n      add\n        /* \"--CODEGEN--\":113:143   */\n      and\n        /* \"--CODEGEN--\":106:143   */\n      swap1\n      pop\n        /* \"--CODEGEN--\":169:172   */\n      dup1\n        /* \"--CODEGEN--\":161:167   */\n      dup4\n        /* \"--CODEGEN--\":157:173   */\n      add\n        /* \"--CODEGEN--\":147:173   */\n      swap3\n      pop\n        /* \"projects/exchange-protocol/contracts/ExzoneRouter01.sol\":9829:9864  _swap(amounts, path, address(this)) */\n      pop\n      pop\n      pop\n      pop\n      pop\n      pop\n        /* \"projects/exchange-protocol/contracts/ExzoneRouter01.sol\":9858:9862  this */\n      address\n        /* \"projects/exchange-protocol/contracts/ExzoneRouter01.sol\":9829:9834  _swap */\n      tag_179\n        /* \"projects/exchange-protocol/contracts/ExzoneRouter01.sol\":9829:9864  _swap(amounts, path, address(this)) */\n      jump\t// in\n    tag_224:\n        /* \"projects/exchange-protocol/contracts/ExzoneRouter01.sol\":9880:9884  WETH */\n      immutable(\"0x9abd569a0444be7ce52d46a7fb79009940c0c0442116f15017290ff13cb4450c\")\n        /* \"projects/exchange-protocol/contracts/ExzoneRouter01.sol\":9874:9894  IWETH(WETH).withdraw */\n      0xffffffffffffffffffffffffffffffffffffffff\n      and\n      0x2e1a7d4d\n        /* \"projects/exchange-protocol/contracts/ExzoneRouter01.sol\":9895:9902  amounts */\n      dup4\n        /* \"projects/exchange-protocol/contracts/ExzoneRouter01.sol\":9920:9921  1 */\n      0x01\n        /* \"projects/exchange-protocol/contracts/ExzoneRouter01.sol\":9903:9910  amounts */\n      dup6\n        /* \"projects/exchange-protocol/contracts/ExzoneRouter01.sol\":9903:9917  amounts.length */\n      mload\n        /* \"projects/exchange-protocol/contracts/ExzoneRouter01.sol\":9903:9921  amounts.length - 1 */\n      sub\n        /* \"projects/exchange-protocol/contracts/ExzoneRouter01.sol\":9895:9922  amounts[amounts.length - 1] */\n      dup2\n      mload\n      dup2\n      lt\n      tag_225\n      jumpi\n      invalid\n    tag_225:\n      0x20\n      mul\n      0x20\n      add\n      add\n      mload\n        /* \"projects/exchange-protocol/contracts/ExzoneRouter01.sol\":9874:9923  IWETH(WETH).withdraw(amounts[amounts.length - 1]) */\n      mload(0x40)\n      dup3\n      0xffffffff\n      and\n      0xe0\n      shl\n      dup2\n      mstore\n      0x04\n      add\n      dup1\n      dup3\n      dup2\n      mstore\n      0x20\n      add\n      swap2\n      pop\n      pop\n      0x00\n      mload(0x40)\n      dup1\n      dup4\n      sub\n      dup2\n      0x00\n      dup8\n      dup1\n      extcodesize\n      iszero\n        /* \"--CODEGEN--\":5:14   */\n      dup1\n        /* \"--CODEGEN--\":2:4   */\n      iszero\n      tag_226\n      jumpi\n        /* \"--CODEGEN--\":27:28   */\n      0x00\n        /* \"--CODEGEN--\":24:25   */\n      dup1\n        /* \"--CODEGEN--\":17:29   */\n      revert\n        /* \"--CODEGEN--\":2:4   */\n    tag_226:\n        /* \"projects/exchange-protocol/contracts/ExzoneRouter01.sol\":9874:9923  IWETH(WETH).withdraw(amounts[amounts.length - 1]) */\n      pop\n      gas\n      call\n      iszero\n        /* \"--CODEGEN--\":8:17   */\n      dup1\n        /* \"--CODEGEN--\":5:7   */\n      iszero\n      tag_228\n      jumpi\n        /* \"--CODEGEN--\":45:61   */\n      returndatasize\n        /* \"--CODEGEN--\":42:43   */\n      0x00\n        /* \"--CODEGEN--\":39:40   */\n      dup1\n        /* \"--CODEGEN--\":24:62   */\n      returndatacopy\n        /* \"--CODEGEN--\":77:93   */\n      returndatasize\n        /* \"--CODEGEN--\":74:75   */\n      0x00\n        /* \"--CODEGEN--\":67:94   */\n      revert\n        /* \"--CODEGEN--\":5:7   */\n    tag_228:\n        /* \"projects/exchange-protocol/contracts/ExzoneRouter01.sol\":9874:9923  IWETH(WETH).withdraw(amounts[amounts.length - 1]) */\n      pop\n      pop\n      pop\n      pop\n        /* \"projects/exchange-protocol/contracts/ExzoneRouter01.sol\":9933:9996  TransferHelper.safeTransferETH(to, amounts[amounts.length - 1]) */\n      tag_229\n        /* \"projects/exchange-protocol/contracts/ExzoneRouter01.sol\":9964:9966  to */\n      dup5\n        /* \"projects/exchange-protocol/contracts/ExzoneRouter01.sol\":9968:9975  amounts */\n      dup4\n        /* \"projects/exchange-protocol/contracts/ExzoneRouter01.sol\":9993:9994  1 */\n      0x01\n        /* \"projects/exchange-protocol/contracts/ExzoneRouter01.sol\":9976:9983  amounts */\n      dup6\n        /* \"projects/exchange-protocol/contracts/ExzoneRouter01.sol\":9976:9990  amounts.length */\n      mload\n        /* \"projects/exchange-protocol/contracts/ExzoneRouter01.sol\":9976:9994  amounts.length - 1 */\n      sub\n        /* \"projects/exchange-protocol/contracts/ExzoneRouter01.sol\":9968:9995  amounts[amounts.length - 1] */\n      dup2\n      mload\n      dup2\n      lt\n      tag_230\n      jumpi\n      invalid\n    tag_230:\n      0x20\n      mul\n      0x20\n      add\n      add\n      mload\n        /* \"projects/exchange-protocol/contracts/ExzoneRouter01.sol\":9933:9963  TransferHelper.safeTransferETH */\n      tag_157\n        /* \"projects/exchange-protocol/contracts/ExzoneRouter01.sol\":9933:9996  TransferHelper.safeTransferETH(to, amounts[amounts.length - 1]) */\n      jump\t// in\n    tag_229:\n        /* \"projects/exchange-protocol/contracts/ExzoneRouter01.sol\":9241:10003  function swapTokensForExactETH(uint amountOut, uint amountInMax, address[] calldata path, address to, uint deadline)... */\n      pop\n      swap7\n      swap6\n      pop\n      pop\n      pop\n      pop\n      pop\n      pop\n      jump\t// out\n        /* \"projects/exchange-protocol/contracts/ExzoneRouter01.sol\":8581:9236  function swapExactETHForTokens(uint amountOutMin, address[] calldata path, address to, uint deadline)... */\n    tag_85:\n        /* \"projects/exchange-protocol/contracts/ExzoneRouter01.sol\":8775:8796  uint[] memory amounts */\n      0x60\n        /* \"projects/exchange-protocol/contracts/ExzoneRouter01.sol\":8748:8756  deadline */\n      dup2\n        /* \"projects/exchange-protocol/contracts/ExzoneRouter01.sol\":519:534  block.timestamp */\n      timestamp\n        /* \"projects/exchange-protocol/contracts/ExzoneRouter01.sol\":507:515  deadline */\n      dup2\n        /* \"projects/exchange-protocol/contracts/ExzoneRouter01.sol\":507:534  deadline >= block.timestamp */\n      lt\n      iszero\n        /* \"projects/exchange-protocol/contracts/ExzoneRouter01.sol\":499:560  require(deadline >= block.timestamp, 'ExzoneRouter: EXPIRED') */\n      tag_232\n      jumpi\n      mload(0x40)\n      0x08c379a000000000000000000000000000000000000000000000000000000000\n      dup2\n      mstore\n      0x04\n      add\n      dup1\n      dup1\n      0x20\n      add\n      dup3\n      dup2\n      sub\n      dup3\n      mstore\n      0x15\n      dup2\n      mstore\n      0x20\n      add\n      dup1\n      0x45787a6f6e65526f757465723a20455850495245440000000000000000000000\n      dup2\n      mstore\n      pop\n      0x20\n      add\n      swap2\n      pop\n      pop\n      mload(0x40)\n      dup1\n      swap2\n      sub\n      swap1\n      revert\n    tag_232:\n        /* \"projects/exchange-protocol/contracts/ExzoneRouter01.sol\":8831:8835  WETH */\n      immutable(\"0x9abd569a0444be7ce52d46a7fb79009940c0c0442116f15017290ff13cb4450c\")\n        /* \"projects/exchange-protocol/contracts/ExzoneRouter01.sol\":8820:8835  path[0] == WETH */\n      0xffffffffffffffffffffffffffffffffffffffff\n      and\n        /* \"projects/exchange-protocol/contracts/ExzoneRouter01.sol\":8820:8824  path */\n      dup7\n      dup7\n        /* \"projects/exchange-protocol/contracts/ExzoneRouter01.sol\":8825:8826  0 */\n      0x00\n        /* \"projects/exchange-protocol/contracts/ExzoneRouter01.sol\":8820:8827  path[0] */\n      dup2\n      dup2\n      lt\n      tag_234\n      jumpi\n      invalid\n    tag_234:\n      swap1\n      pop\n      0x20\n      mul\n      add\n      calldataload\n      0xffffffffffffffffffffffffffffffffffffffff\n      and\n        /* \"projects/exchange-protocol/contracts/ExzoneRouter01.sol\":8820:8835  path[0] == WETH */\n      0xffffffffffffffffffffffffffffffffffffffff\n      and\n      eq\n        /* \"projects/exchange-protocol/contracts/ExzoneRouter01.sol\":8812:8866  require(path[0] == WETH, 'ExzoneRouter: INVALID_PATH') */\n      tag_235\n      jumpi\n      mload(0x40)\n      0x08c379a000000000000000000000000000000000000000000000000000000000\n      dup2\n      mstore\n      0x04\n      add\n      dup1\n      dup1\n      0x20\n      add\n      dup3\n      dup2\n      sub\n      dup3\n      mstore\n      0x1a\n      dup2\n      mstore\n      0x20\n      add\n      dup1\n      0x45787a6f6e65526f757465723a20494e56414c49445f50415448000000000000\n      dup2\n      mstore\n      pop\n      0x20\n      add\n      swap2\n      pop\n      pop\n      mload(0x40)\n      dup1\n      swap2\n      sub\n      swap1\n      revert\n    tag_235:\n        /* \"projects/exchange-protocol/contracts/ExzoneRouter01.sol\":8886:8939  ExzoneLibrary.getAmountsOut(factory, msg.value, path) */\n      tag_236\n        /* \"projects/exchange-protocol/contracts/ExzoneRouter01.sol\":8914:8921  factory */\n      immutable(\"0x5bcd163b2238ff85648d293e01a327b5c7f9ae69498a752a4883e839ddddafcb\")\n        /* \"projects/exchange-protocol/contracts/ExzoneRouter01.sol\":8923:8932  msg.value */\n      callvalue\n        /* \"projects/exchange-protocol/contracts/ExzoneRouter01.sol\":8934:8938  path */\n      dup9\n      dup9\n        /* \"projects/exchange-protocol/contracts/ExzoneRouter01.sol\":8886:8939  ExzoneLibrary.getAmountsOut(factory, msg.value, path) */\n      dup1\n      dup1\n      0x20\n      mul\n      0x20\n      add\n      mload(0x40)\n      swap1\n      dup2\n      add\n      0x40\n      mstore\n      dup1\n      swap4\n      swap3\n      swap2\n      swap1\n      dup2\n      dup2\n      mstore\n      0x20\n      add\n      dup4\n      dup4\n      0x20\n      mul\n        /* \"--CODEGEN--\":30:33   */\n      dup1\n        /* \"--CODEGEN--\":22:28   */\n      dup3\n        /* \"--CODEGEN--\":14:20   */\n      dup5\n        /* \"--CODEGEN--\":1:34   */\n      calldatacopy\n        /* \"--CODEGEN--\":99:100   */\n      0x00\n        /* \"--CODEGEN--\":93:96   */\n      dup2\n        /* \"--CODEGEN--\":85:91   */\n      dup5\n        /* \"--CODEGEN--\":81:97   */\n      add\n        /* \"--CODEGEN--\":74:101   */\n      mstore\n        /* \"--CODEGEN--\":137:141   */\n      0x1f\n        /* \"--CODEGEN--\":133:142   */\n      not\n        /* \"--CODEGEN--\":126:130   */\n      0x1f\n        /* \"--CODEGEN--\":121:124   */\n      dup3\n        /* \"--CODEGEN--\":117:131   */\n      add\n        /* \"--CODEGEN--\":113:143   */\n      and\n        /* \"--CODEGEN--\":106:143   */\n      swap1\n      pop\n        /* \"--CODEGEN--\":169:172   */\n      dup1\n        /* \"--CODEGEN--\":161:167   */\n      dup4\n        /* \"--CODEGEN--\":157:173   */\n      add\n        /* \"--CODEGEN--\":147:173   */\n      swap3\n      pop\n        /* \"projects/exchange-protocol/contracts/ExzoneRouter01.sol\":8886:8939  ExzoneLibrary.getAmountsOut(factory, msg.value, path) */\n      pop\n      pop\n      pop\n      pop\n      pop\n      pop\n        /* \"projects/exchange-protocol/contracts/ExzoneRouter01.sol\":8886:8913  ExzoneLibrary.getAmountsOut */\n      tag_167\n        /* \"projects/exchange-protocol/contracts/ExzoneRouter01.sol\":8886:8939  ExzoneLibrary.getAmountsOut(factory, msg.value, path) */\n      jump\t// in\n    tag_236:\n        /* \"projects/exchange-protocol/contracts/ExzoneRouter01.sol\":8876:8939  amounts = ExzoneLibrary.getAmountsOut(factory, msg.value, path) */\n      swap2\n      pop\n        /* \"projects/exchange-protocol/contracts/ExzoneRouter01.sol\":8988:9000  amountOutMin */\n      dup7\n        /* \"projects/exchange-protocol/contracts/ExzoneRouter01.sol\":8957:8964  amounts */\n      dup3\n        /* \"projects/exchange-protocol/contracts/ExzoneRouter01.sol\":8982:8983  1 */\n      0x01\n        /* \"projects/exchange-protocol/contracts/ExzoneRouter01.sol\":8965:8972  amounts */\n      dup5\n        /* \"projects/exchange-protocol/contracts/ExzoneRouter01.sol\":8965:8979  amounts.length */\n      mload\n        /* \"projects/exchange-protocol/contracts/ExzoneRouter01.sol\":8965:8983  amounts.length - 1 */\n      sub\n        /* \"projects/exchange-protocol/contracts/ExzoneRouter01.sol\":8957:8984  amounts[amounts.length - 1] */\n      dup2\n      mload\n      dup2\n      lt\n      tag_237\n      jumpi\n      invalid\n    tag_237:\n      0x20\n      mul\n      0x20\n      add\n      add\n      mload\n        /* \"projects/exchange-protocol/contracts/ExzoneRouter01.sol\":8957:9000  amounts[amounts.length - 1] >= amountOutMin */\n      lt\n      iszero\n        /* \"projects/exchange-protocol/contracts/ExzoneRouter01.sol\":8949:9045  require(amounts[amounts.length - 1] >= amountOutMin, 'ExzoneRouter: INSUFFICIENT_OUTPUT_AMOUNT') */\n      tag_238\n      jumpi\n      mload(0x40)\n      0x08c379a000000000000000000000000000000000000000000000000000000000\n      dup2\n      mstore\n      0x04\n      add\n      dup1\n      dup1\n      0x20\n      add\n      dup3\n      dup2\n      sub\n      dup3\n      mstore\n      0x28\n      dup2\n      mstore\n      0x20\n      add\n      dup1\n      data_dfe53cb4b8f379dd7e444b85c71aa868238e1e299fbf8fcb68a883a9f3588fea\n      0x28\n      swap2\n      codecopy\n      0x40\n      add\n      swap2\n      pop\n      pop\n      mload(0x40)\n      dup1\n      swap2\n      sub\n      swap1\n      revert\n    tag_238:\n        /* \"projects/exchange-protocol/contracts/ExzoneRouter01.sol\":9061:9065  WETH */\n      immutable(\"0x9abd569a0444be7ce52d46a7fb79009940c0c0442116f15017290ff13cb4450c\")\n        /* \"projects/exchange-protocol/contracts/ExzoneRouter01.sol\":9055:9074  IWETH(WETH).deposit */\n      0xffffffffffffffffffffffffffffffffffffffff\n      and\n      0xd0e30db0\n        /* \"projects/exchange-protocol/contracts/ExzoneRouter01.sol\":9082:9089  amounts */\n      dup4\n        /* \"projects/exchange-protocol/contracts/ExzoneRouter01.sol\":9090:9091  0 */\n      0x00\n        /* \"projects/exchange-protocol/contracts/ExzoneRouter01.sol\":9082:9092  amounts[0] */\n      dup2\n      mload\n      dup2\n      lt\n      tag_239\n      jumpi\n      invalid\n    tag_239:\n      0x20\n      mul\n      0x20\n      add\n      add\n      mload\n        /* \"projects/exchange-protocol/contracts/ExzoneRouter01.sol\":9055:9095  IWETH(WETH).deposit{value: amounts[0]}() */\n      mload(0x40)\n      dup3\n      0xffffffff\n      and\n      0xe0\n      shl\n      dup2\n      mstore\n      0x04\n      add\n      0x00\n      mload(0x40)\n      dup1\n      dup4\n      sub\n      dup2\n      dup6\n      dup9\n      dup1\n      extcodesize\n      iszero\n        /* \"--CODEGEN--\":5:14   */\n      dup1\n        /* \"--CODEGEN--\":2:4   */\n      iszero\n      tag_240\n      jumpi\n        /* \"--CODEGEN--\":27:28   */\n      0x00\n        /* \"--CODEGEN--\":24:25   */\n      dup1\n        /* \"--CODEGEN--\":17:29   */\n      revert\n        /* \"--CODEGEN--\":2:4   */\n    tag_240:\n        /* \"projects/exchange-protocol/contracts/ExzoneRouter01.sol\":9055:9095  IWETH(WETH).deposit{value: amounts[0]}() */\n      pop\n      gas\n      call\n      iszero\n        /* \"--CODEGEN--\":8:17   */\n      dup1\n        /* \"--CODEGEN--\":5:7   */\n      iszero\n      tag_242\n      jumpi\n        /* \"--CODEGEN--\":45:61   */\n      returndatasize\n        /* \"--CODEGEN--\":42:43   */\n      0x00\n        /* \"--CODEGEN--\":39:40   */\n      dup1\n        /* \"--CODEGEN--\":24:62   */\n      returndatacopy\n        /* \"--CODEGEN--\":77:93   */\n      returndatasize\n        /* \"--CODEGEN--\":74:75   */\n      0x00\n        /* \"--CODEGEN--\":67:94   */\n      revert\n        /* \"--CODEGEN--\":5:7   */\n    tag_242:\n        /* \"projects/exchange-protocol/contracts/ExzoneRouter01.sol\":9055:9095  IWETH(WETH).deposit{value: amounts[0]}() */\n      pop\n      pop\n      pop\n      pop\n      pop\n        /* \"projects/exchange-protocol/contracts/ExzoneRouter01.sol\":9118:9122  WETH */\n      immutable(\"0x9abd569a0444be7ce52d46a7fb79009940c0c0442116f15017290ff13cb4450c\")\n        /* \"projects/exchange-protocol/contracts/ExzoneRouter01.sol\":9112:9132  IWETH(WETH).transfer */\n      0xffffffffffffffffffffffffffffffffffffffff\n      and\n      0xa9059cbb\n        /* \"projects/exchange-protocol/contracts/ExzoneRouter01.sol\":9133:9181  ExzoneLibrary.pairFor(factory, path[0], path[1]) */\n      tag_243\n        /* \"projects/exchange-protocol/contracts/ExzoneRouter01.sol\":9155:9162  factory */\n      immutable(\"0x5bcd163b2238ff85648d293e01a327b5c7f9ae69498a752a4883e839ddddafcb\")\n        /* \"projects/exchange-protocol/contracts/ExzoneRouter01.sol\":9164:9168  path */\n      dup10\n      dup10\n        /* \"projects/exchange-protocol/contracts/ExzoneRouter01.sol\":9169:9170  0 */\n      0x00\n        /* \"projects/exchange-protocol/contracts/ExzoneRouter01.sol\":9164:9171  path[0] */\n      dup2\n      dup2\n      lt\n      tag_244\n      jumpi\n      invalid\n    tag_244:\n      swap1\n      pop\n      0x20\n      mul\n      add\n      calldataload\n      0xffffffffffffffffffffffffffffffffffffffff\n      and\n        /* \"projects/exchange-protocol/contracts/ExzoneRouter01.sol\":9173:9177  path */\n      dup11\n      dup11\n        /* \"projects/exchange-protocol/contracts/ExzoneRouter01.sol\":9178:9179  1 */\n      0x01\n        /* \"projects/exchange-protocol/contracts/ExzoneRouter01.sol\":9173:9180  path[1] */\n      dup2\n      dup2\n      lt\n      tag_245\n      jumpi\n      invalid\n    tag_245:\n      swap1\n      pop\n      0x20\n      mul\n      add\n      calldataload\n      0xffffffffffffffffffffffffffffffffffffffff\n      and\n        /* \"projects/exchange-protocol/contracts/ExzoneRouter01.sol\":9133:9154  ExzoneLibrary.pairFor */\n      tag_175\n        /* \"projects/exchange-protocol/contracts/ExzoneRouter01.sol\":9133:9181  ExzoneLibrary.pairFor(factory, path[0], path[1]) */\n      jump\t// in\n    tag_243:\n        /* \"projects/exchange-protocol/contracts/ExzoneRouter01.sol\":9183:9190  amounts */\n      dup5\n        /* \"projects/exchange-protocol/contracts/ExzoneRouter01.sol\":9191:9192  0 */\n      0x00\n        /* \"projects/exchange-protocol/contracts/ExzoneRouter01.sol\":9183:9193  amounts[0] */\n      dup2\n      mload\n      dup2\n      lt\n      tag_246\n      jumpi\n      invalid\n    tag_246:\n      0x20\n      mul\n      0x20\n      add\n      add\n      mload\n        /* \"projects/exchange-protocol/contracts/ExzoneRouter01.sol\":9112:9194  IWETH(WETH).transfer(ExzoneLibrary.pairFor(factory, path[0], path[1]), amounts[0]) */\n      mload(0x40)\n      dup4\n      0xffffffff\n      and\n      0xe0\n      shl\n      dup2\n      mstore\n      0x04\n      add\n      dup1\n      dup4\n      0xffffffffffffffffffffffffffffffffffffffff\n      and\n      0xffffffffffffffffffffffffffffffffffffffff\n      and\n      dup2\n      mstore\n      0x20\n      add\n      dup3\n      dup2\n      mstore\n      0x20\n      add\n      swap3\n      pop\n      pop\n      pop\n      0x20\n      mload(0x40)\n      dup1\n      dup4\n      sub\n      dup2\n      0x00\n      dup8\n      dup1\n      extcodesize\n      iszero\n        /* \"--CODEGEN--\":5:14   */\n      dup1\n        /* \"--CODEGEN--\":2:4   */\n      iszero\n      tag_247\n      jumpi\n        /* \"--CODEGEN--\":27:28   */\n      0x00\n        /* \"--CODEGEN--\":24:25   */\n      dup1\n        /* \"--CODEGEN--\":17:29   */\n      revert\n        /* \"--CODEGEN--\":2:4   */\n    tag_247:\n        /* \"projects/exchange-protocol/contracts/ExzoneRouter01.sol\":9112:9194  IWETH(WETH).transfer(ExzoneLibrary.pairFor(factory, path[0], path[1]), amounts[0]) */\n      pop\n      gas\n      call\n      iszero\n        /* \"--CODEGEN--\":8:17   */\n      dup1\n        /* \"--CODEGEN--\":5:7   */\n      iszero\n      tag_249\n      jumpi\n        /* \"--CODEGEN--\":45:61   */\n      returndatasize\n        /* \"--CODEGEN--\":42:43   */\n      0x00\n        /* \"--CODEGEN--\":39:40   */\n      dup1\n        /* \"--CODEGEN--\":24:62   */\n      returndatacopy\n        /* \"--CODEGEN--\":77:93   */\n      returndatasize\n        /* \"--CODEGEN--\":74:75   */\n      0x00\n        /* \"--CODEGEN--\":67:94   */\n      revert\n        /* \"--CODEGEN--\":5:7   */\n    tag_249:\n        /* \"projects/exchange-protocol/contracts/ExzoneRouter01.sol\":9112:9194  IWETH(WETH).transfer(ExzoneLibrary.pairFor(factory, path[0], path[1]), amounts[0]) */\n      pop\n      pop\n      pop\n      pop\n      mload(0x40)\n      returndatasize\n        /* \"--CODEGEN--\":15:17   */\n      0x20\n        /* \"--CODEGEN--\":10:13   */\n      dup2\n        /* \"--CODEGEN--\":7:18   */\n      lt\n        /* \"--CODEGEN--\":4:6   */\n      iszero\n      tag_250\n      jumpi\n        /* \"--CODEGEN--\":31:32   */\n      0x00\n        /* \"--CODEGEN--\":28:29   */\n      dup1\n        /* \"--CODEGEN--\":21:33   */\n      revert\n        /* \"--CODEGEN--\":4:6   */\n    tag_250:\n        /* \"projects/exchange-protocol/contracts/ExzoneRouter01.sol\":9112:9194  IWETH(WETH).transfer(ExzoneLibrary.pairFor(factory, path[0], path[1]), amounts[0]) */\n      dup2\n      add\n      swap1\n      dup1\n      dup1\n      mload\n      swap1\n      0x20\n      add\n      swap1\n      swap3\n      swap2\n      swap1\n      pop\n      pop\n      pop\n        /* \"projects/exchange-protocol/contracts/ExzoneRouter01.sol\":9105:9195  assert(IWETH(WETH).transfer(ExzoneLibrary.pairFor(factory, path[0], path[1]), amounts[0])) */\n      tag_251\n      jumpi\n      invalid\n    tag_251:\n        /* \"projects/exchange-protocol/contracts/ExzoneRouter01.sol\":9205:9229  _swap(amounts, path, to) */\n      tag_252\n        /* \"projects/exchange-protocol/contracts/ExzoneRouter01.sol\":9211:9218  amounts */\n      dup3\n        /* \"projects/exchange-protocol/contracts/ExzoneRouter01.sol\":9220:9224  path */\n      dup8\n      dup8\n        /* \"projects/exchange-protocol/contracts/ExzoneRouter01.sol\":9205:9229  _swap(amounts, path, to) */\n      dup1\n      dup1\n      0x20\n      mul\n      0x20\n      add\n      mload(0x40)\n      swap1\n      dup2\n      add\n      0x40\n      mstore\n      dup1\n      swap4\n      swap3\n      swap2\n      swap1\n      dup2\n      dup2\n      mstore\n      0x20\n      add\n      dup4\n      dup4\n      0x20\n      mul\n        /* \"--CODEGEN--\":30:33   */\n      dup1\n        /* \"--CODEGEN--\":22:28   */\n      dup3\n        /* \"--CODEGEN--\":14:20   */\n      dup5\n        /* \"--CODEGEN--\":1:34   */\n      calldatacopy\n        /* \"--CODEGEN--\":99:100   */\n      0x00\n        /* \"--CODEGEN--\":93:96   */\n      dup2\n        /* \"--CODEGEN--\":85:91   */\n      dup5\n        /* \"--CODEGEN--\":81:97   */\n      add\n        /* \"--CODEGEN--\":74:101   */\n      mstore\n        /* \"--CODEGEN--\":137:141   */\n      0x1f\n        /* \"--CODEGEN--\":133:142   */\n      not\n        /* \"--CODEGEN--\":126:130   */\n      0x1f\n        /* \"--CODEGEN--\":121:124   */\n      dup3\n        /* \"--CODEGEN--\":117:131   */\n      add\n        /* \"--CODEGEN--\":113:143   */\n      and\n        /* \"--CODEGEN--\":106:143   */\n      swap1\n      pop\n        /* \"--CODEGEN--\":169:172   */\n      dup1\n        /* \"--CODEGEN--\":161:167   */\n      dup4\n        /* \"--CODEGEN--\":157:173   */\n      add\n        /* \"--CODEGEN--\":147:173   */\n      swap3\n      pop\n        /* \"projects/exchange-protocol/contracts/ExzoneRouter01.sol\":9205:9229  _swap(amounts, path, to) */\n      pop\n      pop\n      pop\n      pop\n      pop\n      pop\n        /* \"projects/exchange-protocol/contracts/ExzoneRouter01.sol\":9226:9228  to */\n      dup7\n        /* \"projects/exchange-protocol/contracts/ExzoneRouter01.sol\":9205:9210  _swap */\n      tag_179\n        /* \"projects/exchange-protocol/contracts/ExzoneRouter01.sol\":9205:9229  _swap(amounts, path, to) */\n      jump\t// in\n    tag_252:\n        /* \"projects/exchange-protocol/contracts/ExzoneRouter01.sol\":8581:9236  function swapExactETHForTokens(uint amountOutMin, address[] calldata path, address to, uint deadline)... */\n      pop\n      swap6\n      swap5\n      pop\n      pop\n      pop\n      pop\n      pop\n      jump\t// out\n        /* \"projects/exchange-protocol/contracts/ExzoneRouter01.sol\":11947:12146  function getAmountIn(uint amountOut, uint reserveIn, uint reserveOut) public pure override returns (uint amountIn) {... */\n    tag_92:\n        /* \"projects/exchange-protocol/contracts/ExzoneRouter01.sol\":12047:12060  uint amountIn */\n      0x00\n        /* \"projects/exchange-protocol/contracts/ExzoneRouter01.sol\":12079:12139  ExzoneLibrary.getAmountOut(amountOut, reserveIn, reserveOut) */\n      tag_254\n        /* \"projects/exchange-protocol/contracts/ExzoneRouter01.sol\":12106:12115  amountOut */\n      dup5\n        /* \"projects/exchange-protocol/contracts/ExzoneRouter01.sol\":12117:12126  reserveIn */\n      dup5\n        /* \"projects/exchange-protocol/contracts/ExzoneRouter01.sol\":12128:12138  reserveOut */\n      dup5\n        /* \"projects/exchange-protocol/contracts/ExzoneRouter01.sol\":12079:12105  ExzoneLibrary.getAmountOut */\n      tag_160\n        /* \"projects/exchange-protocol/contracts/ExzoneRouter01.sol\":12079:12139  ExzoneLibrary.getAmountOut(amountOut, reserveIn, reserveOut) */\n      jump\t// in\n    tag_254:\n        /* \"projects/exchange-protocol/contracts/ExzoneRouter01.sol\":12072:12139  return ExzoneLibrary.getAmountOut(amountOut, reserveIn, reserveOut) */\n      swap1\n      pop\n        /* \"projects/exchange-protocol/contracts/ExzoneRouter01.sol\":11947:12146  function getAmountIn(uint amountOut, uint reserveIn, uint reserveOut) public pure override returns (uint amountIn) {... */\n      swap4\n      swap3\n      pop\n      pop\n      pop\n      jump\t// out\n        /* \"projects/exchange-protocol/contracts/ExzoneRouter01.sol\":8022:8576  function swapTokensForExactTokens(... */\n    tag_99:\n        /* \"projects/exchange-protocol/contracts/ExzoneRouter01.sol\":8232:8253  uint[] memory amounts */\n      0x60\n        /* \"projects/exchange-protocol/contracts/ExzoneRouter01.sol\":8213:8221  deadline */\n      dup2\n        /* \"projects/exchange-protocol/contracts/ExzoneRouter01.sol\":519:534  block.timestamp */\n      timestamp\n        /* \"projects/exchange-protocol/contracts/ExzoneRouter01.sol\":507:515  deadline */\n      dup2\n        /* \"projects/exchange-protocol/contracts/ExzoneRouter01.sol\":507:534  deadline >= block.timestamp */\n      lt\n      iszero\n        /* \"projects/exchange-protocol/contracts/ExzoneRouter01.sol\":499:560  require(deadline >= block.timestamp, 'ExzoneRouter: EXPIRED') */\n      tag_256\n      jumpi\n      mload(0x40)\n      0x08c379a000000000000000000000000000000000000000000000000000000000\n      dup2\n      mstore\n      0x04\n      add\n      dup1\n      dup1\n      0x20\n      add\n      dup3\n      dup2\n      sub\n      dup3\n      mstore\n      0x15\n      dup2\n      mstore\n      0x20\n      add\n      dup1\n      0x45787a6f6e65526f757465723a20455850495245440000000000000000000000\n      dup2\n      mstore\n      pop\n      0x20\n      add\n      swap2\n      pop\n      pop\n      mload(0x40)\n      dup1\n      swap2\n      sub\n      swap1\n      revert\n    tag_256:\n        /* \"projects/exchange-protocol/contracts/ExzoneRouter01.sol\":8275:8327  ExzoneLibrary.getAmountsIn(factory, amountOut, path) */\n      tag_258\n        /* \"projects/exchange-protocol/contracts/ExzoneRouter01.sol\":8302:8309  factory */\n      immutable(\"0x5bcd163b2238ff85648d293e01a327b5c7f9ae69498a752a4883e839ddddafcb\")\n        /* \"projects/exchange-protocol/contracts/ExzoneRouter01.sol\":8311:8320  amountOut */\n      dup10\n        /* \"projects/exchange-protocol/contracts/ExzoneRouter01.sol\":8322:8326  path */\n      dup9\n      dup9\n        /* \"projects/exchange-protocol/contracts/ExzoneRouter01.sol\":8275:8327  ExzoneLibrary.getAmountsIn(factory, amountOut, path) */\n      dup1\n      dup1\n      0x20\n      mul\n      0x20\n      add\n      mload(0x40)\n      swap1\n      dup2\n      add\n      0x40\n      mstore\n      dup1\n      swap4\n      swap3\n      swap2\n      swap1\n      dup2\n      dup2\n      mstore\n      0x20\n      add\n      dup4\n      dup4\n      0x20\n      mul\n        /* \"--CODEGEN--\":30:33   */\n      dup1\n        /* \"--CODEGEN--\":22:28   */\n      dup3\n        /* \"--CODEGEN--\":14:20   */\n      dup5\n        /* \"--CODEGEN--\":1:34   */\n      calldatacopy\n        /* \"--CODEGEN--\":99:100   */\n      0x00\n        /* \"--CODEGEN--\":93:96   */\n      dup2\n        /* \"--CODEGEN--\":85:91   */\n      dup5\n        /* \"--CODEGEN--\":81:97   */\n      add\n        /* \"--CODEGEN--\":74:101   */\n      mstore\n        /* \"--CODEGEN--\":137:141   */\n      0x1f\n        /* \"--CODEGEN--\":133:142   */\n      not\n        /* \"--CODEGEN--\":126:130   */\n      0x1f\n        /* \"--CODEGEN--\":121:124   */\n      dup3\n        /* \"--CODEGEN--\":117:131   */\n      add\n        /* \"--CODEGEN--\":113:143   */\n      and\n        /* \"--CODEGEN--\":106:143   */\n      swap1\n      pop\n        /* \"--CODEGEN--\":169:172   */\n      dup1\n        /* \"--CODEGEN--\":161:167   */\n      dup4\n        /* \"--CODEGEN--\":157:173   */\n      add\n        /* \"--CODEGEN--\":147:173   */\n      swap3\n      pop\n        /* \"projects/exchange-protocol/contracts/ExzoneRouter01.sol\":8275:8327  ExzoneLibrary.getAmountsIn(factory, amountOut, path) */\n      pop\n      pop\n      pop\n      pop\n      pop\n      pop\n        /* \"projects/exchange-protocol/contracts/ExzoneRouter01.sol\":8275:8301  ExzoneLibrary.getAmountsIn */\n      tag_188\n        /* \"projects/exchange-protocol/contracts/ExzoneRouter01.sol\":8275:8327  ExzoneLibrary.getAmountsIn(factory, amountOut, path) */\n      jump\t// in\n    tag_258:\n        /* \"projects/exchange-protocol/contracts/ExzoneRouter01.sol\":8265:8327  amounts = ExzoneLibrary.getAmountsIn(factory, amountOut, path) */\n      swap2\n      pop\n        /* \"projects/exchange-protocol/contracts/ExzoneRouter01.sol\":8359:8370  amountInMax */\n      dup7\n        /* \"projects/exchange-protocol/contracts/ExzoneRouter01.sol\":8345:8352  amounts */\n      dup3\n        /* \"projects/exchange-protocol/contracts/ExzoneRouter01.sol\":8353:8354  0 */\n      0x00\n        /* \"projects/exchange-protocol/contracts/ExzoneRouter01.sol\":8345:8355  amounts[0] */\n      dup2\n      mload\n      dup2\n      lt\n      tag_259\n      jumpi\n      invalid\n    tag_259:\n      0x20\n      mul\n      0x20\n      add\n      add\n      mload\n        /* \"projects/exchange-protocol/contracts/ExzoneRouter01.sol\":8345:8370  amounts[0] <= amountInMax */\n      gt\n      iszero\n        /* \"projects/exchange-protocol/contracts/ExzoneRouter01.sol\":8337:8411  require(amounts[0] <= amountInMax, 'ExzoneRouter: EXCESSIVE_INPUT_AMOUNT') */\n      tag_260\n      jumpi\n      mload(0x40)\n      0x08c379a000000000000000000000000000000000000000000000000000000000\n      dup2\n      mstore\n      0x04\n      add\n      dup1\n      dup1\n      0x20\n      add\n      dup3\n      dup2\n      sub\n      dup3\n      mstore\n      0x24\n      dup2\n      mstore\n      0x20\n      add\n      dup1\n      data_07947ce221cad6bb17467d2617ba69ad7eed4ff1cb624d0355f752f6e2c62544\n      0x24\n      swap2\n      codecopy\n      0x40\n      add\n      swap2\n      pop\n      pop\n      mload(0x40)\n      dup1\n      swap2\n      sub\n      swap1\n      revert\n    tag_260:\n        /* \"projects/exchange-protocol/contracts/ExzoneRouter01.sol\":8421:8535  TransferHelper.safeTransferFrom(path[0], msg.sender, ExzoneLibrary.pairFor(factory, path[0], path[1]), amounts[0]) */\n      tag_261\n        /* \"projects/exchange-protocol/contracts/ExzoneRouter01.sol\":8453:8457  path */\n      dup7\n      dup7\n        /* \"projects/exchange-protocol/contracts/ExzoneRouter01.sol\":8458:8459  0 */\n      0x00\n        /* \"projects/exchange-protocol/contracts/ExzoneRouter01.sol\":8453:8460  path[0] */\n      dup2\n      dup2\n      lt\n      tag_262\n      jumpi\n      invalid\n    tag_262:\n      swap1\n      pop\n      0x20\n      mul\n      add\n      calldataload\n      0xffffffffffffffffffffffffffffffffffffffff\n      and\n        /* \"projects/exchange-protocol/contracts/ExzoneRouter01.sol\":8462:8472  msg.sender */\n      caller\n        /* \"projects/exchange-protocol/contracts/ExzoneRouter01.sol\":8474:8522  ExzoneLibrary.pairFor(factory, path[0], path[1]) */\n      tag_263\n        /* \"projects/exchange-protocol/contracts/ExzoneRouter01.sol\":8496:8503  factory */\n      immutable(\"0x5bcd163b2238ff85648d293e01a327b5c7f9ae69498a752a4883e839ddddafcb\")\n        /* \"projects/exchange-protocol/contracts/ExzoneRouter01.sol\":8505:8509  path */\n      dup11\n      dup11\n        /* \"projects/exchange-protocol/contracts/ExzoneRouter01.sol\":8510:8511  0 */\n      0x00\n        /* \"projects/exchange-protocol/contracts/ExzoneRouter01.sol\":8505:8512  path[0] */\n      dup2\n      dup2\n      lt\n      tag_264\n      jumpi\n      invalid\n    tag_264:\n      swap1\n      pop\n      0x20\n      mul\n      add\n      calldataload\n      0xffffffffffffffffffffffffffffffffffffffff\n      and\n        /* \"projects/exchange-protocol/contracts/ExzoneRouter01.sol\":8514:8518  path */\n      dup12\n      dup12\n        /* \"projects/exchange-protocol/contracts/ExzoneRouter01.sol\":8519:8520  1 */\n      0x01\n        /* \"projects/exchange-protocol/contracts/ExzoneRouter01.sol\":8514:8521  path[1] */\n      dup2\n      dup2\n      lt\n      tag_265\n      jumpi\n      invalid\n    tag_265:\n      swap1\n      pop\n      0x20\n      mul\n      add\n      calldataload\n      0xffffffffffffffffffffffffffffffffffffffff\n      and\n        /* \"projects/exchange-protocol/contracts/ExzoneRouter01.sol\":8474:8495  ExzoneLibrary.pairFor */\n      tag_175\n        /* \"projects/exchange-protocol/contracts/ExzoneRouter01.sol\":8474:8522  ExzoneLibrary.pairFor(factory, path[0], path[1]) */\n      jump\t// in\n    tag_263:\n        /* \"projects/exchange-protocol/contracts/ExzoneRouter01.sol\":8524:8531  amounts */\n      dup6\n        /* \"projects/exchange-protocol/contracts/ExzoneRouter01.sol\":8532:8533  0 */\n      0x00\n        /* \"projects/exchange-protocol/contracts/ExzoneRouter01.sol\":8524:8534  amounts[0] */\n      dup2\n      mload\n      dup2\n      lt\n      tag_266\n      jumpi\n      invalid\n    tag_266:\n      0x20\n      mul\n      0x20\n      add\n      add\n      mload\n        /* \"projects/exchange-protocol/contracts/ExzoneRouter01.sol\":8421:8452  TransferHelper.safeTransferFrom */\n      tag_177\n        /* \"projects/exchange-protocol/contracts/ExzoneRouter01.sol\":8421:8535  TransferHelper.safeTransferFrom(path[0], msg.sender, ExzoneLibrary.pairFor(factory, path[0], path[1]), amounts[0]) */\n      jump\t// in\n    tag_261:\n        /* \"projects/exchange-protocol/contracts/ExzoneRouter01.sol\":8545:8569  _swap(amounts, path, to) */\n      tag_267\n        /* \"projects/exchange-protocol/contracts/ExzoneRouter01.sol\":8551:8558  amounts */\n      dup3\n        /* \"projects/exchange-protocol/contracts/ExzoneRouter01.sol\":8560:8564  path */\n      dup8\n      dup8\n        /* \"projects/exchange-protocol/contracts/ExzoneRouter01.sol\":8545:8569  _swap(amounts, path, to) */\n      dup1\n      dup1\n      0x20\n      mul\n      0x20\n      add\n      mload(0x40)\n      swap1\n      dup2\n      add\n      0x40\n      mstore\n      dup1\n      swap4\n      swap3\n      swap2\n      swap1\n      dup2\n      dup2\n      mstore\n      0x20\n      add\n      dup4\n      dup4\n      0x20\n      mul\n        /* \"--CODEGEN--\":30:33   */\n      dup1\n        /* \"--CODEGEN--\":22:28   */\n      dup3\n        /* \"--CODEGEN--\":14:20   */\n      dup5\n        /* \"--CODEGEN--\":1:34   */\n      calldatacopy\n        /* \"--CODEGEN--\":99:100   */\n      0x00\n        /* \"--CODEGEN--\":93:96   */\n      dup2\n        /* \"--CODEGEN--\":85:91   */\n      dup5\n        /* \"--CODEGEN--\":81:97   */\n      add\n        /* \"--CODEGEN--\":74:101   */\n      mstore\n        /* \"--CODEGEN--\":137:141   */\n      0x1f\n        /* \"--CODEGEN--\":133:142   */\n      not\n        /* \"--CODEGEN--\":126:130   */\n      0x1f\n        /* \"--CODEGEN--\":121:124   */\n      dup3\n        /* \"--CODEGEN--\":117:131   */\n      add\n        /* \"--CODEGEN--\":113:143   */\n      and\n        /* \"--CODEGEN--\":106:143   */\n      swap1\n      pop\n        /* \"--CODEGEN--\":169:172   */\n      dup1\n        /* \"--CODEGEN--\":161:167   */\n      dup4\n        /* \"--CODEGEN--\":157:173   */\n      add\n        /* \"--CODEGEN--\":147:173   */\n      swap3\n      pop\n        /* \"projects/exchange-protocol/contracts/ExzoneRouter01.sol\":8545:8569  _swap(amounts, path, to) */\n      pop\n      pop\n      pop\n      pop\n      pop\n      pop\n        /* \"projects/exchange-protocol/contracts/ExzoneRouter01.sol\":8566:8568  to */\n      dup7\n        /* \"projects/exchange-protocol/contracts/ExzoneRouter01.sol\":8545:8550  _swap */\n      tag_179\n        /* \"projects/exchange-protocol/contracts/ExzoneRouter01.sol\":8545:8569  _swap(amounts, path, to) */\n      jump\t// in\n    tag_267:\n        /* \"projects/exchange-protocol/contracts/ExzoneRouter01.sol\":8022:8576  function swapTokensForExactTokens(... */\n      pop\n      swap7\n      swap6\n      pop\n      pop\n      pop\n      pop\n      pop\n      pop\n      jump\t// out\n        /* \"projects/exchange-protocol/contracts/ExzoneRouter01.sol\":413:451  address public immutable override WETH */\n    tag_105:\n      immutable(\"0x9abd569a0444be7ce52d46a7fb79009940c0c0442116f15017290ff13cb4450c\")\n      dup2\n      jump\t// out\n        /* \"projects/exchange-protocol/contracts/ExzoneRouter01.sol\":11561:11736  function quote(uint amountA, uint reserveA, uint reserveB) public pure override returns (uint amountB) {... */\n    tag_109:\n        /* \"projects/exchange-protocol/contracts/ExzoneRouter01.sol\":11650:11662  uint amountB */\n      0x00\n        /* \"projects/exchange-protocol/contracts/ExzoneRouter01.sol\":11681:11729  ExzoneLibrary.quote(amountA, reserveA, reserveB) */\n      tag_269\n        /* \"projects/exchange-protocol/contracts/ExzoneRouter01.sol\":11701:11708  amountA */\n      dup5\n        /* \"projects/exchange-protocol/contracts/ExzoneRouter01.sol\":11710:11718  reserveA */\n      dup5\n        /* \"projects/exchange-protocol/contracts/ExzoneRouter01.sol\":11720:11728  reserveB */\n      dup5\n        /* \"projects/exchange-protocol/contracts/ExzoneRouter01.sol\":11681:11700  ExzoneLibrary.quote */\n      tag_270\n        /* \"projects/exchange-protocol/contracts/ExzoneRouter01.sol\":11681:11729  ExzoneLibrary.quote(amountA, reserveA, reserveB) */\n      jump\t// in\n    tag_269:\n        /* \"projects/exchange-protocol/contracts/ExzoneRouter01.sol\":11674:11729  return ExzoneLibrary.quote(amountA, reserveA, reserveB) */\n      swap1\n      pop\n        /* \"projects/exchange-protocol/contracts/ExzoneRouter01.sol\":11561:11736  function quote(uint amountA, uint reserveA, uint reserveB) public pure override returns (uint amountB) {... */\n      swap4\n      swap3\n      pop\n      pop\n      pop\n      jump\t// out\n        /* \"projects/exchange-protocol/contracts/ExzoneRouter01.sol\":3882:4705  function removeLiquidity(... */\n    tag_113:\n        /* \"projects/exchange-protocol/contracts/ExzoneRouter01.sol\":4120:4132  uint amountA */\n      0x00\n        /* \"projects/exchange-protocol/contracts/ExzoneRouter01.sol\":4134:4146  uint amountB */\n      dup1\n        /* \"projects/exchange-protocol/contracts/ExzoneRouter01.sol\":4101:4109  deadline */\n      dup3\n        /* \"projects/exchange-protocol/contracts/ExzoneRouter01.sol\":519:534  block.timestamp */\n      timestamp\n        /* \"projects/exchange-protocol/contracts/ExzoneRouter01.sol\":507:515  deadline */\n      dup2\n        /* \"projects/exchange-protocol/contracts/ExzoneRouter01.sol\":507:534  deadline >= block.timestamp */\n      lt\n      iszero\n        /* \"projects/exchange-protocol/contracts/ExzoneRouter01.sol\":499:560  require(deadline >= block.timestamp, 'ExzoneRouter: EXPIRED') */\n      tag_272\n      jumpi\n      mload(0x40)\n      0x08c379a000000000000000000000000000000000000000000000000000000000\n      dup2\n      mstore\n      0x04\n      add\n      dup1\n      dup1\n      0x20\n      add\n      dup3\n      dup2\n      sub\n      dup3\n      mstore\n      0x15\n      dup2\n      mstore\n      0x20\n      add\n      dup1\n      0x45787a6f6e65526f757465723a20455850495245440000000000000000000000\n      dup2\n      mstore\n      pop\n      0x20\n      add\n      swap2\n      pop\n      pop\n      mload(0x40)\n      dup1\n      swap2\n      sub\n      swap1\n      revert\n    tag_272:\n        /* \"projects/exchange-protocol/contracts/ExzoneRouter01.sol\":4158:4170  address pair */\n      0x00\n        /* \"projects/exchange-protocol/contracts/ExzoneRouter01.sol\":4173:4219  ExzoneLibrary.pairFor(factory, tokenA, tokenB) */\n      tag_274\n        /* \"projects/exchange-protocol/contracts/ExzoneRouter01.sol\":4195:4202  factory */\n      immutable(\"0x5bcd163b2238ff85648d293e01a327b5c7f9ae69498a752a4883e839ddddafcb\")\n        /* \"projects/exchange-protocol/contracts/ExzoneRouter01.sol\":4204:4210  tokenA */\n      dup13\n        /* \"projects/exchange-protocol/contracts/ExzoneRouter01.sol\":4212:4218  tokenB */\n      dup13\n        /* \"projects/exchange-protocol/contracts/ExzoneRouter01.sol\":4173:4194  ExzoneLibrary.pairFor */\n      tag_175\n        /* \"projects/exchange-protocol/contracts/ExzoneRouter01.sol\":4173:4219  ExzoneLibrary.pairFor(factory, tokenA, tokenB) */\n      jump\t// in\n    tag_274:\n        /* \"projects/exchange-protocol/contracts/ExzoneRouter01.sol\":4158:4219  address pair = ExzoneLibrary.pairFor(factory, tokenA, tokenB) */\n      swap1\n      pop\n        /* \"projects/exchange-protocol/contracts/ExzoneRouter01.sol\":4241:4245  pair */\n      dup1\n        /* \"projects/exchange-protocol/contracts/ExzoneRouter01.sol\":4229:4259  IExzonePair(pair).transferFrom */\n      0xffffffffffffffffffffffffffffffffffffffff\n      and\n      0x23b872dd\n        /* \"projects/exchange-protocol/contracts/ExzoneRouter01.sol\":4260:4270  msg.sender */\n      caller\n        /* \"projects/exchange-protocol/contracts/ExzoneRouter01.sol\":4272:4276  pair */\n      dup4\n        /* \"projects/exchange-protocol/contracts/ExzoneRouter01.sol\":4278:4287  liquidity */\n      dup13\n        /* \"projects/exchange-protocol/contracts/ExzoneRouter01.sol\":4229:4288  IExzonePair(pair).transferFrom(msg.sender, pair, liquidity) */\n      mload(0x40)\n      dup5\n      0xffffffff\n      and\n      0xe0\n      shl\n      dup2\n      mstore\n      0x04\n      add\n      dup1\n      dup5\n      0xffffffffffffffffffffffffffffffffffffffff\n      and\n      0xffffffffffffffffffffffffffffffffffffffff\n      and\n      dup2\n      mstore\n      0x20\n      add\n      dup4\n      0xffffffffffffffffffffffffffffffffffffffff\n      and\n      0xffffffffffffffffffffffffffffffffffffffff\n      and\n      dup2\n      mstore\n      0x20\n      add\n      dup3\n      dup2\n      mstore\n      0x20\n      add\n      swap4\n      pop\n      pop\n      pop\n      pop\n      0x20\n      mload(0x40)\n      dup1\n      dup4\n      sub\n      dup2\n      0x00\n      dup8\n      dup1\n      extcodesize\n      iszero\n        /* \"--CODEGEN--\":5:14   */\n      dup1\n        /* \"--CODEGEN--\":2:4   */\n      iszero\n      tag_275\n      jumpi\n        /* \"--CODEGEN--\":27:28   */\n      0x00\n        /* \"--CODEGEN--\":24:25   */\n      dup1\n        /* \"--CODEGEN--\":17:29   */\n      revert\n        /* \"--CODEGEN--\":2:4   */\n    tag_275:\n        /* \"projects/exchange-protocol/contracts/ExzoneRouter01.sol\":4229:4288  IExzonePair(pair).transferFrom(msg.sender, pair, liquidity) */\n      pop\n      gas\n      call\n      iszero\n        /* \"--CODEGEN--\":8:17   */\n      dup1\n        /* \"--CODEGEN--\":5:7   */\n      iszero\n      tag_277\n      jumpi\n        /* \"--CODEGEN--\":45:61   */\n      returndatasize\n        /* \"--CODEGEN--\":42:43   */\n      0x00\n        /* \"--CODEGEN--\":39:40   */\n      dup1\n        /* \"--CODEGEN--\":24:62   */\n      returndatacopy\n        /* \"--CODEGEN--\":77:93   */\n      returndatasize\n        /* \"--CODEGEN--\":74:75   */\n      0x00\n        /* \"--CODEGEN--\":67:94   */\n      revert\n        /* \"--CODEGEN--\":5:7   */\n    tag_277:\n        /* \"projects/exchange-protocol/contracts/ExzoneRouter01.sol\":4229:4288  IExzonePair(pair).transferFrom(msg.sender, pair, liquidity) */\n      pop\n      pop\n      pop\n      pop\n      mload(0x40)\n      returndatasize\n        /* \"--CODEGEN--\":15:17   */\n      0x20\n        /* \"--CODEGEN--\":10:13   */\n      dup2\n        /* \"--CODEGEN--\":7:18   */\n      lt\n        /* \"--CODEGEN--\":4:6   */\n      iszero\n      tag_278\n      jumpi\n        /* \"--CODEGEN--\":31:32   */\n      0x00\n        /* \"--CODEGEN--\":28:29   */\n      dup1\n        /* \"--CODEGEN--\":21:33   */\n      revert\n        /* \"--CODEGEN--\":4:6   */\n    tag_278:\n        /* \"projects/exchange-protocol/contracts/ExzoneRouter01.sol\":4229:4288  IExzonePair(pair).transferFrom(msg.sender, pair, liquidity) */\n      dup2\n      add\n      swap1\n      dup1\n      dup1\n      mload\n      swap1\n      0x20\n      add\n      swap1\n      swap3\n      swap2\n      swap1\n      pop\n      pop\n      pop\n      pop\n        /* \"projects/exchange-protocol/contracts/ExzoneRouter01.sol\":4325:4337  uint amount0 */\n      0x00\n        /* \"projects/exchange-protocol/contracts/ExzoneRouter01.sol\":4339:4351  uint amount1 */\n      dup1\n        /* \"projects/exchange-protocol/contracts/ExzoneRouter01.sol\":4367:4371  pair */\n      dup3\n        /* \"projects/exchange-protocol/contracts/ExzoneRouter01.sol\":4355:4377  IExzonePair(pair).burn */\n      0xffffffffffffffffffffffffffffffffffffffff\n      and\n      0x89afcb44\n        /* \"projects/exchange-protocol/contracts/ExzoneRouter01.sol\":4378:4380  to */\n      dup10\n        /* \"projects/exchange-protocol/contracts/ExzoneRouter01.sol\":4355:4381  IExzonePair(pair).burn(to) */\n      mload(0x40)\n      dup3\n      0xffffffff\n      and\n      0xe0\n      shl\n      dup2\n      mstore\n      0x04\n      add\n      dup1\n      dup3\n      0xffffffffffffffffffffffffffffffffffffffff\n      and\n      0xffffffffffffffffffffffffffffffffffffffff\n      and\n      dup2\n      mstore\n      0x20\n      add\n      swap2\n      pop\n      pop\n      0x40\n      dup1\n      mload\n      dup1\n      dup4\n      sub\n      dup2\n      0x00\n      dup8\n      dup1\n      extcodesize\n      iszero\n        /* \"--CODEGEN--\":5:14   */\n      dup1\n        /* \"--CODEGEN--\":2:4   */\n      iszero\n      tag_279\n      jumpi\n        /* \"--CODEGEN--\":27:28   */\n      0x00\n        /* \"--CODEGEN--\":24:25   */\n      dup1\n        /* \"--CODEGEN--\":17:29   */\n      revert\n        /* \"--CODEGEN--\":2:4   */\n    tag_279:\n        /* \"projects/exchange-protocol/contracts/ExzoneRouter01.sol\":4355:4381  IExzonePair(pair).burn(to) */\n      pop\n      gas\n      call\n      iszero\n        /* \"--CODEGEN--\":8:17   */\n      dup1\n        /* \"--CODEGEN--\":5:7   */\n      iszero\n      tag_281\n      jumpi\n        /* \"--CODEGEN--\":45:61   */\n      returndatasize\n        /* \"--CODEGEN--\":42:43   */\n      0x00\n        /* \"--CODEGEN--\":39:40   */\n      dup1\n        /* \"--CODEGEN--\":24:62   */\n      returndatacopy\n        /* \"--CODEGEN--\":77:93   */\n      returndatasize\n        /* \"--CODEGEN--\":74:75   */\n      0x00\n        /* \"--CODEGEN--\":67:94   */\n      revert\n        /* \"--CODEGEN--\":5:7   */\n    tag_281:\n        /* \"projects/exchange-protocol/contracts/ExzoneRouter01.sol\":4355:4381  IExzonePair(pair).burn(to) */\n      pop\n      pop\n      pop\n      pop\n      mload(0x40)\n      returndatasize\n        /* \"--CODEGEN--\":15:17   */\n      0x40\n        /* \"--CODEGEN--\":10:13   */\n      dup2\n        /* \"--CODEGEN--\":7:18   */\n      lt\n        /* \"--CODEGEN--\":4:6   */\n      iszero\n      tag_282\n      jumpi\n        /* \"--CODEGEN--\":31:32   */\n      0x00\n        /* \"--CODEGEN--\":28:29   */\n      dup1\n        /* \"--CODEGEN--\":21:33   */\n      revert\n        /* \"--CODEGEN--\":4:6   */\n    tag_282:\n        /* \"projects/exchange-protocol/contracts/ExzoneRouter01.sol\":4355:4381  IExzonePair(pair).burn(to) */\n      dup2\n      add\n      swap1\n      dup1\n      dup1\n      mload\n      swap1\n      0x20\n      add\n      swap1\n      swap3\n      swap2\n      swap1\n      dup1\n      mload\n      swap1\n      0x20\n      add\n      swap1\n      swap3\n      swap2\n      swap1\n      pop\n      pop\n      pop\n        /* \"projects/exchange-protocol/contracts/ExzoneRouter01.sol\":4324:4381  (uint amount0, uint amount1) = IExzonePair(pair).burn(to) */\n      swap2\n      pop\n      swap2\n      pop\n        /* \"projects/exchange-protocol/contracts/ExzoneRouter01.sol\":4392:4406  address token0 */\n      0x00\n        /* \"projects/exchange-protocol/contracts/ExzoneRouter01.sol\":4411:4451  ExzoneLibrary.sortTokens(tokenA, tokenB) */\n      tag_283\n        /* \"projects/exchange-protocol/contracts/ExzoneRouter01.sol\":4436:4442  tokenA */\n      dup15\n        /* \"projects/exchange-protocol/contracts/ExzoneRouter01.sol\":4444:4450  tokenB */\n      dup15\n        /* \"projects/exchange-protocol/contracts/ExzoneRouter01.sol\":4411:4435  ExzoneLibrary.sortTokens */\n      tag_284\n        /* \"projects/exchange-protocol/contracts/ExzoneRouter01.sol\":4411:4451  ExzoneLibrary.sortTokens(tokenA, tokenB) */\n      jump\t// in\n    tag_283:\n        /* \"projects/exchange-protocol/contracts/ExzoneRouter01.sol\":4391:4451  (address token0,) = ExzoneLibrary.sortTokens(tokenA, tokenB) */\n      pop\n      swap1\n      pop\n        /* \"projects/exchange-protocol/contracts/ExzoneRouter01.sol\":4492:4498  token0 */\n      dup1\n        /* \"projects/exchange-protocol/contracts/ExzoneRouter01.sol\":4482:4498  tokenA == token0 */\n      0xffffffffffffffffffffffffffffffffffffffff\n      and\n        /* \"projects/exchange-protocol/contracts/ExzoneRouter01.sol\":4482:4488  tokenA */\n      dup15\n        /* \"projects/exchange-protocol/contracts/ExzoneRouter01.sol\":4482:4498  tokenA == token0 */\n      0xffffffffffffffffffffffffffffffffffffffff\n      and\n      eq\n        /* \"projects/exchange-protocol/contracts/ExzoneRouter01.sol\":4482:4540  tokenA == token0 ? (amount0, amount1) : (amount1, amount0) */\n      tag_285\n      jumpi\n        /* \"projects/exchange-protocol/contracts/ExzoneRouter01.sol\":4523:4530  amount1 */\n      dup2\n        /* \"projects/exchange-protocol/contracts/ExzoneRouter01.sol\":4532:4539  amount0 */\n      dup4\n        /* \"projects/exchange-protocol/contracts/ExzoneRouter01.sol\":4482:4540  tokenA == token0 ? (amount0, amount1) : (amount1, amount0) */\n      jump(tag_286)\n    tag_285:\n        /* \"projects/exchange-protocol/contracts/ExzoneRouter01.sol\":4502:4509  amount0 */\n      dup3\n        /* \"projects/exchange-protocol/contracts/ExzoneRouter01.sol\":4511:4518  amount1 */\n      dup3\n        /* \"projects/exchange-protocol/contracts/ExzoneRouter01.sol\":4482:4540  tokenA == token0 ? (amount0, amount1) : (amount1, amount0) */\n    tag_286:\n        /* \"projects/exchange-protocol/contracts/ExzoneRouter01.sol\":4461:4540  (amountA, amountB) = tokenA == token0 ? (amount0, amount1) : (amount1, amount0) */\n      dup1\n      swap8\n      pop\n      dup2\n      swap9\n      pop\n      pop\n      pop\n        /* \"projects/exchange-protocol/contracts/ExzoneRouter01.sol\":4569:4579  amountAMin */\n      dup11\n        /* \"projects/exchange-protocol/contracts/ExzoneRouter01.sol\":4558:4565  amountA */\n      dup8\n        /* \"projects/exchange-protocol/contracts/ExzoneRouter01.sol\":4558:4579  amountA >= amountAMin */\n      lt\n      iszero\n        /* \"projects/exchange-protocol/contracts/ExzoneRouter01.sol\":4550:4619  require(amountA >= amountAMin, 'ExzoneRouter: INSUFFICIENT_A_AMOUNT') */\n      tag_287\n      jumpi\n      mload(0x40)\n      0x08c379a000000000000000000000000000000000000000000000000000000000\n      dup2\n      mstore\n      0x04\n      add\n      dup1\n      dup1\n      0x20\n      add\n      dup3\n      dup2\n      sub\n      dup3\n      mstore\n      0x23\n      dup2\n      mstore\n      0x20\n      add\n      dup1\n      data_2693a6d23ffca94cffaa2a99ada1589510487dac2be52ef9529c44cff84d1b1c\n      0x23\n      swap2\n      codecopy\n      0x40\n      add\n      swap2\n      pop\n      pop\n      mload(0x40)\n      dup1\n      swap2\n      sub\n      swap1\n      revert\n    tag_287:\n        /* \"projects/exchange-protocol/contracts/ExzoneRouter01.sol\":4648:4658  amountBMin */\n      dup10\n        /* \"projects/exchange-protocol/contracts/ExzoneRouter01.sol\":4637:4644  amountB */\n      dup7\n        /* \"projects/exchange-protocol/contracts/ExzoneRouter01.sol\":4637:4658  amountB >= amountBMin */\n      lt\n      iszero\n        /* \"projects/exchange-protocol/contracts/ExzoneRouter01.sol\":4629:4698  require(amountB >= amountBMin, 'ExzoneRouter: INSUFFICIENT_B_AMOUNT') */\n      tag_288\n      jumpi\n      mload(0x40)\n      0x08c379a000000000000000000000000000000000000000000000000000000000\n      dup2\n      mstore\n      0x04\n      add\n      dup1\n      dup1\n      0x20\n      add\n      dup3\n      dup2\n      sub\n      dup3\n      mstore\n      0x23\n      dup2\n      mstore\n      0x20\n      add\n      dup1\n      data_0deab635cd6f8d659d7c882e362a64d8e5dd834ef94e962dc91cdf1cecdd7b26\n      0x23\n      swap2\n      codecopy\n      0x40\n      add\n      swap2\n      pop\n      pop\n      mload(0x40)\n      dup1\n      swap2\n      sub\n      swap1\n      revert\n    tag_288:\n        /* \"projects/exchange-protocol/contracts/ExzoneRouter01.sol\":570:571  _ */\n      pop\n      pop\n      pop\n      pop\n        /* \"projects/exchange-protocol/contracts/ExzoneRouter01.sol\":3882:4705  function removeLiquidity(... */\n      pop\n      swap8\n      pop\n      swap8\n      swap6\n      pop\n      pop\n      pop\n      pop\n      pop\n      pop\n      jump\t// out\n        /* \"projects/exchange-protocol/contracts/ExzoneRouter01.sol\":366:407  address public immutable override factory */\n    tag_116:\n      immutable(\"0x5bcd163b2238ff85648d293e01a327b5c7f9ae69498a752a4883e839ddddafcb\")\n      dup2\n      jump\t// out\n        /* \"projects/exchange-protocol/contracts/ExzoneRouter01.sol\":12152:12342  function getAmountsOut(uint amountIn, address[] memory path) public view override returns (uint[] memory amounts) {... */\n    tag_123:\n        /* \"projects/exchange-protocol/contracts/ExzoneRouter01.sol\":12243:12264  uint[] memory amounts */\n      0x60\n        /* \"projects/exchange-protocol/contracts/ExzoneRouter01.sol\":12283:12335  ExzoneLibrary.getAmountsOut(factory, amountIn, path) */\n      tag_290\n        /* \"projects/exchange-protocol/contracts/ExzoneRouter01.sol\":12311:12318  factory */\n      immutable(\"0x5bcd163b2238ff85648d293e01a327b5c7f9ae69498a752a4883e839ddddafcb\")\n        /* \"projects/exchange-protocol/contracts/ExzoneRouter01.sol\":12320:12328  amountIn */\n      dup5\n        /* \"projects/exchange-protocol/contracts/ExzoneRouter01.sol\":12330:12334  path */\n      dup5\n        /* \"projects/exchange-protocol/contracts/ExzoneRouter01.sol\":12283:12310  ExzoneLibrary.getAmountsOut */\n      tag_167\n        /* \"projects/exchange-protocol/contracts/ExzoneRouter01.sol\":12283:12335  ExzoneLibrary.getAmountsOut(factory, amountIn, path) */\n      jump\t// in\n    tag_290:\n        /* \"projects/exchange-protocol/contracts/ExzoneRouter01.sol\":12276:12335  return ExzoneLibrary.getAmountsOut(factory, amountIn, path) */\n      swap1\n      pop\n        /* \"projects/exchange-protocol/contracts/ExzoneRouter01.sol\":12152:12342  function getAmountsOut(uint amountIn, address[] memory path) public view override returns (uint[] memory amounts) {... */\n      swap3\n      swap2\n      pop\n      pop\n      jump\t// out\n        /* \"projects/exchange-protocol/contracts/ExzoneRouter01.sol\":6014:6656  function removeLiquidityETHWithPermit(... */\n    tag_130:\n        /* \"projects/exchange-protocol/contracts/ExzoneRouter01.sol\":6287:6303  uint amountToken */\n      0x00\n        /* \"projects/exchange-protocol/contracts/ExzoneRouter01.sol\":6305:6319  uint amountETH */\n      dup1\n        /* \"projects/exchange-protocol/contracts/ExzoneRouter01.sol\":6331:6343  address pair */\n      0x00\n        /* \"projects/exchange-protocol/contracts/ExzoneRouter01.sol\":6346:6389  ExzoneLibrary.pairFor(factory, token, WETH) */\n      tag_292\n        /* \"projects/exchange-protocol/contracts/ExzoneRouter01.sol\":6368:6375  factory */\n      immutable(\"0x5bcd163b2238ff85648d293e01a327b5c7f9ae69498a752a4883e839ddddafcb\")\n        /* \"projects/exchange-protocol/contracts/ExzoneRouter01.sol\":6377:6382  token */\n      dup15\n        /* \"projects/exchange-protocol/contracts/ExzoneRouter01.sol\":6384:6388  WETH */\n      immutable(\"0x9abd569a0444be7ce52d46a7fb79009940c0c0442116f15017290ff13cb4450c\")\n        /* \"projects/exchange-protocol/contracts/ExzoneRouter01.sol\":6346:6367  ExzoneLibrary.pairFor */\n      tag_175\n        /* \"projects/exchange-protocol/contracts/ExzoneRouter01.sol\":6346:6389  ExzoneLibrary.pairFor(factory, token, WETH) */\n      jump\t// in\n    tag_292:\n        /* \"projects/exchange-protocol/contracts/ExzoneRouter01.sol\":6331:6389  address pair = ExzoneLibrary.pairFor(factory, token, WETH) */\n      swap1\n      pop\n        /* \"projects/exchange-protocol/contracts/ExzoneRouter01.sol\":6399:6409  uint value */\n      0x00\n        /* \"projects/exchange-protocol/contracts/ExzoneRouter01.sol\":6412:6422  approveMax */\n      dup8\n        /* \"projects/exchange-protocol/contracts/ExzoneRouter01.sol\":6412:6445  approveMax ? uint(-1) : liquidity */\n      tag_293\n      jumpi\n        /* \"projects/exchange-protocol/contracts/ExzoneRouter01.sol\":6436:6445  liquidity */\n      dup13\n        /* \"projects/exchange-protocol/contracts/ExzoneRouter01.sol\":6412:6445  approveMax ? uint(-1) : liquidity */\n      jump(tag_294)\n    tag_293:\n        /* \"projects/exchange-protocol/contracts/ExzoneRouter01.sol\":6430:6432  -1 */\n      0xffffffffffffffffffffffffffffffffffffffffffffffffffffffffffffffff\n        /* \"projects/exchange-protocol/contracts/ExzoneRouter01.sol\":6412:6445  approveMax ? uint(-1) : liquidity */\n    tag_294:\n        /* \"projects/exchange-protocol/contracts/ExzoneRouter01.sol\":6399:6445  uint value = approveMax ? uint(-1) : liquidity */\n      swap1\n      pop\n        /* \"projects/exchange-protocol/contracts/ExzoneRouter01.sol\":6467:6471  pair */\n      dup2\n        /* \"projects/exchange-protocol/contracts/ExzoneRouter01.sol\":6455:6479  IExzonePair(pair).permit */\n      0xffffffffffffffffffffffffffffffffffffffff\n      and\n      0xd505accf\n        /* \"projects/exchange-protocol/contracts/ExzoneRouter01.sol\":6480:6490  msg.sender */\n      caller\n        /* \"projects/exchange-protocol/contracts/ExzoneRouter01.sol\":6500:6504  this */\n      address\n        /* \"projects/exchange-protocol/contracts/ExzoneRouter01.sol\":6507:6512  value */\n      dup5\n        /* \"projects/exchange-protocol/contracts/ExzoneRouter01.sol\":6514:6522  deadline */\n      dup14\n        /* \"projects/exchange-protocol/contracts/ExzoneRouter01.sol\":6524:6525  v */\n      dup13\n        /* \"projects/exchange-protocol/contracts/ExzoneRouter01.sol\":6527:6528  r */\n      dup13\n        /* \"projects/exchange-protocol/contracts/ExzoneRouter01.sol\":6530:6531  s */\n      dup13\n        /* \"projects/exchange-protocol/contracts/ExzoneRouter01.sol\":6455:6532  IExzonePair(pair).permit(msg.sender, address(this), value, deadline, v, r, s) */\n      mload(0x40)\n      dup9\n      0xffffffff\n      and\n      0xe0\n      shl\n      dup2\n      mstore\n      0x04\n      add\n      dup1\n      dup9\n      0xffffffffffffffffffffffffffffffffffffffff\n      and\n      0xffffffffffffffffffffffffffffffffffffffff\n      and\n      dup2\n      mstore\n      0x20\n      add\n      dup8\n      0xffffffffffffffffffffffffffffffffffffffff\n      and\n      0xffffffffffffffffffffffffffffffffffffffff\n      and\n      dup2\n      mstore\n      0x20\n      add\n      dup7\n      dup2\n      mstore\n      0x20\n      add\n      dup6\n      dup2\n      mstore\n      0x20\n      add\n      dup5\n      0xff\n      and\n      0xff\n      and\n      dup2\n      mstore\n      0x20\n      add\n      dup4\n      dup2\n      mstore\n      0x20\n      add\n      dup3\n      dup2\n      mstore\n      0x20\n      add\n      swap8\n      pop\n      pop\n      pop\n      pop\n      pop\n      pop\n      pop\n      pop\n      0x00\n      mload(0x40)\n      dup1\n      dup4\n      sub\n      dup2\n      0x00\n      dup8\n      dup1\n      extcodesize\n      iszero\n        /* \"--CODEGEN--\":5:14   */\n      dup1\n        /* \"--CODEGEN--\":2:4   */\n      iszero\n      tag_295\n      jumpi\n        /* \"--CODEGEN--\":27:28   */\n      0x00\n        /* \"--CODEGEN--\":24:25   */\n      dup1\n        /* \"--CODEGEN--\":17:29   */\n      revert\n        /* \"--CODEGEN--\":2:4   */\n    tag_295:\n        /* \"projects/exchange-protocol/contracts/ExzoneRouter01.sol\":6455:6532  IExzonePair(pair).permit(msg.sender, address(this), value, deadline, v, r, s) */\n      pop\n      gas\n      call\n      iszero\n        /* \"--CODEGEN--\":8:17   */\n      dup1\n        /* \"--CODEGEN--\":5:7   */\n      iszero\n      tag_297\n      jumpi\n        /* \"--CODEGEN--\":45:61   */\n      returndatasize\n        /* \"--CODEGEN--\":42:43   */\n      0x00\n        /* \"--CODEGEN--\":39:40   */\n      dup1\n        /* \"--CODEGEN--\":24:62   */\n      returndatacopy\n        /* \"--CODEGEN--\":77:93   */\n      returndatasize\n        /* \"--CODEGEN--\":74:75   */\n      0x00\n        /* \"--CODEGEN--\":67:94   */\n      revert\n        /* \"--CODEGEN--\":5:7   */\n    tag_297:\n        /* \"projects/exchange-protocol/contracts/ExzoneRouter01.sol\":6455:6532  IExzonePair(pair).permit(msg.sender, address(this), value, deadline, v, r, s) */\n      pop\n      pop\n      pop\n      pop\n        /* \"projects/exchange-protocol/contracts/ExzoneRouter01.sol\":6569:6649  removeLiquidityETH(token, liquidity, amountTokenMin, amountETHMin, to, deadline) */\n      tag_298\n        /* \"projects/exchange-protocol/contracts/ExzoneRouter01.sol\":6588:6593  token */\n      dup15\n        /* \"projects/exchange-protocol/contracts/ExzoneRouter01.sol\":6595:6604  liquidity */\n      dup15\n        /* \"projects/exchange-protocol/contracts/ExzoneRouter01.sol\":6606:6620  amountTokenMin */\n      dup15\n        /* \"projects/exchange-protocol/contracts/ExzoneRouter01.sol\":6622:6634  amountETHMin */\n      dup15\n        /* \"projects/exchange-protocol/contracts/ExzoneRouter01.sol\":6636:6638  to */\n      dup15\n        /* \"projects/exchange-protocol/contracts/ExzoneRouter01.sol\":6640:6648  deadline */\n      dup15\n        /* \"projects/exchange-protocol/contracts/ExzoneRouter01.sol\":6569:6587  removeLiquidityETH */\n      tag_31\n        /* \"projects/exchange-protocol/contracts/ExzoneRouter01.sol\":6569:6649  removeLiquidityETH(token, liquidity, amountTokenMin, amountETHMin, to, deadline) */\n      jump\t// in\n    tag_298:\n        /* \"projects/exchange-protocol/contracts/ExzoneRouter01.sol\":6542:6649  (amountToken, amountETH) = removeLiquidityETH(token, liquidity, amountTokenMin, amountETHMin, to, deadline) */\n      dup1\n      swap5\n      pop\n      dup2\n      swap6\n      pop\n      pop\n      pop\n        /* \"projects/exchange-protocol/contracts/ExzoneRouter01.sol\":6014:6656  function removeLiquidityETHWithPermit(... */\n      pop\n      pop\n      swap11\n      pop\n      swap11\n      swap9\n      pop\n      pop\n      pop\n      pop\n      pop\n      pop\n      pop\n      pop\n      pop\n      jump\t// out\n        /* \"projects/exchange-protocol/contracts/ExzoneRouter01.sol\":2199:2908  function addLiquidity(... */\n    tag_134:\n        /* \"projects/exchange-protocol/contracts/ExzoneRouter01.sol\":2470:2482  uint amountA */\n      0x00\n        /* \"projects/exchange-protocol/contracts/ExzoneRouter01.sol\":2484:2496  uint amountB */\n      dup1\n        /* \"projects/exchange-protocol/contracts/ExzoneRouter01.sol\":2498:2512  uint liquidity */\n      0x00\n        /* \"projects/exchange-protocol/contracts/ExzoneRouter01.sol\":2451:2459  deadline */\n      dup4\n        /* \"projects/exchange-protocol/contracts/ExzoneRouter01.sol\":519:534  block.timestamp */\n      timestamp\n        /* \"projects/exchange-protocol/contracts/ExzoneRouter01.sol\":507:515  deadline */\n      dup2\n        /* \"projects/exchange-protocol/contracts/ExzoneRouter01.sol\":507:534  deadline >= block.timestamp */\n      lt\n      iszero\n        /* \"projects/exchange-protocol/contracts/ExzoneRouter01.sol\":499:560  require(deadline >= block.timestamp, 'ExzoneRouter: EXPIRED') */\n      tag_300\n      jumpi\n      mload(0x40)\n      0x08c379a000000000000000000000000000000000000000000000000000000000\n      dup2\n      mstore\n      0x04\n      add\n      dup1\n      dup1\n      0x20\n      add\n      dup3\n      dup2\n      sub\n      dup3\n      mstore\n      0x15\n      dup2\n      mstore\n      0x20\n      add\n      dup1\n      0x45787a6f6e65526f757465723a20455850495245440000000000000000000000\n      dup2\n      mstore\n      pop\n      0x20\n      add\n      swap2\n      pop\n      pop\n      mload(0x40)\n      dup1\n      swap2\n      sub\n      swap1\n      revert\n    tag_300:\n        /* \"projects/exchange-protocol/contracts/ExzoneRouter01.sol\":2545:2630  _addLiquidity(tokenA, tokenB, amountADesired, amountBDesired, amountAMin, amountBMin) */\n      tag_302\n        /* \"projects/exchange-protocol/contracts/ExzoneRouter01.sol\":2559:2565  tokenA */\n      dup13\n        /* \"projects/exchange-protocol/contracts/ExzoneRouter01.sol\":2567:2573  tokenB */\n      dup13\n        /* \"projects/exchange-protocol/contracts/ExzoneRouter01.sol\":2575:2589  amountADesired */\n      dup13\n        /* \"projects/exchange-protocol/contracts/ExzoneRouter01.sol\":2591:2605  amountBDesired */\n      dup13\n        /* \"projects/exchange-protocol/contracts/ExzoneRouter01.sol\":2607:2617  amountAMin */\n      dup13\n        /* \"projects/exchange-protocol/contracts/ExzoneRouter01.sol\":2619:2629  amountBMin */\n      dup13\n        /* \"projects/exchange-protocol/contracts/ExzoneRouter01.sol\":2545:2558  _addLiquidity */\n      tag_303\n        /* \"projects/exchange-protocol/contracts/ExzoneRouter01.sol\":2545:2630  _addLiquidity(tokenA, tokenB, amountADesired, amountBDesired, amountAMin, amountBMin) */\n      jump\t// in\n    tag_302:\n        /* \"projects/exchange-protocol/contracts/ExzoneRouter01.sol\":2524:2630  (amountA, amountB) = _addLiquidity(tokenA, tokenB, amountADesired, amountBDesired, amountAMin, amountBMin) */\n      dup1\n      swap5\n      pop\n      dup2\n      swap6\n      pop\n      pop\n      pop\n        /* \"projects/exchange-protocol/contracts/ExzoneRouter01.sol\":2640:2652  address pair */\n      0x00\n        /* \"projects/exchange-protocol/contracts/ExzoneRouter01.sol\":2655:2701  ExzoneLibrary.pairFor(factory, tokenA, tokenB) */\n      tag_304\n        /* \"projects/exchange-protocol/contracts/ExzoneRouter01.sol\":2677:2684  factory */\n      immutable(\"0x5bcd163b2238ff85648d293e01a327b5c7f9ae69498a752a4883e839ddddafcb\")\n        /* \"projects/exchange-protocol/contracts/ExzoneRouter01.sol\":2686:2692  tokenA */\n      dup15\n        /* \"projects/exchange-protocol/contracts/ExzoneRouter01.sol\":2694:2700  tokenB */\n      dup15\n        /* \"projects/exchange-protocol/contracts/ExzoneRouter01.sol\":2655:2676  ExzoneLibrary.pairFor */\n      tag_175\n        /* \"projects/exchange-protocol/contracts/ExzoneRouter01.sol\":2655:2701  ExzoneLibrary.pairFor(factory, tokenA, tokenB) */\n      jump\t// in\n    tag_304:\n        /* \"projects/exchange-protocol/contracts/ExzoneRouter01.sol\":2640:2701  address pair = ExzoneLibrary.pairFor(factory, tokenA, tokenB) */\n      swap1\n      pop\n        /* \"projects/exchange-protocol/contracts/ExzoneRouter01.sol\":2711:2777  TransferHelper.safeTransferFrom(tokenA, msg.sender, pair, amountA) */\n      tag_305\n        /* \"projects/exchange-protocol/contracts/ExzoneRouter01.sol\":2743:2749  tokenA */\n      dup14\n        /* \"projects/exchange-protocol/contracts/ExzoneRouter01.sol\":2751:2761  msg.sender */\n      caller\n        /* \"projects/exchange-protocol/contracts/ExzoneRouter01.sol\":2763:2767  pair */\n      dup4\n        /* \"projects/exchange-protocol/contracts/ExzoneRouter01.sol\":2769:2776  amountA */\n      dup9\n        /* \"projects/exchange-protocol/contracts/ExzoneRouter01.sol\":2711:2742  TransferHelper.safeTransferFrom */\n      tag_177\n        /* \"projects/exchange-protocol/contracts/ExzoneRouter01.sol\":2711:2777  TransferHelper.safeTransferFrom(tokenA, msg.sender, pair, amountA) */\n      jump\t// in\n    tag_305:\n        /* \"projects/exchange-protocol/contracts/ExzoneRouter01.sol\":2787:2853  TransferHelper.safeTransferFrom(tokenB, msg.sender, pair, amountB) */\n      tag_306\n        /* \"projects/exchange-protocol/contracts/ExzoneRouter01.sol\":2819:2825  tokenB */\n      dup13\n        /* \"projects/exchange-protocol/contracts/ExzoneRouter01.sol\":2827:2837  msg.sender */\n      caller\n        /* \"projects/exchange-protocol/contracts/ExzoneRouter01.sol\":2839:2843  pair */\n      dup4\n        /* \"projects/exchange-protocol/contracts/ExzoneRouter01.sol\":2845:2852  amountB */\n      dup8\n        /* \"projects/exchange-protocol/contracts/ExzoneRouter01.sol\":2787:2818  TransferHelper.safeTransferFrom */\n      tag_177\n        /* \"projects/exchange-protocol/contracts/ExzoneRouter01.sol\":2787:2853  TransferHelper.safeTransferFrom(tokenB, msg.sender, pair, amountB) */\n      jump\t// in\n    tag_306:\n        /* \"projects/exchange-protocol/contracts/ExzoneRouter01.sol\":2887:2891  pair */\n      dup1\n        /* \"projects/exchange-protocol/contracts/ExzoneRouter01.sol\":2875:2897  IExzonePair(pair).mint */\n      0xffffffffffffffffffffffffffffffffffffffff\n      and\n      0x6a627842\n        /* \"projects/exchange-protocol/contracts/ExzoneRouter01.sol\":2898:2900  to */\n      dup9\n        /* \"projects/exchange-protocol/contracts/ExzoneRouter01.sol\":2875:2901  IExzonePair(pair).mint(to) */\n      mload(0x40)\n      dup3\n      0xffffffff\n      and\n      0xe0\n      shl\n      dup2\n      mstore\n      0x04\n      add\n      dup1\n      dup3\n      0xffffffffffffffffffffffffffffffffffffffff\n      and\n      0xffffffffffffffffffffffffffffffffffffffff\n      and\n      dup2\n      mstore\n      0x20\n      add\n      swap2\n      pop\n      pop\n      0x20\n      mload(0x40)\n      dup1\n      dup4\n      sub\n      dup2\n      0x00\n      dup8\n      dup1\n      extcodesize\n      iszero\n        /* \"--CODEGEN--\":5:14   */\n      dup1\n        /* \"--CODEGEN--\":2:4   */\n      iszero\n      tag_307\n      jumpi\n        /* \"--CODEGEN--\":27:28   */\n      0x00\n        /* \"--CODEGEN--\":24:25   */\n      dup1\n        /* \"--CODEGEN--\":17:29   */\n      revert\n        /* \"--CODEGEN--\":2:4   */\n    tag_307:\n        /* \"projects/exchange-protocol/contracts/ExzoneRouter01.sol\":2875:2901  IExzonePair(pair).mint(to) */\n      pop\n      gas\n      call\n      iszero\n        /* \"--CODEGEN--\":8:17   */\n      dup1\n        /* \"--CODEGEN--\":5:7   */\n      iszero\n      tag_309\n      jumpi\n        /* \"--CODEGEN--\":45:61   */\n      returndatasize\n        /* \"--CODEGEN--\":42:43   */\n      0x00\n        /* \"--CODEGEN--\":39:40   */\n      dup1\n        /* \"--CODEGEN--\":24:62   */\n      returndatacopy\n        /* \"--CODEGEN--\":77:93   */\n      returndatasize\n        /* \"--CODEGEN--\":74:75   */\n      0x00\n        /* \"--CODEGEN--\":67:94   */\n      revert\n        /* \"--CODEGEN--\":5:7   */\n    tag_309:\n        /* \"projects/exchange-protocol/contracts/ExzoneRouter01.sol\":2875:2901  IExzonePair(pair).mint(to) */\n      pop\n      pop\n      pop\n      pop\n      mload(0x40)\n      returndatasize\n        /* \"--CODEGEN--\":15:17   */\n      0x20\n        /* \"--CODEGEN--\":10:13   */\n      dup2\n        /* \"--CODEGEN--\":7:18   */\n      lt\n        /* \"--CODEGEN--\":4:6   */\n      iszero\n      tag_310\n      jumpi\n        /* \"--CODEGEN--\":31:32   */\n      0x00\n        /* \"--CODEGEN--\":28:29   */\n      dup1\n        /* \"--CODEGEN--\":21:33   */\n      revert\n        /* \"--CODEGEN--\":4:6   */\n    tag_310:\n        /* \"projects/exchange-protocol/contracts/ExzoneRouter01.sol\":2875:2901  IExzonePair(pair).mint(to) */\n      dup2\n      add\n      swap1\n      dup1\n      dup1\n      mload\n      swap1\n      0x20\n      add\n      swap1\n      swap3\n      swap2\n      swap1\n      pop\n      pop\n      pop\n        /* \"projects/exchange-protocol/contracts/ExzoneRouter01.sol\":2863:2901  liquidity = IExzonePair(pair).mint(to) */\n      swap3\n      pop\n        /* \"projects/exchange-protocol/contracts/ExzoneRouter01.sol\":570:571  _ */\n      pop\n        /* \"projects/exchange-protocol/contracts/ExzoneRouter01.sol\":2199:2908  function addLiquidity(... */\n      pop\n      swap9\n      pop\n      swap9\n      pop\n      swap9\n      swap6\n      pop\n      pop\n      pop\n      pop\n      pop\n      pop\n      jump\t// out\n        /* \"projects/exchange-protocol/contracts/ExzoneRouter01.sol\":2913:3842  function addLiquidityETH(... */\n    tag_137:\n        /* \"projects/exchange-protocol/contracts/ExzoneRouter01.sol\":3151:3167  uint amountToken */\n      0x00\n        /* \"projects/exchange-protocol/contracts/ExzoneRouter01.sol\":3169:3183  uint amountETH */\n      dup1\n        /* \"projects/exchange-protocol/contracts/ExzoneRouter01.sol\":3185:3199  uint liquidity */\n      0x00\n        /* \"projects/exchange-protocol/contracts/ExzoneRouter01.sol\":3132:3140  deadline */\n      dup4\n        /* \"projects/exchange-protocol/contracts/ExzoneRouter01.sol\":519:534  block.timestamp */\n      timestamp\n        /* \"projects/exchange-protocol/contracts/ExzoneRouter01.sol\":507:515  deadline */\n      dup2\n        /* \"projects/exchange-protocol/contracts/ExzoneRouter01.sol\":507:534  deadline >= block.timestamp */\n      lt\n      iszero\n        /* \"projects/exchange-protocol/contracts/ExzoneRouter01.sol\":499:560  require(deadline >= block.timestamp, 'ExzoneRouter: EXPIRED') */\n      tag_312\n      jumpi\n      mload(0x40)\n      0x08c379a000000000000000000000000000000000000000000000000000000000\n      dup2\n      mstore\n      0x04\n      add\n      dup1\n      dup1\n      0x20\n      add\n      dup3\n      dup2\n      sub\n      dup3\n      mstore\n      0x15\n      dup2\n      mstore\n      0x20\n      add\n      dup1\n      0x45787a6f6e65526f757465723a20455850495245440000000000000000000000\n      dup2\n      mstore\n      pop\n      0x20\n      add\n      swap2\n      pop\n      pop\n      mload(0x40)\n      dup1\n      swap2\n      sub\n      swap1\n      revert\n    tag_312:\n        /* \"projects/exchange-protocol/contracts/ExzoneRouter01.sol\":3238:3407  _addLiquidity(... */\n      tag_314\n        /* \"projects/exchange-protocol/contracts/ExzoneRouter01.sol\":3265:3270  token */\n      dup11\n        /* \"projects/exchange-protocol/contracts/ExzoneRouter01.sol\":3284:3288  WETH */\n      immutable(\"0x9abd569a0444be7ce52d46a7fb79009940c0c0442116f15017290ff13cb4450c\")\n        /* \"projects/exchange-protocol/contracts/ExzoneRouter01.sol\":3302:3320  amountTokenDesired */\n      dup12\n        /* \"projects/exchange-protocol/contracts/ExzoneRouter01.sol\":3334:3343  msg.value */\n      callvalue\n        /* \"projects/exchange-protocol/contracts/ExzoneRouter01.sol\":3357:3371  amountTokenMin */\n      dup13\n        /* \"projects/exchange-protocol/contracts/ExzoneRouter01.sol\":3385:3397  amountETHMin */\n      dup13\n        /* \"projects/exchange-protocol/contracts/ExzoneRouter01.sol\":3238:3251  _addLiquidity */\n      tag_303\n        /* \"projects/exchange-protocol/contracts/ExzoneRouter01.sol\":3238:3407  _addLiquidity(... */\n      jump\t// in\n    tag_314:\n        /* \"projects/exchange-protocol/contracts/ExzoneRouter01.sol\":3211:3407  (amountToken, amountETH) = _addLiquidity(... */\n      dup1\n      swap5\n      pop\n      dup2\n      swap6\n      pop\n      pop\n      pop\n        /* \"projects/exchange-protocol/contracts/ExzoneRouter01.sol\":3417:3429  address pair */\n      0x00\n        /* \"projects/exchange-protocol/contracts/ExzoneRouter01.sol\":3432:3475  ExzoneLibrary.pairFor(factory, token, WETH) */\n      tag_315\n        /* \"projects/exchange-protocol/contracts/ExzoneRouter01.sol\":3454:3461  factory */\n      immutable(\"0x5bcd163b2238ff85648d293e01a327b5c7f9ae69498a752a4883e839ddddafcb\")\n        /* \"projects/exchange-protocol/contracts/ExzoneRouter01.sol\":3463:3468  token */\n      dup13\n        /* \"projects/exchange-protocol/contracts/ExzoneRouter01.sol\":3470:3474  WETH */\n      immutable(\"0x9abd569a0444be7ce52d46a7fb79009940c0c0442116f15017290ff13cb4450c\")\n        /* \"projects/exchange-protocol/contracts/ExzoneRouter01.sol\":3432:3453  ExzoneLibrary.pairFor */\n      tag_175\n        /* \"projects/exchange-protocol/contracts/ExzoneRouter01.sol\":3432:3475  ExzoneLibrary.pairFor(factory, token, WETH) */\n      jump\t// in\n    tag_315:\n        /* \"projects/exchange-protocol/contracts/ExzoneRouter01.sol\":3417:3475  address pair = ExzoneLibrary.pairFor(factory, token, WETH) */\n      swap1\n      pop\n        /* \"projects/exchange-protocol/contracts/ExzoneRouter01.sol\":3485:3554  TransferHelper.safeTransferFrom(token, msg.sender, pair, amountToken) */\n      tag_316\n        /* \"projects/exchange-protocol/contracts/ExzoneRouter01.sol\":3517:3522  token */\n      dup12\n        /* \"projects/exchange-protocol/contracts/ExzoneRouter01.sol\":3524:3534  msg.sender */\n      caller\n        /* \"projects/exchange-protocol/contracts/ExzoneRouter01.sol\":3536:3540  pair */\n      dup4\n        /* \"projects/exchange-protocol/contracts/ExzoneRouter01.sol\":3542:3553  amountToken */\n      dup9\n        /* \"projects/exchange-protocol/contracts/ExzoneRouter01.sol\":3485:3516  TransferHelper.safeTransferFrom */\n      tag_177\n        /* \"projects/exchange-protocol/contracts/ExzoneRouter01.sol\":3485:3554  TransferHelper.safeTransferFrom(token, msg.sender, pair, amountToken) */\n      jump\t// in\n    tag_316:\n        /* \"projects/exchange-protocol/contracts/ExzoneRouter01.sol\":3570:3574  WETH */\n      immutable(\"0x9abd569a0444be7ce52d46a7fb79009940c0c0442116f15017290ff13cb4450c\")\n        /* \"projects/exchange-protocol/contracts/ExzoneRouter01.sol\":3564:3583  IWETH(WETH).deposit */\n      0xffffffffffffffffffffffffffffffffffffffff\n      and\n      0xd0e30db0\n        /* \"projects/exchange-protocol/contracts/ExzoneRouter01.sol\":3591:3600  amountETH */\n      dup6\n        /* \"projects/exchange-protocol/contracts/ExzoneRouter01.sol\":3564:3603  IWETH(WETH).deposit{value: amountETH}() */\n      mload(0x40)\n      dup3\n      0xffffffff\n      and\n      0xe0\n      shl\n      dup2\n      mstore\n      0x04\n      add\n      0x00\n      mload(0x40)\n      dup1\n      dup4\n      sub\n      dup2\n      dup6\n      dup9\n      dup1\n      extcodesize\n      iszero\n        /* \"--CODEGEN--\":5:14   */\n      dup1\n        /* \"--CODEGEN--\":2:4   */\n      iszero\n      tag_317\n      jumpi\n        /* \"--CODEGEN--\":27:28   */\n      0x00\n        /* \"--CODEGEN--\":24:25   */\n      dup1\n        /* \"--CODEGEN--\":17:29   */\n      revert\n        /* \"--CODEGEN--\":2:4   */\n    tag_317:\n        /* \"projects/exchange-protocol/contracts/ExzoneRouter01.sol\":3564:3603  IWETH(WETH).deposit{value: amountETH}() */\n      pop\n      gas\n      call\n      iszero\n        /* \"--CODEGEN--\":8:17   */\n      dup1\n        /* \"--CODEGEN--\":5:7   */\n      iszero\n      tag_319\n      jumpi\n        /* \"--CODEGEN--\":45:61   */\n      returndatasize\n        /* \"--CODEGEN--\":42:43   */\n      0x00\n        /* \"--CODEGEN--\":39:40   */\n      dup1\n        /* \"--CODEGEN--\":24:62   */\n      returndatacopy\n        /* \"--CODEGEN--\":77:93   */\n      returndatasize\n        /* \"--CODEGEN--\":74:75   */\n      0x00\n        /* \"--CODEGEN--\":67:94   */\n      revert\n        /* \"--CODEGEN--\":5:7   */\n    tag_319:\n        /* \"projects/exchange-protocol/contracts/ExzoneRouter01.sol\":3564:3603  IWETH(WETH).deposit{value: amountETH}() */\n      pop\n      pop\n      pop\n      pop\n      pop\n        /* \"projects/exchange-protocol/contracts/ExzoneRouter01.sol\":3626:3630  WETH */\n      immutable(\"0x9abd569a0444be7ce52d46a7fb79009940c0c0442116f15017290ff13cb4450c\")\n        /* \"projects/exchange-protocol/contracts/ExzoneRouter01.sol\":3620:3640  IWETH(WETH).transfer */\n      0xffffffffffffffffffffffffffffffffffffffff\n      and\n      0xa9059cbb\n        /* \"projects/exchange-protocol/contracts/ExzoneRouter01.sol\":3641:3645  pair */\n      dup3\n        /* \"projects/exchange-protocol/contracts/ExzoneRouter01.sol\":3647:3656  amountETH */\n      dup7\n        /* \"projects/exchange-protocol/contracts/ExzoneRouter01.sol\":3620:3657  IWETH(WETH).transfer(pair, amountETH) */\n      mload(0x40)\n      dup4\n      0xffffffff\n      and\n      0xe0\n      shl\n      dup2\n      mstore\n      0x04\n      add\n      dup1\n      dup4\n      0xffffffffffffffffffffffffffffffffffffffff\n      and\n      0xffffffffffffffffffffffffffffffffffffffff\n      and\n      dup2\n      mstore\n      0x20\n      add\n      dup3\n      dup2\n      mstore\n      0x20\n      add\n      swap3\n      pop\n      pop\n      pop\n      0x20\n      mload(0x40)\n      dup1\n      dup4\n      sub\n      dup2\n      0x00\n      dup8\n      dup1\n      extcodesize\n      iszero\n        /* \"--CODEGEN--\":5:14   */\n      dup1\n        /* \"--CODEGEN--\":2:4   */\n      iszero\n      tag_320\n      jumpi\n        /* \"--CODEGEN--\":27:28   */\n      0x00\n        /* \"--CODEGEN--\":24:25   */\n      dup1\n        /* \"--CODEGEN--\":17:29   */\n      revert\n        /* \"--CODEGEN--\":2:4   */\n    tag_320:\n        /* \"projects/exchange-protocol/contracts/ExzoneRouter01.sol\":3620:3657  IWETH(WETH).transfer(pair, amountETH) */\n      pop\n      gas\n      call\n      iszero\n        /* \"--CODEGEN--\":8:17   */\n      dup1\n        /* \"--CODEGEN--\":5:7   */\n      iszero\n      tag_322\n      jumpi\n        /* \"--CODEGEN--\":45:61   */\n      returndatasize\n        /* \"--CODEGEN--\":42:43   */\n      0x00\n        /* \"--CODEGEN--\":39:40   */\n      dup1\n        /* \"--CODEGEN--\":24:62   */\n      returndatacopy\n        /* \"--CODEGEN--\":77:93   */\n      returndatasize\n        /* \"--CODEGEN--\":74:75   */\n      0x00\n        /* \"--CODEGEN--\":67:94   */\n      revert\n        /* \"--CODEGEN--\":5:7   */\n    tag_322:\n        /* \"projects/exchange-protocol/contracts/ExzoneRouter01.sol\":3620:3657  IWETH(WETH).transfer(pair, amountETH) */\n      pop\n      pop\n      pop\n      pop\n      mload(0x40)\n      returndatasize\n        /* \"--CODEGEN--\":15:17   */\n      0x20\n        /* \"--CODEGEN--\":10:13   */\n      dup2\n        /* \"--CODEGEN--\":7:18   */\n      lt\n        /* \"--CODEGEN--\":4:6   */\n      iszero\n      tag_323\n      jumpi\n        /* \"--CODEGEN--\":31:32   */\n      0x00\n        /* \"--CODEGEN--\":28:29   */\n      dup1\n        /* \"--CODEGEN--\":21:33   */\n      revert\n        /* \"--CODEGEN--\":4:6   */\n    tag_323:\n        /* \"projects/exchange-protocol/contracts/ExzoneRouter01.sol\":3620:3657  IWETH(WETH).transfer(pair, amountETH) */\n      dup2\n      add\n      swap1\n      dup1\n      dup1\n      mload\n      swap1\n      0x20\n      add\n      swap1\n      swap3\n      swap2\n      swap1\n      pop\n      pop\n      pop\n        /* \"projects/exchange-protocol/contracts/ExzoneRouter01.sol\":3613:3658  assert(IWETH(WETH).transfer(pair, amountETH)) */\n      tag_324\n      jumpi\n      invalid\n    tag_324:\n        /* \"projects/exchange-protocol/contracts/ExzoneRouter01.sol\":3692:3696  pair */\n      dup1\n        /* \"projects/exchange-protocol/contracts/ExzoneRouter01.sol\":3680:3702  IExzonePair(pair).mint */\n      0xffffffffffffffffffffffffffffffffffffffff\n      and\n      0x6a627842\n        /* \"projects/exchange-protocol/contracts/ExzoneRouter01.sol\":3703:3705  to */\n      dup9\n        /* \"projects/exchange-protocol/contracts/ExzoneRouter01.sol\":3680:3706  IExzonePair(pair).mint(to) */\n      mload(0x40)\n      dup3\n      0xffffffff\n      and\n      0xe0\n      shl\n      dup2\n      mstore\n      0x04\n      add\n      dup1\n      dup3\n      0xffffffffffffffffffffffffffffffffffffffff\n      and\n      0xffffffffffffffffffffffffffffffffffffffff\n      and\n      dup2\n      mstore\n      0x20\n      add\n      swap2\n      pop\n      pop\n      0x20\n      mload(0x40)\n      dup1\n      dup4\n      sub\n      dup2\n      0x00\n      dup8\n      dup1\n      extcodesize\n      iszero\n        /* \"--CODEGEN--\":5:14   */\n      dup1\n        /* \"--CODEGEN--\":2:4   */\n      iszero\n      tag_325\n      jumpi\n        /* \"--CODEGEN--\":27:28   */\n      0x00\n        /* \"--CODEGEN--\":24:25   */\n      dup1\n        /* \"--CODEGEN--\":17:29   */\n      revert\n        /* \"--CODEGEN--\":2:4   */\n    tag_325:\n        /* \"projects/exchange-protocol/contracts/ExzoneRouter01.sol\":3680:3706  IExzonePair(pair).mint(to) */\n      pop\n      gas\n      call\n      iszero\n        /* \"--CODEGEN--\":8:17   */\n      dup1\n        /* \"--CODEGEN--\":5:7   */\n      iszero\n      tag_327\n      jumpi\n        /* \"--CODEGEN--\":45:61   */\n      returndatasize\n        /* \"--CODEGEN--\":42:43   */\n      0x00\n        /* \"--CODEGEN--\":39:40   */\n      dup1\n        /* \"--CODEGEN--\":24:62   */\n      returndatacopy\n        /* \"--CODEGEN--\":77:93   */\n      returndatasize\n        /* \"--CODEGEN--\":74:75   */\n      0x00\n        /* \"--CODEGEN--\":67:94   */\n      revert\n        /* \"--CODEGEN--\":5:7   */\n    tag_327:\n        /* \"projects/exchange-protocol/contracts/ExzoneRouter01.sol\":3680:3706  IExzonePair(pair).mint(to) */\n      pop\n      pop\n      pop\n      pop\n      mload(0x40)\n      returndatasize\n        /* \"--CODEGEN--\":15:17   */\n      0x20\n        /* \"--CODEGEN--\":10:13   */\n      dup2\n        /* \"--CODEGEN--\":7:18   */\n      lt\n        /* \"--CODEGEN--\":4:6   */\n      iszero\n      tag_328\n      jumpi\n        /* \"--CODEGEN--\":31:32   */\n      0x00\n        /* \"--CODEGEN--\":28:29   */\n      dup1\n        /* \"--CODEGEN--\":21:33   */\n      revert\n        /* \"--CODEGEN--\":4:6   */\n    tag_328:\n        /* \"projects/exchange-protocol/contracts/ExzoneRouter01.sol\":3680:3706  IExzonePair(pair).mint(to) */\n      dup2\n      add\n      swap1\n      dup1\n      dup1\n      mload\n      swap1\n      0x20\n      add\n      swap1\n      swap3\n      swap2\n      swap1\n      pop\n      pop\n      pop\n        /* \"projects/exchange-protocol/contracts/ExzoneRouter01.sol\":3668:3706  liquidity = IExzonePair(pair).mint(to) */\n      swap3\n      pop\n        /* \"projects/exchange-protocol/contracts/ExzoneRouter01.sol\":3732:3741  amountETH */\n      dup4\n        /* \"projects/exchange-protocol/contracts/ExzoneRouter01.sol\":3720:3729  msg.value */\n      callvalue\n        /* \"projects/exchange-protocol/contracts/ExzoneRouter01.sol\":3720:3741  msg.value > amountETH */\n      gt\n        /* \"projects/exchange-protocol/contracts/ExzoneRouter01.sol\":3716:3808  if (msg.value > amountETH) TransferHelper.safeTransferETH(msg.sender, msg.value - amountETH) */\n      iszero\n      tag_329\n      jumpi\n        /* \"projects/exchange-protocol/contracts/ExzoneRouter01.sol\":3743:3808  TransferHelper.safeTransferETH(msg.sender, msg.value - amountETH) */\n      tag_330\n        /* \"projects/exchange-protocol/contracts/ExzoneRouter01.sol\":3774:3784  msg.sender */\n      caller\n        /* \"projects/exchange-protocol/contracts/ExzoneRouter01.sol\":3798:3807  amountETH */\n      dup6\n        /* \"projects/exchange-protocol/contracts/ExzoneRouter01.sol\":3786:3795  msg.value */\n      callvalue\n        /* \"projects/exchange-protocol/contracts/ExzoneRouter01.sol\":3786:3807  msg.value - amountETH */\n      sub\n        /* \"projects/exchange-protocol/contracts/ExzoneRouter01.sol\":3743:3773  TransferHelper.safeTransferETH */\n      tag_157\n        /* \"projects/exchange-protocol/contracts/ExzoneRouter01.sol\":3743:3808  TransferHelper.safeTransferETH(msg.sender, msg.value - amountETH) */\n      jump\t// in\n    tag_330:\n        /* \"projects/exchange-protocol/contracts/ExzoneRouter01.sol\":3716:3808  if (msg.value > amountETH) TransferHelper.safeTransferETH(msg.sender, msg.value - amountETH) */\n    tag_329:\n        /* \"projects/exchange-protocol/contracts/ExzoneRouter01.sol\":570:571  _ */\n      pop\n        /* \"projects/exchange-protocol/contracts/ExzoneRouter01.sol\":2913:3842  function addLiquidityETH(... */\n      pop\n      swap7\n      pop\n      swap7\n      pop\n      swap7\n      swap4\n      pop\n      pop\n      pop\n      pop\n      jump\t// out\n        /* \"projects/exchange-protocol/contracts/ExzoneRouter01.sol\":10797:11555  function swapETHForExactTokens(uint amountOut, address[] calldata path, address to, uint deadline)... */\n    tag_143:\n        /* \"projects/exchange-protocol/contracts/ExzoneRouter01.sol\":10988:11009  uint[] memory amounts */\n      0x60\n        /* \"projects/exchange-protocol/contracts/ExzoneRouter01.sol\":10961:10969  deadline */\n      dup2\n        /* \"projects/exchange-protocol/contracts/ExzoneRouter01.sol\":519:534  block.timestamp */\n      timestamp\n        /* \"projects/exchange-protocol/contracts/ExzoneRouter01.sol\":507:515  deadline */\n      dup2\n        /* \"projects/exchange-protocol/contracts/ExzoneRouter01.sol\":507:534  deadline >= block.timestamp */\n      lt\n      iszero\n        /* \"projects/exchange-protocol/contracts/ExzoneRouter01.sol\":499:560  require(deadline >= block.timestamp, 'ExzoneRouter: EXPIRED') */\n      tag_332\n      jumpi\n      mload(0x40)\n      0x08c379a000000000000000000000000000000000000000000000000000000000\n      dup2\n      mstore\n      0x04\n      add\n      dup1\n      dup1\n      0x20\n      add\n      dup3\n      dup2\n      sub\n      dup3\n      mstore\n      0x15\n      dup2\n      mstore\n      0x20\n      add\n      dup1\n      0x45787a6f6e65526f757465723a20455850495245440000000000000000000000\n      dup2\n      mstore\n      pop\n      0x20\n      add\n      swap2\n      pop\n      pop\n      mload(0x40)\n      dup1\n      swap2\n      sub\n      swap1\n      revert\n    tag_332:\n        /* \"projects/exchange-protocol/contracts/ExzoneRouter01.sol\":11044:11048  WETH */\n      immutable(\"0x9abd569a0444be7ce52d46a7fb79009940c0c0442116f15017290ff13cb4450c\")\n        /* \"projects/exchange-protocol/contracts/ExzoneRouter01.sol\":11033:11048  path[0] == WETH */\n      0xffffffffffffffffffffffffffffffffffffffff\n      and\n        /* \"projects/exchange-protocol/contracts/ExzoneRouter01.sol\":11033:11037  path */\n      dup7\n      dup7\n        /* \"projects/exchange-protocol/contracts/ExzoneRouter01.sol\":11038:11039  0 */\n      0x00\n        /* \"projects/exchange-protocol/contracts/ExzoneRouter01.sol\":11033:11040  path[0] */\n      dup2\n      dup2\n      lt\n      tag_334\n      jumpi\n      invalid\n    tag_334:\n      swap1\n      pop\n      0x20\n      mul\n      add\n      calldataload\n      0xffffffffffffffffffffffffffffffffffffffff\n      and\n        /* \"projects/exchange-protocol/contracts/ExzoneRouter01.sol\":11033:11048  path[0] == WETH */\n      0xffffffffffffffffffffffffffffffffffffffff\n      and\n      eq\n        /* \"projects/exchange-protocol/contracts/ExzoneRouter01.sol\":11025:11079  require(path[0] == WETH, 'ExzoneRouter: INVALID_PATH') */\n      tag_335\n      jumpi\n      mload(0x40)\n      0x08c379a000000000000000000000000000000000000000000000000000000000\n      dup2\n      mstore\n      0x04\n      add\n      dup1\n      dup1\n      0x20\n      add\n      dup3\n      dup2\n      sub\n      dup3\n      mstore\n      0x1a\n      dup2\n      mstore\n      0x20\n      add\n      dup1\n      0x45787a6f6e65526f757465723a20494e56414c49445f50415448000000000000\n      dup2\n      mstore\n      pop\n      0x20\n      add\n      swap2\n      pop\n      pop\n      mload(0x40)\n      dup1\n      swap2\n      sub\n      swap1\n      revert\n    tag_335:\n        /* \"projects/exchange-protocol/contracts/ExzoneRouter01.sol\":11099:11151  ExzoneLibrary.getAmountsIn(factory, amountOut, path) */\n      tag_336\n        /* \"projects/exchange-protocol/contracts/ExzoneRouter01.sol\":11126:11133  factory */\n      immutable(\"0x5bcd163b2238ff85648d293e01a327b5c7f9ae69498a752a4883e839ddddafcb\")\n        /* \"projects/exchange-protocol/contracts/ExzoneRouter01.sol\":11135:11144  amountOut */\n      dup9\n        /* \"projects/exchange-protocol/contracts/ExzoneRouter01.sol\":11146:11150  path */\n      dup9\n      dup9\n        /* \"projects/exchange-protocol/contracts/ExzoneRouter01.sol\":11099:11151  ExzoneLibrary.getAmountsIn(factory, amountOut, path) */\n      dup1\n      dup1\n      0x20\n      mul\n      0x20\n      add\n      mload(0x40)\n      swap1\n      dup2\n      add\n      0x40\n      mstore\n      dup1\n      swap4\n      swap3\n      swap2\n      swap1\n      dup2\n      dup2\n      mstore\n      0x20\n      add\n      dup4\n      dup4\n      0x20\n      mul\n        /* \"--CODEGEN--\":30:33   */\n      dup1\n        /* \"--CODEGEN--\":22:28   */\n      dup3\n        /* \"--CODEGEN--\":14:20   */\n      dup5\n        /* \"--CODEGEN--\":1:34   */\n      calldatacopy\n        /* \"--CODEGEN--\":99:100   */\n      0x00\n        /* \"--CODEGEN--\":93:96   */\n      dup2\n        /* \"--CODEGEN--\":85:91   */\n      dup5\n        /* \"--CODEGEN--\":81:97   */\n      add\n        /* \"--CODEGEN--\":74:101   */\n      mstore\n        /* \"--CODEGEN--\":137:141   */\n      0x1f\n        /* \"--CODEGEN--\":133:142   */\n      not\n        /* \"--CODEGEN--\":126:130   */\n      0x1f\n        /* \"--CODEGEN--\":121:124   */\n      dup3\n        /* \"--CODEGEN--\":117:131   */\n      add\n        /* \"--CODEGEN--\":113:143   */\n      and\n        /* \"--CODEGEN--\":106:143   */\n      swap1\n      pop\n        /* \"--CODEGEN--\":169:172   */\n      dup1\n        /* \"--CODEGEN--\":161:167   */\n      dup4\n        /* \"--CODEGEN--\":157:173   */\n      add\n        /* \"--CODEGEN--\":147:173   */\n      swap3\n      pop\n        /* \"projects/exchange-protocol/contracts/ExzoneRouter01.sol\":11099:11151  ExzoneLibrary.getAmountsIn(factory, amountOut, path) */\n      pop\n      pop\n      pop\n      pop\n      pop\n      pop\n        /* \"projects/exchange-protocol/contracts/ExzoneRouter01.sol\":11099:11125  ExzoneLibrary.getAmountsIn */\n      tag_188\n        /* \"projects/exchange-protocol/contracts/ExzoneRouter01.sol\":11099:11151  ExzoneLibrary.getAmountsIn(factory, amountOut, path) */\n      jump\t// in\n    tag_336:\n        /* \"projects/exchange-protocol/contracts/ExzoneRouter01.sol\":11089:11151  amounts = ExzoneLibrary.getAmountsIn(factory, amountOut, path) */\n      swap2\n      pop\n        /* \"projects/exchange-protocol/contracts/ExzoneRouter01.sol\":11183:11192  msg.value */\n      callvalue\n        /* \"projects/exchange-protocol/contracts/ExzoneRouter01.sol\":11169:11176  amounts */\n      dup3\n        /* \"projects/exchange-protocol/contracts/ExzoneRouter01.sol\":11177:11178  0 */\n      0x00\n        /* \"projects/exchange-protocol/contracts/ExzoneRouter01.sol\":11169:11179  amounts[0] */\n      dup2\n      mload\n      dup2\n      lt\n      tag_337\n      jumpi\n      invalid\n    tag_337:\n      0x20\n      mul\n      0x20\n      add\n      add\n      mload\n        /* \"projects/exchange-protocol/contracts/ExzoneRouter01.sol\":11169:11192  amounts[0] <= msg.value */\n      gt\n      iszero\n        /* \"projects/exchange-protocol/contracts/ExzoneRouter01.sol\":11161:11233  require(amounts[0] <= msg.value, 'ExzoneRouter: EXCESSIVE_INPUT_AMOUNT') */\n      tag_338\n      jumpi\n      mload(0x40)\n      0x08c379a000000000000000000000000000000000000000000000000000000000\n      dup2\n      mstore\n      0x04\n      add\n      dup1\n      dup1\n      0x20\n      add\n      dup3\n      dup2\n      sub\n      dup3\n      mstore\n      0x24\n      dup2\n      mstore\n      0x20\n      add\n      dup1\n      data_07947ce221cad6bb17467d2617ba69ad7eed4ff1cb624d0355f752f6e2c62544\n      0x24\n      swap2\n      codecopy\n      0x40\n      add\n      swap2\n      pop\n      pop\n      mload(0x40)\n      dup1\n      swap2\n      sub\n      swap1\n      revert\n    tag_338:\n        /* \"projects/exchange-protocol/contracts/ExzoneRouter01.sol\":11249:11253  WETH */\n      immutable(\"0x9abd569a0444be7ce52d46a7fb79009940c0c0442116f15017290ff13cb4450c\")\n        /* \"projects/exchange-protocol/contracts/ExzoneRouter01.sol\":11243:11262  IWETH(WETH).deposit */\n      0xffffffffffffffffffffffffffffffffffffffff\n      and\n      0xd0e30db0\n        /* \"projects/exchange-protocol/contracts/ExzoneRouter01.sol\":11270:11277  amounts */\n      dup4\n        /* \"projects/exchange-protocol/contracts/ExzoneRouter01.sol\":11278:11279  0 */\n      0x00\n        /* \"projects/exchange-protocol/contracts/ExzoneRouter01.sol\":11270:11280  amounts[0] */\n      dup2\n      mload\n      dup2\n      lt\n      tag_339\n      jumpi\n      invalid\n    tag_339:\n      0x20\n      mul\n      0x20\n      add\n      add\n      mload\n        /* \"projects/exchange-protocol/contracts/ExzoneRouter01.sol\":11243:11283  IWETH(WETH).deposit{value: amounts[0]}() */\n      mload(0x40)\n      dup3\n      0xffffffff\n      and\n      0xe0\n      shl\n      dup2\n      mstore\n      0x04\n      add\n      0x00\n      mload(0x40)\n      dup1\n      dup4\n      sub\n      dup2\n      dup6\n      dup9\n      dup1\n      extcodesize\n      iszero\n        /* \"--CODEGEN--\":5:14   */\n      dup1\n        /* \"--CODEGEN--\":2:4   */\n      iszero\n      tag_340\n      jumpi\n        /* \"--CODEGEN--\":27:28   */\n      0x00\n        /* \"--CODEGEN--\":24:25   */\n      dup1\n        /* \"--CODEGEN--\":17:29   */\n      revert\n        /* \"--CODEGEN--\":2:4   */\n    tag_340:\n        /* \"projects/exchange-protocol/contracts/ExzoneRouter01.sol\":11243:11283  IWETH(WETH).deposit{value: amounts[0]}() */\n      pop\n      gas\n      call\n      iszero\n        /* \"--CODEGEN--\":8:17   */\n      dup1\n        /* \"--CODEGEN--\":5:7   */\n      iszero\n      tag_342\n      jumpi\n        /* \"--CODEGEN--\":45:61   */\n      returndatasize\n        /* \"--CODEGEN--\":42:43   */\n      0x00\n        /* \"--CODEGEN--\":39:40   */\n      dup1\n        /* \"--CODEGEN--\":24:62   */\n      returndatacopy\n        /* \"--CODEGEN--\":77:93   */\n      returndatasize\n        /* \"--CODEGEN--\":74:75   */\n      0x00\n        /* \"--CODEGEN--\":67:94   */\n      revert\n        /* \"--CODEGEN--\":5:7   */\n    tag_342:\n        /* \"projects/exchange-protocol/contracts/ExzoneRouter01.sol\":11243:11283  IWETH(WETH).deposit{value: amounts[0]}() */\n      pop\n      pop\n      pop\n      pop\n      pop\n        /* \"projects/exchange-protocol/contracts/ExzoneRouter01.sol\":11306:11310  WETH */\n      immutable(\"0x9abd569a0444be7ce52d46a7fb79009940c0c0442116f15017290ff13cb4450c\")\n        /* \"projects/exchange-protocol/contracts/ExzoneRouter01.sol\":11300:11320  IWETH(WETH).transfer */\n      0xffffffffffffffffffffffffffffffffffffffff\n      and\n      0xa9059cbb\n        /* \"projects/exchange-protocol/contracts/ExzoneRouter01.sol\":11321:11369  ExzoneLibrary.pairFor(factory, path[0], path[1]) */\n      tag_343\n        /* \"projects/exchange-protocol/contracts/ExzoneRouter01.sol\":11343:11350  factory */\n      immutable(\"0x5bcd163b2238ff85648d293e01a327b5c7f9ae69498a752a4883e839ddddafcb\")\n        /* \"projects/exchange-protocol/contracts/ExzoneRouter01.sol\":11352:11356  path */\n      dup10\n      dup10\n        /* \"projects/exchange-protocol/contracts/ExzoneRouter01.sol\":11357:11358  0 */\n      0x00\n        /* \"projects/exchange-protocol/contracts/ExzoneRouter01.sol\":11352:11359  path[0] */\n      dup2\n      dup2\n      lt\n      tag_344\n      jumpi\n      invalid\n    tag_344:\n      swap1\n      pop\n      0x20\n      mul\n      add\n      calldataload\n      0xffffffffffffffffffffffffffffffffffffffff\n      and\n        /* \"projects/exchange-protocol/contracts/ExzoneRouter01.sol\":11361:11365  path */\n      dup11\n      dup11\n        /* \"projects/exchange-protocol/contracts/ExzoneRouter01.sol\":11366:11367  1 */\n      0x01\n        /* \"projects/exchange-protocol/contracts/ExzoneRouter01.sol\":11361:11368  path[1] */\n      dup2\n      dup2\n      lt\n      tag_345\n      jumpi\n      invalid\n    tag_345:\n      swap1\n      pop\n      0x20\n      mul\n      add\n      calldataload\n      0xffffffffffffffffffffffffffffffffffffffff\n      and\n        /* \"projects/exchange-protocol/contracts/ExzoneRouter01.sol\":11321:11342  ExzoneLibrary.pairFor */\n      tag_175\n        /* \"projects/exchange-protocol/contracts/ExzoneRouter01.sol\":11321:11369  ExzoneLibrary.pairFor(factory, path[0], path[1]) */\n      jump\t// in\n    tag_343:\n        /* \"projects/exchange-protocol/contracts/ExzoneRouter01.sol\":11371:11378  amounts */\n      dup5\n        /* \"projects/exchange-protocol/contracts/ExzoneRouter01.sol\":11379:11380  0 */\n      0x00\n        /* \"projects/exchange-protocol/contracts/ExzoneRouter01.sol\":11371:11381  amounts[0] */\n      dup2\n      mload\n      dup2\n      lt\n      tag_346\n      jumpi\n      invalid\n    tag_346:\n      0x20\n      mul\n      0x20\n      add\n      add\n      mload\n        /* \"projects/exchange-protocol/contracts/ExzoneRouter01.sol\":11300:11382  IWETH(WETH).transfer(ExzoneLibrary.pairFor(factory, path[0], path[1]), amounts[0]) */\n      mload(0x40)\n      dup4\n      0xffffffff\n      and\n      0xe0\n      shl\n      dup2\n      mstore\n      0x04\n      add\n      dup1\n      dup4\n      0xffffffffffffffffffffffffffffffffffffffff\n      and\n      0xffffffffffffffffffffffffffffffffffffffff\n      and\n      dup2\n      mstore\n      0x20\n      add\n      dup3\n      dup2\n      mstore\n      0x20\n      add\n      swap3\n      pop\n      pop\n      pop\n      0x20\n      mload(0x40)\n      dup1\n      dup4\n      sub\n      dup2\n      0x00\n      dup8\n      dup1\n      extcodesize\n      iszero\n        /* \"--CODEGEN--\":5:14   */\n      dup1\n        /* \"--CODEGEN--\":2:4   */\n      iszero\n      tag_347\n      jumpi\n        /* \"--CODEGEN--\":27:28   */\n      0x00\n        /* \"--CODEGEN--\":24:25   */\n      dup1\n        /* \"--CODEGEN--\":17:29   */\n      revert\n        /* \"--CODEGEN--\":2:4   */\n    tag_347:\n        /* \"projects/exchange-protocol/contracts/ExzoneRouter01.sol\":11300:11382  IWETH(WETH).transfer(ExzoneLibrary.pairFor(factory, path[0], path[1]), amounts[0]) */\n      pop\n      gas\n      call\n      iszero\n        /* \"--CODEGEN--\":8:17   */\n      dup1\n        /* \"--CODEGEN--\":5:7   */\n      iszero\n      tag_349\n      jumpi\n        /* \"--CODEGEN--\":45:61   */\n      returndatasize\n        /* \"--CODEGEN--\":42:43   */\n      0x00\n        /* \"--CODEGEN--\":39:40   */\n      dup1\n        /* \"--CODEGEN--\":24:62   */\n      returndatacopy\n        /* \"--CODEGEN--\":77:93   */\n      returndatasize\n        /* \"--CODEGEN--\":74:75   */\n      0x00\n        /* \"--CODEGEN--\":67:94   */\n      revert\n        /* \"--CODEGEN--\":5:7   */\n    tag_349:\n        /* \"projects/exchange-protocol/contracts/ExzoneRouter01.sol\":11300:11382  IWETH(WETH).transfer(ExzoneLibrary.pairFor(factory, path[0], path[1]), amounts[0]) */\n      pop\n      pop\n      pop\n      pop\n      mload(0x40)\n      returndatasize\n        /* \"--CODEGEN--\":15:17   */\n      0x20\n        /* \"--CODEGEN--\":10:13   */\n      dup2\n        /* \"--CODEGEN--\":7:18   */\n      lt\n        /* \"--CODEGEN--\":4:6   */\n      iszero\n      tag_350\n      jumpi\n        /* \"--CODEGEN--\":31:32   */\n      0x00\n        /* \"--CODEGEN--\":28:29   */\n      dup1\n        /* \"--CODEGEN--\":21:33   */\n      revert\n        /* \"--CODEGEN--\":4:6   */\n    tag_350:\n        /* \"projects/exchange-protocol/contracts/ExzoneRouter01.sol\":11300:11382  IWETH(WETH).transfer(ExzoneLibrary.pairFor(factory, path[0], path[1]), amounts[0]) */\n      dup2\n      add\n      swap1\n      dup1\n      dup1\n      mload\n      swap1\n      0x20\n      add\n      swap1\n      swap3\n      swap2\n      swap1\n      pop\n      pop\n      pop\n        /* \"projects/exchange-protocol/contracts/ExzoneRouter01.sol\":11293:11383  assert(IWETH(WETH).transfer(ExzoneLibrary.pairFor(factory, path[0], path[1]), amounts[0])) */\n      tag_351\n      jumpi\n      invalid\n    tag_351:\n        /* \"projects/exchange-protocol/contracts/ExzoneRouter01.sol\":11393:11417  _swap(amounts, path, to) */\n      tag_352\n        /* \"projects/exchange-protocol/contracts/ExzoneRouter01.sol\":11399:11406  amounts */\n      dup3\n        /* \"projects/exchange-protocol/contracts/ExzoneRouter01.sol\":11408:11412  path */\n      dup8\n      dup8\n        /* \"projects/exchange-protocol/contracts/ExzoneRouter01.sol\":11393:11417  _swap(amounts, path, to) */\n      dup1\n      dup1\n      0x20\n      mul\n      0x20\n      add\n      mload(0x40)\n      swap1\n      dup2\n      add\n      0x40\n      mstore\n      dup1\n      swap4\n      swap3\n      swap2\n      swap1\n      dup2\n      dup2\n      mstore\n      0x20\n      add\n      dup4\n      dup4\n      0x20\n      mul\n        /* \"--CODEGEN--\":30:33   */\n      dup1\n        /* \"--CODEGEN--\":22:28   */\n      dup3\n        /* \"--CODEGEN--\":14:20   */\n      dup5\n        /* \"--CODEGEN--\":1:34   */\n      calldatacopy\n        /* \"--CODEGEN--\":99:100   */\n      0x00\n        /* \"--CODEGEN--\":93:96   */\n      dup2\n        /* \"--CODEGEN--\":85:91   */\n      dup5\n        /* \"--CODEGEN--\":81:97   */\n      add\n        /* \"--CODEGEN--\":74:101   */\n      mstore\n        /* \"--CODEGEN--\":137:141   */\n      0x1f\n        /* \"--CODEGEN--\":133:142   */\n      not\n        /* \"--CODEGEN--\":126:130   */\n      0x1f\n        /* \"--CODEGEN--\":121:124   */\n      dup3\n        /* \"--CODEGEN--\":117:131   */\n      add\n        /* \"--CODEGEN--\":113:143   */\n      and\n        /* \"--CODEGEN--\":106:143   */\n      swap1\n      pop\n        /* \"--CODEGEN--\":169:172   */\n      dup1\n        /* \"--CODEGEN--\":161:167   */\n      dup4\n        /* \"--CODEGEN--\":157:173   */\n      add\n        /* \"--CODEGEN--\":147:173   */\n      swap3\n      pop\n        /* \"projects/exchange-protocol/contracts/ExzoneRouter01.sol\":11393:11417  _swap(amounts, path, to) */\n      pop\n      pop\n      pop\n      pop\n      pop\n      pop\n        /* \"projects/exchange-protocol/contracts/ExzoneRouter01.sol\":11414:11416  to */\n      dup7\n        /* \"projects/exchange-protocol/contracts/ExzoneRouter01.sol\":11393:11398  _swap */\n      tag_179\n        /* \"projects/exchange-protocol/contracts/ExzoneRouter01.sol\":11393:11417  _swap(amounts, path, to) */\n      jump\t// in\n    tag_352:\n        /* \"projects/exchange-protocol/contracts/ExzoneRouter01.sol\":11443:11450  amounts */\n      dup2\n        /* \"projects/exchange-protocol/contracts/ExzoneRouter01.sol\":11451:11452  0 */\n      0x00\n        /* \"projects/exchange-protocol/contracts/ExzoneRouter01.sol\":11443:11453  amounts[0] */\n      dup2\n      mload\n      dup2\n      lt\n      tag_353\n      jumpi\n      invalid\n    tag_353:\n      0x20\n      mul\n      0x20\n      add\n      add\n      mload\n        /* \"projects/exchange-protocol/contracts/ExzoneRouter01.sol\":11431:11440  msg.value */\n      callvalue\n        /* \"projects/exchange-protocol/contracts/ExzoneRouter01.sol\":11431:11453  msg.value > amounts[0] */\n      gt\n        /* \"projects/exchange-protocol/contracts/ExzoneRouter01.sol\":11427:11521  if (msg.value > amounts[0]) TransferHelper.safeTransferETH(msg.sender, msg.value - amounts[0]) */\n      iszero\n      tag_354\n      jumpi\n        /* \"projects/exchange-protocol/contracts/ExzoneRouter01.sol\":11455:11521  TransferHelper.safeTransferETH(msg.sender, msg.value - amounts[0]) */\n      tag_355\n        /* \"projects/exchange-protocol/contracts/ExzoneRouter01.sol\":11486:11496  msg.sender */\n      caller\n        /* \"projects/exchange-protocol/contracts/ExzoneRouter01.sol\":11510:11517  amounts */\n      dup4\n        /* \"projects/exchange-protocol/contracts/ExzoneRouter01.sol\":11518:11519  0 */\n      0x00\n        /* \"projects/exchange-protocol/contracts/ExzoneRouter01.sol\":11510:11520  amounts[0] */\n      dup2\n      mload\n      dup2\n      lt\n      tag_356\n      jumpi\n      invalid\n    tag_356:\n      0x20\n      mul\n      0x20\n      add\n      add\n      mload\n        /* \"projects/exchange-protocol/contracts/ExzoneRouter01.sol\":11498:11507  msg.value */\n      callvalue\n        /* \"projects/exchange-protocol/contracts/ExzoneRouter01.sol\":11498:11520  msg.value - amounts[0] */\n      sub\n        /* \"projects/exchange-protocol/contracts/ExzoneRouter01.sol\":11455:11485  TransferHelper.safeTransferETH */\n      tag_157\n        /* \"projects/exchange-protocol/contracts/ExzoneRouter01.sol\":11455:11521  TransferHelper.safeTransferETH(msg.sender, msg.value - amounts[0]) */\n      jump\t// in\n    tag_355:\n        /* \"projects/exchange-protocol/contracts/ExzoneRouter01.sol\":11427:11521  if (msg.value > amounts[0]) TransferHelper.safeTransferETH(msg.sender, msg.value - amounts[0]) */\n    tag_354:\n        /* \"projects/exchange-protocol/contracts/ExzoneRouter01.sol\":10797:11555  function swapETHForExactTokens(uint amountOut, address[] calldata path, address to, uint deadline)... */\n      pop\n      swap6\n      swap5\n      pop\n      pop\n      pop\n      pop\n      pop\n      jump\t// out\n        /* \"@uniswap/lib/contracts/libraries/TransferHelper.sol\":652:1090  function safeTransfer(... */\n    tag_152:\n        /* \"@uniswap/lib/contracts/libraries/TransferHelper.sol\":832:844  bool success */\n      0x00\n        /* \"@uniswap/lib/contracts/libraries/TransferHelper.sol\":846:863  bytes memory data */\n      0x60\n        /* \"@uniswap/lib/contracts/libraries/TransferHelper.sol\":867:872  token */\n      dup5\n        /* \"@uniswap/lib/contracts/libraries/TransferHelper.sol\":867:877  token.call */\n      0xffffffffffffffffffffffffffffffffffffffff\n      and\n        /* \"@uniswap/lib/contracts/libraries/TransferHelper.sol\":901:911  0xa9059cbb */\n      0xa9059cbb\n        /* \"@uniswap/lib/contracts/libraries/TransferHelper.sol\":913:915  to */\n      dup6\n        /* \"@uniswap/lib/contracts/libraries/TransferHelper.sol\":917:922  value */\n      dup6\n        /* \"@uniswap/lib/contracts/libraries/TransferHelper.sol\":878:923  abi.encodeWithSelector(0xa9059cbb, to, value) */\n      add(0x24, mload(0x40))\n      dup1\n      dup4\n      0xffffffffffffffffffffffffffffffffffffffff\n      and\n      0xffffffffffffffffffffffffffffffffffffffff\n      and\n      dup2\n      mstore\n      0x20\n      add\n      dup3\n      dup2\n      mstore\n      0x20\n      add\n      swap3\n      pop\n      pop\n      pop\n      mload(0x40)\n        /* \"--CODEGEN--\":49:53   */\n      0x20\n        /* \"--CODEGEN--\":39:46   */\n      dup2\n        /* \"--CODEGEN--\":30:37   */\n      dup4\n        /* \"--CODEGEN--\":26:47   */\n      sub\n        /* \"--CODEGEN--\":22:54   */\n      sub\n        /* \"--CODEGEN--\":13:20   */\n      dup2\n        /* \"--CODEGEN--\":6:55   */\n      mstore\n        /* \"@uniswap/lib/contracts/libraries/TransferHelper.sol\":878:923  abi.encodeWithSelector(0xa9059cbb, to, value) */\n      swap1\n      0x40\n      mstore\n      swap1\n      0xe0\n      shl\n        /* \"--CODEGEN--\":38:42   */\n      0x20\n        /* \"--CODEGEN--\":29:36   */\n      dup3\n        /* \"--CODEGEN--\":25:43   */\n      add\n        /* \"--CODEGEN--\":67:77   */\n      dup1\n        /* \"--CODEGEN--\":61:78   */\n      mload\n        /* \"--CODEGEN--\":96:154   */\n      0xffffffffffffffffffffffffffffffffffffffffffffffffffffffff\n        /* \"--CODEGEN--\":199:207   */\n      dup4\n        /* \"--CODEGEN--\":192:196   */\n      dup2\n        /* \"--CODEGEN--\":186:190   */\n      dup4\n        /* \"--CODEGEN--\":182:197   */\n      and\n        /* \"--CODEGEN--\":179:208   */\n      or\n        /* \"--CODEGEN--\":167:177   */\n      dup4\n        /* \"--CODEGEN--\":160:209   */\n      mstore\n        /* \"--CODEGEN--\":0:215   */\n      pop\n      pop\n      pop\n        /* \"@uniswap/lib/contracts/libraries/TransferHelper.sol\":878:923  abi.encodeWithSelector(0xa9059cbb, to, value) */\n      pop\n        /* \"@uniswap/lib/contracts/libraries/TransferHelper.sol\":867:924  token.call(abi.encodeWithSelector(0xa9059cbb, to, value)) */\n      mload(0x40)\n      dup1\n      dup3\n      dup1\n      mload\n      swap1\n      0x20\n      add\n      swap1\n      dup1\n      dup4\n      dup4\n        /* \"--CODEGEN--\":36:189   */\n    tag_358:\n        /* \"--CODEGEN--\":66:68   */\n      0x20\n        /* \"--CODEGEN--\":61:64   */\n      dup4\n        /* \"--CODEGEN--\":58:69   */\n      lt\n        /* \"--CODEGEN--\":36:189   */\n      tag_360\n      jumpi\n        /* \"--CODEGEN--\":182:185   */\n      dup1\n        /* \"--CODEGEN--\":176:186   */\n      mload\n        /* \"--CODEGEN--\":171:174   */\n      dup3\n        /* \"--CODEGEN--\":164:187   */\n      mstore\n        /* \"--CODEGEN--\":98:100   */\n      0x20\n        /* \"--CODEGEN--\":93:96   */\n      dup3\n        /* \"--CODEGEN--\":89:101   */\n      add\n        /* \"--CODEGEN--\":82:101   */\n      swap2\n      pop\n        /* \"--CODEGEN--\":123:125   */\n      0x20\n        /* \"--CODEGEN--\":118:121   */\n      dup2\n        /* \"--CODEGEN--\":114:126   */\n      add\n        /* \"--CODEGEN--\":107:126   */\n      swap1\n      pop\n        /* \"--CODEGEN--\":148:150   */\n      0x20\n        /* \"--CODEGEN--\":143:146   */\n      dup4\n        /* \"--CODEGEN--\":139:151   */\n      sub\n        /* \"--CODEGEN--\":132:151   */\n      swap3\n      pop\n        /* \"--CODEGEN--\":36:189   */\n      jump(tag_358)\n    tag_360:\n        /* \"--CODEGEN--\":274:275   */\n      0x01\n        /* \"--CODEGEN--\":267:270   */\n      dup4\n        /* \"--CODEGEN--\":263:265   */\n      0x20\n        /* \"--CODEGEN--\":259:271   */\n      sub\n        /* \"--CODEGEN--\":254:257   */\n      0x0100\n        /* \"--CODEGEN--\":250:272   */\n      exp\n        /* \"--CODEGEN--\":246:276   */\n      sub\n        /* \"--CODEGEN--\":315:319   */\n      dup1\n        /* \"--CODEGEN--\":311:320   */\n      not\n        /* \"--CODEGEN--\":305:308   */\n      dup3\n        /* \"--CODEGEN--\":299:309   */\n      mload\n        /* \"--CODEGEN--\":295:321   */\n      and\n        /* \"--CODEGEN--\":356:360   */\n      dup2\n        /* \"--CODEGEN--\":350:353   */\n      dup5\n        /* \"--CODEGEN--\":344:354   */\n      mload\n        /* \"--CODEGEN--\":340:361   */\n      and\n        /* \"--CODEGEN--\":389:396   */\n      dup1\n        /* \"--CODEGEN--\":380:387   */\n      dup3\n        /* \"--CODEGEN--\":377:397   */\n      or\n        /* \"--CODEGEN--\":372:375   */\n      dup6\n        /* \"--CODEGEN--\":365:398   */\n      mstore\n        /* \"--CODEGEN--\":3:402   */\n      pop\n      pop\n      pop\n        /* \"@uniswap/lib/contracts/libraries/TransferHelper.sol\":867:924  token.call(abi.encodeWithSelector(0xa9059cbb, to, value)) */\n      pop\n      pop\n      pop\n      swap1\n      pop\n      add\n      swap2\n      pop\n      pop\n      0x00\n      mload(0x40)\n      dup1\n      dup4\n      sub\n      dup2\n      0x00\n      dup7\n      gas\n      call\n      swap2\n      pop\n      pop\n      returndatasize\n        /* \"--CODEGEN--\":12:13   */\n      dup1\n        /* \"--CODEGEN--\":19:20   */\n      0x00\n        /* \"--CODEGEN--\":14:41   */\n      dup2\n      eq\n      tag_363\n      jumpi\n        /* \"--CODEGEN--\":67:71   */\n      0x40\n        /* \"--CODEGEN--\":61:72   */\n      mload\n        /* \"--CODEGEN--\":56:72   */\n      swap2\n      pop\n        /* \"--CODEGEN--\":134:138   */\n      0x1f\n        /* \"--CODEGEN--\":130:139   */\n      not\n        /* \"--CODEGEN--\":123:127   */\n      0x3f\n        /* \"--CODEGEN--\":105:121   */\n      returndatasize\n        /* \"--CODEGEN--\":101:128   */\n      add\n        /* \"--CODEGEN--\":97:140   */\n      and\n        /* \"--CODEGEN--\":94:95   */\n      dup3\n        /* \"--CODEGEN--\":90:141   */\n      add\n        /* \"--CODEGEN--\":84:88   */\n      0x40\n        /* \"--CODEGEN--\":77:142   */\n      mstore\n        /* \"--CODEGEN--\":157:173   */\n      returndatasize\n        /* \"--CODEGEN--\":154:155   */\n      dup3\n        /* \"--CODEGEN--\":147:174   */\n      mstore\n        /* \"--CODEGEN--\":211:227   */\n      returndatasize\n        /* \"--CODEGEN--\":208:209   */\n      0x00\n        /* \"--CODEGEN--\":201:205   */\n      0x20\n        /* \"--CODEGEN--\":198:199   */\n      dup5\n        /* \"--CODEGEN--\":194:206   */\n      add\n        /* \"--CODEGEN--\":179:228   */\n      returndatacopy\n        /* \"--CODEGEN--\":5:233   */\n      jump(tag_362)\n        /* \"--CODEGEN--\":14:41   */\n    tag_363:\n        /* \"--CODEGEN--\":32:36   */\n      0x60\n        /* \"--CODEGEN--\":27:36   */\n      swap2\n      pop\n        /* \"--CODEGEN--\":5:233   */\n    tag_362:\n      pop\n        /* \"@uniswap/lib/contracts/libraries/TransferHelper.sol\":831:924  (bool success, bytes memory data) = token.call(abi.encodeWithSelector(0xa9059cbb, to, value)) */\n      swap2\n      pop\n      swap2\n      pop\n        /* \"@uniswap/lib/contracts/libraries/TransferHelper.sol\":955:962  success */\n      dup2\n        /* \"@uniswap/lib/contracts/libraries/TransferHelper.sol\":955:1012  success && (data.length == 0 || abi.decode(data, (bool))) */\n      dup1\n      iszero\n      tag_364\n      jumpi\n      pop\n        /* \"@uniswap/lib/contracts/libraries/TransferHelper.sol\":982:983  0 */\n      0x00\n        /* \"@uniswap/lib/contracts/libraries/TransferHelper.sol\":967:971  data */\n      dup2\n        /* \"@uniswap/lib/contracts/libraries/TransferHelper.sol\":967:978  data.length */\n      mload\n        /* \"@uniswap/lib/contracts/libraries/TransferHelper.sol\":967:983  data.length == 0 */\n      eq\n        /* \"@uniswap/lib/contracts/libraries/TransferHelper.sol\":967:1011  data.length == 0 || abi.decode(data, (bool)) */\n      dup1\n      tag_365\n      jumpi\n      pop\n        /* \"@uniswap/lib/contracts/libraries/TransferHelper.sol\":998:1002  data */\n      dup1\n        /* \"@uniswap/lib/contracts/libraries/TransferHelper.sol\":987:1011  abi.decode(data, (bool)) */\n      dup1\n      0x20\n      add\n      swap1\n      mload\n        /* \"--CODEGEN--\":15:17   */\n      0x20\n        /* \"--CODEGEN--\":10:13   */\n      dup2\n        /* \"--CODEGEN--\":7:18   */\n      lt\n        /* \"--CODEGEN--\":4:6   */\n      iszero\n      tag_366\n      jumpi\n        /* \"--CODEGEN--\":31:32   */\n      0x00\n        /* \"--CODEGEN--\":28:29   */\n      dup1\n        /* \"--CODEGEN--\":21:33   */\n      revert\n        /* \"--CODEGEN--\":4:6   */\n    tag_366:\n        /* \"@uniswap/lib/contracts/libraries/TransferHelper.sol\":987:1011  abi.decode(data, (bool)) */\n      dup2\n      add\n      swap1\n      dup1\n      dup1\n      mload\n      swap1\n      0x20\n      add\n      swap1\n      swap3\n      swap2\n      swap1\n      pop\n      pop\n      pop\n        /* \"@uniswap/lib/contracts/libraries/TransferHelper.sol\":967:1011  data.length == 0 || abi.decode(data, (bool)) */\n    tag_365:\n        /* \"@uniswap/lib/contracts/libraries/TransferHelper.sol\":955:1012  success && (data.length == 0 || abi.decode(data, (bool))) */\n    tag_364:\n        /* \"@uniswap/lib/contracts/libraries/TransferHelper.sol\":934:1083  require(... */\n      tag_367\n      jumpi\n      mload(0x40)\n      0x08c379a000000000000000000000000000000000000000000000000000000000\n      dup2\n      mstore\n      0x04\n      add\n      dup1\n      dup1\n      0x20\n      add\n      dup3\n      dup2\n      sub\n      dup3\n      mstore\n      0x2d\n      dup2\n      mstore\n      0x20\n      add\n      dup1\n      data_daea69421eeb1164e163c36f3d4349f0db3ec4e0d1381bd5bf4faf53496c2611\n      0x2d\n      swap2\n      codecopy\n      0x40\n      add\n      swap2\n      pop\n      pop\n      mload(0x40)\n      dup1\n      swap2\n      sub\n      swap1\n      revert\n    tag_367:\n        /* \"@uniswap/lib/contracts/libraries/TransferHelper.sol\":652:1090  function safeTransfer(... */\n      pop\n      pop\n      pop\n      pop\n      pop\n      jump\t// out\n        /* \"@uniswap/lib/contracts/libraries/TransferHelper.sol\":1588:1802  function safeTransferETH(address to, uint256 value) internal {... */\n    tag_157:\n        /* \"@uniswap/lib/contracts/libraries/TransferHelper.sol\":1660:1672  bool success */\n      0x00\n        /* \"@uniswap/lib/contracts/libraries/TransferHelper.sol\":1678:1680  to */\n      dup3\n        /* \"@uniswap/lib/contracts/libraries/TransferHelper.sol\":1678:1685  to.call */\n      0xffffffffffffffffffffffffffffffffffffffff\n      and\n        /* \"@uniswap/lib/contracts/libraries/TransferHelper.sol\":1693:1698  value */\n      dup3\n        /* \"@uniswap/lib/contracts/libraries/TransferHelper.sol\":1710:1711  0 */\n      0x00\n        /* \"@uniswap/lib/contracts/libraries/TransferHelper.sol\":1700:1712  new bytes(0) */\n      0xffffffffffffffff\n      dup2\n      gt\n        /* \"--CODEGEN--\":5:14   */\n      dup1\n        /* \"--CODEGEN--\":2:4   */\n      iszero\n      tag_369\n      jumpi\n        /* \"--CODEGEN--\":27:28   */\n      0x00\n        /* \"--CODEGEN--\":24:25   */\n      dup1\n        /* \"--CODEGEN--\":17:29   */\n      revert\n        /* \"--CODEGEN--\":2:4   */\n    tag_369:\n        /* \"@uniswap/lib/contracts/libraries/TransferHelper.sol\":1700:1712  new bytes(0) */\n      pop\n      mload(0x40)\n      swap1\n      dup1\n      dup3\n      mstore\n      dup1\n      0x1f\n      add\n      not(0x1f)\n      and\n      0x20\n      add\n      dup3\n      add\n      0x40\n      mstore\n      dup1\n      iszero\n      tag_370\n      jumpi\n      dup2\n      0x20\n      add\n        /* \"--CODEGEN--\":29:30   */\n      0x01\n        /* \"--CODEGEN--\":21:27   */\n      dup3\n        /* \"--CODEGEN--\":17:31   */\n      mul\n        /* \"--CODEGEN--\":124:128   */\n      dup1\n        /* \"--CODEGEN--\":108:122   */\n      calldatasize\n        /* \"--CODEGEN--\":100:106   */\n      dup4\n        /* \"--CODEGEN--\":87:129   */\n      calldatacopy\n        /* \"--CODEGEN--\":155:159   */\n      dup1\n        /* \"--CODEGEN--\":147:153   */\n      dup3\n        /* \"--CODEGEN--\":143:160   */\n      add\n        /* \"--CODEGEN--\":133:160   */\n      swap2\n      pop\n        /* \"--CODEGEN--\":0:164   */\n      pop\n        /* \"@uniswap/lib/contracts/libraries/TransferHelper.sol\":1700:1712  new bytes(0) */\n      swap1\n      pop\n    tag_370:\n      pop\n        /* \"@uniswap/lib/contracts/libraries/TransferHelper.sol\":1678:1713  to.call{value: value}(new bytes(0)) */\n      mload(0x40)\n      dup1\n      dup3\n      dup1\n      mload\n      swap1\n      0x20\n      add\n      swap1\n      dup1\n      dup4\n      dup4\n        /* \"--CODEGEN--\":36:189   */\n    tag_371:\n        /* \"--CODEGEN--\":66:68   */\n      0x20\n        /* \"--CODEGEN--\":61:64   */\n      dup4\n        /* \"--CODEGEN--\":58:69   */\n      lt\n        /* \"--CODEGEN--\":36:189   */\n      tag_373\n      jumpi\n        /* \"--CODEGEN--\":182:185   */\n      dup1\n        /* \"--CODEGEN--\":176:186   */\n      mload\n        /* \"--CODEGEN--\":171:174   */\n      dup3\n        /* \"--CODEGEN--\":164:187   */\n      mstore\n        /* \"--CODEGEN--\":98:100   */\n      0x20\n        /* \"--CODEGEN--\":93:96   */\n      dup3\n        /* \"--CODEGEN--\":89:101   */\n      add\n        /* \"--CODEGEN--\":82:101   */\n      swap2\n      pop\n        /* \"--CODEGEN--\":123:125   */\n      0x20\n        /* \"--CODEGEN--\":118:121   */\n      dup2\n        /* \"--CODEGEN--\":114:126   */\n      add\n        /* \"--CODEGEN--\":107:126   */\n      swap1\n      pop\n        /* \"--CODEGEN--\":148:150   */\n      0x20\n        /* \"--CODEGEN--\":143:146   */\n      dup4\n        /* \"--CODEGEN--\":139:151   */\n      sub\n        /* \"--CODEGEN--\":132:151   */\n      swap3\n      pop\n        /* \"--CODEGEN--\":36:189   */\n      jump(tag_371)\n    tag_373:\n        /* \"--CODEGEN--\":274:275   */\n      0x01\n        /* \"--CODEGEN--\":267:270   */\n      dup4\n        /* \"--CODEGEN--\":263:265   */\n      0x20\n        /* \"--CODEGEN--\":259:271   */\n      sub\n        /* \"--CODEGEN--\":254:257   */\n      0x0100\n        /* \"--CODEGEN--\":250:272   */\n      exp\n        /* \"--CODEGEN--\":246:276   */\n      sub\n        /* \"--CODEGEN--\":315:319   */\n      dup1\n        /* \"--CODEGEN--\":311:320   */\n      not\n        /* \"--CODEGEN--\":305:308   */\n      dup3\n        /* \"--CODEGEN--\":299:309   */\n      mload\n        /* \"--CODEGEN--\":295:321   */\n      and\n        /* \"--CODEGEN--\":356:360   */\n      dup2\n        /* \"--CODEGEN--\":350:353   */\n      dup5\n        /* \"--CODEGEN--\":344:354   */\n      mload\n        /* \"--CODEGEN--\":340:361   */\n      and\n        /* \"--CODEGEN--\":389:396   */\n      dup1\n        /* \"--CODEGEN--\":380:387   */\n      dup3\n        /* \"--CODEGEN--\":377:397   */\n      or\n        /* \"--CODEGEN--\":372:375   */\n      dup6\n        /* \"--CODEGEN--\":365:398   */\n      mstore\n        /* \"--CODEGEN--\":3:402   */\n      pop\n      pop\n      pop\n        /* \"@uniswap/lib/contracts/libraries/TransferHelper.sol\":1678:1713  to.call{value: value}(new bytes(0)) */\n      pop\n      pop\n      pop\n      swap1\n      pop\n      add\n      swap2\n      pop\n      pop\n      0x00\n      mload(0x40)\n      dup1\n      dup4\n      sub\n      dup2\n      dup6\n      dup8\n      gas\n      call\n      swap3\n      pop\n      pop\n      pop\n      returndatasize\n        /* \"--CODEGEN--\":12:13   */\n      dup1\n        /* \"--CODEGEN--\":19:20   */\n      0x00\n        /* \"--CODEGEN--\":14:41   */\n      dup2\n      eq\n      tag_376\n      jumpi\n        /* \"--CODEGEN--\":67:71   */\n      0x40\n        /* \"--CODEGEN--\":61:72   */\n      mload\n        /* \"--CODEGEN--\":56:72   */\n      swap2\n      pop\n        /* \"--CODEGEN--\":134:138   */\n      0x1f\n        /* \"--CODEGEN--\":130:139   */\n      not\n        /* \"--CODEGEN--\":123:127   */\n      0x3f\n        /* \"--CODEGEN--\":105:121   */\n      returndatasize\n        /* \"--CODEGEN--\":101:128   */\n      add\n        /* \"--CODEGEN--\":97:140   */\n      and\n        /* \"--CODEGEN--\":94:95   */\n      dup3\n        /* \"--CODEGEN--\":90:141   */\n      add\n        /* \"--CODEGEN--\":84:88   */\n      0x40\n        /* \"--CODEGEN--\":77:142   */\n      mstore\n        /* \"--CODEGEN--\":157:173   */\n      returndatasize\n        /* \"--CODEGEN--\":154:155   */\n      dup3\n        /* \"--CODEGEN--\":147:174   */\n      mstore\n        /* \"--CODEGEN--\":211:227   */\n      returndatasize\n        /* \"--CODEGEN--\":208:209   */\n      0x00\n        /* \"--CODEGEN--\":201:205   */\n      0x20\n        /* \"--CODEGEN--\":198:199   */\n      dup5\n        /* \"--CODEGEN--\":194:206   */\n      add\n        /* \"--CODEGEN--\":179:228   */\n      returndatacopy\n        /* \"--CODEGEN--\":5:233   */\n      jump(tag_375)\n        /* \"--CODEGEN--\":14:41   */\n    tag_376:\n        /* \"--CODEGEN--\":32:36   */\n      0x60\n        /* \"--CODEGEN--\":27:36   */\n      swap2\n      pop\n        /* \"--CODEGEN--\":5:233   */\n    tag_375:\n      pop\n        /* \"@uniswap/lib/contracts/libraries/TransferHelper.sol\":1659:1713  (bool success, ) = to.call{value: value}(new bytes(0)) */\n      pop\n      swap1\n      pop\n        /* \"@uniswap/lib/contracts/libraries/TransferHelper.sol\":1731:1738  success */\n      dup1\n        /* \"@uniswap/lib/contracts/libraries/TransferHelper.sol\":1723:1795  require(success, 'TransferHelper::safeTransferETH: ETH transfer failed') */\n      tag_377\n      jumpi\n      mload(0x40)\n      0x08c379a000000000000000000000000000000000000000000000000000000000\n      dup2\n      mstore\n      0x04\n      add\n      dup1\n      dup1\n      0x20\n      add\n      dup3\n      dup2\n      sub\n      dup3\n      mstore\n      0x34\n      dup2\n      mstore\n      0x20\n      add\n      dup1\n      data_43d7bec223ecf9eb06ea147e7d564bc71c2448662d62a4ea86ce71fc4518b350\n      0x34\n      swap2\n      codecopy\n      0x40\n      add\n      swap2\n      pop\n      pop\n      mload(0x40)\n      dup1\n      swap2\n      sub\n      swap1\n      revert\n    tag_377:\n        /* \"@uniswap/lib/contracts/libraries/TransferHelper.sol\":1588:1802  function safeTransferETH(address to, uint256 value) internal {... */\n      pop\n      pop\n      pop\n      jump\t// out\n        /* \"projects/exchange-protocol/contracts/libraries/ExzoneLibrary.sol\":2500:3057  function getAmountOut(... */\n    tag_160:\n        /* \"projects/exchange-protocol/contracts/libraries/ExzoneLibrary.sol\":2632:2649  uint256 amountOut */\n      0x00\n        /* \"projects/exchange-protocol/contracts/libraries/ExzoneLibrary.sol\":2680:2681  0 */\n      dup1\n        /* \"projects/exchange-protocol/contracts/libraries/ExzoneLibrary.sol\":2669:2677  amountIn */\n      dup5\n        /* \"projects/exchange-protocol/contracts/libraries/ExzoneLibrary.sol\":2669:2681  amountIn > 0 */\n      gt\n        /* \"projects/exchange-protocol/contracts/libraries/ExzoneLibrary.sol\":2661:2726  require(amountIn > 0, \"ExzoneLibrary: INSUFFICIENT_INPUT_AMOUNT\") */\n      tag_379\n      jumpi\n      mload(0x40)\n      0x08c379a000000000000000000000000000000000000000000000000000000000\n      dup2\n      mstore\n      0x04\n      add\n      dup1\n      dup1\n      0x20\n      add\n      dup3\n      dup2\n      sub\n      dup3\n      mstore\n      0x28\n      dup2\n      mstore\n      0x20\n      add\n      dup1\n      data_56a563f7a1318bc763d9db2f8f8b222fb6559e7778069cb6771f074864762583\n      0x28\n      swap2\n      codecopy\n      0x40\n      add\n      swap2\n      pop\n      pop\n      mload(0x40)\n      dup1\n      swap2\n      sub\n      swap1\n      revert\n    tag_379:\n        /* \"projects/exchange-protocol/contracts/libraries/ExzoneLibrary.sol\":2756:2757  0 */\n      0x00\n        /* \"projects/exchange-protocol/contracts/libraries/ExzoneLibrary.sol\":2744:2753  reserveIn */\n      dup4\n        /* \"projects/exchange-protocol/contracts/libraries/ExzoneLibrary.sol\":2744:2757  reserveIn > 0 */\n      gt\n        /* \"projects/exchange-protocol/contracts/libraries/ExzoneLibrary.sol\":2744:2775  reserveIn > 0 && reserveOut > 0 */\n      dup1\n      iszero\n      tag_380\n      jumpi\n      pop\n        /* \"projects/exchange-protocol/contracts/libraries/ExzoneLibrary.sol\":2774:2775  0 */\n      0x00\n        /* \"projects/exchange-protocol/contracts/libraries/ExzoneLibrary.sol\":2761:2771  reserveOut */\n      dup3\n        /* \"projects/exchange-protocol/contracts/libraries/ExzoneLibrary.sol\":2761:2775  reserveOut > 0 */\n      gt\n        /* \"projects/exchange-protocol/contracts/libraries/ExzoneLibrary.sol\":2744:2775  reserveIn > 0 && reserveOut > 0 */\n    tag_380:\n        /* \"projects/exchange-protocol/contracts/libraries/ExzoneLibrary.sol\":2736:2817  require(reserveIn > 0 && reserveOut > 0, \"ExzoneLibrary: INSUFFICIENT_LIQUIDITY\") */\n      tag_381\n      jumpi\n      mload(0x40)\n      0x08c379a000000000000000000000000000000000000000000000000000000000\n      dup2\n      mstore\n      0x04\n      add\n      dup1\n      dup1\n      0x20\n      add\n      dup3\n      dup2\n      sub\n      dup3\n      mstore\n      0x25\n      dup2\n      mstore\n      0x20\n      add\n      dup1\n      data_c7068eed4e4163f332086ae443c25eae439375dd6cb939443d9e2816d88e11cf\n      0x25\n      swap2\n      codecopy\n      0x40\n      add\n      swap2\n      pop\n      pop\n      mload(0x40)\n      dup1\n      swap2\n      sub\n      swap1\n      revert\n    tag_381:\n        /* \"projects/exchange-protocol/contracts/libraries/ExzoneLibrary.sol\":2827:2850  uint256 amountInWithFee */\n      0x00\n        /* \"projects/exchange-protocol/contracts/libraries/ExzoneLibrary.sol\":2853:2871  amountIn.mul(9975) */\n      tag_382\n        /* \"projects/exchange-protocol/contracts/libraries/ExzoneLibrary.sol\":2866:2870  9975 */\n      0x26f7\n        /* \"projects/exchange-protocol/contracts/libraries/ExzoneLibrary.sol\":2853:2861  amountIn */\n      dup7\n        /* \"projects/exchange-protocol/contracts/libraries/ExzoneLibrary.sol\":2853:2865  amountIn.mul */\n      tag_383\n      swap1\n        /* \"projects/exchange-protocol/contracts/libraries/ExzoneLibrary.sol\":2853:2871  amountIn.mul(9975) */\n      swap2\n      swap1\n      0xffffffff\n      and\n      jump\t// in\n    tag_382:\n        /* \"projects/exchange-protocol/contracts/libraries/ExzoneLibrary.sol\":2827:2871  uint256 amountInWithFee = amountIn.mul(9975) */\n      swap1\n      pop\n        /* \"projects/exchange-protocol/contracts/libraries/ExzoneLibrary.sol\":2881:2898  uint256 numerator */\n      0x00\n        /* \"projects/exchange-protocol/contracts/libraries/ExzoneLibrary.sol\":2901:2932  amountInWithFee.mul(reserveOut) */\n      tag_384\n        /* \"projects/exchange-protocol/contracts/libraries/ExzoneLibrary.sol\":2921:2931  reserveOut */\n      dup5\n        /* \"projects/exchange-protocol/contracts/libraries/ExzoneLibrary.sol\":2901:2916  amountInWithFee */\n      dup4\n        /* \"projects/exchange-protocol/contracts/libraries/ExzoneLibrary.sol\":2901:2920  amountInWithFee.mul */\n      tag_383\n      swap1\n        /* \"projects/exchange-protocol/contracts/libraries/ExzoneLibrary.sol\":2901:2932  amountInWithFee.mul(reserveOut) */\n      swap2\n      swap1\n      0xffffffff\n      and\n      jump\t// in\n    tag_384:\n        /* \"projects/exchange-protocol/contracts/libraries/ExzoneLibrary.sol\":2881:2932  uint256 numerator = amountInWithFee.mul(reserveOut) */\n      swap1\n      pop\n        /* \"projects/exchange-protocol/contracts/libraries/ExzoneLibrary.sol\":2942:2961  uint256 denominator */\n      0x00\n        /* \"projects/exchange-protocol/contracts/libraries/ExzoneLibrary.sol\":2964:3005  reserveIn.mul(10000).add(amountInWithFee) */\n      tag_385\n        /* \"projects/exchange-protocol/contracts/libraries/ExzoneLibrary.sol\":2989:3004  amountInWithFee */\n      dup4\n        /* \"projects/exchange-protocol/contracts/libraries/ExzoneLibrary.sol\":2964:2984  reserveIn.mul(10000) */\n      tag_386\n        /* \"projects/exchange-protocol/contracts/libraries/ExzoneLibrary.sol\":2978:2983  10000 */\n      0x2710\n        /* \"projects/exchange-protocol/contracts/libraries/ExzoneLibrary.sol\":2964:2973  reserveIn */\n      dup10\n        /* \"projects/exchange-protocol/contracts/libraries/ExzoneLibrary.sol\":2964:2977  reserveIn.mul */\n      tag_383\n      swap1\n        /* \"projects/exchange-protocol/contracts/libraries/ExzoneLibrary.sol\":2964:2984  reserveIn.mul(10000) */\n      swap2\n      swap1\n      0xffffffff\n      and\n      jump\t// in\n    tag_386:\n        /* \"projects/exchange-protocol/contracts/libraries/ExzoneLibrary.sol\":2964:2988  reserveIn.mul(10000).add */\n      tag_387\n      swap1\n        /* \"projects/exchange-protocol/contracts/libraries/ExzoneLibrary.sol\":2964:3005  reserveIn.mul(10000).add(amountInWithFee) */\n      swap2\n      swap1\n      0xffffffff\n      and\n      jump\t// in\n    tag_385:\n        /* \"projects/exchange-protocol/contracts/libraries/ExzoneLibrary.sol\":2942:3005  uint256 denominator = reserveIn.mul(10000).add(amountInWithFee) */\n      swap1\n      pop\n        /* \"projects/exchange-protocol/contracts/libraries/ExzoneLibrary.sol\":3039:3050  denominator */\n      dup1\n        /* \"projects/exchange-protocol/contracts/libraries/ExzoneLibrary.sol\":3027:3036  numerator */\n      dup3\n        /* \"projects/exchange-protocol/contracts/libraries/ExzoneLibrary.sol\":3027:3050  numerator / denominator */\n      dup2\n      tag_388\n      jumpi\n      invalid\n    tag_388:\n      div\n        /* \"projects/exchange-protocol/contracts/libraries/ExzoneLibrary.sol\":3015:3050  amountOut = numerator / denominator */\n      swap4\n      pop\n        /* \"projects/exchange-protocol/contracts/libraries/ExzoneLibrary.sol\":2500:3057  function getAmountOut(... */\n      pop\n      pop\n      pop\n      swap4\n      swap3\n      pop\n      pop\n      pop\n      jump\t// out\n        /* \"projects/exchange-protocol/contracts/libraries/ExzoneLibrary.sol\":3764:4312  function getAmountsOut(... */\n    tag_167:\n        /* \"projects/exchange-protocol/contracts/libraries/ExzoneLibrary.sol\":3898:3922  uint256[] memory amounts */\n      0x60\n        /* \"projects/exchange-protocol/contracts/libraries/ExzoneLibrary.sol\":3957:3958  2 */\n      0x02\n        /* \"projects/exchange-protocol/contracts/libraries/ExzoneLibrary.sol\":3942:3946  path */\n      dup3\n        /* \"projects/exchange-protocol/contracts/libraries/ExzoneLibrary.sol\":3942:3953  path.length */\n      mload\n        /* \"projects/exchange-protocol/contracts/libraries/ExzoneLibrary.sol\":3942:3958  path.length >= 2 */\n      lt\n      iszero\n        /* \"projects/exchange-protocol/contracts/libraries/ExzoneLibrary.sol\":3934:3990  require(path.length >= 2, \"ExzoneLibrary: INVALID_PATH\") */\n      tag_390\n      jumpi\n      mload(0x40)\n      0x08c379a000000000000000000000000000000000000000000000000000000000\n      dup2\n      mstore\n      0x04\n      add\n      dup1\n      dup1\n      0x20\n      add\n      dup3\n      dup2\n      sub\n      dup3\n      mstore\n      0x1b\n      dup2\n      mstore\n      0x20\n      add\n      dup1\n      0x45787a6f6e654c6962726172793a20494e56414c49445f504154480000000000\n      dup2\n      mstore\n      pop\n      0x20\n      add\n      swap2\n      pop\n      pop\n      mload(0x40)\n      dup1\n      swap2\n      sub\n      swap1\n      revert\n    tag_390:\n        /* \"projects/exchange-protocol/contracts/libraries/ExzoneLibrary.sol\":4024:4028  path */\n      dup2\n        /* \"projects/exchange-protocol/contracts/libraries/ExzoneLibrary.sol\":4024:4035  path.length */\n      mload\n        /* \"projects/exchange-protocol/contracts/libraries/ExzoneLibrary.sol\":4010:4036  new uint256[](path.length) */\n      0xffffffffffffffff\n      dup2\n      gt\n        /* \"--CODEGEN--\":5:14   */\n      dup1\n        /* \"--CODEGEN--\":2:4   */\n      iszero\n      tag_391\n      jumpi\n        /* \"--CODEGEN--\":27:28   */\n      0x00\n        /* \"--CODEGEN--\":24:25   */\n      dup1\n        /* \"--CODEGEN--\":17:29   */\n      revert\n        /* \"--CODEGEN--\":2:4   */\n    tag_391:\n        /* \"projects/exchange-protocol/contracts/libraries/ExzoneLibrary.sol\":4010:4036  new uint256[](path.length) */\n      pop\n      mload(0x40)\n      swap1\n      dup1\n      dup3\n      mstore\n      dup1\n      0x20\n      mul\n      0x20\n      add\n      dup3\n      add\n      0x40\n      mstore\n      dup1\n      iszero\n      tag_392\n      jumpi\n      dup2\n      0x20\n      add\n        /* \"--CODEGEN--\":29:31   */\n      0x20\n        /* \"--CODEGEN--\":21:27   */\n      dup3\n        /* \"--CODEGEN--\":17:32   */\n      mul\n        /* \"--CODEGEN--\":125:129   */\n      dup1\n        /* \"--CODEGEN--\":109:123   */\n      calldatasize\n        /* \"--CODEGEN--\":101:107   */\n      dup4\n        /* \"--CODEGEN--\":88:130   */\n      calldatacopy\n        /* \"--CODEGEN--\":156:160   */\n      dup1\n        /* \"--CODEGEN--\":148:154   */\n      dup3\n        /* \"--CODEGEN--\":144:161   */\n      add\n        /* \"--CODEGEN--\":134:161   */\n      swap2\n      pop\n        /* \"--CODEGEN--\":0:165   */\n      pop\n        /* \"projects/exchange-protocol/contracts/libraries/ExzoneLibrary.sol\":4010:4036  new uint256[](path.length) */\n      swap1\n      pop\n    tag_392:\n      pop\n        /* \"projects/exchange-protocol/contracts/libraries/ExzoneLibrary.sol\":4000:4036  amounts = new uint256[](path.length) */\n      swap1\n      pop\n        /* \"projects/exchange-protocol/contracts/libraries/ExzoneLibrary.sol\":4059:4067  amountIn */\n      dup3\n        /* \"projects/exchange-protocol/contracts/libraries/ExzoneLibrary.sol\":4046:4053  amounts */\n      dup2\n        /* \"projects/exchange-protocol/contracts/libraries/ExzoneLibrary.sol\":4054:4055  0 */\n      0x00\n        /* \"projects/exchange-protocol/contracts/libraries/ExzoneLibrary.sol\":4046:4056  amounts[0] */\n      dup2\n      mload\n      dup2\n      lt\n      tag_393\n      jumpi\n      invalid\n    tag_393:\n      0x20\n      mul\n      0x20\n      add\n      add\n        /* \"projects/exchange-protocol/contracts/libraries/ExzoneLibrary.sol\":4046:4067  amounts[0] = amountIn */\n      dup2\n      dup2\n      mstore\n      pop\n      pop\n        /* \"projects/exchange-protocol/contracts/libraries/ExzoneLibrary.sol\":4082:4091  uint256 i */\n      0x00\n        /* \"projects/exchange-protocol/contracts/libraries/ExzoneLibrary.sol\":4077:4306  for (uint256 i; i < path.length - 1; i++) {... */\n    tag_394:\n        /* \"projects/exchange-protocol/contracts/libraries/ExzoneLibrary.sol\":4111:4112  1 */\n      0x01\n        /* \"projects/exchange-protocol/contracts/libraries/ExzoneLibrary.sol\":4097:4101  path */\n      dup4\n        /* \"projects/exchange-protocol/contracts/libraries/ExzoneLibrary.sol\":4097:4108  path.length */\n      mload\n        /* \"projects/exchange-protocol/contracts/libraries/ExzoneLibrary.sol\":4097:4112  path.length - 1 */\n      sub\n        /* \"projects/exchange-protocol/contracts/libraries/ExzoneLibrary.sol\":4093:4094  i */\n      dup2\n        /* \"projects/exchange-protocol/contracts/libraries/ExzoneLibrary.sol\":4093:4112  i < path.length - 1 */\n      lt\n        /* \"projects/exchange-protocol/contracts/libraries/ExzoneLibrary.sol\":4077:4306  for (uint256 i; i < path.length - 1; i++) {... */\n      iszero\n      tag_395\n      jumpi\n        /* \"projects/exchange-protocol/contracts/libraries/ExzoneLibrary.sol\":4134:4151  uint256 reserveIn */\n      0x00\n        /* \"projects/exchange-protocol/contracts/libraries/ExzoneLibrary.sol\":4153:4171  uint256 reserveOut */\n      dup1\n        /* \"projects/exchange-protocol/contracts/libraries/ExzoneLibrary.sol\":4175:4217  getReserves(factory, path[i], path[i + 1]) */\n      tag_397\n        /* \"projects/exchange-protocol/contracts/libraries/ExzoneLibrary.sol\":4187:4194  factory */\n      dup8\n        /* \"projects/exchange-protocol/contracts/libraries/ExzoneLibrary.sol\":4196:4200  path */\n      dup7\n        /* \"projects/exchange-protocol/contracts/libraries/ExzoneLibrary.sol\":4201:4202  i */\n      dup6\n        /* \"projects/exchange-protocol/contracts/libraries/ExzoneLibrary.sol\":4196:4203  path[i] */\n      dup2\n      mload\n      dup2\n      lt\n      tag_398\n      jumpi\n      invalid\n    tag_398:\n      0x20\n      mul\n      0x20\n      add\n      add\n      mload\n        /* \"projects/exchange-protocol/contracts/libraries/ExzoneLibrary.sol\":4205:4209  path */\n      dup8\n        /* \"projects/exchange-protocol/contracts/libraries/ExzoneLibrary.sol\":4214:4215  1 */\n      0x01\n        /* \"projects/exchange-protocol/contracts/libraries/ExzoneLibrary.sol\":4210:4211  i */\n      dup8\n        /* \"projects/exchange-protocol/contracts/libraries/ExzoneLibrary.sol\":4210:4215  i + 1 */\n      add\n        /* \"projects/exchange-protocol/contracts/libraries/ExzoneLibrary.sol\":4205:4216  path[i + 1] */\n      dup2\n      mload\n      dup2\n      lt\n      tag_399\n      jumpi\n      invalid\n    tag_399:\n      0x20\n      mul\n      0x20\n      add\n      add\n      mload\n        /* \"projects/exchange-protocol/contracts/libraries/ExzoneLibrary.sol\":4175:4186  getReserves */\n      tag_400\n        /* \"projects/exchange-protocol/contracts/libraries/ExzoneLibrary.sol\":4175:4217  getReserves(factory, path[i], path[i + 1]) */\n      jump\t// in\n    tag_397:\n        /* \"projects/exchange-protocol/contracts/libraries/ExzoneLibrary.sol\":4133:4217  (uint256 reserveIn, uint256 reserveOut) = getReserves(factory, path[i], path[i + 1]) */\n      swap2\n      pop\n      swap2\n      pop\n        /* \"projects/exchange-protocol/contracts/libraries/ExzoneLibrary.sol\":4248:4295  getAmountOut(amounts[i], reserveIn, reserveOut) */\n      tag_401\n        /* \"projects/exchange-protocol/contracts/libraries/ExzoneLibrary.sol\":4261:4268  amounts */\n      dup5\n        /* \"projects/exchange-protocol/contracts/libraries/ExzoneLibrary.sol\":4269:4270  i */\n      dup5\n        /* \"projects/exchange-protocol/contracts/libraries/ExzoneLibrary.sol\":4261:4271  amounts[i] */\n      dup2\n      mload\n      dup2\n      lt\n      tag_402\n      jumpi\n      invalid\n    tag_402:\n      0x20\n      mul\n      0x20\n      add\n      add\n      mload\n        /* \"projects/exchange-protocol/contracts/libraries/ExzoneLibrary.sol\":4273:4282  reserveIn */\n      dup4\n        /* \"projects/exchange-protocol/contracts/libraries/ExzoneLibrary.sol\":4284:4294  reserveOut */\n      dup4\n        /* \"projects/exchange-protocol/contracts/libraries/ExzoneLibrary.sol\":4248:4260  getAmountOut */\n      tag_160\n        /* \"projects/exchange-protocol/contracts/libraries/ExzoneLibrary.sol\":4248:4295  getAmountOut(amounts[i], reserveIn, reserveOut) */\n      jump\t// in\n    tag_401:\n        /* \"projects/exchange-protocol/contracts/libraries/ExzoneLibrary.sol\":4231:4238  amounts */\n      dup5\n        /* \"projects/exchange-protocol/contracts/libraries/ExzoneLibrary.sol\":4243:4244  1 */\n      0x01\n        /* \"projects/exchange-protocol/contracts/libraries/ExzoneLibrary.sol\":4239:4240  i */\n      dup6\n        /* \"projects/exchange-protocol/contracts/libraries/ExzoneLibrary.sol\":4239:4244  i + 1 */\n      add\n        /* \"projects/exchange-protocol/contracts/libraries/ExzoneLibrary.sol\":4231:4245  amounts[i + 1] */\n      dup2\n      mload\n      dup2\n      lt\n      tag_403\n      jumpi\n      invalid\n    tag_403:\n      0x20\n      mul\n      0x20\n      add\n      add\n        /* \"projects/exchange-protocol/contracts/libraries/ExzoneLibrary.sol\":4231:4295  amounts[i + 1] = getAmountOut(amounts[i], reserveIn, reserveOut) */\n      dup2\n      dup2\n      mstore\n      pop\n      pop\n        /* \"projects/exchange-protocol/contracts/libraries/ExzoneLibrary.sol\":4077:4306  for (uint256 i; i < path.length - 1; i++) {... */\n      pop\n      pop\n        /* \"projects/exchange-protocol/contracts/libraries/ExzoneLibrary.sol\":4114:4117  i++ */\n      dup1\n      dup1\n      0x01\n      add\n      swap2\n      pop\n      pop\n        /* \"projects/exchange-protocol/contracts/libraries/ExzoneLibrary.sol\":4077:4306  for (uint256 i; i < path.length - 1; i++) {... */\n      jump(tag_394)\n    tag_395:\n      pop\n        /* \"projects/exchange-protocol/contracts/libraries/ExzoneLibrary.sol\":3764:4312  function getAmountsOut(... */\n      swap4\n      swap3\n      pop\n      pop\n      pop\n      jump\t// out\n        /* \"projects/exchange-protocol/contracts/libraries/ExzoneLibrary.sol\":760:1393  function pairFor(... */\n    tag_175:\n        /* \"projects/exchange-protocol/contracts/libraries/ExzoneLibrary.sol\":879:891  address pair */\n      0x00\n        /* \"projects/exchange-protocol/contracts/libraries/ExzoneLibrary.sol\":904:918  address token0 */\n      dup1\n        /* \"projects/exchange-protocol/contracts/libraries/ExzoneLibrary.sol\":920:934  address token1 */\n      0x00\n        /* \"projects/exchange-protocol/contracts/libraries/ExzoneLibrary.sol\":938:964  sortTokens(tokenA, tokenB) */\n      tag_405\n        /* \"projects/exchange-protocol/contracts/libraries/ExzoneLibrary.sol\":949:955  tokenA */\n      dup6\n        /* \"projects/exchange-protocol/contracts/libraries/ExzoneLibrary.sol\":957:963  tokenB */\n      dup6\n        /* \"projects/exchange-protocol/contracts/libraries/ExzoneLibrary.sol\":938:948  sortTokens */\n      tag_284\n        /* \"projects/exchange-protocol/contracts/libraries/ExzoneLibrary.sol\":938:964  sortTokens(tokenA, tokenB) */\n      jump\t// in\n    tag_405:\n        /* \"projects/exchange-protocol/contracts/libraries/ExzoneLibrary.sol\":903:964  (address token0, address token1) = sortTokens(tokenA, tokenB) */\n      swap2\n      pop\n      swap2\n      pop\n        /* \"projects/exchange-protocol/contracts/libraries/ExzoneLibrary.sol\":1133:1140  factory */\n      dup6\n        /* \"projects/exchange-protocol/contracts/libraries/ExzoneLibrary.sol\":1193:1199  token0 */\n      dup3\n        /* \"projects/exchange-protocol/contracts/libraries/ExzoneLibrary.sol\":1201:1207  token1 */\n      dup3\n        /* \"projects/exchange-protocol/contracts/libraries/ExzoneLibrary.sol\":1176:1208  abi.encodePacked(token0, token1) */\n      add(0x20, mload(0x40))\n      dup1\n      dup4\n      0xffffffffffffffffffffffffffffffffffffffff\n      and\n      0xffffffffffffffffffffffffffffffffffffffff\n      and\n      0x60\n      shl\n      dup2\n      mstore\n      0x14\n      add\n      dup3\n      0xffffffffffffffffffffffffffffffffffffffff\n      and\n      0xffffffffffffffffffffffffffffffffffffffff\n      and\n      0x60\n      shl\n      dup2\n      mstore\n      0x14\n      add\n      swap3\n      pop\n      pop\n      pop\n      mload(0x40)\n        /* \"--CODEGEN--\":49:53   */\n      0x20\n        /* \"--CODEGEN--\":39:46   */\n      dup2\n        /* \"--CODEGEN--\":30:37   */\n      dup4\n        /* \"--CODEGEN--\":26:47   */\n      sub\n        /* \"--CODEGEN--\":22:54   */\n      sub\n        /* \"--CODEGEN--\":13:20   */\n      dup2\n        /* \"--CODEGEN--\":6:55   */\n      mstore\n        /* \"projects/exchange-protocol/contracts/libraries/ExzoneLibrary.sol\":1176:1208  abi.encodePacked(token0, token1) */\n      swap1\n      0x40\n      mstore\n        /* \"projects/exchange-protocol/contracts/libraries/ExzoneLibrary.sol\":1166:1209  keccak256(abi.encodePacked(token0, token1)) */\n      dup1\n      mload\n      swap1\n      0x20\n      add\n      keccak256\n        /* \"projects/exchange-protocol/contracts/libraries/ExzoneLibrary.sol\":1058:1344  abi.encodePacked(... */\n      add(0x20, mload(0x40))\n      dup1\n      dup1\n      0xff00000000000000000000000000000000000000000000000000000000000000\n      dup2\n      mstore\n      pop\n      0x01\n      add\n      dup4\n      0xffffffffffffffffffffffffffffffffffffffff\n      and\n      0xffffffffffffffffffffffffffffffffffffffff\n      and\n      0x60\n      shl\n      dup2\n      mstore\n      0x14\n      add\n      dup3\n      dup2\n      mstore\n      0x20\n      add\n      dup1\n      0xa5934690703a592a07e841ca29d5e5c79b5e22ed4749057bb216dc31100be1c0\n      dup2\n      mstore\n      pop\n      0x20\n      add\n      swap3\n      pop\n      pop\n      pop\n      mload(0x40)\n        /* \"--CODEGEN--\":49:53   */\n      0x20\n        /* \"--CODEGEN--\":39:46   */\n      dup2\n        /* \"--CODEGEN--\":30:37   */\n      dup4\n        /* \"--CODEGEN--\":26:47   */\n      sub\n        /* \"--CODEGEN--\":22:54   */\n      sub\n        /* \"--CODEGEN--\":13:20   */\n      dup2\n        /* \"--CODEGEN--\":6:55   */\n      mstore\n        /* \"projects/exchange-protocol/contracts/libraries/ExzoneLibrary.sol\":1058:1344  abi.encodePacked(... */\n      swap1\n      0x40\n      mstore\n        /* \"projects/exchange-protocol/contracts/libraries/ExzoneLibrary.sol\":1027:1362  keccak256(... */\n      dup1\n      mload\n      swap1\n      0x20\n      add\n      keccak256\n        /* \"projects/exchange-protocol/contracts/libraries/ExzoneLibrary.sol\":1002:1376  uint256(... */\n      0x00\n      shr\n        /* \"projects/exchange-protocol/contracts/libraries/ExzoneLibrary.sol\":974:1386  pair = address(... */\n      swap3\n      pop\n        /* \"projects/exchange-protocol/contracts/libraries/ExzoneLibrary.sol\":760:1393  function pairFor(... */\n      pop\n      pop\n      swap4\n      swap3\n      pop\n      pop\n      pop\n      jump\t// out\n        /* \"@uniswap/lib/contracts/libraries/TransferHelper.sol\":1096:1582  function safeTransferFrom(... */\n    tag_177:\n        /* \"@uniswap/lib/contracts/libraries/TransferHelper.sol\":1314:1326  bool success */\n      0x00\n        /* \"@uniswap/lib/contracts/libraries/TransferHelper.sol\":1328:1345  bytes memory data */\n      0x60\n        /* \"@uniswap/lib/contracts/libraries/TransferHelper.sol\":1349:1354  token */\n      dup6\n        /* \"@uniswap/lib/contracts/libraries/TransferHelper.sol\":1349:1359  token.call */\n      0xffffffffffffffffffffffffffffffffffffffff\n      and\n        /* \"@uniswap/lib/contracts/libraries/TransferHelper.sol\":1383:1393  0x23b872dd */\n      0x23b872dd\n        /* \"@uniswap/lib/contracts/libraries/TransferHelper.sol\":1395:1399  from */\n      dup7\n        /* \"@uniswap/lib/contracts/libraries/TransferHelper.sol\":1401:1403  to */\n      dup7\n        /* \"@uniswap/lib/contracts/libraries/TransferHelper.sol\":1405:1410  value */\n      dup7\n        /* \"@uniswap/lib/contracts/libraries/TransferHelper.sol\":1360:1411  abi.encodeWithSelector(0x23b872dd, from, to, value) */\n      add(0x24, mload(0x40))\n      dup1\n      dup5\n      0xffffffffffffffffffffffffffffffffffffffff\n      and\n      0xffffffffffffffffffffffffffffffffffffffff\n      and\n      dup2\n      mstore\n      0x20\n      add\n      dup4\n      0xffffffffffffffffffffffffffffffffffffffff\n      and\n      0xffffffffffffffffffffffffffffffffffffffff\n      and\n      dup2\n      mstore\n      0x20\n      add\n      dup3\n      dup2\n      mstore\n      0x20\n      add\n      swap4\n      pop\n      pop\n      pop\n      pop\n      mload(0x40)\n        /* \"--CODEGEN--\":49:53   */\n      0x20\n        /* \"--CODEGEN--\":39:46   */\n      dup2\n        /* \"--CODEGEN--\":30:37   */\n      dup4\n        /* \"--CODEGEN--\":26:47   */\n      sub\n        /* \"--CODEGEN--\":22:54   */\n      sub\n        /* \"--CODEGEN--\":13:20   */\n      dup2\n        /* \"--CODEGEN--\":6:55   */\n      mstore\n        /* \"@uniswap/lib/contracts/libraries/TransferHelper.sol\":1360:1411  abi.encodeWithSelector(0x23b872dd, from, to, value) */\n      swap1\n      0x40\n      mstore\n      swap1\n      0xe0\n      shl\n        /* \"--CODEGEN--\":38:42   */\n      0x20\n        /* \"--CODEGEN--\":29:36   */\n      dup3\n        /* \"--CODEGEN--\":25:43   */\n      add\n        /* \"--CODEGEN--\":67:77   */\n      dup1\n        /* \"--CODEGEN--\":61:78   */\n      mload\n        /* \"--CODEGEN--\":96:154   */\n      0xffffffffffffffffffffffffffffffffffffffffffffffffffffffff\n        /* \"--CODEGEN--\":199:207   */\n      dup4\n        /* \"--CODEGEN--\":192:196   */\n      dup2\n        /* \"--CODEGEN--\":186:190   */\n      dup4\n        /* \"--CODEGEN--\":182:197   */\n      and\n        /* \"--CODEGEN--\":179:208   */\n      or\n        /* \"--CODEGEN--\":167:177   */\n      dup4\n        /* \"--CODEGEN--\":160:209   */\n      mstore\n        /* \"--CODEGEN--\":0:215   */\n      pop\n      pop\n      pop\n        /* \"@uniswap/lib/contracts/libraries/TransferHelper.sol\":1360:1411  abi.encodeWithSelector(0x23b872dd, from, to, value) */\n      pop\n        /* \"@uniswap/lib/contracts/libraries/TransferHelper.sol\":1349:1412  token.call(abi.encodeWithSelector(0x23b872dd, from, to, value)) */\n      mload(0x40)\n      dup1\n      dup3\n      dup1\n      mload\n      swap1\n      0x20\n      add\n      swap1\n      dup1\n      dup4\n      dup4\n        /* \"--CODEGEN--\":36:189   */\n    tag_407:\n        /* \"--CODEGEN--\":66:68   */\n      0x20\n        /* \"--CODEGEN--\":61:64   */\n      dup4\n        /* \"--CODEGEN--\":58:69   */\n      lt\n        /* \"--CODEGEN--\":36:189   */\n      tag_409\n      jumpi\n        /* \"--CODEGEN--\":182:185   */\n      dup1\n        /* \"--CODEGEN--\":176:186   */\n      mload\n        /* \"--CODEGEN--\":171:174   */\n      dup3\n        /* \"--CODEGEN--\":164:187   */\n      mstore\n        /* \"--CODEGEN--\":98:100   */\n      0x20\n        /* \"--CODEGEN--\":93:96   */\n      dup3\n        /* \"--CODEGEN--\":89:101   */\n      add\n        /* \"--CODEGEN--\":82:101   */\n      swap2\n      pop\n        /* \"--CODEGEN--\":123:125   */\n      0x20\n        /* \"--CODEGEN--\":118:121   */\n      dup2\n        /* \"--CODEGEN--\":114:126   */\n      add\n        /* \"--CODEGEN--\":107:126   */\n      swap1\n      pop\n        /* \"--CODEGEN--\":148:150   */\n      0x20\n        /* \"--CODEGEN--\":143:146   */\n      dup4\n        /* \"--CODEGEN--\":139:151   */\n      sub\n        /* \"--CODEGEN--\":132:151   */\n      swap3\n      pop\n        /* \"--CODEGEN--\":36:189   */\n      jump(tag_407)\n    tag_409:\n        /* \"--CODEGEN--\":274:275   */\n      0x01\n        /* \"--CODEGEN--\":267:270   */\n      dup4\n        /* \"--CODEGEN--\":263:265   */\n      0x20\n        /* \"--CODEGEN--\":259:271   */\n      sub\n        /* \"--CODEGEN--\":254:257   */\n      0x0100\n        /* \"--CODEGEN--\":250:272   */\n      exp\n        /* \"--CODEGEN--\":246:276   */\n      sub\n        /* \"--CODEGEN--\":315:319   */\n      dup1\n        /* \"--CODEGEN--\":311:320   */\n      not\n        /* \"--CODEGEN--\":305:308   */\n      dup3\n        /* \"--CODEGEN--\":299:309   */\n      mload\n        /* \"--CODEGEN--\":295:321   */\n      and\n        /* \"--CODEGEN--\":356:360   */\n      dup2\n        /* \"--CODEGEN--\":350:353   */\n      dup5\n        /* \"--CODEGEN--\":344:354   */\n      mload\n        /* \"--CODEGEN--\":340:361   */\n      and\n        /* \"--CODEGEN--\":389:396   */\n      dup1\n        /* \"--CODEGEN--\":380:387   */\n      dup3\n        /* \"--CODEGEN--\":377:397   */\n      or\n        /* \"--CODEGEN--\":372:375   */\n      dup6\n        /* \"--CODEGEN--\":365:398   */\n      mstore\n        /* \"--CODEGEN--\":3:402   */\n      pop\n      pop\n      pop\n        /* \"@uniswap/lib/contracts/libraries/TransferHelper.sol\":1349:1412  token.call(abi.encodeWithSelector(0x23b872dd, from, to, value)) */\n      pop\n      pop\n      pop\n      swap1\n      pop\n      add\n      swap2\n      pop\n      pop\n      0x00\n      mload(0x40)\n      dup1\n      dup4\n      sub\n      dup2\n      0x00\n      dup7\n      gas\n      call\n      swap2\n      pop\n      pop\n      returndatasize\n        /* \"--CODEGEN--\":12:13   */\n      dup1\n        /* \"--CODEGEN--\":19:20   */\n      0x00\n        /* \"--CODEGEN--\":14:41   */\n      dup2\n      eq\n      tag_412\n      jumpi\n        /* \"--CODEGEN--\":67:71   */\n      0x40\n        /* \"--CODEGEN--\":61:72   */\n      mload\n        /* \"--CODEGEN--\":56:72   */\n      swap2\n      pop\n        /* \"--CODEGEN--\":134:138   */\n      0x1f\n        /* \"--CODEGEN--\":130:139   */\n      not\n        /* \"--CODEGEN--\":123:127   */\n      0x3f\n        /* \"--CODEGEN--\":105:121   */\n      returndatasize\n        /* \"--CODEGEN--\":101:128   */\n      add\n        /* \"--CODEGEN--\":97:140   */\n      and\n        /* \"--CODEGEN--\":94:95   */\n      dup3\n        /* \"--CODEGEN--\":90:141   */\n      add\n        /* \"--CODEGEN--\":84:88   */\n      0x40\n        /* \"--CODEGEN--\":77:142   */\n      mstore\n        /* \"--CODEGEN--\":157:173   */\n      returndatasize\n        /* \"--CODEGEN--\":154:155   */\n      dup3\n        /* \"--CODEGEN--\":147:174   */\n      mstore\n        /* \"--CODEGEN--\":211:227   */\n      returndatasize\n        /* \"--CODEGEN--\":208:209   */\n      0x00\n        /* \"--CODEGEN--\":201:205   */\n      0x20\n        /* \"--CODEGEN--\":198:199   */\n      dup5\n        /* \"--CODEGEN--\":194:206   */\n      add\n        /* \"--CODEGEN--\":179:228   */\n      returndatacopy\n        /* \"--CODEGEN--\":5:233   */\n      jump(tag_411)\n        /* \"--CODEGEN--\":14:41   */\n    tag_412:\n        /* \"--CODEGEN--\":32:36   */\n      0x60\n        /* \"--CODEGEN--\":27:36   */\n      swap2\n      pop\n        /* \"--CODEGEN--\":5:233   */\n    tag_411:\n      pop\n        /* \"@uniswap/lib/contracts/libraries/TransferHelper.sol\":1313:1412  (bool success, bytes memory data) = token.call(abi.encodeWithSelector(0x23b872dd, from, to, value)) */\n      swap2\n      pop\n      swap2\n      pop\n        /* \"@uniswap/lib/contracts/libraries/TransferHelper.sol\":1443:1450  success */\n      dup2\n        /* \"@uniswap/lib/contracts/libraries/TransferHelper.sol\":1443:1500  success && (data.length == 0 || abi.decode(data, (bool))) */\n      dup1\n      iszero\n      tag_413\n      jumpi\n      pop\n        /* \"@uniswap/lib/contracts/libraries/TransferHelper.sol\":1470:1471  0 */\n      0x00\n        /* \"@uniswap/lib/contracts/libraries/TransferHelper.sol\":1455:1459  data */\n      dup2\n        /* \"@uniswap/lib/contracts/libraries/TransferHelper.sol\":1455:1466  data.length */\n      mload\n        /* \"@uniswap/lib/contracts/libraries/TransferHelper.sol\":1455:1471  data.length == 0 */\n      eq\n        /* \"@uniswap/lib/contracts/libraries/TransferHelper.sol\":1455:1499  data.length == 0 || abi.decode(data, (bool)) */\n      dup1\n      tag_414\n      jumpi\n      pop\n        /* \"@uniswap/lib/contracts/libraries/TransferHelper.sol\":1486:1490  data */\n      dup1\n        /* \"@uniswap/lib/contracts/libraries/TransferHelper.sol\":1475:1499  abi.decode(data, (bool)) */\n      dup1\n      0x20\n      add\n      swap1\n      mload\n        /* \"--CODEGEN--\":15:17   */\n      0x20\n        /* \"--CODEGEN--\":10:13   */\n      dup2\n        /* \"--CODEGEN--\":7:18   */\n      lt\n        /* \"--CODEGEN--\":4:6   */\n      iszero\n      tag_415\n      jumpi\n        /* \"--CODEGEN--\":31:32   */\n      0x00\n        /* \"--CODEGEN--\":28:29   */\n      dup1\n        /* \"--CODEGEN--\":21:33   */\n      revert\n        /* \"--CODEGEN--\":4:6   */\n    tag_415:\n        /* \"@uniswap/lib/contracts/libraries/TransferHelper.sol\":1475:1499  abi.decode(data, (bool)) */\n      dup2\n      add\n      swap1\n      dup1\n      dup1\n      mload\n      swap1\n      0x20\n      add\n      swap1\n      swap3\n      swap2\n      swap1\n      pop\n      pop\n      pop\n        /* \"@uniswap/lib/contracts/libraries/TransferHelper.sol\":1455:1499  data.length == 0 || abi.decode(data, (bool)) */\n    tag_414:\n        /* \"@uniswap/lib/contracts/libraries/TransferHelper.sol\":1443:1500  success && (data.length == 0 || abi.decode(data, (bool))) */\n    tag_413:\n        /* \"@uniswap/lib/contracts/libraries/TransferHelper.sol\":1422:1575  require(... */\n      tag_416\n      jumpi\n      mload(0x40)\n      0x08c379a000000000000000000000000000000000000000000000000000000000\n      dup2\n      mstore\n      0x04\n      add\n      dup1\n      dup1\n      0x20\n      add\n      dup3\n      dup2\n      sub\n      dup3\n      mstore\n      0x31\n      dup2\n      mstore\n      0x20\n      add\n      dup1\n      data_3f8faf98afe9344b6d4b0e75b0101259bf282914b3b5a9320c6918b6e27ede1c\n      0x31\n      swap2\n      codecopy\n      0x40\n      add\n      swap2\n      pop\n      pop\n      mload(0x40)\n      dup1\n      swap2\n      sub\n      swap1\n      revert\n    tag_416:\n        /* \"@uniswap/lib/contracts/libraries/TransferHelper.sol\":1096:1582  function safeTransferFrom(... */\n      pop\n      pop\n      pop\n      pop\n      pop\n      pop\n      jump\t// out\n        /* \"projects/exchange-protocol/contracts/ExzoneRouter01.sol\":6763:7436  function _swap(uint[] memory amounts, address[] memory path, address _to) private {... */\n    tag_179:\n        /* \"projects/exchange-protocol/contracts/ExzoneRouter01.sol\":6860:6866  uint i */\n      0x00\n        /* \"projects/exchange-protocol/contracts/ExzoneRouter01.sol\":6855:7430  for (uint i; i < path.length - 1; i++) {... */\n    tag_418:\n        /* \"projects/exchange-protocol/contracts/ExzoneRouter01.sol\":6886:6887  1 */\n      0x01\n        /* \"projects/exchange-protocol/contracts/ExzoneRouter01.sol\":6872:6876  path */\n      dup4\n        /* \"projects/exchange-protocol/contracts/ExzoneRouter01.sol\":6872:6883  path.length */\n      mload\n        /* \"projects/exchange-protocol/contracts/ExzoneRouter01.sol\":6872:6887  path.length - 1 */\n      sub\n        /* \"projects/exchange-protocol/contracts/ExzoneRouter01.sol\":6868:6869  i */\n      dup2\n        /* \"projects/exchange-protocol/contracts/ExzoneRouter01.sol\":6868:6887  i < path.length - 1 */\n      lt\n        /* \"projects/exchange-protocol/contracts/ExzoneRouter01.sol\":6855:7430  for (uint i; i < path.length - 1; i++) {... */\n      iszero\n      tag_419\n      jumpi\n        /* \"projects/exchange-protocol/contracts/ExzoneRouter01.sol\":6909:6922  address input */\n      0x00\n        /* \"projects/exchange-protocol/contracts/ExzoneRouter01.sol\":6924:6938  address output */\n      dup1\n        /* \"projects/exchange-protocol/contracts/ExzoneRouter01.sol\":6943:6947  path */\n      dup5\n        /* \"projects/exchange-protocol/contracts/ExzoneRouter01.sol\":6948:6949  i */\n      dup4\n        /* \"projects/exchange-protocol/contracts/ExzoneRouter01.sol\":6943:6950  path[i] */\n      dup2\n      mload\n      dup2\n      lt\n      tag_421\n      jumpi\n      invalid\n    tag_421:\n      0x20\n      mul\n      0x20\n      add\n      add\n      mload\n        /* \"projects/exchange-protocol/contracts/ExzoneRouter01.sol\":6952:6956  path */\n      dup6\n        /* \"projects/exchange-protocol/contracts/ExzoneRouter01.sol\":6961:6962  1 */\n      0x01\n        /* \"projects/exchange-protocol/contracts/ExzoneRouter01.sol\":6957:6958  i */\n      dup6\n        /* \"projects/exchange-protocol/contracts/ExzoneRouter01.sol\":6957:6962  i + 1 */\n      add\n        /* \"projects/exchange-protocol/contracts/ExzoneRouter01.sol\":6952:6963  path[i + 1] */\n      dup2\n      mload\n      dup2\n      lt\n      tag_422\n      jumpi\n      invalid\n    tag_422:\n      0x20\n      mul\n      0x20\n      add\n      add\n      mload\n        /* \"projects/exchange-protocol/contracts/ExzoneRouter01.sol\":6908:6964  (address input, address output) = (path[i], path[i + 1]) */\n      swap2\n      pop\n      swap2\n      pop\n        /* \"projects/exchange-protocol/contracts/ExzoneRouter01.sol\":6979:6993  address token0 */\n      0x00\n        /* \"projects/exchange-protocol/contracts/ExzoneRouter01.sol\":6998:7037  ExzoneLibrary.sortTokens(input, output) */\n      tag_423\n        /* \"projects/exchange-protocol/contracts/ExzoneRouter01.sol\":7023:7028  input */\n      dup4\n        /* \"projects/exchange-protocol/contracts/ExzoneRouter01.sol\":7030:7036  output */\n      dup4\n        /* \"projects/exchange-protocol/contracts/ExzoneRouter01.sol\":6998:7022  ExzoneLibrary.sortTokens */\n      tag_284\n        /* \"projects/exchange-protocol/contracts/ExzoneRouter01.sol\":6998:7037  ExzoneLibrary.sortTokens(input, output) */\n      jump\t// in\n    tag_423:\n        /* \"projects/exchange-protocol/contracts/ExzoneRouter01.sol\":6978:7037  (address token0,) = ExzoneLibrary.sortTokens(input, output) */\n      pop\n      swap1\n      pop\n        /* \"projects/exchange-protocol/contracts/ExzoneRouter01.sol\":7051:7065  uint amountOut */\n      0x00\n        /* \"projects/exchange-protocol/contracts/ExzoneRouter01.sol\":7068:7075  amounts */\n      dup8\n        /* \"projects/exchange-protocol/contracts/ExzoneRouter01.sol\":7080:7081  1 */\n      0x01\n        /* \"projects/exchange-protocol/contracts/ExzoneRouter01.sol\":7076:7077  i */\n      dup7\n        /* \"projects/exchange-protocol/contracts/ExzoneRouter01.sol\":7076:7081  i + 1 */\n      add\n        /* \"projects/exchange-protocol/contracts/ExzoneRouter01.sol\":7068:7082  amounts[i + 1] */\n      dup2\n      mload\n      dup2\n      lt\n      tag_424\n      jumpi\n      invalid\n    tag_424:\n      0x20\n      mul\n      0x20\n      add\n      add\n      mload\n        /* \"projects/exchange-protocol/contracts/ExzoneRouter01.sol\":7051:7082  uint amountOut = amounts[i + 1] */\n      swap1\n      pop\n        /* \"projects/exchange-protocol/contracts/ExzoneRouter01.sol\":7097:7112  uint amount0Out */\n      0x00\n        /* \"projects/exchange-protocol/contracts/ExzoneRouter01.sol\":7114:7129  uint amount1Out */\n      dup1\n        /* \"projects/exchange-protocol/contracts/ExzoneRouter01.sol\":7142:7148  token0 */\n      dup4\n        /* \"projects/exchange-protocol/contracts/ExzoneRouter01.sol\":7133:7148  input == token0 */\n      0xffffffffffffffffffffffffffffffffffffffff\n      and\n        /* \"projects/exchange-protocol/contracts/ExzoneRouter01.sol\":7133:7138  input */\n      dup7\n        /* \"projects/exchange-protocol/contracts/ExzoneRouter01.sol\":7133:7148  input == token0 */\n      0xffffffffffffffffffffffffffffffffffffffff\n      and\n      eq\n        /* \"projects/exchange-protocol/contracts/ExzoneRouter01.sol\":7133:7194  input == token0 ? (uint(0), amountOut) : (amountOut, uint(0)) */\n      tag_425\n      jumpi\n        /* \"projects/exchange-protocol/contracts/ExzoneRouter01.sol\":7175:7184  amountOut */\n      dup3\n        /* \"projects/exchange-protocol/contracts/ExzoneRouter01.sol\":7191:7192  0 */\n      0x00\n        /* \"projects/exchange-protocol/contracts/ExzoneRouter01.sol\":7133:7194  input == token0 ? (uint(0), amountOut) : (amountOut, uint(0)) */\n      jump(tag_426)\n    tag_425:\n        /* \"projects/exchange-protocol/contracts/ExzoneRouter01.sol\":7157:7158  0 */\n      0x00\n        /* \"projects/exchange-protocol/contracts/ExzoneRouter01.sol\":7161:7170  amountOut */\n      dup4\n        /* \"projects/exchange-protocol/contracts/ExzoneRouter01.sol\":7133:7194  input == token0 ? (uint(0), amountOut) : (amountOut, uint(0)) */\n    tag_426:\n        /* \"projects/exchange-protocol/contracts/ExzoneRouter01.sol\":7096:7194  (uint amount0Out, uint amount1Out) = input == token0 ? (uint(0), amountOut) : (amountOut, uint(0)) */\n      swap2\n      pop\n      swap2\n      pop\n        /* \"projects/exchange-protocol/contracts/ExzoneRouter01.sol\":7208:7218  address to */\n      0x00\n        /* \"projects/exchange-protocol/contracts/ExzoneRouter01.sol\":7239:7240  2 */\n      0x02\n        /* \"projects/exchange-protocol/contracts/ExzoneRouter01.sol\":7225:7229  path */\n      dup11\n        /* \"projects/exchange-protocol/contracts/ExzoneRouter01.sol\":7225:7236  path.length */\n      mload\n        /* \"projects/exchange-protocol/contracts/ExzoneRouter01.sol\":7225:7240  path.length - 2 */\n      sub\n        /* \"projects/exchange-protocol/contracts/ExzoneRouter01.sol\":7221:7222  i */\n      dup9\n        /* \"projects/exchange-protocol/contracts/ExzoneRouter01.sol\":7221:7240  i < path.length - 2 */\n      lt\n        /* \"projects/exchange-protocol/contracts/ExzoneRouter01.sol\":7221:7300  i < path.length - 2 ? ExzoneLibrary.pairFor(factory, output, path[i + 2]) : _to */\n      tag_427\n      jumpi\n        /* \"projects/exchange-protocol/contracts/ExzoneRouter01.sol\":7297:7300  _to */\n      dup9\n        /* \"projects/exchange-protocol/contracts/ExzoneRouter01.sol\":7221:7300  i < path.length - 2 ? ExzoneLibrary.pairFor(factory, output, path[i + 2]) : _to */\n      jump(tag_428)\n    tag_427:\n        /* \"projects/exchange-protocol/contracts/ExzoneRouter01.sol\":7243:7294  ExzoneLibrary.pairFor(factory, output, path[i + 2]) */\n      tag_429\n        /* \"projects/exchange-protocol/contracts/ExzoneRouter01.sol\":7265:7272  factory */\n      immutable(\"0x5bcd163b2238ff85648d293e01a327b5c7f9ae69498a752a4883e839ddddafcb\")\n        /* \"projects/exchange-protocol/contracts/ExzoneRouter01.sol\":7274:7280  output */\n      dup8\n        /* \"projects/exchange-protocol/contracts/ExzoneRouter01.sol\":7282:7286  path */\n      dup13\n        /* \"projects/exchange-protocol/contracts/ExzoneRouter01.sol\":7291:7292  2 */\n      0x02\n        /* \"projects/exchange-protocol/contracts/ExzoneRouter01.sol\":7287:7288  i */\n      dup13\n        /* \"projects/exchange-protocol/contracts/ExzoneRouter01.sol\":7287:7292  i + 2 */\n      add\n        /* \"projects/exchange-protocol/contracts/ExzoneRouter01.sol\":7282:7293  path[i + 2] */\n      dup2\n      mload\n      dup2\n      lt\n      tag_430\n      jumpi\n      invalid\n    tag_430:\n      0x20\n      mul\n      0x20\n      add\n      add\n      mload\n        /* \"projects/exchange-protocol/contracts/ExzoneRouter01.sol\":7243:7264  ExzoneLibrary.pairFor */\n      tag_175\n        /* \"projects/exchange-protocol/contracts/ExzoneRouter01.sol\":7243:7294  ExzoneLibrary.pairFor(factory, output, path[i + 2]) */\n      jump\t// in\n    tag_429:\n        /* \"projects/exchange-protocol/contracts/ExzoneRouter01.sol\":7221:7300  i < path.length - 2 ? ExzoneLibrary.pairFor(factory, output, path[i + 2]) : _to */\n    tag_428:\n        /* \"projects/exchange-protocol/contracts/ExzoneRouter01.sol\":7208:7300  address to = i < path.length - 2 ? ExzoneLibrary.pairFor(factory, output, path[i + 2]) : _to */\n      swap1\n      pop\n        /* \"projects/exchange-protocol/contracts/ExzoneRouter01.sol\":7326:7371  ExzoneLibrary.pairFor(factory, input, output) */\n      tag_431\n        /* \"projects/exchange-protocol/contracts/ExzoneRouter01.sol\":7348:7355  factory */\n      immutable(\"0x5bcd163b2238ff85648d293e01a327b5c7f9ae69498a752a4883e839ddddafcb\")\n        /* \"projects/exchange-protocol/contracts/ExzoneRouter01.sol\":7357:7362  input */\n      dup9\n        /* \"projects/exchange-protocol/contracts/ExzoneRouter01.sol\":7364:7370  output */\n      dup9\n        /* \"projects/exchange-protocol/contracts/ExzoneRouter01.sol\":7326:7347  ExzoneLibrary.pairFor */\n      tag_175\n        /* \"projects/exchange-protocol/contracts/ExzoneRouter01.sol\":7326:7371  ExzoneLibrary.pairFor(factory, input, output) */\n      jump\t// in\n    tag_431:\n        /* \"projects/exchange-protocol/contracts/ExzoneRouter01.sol\":7314:7377  IExzonePair(ExzoneLibrary.pairFor(factory, input, output)).swap */\n      0xffffffffffffffffffffffffffffffffffffffff\n      and\n      0x022c0d9f\n        /* \"projects/exchange-protocol/contracts/ExzoneRouter01.sol\":7378:7388  amount0Out */\n      dup5\n        /* \"projects/exchange-protocol/contracts/ExzoneRouter01.sol\":7390:7400  amount1Out */\n      dup5\n        /* \"projects/exchange-protocol/contracts/ExzoneRouter01.sol\":7402:7404  to */\n      dup5\n        /* \"projects/exchange-protocol/contracts/ExzoneRouter01.sol\":7416:7417  0 */\n      0x00\n        /* \"projects/exchange-protocol/contracts/ExzoneRouter01.sol\":7406:7418  new bytes(0) */\n      0xffffffffffffffff\n      dup2\n      gt\n        /* \"--CODEGEN--\":5:14   */\n      dup1\n        /* \"--CODEGEN--\":2:4   */\n      iszero\n      tag_432\n      jumpi\n        /* \"--CODEGEN--\":27:28   */\n      0x00\n        /* \"--CODEGEN--\":24:25   */\n      dup1\n        /* \"--CODEGEN--\":17:29   */\n      revert\n        /* \"--CODEGEN--\":2:4   */\n    tag_432:\n        /* \"projects/exchange-protocol/contracts/ExzoneRouter01.sol\":7406:7418  new bytes(0) */\n      pop\n      mload(0x40)\n      swap1\n      dup1\n      dup3\n      mstore\n      dup1\n      0x1f\n      add\n      not(0x1f)\n      and\n      0x20\n      add\n      dup3\n      add\n      0x40\n      mstore\n      dup1\n      iszero\n      tag_433\n      jumpi\n      dup2\n      0x20\n      add\n        /* \"--CODEGEN--\":29:30   */\n      0x01\n        /* \"--CODEGEN--\":21:27   */\n      dup3\n        /* \"--CODEGEN--\":17:31   */\n      mul\n        /* \"--CODEGEN--\":124:128   */\n      dup1\n        /* \"--CODEGEN--\":108:122   */\n      calldatasize\n        /* \"--CODEGEN--\":100:106   */\n      dup4\n        /* \"--CODEGEN--\":87:129   */\n      calldatacopy\n        /* \"--CODEGEN--\":155:159   */\n      dup1\n        /* \"--CODEGEN--\":147:153   */\n      dup3\n        /* \"--CODEGEN--\":143:160   */\n      add\n        /* \"--CODEGEN--\":133:160   */\n      swap2\n      pop\n        /* \"--CODEGEN--\":0:164   */\n      pop\n        /* \"projects/exchange-protocol/contracts/ExzoneRouter01.sol\":7406:7418  new bytes(0) */\n      swap1\n      pop\n    tag_433:\n      pop\n        /* \"projects/exchange-protocol/contracts/ExzoneRouter01.sol\":7314:7419  IExzonePair(ExzoneLibrary.pairFor(factory, input, output)).swap(amount0Out, amount1Out, to, new bytes(0)) */\n      mload(0x40)\n      dup6\n      0xffffffff\n      and\n      0xe0\n      shl\n      dup2\n      mstore\n      0x04\n      add\n      dup1\n      dup6\n      dup2\n      mstore\n      0x20\n      add\n      dup5\n      dup2\n      mstore\n      0x20\n      add\n      dup4\n      0xffffffffffffffffffffffffffffffffffffffff\n      and\n      0xffffffffffffffffffffffffffffffffffffffff\n      and\n      dup2\n      mstore\n      0x20\n      add\n      dup1\n      0x20\n      add\n      dup3\n      dup2\n      sub\n      dup3\n      mstore\n      dup4\n      dup2\n      dup2\n      mload\n      dup2\n      mstore\n      0x20\n      add\n      swap2\n      pop\n      dup1\n      mload\n      swap1\n      0x20\n      add\n      swap1\n      dup1\n      dup4\n      dup4\n        /* \"--CODEGEN--\":23:24   */\n      0x00\n        /* \"--CODEGEN--\":8:108   */\n    tag_434:\n        /* \"--CODEGEN--\":33:36   */\n      dup4\n        /* \"--CODEGEN--\":30:31   */\n      dup2\n        /* \"--CODEGEN--\":27:37   */\n      lt\n        /* \"--CODEGEN--\":8:108   */\n      iszero\n      tag_436\n      jumpi\n        /* \"--CODEGEN--\":99:100   */\n      dup1\n        /* \"--CODEGEN--\":94:97   */\n      dup3\n        /* \"--CODEGEN--\":90:101   */\n      add\n        /* \"--CODEGEN--\":84:102   */\n      mload\n        /* \"--CODEGEN--\":80:81   */\n      dup2\n        /* \"--CODEGEN--\":75:78   */\n      dup5\n        /* \"--CODEGEN--\":71:82   */\n      add\n        /* \"--CODEGEN--\":64:103   */\n      mstore\n        /* \"--CODEGEN--\":52:54   */\n      0x20\n        /* \"--CODEGEN--\":49:50   */\n      dup2\n        /* \"--CODEGEN--\":45:55   */\n      add\n        /* \"--CODEGEN--\":40:55   */\n      swap1\n      pop\n        /* \"--CODEGEN--\":8:108   */\n      jump(tag_434)\n    tag_436:\n        /* \"--CODEGEN--\":12:26   */\n      pop\n        /* \"projects/exchange-protocol/contracts/ExzoneRouter01.sol\":7314:7419  IExzonePair(ExzoneLibrary.pairFor(factory, input, output)).swap(amount0Out, amount1Out, to, new bytes(0)) */\n      pop\n      pop\n      pop\n      swap1\n      pop\n      swap1\n      dup2\n      add\n      swap1\n      0x1f\n      and\n      dup1\n      iszero\n      tag_437\n      jumpi\n      dup1\n      dup3\n      sub\n      dup1\n      mload\n      0x01\n      dup4\n      0x20\n      sub\n      0x0100\n      exp\n      sub\n      not\n      and\n      dup2\n      mstore\n      0x20\n      add\n      swap2\n      pop\n    tag_437:\n      pop\n      swap6\n      pop\n      pop\n      pop\n      pop\n      pop\n      pop\n      0x00\n      mload(0x40)\n      dup1\n      dup4\n      sub\n      dup2\n      0x00\n      dup8\n      dup1\n      extcodesize\n      iszero\n        /* \"--CODEGEN--\":5:14   */\n      dup1\n        /* \"--CODEGEN--\":2:4   */\n      iszero\n      tag_438\n      jumpi\n        /* \"--CODEGEN--\":27:28   */\n      0x00\n        /* \"--CODEGEN--\":24:25   */\n      dup1\n        /* \"--CODEGEN--\":17:29   */\n      revert\n        /* \"--CODEGEN--\":2:4   */\n    tag_438:\n        /* \"projects/exchange-protocol/contracts/ExzoneRouter01.sol\":7314:7419  IExzonePair(ExzoneLibrary.pairFor(factory, input, output)).swap(amount0Out, amount1Out, to, new bytes(0)) */\n      pop\n      gas\n      call\n      iszero\n        /* \"--CODEGEN--\":8:17   */\n      dup1\n        /* \"--CODEGEN--\":5:7   */\n      iszero\n      tag_440\n      jumpi\n        /* \"--CODEGEN--\":45:61   */\n      returndatasize\n        /* \"--CODEGEN--\":42:43   */\n      0x00\n        /* \"--CODEGEN--\":39:40   */\n      dup1\n        /* \"--CODEGEN--\":24:62   */\n      returndatacopy\n        /* \"--CODEGEN--\":77:93   */\n      returndatasize\n        /* \"--CODEGEN--\":74:75   */\n      0x00\n        /* \"--CODEGEN--\":67:94   */\n      revert\n        /* \"--CODEGEN--\":5:7   */\n    tag_440:\n        /* \"projects/exchange-protocol/contracts/ExzoneRouter01.sol\":7314:7419  IExzonePair(ExzoneLibrary.pairFor(factory, input, output)).swap(amount0Out, amount1Out, to, new bytes(0)) */\n      pop\n      pop\n      pop\n      pop\n        /* \"projects/exchange-protocol/contracts/ExzoneRouter01.sol\":6855:7430  for (uint i; i < path.length - 1; i++) {... */\n      pop\n      pop\n      pop\n      pop\n      pop\n      pop\n      pop\n        /* \"projects/exchange-protocol/contracts/ExzoneRouter01.sol\":6889:6892  i++ */\n      dup1\n      dup1\n      0x01\n      add\n      swap2\n      pop\n      pop\n        /* \"projects/exchange-protocol/contracts/ExzoneRouter01.sol\":6855:7430  for (uint i; i < path.length - 1; i++) {... */\n      jump(tag_418)\n    tag_419:\n      pop\n        /* \"projects/exchange-protocol/contracts/ExzoneRouter01.sol\":6763:7436  function _swap(uint[] memory amounts, address[] memory path, address _to) private {... */\n      pop\n      pop\n      pop\n      jump\t// out\n        /* \"projects/exchange-protocol/contracts/libraries/ExzoneLibrary.sol\":4390:4959  function getAmountsIn(... */\n    tag_188:\n        /* \"projects/exchange-protocol/contracts/libraries/ExzoneLibrary.sol\":4524:4548  uint256[] memory amounts */\n      0x60\n        /* \"projects/exchange-protocol/contracts/libraries/ExzoneLibrary.sol\":4583:4584  2 */\n      0x02\n        /* \"projects/exchange-protocol/contracts/libraries/ExzoneLibrary.sol\":4568:4572  path */\n      dup3\n        /* \"projects/exchange-protocol/contracts/libraries/ExzoneLibrary.sol\":4568:4579  path.length */\n      mload\n        /* \"projects/exchange-protocol/contracts/libraries/ExzoneLibrary.sol\":4568:4584  path.length >= 2 */\n      lt\n      iszero\n        /* \"projects/exchange-protocol/contracts/libraries/ExzoneLibrary.sol\":4560:4616  require(path.length >= 2, \"ExzoneLibrary: INVALID_PATH\") */\n      tag_442\n      jumpi\n      mload(0x40)\n      0x08c379a000000000000000000000000000000000000000000000000000000000\n      dup2\n      mstore\n      0x04\n      add\n      dup1\n      dup1\n      0x20\n      add\n      dup3\n      dup2\n      sub\n      dup3\n      mstore\n      0x1b\n      dup2\n      mstore\n      0x20\n      add\n      dup1\n      0x45787a6f6e654c6962726172793a20494e56414c49445f504154480000000000\n      dup2\n      mstore\n      pop\n      0x20\n      add\n      swap2\n      pop\n      pop\n      mload(0x40)\n      dup1\n      swap2\n      sub\n      swap1\n      revert\n    tag_442:\n        /* \"projects/exchange-protocol/contracts/libraries/ExzoneLibrary.sol\":4650:4654  path */\n      dup2\n        /* \"projects/exchange-protocol/contracts/libraries/ExzoneLibrary.sol\":4650:4661  path.length */\n      mload\n        /* \"projects/exchange-protocol/contracts/libraries/ExzoneLibrary.sol\":4636:4662  new uint256[](path.length) */\n      0xffffffffffffffff\n      dup2\n      gt\n        /* \"--CODEGEN--\":5:14   */\n      dup1\n        /* \"--CODEGEN--\":2:4   */\n      iszero\n      tag_443\n      jumpi\n        /* \"--CODEGEN--\":27:28   */\n      0x00\n        /* \"--CODEGEN--\":24:25   */\n      dup1\n        /* \"--CODEGEN--\":17:29   */\n      revert\n        /* \"--CODEGEN--\":2:4   */\n    tag_443:\n        /* \"projects/exchange-protocol/contracts/libraries/ExzoneLibrary.sol\":4636:4662  new uint256[](path.length) */\n      pop\n      mload(0x40)\n      swap1\n      dup1\n      dup3\n      mstore\n      dup1\n      0x20\n      mul\n      0x20\n      add\n      dup3\n      add\n      0x40\n      mstore\n      dup1\n      iszero\n      tag_444\n      jumpi\n      dup2\n      0x20\n      add\n        /* \"--CODEGEN--\":29:31   */\n      0x20\n        /* \"--CODEGEN--\":21:27   */\n      dup3\n        /* \"--CODEGEN--\":17:32   */\n      mul\n        /* \"--CODEGEN--\":125:129   */\n      dup1\n        /* \"--CODEGEN--\":109:123   */\n      calldatasize\n        /* \"--CODEGEN--\":101:107   */\n      dup4\n        /* \"--CODEGEN--\":88:130   */\n      calldatacopy\n        /* \"--CODEGEN--\":156:160   */\n      dup1\n        /* \"--CODEGEN--\":148:154   */\n      dup3\n        /* \"--CODEGEN--\":144:161   */\n      add\n        /* \"--CODEGEN--\":134:161   */\n      swap2\n      pop\n        /* \"--CODEGEN--\":0:165   */\n      pop\n        /* \"projects/exchange-protocol/contracts/libraries/ExzoneLibrary.sol\":4636:4662  new uint256[](path.length) */\n      swap1\n      pop\n    tag_444:\n      pop\n        /* \"projects/exchange-protocol/contracts/libraries/ExzoneLibrary.sol\":4626:4662  amounts = new uint256[](path.length) */\n      swap1\n      pop\n        /* \"projects/exchange-protocol/contracts/libraries/ExzoneLibrary.sol\":4702:4711  amountOut */\n      dup3\n        /* \"projects/exchange-protocol/contracts/libraries/ExzoneLibrary.sol\":4672:4679  amounts */\n      dup2\n        /* \"projects/exchange-protocol/contracts/libraries/ExzoneLibrary.sol\":4697:4698  1 */\n      0x01\n        /* \"projects/exchange-protocol/contracts/libraries/ExzoneLibrary.sol\":4680:4687  amounts */\n      dup4\n        /* \"projects/exchange-protocol/contracts/libraries/ExzoneLibrary.sol\":4680:4694  amounts.length */\n      mload\n        /* \"projects/exchange-protocol/contracts/libraries/ExzoneLibrary.sol\":4680:4698  amounts.length - 1 */\n      sub\n        /* \"projects/exchange-protocol/contracts/libraries/ExzoneLibrary.sol\":4672:4699  amounts[amounts.length - 1] */\n      dup2\n      mload\n      dup2\n      lt\n      tag_445\n      jumpi\n      invalid\n    tag_445:\n      0x20\n      mul\n      0x20\n      add\n      add\n        /* \"projects/exchange-protocol/contracts/libraries/ExzoneLibrary.sol\":4672:4711  amounts[amounts.length - 1] = amountOut */\n      dup2\n      dup2\n      mstore\n      pop\n      pop\n        /* \"projects/exchange-protocol/contracts/libraries/ExzoneLibrary.sol\":4726:4735  uint256 i */\n      0x00\n        /* \"projects/exchange-protocol/contracts/libraries/ExzoneLibrary.sol\":4752:4753  1 */\n      0x01\n        /* \"projects/exchange-protocol/contracts/libraries/ExzoneLibrary.sol\":4738:4742  path */\n      dup4\n        /* \"projects/exchange-protocol/contracts/libraries/ExzoneLibrary.sol\":4738:4749  path.length */\n      mload\n        /* \"projects/exchange-protocol/contracts/libraries/ExzoneLibrary.sol\":4738:4753  path.length - 1 */\n      sub\n        /* \"projects/exchange-protocol/contracts/libraries/ExzoneLibrary.sol\":4726:4753  uint256 i = path.length - 1 */\n      swap1\n      pop\n        /* \"projects/exchange-protocol/contracts/libraries/ExzoneLibrary.sol\":4721:4953  for (uint256 i = path.length - 1; i > 0; i--) {... */\n    tag_446:\n        /* \"projects/exchange-protocol/contracts/libraries/ExzoneLibrary.sol\":4759:4760  0 */\n      0x00\n        /* \"projects/exchange-protocol/contracts/libraries/ExzoneLibrary.sol\":4755:4756  i */\n      dup2\n        /* \"projects/exchange-protocol/contracts/libraries/ExzoneLibrary.sol\":4755:4760  i > 0 */\n      gt\n        /* \"projects/exchange-protocol/contracts/libraries/ExzoneLibrary.sol\":4721:4953  for (uint256 i = path.length - 1; i > 0; i--) {... */\n      iszero\n      tag_447\n      jumpi\n        /* \"projects/exchange-protocol/contracts/libraries/ExzoneLibrary.sol\":4782:4799  uint256 reserveIn */\n      0x00\n        /* \"projects/exchange-protocol/contracts/libraries/ExzoneLibrary.sol\":4801:4819  uint256 reserveOut */\n      dup1\n        /* \"projects/exchange-protocol/contracts/libraries/ExzoneLibrary.sol\":4823:4865  getReserves(factory, path[i - 1], path[i]) */\n      tag_449\n        /* \"projects/exchange-protocol/contracts/libraries/ExzoneLibrary.sol\":4835:4842  factory */\n      dup8\n        /* \"projects/exchange-protocol/contracts/libraries/ExzoneLibrary.sol\":4844:4848  path */\n      dup7\n        /* \"projects/exchange-protocol/contracts/libraries/ExzoneLibrary.sol\":4853:4854  1 */\n      0x01\n        /* \"projects/exchange-protocol/contracts/libraries/ExzoneLibrary.sol\":4849:4850  i */\n      dup7\n        /* \"projects/exchange-protocol/contracts/libraries/ExzoneLibrary.sol\":4849:4854  i - 1 */\n      sub\n        /* \"projects/exchange-protocol/contracts/libraries/ExzoneLibrary.sol\":4844:4855  path[i - 1] */\n      dup2\n      mload\n      dup2\n      lt\n      tag_450\n      jumpi\n      invalid\n    tag_450:\n      0x20\n      mul\n      0x20\n      add\n      add\n      mload\n        /* \"projects/exchange-protocol/contracts/libraries/ExzoneLibrary.sol\":4857:4861  path */\n      dup8\n        /* \"projects/exchange-protocol/contracts/libraries/ExzoneLibrary.sol\":4862:4863  i */\n      dup7\n        /* \"projects/exchange-protocol/contracts/libraries/ExzoneLibrary.sol\":4857:4864  path[i] */\n      dup2\n      mload\n      dup2\n      lt\n      tag_451\n      jumpi\n      invalid\n    tag_451:\n      0x20\n      mul\n      0x20\n      add\n      add\n      mload\n        /* \"projects/exchange-protocol/contracts/libraries/ExzoneLibrary.sol\":4823:4834  getReserves */\n      tag_400\n        /* \"projects/exchange-protocol/contracts/libraries/ExzoneLibrary.sol\":4823:4865  getReserves(factory, path[i - 1], path[i]) */\n      jump\t// in\n    tag_449:\n        /* \"projects/exchange-protocol/contracts/libraries/ExzoneLibrary.sol\":4781:4865  (uint256 reserveIn, uint256 reserveOut) = getReserves(factory, path[i - 1], path[i]) */\n      swap2\n      pop\n      swap2\n      pop\n        /* \"projects/exchange-protocol/contracts/libraries/ExzoneLibrary.sol\":4896:4942  getAmountIn(amounts[i], reserveIn, reserveOut) */\n      tag_452\n        /* \"projects/exchange-protocol/contracts/libraries/ExzoneLibrary.sol\":4908:4915  amounts */\n      dup5\n        /* \"projects/exchange-protocol/contracts/libraries/ExzoneLibrary.sol\":4916:4917  i */\n      dup5\n        /* \"projects/exchange-protocol/contracts/libraries/ExzoneLibrary.sol\":4908:4918  amounts[i] */\n      dup2\n      mload\n      dup2\n      lt\n      tag_453\n      jumpi\n      invalid\n    tag_453:\n      0x20\n      mul\n      0x20\n      add\n      add\n      mload\n        /* \"projects/exchange-protocol/contracts/libraries/ExzoneLibrary.sol\":4920:4929  reserveIn */\n      dup4\n        /* \"projects/exchange-protocol/contracts/libraries/ExzoneLibrary.sol\":4931:4941  reserveOut */\n      dup4\n        /* \"projects/exchange-protocol/contracts/libraries/ExzoneLibrary.sol\":4896:4907  getAmountIn */\n      tag_454\n        /* \"projects/exchange-protocol/contracts/libraries/ExzoneLibrary.sol\":4896:4942  getAmountIn(amounts[i], reserveIn, reserveOut) */\n      jump\t// in\n    tag_452:\n        /* \"projects/exchange-protocol/contracts/libraries/ExzoneLibrary.sol\":4879:4886  amounts */\n      dup5\n        /* \"projects/exchange-protocol/contracts/libraries/ExzoneLibrary.sol\":4891:4892  1 */\n      0x01\n        /* \"projects/exchange-protocol/contracts/libraries/ExzoneLibrary.sol\":4887:4888  i */\n      dup6\n        /* \"projects/exchange-protocol/contracts/libraries/ExzoneLibrary.sol\":4887:4892  i - 1 */\n      sub\n        /* \"projects/exchange-protocol/contracts/libraries/ExzoneLibrary.sol\":4879:4893  amounts[i - 1] */\n      dup2\n      mload\n      dup2\n      lt\n      tag_455\n      jumpi\n      invalid\n    tag_455:\n      0x20\n      mul\n      0x20\n      add\n      add\n        /* \"projects/exchange-protocol/contracts/libraries/ExzoneLibrary.sol\":4879:4942  amounts[i - 1] = getAmountIn(amounts[i], reserveIn, reserveOut) */\n      dup2\n      dup2\n      mstore\n      pop\n      pop\n        /* \"projects/exchange-protocol/contracts/libraries/ExzoneLibrary.sol\":4721:4953  for (uint256 i = path.length - 1; i > 0; i--) {... */\n      pop\n      pop\n        /* \"projects/exchange-protocol/contracts/libraries/ExzoneLibrary.sol\":4762:4765  i-- */\n      dup1\n      dup1\n      0x01\n      swap1\n      sub\n      swap2\n      pop\n      pop\n        /* \"projects/exchange-protocol/contracts/libraries/ExzoneLibrary.sol\":4721:4953  for (uint256 i = path.length - 1; i > 0; i--) {... */\n      jump(tag_446)\n    tag_447:\n      pop\n        /* \"projects/exchange-protocol/contracts/libraries/ExzoneLibrary.sol\":4390:4959  function getAmountsIn(... */\n      swap4\n      swap3\n      pop\n      pop\n      pop\n      jump\t// out\n        /* \"projects/exchange-protocol/contracts/libraries/ExzoneLibrary.sol\":2028:2381  function quote(... */\n    tag_270:\n        /* \"projects/exchange-protocol/contracts/libraries/ExzoneLibrary.sol\":2149:2164  uint256 amountB */\n      0x00\n        /* \"projects/exchange-protocol/contracts/libraries/ExzoneLibrary.sol\":2194:2195  0 */\n      dup1\n        /* \"projects/exchange-protocol/contracts/libraries/ExzoneLibrary.sol\":2184:2191  amountA */\n      dup5\n        /* \"projects/exchange-protocol/contracts/libraries/ExzoneLibrary.sol\":2184:2195  amountA > 0 */\n      gt\n        /* \"projects/exchange-protocol/contracts/libraries/ExzoneLibrary.sol\":2176:2234  require(amountA > 0, \"ExzoneLibrary: INSUFFICIENT_AMOUNT\") */\n      tag_457\n      jumpi\n      mload(0x40)\n      0x08c379a000000000000000000000000000000000000000000000000000000000\n      dup2\n      mstore\n      0x04\n      add\n      dup1\n      dup1\n      0x20\n      add\n      dup3\n      dup2\n      sub\n      dup3\n      mstore\n      0x22\n      dup2\n      mstore\n      0x20\n      add\n      dup1\n      data_918a6fec0f0d59a5e54d38ef780d55bceedc2a21c478d3ae3d029712e7f1a370\n      0x22\n      swap2\n      codecopy\n      0x40\n      add\n      swap2\n      pop\n      pop\n      mload(0x40)\n      dup1\n      swap2\n      sub\n      swap1\n      revert\n    tag_457:\n        /* \"projects/exchange-protocol/contracts/libraries/ExzoneLibrary.sol\":2263:2264  0 */\n      0x00\n        /* \"projects/exchange-protocol/contracts/libraries/ExzoneLibrary.sol\":2252:2260  reserveA */\n      dup4\n        /* \"projects/exchange-protocol/contracts/libraries/ExzoneLibrary.sol\":2252:2264  reserveA > 0 */\n      gt\n        /* \"projects/exchange-protocol/contracts/libraries/ExzoneLibrary.sol\":2252:2280  reserveA > 0 && reserveB > 0 */\n      dup1\n      iszero\n      tag_458\n      jumpi\n      pop\n        /* \"projects/exchange-protocol/contracts/libraries/ExzoneLibrary.sol\":2279:2280  0 */\n      0x00\n        /* \"projects/exchange-protocol/contracts/libraries/ExzoneLibrary.sol\":2268:2276  reserveB */\n      dup3\n        /* \"projects/exchange-protocol/contracts/libraries/ExzoneLibrary.sol\":2268:2280  reserveB > 0 */\n      gt\n        /* \"projects/exchange-protocol/contracts/libraries/ExzoneLibrary.sol\":2252:2280  reserveA > 0 && reserveB > 0 */\n    tag_458:\n        /* \"projects/exchange-protocol/contracts/libraries/ExzoneLibrary.sol\":2244:2322  require(reserveA > 0 && reserveB > 0, \"ExzoneLibrary: INSUFFICIENT_LIQUIDITY\") */\n      tag_459\n      jumpi\n      mload(0x40)\n      0x08c379a000000000000000000000000000000000000000000000000000000000\n      dup2\n      mstore\n      0x04\n      add\n      dup1\n      dup1\n      0x20\n      add\n      dup3\n      dup2\n      sub\n      dup3\n      mstore\n      0x25\n      dup2\n      mstore\n      0x20\n      add\n      dup1\n      data_c7068eed4e4163f332086ae443c25eae439375dd6cb939443d9e2816d88e11cf\n      0x25\n      swap2\n      codecopy\n      0x40\n      add\n      swap2\n      pop\n      pop\n      mload(0x40)\n      dup1\n      swap2\n      sub\n      swap1\n      revert\n    tag_459:\n        /* \"projects/exchange-protocol/contracts/libraries/ExzoneLibrary.sol\":2366:2374  reserveA */\n      dup3\n        /* \"projects/exchange-protocol/contracts/libraries/ExzoneLibrary.sol\":2342:2363  amountA.mul(reserveB) */\n      tag_460\n        /* \"projects/exchange-protocol/contracts/libraries/ExzoneLibrary.sol\":2354:2362  reserveB */\n      dup4\n        /* \"projects/exchange-protocol/contracts/libraries/ExzoneLibrary.sol\":2342:2349  amountA */\n      dup7\n        /* \"projects/exchange-protocol/contracts/libraries/ExzoneLibrary.sol\":2342:2353  amountA.mul */\n      tag_383\n      swap1\n        /* \"projects/exchange-protocol/contracts/libraries/ExzoneLibrary.sol\":2342:2363  amountA.mul(reserveB) */\n      swap2\n      swap1\n      0xffffffff\n      and\n      jump\t// in\n    tag_460:\n        /* \"projects/exchange-protocol/contracts/libraries/ExzoneLibrary.sol\":2342:2374  amountA.mul(reserveB) / reserveA */\n      dup2\n      tag_461\n      jumpi\n      invalid\n    tag_461:\n      div\n        /* \"projects/exchange-protocol/contracts/libraries/ExzoneLibrary.sol\":2332:2374  amountB = amountA.mul(reserveB) / reserveA */\n      swap1\n      pop\n        /* \"projects/exchange-protocol/contracts/libraries/ExzoneLibrary.sol\":2028:2381  function quote(... */\n      swap4\n      swap3\n      pop\n      pop\n      pop\n      jump\t// out\n        /* \"projects/exchange-protocol/contracts/libraries/ExzoneLibrary.sol\":332:671  function sortTokens(address tokenA, address tokenB) internal pure returns (address token0, address token1) {... */\n    tag_284:\n        /* \"projects/exchange-protocol/contracts/libraries/ExzoneLibrary.sol\":407:421  address token0 */\n      0x00\n        /* \"projects/exchange-protocol/contracts/libraries/ExzoneLibrary.sol\":423:437  address token1 */\n      dup1\n        /* \"projects/exchange-protocol/contracts/libraries/ExzoneLibrary.sol\":467:473  tokenB */\n      dup3\n        /* \"projects/exchange-protocol/contracts/libraries/ExzoneLibrary.sol\":457:473  tokenA != tokenB */\n      0xffffffffffffffffffffffffffffffffffffffff\n      and\n        /* \"projects/exchange-protocol/contracts/libraries/ExzoneLibrary.sol\":457:463  tokenA */\n      dup5\n        /* \"projects/exchange-protocol/contracts/libraries/ExzoneLibrary.sol\":457:473  tokenA != tokenB */\n      0xffffffffffffffffffffffffffffffffffffffff\n      and\n      eq\n      iszero\n        /* \"projects/exchange-protocol/contracts/libraries/ExzoneLibrary.sol\":449:512  require(tokenA != tokenB, \"ExzoneLibrary: IDENTICAL_ADDRESSES\") */\n      tag_463\n      jumpi\n      mload(0x40)\n      0x08c379a000000000000000000000000000000000000000000000000000000000\n      dup2\n      mstore\n      0x04\n      add\n      dup1\n      dup1\n      0x20\n      add\n      dup3\n      dup2\n      sub\n      dup3\n      mstore\n      0x22\n      dup2\n      mstore\n      0x20\n      add\n      dup1\n      data_b406ac1c541ad2d72f740c6dec579f6cd789af847e0fb1e0e6526532cb2fd113\n      0x22\n      swap2\n      codecopy\n      0x40\n      add\n      swap2\n      pop\n      pop\n      mload(0x40)\n      dup1\n      swap2\n      sub\n      swap1\n      revert\n    tag_463:\n        /* \"projects/exchange-protocol/contracts/libraries/ExzoneLibrary.sol\":550:556  tokenB */\n      dup3\n        /* \"projects/exchange-protocol/contracts/libraries/ExzoneLibrary.sol\":541:556  tokenA < tokenB */\n      0xffffffffffffffffffffffffffffffffffffffff\n      and\n        /* \"projects/exchange-protocol/contracts/libraries/ExzoneLibrary.sol\":541:547  tokenA */\n      dup5\n        /* \"projects/exchange-protocol/contracts/libraries/ExzoneLibrary.sol\":541:556  tokenA < tokenB */\n      0xffffffffffffffffffffffffffffffffffffffff\n      and\n      lt\n        /* \"projects/exchange-protocol/contracts/libraries/ExzoneLibrary.sol\":541:594  tokenA < tokenB ? (tokenA, tokenB) : (tokenB, tokenA) */\n      tag_464\n      jumpi\n        /* \"projects/exchange-protocol/contracts/libraries/ExzoneLibrary.sol\":579:585  tokenB */\n      dup3\n        /* \"projects/exchange-protocol/contracts/libraries/ExzoneLibrary.sol\":587:593  tokenA */\n      dup5\n        /* \"projects/exchange-protocol/contracts/libraries/ExzoneLibrary.sol\":541:594  tokenA < tokenB ? (tokenA, tokenB) : (tokenB, tokenA) */\n      jump(tag_465)\n    tag_464:\n        /* \"projects/exchange-protocol/contracts/libraries/ExzoneLibrary.sol\":560:566  tokenA */\n      dup4\n        /* \"projects/exchange-protocol/contracts/libraries/ExzoneLibrary.sol\":568:574  tokenB */\n      dup4\n        /* \"projects/exchange-protocol/contracts/libraries/ExzoneLibrary.sol\":541:594  tokenA < tokenB ? (tokenA, tokenB) : (tokenB, tokenA) */\n    tag_465:\n        /* \"projects/exchange-protocol/contracts/libraries/ExzoneLibrary.sol\":522:594  (token0, token1) = tokenA < tokenB ? (tokenA, tokenB) : (tokenB, tokenA) */\n      dup1\n      swap3\n      pop\n      dup2\n      swap4\n      pop\n      pop\n      pop\n        /* \"projects/exchange-protocol/contracts/libraries/ExzoneLibrary.sol\":630:631  0 */\n      0x00\n        /* \"projects/exchange-protocol/contracts/libraries/ExzoneLibrary.sol\":612:632  token0 != address(0) */\n      0xffffffffffffffffffffffffffffffffffffffff\n      and\n        /* \"projects/exchange-protocol/contracts/libraries/ExzoneLibrary.sol\":612:618  token0 */\n      dup3\n        /* \"projects/exchange-protocol/contracts/libraries/ExzoneLibrary.sol\":612:632  token0 != address(0) */\n      0xffffffffffffffffffffffffffffffffffffffff\n      and\n      eq\n      iszero\n        /* \"projects/exchange-protocol/contracts/libraries/ExzoneLibrary.sol\":604:664  require(token0 != address(0), \"ExzoneLibrary: ZERO_ADDRESS\") */\n      tag_466\n      jumpi\n      mload(0x40)\n      0x08c379a000000000000000000000000000000000000000000000000000000000\n      dup2\n      mstore\n      0x04\n      add\n      dup1\n      dup1\n      0x20\n      add\n      dup3\n      dup2\n      sub\n      dup3\n      mstore\n      0x1b\n      dup2\n      mstore\n      0x20\n      add\n      dup1\n      0x45787a6f6e654c6962726172793a205a45524f5f414444524553530000000000\n      dup2\n      mstore\n      pop\n      0x20\n      add\n      swap2\n      pop\n      pop\n      mload(0x40)\n      dup1\n      swap2\n      sub\n      swap1\n      revert\n    tag_466:\n        /* \"projects/exchange-protocol/contracts/libraries/ExzoneLibrary.sol\":332:671  function sortTokens(address tokenA, address tokenB) internal pure returns (address token0, address token1) {... */\n      swap3\n      pop\n      swap3\n      swap1\n      pop\n      jump\t// out\n        /* \"projects/exchange-protocol/contracts/ExzoneRouter01.sol\":861:2194  function _addLiquidity(... */\n    tag_303:\n        /* \"projects/exchange-protocol/contracts/ExzoneRouter01.sol\":1063:1075  uint amountA */\n      0x00\n        /* \"projects/exchange-protocol/contracts/ExzoneRouter01.sol\":1077:1089  uint amountB */\n      dup1\n        /* \"projects/exchange-protocol/contracts/ExzoneRouter01.sol\":1215:1216  0 */\n      0x00\n        /* \"projects/exchange-protocol/contracts/ExzoneRouter01.sol\":1156:1217  IExzoneFactory(factory).getPair(tokenA, tokenB) == address(0) */\n      0xffffffffffffffffffffffffffffffffffffffff\n      and\n        /* \"projects/exchange-protocol/contracts/ExzoneRouter01.sol\":1171:1178  factory */\n      immutable(\"0x5bcd163b2238ff85648d293e01a327b5c7f9ae69498a752a4883e839ddddafcb\")\n        /* \"projects/exchange-protocol/contracts/ExzoneRouter01.sol\":1156:1187  IExzoneFactory(factory).getPair */\n      0xffffffffffffffffffffffffffffffffffffffff\n      and\n      0xe6a43905\n        /* \"projects/exchange-protocol/contracts/ExzoneRouter01.sol\":1188:1194  tokenA */\n      dup11\n        /* \"projects/exchange-protocol/contracts/ExzoneRouter01.sol\":1196:1202  tokenB */\n      dup11\n        /* \"projects/exchange-protocol/contracts/ExzoneRouter01.sol\":1156:1203  IExzoneFactory(factory).getPair(tokenA, tokenB) */\n      mload(0x40)\n      dup4\n      0xffffffff\n      and\n      0xe0\n      shl\n      dup2\n      mstore\n      0x04\n      add\n      dup1\n      dup4\n      0xffffffffffffffffffffffffffffffffffffffff\n      and\n      0xffffffffffffffffffffffffffffffffffffffff\n      and\n      dup2\n      mstore\n      0x20\n      add\n      dup3\n      0xffffffffffffffffffffffffffffffffffffffff\n      and\n      0xffffffffffffffffffffffffffffffffffffffff\n      and\n      dup2\n      mstore\n      0x20\n      add\n      swap3\n      pop\n      pop\n      pop\n      0x20\n      mload(0x40)\n      dup1\n      dup4\n      sub\n      dup2\n      dup7\n      dup1\n      extcodesize\n      iszero\n        /* \"--CODEGEN--\":5:14   */\n      dup1\n        /* \"--CODEGEN--\":2:4   */\n      iszero\n      tag_468\n      jumpi\n        /* \"--CODEGEN--\":27:28   */\n      0x00\n        /* \"--CODEGEN--\":24:25   */\n      dup1\n        /* \"--CODEGEN--\":17:29   */\n      revert\n        /* \"--CODEGEN--\":2:4   */\n    tag_468:\n        /* \"projects/exchange-protocol/contracts/ExzoneRouter01.sol\":1156:1203  IExzoneFactory(factory).getPair(tokenA, tokenB) */\n      pop\n      gas\n      staticcall\n      iszero\n        /* \"--CODEGEN--\":8:17   */\n      dup1\n        /* \"--CODEGEN--\":5:7   */\n      iszero\n      tag_470\n      jumpi\n        /* \"--CODEGEN--\":45:61   */\n      returndatasize\n        /* \"--CODEGEN--\":42:43   */\n      0x00\n        /* \"--CODEGEN--\":39:40   */\n      dup1\n        /* \"--CODEGEN--\":24:62   */\n      returndatacopy\n        /* \"--CODEGEN--\":77:93   */\n      returndatasize\n        /* \"--CODEGEN--\":74:75   */\n      0x00\n        /* \"--CODEGEN--\":67:94   */\n      revert\n        /* \"--CODEGEN--\":5:7   */\n    tag_470:\n        /* \"projects/exchange-protocol/contracts/ExzoneRouter01.sol\":1156:1203  IExzoneFactory(factory).getPair(tokenA, tokenB) */\n      pop\n      pop\n      pop\n      pop\n      mload(0x40)\n      returndatasize\n        /* \"--CODEGEN--\":15:17   */\n      0x20\n        /* \"--CODEGEN--\":10:13   */\n      dup2\n        /* \"--CODEGEN--\":7:18   */\n      lt\n        /* \"--CODEGEN--\":4:6   */\n      iszero\n      tag_471\n      jumpi\n        /* \"--CODEGEN--\":31:32   */\n      0x00\n        /* \"--CODEGEN--\":28:29   */\n      dup1\n        /* \"--CODEGEN--\":21:33   */\n      revert\n        /* \"--CODEGEN--\":4:6   */\n    tag_471:\n        /* \"projects/exchange-protocol/contracts/ExzoneRouter01.sol\":1156:1203  IExzoneFactory(factory).getPair(tokenA, tokenB) */\n      dup2\n      add\n      swap1\n      dup1\n      dup1\n      mload\n      swap1\n      0x20\n      add\n      swap1\n      swap3\n      swap2\n      swap1\n      pop\n      pop\n      pop\n        /* \"projects/exchange-protocol/contracts/ExzoneRouter01.sol\":1156:1217  IExzoneFactory(factory).getPair(tokenA, tokenB) == address(0) */\n      0xffffffffffffffffffffffffffffffffffffffff\n      and\n      eq\n        /* \"projects/exchange-protocol/contracts/ExzoneRouter01.sol\":1152:1294  if (IExzoneFactory(factory).getPair(tokenA, tokenB) == address(0)) {... */\n      iszero\n      tag_472\n      jumpi\n        /* \"projects/exchange-protocol/contracts/ExzoneRouter01.sol\":1248:1255  factory */\n      immutable(\"0x5bcd163b2238ff85648d293e01a327b5c7f9ae69498a752a4883e839ddddafcb\")\n        /* \"projects/exchange-protocol/contracts/ExzoneRouter01.sol\":1233:1267  IExzoneFactory(factory).createPair */\n      0xffffffffffffffffffffffffffffffffffffffff\n      and\n      0xc9c65396\n        /* \"projects/exchange-protocol/contracts/ExzoneRouter01.sol\":1268:1274  tokenA */\n      dup10\n        /* \"projects/exchange-protocol/contracts/ExzoneRouter01.sol\":1276:1282  tokenB */\n      dup10\n        /* \"projects/exchange-protocol/contracts/ExzoneRouter01.sol\":1233:1283  IExzoneFactory(factory).createPair(tokenA, tokenB) */\n      mload(0x40)\n      dup4\n      0xffffffff\n      and\n      0xe0\n      shl\n      dup2\n      mstore\n      0x04\n      add\n      dup1\n      dup4\n      0xffffffffffffffffffffffffffffffffffffffff\n      and\n      0xffffffffffffffffffffffffffffffffffffffff\n      and\n      dup2\n      mstore\n      0x20\n      add\n      dup3\n      0xffffffffffffffffffffffffffffffffffffffff\n      and\n      0xffffffffffffffffffffffffffffffffffffffff\n      and\n      dup2\n      mstore\n      0x20\n      add\n      swap3\n      pop\n      pop\n      pop\n      0x20\n      mload(0x40)\n      dup1\n      dup4\n      sub\n      dup2\n      0x00\n      dup8\n      dup1\n      extcodesize\n      iszero\n        /* \"--CODEGEN--\":5:14   */\n      dup1\n        /* \"--CODEGEN--\":2:4   */\n      iszero\n      tag_473\n      jumpi\n        /* \"--CODEGEN--\":27:28   */\n      0x00\n        /* \"--CODEGEN--\":24:25   */\n      dup1\n        /* \"--CODEGEN--\":17:29   */\n      revert\n        /* \"--CODEGEN--\":2:4   */\n    tag_473:\n        /* \"projects/exchange-protocol/contracts/ExzoneRouter01.sol\":1233:1283  IExzoneFactory(factory).createPair(tokenA, tokenB) */\n      pop\n      gas\n      call\n      iszero\n        /* \"--CODEGEN--\":8:17   */\n      dup1\n        /* \"--CODEGEN--\":5:7   */\n      iszero\n      tag_475\n      jumpi\n        /* \"--CODEGEN--\":45:61   */\n      returndatasize\n        /* \"--CODEGEN--\":42:43   */\n      0x00\n        /* \"--CODEGEN--\":39:40   */\n      dup1\n        /* \"--CODEGEN--\":24:62   */\n      returndatacopy\n        /* \"--CODEGEN--\":77:93   */\n      returndatasize\n        /* \"--CODEGEN--\":74:75   */\n      0x00\n        /* \"--CODEGEN--\":67:94   */\n      revert\n        /* \"--CODEGEN--\":5:7   */\n    tag_475:\n        /* \"projects/exchange-protocol/contracts/ExzoneRouter01.sol\":1233:1283  IExzoneFactory(factory).createPair(tokenA, tokenB) */\n      pop\n      pop\n      pop\n      pop\n      mload(0x40)\n      returndatasize\n        /* \"--CODEGEN--\":15:17   */\n      0x20\n        /* \"--CODEGEN--\":10:13   */\n      dup2\n        /* \"--CODEGEN--\":7:18   */\n      lt\n        /* \"--CODEGEN--\":4:6   */\n      iszero\n      tag_476\n      jumpi\n        /* \"--CODEGEN--\":31:32   */\n      0x00\n        /* \"--CODEGEN--\":28:29   */\n      dup1\n        /* \"--CODEGEN--\":21:33   */\n      revert\n        /* \"--CODEGEN--\":4:6   */\n    tag_476:\n        /* \"projects/exchange-protocol/contracts/ExzoneRouter01.sol\":1233:1283  IExzoneFactory(factory).createPair(tokenA, tokenB) */\n      dup2\n      add\n      swap1\n      dup1\n      dup1\n      mload\n      swap1\n      0x20\n      add\n      swap1\n      swap3\n      swap2\n      swap1\n      pop\n      pop\n      pop\n      pop\n        /* \"projects/exchange-protocol/contracts/ExzoneRouter01.sol\":1152:1294  if (IExzoneFactory(factory).getPair(tokenA, tokenB) == address(0)) {... */\n    tag_472:\n        /* \"projects/exchange-protocol/contracts/ExzoneRouter01.sol\":1304:1317  uint reserveA */\n      0x00\n        /* \"projects/exchange-protocol/contracts/ExzoneRouter01.sol\":1319:1332  uint reserveB */\n      dup1\n        /* \"projects/exchange-protocol/contracts/ExzoneRouter01.sol\":1336:1386  ExzoneLibrary.getReserves(factory, tokenA, tokenB) */\n      tag_477\n        /* \"projects/exchange-protocol/contracts/ExzoneRouter01.sol\":1362:1369  factory */\n      immutable(\"0x5bcd163b2238ff85648d293e01a327b5c7f9ae69498a752a4883e839ddddafcb\")\n        /* \"projects/exchange-protocol/contracts/ExzoneRouter01.sol\":1371:1377  tokenA */\n      dup12\n        /* \"projects/exchange-protocol/contracts/ExzoneRouter01.sol\":1379:1385  tokenB */\n      dup12\n        /* \"projects/exchange-protocol/contracts/ExzoneRouter01.sol\":1336:1361  ExzoneLibrary.getReserves */\n      tag_400\n        /* \"projects/exchange-protocol/contracts/ExzoneRouter01.sol\":1336:1386  ExzoneLibrary.getReserves(factory, tokenA, tokenB) */\n      jump\t// in\n    tag_477:\n        /* \"projects/exchange-protocol/contracts/ExzoneRouter01.sol\":1303:1386  (uint reserveA, uint reserveB) = ExzoneLibrary.getReserves(factory, tokenA, tokenB) */\n      swap2\n      pop\n      swap2\n      pop\n        /* \"projects/exchange-protocol/contracts/ExzoneRouter01.sol\":1412:1413  0 */\n      0x00\n        /* \"projects/exchange-protocol/contracts/ExzoneRouter01.sol\":1400:1408  reserveA */\n      dup3\n        /* \"projects/exchange-protocol/contracts/ExzoneRouter01.sol\":1400:1413  reserveA == 0 */\n      eq\n        /* \"projects/exchange-protocol/contracts/ExzoneRouter01.sol\":1400:1430  reserveA == 0 && reserveB == 0 */\n      dup1\n      iszero\n      tag_478\n      jumpi\n      pop\n        /* \"projects/exchange-protocol/contracts/ExzoneRouter01.sol\":1429:1430  0 */\n      0x00\n        /* \"projects/exchange-protocol/contracts/ExzoneRouter01.sol\":1417:1425  reserveB */\n      dup2\n        /* \"projects/exchange-protocol/contracts/ExzoneRouter01.sol\":1417:1430  reserveB == 0 */\n      eq\n        /* \"projects/exchange-protocol/contracts/ExzoneRouter01.sol\":1400:1430  reserveA == 0 && reserveB == 0 */\n    tag_478:\n        /* \"projects/exchange-protocol/contracts/ExzoneRouter01.sol\":1396:2188  if (reserveA == 0 && reserveB == 0) {... */\n      iszero\n      tag_479\n      jumpi\n        /* \"projects/exchange-protocol/contracts/ExzoneRouter01.sol\":1468:1482  amountADesired */\n      dup8\n        /* \"projects/exchange-protocol/contracts/ExzoneRouter01.sol\":1484:1498  amountBDesired */\n      dup8\n        /* \"projects/exchange-protocol/contracts/ExzoneRouter01.sol\":1446:1499  (amountA, amountB) = (amountADesired, amountBDesired) */\n      dup1\n      swap5\n      pop\n      dup2\n      swap6\n      pop\n      pop\n      pop\n        /* \"projects/exchange-protocol/contracts/ExzoneRouter01.sol\":1396:2188  if (reserveA == 0 && reserveB == 0) {... */\n      jump(tag_480)\n    tag_479:\n        /* \"projects/exchange-protocol/contracts/ExzoneRouter01.sol\":1530:1549  uint amountBOptimal */\n      0x00\n        /* \"projects/exchange-protocol/contracts/ExzoneRouter01.sol\":1552:1607  ExzoneLibrary.quote(amountADesired, reserveA, reserveB) */\n      tag_481\n        /* \"projects/exchange-protocol/contracts/ExzoneRouter01.sol\":1572:1586  amountADesired */\n      dup10\n        /* \"projects/exchange-protocol/contracts/ExzoneRouter01.sol\":1588:1596  reserveA */\n      dup5\n        /* \"projects/exchange-protocol/contracts/ExzoneRouter01.sol\":1598:1606  reserveB */\n      dup5\n        /* \"projects/exchange-protocol/contracts/ExzoneRouter01.sol\":1552:1571  ExzoneLibrary.quote */\n      tag_270\n        /* \"projects/exchange-protocol/contracts/ExzoneRouter01.sol\":1552:1607  ExzoneLibrary.quote(amountADesired, reserveA, reserveB) */\n      jump\t// in\n    tag_481:\n        /* \"projects/exchange-protocol/contracts/ExzoneRouter01.sol\":1530:1607  uint amountBOptimal = ExzoneLibrary.quote(amountADesired, reserveA, reserveB) */\n      swap1\n      pop\n        /* \"projects/exchange-protocol/contracts/ExzoneRouter01.sol\":1643:1657  amountBDesired */\n      dup8\n        /* \"projects/exchange-protocol/contracts/ExzoneRouter01.sol\":1625:1639  amountBOptimal */\n      dup2\n        /* \"projects/exchange-protocol/contracts/ExzoneRouter01.sol\":1625:1657  amountBOptimal <= amountBDesired */\n      gt\n        /* \"projects/exchange-protocol/contracts/ExzoneRouter01.sol\":1621:2178  if (amountBOptimal <= amountBDesired) {... */\n      tag_482\n      jumpi\n        /* \"projects/exchange-protocol/contracts/ExzoneRouter01.sol\":1703:1713  amountBMin */\n      dup6\n        /* \"projects/exchange-protocol/contracts/ExzoneRouter01.sol\":1685:1699  amountBOptimal */\n      dup2\n        /* \"projects/exchange-protocol/contracts/ExzoneRouter01.sol\":1685:1713  amountBOptimal >= amountBMin */\n      lt\n      iszero\n        /* \"projects/exchange-protocol/contracts/ExzoneRouter01.sol\":1677:1753  require(amountBOptimal >= amountBMin, 'ExzoneRouter: INSUFFICIENT_B_AMOUNT') */\n      tag_483\n      jumpi\n      mload(0x40)\n      0x08c379a000000000000000000000000000000000000000000000000000000000\n      dup2\n      mstore\n      0x04\n      add\n      dup1\n      dup1\n      0x20\n      add\n      dup3\n      dup2\n      sub\n      dup3\n      mstore\n      0x23\n      dup2\n      mstore\n      0x20\n      add\n      dup1\n      data_0deab635cd6f8d659d7c882e362a64d8e5dd834ef94e962dc91cdf1cecdd7b26\n      0x23\n      swap2\n      codecopy\n      0x40\n      add\n      swap2\n      pop\n      pop\n      mload(0x40)\n      dup1\n      swap2\n      sub\n      swap1\n      revert\n    tag_483:\n        /* \"projects/exchange-protocol/contracts/ExzoneRouter01.sol\":1793:1807  amountADesired */\n      dup9\n        /* \"projects/exchange-protocol/contracts/ExzoneRouter01.sol\":1809:1823  amountBOptimal */\n      dup2\n        /* \"projects/exchange-protocol/contracts/ExzoneRouter01.sol\":1771:1824  (amountA, amountB) = (amountADesired, amountBOptimal) */\n      dup1\n      swap6\n      pop\n      dup2\n      swap7\n      pop\n      pop\n      pop\n        /* \"projects/exchange-protocol/contracts/ExzoneRouter01.sol\":1621:2178  if (amountBOptimal <= amountBDesired) {... */\n      jump(tag_484)\n    tag_482:\n        /* \"projects/exchange-protocol/contracts/ExzoneRouter01.sol\":1863:1882  uint amountAOptimal */\n      0x00\n        /* \"projects/exchange-protocol/contracts/ExzoneRouter01.sol\":1885:1940  ExzoneLibrary.quote(amountBDesired, reserveB, reserveA) */\n      tag_485\n        /* \"projects/exchange-protocol/contracts/ExzoneRouter01.sol\":1905:1919  amountBDesired */\n      dup10\n        /* \"projects/exchange-protocol/contracts/ExzoneRouter01.sol\":1921:1929  reserveB */\n      dup5\n        /* \"projects/exchange-protocol/contracts/ExzoneRouter01.sol\":1931:1939  reserveA */\n      dup7\n        /* \"projects/exchange-protocol/contracts/ExzoneRouter01.sol\":1885:1904  ExzoneLibrary.quote */\n      tag_270\n        /* \"projects/exchange-protocol/contracts/ExzoneRouter01.sol\":1885:1940  ExzoneLibrary.quote(amountBDesired, reserveB, reserveA) */\n      jump\t// in\n    tag_485:\n        /* \"projects/exchange-protocol/contracts/ExzoneRouter01.sol\":1863:1940  uint amountAOptimal = ExzoneLibrary.quote(amountBDesired, reserveB, reserveA) */\n      swap1\n      pop\n        /* \"projects/exchange-protocol/contracts/ExzoneRouter01.sol\":1983:1997  amountADesired */\n      dup10\n        /* \"projects/exchange-protocol/contracts/ExzoneRouter01.sol\":1965:1979  amountAOptimal */\n      dup2\n        /* \"projects/exchange-protocol/contracts/ExzoneRouter01.sol\":1965:1997  amountAOptimal <= amountADesired */\n      gt\n      iszero\n        /* \"projects/exchange-protocol/contracts/ExzoneRouter01.sol\":1958:1998  assert(amountAOptimal <= amountADesired) */\n      tag_486\n      jumpi\n      invalid\n    tag_486:\n        /* \"projects/exchange-protocol/contracts/ExzoneRouter01.sol\":2042:2052  amountAMin */\n      dup8\n        /* \"projects/exchange-protocol/contracts/ExzoneRouter01.sol\":2024:2038  amountAOptimal */\n      dup2\n        /* \"projects/exchange-protocol/contracts/ExzoneRouter01.sol\":2024:2052  amountAOptimal >= amountAMin */\n      lt\n      iszero\n        /* \"projects/exchange-protocol/contracts/ExzoneRouter01.sol\":2016:2092  require(amountAOptimal >= amountAMin, 'ExzoneRouter: INSUFFICIENT_A_AMOUNT') */\n      tag_487\n      jumpi\n      mload(0x40)\n      0x08c379a000000000000000000000000000000000000000000000000000000000\n      dup2\n      mstore\n      0x04\n      add\n      dup1\n      dup1\n      0x20\n      add\n      dup3\n      dup2\n      sub\n      dup3\n      mstore\n      0x23\n      dup2\n      mstore\n      0x20\n      add\n      dup1\n      data_2693a6d23ffca94cffaa2a99ada1589510487dac2be52ef9529c44cff84d1b1c\n      0x23\n      swap2\n      codecopy\n      0x40\n      add\n      swap2\n      pop\n      pop\n      mload(0x40)\n      dup1\n      swap2\n      sub\n      swap1\n      revert\n    tag_487:\n        /* \"projects/exchange-protocol/contracts/ExzoneRouter01.sol\":2132:2146  amountAOptimal */\n      dup1\n        /* \"projects/exchange-protocol/contracts/ExzoneRouter01.sol\":2148:2162  amountBDesired */\n      dup10\n        /* \"projects/exchange-protocol/contracts/ExzoneRouter01.sol\":2110:2163  (amountA, amountB) = (amountAOptimal, amountBDesired) */\n      dup1\n      swap7\n      pop\n      dup2\n      swap8\n      pop\n      pop\n      pop\n        /* \"projects/exchange-protocol/contracts/ExzoneRouter01.sol\":1621:2178  if (amountBOptimal <= amountBDesired) {... */\n      pop\n    tag_484:\n        /* \"projects/exchange-protocol/contracts/ExzoneRouter01.sol\":1396:2188  if (reserveA == 0 && reserveB == 0) {... */\n      pop\n    tag_480:\n        /* \"projects/exchange-protocol/contracts/ExzoneRouter01.sol\":861:2194  function _addLiquidity(... */\n      pop\n      pop\n      swap7\n      pop\n      swap7\n      swap5\n      pop\n      pop\n      pop\n      pop\n      pop\n      jump\t// out\n        /* \"projects/exchange-protocol/contracts/libraries/SafeMath.sol\":481:630  function mul(uint256 x, uint256 y) internal pure returns (uint256 z) {... */\n    tag_383:\n        /* \"projects/exchange-protocol/contracts/libraries/SafeMath.sol\":539:548  uint256 z */\n      0x00\n        /* \"projects/exchange-protocol/contracts/libraries/SafeMath.sol\":573:574  0 */\n      dup1\n        /* \"projects/exchange-protocol/contracts/libraries/SafeMath.sol\":568:569  y */\n      dup3\n        /* \"projects/exchange-protocol/contracts/libraries/SafeMath.sol\":568:574  y == 0 */\n      eq\n        /* \"projects/exchange-protocol/contracts/libraries/SafeMath.sol\":568:598  y == 0 || (z = x * y) / y == x */\n      dup1\n      tag_489\n      jumpi\n      pop\n        /* \"projects/exchange-protocol/contracts/libraries/SafeMath.sol\":597:598  x */\n      dup3\n        /* \"projects/exchange-protocol/contracts/libraries/SafeMath.sol\":592:593  y */\n      dup3\n        /* \"projects/exchange-protocol/contracts/libraries/SafeMath.sol\":587:588  y */\n      dup4\n        /* \"projects/exchange-protocol/contracts/libraries/SafeMath.sol\":583:584  x */\n      dup6\n        /* \"projects/exchange-protocol/contracts/libraries/SafeMath.sol\":583:588  x * y */\n      mul\n        /* \"projects/exchange-protocol/contracts/libraries/SafeMath.sol\":579:588  z = x * y */\n      swap3\n      pop\n      dup3\n        /* \"projects/exchange-protocol/contracts/libraries/SafeMath.sol\":578:593  (z = x * y) / y */\n      dup2\n      tag_490\n      jumpi\n      invalid\n    tag_490:\n      div\n        /* \"projects/exchange-protocol/contracts/libraries/SafeMath.sol\":578:598  (z = x * y) / y == x */\n      eq\n        /* \"projects/exchange-protocol/contracts/libraries/SafeMath.sol\":568:598  y == 0 || (z = x * y) / y == x */\n    tag_489:\n        /* \"projects/exchange-protocol/contracts/libraries/SafeMath.sol\":560:623  require(y == 0 || (z = x * y) / y == x, \"ds-math-mul-overflow\") */\n      tag_491\n      jumpi\n      mload(0x40)\n      0x08c379a000000000000000000000000000000000000000000000000000000000\n      dup2\n      mstore\n      0x04\n      add\n      dup1\n      dup1\n      0x20\n      add\n      dup3\n      dup2\n      sub\n      dup3\n      mstore\n      0x14\n      dup2\n      mstore\n      0x20\n      add\n      dup1\n      0x64732d6d6174682d6d756c2d6f766572666c6f77000000000000000000000000\n      dup2\n      mstore\n      pop\n      0x20\n      add\n      swap2\n      pop\n      pop\n      mload(0x40)\n      dup1\n      swap2\n      sub\n      swap1\n      revert\n    tag_491:\n        /* \"projects/exchange-protocol/contracts/libraries/SafeMath.sol\":481:630  function mul(uint256 x, uint256 y) internal pure returns (uint256 z) {... */\n      swap3\n      swap2\n      pop\n      pop\n      jump\t// out\n        /* \"projects/exchange-protocol/contracts/libraries/SafeMath.sol\":198:333  function add(uint256 x, uint256 y) internal pure returns (uint256 z) {... */\n    tag_387:\n        /* \"projects/exchange-protocol/contracts/libraries/SafeMath.sol\":256:265  uint256 z */\n      0x00\n        /* \"projects/exchange-protocol/contracts/libraries/SafeMath.sol\":300:301  x */\n      dup3\n        /* \"projects/exchange-protocol/contracts/libraries/SafeMath.sol\":294:295  y */\n      dup3\n        /* \"projects/exchange-protocol/contracts/libraries/SafeMath.sol\":290:291  x */\n      dup5\n        /* \"projects/exchange-protocol/contracts/libraries/SafeMath.sol\":290:295  x + y */\n      add\n        /* \"projects/exchange-protocol/contracts/libraries/SafeMath.sol\":286:295  z = x + y */\n      swap2\n      pop\n      dup2\n        /* \"projects/exchange-protocol/contracts/libraries/SafeMath.sol\":285:301  (z = x + y) >= x */\n      lt\n      iszero\n        /* \"projects/exchange-protocol/contracts/libraries/SafeMath.sol\":277:326  require((z = x + y) >= x, \"ds-math-add-overflow\") */\n      tag_493\n      jumpi\n      mload(0x40)\n      0x08c379a000000000000000000000000000000000000000000000000000000000\n      dup2\n      mstore\n      0x04\n      add\n      dup1\n      dup1\n      0x20\n      add\n      dup3\n      dup2\n      sub\n      dup3\n      mstore\n      0x14\n      dup2\n      mstore\n      0x20\n      add\n      dup1\n      0x64732d6d6174682d6164642d6f766572666c6f77000000000000000000000000\n      dup2\n      mstore\n      pop\n      0x20\n      add\n      swap2\n      pop\n      pop\n      mload(0x40)\n      dup1\n      swap2\n      sub\n      swap1\n      revert\n    tag_493:\n        /* \"projects/exchange-protocol/contracts/libraries/SafeMath.sol\":198:333  function add(uint256 x, uint256 y) internal pure returns (uint256 z) {... */\n      swap3\n      swap2\n      pop\n      pop\n      jump\t// out\n        /* \"projects/exchange-protocol/contracts/libraries/ExzoneLibrary.sol\":1448:1918  function getReserves(... */\n    tag_400:\n        /* \"projects/exchange-protocol/contracts/libraries/ExzoneLibrary.sol\":1571:1587  uint256 reserveA */\n      0x00\n        /* \"projects/exchange-protocol/contracts/libraries/ExzoneLibrary.sol\":1589:1605  uint256 reserveB */\n      dup1\n        /* \"projects/exchange-protocol/contracts/libraries/ExzoneLibrary.sol\":1618:1632  address token0 */\n      0x00\n        /* \"projects/exchange-protocol/contracts/libraries/ExzoneLibrary.sol\":1638:1664  sortTokens(tokenA, tokenB) */\n      tag_495\n        /* \"projects/exchange-protocol/contracts/libraries/ExzoneLibrary.sol\":1649:1655  tokenA */\n      dup6\n        /* \"projects/exchange-protocol/contracts/libraries/ExzoneLibrary.sol\":1657:1663  tokenB */\n      dup6\n        /* \"projects/exchange-protocol/contracts/libraries/ExzoneLibrary.sol\":1638:1648  sortTokens */\n      tag_284\n        /* \"projects/exchange-protocol/contracts/libraries/ExzoneLibrary.sol\":1638:1664  sortTokens(tokenA, tokenB) */\n      jump\t// in\n    tag_495:\n        /* \"projects/exchange-protocol/contracts/libraries/ExzoneLibrary.sol\":1617:1664  (address token0, ) = sortTokens(tokenA, tokenB) */\n      pop\n      swap1\n      pop\n        /* \"projects/exchange-protocol/contracts/libraries/ExzoneLibrary.sol\":1674:1706  pairFor(factory, tokenA, tokenB) */\n      tag_496\n        /* \"projects/exchange-protocol/contracts/libraries/ExzoneLibrary.sol\":1682:1689  factory */\n      dup7\n        /* \"projects/exchange-protocol/contracts/libraries/ExzoneLibrary.sol\":1691:1697  tokenA */\n      dup7\n        /* \"projects/exchange-protocol/contracts/libraries/ExzoneLibrary.sol\":1699:1705  tokenB */\n      dup7\n        /* \"projects/exchange-protocol/contracts/libraries/ExzoneLibrary.sol\":1674:1681  pairFor */\n      tag_175\n        /* \"projects/exchange-protocol/contracts/libraries/ExzoneLibrary.sol\":1674:1706  pairFor(factory, tokenA, tokenB) */\n      jump\t// in\n    tag_496:\n      pop\n        /* \"projects/exchange-protocol/contracts/libraries/ExzoneLibrary.sol\":1717:1733  uint256 reserve0 */\n      0x00\n        /* \"projects/exchange-protocol/contracts/libraries/ExzoneLibrary.sol\":1735:1751  uint256 reserve1 */\n      dup1\n        /* \"projects/exchange-protocol/contracts/libraries/ExzoneLibrary.sol\":1769:1801  pairFor(factory, tokenA, tokenB) */\n      tag_497\n        /* \"projects/exchange-protocol/contracts/libraries/ExzoneLibrary.sol\":1777:1784  factory */\n      dup9\n        /* \"projects/exchange-protocol/contracts/libraries/ExzoneLibrary.sol\":1786:1792  tokenA */\n      dup9\n        /* \"projects/exchange-protocol/contracts/libraries/ExzoneLibrary.sol\":1794:1800  tokenB */\n      dup9\n        /* \"projects/exchange-protocol/contracts/libraries/ExzoneLibrary.sol\":1769:1776  pairFor */\n      tag_175\n        /* \"projects/exchange-protocol/contracts/libraries/ExzoneLibrary.sol\":1769:1801  pairFor(factory, tokenA, tokenB) */\n      jump\t// in\n    tag_497:\n        /* \"projects/exchange-protocol/contracts/libraries/ExzoneLibrary.sol\":1757:1814  IExzonePair(pairFor(factory, tokenA, tokenB)).getReserves */\n      0xffffffffffffffffffffffffffffffffffffffff\n      and\n      0x0902f1ac\n        /* \"projects/exchange-protocol/contracts/libraries/ExzoneLibrary.sol\":1757:1816  IExzonePair(pairFor(factory, tokenA, tokenB)).getReserves() */\n      mload(0x40)\n      dup2\n      0xffffffff\n      and\n      0xe0\n      shl\n      dup2\n      mstore\n      0x04\n      add\n      0x60\n      mload(0x40)\n      dup1\n      dup4\n      sub\n      dup2\n      dup7\n      dup1\n      extcodesize\n      iszero\n        /* \"--CODEGEN--\":5:14   */\n      dup1\n        /* \"--CODEGEN--\":2:4   */\n      iszero\n      tag_498\n      jumpi\n        /* \"--CODEGEN--\":27:28   */\n      0x00\n        /* \"--CODEGEN--\":24:25   */\n      dup1\n        /* \"--CODEGEN--\":17:29   */\n      revert\n        /* \"--CODEGEN--\":2:4   */\n    tag_498:\n        /* \"projects/exchange-protocol/contracts/libraries/ExzoneLibrary.sol\":1757:1816  IExzonePair(pairFor(factory, tokenA, tokenB)).getReserves() */\n      pop\n      gas\n      staticcall\n      iszero\n        /* \"--CODEGEN--\":8:17   */\n      dup1\n        /* \"--CODEGEN--\":5:7   */\n      iszero\n      tag_500\n      jumpi\n        /* \"--CODEGEN--\":45:61   */\n      returndatasize\n        /* \"--CODEGEN--\":42:43   */\n      0x00\n        /* \"--CODEGEN--\":39:40   */\n      dup1\n        /* \"--CODEGEN--\":24:62   */\n      returndatacopy\n        /* \"--CODEGEN--\":77:93   */\n      returndatasize\n        /* \"--CODEGEN--\":74:75   */\n      0x00\n        /* \"--CODEGEN--\":67:94   */\n      revert\n        /* \"--CODEGEN--\":5:7   */\n    tag_500:\n        /* \"projects/exchange-protocol/contracts/libraries/ExzoneLibrary.sol\":1757:1816  IExzonePair(pairFor(factory, tokenA, tokenB)).getReserves() */\n      pop\n      pop\n      pop\n      pop\n      mload(0x40)\n      returndatasize\n        /* \"--CODEGEN--\":15:17   */\n      0x60\n        /* \"--CODEGEN--\":10:13   */\n      dup2\n        /* \"--CODEGEN--\":7:18   */\n      lt\n        /* \"--CODEGEN--\":4:6   */\n      iszero\n      tag_501\n      jumpi\n        /* \"--CODEGEN--\":31:32   */\n      0x00\n        /* \"--CODEGEN--\":28:29   */\n      dup1\n        /* \"--CODEGEN--\":21:33   */\n      revert\n        /* \"--CODEGEN--\":4:6   */\n    tag_501:\n        /* \"projects/exchange-protocol/contracts/libraries/ExzoneLibrary.sol\":1757:1816  IExzonePair(pairFor(factory, tokenA, tokenB)).getReserves() */\n      dup2\n      add\n      swap1\n      dup1\n      dup1\n      mload\n      swap1\n      0x20\n      add\n      swap1\n      swap3\n      swap2\n      swap1\n      dup1\n      mload\n      swap1\n      0x20\n      add\n      swap1\n      swap3\n      swap2\n      swap1\n      dup1\n      mload\n      swap1\n      0x20\n      add\n      swap1\n      swap3\n      swap2\n      swap1\n      pop\n      pop\n      pop\n        /* \"projects/exchange-protocol/contracts/libraries/ExzoneLibrary.sol\":1716:1816  (uint256 reserve0, uint256 reserve1, ) = IExzonePair(pairFor(factory, tokenA, tokenB)).getReserves() */\n      pop\n      0xffffffffffffffffffffffffffff\n      and\n      swap2\n      pop\n      0xffffffffffffffffffffffffffff\n      and\n      swap2\n      pop\n        /* \"projects/exchange-protocol/contracts/libraries/ExzoneLibrary.sol\":1859:1865  token0 */\n      dup3\n        /* \"projects/exchange-protocol/contracts/libraries/ExzoneLibrary.sol\":1849:1865  tokenA == token0 */\n      0xffffffffffffffffffffffffffffffffffffffff\n      and\n        /* \"projects/exchange-protocol/contracts/libraries/ExzoneLibrary.sol\":1849:1855  tokenA */\n      dup8\n        /* \"projects/exchange-protocol/contracts/libraries/ExzoneLibrary.sol\":1849:1865  tokenA == token0 */\n      0xffffffffffffffffffffffffffffffffffffffff\n      and\n      eq\n        /* \"projects/exchange-protocol/contracts/libraries/ExzoneLibrary.sol\":1849:1911  tokenA == token0 ? (reserve0, reserve1) : (reserve1, reserve0) */\n      tag_502\n      jumpi\n        /* \"projects/exchange-protocol/contracts/libraries/ExzoneLibrary.sol\":1892:1900  reserve1 */\n      dup1\n        /* \"projects/exchange-protocol/contracts/libraries/ExzoneLibrary.sol\":1902:1910  reserve0 */\n      dup3\n        /* \"projects/exchange-protocol/contracts/libraries/ExzoneLibrary.sol\":1849:1911  tokenA == token0 ? (reserve0, reserve1) : (reserve1, reserve0) */\n      jump(tag_503)\n    tag_502:\n        /* \"projects/exchange-protocol/contracts/libraries/ExzoneLibrary.sol\":1869:1877  reserve0 */\n      dup2\n        /* \"projects/exchange-protocol/contracts/libraries/ExzoneLibrary.sol\":1879:1887  reserve1 */\n      dup2\n        /* \"projects/exchange-protocol/contracts/libraries/ExzoneLibrary.sol\":1849:1911  tokenA == token0 ? (reserve0, reserve1) : (reserve1, reserve0) */\n    tag_503:\n        /* \"projects/exchange-protocol/contracts/libraries/ExzoneLibrary.sol\":1826:1911  (reserveA, reserveB) = tokenA == token0 ? (reserve0, reserve1) : (reserve1, reserve0) */\n      dup1\n      swap6\n      pop\n      dup2\n      swap7\n      pop\n      pop\n      pop\n        /* \"projects/exchange-protocol/contracts/libraries/ExzoneLibrary.sol\":1448:1918  function getReserves(... */\n      pop\n      pop\n      pop\n      swap4\n      pop\n      swap4\n      swap2\n      pop\n      pop\n      jump\t// out\n        /* \"projects/exchange-protocol/contracts/libraries/ExzoneLibrary.sol\":3175:3685  function getAmountIn(... */\n    tag_454:\n        /* \"projects/exchange-protocol/contracts/libraries/ExzoneLibrary.sol\":3307:3323  uint256 amountIn */\n      0x00\n        /* \"projects/exchange-protocol/contracts/libraries/ExzoneLibrary.sol\":3355:3356  0 */\n      dup1\n        /* \"projects/exchange-protocol/contracts/libraries/ExzoneLibrary.sol\":3343:3352  amountOut */\n      dup5\n        /* \"projects/exchange-protocol/contracts/libraries/ExzoneLibrary.sol\":3343:3356  amountOut > 0 */\n      gt\n        /* \"projects/exchange-protocol/contracts/libraries/ExzoneLibrary.sol\":3335:3402  require(amountOut > 0, \"ExzoneLibrary: INSUFFICIENT_OUTPUT_AMOUNT\") */\n      tag_505\n      jumpi\n      mload(0x40)\n      0x08c379a000000000000000000000000000000000000000000000000000000000\n      dup2\n      mstore\n      0x04\n      add\n      dup1\n      dup1\n      0x20\n      add\n      dup3\n      dup2\n      sub\n      dup3\n      mstore\n      0x29\n      dup2\n      mstore\n      0x20\n      add\n      dup1\n      data_dc2ed7efa28d46d265fe8097a72e0452153a1bd0d314b24c832e315711f4266c\n      0x29\n      swap2\n      codecopy\n      0x40\n      add\n      swap2\n      pop\n      pop\n      mload(0x40)\n      dup1\n      swap2\n      sub\n      swap1\n      revert\n    tag_505:\n        /* \"projects/exchange-protocol/contracts/libraries/ExzoneLibrary.sol\":3432:3433  0 */\n      0x00\n        /* \"projects/exchange-protocol/contracts/libraries/ExzoneLibrary.sol\":3420:3429  reserveIn */\n      dup4\n        /* \"projects/exchange-protocol/contracts/libraries/ExzoneLibrary.sol\":3420:3433  reserveIn > 0 */\n      gt\n        /* \"projects/exchange-protocol/contracts/libraries/ExzoneLibrary.sol\":3420:3451  reserveIn > 0 && reserveOut > 0 */\n      dup1\n      iszero\n      tag_506\n      jumpi\n      pop\n        /* \"projects/exchange-protocol/contracts/libraries/ExzoneLibrary.sol\":3450:3451  0 */\n      0x00\n        /* \"projects/exchange-protocol/contracts/libraries/ExzoneLibrary.sol\":3437:3447  reserveOut */\n      dup3\n        /* \"projects/exchange-protocol/contracts/libraries/ExzoneLibrary.sol\":3437:3451  reserveOut > 0 */\n      gt\n        /* \"projects/exchange-protocol/contracts/libraries/ExzoneLibrary.sol\":3420:3451  reserveIn > 0 && reserveOut > 0 */\n    tag_506:\n        /* \"projects/exchange-protocol/contracts/libraries/ExzoneLibrary.sol\":3412:3493  require(reserveIn > 0 && reserveOut > 0, \"ExzoneLibrary: INSUFFICIENT_LIQUIDITY\") */\n      tag_507\n      jumpi\n      mload(0x40)\n      0x08c379a000000000000000000000000000000000000000000000000000000000\n      dup2\n      mstore\n      0x04\n      add\n      dup1\n      dup1\n      0x20\n      add\n      dup3\n      dup2\n      sub\n      dup3\n      mstore\n      0x25\n      dup2\n      mstore\n      0x20\n      add\n      dup1\n      data_c7068eed4e4163f332086ae443c25eae439375dd6cb939443d9e2816d88e11cf\n      0x25\n      swap2\n      codecopy\n      0x40\n      add\n      swap2\n      pop\n      pop\n      mload(0x40)\n      dup1\n      swap2\n      sub\n      swap1\n      revert\n    tag_507:\n        /* \"projects/exchange-protocol/contracts/libraries/ExzoneLibrary.sol\":3503:3520  uint256 numerator */\n      0x00\n        /* \"projects/exchange-protocol/contracts/libraries/ExzoneLibrary.sol\":3523:3558  reserveIn.mul(amountOut).mul(10000) */\n      tag_508\n        /* \"projects/exchange-protocol/contracts/libraries/ExzoneLibrary.sol\":3552:3557  10000 */\n      0x2710\n        /* \"projects/exchange-protocol/contracts/libraries/ExzoneLibrary.sol\":3523:3547  reserveIn.mul(amountOut) */\n      tag_509\n        /* \"projects/exchange-protocol/contracts/libraries/ExzoneLibrary.sol\":3537:3546  amountOut */\n      dup8\n        /* \"projects/exchange-protocol/contracts/libraries/ExzoneLibrary.sol\":3523:3532  reserveIn */\n      dup8\n        /* \"projects/exchange-protocol/contracts/libraries/ExzoneLibrary.sol\":3523:3536  reserveIn.mul */\n      tag_383\n      swap1\n        /* \"projects/exchange-protocol/contracts/libraries/ExzoneLibrary.sol\":3523:3547  reserveIn.mul(amountOut) */\n      swap2\n      swap1\n      0xffffffff\n      and\n      jump\t// in\n    tag_509:\n        /* \"projects/exchange-protocol/contracts/libraries/ExzoneLibrary.sol\":3523:3551  reserveIn.mul(amountOut).mul */\n      tag_383\n      swap1\n        /* \"projects/exchange-protocol/contracts/libraries/ExzoneLibrary.sol\":3523:3558  reserveIn.mul(amountOut).mul(10000) */\n      swap2\n      swap1\n      0xffffffff\n      and\n      jump\t// in\n    tag_508:\n        /* \"projects/exchange-protocol/contracts/libraries/ExzoneLibrary.sol\":3503:3558  uint256 numerator = reserveIn.mul(amountOut).mul(10000) */\n      swap1\n      pop\n        /* \"projects/exchange-protocol/contracts/libraries/ExzoneLibrary.sol\":3568:3587  uint256 denominator */\n      0x00\n        /* \"projects/exchange-protocol/contracts/libraries/ExzoneLibrary.sol\":3590:3625  reserveOut.sub(amountOut).mul(9975) */\n      tag_510\n        /* \"projects/exchange-protocol/contracts/libraries/ExzoneLibrary.sol\":3620:3624  9975 */\n      0x26f7\n        /* \"projects/exchange-protocol/contracts/libraries/ExzoneLibrary.sol\":3590:3615  reserveOut.sub(amountOut) */\n      tag_511\n        /* \"projects/exchange-protocol/contracts/libraries/ExzoneLibrary.sol\":3605:3614  amountOut */\n      dup9\n        /* \"projects/exchange-protocol/contracts/libraries/ExzoneLibrary.sol\":3590:3600  reserveOut */\n      dup8\n        /* \"projects/exchange-protocol/contracts/libraries/ExzoneLibrary.sol\":3590:3604  reserveOut.sub */\n      tag_512\n      swap1\n        /* \"projects/exchange-protocol/contracts/libraries/ExzoneLibrary.sol\":3590:3615  reserveOut.sub(amountOut) */\n      swap2\n      swap1\n      0xffffffff\n      and\n      jump\t// in\n    tag_511:\n        /* \"projects/exchange-protocol/contracts/libraries/ExzoneLibrary.sol\":3590:3619  reserveOut.sub(amountOut).mul */\n      tag_383\n      swap1\n        /* \"projects/exchange-protocol/contracts/libraries/ExzoneLibrary.sol\":3590:3625  reserveOut.sub(amountOut).mul(9975) */\n      swap2\n      swap1\n      0xffffffff\n      and\n      jump\t// in\n    tag_510:\n        /* \"projects/exchange-protocol/contracts/libraries/ExzoneLibrary.sol\":3568:3625  uint256 denominator = reserveOut.sub(amountOut).mul(9975) */\n      swap1\n      pop\n        /* \"projects/exchange-protocol/contracts/libraries/ExzoneLibrary.sol\":3646:3678  (numerator / denominator).add(1) */\n      tag_513\n        /* \"projects/exchange-protocol/contracts/libraries/ExzoneLibrary.sol\":3676:3677  1 */\n      0x01\n        /* \"projects/exchange-protocol/contracts/libraries/ExzoneLibrary.sol\":3659:3670  denominator */\n      dup3\n        /* \"projects/exchange-protocol/contracts/libraries/ExzoneLibrary.sol\":3647:3656  numerator */\n      dup5\n        /* \"projects/exchange-protocol/contracts/libraries/ExzoneLibrary.sol\":3647:3670  numerator / denominator */\n      dup2\n      tag_514\n      jumpi\n      invalid\n    tag_514:\n      div\n        /* \"projects/exchange-protocol/contracts/libraries/ExzoneLibrary.sol\":3646:3675  (numerator / denominator).add */\n      tag_387\n      swap1\n        /* \"projects/exchange-protocol/contracts/libraries/ExzoneLibrary.sol\":3646:3678  (numerator / denominator).add(1) */\n      swap2\n      swap1\n      0xffffffff\n      and\n      jump\t// in\n    tag_513:\n        /* \"projects/exchange-protocol/contracts/libraries/ExzoneLibrary.sol\":3635:3678  amountIn = (numerator / denominator).add(1) */\n      swap3\n      pop\n        /* \"projects/exchange-protocol/contracts/libraries/ExzoneLibrary.sol\":3175:3685  function getAmountIn(... */\n      pop\n      pop\n      swap4\n      swap3\n      pop\n      pop\n      pop\n      jump\t// out\n        /* \"projects/exchange-protocol/contracts/libraries/SafeMath.sol\":339:475  function sub(uint256 x, uint256 y) internal pure returns (uint256 z) {... */\n    tag_512:\n        /* \"projects/exchange-protocol/contracts/libraries/SafeMath.sol\":397:406  uint256 z */\n      0x00\n        /* \"projects/exchange-protocol/contracts/libraries/SafeMath.sol\":441:442  x */\n      dup3\n        /* \"projects/exchange-protocol/contracts/libraries/SafeMath.sol\":435:436  y */\n      dup3\n        /* \"projects/exchange-protocol/contracts/libraries/SafeMath.sol\":431:432  x */\n      dup5\n        /* \"projects/exchange-protocol/contracts/libraries/SafeMath.sol\":431:436  x - y */\n      sub\n        /* \"projects/exchange-protocol/contracts/libraries/SafeMath.sol\":427:436  z = x - y */\n      swap2\n      pop\n      dup2\n        /* \"projects/exchange-protocol/contracts/libraries/SafeMath.sol\":426:442  (z = x - y) <= x */\n      gt\n      iszero\n        /* \"projects/exchange-protocol/contracts/libraries/SafeMath.sol\":418:468  require((z = x - y) <= x, \"ds-math-sub-underflow\") */\n      tag_516\n      jumpi\n      mload(0x40)\n      0x08c379a000000000000000000000000000000000000000000000000000000000\n      dup2\n      mstore\n      0x04\n      add\n      dup1\n      dup1\n      0x20\n      add\n      dup3\n      dup2\n      sub\n      dup3\n      mstore\n      0x15\n      dup2\n      mstore\n      0x20\n      add\n      dup1\n      0x64732d6d6174682d7375622d756e646572666c6f770000000000000000000000\n      dup2\n      mstore\n      pop\n      0x20\n      add\n      swap2\n      pop\n      pop\n      mload(0x40)\n      dup1\n      swap2\n      sub\n      swap1\n      revert\n    tag_516:\n        /* \"projects/exchange-protocol/contracts/libraries/SafeMath.sol\":339:475  function sub(uint256 x, uint256 y) internal pure returns (uint256 z) {... */\n      swap3\n      swap2\n      pop\n      pop\n      jump\t// out\n    stop\n    data_07947ce221cad6bb17467d2617ba69ad7eed4ff1cb624d0355f752f6e2c62544 45787a6f6e65526f757465723a204558434553534956455f494e5055545f414d4f554e54\n    data_0deab635cd6f8d659d7c882e362a64d8e5dd834ef94e962dc91cdf1cecdd7b26 45787a6f6e65526f757465723a20494e53554646494349454e545f425f414d4f554e54\n    data_2693a6d23ffca94cffaa2a99ada1589510487dac2be52ef9529c44cff84d1b1c 45787a6f6e65526f757465723a20494e53554646494349454e545f415f414d4f554e54\n    data_3f8faf98afe9344b6d4b0e75b0101259bf282914b3b5a9320c6918b6e27ede1c 5472616e7366657248656c7065723a3a7472616e7366657246726f6d3a207472616e7366657246726f6d206661696c6564\n    data_43d7bec223ecf9eb06ea147e7d564bc71c2448662d62a4ea86ce71fc4518b350 5472616e7366657248656c7065723a3a736166655472616e736665724554483a20455448207472616e73666572206661696c6564\n    data_56a563f7a1318bc763d9db2f8f8b222fb6559e7778069cb6771f074864762583 45787a6f6e654c6962726172793a20494e53554646494349454e545f494e5055545f414d4f554e54\n    data_918a6fec0f0d59a5e54d38ef780d55bceedc2a21c478d3ae3d029712e7f1a370 45787a6f6e654c6962726172793a20494e53554646494349454e545f414d4f554e54\n    data_b406ac1c541ad2d72f740c6dec579f6cd789af847e0fb1e0e6526532cb2fd113 45787a6f6e654c6962726172793a204944454e544943414c5f414444524553534553\n    data_c7068eed4e4163f332086ae443c25eae439375dd6cb939443d9e2816d88e11cf 45787a6f6e654c6962726172793a20494e53554646494349454e545f4c4951554944495459\n    data_daea69421eeb1164e163c36f3d4349f0db3ec4e0d1381bd5bf4faf53496c2611 5472616e7366657248656c7065723a3a736166655472616e736665723a207472616e73666572206661696c6564\n    data_dc2ed7efa28d46d265fe8097a72e0452153a1bd0d314b24c832e315711f4266c 45787a6f6e654c6962726172793a20494e53554646494349454e545f4f55545055545f414d4f554e54\n    data_dfe53cb4b8f379dd7e444b85c71aa868238e1e299fbf8fcb68a883a9f3588fea 45787a6f6e65526f757465723a20494e53554646494349454e545f4f55545055545f414d4f554e54\n\n    auxdata: 0xa264697066735822122075d9853ab6b88116116e169cb01dd69d2400eb93c7d9b3867dcb52484e6fe58764736f6c63430006060033\n}\n",
				"bytecode": {
					"linkReferences": {},
					"object": "60c060405234801561001057600080fd5b5060405162005106380380620051068339818101604052604081101561003557600080fd5b8101908080519060200190929190805190602001909291905050508173ffffffffffffffffffffffffffffffffffffffff1660808173ffffffffffffffffffffffffffffffffffffffff1660601b815250508073ffffffffffffffffffffffffffffffffffffffff1660a08173ffffffffffffffffffffffffffffffffffffffff1660601b81525050505060805160601c60a05160601c614f4a620001bc6000398061011f528061118052806111be52806112ee52806115cc5280611b405280611e1b5280611f62528061212a52806121bf52806126135280612a515280612def5280612e485280612e7c5280612efd528061313d528061330252806133975250806113e052806114ec528061169f52806116d752806118d052806119dc5280611c325280611d3b528061204f52806121fe528061241f528061252852806126cc52806129ce52806129f75280612a2f5280612c615280612e26528061322a52806133d65280613fb85280613ffc528061459252806146ba52806147d05250614f4a6000f3fe6080604052600436106101185760003560e01c80638803dbee116100a0578063d06ca61f11610064578063d06ca61f14610c64578063ded9382a14610d88578063e8e3370014610e6a578063f305d71914610f50578063fb3bdb4114610ffe57610174565b80638803dbee14610966578063ad5c464814610a7f578063ad615dec14610ad6578063baa2abde14610b39578063c45a015514610c0d57610174565b80632195995c116100e75780632195995c146104cd57806338ed1739146105cf5780634a25d94a146106e85780637ff36ab51461080157806385f8c2591461090357610174565b806302751cec14610179578063054d50d41461022d57806318cbafe5146102905780631f00ca74146103a957610174565b36610174577f000000000000000000000000000000000000000000000000000000000000000073ffffffffffffffffffffffffffffffffffffffff163373ffffffffffffffffffffffffffffffffffffffff161461017257fe5b005b600080fd5b34801561018557600080fd5b50610210600480360360c081101561019c57600080fd5b81019080803573ffffffffffffffffffffffffffffffffffffffff169060200190929190803590602001909291908035906020019092919080359060200190929190803573ffffffffffffffffffffffffffffffffffffffff16906020019092919080359060200190929190505050611100565b604051808381526020018281526020019250505060405180910390f35b34801561023957600080fd5b5061027a6004803603606081101561025057600080fd5b8101908080359060200190929190803590602001909291908035906020019092919050505061125d565b6040518082815260200191505060405180910390f35b34801561029c57600080fd5b50610352600480360360a08110156102b357600080fd5b810190808035906020019092919080359060200190929190803590602001906401000000008111156102e457600080fd5b8201836020820111156102f657600080fd5b8035906020019184602083028401116401000000008311171561031857600080fd5b9091929391929390803573ffffffffffffffffffffffffffffffffffffffff16906020019092919080359060200190929190505050611273565b6040518080602001828103825283818151815260200191508051906020019060200280838360005b8381101561039557808201518184015260208101905061037a565b505050509050019250505060405180910390f35b3480156103b557600080fd5b50610476600480360360408110156103cc57600080fd5b8101908080359060200190929190803590602001906401000000008111156103f357600080fd5b82018360208201111561040557600080fd5b8035906020019184602083028401116401000000008311171561042757600080fd5b919080806020026020016040519081016040528093929190818152602001838360200280828437600081840152601f19601f820116905080830192505050505050509192919290505050611698565b6040518080602001828103825283818151815260200191508051906020019060200280838360005b838110156104b957808201518184015260208101905061049e565b505050509050019250505060405180910390f35b3480156104d957600080fd5b506105b260048036036101608110156104f157600080fd5b81019080803573ffffffffffffffffffffffffffffffffffffffff169060200190929190803573ffffffffffffffffffffffffffffffffffffffff169060200190929190803590602001909291908035906020019092919080359060200190929190803573ffffffffffffffffffffffffffffffffffffffff16906020019092919080359060200190929190803515159060200190929190803560ff16906020019092919080359060200190929190803590602001909291905050506116cd565b604051808381526020018281526020019250505060405180910390f35b3480156105db57600080fd5b50610691600480360360a08110156105f257600080fd5b8101908080359060200190929190803590602001909291908035906020019064010000000081111561062357600080fd5b82018360208201111561063557600080fd5b8035906020019184602083028401116401000000008311171561065757600080fd5b9091929391929390803573ffffffffffffffffffffffffffffffffffffffff16906020019092919080359060200190929190505050611852565b6040518080602001828103825283818151815260200191508051906020019060200280838360005b838110156106d45780820151818401526020810190506106b9565b505050509050019250505060405180910390f35b3480156106f457600080fd5b506107aa600480360360a081101561070b57600080fd5b8101908080359060200190929190803590602001909291908035906020019064010000000081111561073c57600080fd5b82018360208201111561074e57600080fd5b8035906020019184602083028401116401000000008311171561077057600080fd5b9091929391929390803573ffffffffffffffffffffffffffffffffffffffff16906020019092919080359060200190929190505050611ac5565b6040518080602001828103825283818151815260200191508051906020019060200280838360005b838110156107ed5780820151818401526020810190506107d2565b505050509050019250505060405180910390f35b6108ac6004803603608081101561081757600080fd5b81019080803590602001909291908035906020019064010000000081111561083e57600080fd5b82018360208201111561085057600080fd5b8035906020019184602083028401116401000000008311171561087257600080fd5b9091929391929390803573ffffffffffffffffffffffffffffffffffffffff16906020019092919080359060200190929190505050611ee7565b6040518080602001828103825283818151815260200191508051906020019060200280838360005b838110156108ef5780820151818401526020810190506108d4565b505050509050019250505060405180910390f35b34801561090f57600080fd5b506109506004803603606081101561092657600080fd5b8101908080359060200190929190803590602001909291908035906020019092919050505061238b565b6040518082815260200191505060405180910390f35b34801561097257600080fd5b50610a28600480360360a081101561098957600080fd5b810190808035906020019092919080359060200190929190803590602001906401000000008111156109ba57600080fd5b8201836020820111156109cc57600080fd5b803590602001918460208302840111640100000000831117156109ee57600080fd5b9091929391929390803573ffffffffffffffffffffffffffffffffffffffff169060200190929190803590602001909291905050506123a1565b6040518080602001828103825283818151815260200191508051906020019060200280838360005b83811015610a6b578082015181840152602081019050610a50565b505050509050019250505060405180910390f35b348015610a8b57600080fd5b50610a94612611565b604051808273ffffffffffffffffffffffffffffffffffffffff1673ffffffffffffffffffffffffffffffffffffffff16815260200191505060405180910390f35b348015610ae257600080fd5b50610b2360048036036060811015610af957600080fd5b81019080803590602001909291908035906020019092919080359060200190929190505050612635565b6040518082815260200191505060405180910390f35b348015610b4557600080fd5b50610bf0600480360360e0811015610b5c57600080fd5b81019080803573ffffffffffffffffffffffffffffffffffffffff169060200190929190803573ffffffffffffffffffffffffffffffffffffffff169060200190929190803590602001909291908035906020019092919080359060200190929190803573ffffffffffffffffffffffffffffffffffffffff1690602001909291908035906020019092919050505061264b565b604051808381526020018281526020019250505060405180910390f35b348015610c1957600080fd5b50610c226129cc565b604051808273ffffffffffffffffffffffffffffffffffffffff1673ffffffffffffffffffffffffffffffffffffffff16815260200191505060405180910390f35b348015610c7057600080fd5b50610d3160048036036040811015610c8757600080fd5b810190808035906020019092919080359060200190640100000000811115610cae57600080fd5b820183602082011115610cc057600080fd5b80359060200191846020830284011164010000000083111715610ce257600080fd5b919080806020026020016040519081016040528093929190818152602001838360200280828437600081840152601f19601f8201169050808301925050505050505091929192905050506129f0565b6040518080602001828103825283818151815260200191508051906020019060200280838360005b83811015610d74578082015181840152602081019050610d59565b505050509050019250505060405180910390f35b348015610d9457600080fd5b50610e4d6004803603610140811015610dac57600080fd5b81019080803573ffffffffffffffffffffffffffffffffffffffff169060200190929190803590602001909291908035906020019092919080359060200190929190803573ffffffffffffffffffffffffffffffffffffffff16906020019092919080359060200190929190803515159060200190929190803560ff1690602001909291908035906020019092919080359060200190929190505050612a25565b604051808381526020018281526020019250505060405180910390f35b348015610e7657600080fd5b50610f2c6004803603610100811015610e8e57600080fd5b81019080803573ffffffffffffffffffffffffffffffffffffffff169060200190929190803573ffffffffffffffffffffffffffffffffffffffff16906020019092919080359060200190929190803590602001909291908035906020019092919080359060200190929190803573ffffffffffffffffffffffffffffffffffffffff16906020019092919080359060200190929190505050612bc8565b60405180848152602001838152602001828152602001935050505060405180910390f35b610fda600480360360c0811015610f6657600080fd5b81019080803573ffffffffffffffffffffffffffffffffffffffff169060200190929190803590602001909291908035906020019092919080359060200190929190803573ffffffffffffffffffffffffffffffffffffffff16906020019092919080359060200190929190505050612d6d565b60405180848152602001838152602001828152602001935050505060405180910390f35b6110a96004803603608081101561101457600080fd5b81019080803590602001909291908035906020019064010000000081111561103b57600080fd5b82018360208201111561104d57600080fd5b8035906020019184602083028401116401000000008311171561106f57600080fd5b9091929391929390803573ffffffffffffffffffffffffffffffffffffffff169060200190929190803590602001909291905050506130c2565b6040518080602001828103825283818151815260200191508051906020019060200280838360005b838110156110ec5780820151818401526020810190506110d1565b505050509050019250505060405180910390f35b600080824281101561117a576040517f08c379a00000000000000000000000000000000000000000000000000000000081526004018080602001828103825260158152602001807f45787a6f6e65526f757465723a2045585049524544000000000000000000000081525060200191505060405180910390fd5b6111a9897f00000000000000000000000000000000000000000000000000000000000000008a8a8a308a61264b565b80935081945050506111bc8986856135a0565b7f000000000000000000000000000000000000000000000000000000000000000073ffffffffffffffffffffffffffffffffffffffff16632e1a7d4d836040518263ffffffff1660e01b815260040180828152602001915050600060405180830381600087803b15801561122f57600080fd5b505af1158015611243573d6000803e3d6000fd5b50505050611251858361377c565b50965096945050505050565b600061126a8484846138db565b90509392505050565b606081428110156112ec576040517f08c379a00000000000000000000000000000000000000000000000000000000081526004018080602001828103825260158152602001807f45787a6f6e65526f757465723a2045585049524544000000000000000000000081525060200191505060405180910390fd5b7f000000000000000000000000000000000000000000000000000000000000000073ffffffffffffffffffffffffffffffffffffffff1686866001898990500381811061133557fe5b9050602002013573ffffffffffffffffffffffffffffffffffffffff1673ffffffffffffffffffffffffffffffffffffffff16146113db576040517f08c379a000000000000000000000000000000000000000000000000000000000815260040180806020018281038252601a8152602001807f45787a6f6e65526f757465723a20494e56414c49445f5041544800000000000081525060200191505060405180910390fd5b6114477f000000000000000000000000000000000000000000000000000000000000000089888880806020026020016040519081016040528093929190818152602001838360200280828437600081840152601f19601f82011690508083019250505050505050613a0b565b9150868260018451038151811061145a57fe5b602002602001015110156114b9576040517f08c379a0000000000000000000000000000000000000000000000000000000008152600401808060200182810382526028815260200180614eed6028913960400191505060405180910390fd5b61157e868660008181106114c957fe5b9050602002013573ffffffffffffffffffffffffffffffffffffffff16336115647f00000000000000000000000000000000000000000000000000000000000000008a8a600081811061151857fe5b9050602002013573ffffffffffffffffffffffffffffffffffffffff168b8b600181811061154257fe5b9050602002013573ffffffffffffffffffffffffffffffffffffffff16613b83565b8560008151811061157157fe5b6020026020010151613cde565b6115ca82878780806020026020016040519081016040528093929190818152602001838360200280828437600081840152601f19601f8201169050808301925050505050505030613eef565b7f000000000000000000000000000000000000000000000000000000000000000073ffffffffffffffffffffffffffffffffffffffff16632e1a7d4d8360018551038151811061161657fe5b60200260200101516040518263ffffffff1660e01b815260040180828152602001915050600060405180830381600087803b15801561165457600080fd5b505af1158015611668573d6000803e3d6000fd5b5050505061168d848360018551038151811061168057fe5b602002602001015161377c565b509695505050505050565b60606116c57f0000000000000000000000000000000000000000000000000000000000000000848461419a565b905092915050565b60008060006116fd7f00000000000000000000000000000000000000000000000000000000000000008f8f613b83565b905060008761170c578c61172e565b7fffffffffffffffffffffffffffffffffffffffffffffffffffffffffffffffff5b90508173ffffffffffffffffffffffffffffffffffffffff1663d505accf3330848d8c8c8c6040518863ffffffff1660e01b8152600401808873ffffffffffffffffffffffffffffffffffffffff1673ffffffffffffffffffffffffffffffffffffffff1681526020018773ffffffffffffffffffffffffffffffffffffffff1673ffffffffffffffffffffffffffffffffffffffff1681526020018681526020018581526020018460ff1660ff168152602001838152602001828152602001975050505050505050600060405180830381600087803b15801561181157600080fd5b505af1158015611825573d6000803e3d6000fd5b505050506118388f8f8f8f8f8f8f61264b565b809450819550505050509b509b9950505050505050505050565b606081428110156118cb576040517f08c379a00000000000000000000000000000000000000000000000000000000081526004018080602001828103825260158152602001807f45787a6f6e65526f757465723a2045585049524544000000000000000000000081525060200191505060405180910390fd5b6119377f000000000000000000000000000000000000000000000000000000000000000089888880806020026020016040519081016040528093929190818152602001838360200280828437600081840152601f19601f82011690508083019250505050505050613a0b565b9150868260018451038151811061194a57fe5b602002602001015110156119a9576040517f08c379a0000000000000000000000000000000000000000000000000000000008152600401808060200182810382526028815260200180614eed6028913960400191505060405180910390fd5b611a6e868660008181106119b957fe5b9050602002013573ffffffffffffffffffffffffffffffffffffffff1633611a547f00000000000000000000000000000000000000000000000000000000000000008a8a6000818110611a0857fe5b9050602002013573ffffffffffffffffffffffffffffffffffffffff168b8b6001818110611a3257fe5b9050602002013573ffffffffffffffffffffffffffffffffffffffff16613b83565b85600081518110611a6157fe5b6020026020010151613cde565b611aba82878780806020026020016040519081016040528093929190818152602001838360200280828437600081840152601f19601f8201169050808301925050505050505086613eef565b509695505050505050565b60608142811015611b3e576040517f08c379a00000000000000000000000000000000000000000000000000000000081526004018080602001828103825260158152602001807f45787a6f6e65526f757465723a2045585049524544000000000000000000000081525060200191505060405180910390fd5b7f000000000000000000000000000000000000000000000000000000000000000073ffffffffffffffffffffffffffffffffffffffff16868660018989905003818110611b8757fe5b9050602002013573ffffffffffffffffffffffffffffffffffffffff1673ffffffffffffffffffffffffffffffffffffffff1614611c2d576040517f08c379a000000000000000000000000000000000000000000000000000000000815260040180806020018281038252601a8152602001807f45787a6f6e65526f757465723a20494e56414c49445f5041544800000000000081525060200191505060405180910390fd5b611c997f000000000000000000000000000000000000000000000000000000000000000089888880806020026020016040519081016040528093929190818152602001838360200280828437600081840152601f19601f8201169050808301925050505050505061419a565b91508682600081518110611ca957fe5b60200260200101511115611d08576040517f08c379a0000000000000000000000000000000000000000000000000000000008152600401808060200182810382526024815260200180614d376024913960400191505060405180910390fd5b611dcd86866000818110611d1857fe5b9050602002013573ffffffffffffffffffffffffffffffffffffffff1633611db37f00000000000000000000000000000000000000000000000000000000000000008a8a6000818110611d6757fe5b9050602002013573ffffffffffffffffffffffffffffffffffffffff168b8b6001818110611d9157fe5b9050602002013573ffffffffffffffffffffffffffffffffffffffff16613b83565b85600081518110611dc057fe5b6020026020010151613cde565b611e1982878780806020026020016040519081016040528093929190818152602001838360200280828437600081840152601f19601f8201169050808301925050505050505030613eef565b7f000000000000000000000000000000000000000000000000000000000000000073ffffffffffffffffffffffffffffffffffffffff16632e1a7d4d83600185510381518110611e6557fe5b60200260200101516040518263ffffffff1660e01b815260040180828152602001915050600060405180830381600087803b158015611ea357600080fd5b505af1158015611eb7573d6000803e3d6000fd5b50505050611edc8483600185510381518110611ecf57fe5b602002602001015161377c565b509695505050505050565b60608142811015611f60576040517f08c379a00000000000000000000000000000000000000000000000000000000081526004018080602001828103825260158152602001807f45787a6f6e65526f757465723a2045585049524544000000000000000000000081525060200191505060405180910390fd5b7f000000000000000000000000000000000000000000000000000000000000000073ffffffffffffffffffffffffffffffffffffffff1686866000818110611fa457fe5b9050602002013573ffffffffffffffffffffffffffffffffffffffff1673ffffffffffffffffffffffffffffffffffffffff161461204a576040517f08c379a000000000000000000000000000000000000000000000000000000000815260040180806020018281038252601a8152602001807f45787a6f6e65526f757465723a20494e56414c49445f5041544800000000000081525060200191505060405180910390fd5b6120b67f000000000000000000000000000000000000000000000000000000000000000034888880806020026020016040519081016040528093929190818152602001838360200280828437600081840152601f19601f82011690508083019250505050505050613a0b565b915086826001845103815181106120c957fe5b60200260200101511015612128576040517f08c379a0000000000000000000000000000000000000000000000000000000008152600401808060200182810382526028815260200180614eed6028913960400191505060405180910390fd5b7f000000000000000000000000000000000000000000000000000000000000000073ffffffffffffffffffffffffffffffffffffffff1663d0e30db08360008151811061217157fe5b60200260200101516040518263ffffffff1660e01b81526004016000604051808303818588803b1580156121a457600080fd5b505af11580156121b8573d6000803e3d6000fd5b50505050507f000000000000000000000000000000000000000000000000000000000000000073ffffffffffffffffffffffffffffffffffffffff1663a9059cbb6122767f00000000000000000000000000000000000000000000000000000000000000008989600081811061222a57fe5b9050602002013573ffffffffffffffffffffffffffffffffffffffff168a8a600181811061225457fe5b9050602002013573ffffffffffffffffffffffffffffffffffffffff16613b83565b8460008151811061228357fe5b60200260200101516040518363ffffffff1660e01b8152600401808373ffffffffffffffffffffffffffffffffffffffff1673ffffffffffffffffffffffffffffffffffffffff16815260200182815260200192505050602060405180830381600087803b1580156122f457600080fd5b505af1158015612308573d6000803e3d6000fd5b505050506040513d602081101561231e57600080fd5b810190808051906020019092919050505061233557fe5b61238182878780806020026020016040519081016040528093929190818152602001838360200280828437600081840152601f19601f8201169050808301925050505050505086613eef565b5095945050505050565b60006123988484846138db565b90509392505050565b6060814281101561241a576040517f08c379a00000000000000000000000000000000000000000000000000000000081526004018080602001828103825260158152602001807f45787a6f6e65526f757465723a2045585049524544000000000000000000000081525060200191505060405180910390fd5b6124867f000000000000000000000000000000000000000000000000000000000000000089888880806020026020016040519081016040528093929190818152602001838360200280828437600081840152601f19601f8201169050808301925050505050505061419a565b9150868260008151811061249657fe5b602002602001015111156124f5576040517f08c379a0000000000000000000000000000000000000000000000000000000008152600401808060200182810382526024815260200180614d376024913960400191505060405180910390fd5b6125ba8686600081811061250557fe5b9050602002013573ffffffffffffffffffffffffffffffffffffffff16336125a07f00000000000000000000000000000000000000000000000000000000000000008a8a600081811061255457fe5b9050602002013573ffffffffffffffffffffffffffffffffffffffff168b8b600181811061257e57fe5b9050602002013573ffffffffffffffffffffffffffffffffffffffff16613b83565b856000815181106125ad57fe5b6020026020010151613cde565b61260682878780806020026020016040519081016040528093929190818152602001838360200280828437600081840152601f19601f8201169050808301925050505050505086613eef565b509695505050505050565b7f000000000000000000000000000000000000000000000000000000000000000081565b600061264284848461431a565b90509392505050565b60008082428110156126c5576040517f08c379a00000000000000000000000000000000000000000000000000000000081526004018080602001828103825260158152602001807f45787a6f6e65526f757465723a2045585049524544000000000000000000000081525060200191505060405180910390fd5b60006126f27f00000000000000000000000000000000000000000000000000000000000000008c8c613b83565b90508073ffffffffffffffffffffffffffffffffffffffff166323b872dd33838c6040518463ffffffff1660e01b8152600401808473ffffffffffffffffffffffffffffffffffffffff1673ffffffffffffffffffffffffffffffffffffffff1681526020018373ffffffffffffffffffffffffffffffffffffffff1673ffffffffffffffffffffffffffffffffffffffff1681526020018281526020019350505050602060405180830381600087803b1580156127af57600080fd5b505af11580156127c3573d6000803e3d6000fd5b505050506040513d60208110156127d957600080fd5b8101908080519060200190929190505050506000808273ffffffffffffffffffffffffffffffffffffffff166389afcb44896040518263ffffffff1660e01b8152600401808273ffffffffffffffffffffffffffffffffffffffff1673ffffffffffffffffffffffffffffffffffffffff1681526020019150506040805180830381600087803b15801561286c57600080fd5b505af1158015612880573d6000803e3d6000fd5b505050506040513d604081101561289657600080fd5b8101908080519060200190929190805190602001909291905050509150915060006128c18e8e6143fe565b5090508073ffffffffffffffffffffffffffffffffffffffff168e73ffffffffffffffffffffffffffffffffffffffff16146128fe578183612901565b82825b80975081985050508a871015612962576040517f08c379a0000000000000000000000000000000000000000000000000000000008152600401808060200182810382526023815260200180614d7e6023913960400191505060405180910390fd5b898610156129bb576040517f08c379a0000000000000000000000000000000000000000000000000000000008152600401808060200182810382526023815260200180614d5b6023913960400191505060405180910390fd5b505050505097509795505050505050565b7f000000000000000000000000000000000000000000000000000000000000000081565b6060612a1d7f00000000000000000000000000000000000000000000000000000000000000008484613a0b565b905092915050565b6000806000612a757f00000000000000000000000000000000000000000000000000000000000000008e7f0000000000000000000000000000000000000000000000000000000000000000613b83565b9050600087612a84578c612aa6565b7fffffffffffffffffffffffffffffffffffffffffffffffffffffffffffffffff5b90508173ffffffffffffffffffffffffffffffffffffffff1663d505accf3330848d8c8c8c6040518863ffffffff1660e01b8152600401808873ffffffffffffffffffffffffffffffffffffffff1673ffffffffffffffffffffffffffffffffffffffff1681526020018773ffffffffffffffffffffffffffffffffffffffff1673ffffffffffffffffffffffffffffffffffffffff1681526020018681526020018581526020018460ff1660ff168152602001838152602001828152602001975050505050505050600060405180830381600087803b158015612b8957600080fd5b505af1158015612b9d573d6000803e3d6000fd5b50505050612baf8e8e8e8e8e8e611100565b809450819550505050509a509a98505050505050505050565b60008060008342811015612c44576040517f08c379a00000000000000000000000000000000000000000000000000000000081526004018080602001828103825260158152602001807f45787a6f6e65526f757465723a2045585049524544000000000000000000000081525060200191505060405180910390fd5b612c528c8c8c8c8c8c614575565b80945081955050506000612c877f00000000000000000000000000000000000000000000000000000000000000008e8e613b83565b9050612c958d338388613cde565b612ca18c338387613cde565b8073ffffffffffffffffffffffffffffffffffffffff16636a627842886040518263ffffffff1660e01b8152600401808273ffffffffffffffffffffffffffffffffffffffff1673ffffffffffffffffffffffffffffffffffffffff168152602001915050602060405180830381600087803b158015612d2057600080fd5b505af1158015612d34573d6000803e3d6000fd5b505050506040513d6020811015612d4a57600080fd5b810190808051906020019092919050505092505050985098509895505050505050565b60008060008342811015612de9576040517f08c379a00000000000000000000000000000000000000000000000000000000081526004018080602001828103825260158152602001807f45787a6f6e65526f757465723a2045585049524544000000000000000000000081525060200191505060405180910390fd5b612e178a7f00000000000000000000000000000000000000000000000000000000000000008b348c8c614575565b80945081955050506000612e6c7f00000000000000000000000000000000000000000000000000000000000000008c7f0000000000000000000000000000000000000000000000000000000000000000613b83565b9050612e7a8b338388613cde565b7f000000000000000000000000000000000000000000000000000000000000000073ffffffffffffffffffffffffffffffffffffffff1663d0e30db0856040518263ffffffff1660e01b81526004016000604051808303818588803b158015612ee257600080fd5b505af1158015612ef6573d6000803e3d6000fd5b50505050507f000000000000000000000000000000000000000000000000000000000000000073ffffffffffffffffffffffffffffffffffffffff1663a9059cbb82866040518363ffffffff1660e01b8152600401808373ffffffffffffffffffffffffffffffffffffffff1673ffffffffffffffffffffffffffffffffffffffff16815260200182815260200192505050602060405180830381600087803b158015612fa257600080fd5b505af1158015612fb6573d6000803e3d6000fd5b505050506040513d6020811015612fcc57600080fd5b8101908080519060200190929190505050612fe357fe5b8073ffffffffffffffffffffffffffffffffffffffff16636a627842886040518263ffffffff1660e01b8152600401808273ffffffffffffffffffffffffffffffffffffffff1673ffffffffffffffffffffffffffffffffffffffff168152602001915050602060405180830381600087803b15801561306257600080fd5b505af1158015613076573d6000803e3d6000fd5b505050506040513d602081101561308c57600080fd5b81019080805190602001909291905050509250833411156130b4576130b33385340361377c565b5b505096509650969350505050565b6060814281101561313b576040517f08c379a00000000000000000000000000000000000000000000000000000000081526004018080602001828103825260158152602001807f45787a6f6e65526f757465723a2045585049524544000000000000000000000081525060200191505060405180910390fd5b7f000000000000000000000000000000000000000000000000000000000000000073ffffffffffffffffffffffffffffffffffffffff168686600081811061317f57fe5b9050602002013573ffffffffffffffffffffffffffffffffffffffff1673ffffffffffffffffffffffffffffffffffffffff1614613225576040517f08c379a000000000000000000000000000000000000000000000000000000000815260040180806020018281038252601a8152602001807f45787a6f6e65526f757465723a20494e56414c49445f5041544800000000000081525060200191505060405180910390fd5b6132917f000000000000000000000000000000000000000000000000000000000000000088888880806020026020016040519081016040528093929190818152602001838360200280828437600081840152601f19601f8201169050808301925050505050505061419a565b915034826000815181106132a157fe5b60200260200101511115613300576040517f08c379a0000000000000000000000000000000000000000000000000000000008152600401808060200182810382526024815260200180614d376024913960400191505060405180910390fd5b7f000000000000000000000000000000000000000000000000000000000000000073ffffffffffffffffffffffffffffffffffffffff1663d0e30db08360008151811061334957fe5b60200260200101516040518263ffffffff1660e01b81526004016000604051808303818588803b15801561337c57600080fd5b505af1158015613390573d6000803e3d6000fd5b50505050507f000000000000000000000000000000000000000000000000000000000000000073ffffffffffffffffffffffffffffffffffffffff1663a9059cbb61344e7f00000000000000000000000000000000000000000000000000000000000000008989600081811061340257fe5b9050602002013573ffffffffffffffffffffffffffffffffffffffff168a8a600181811061342c57fe5b9050602002013573ffffffffffffffffffffffffffffffffffffffff16613b83565b8460008151811061345b57fe5b60200260200101516040518363ffffffff1660e01b8152600401808373ffffffffffffffffffffffffffffffffffffffff1673ffffffffffffffffffffffffffffffffffffffff16815260200182815260200192505050602060405180830381600087803b1580156134cc57600080fd5b505af11580156134e0573d6000803e3d6000fd5b505050506040513d60208110156134f657600080fd5b810190808051906020019092919050505061350d57fe5b61355982878780806020026020016040519081016040528093929190818152602001838360200280828437600081840152601f19601f8201169050808301925050505050505086613eef565b8160008151811061356657fe5b602002602001015134111561359657613595338360008151811061358657fe5b6020026020010151340361377c565b5b5095945050505050565b600060608473ffffffffffffffffffffffffffffffffffffffff1663a9059cbb8585604051602401808373ffffffffffffffffffffffffffffffffffffffff1673ffffffffffffffffffffffffffffffffffffffff168152602001828152602001925050506040516020818303038152906040529060e01b6020820180517bffffffffffffffffffffffffffffffffffffffffffffffffffffffff83818316178352505050506040518082805190602001908083835b602083106136795780518252602082019150602081019050602083039250613656565b6001836020036101000a0380198251168184511680821785525050505050509050019150506000604051808303816000865af19150503d80600081146136db576040519150601f19603f3d011682016040523d82523d6000602084013e6136e0565b606091505b5091509150818015613720575060008151148061371f575080806020019051602081101561370d57600080fd5b81019080805190602001909291905050505b5b613775576040517f08c379a000000000000000000000000000000000000000000000000000000000815260040180806020018281038252602d815260200180614e97602d913960400191505060405180910390fd5b5050505050565b60008273ffffffffffffffffffffffffffffffffffffffff1682600067ffffffffffffffff811180156137ae57600080fd5b506040519080825280601f01601f1916602001820160405280156137e15781602001600182028036833780820191505090505b506040518082805190602001908083835b6020831061381557805182526020820191506020810190506020830392506137f2565b6001836020036101000a03801982511681845116808217855250505050505090500191505060006040518083038185875af1925050503d8060008114613877576040519150601f19603f3d011682016040523d82523d6000602084013e61387c565b606091505b50509050806138d6576040517f08c379a0000000000000000000000000000000000000000000000000000000008152600401808060200182810382526034815260200180614dd26034913960400191505060405180910390fd5b505050565b6000808411613935576040517f08c379a0000000000000000000000000000000000000000000000000000000008152600401808060200182810382526028815260200180614e066028913960400191505060405180910390fd5b6000831180156139455750600082115b61399a576040517f08c379a0000000000000000000000000000000000000000000000000000000008152600401808060200182810382526025815260200180614e726025913960400191505060405180910390fd5b60006139b16126f78661492990919063ffffffff16565b905060006139c8848361492990919063ffffffff16565b905060006139f3836139e56127108961492990919063ffffffff16565b6149be90919063ffffffff16565b90508082816139fe57fe5b0493505050509392505050565b6060600282511015613a85576040517f08c379a000000000000000000000000000000000000000000000000000000000815260040180806020018281038252601b8152602001807f45787a6f6e654c6962726172793a20494e56414c49445f50415448000000000081525060200191505060405180910390fd5b815167ffffffffffffffff81118015613a9d57600080fd5b50604051908082528060200260200182016040528015613acc5781602001602082028036833780820191505090505b5090508281600081518110613add57fe5b60200260200101818152505060005b6001835103811015613b7b57600080613b2f87868581518110613b0b57fe5b6020026020010151876001870181518110613b2257fe5b6020026020010151614a41565b91509150613b51848481518110613b4257fe5b602002602001015183836138db565b846001850181518110613b6057fe5b60200260200101818152505050508080600101915050613aec565b509392505050565b6000806000613b9285856143fe565b91509150858282604051602001808373ffffffffffffffffffffffffffffffffffffffff1673ffffffffffffffffffffffffffffffffffffffff1660601b81526014018273ffffffffffffffffffffffffffffffffffffffff1673ffffffffffffffffffffffffffffffffffffffff1660601b8152601401925050506040516020818303038152906040528051906020012060405160200180807fff000000000000000000000000000000000000000000000000000000000000008152506001018373ffffffffffffffffffffffffffffffffffffffff1673ffffffffffffffffffffffffffffffffffffffff1660601b8152601401828152602001807fa5934690703a592a07e841ca29d5e5c79b5e22ed4749057bb216dc31100be1c0815250602001925050506040516020818303038152906040528051906020012060001c925050509392505050565b600060608573ffffffffffffffffffffffffffffffffffffffff166323b872dd868686604051602401808473ffffffffffffffffffffffffffffffffffffffff1673ffffffffffffffffffffffffffffffffffffffff1681526020018373ffffffffffffffffffffffffffffffffffffffff1673ffffffffffffffffffffffffffffffffffffffff16815260200182815260200193505050506040516020818303038152906040529060e01b6020820180517bffffffffffffffffffffffffffffffffffffffffffffffffffffffff83818316178352505050506040518082805190602001908083835b60208310613deb5780518252602082019150602081019050602083039250613dc8565b6001836020036101000a0380198251168184511680821785525050505050509050019150506000604051808303816000865af19150503d8060008114613e4d576040519150601f19603f3d011682016040523d82523d6000602084013e613e52565b606091505b5091509150818015613e925750600081511480613e915750808060200190516020811015613e7f57600080fd5b81019080805190602001909291905050505b5b613ee7576040517f08c379a0000000000000000000000000000000000000000000000000000000008152600401808060200182810382526031815260200180614da16031913960400191505060405180910390fd5b505050505050565b60005b600183510381101561419457600080848381518110613f0d57fe5b6020026020010151856001850181518110613f2457fe5b6020026020010151915091506000613f3c83836143fe565b5090506000876001860181518110613f5057fe5b602002602001015190506000808373ffffffffffffffffffffffffffffffffffffffff168673ffffffffffffffffffffffffffffffffffffffff1614613f9857826000613f9c565b6000835b91509150600060028a51038810613fb35788613ff5565b613ff47f0000000000000000000000000000000000000000000000000000000000000000878c60028c0181518110613fe757fe5b6020026020010151613b83565b5b90506140227f00000000000000000000000000000000000000000000000000000000000000008888613b83565b73ffffffffffffffffffffffffffffffffffffffff1663022c0d9f848484600067ffffffffffffffff8111801561405857600080fd5b506040519080825280601f01601f19166020018201604052801561408b5781602001600182028036833780820191505090505b506040518563ffffffff1660e01b8152600401808581526020018481526020018373ffffffffffffffffffffffffffffffffffffffff1673ffffffffffffffffffffffffffffffffffffffff16815260200180602001828103825283818151815260200191508051906020019080838360005b838110156141195780820151818401526020810190506140fe565b50505050905090810190601f1680156141465780820380516001836020036101000a031916815260200191505b5095505050505050600060405180830381600087803b15801561416857600080fd5b505af115801561417c573d6000803e3d6000fd5b50505050505050505050508080600101915050613ef2565b50505050565b6060600282511015614214576040517f08c379a000000000000000000000000000000000000000000000000000000000815260040180806020018281038252601b8152602001807f45787a6f6e654c6962726172793a20494e56414c49445f50415448000000000081525060200191505060405180910390fd5b815167ffffffffffffffff8111801561422c57600080fd5b5060405190808252806020026020018201604052801561425b5781602001602082028036833780820191505090505b509050828160018351038151811061426f57fe5b6020026020010181815250506000600183510390505b6000811115614312576000806142c5878660018603815181106142a457fe5b60200260200101518786815181106142b857fe5b6020026020010151614a41565b915091506142e78484815181106142d857fe5b60200260200101518383614b76565b8460018503815181106142f657fe5b6020026020010181815250505050808060019003915050614285565b509392505050565b6000808411614374576040517f08c379a0000000000000000000000000000000000000000000000000000000008152600401808060200182810382526022815260200180614e2e6022913960400191505060405180910390fd5b6000831180156143845750600082115b6143d9576040517f08c379a0000000000000000000000000000000000000000000000000000000008152600401808060200182810382526025815260200180614e726025913960400191505060405180910390fd5b826143ed838661492990919063ffffffff16565b816143f457fe5b0490509392505050565b6000808273ffffffffffffffffffffffffffffffffffffffff168473ffffffffffffffffffffffffffffffffffffffff161415614486576040517f08c379a0000000000000000000000000000000000000000000000000000000008152600401808060200182810382526022815260200180614e506022913960400191505060405180910390fd5b8273ffffffffffffffffffffffffffffffffffffffff168473ffffffffffffffffffffffffffffffffffffffff16106144c05782846144c3565b83835b8092508193505050600073ffffffffffffffffffffffffffffffffffffffff168273ffffffffffffffffffffffffffffffffffffffff16141561456e576040517f08c379a000000000000000000000000000000000000000000000000000000000815260040180806020018281038252601b8152602001807f45787a6f6e654c6962726172793a205a45524f5f41444452455353000000000081525060200191505060405180910390fd5b9250929050565b600080600073ffffffffffffffffffffffffffffffffffffffff167f000000000000000000000000000000000000000000000000000000000000000073ffffffffffffffffffffffffffffffffffffffff1663e6a439058a8a6040518363ffffffff1660e01b8152600401808373ffffffffffffffffffffffffffffffffffffffff1673ffffffffffffffffffffffffffffffffffffffff1681526020018273ffffffffffffffffffffffffffffffffffffffff1673ffffffffffffffffffffffffffffffffffffffff1681526020019250505060206040518083038186803b15801561466157600080fd5b505afa158015614675573d6000803e3d6000fd5b505050506040513d602081101561468b57600080fd5b810190808051906020019092919050505073ffffffffffffffffffffffffffffffffffffffff1614156147c8577f000000000000000000000000000000000000000000000000000000000000000073ffffffffffffffffffffffffffffffffffffffff1663c9c6539689896040518363ffffffff1660e01b8152600401808373ffffffffffffffffffffffffffffffffffffffff1673ffffffffffffffffffffffffffffffffffffffff1681526020018273ffffffffffffffffffffffffffffffffffffffff1673ffffffffffffffffffffffffffffffffffffffff16815260200192505050602060405180830381600087803b15801561478b57600080fd5b505af115801561479f573d6000803e3d6000fd5b505050506040513d60208110156147b557600080fd5b8101908080519060200190929190505050505b6000806147f67f00000000000000000000000000000000000000000000000000000000000000008b8b614a41565b9150915060008214801561480a5750600081145b1561481e578787809450819550505061491c565b600061482b89848461431a565b905087811161489c578581101561488d576040517f08c379a0000000000000000000000000000000000000000000000000000000008152600401808060200182810382526023815260200180614d5b6023913960400191505060405180910390fd5b8881809550819650505061491a565b60006148a989848661431a565b9050898111156148b557fe5b8781101561490e576040517f08c379a0000000000000000000000000000000000000000000000000000000008152600401808060200182810382526023815260200180614d7e6023913960400191505060405180910390fd5b80898096508197505050505b505b5050965096945050505050565b600080821480614946575082828385029250828161494357fe5b04145b6149b8576040517f08c379a00000000000000000000000000000000000000000000000000000000081526004018080602001828103825260148152602001807f64732d6d6174682d6d756c2d6f766572666c6f7700000000000000000000000081525060200191505060405180910390fd5b92915050565b6000828284019150811015614a3b576040517f08c379a00000000000000000000000000000000000000000000000000000000081526004018080602001828103825260148152602001807f64732d6d6174682d6164642d6f766572666c6f7700000000000000000000000081525060200191505060405180910390fd5b92915050565b6000806000614a5085856143fe565b509050614a5e868686613b83565b50600080614a6d888888613b83565b73ffffffffffffffffffffffffffffffffffffffff16630902f1ac6040518163ffffffff1660e01b815260040160606040518083038186803b158015614ab257600080fd5b505afa158015614ac6573d6000803e3d6000fd5b505050506040513d6060811015614adc57600080fd5b81019080805190602001909291908051906020019092919080519060200190929190505050506dffffffffffffffffffffffffffff1691506dffffffffffffffffffffffffffff1691508273ffffffffffffffffffffffffffffffffffffffff168773ffffffffffffffffffffffffffffffffffffffff1614614b60578082614b63565b81815b8095508196505050505050935093915050565b6000808411614bd0576040517f08c379a0000000000000000000000000000000000000000000000000000000008152600401808060200182810382526029815260200180614ec46029913960400191505060405180910390fd5b600083118015614be05750600082115b614c35576040517f08c379a0000000000000000000000000000000000000000000000000000000008152600401808060200182810382526025815260200180614e726025913960400191505060405180910390fd5b6000614c5e612710614c50878761492990919063ffffffff16565b61492990919063ffffffff16565b90506000614c896126f7614c7b8887614cb390919063ffffffff16565b61492990919063ffffffff16565b9050614ca86001828481614c9957fe5b046149be90919063ffffffff16565b925050509392505050565b6000828284039150811115614d30576040517f08c379a00000000000000000000000000000000000000000000000000000000081526004018080602001828103825260158152602001807f64732d6d6174682d7375622d756e646572666c6f77000000000000000000000081525060200191505060405180910390fd5b9291505056fe45787a6f6e65526f757465723a204558434553534956455f494e5055545f414d4f554e5445787a6f6e65526f757465723a20494e53554646494349454e545f425f414d4f554e5445787a6f6e65526f757465723a20494e53554646494349454e545f415f414d4f554e545472616e7366657248656c7065723a3a7472616e7366657246726f6d3a207472616e7366657246726f6d206661696c65645472616e7366657248656c7065723a3a736166655472616e736665724554483a20455448207472616e73666572206661696c656445787a6f6e654c6962726172793a20494e53554646494349454e545f494e5055545f414d4f554e5445787a6f6e654c6962726172793a20494e53554646494349454e545f414d4f554e5445787a6f6e654c6962726172793a204944454e544943414c5f41444452455353455345787a6f6e654c6962726172793a20494e53554646494349454e545f4c49515549444954595472616e7366657248656c7065723a3a736166655472616e736665723a207472616e73666572206661696c656445787a6f6e654c6962726172793a20494e53554646494349454e545f4f55545055545f414d4f554e5445787a6f6e65526f757465723a20494e53554646494349454e545f4f55545055545f414d4f554e54a264697066735822122075d9853ab6b88116116e169cb01dd69d2400eb93c7d9b3867dcb52484e6fe58764736f6c63430006060033",
					"opcodes": "PUSH1 0xC0 PUSH1 0x40 MSTORE CALLVALUE DUP1 ISZERO PUSH2 0x10 JUMPI PUSH1 0x0 DUP1 REVERT JUMPDEST POP PUSH1 0x40 MLOAD PUSH3 0x5106 CODESIZE SUB DUP1 PUSH3 0x5106 DUP4 CODECOPY DUP2 DUP2 ADD PUSH1 0x40 MSTORE PUSH1 0x40 DUP2 LT ISZERO PUSH2 0x35 JUMPI PUSH1 0x0 DUP1 REVERT JUMPDEST DUP2 ADD SWAP1 DUP1 DUP1 MLOAD SWAP1 PUSH1 0x20 ADD SWAP1 SWAP3 SWAP2 SWAP1 DUP1 MLOAD SWAP1 PUSH1 0x20 ADD SWAP1 SWAP3 SWAP2 SWAP1 POP POP POP DUP2 PUSH20 0xFFFFFFFFFFFFFFFFFFFFFFFFFFFFFFFFFFFFFFFF AND PUSH1 0x80 DUP2 PUSH20 0xFFFFFFFFFFFFFFFFFFFFFFFFFFFFFFFFFFFFFFFF AND PUSH1 0x60 SHL DUP2 MSTORE POP POP DUP1 PUSH20 0xFFFFFFFFFFFFFFFFFFFFFFFFFFFFFFFFFFFFFFFF AND PUSH1 0xA0 DUP2 PUSH20 0xFFFFFFFFFFFFFFFFFFFFFFFFFFFFFFFFFFFFFFFF AND PUSH1 0x60 SHL DUP2 MSTORE POP POP POP POP PUSH1 0x80 MLOAD PUSH1 0x60 SHR PUSH1 0xA0 MLOAD PUSH1 0x60 SHR PUSH2 0x4F4A PUSH3 0x1BC PUSH1 0x0 CODECOPY DUP1 PUSH2 0x11F MSTORE DUP1 PUSH2 0x1180 MSTORE DUP1 PUSH2 0x11BE MSTORE DUP1 PUSH2 0x12EE MSTORE DUP1 PUSH2 0x15CC MSTORE DUP1 PUSH2 0x1B40 MSTORE DUP1 PUSH2 0x1E1B MSTORE DUP1 PUSH2 0x1F62 MSTORE DUP1 PUSH2 0x212A MSTORE DUP1 PUSH2 0x21BF MSTORE DUP1 PUSH2 0x2613 MSTORE DUP1 PUSH2 0x2A51 MSTORE DUP1 PUSH2 0x2DEF MSTORE DUP1 PUSH2 0x2E48 MSTORE DUP1 PUSH2 0x2E7C MSTORE DUP1 PUSH2 0x2EFD MSTORE DUP1 PUSH2 0x313D MSTORE DUP1 PUSH2 0x3302 MSTORE DUP1 PUSH2 0x3397 MSTORE POP DUP1 PUSH2 0x13E0 MSTORE DUP1 PUSH2 0x14EC MSTORE DUP1 PUSH2 0x169F MSTORE DUP1 PUSH2 0x16D7 MSTORE DUP1 PUSH2 0x18D0 MSTORE DUP1 PUSH2 0x19DC MSTORE DUP1 PUSH2 0x1C32 MSTORE DUP1 PUSH2 0x1D3B MSTORE DUP1 PUSH2 0x204F MSTORE DUP1 PUSH2 0x21FE MSTORE DUP1 PUSH2 0x241F MSTORE DUP1 PUSH2 0x2528 MSTORE DUP1 PUSH2 0x26CC MSTORE DUP1 PUSH2 0x29CE MSTORE DUP1 PUSH2 0x29F7 MSTORE DUP1 PUSH2 0x2A2F MSTORE DUP1 PUSH2 0x2C61 MSTORE DUP1 PUSH2 0x2E26 MSTORE DUP1 PUSH2 0x322A MSTORE DUP1 PUSH2 0x33D6 MSTORE DUP1 PUSH2 0x3FB8 MSTORE DUP1 PUSH2 0x3FFC MSTORE DUP1 PUSH2 0x4592 MSTORE DUP1 PUSH2 0x46BA MSTORE DUP1 PUSH2 0x47D0 MSTORE POP PUSH2 0x4F4A PUSH1 0x0 RETURN INVALID PUSH1 0x80 PUSH1 0x40 MSTORE PUSH1 0x4 CALLDATASIZE LT PUSH2 0x118 JUMPI PUSH1 0x0 CALLDATALOAD PUSH1 0xE0 SHR DUP1 PUSH4 0x8803DBEE GT PUSH2 0xA0 JUMPI DUP1 PUSH4 0xD06CA61F GT PUSH2 0x64 JUMPI DUP1 PUSH4 0xD06CA61F EQ PUSH2 0xC64 JUMPI DUP1 PUSH4 0xDED9382A EQ PUSH2 0xD88 JUMPI DUP1 PUSH4 0xE8E33700 EQ PUSH2 0xE6A JUMPI DUP1 PUSH4 0xF305D719 EQ PUSH2 0xF50 JUMPI DUP1 PUSH4 0xFB3BDB41 EQ PUSH2 0xFFE JUMPI PUSH2 0x174 JUMP JUMPDEST DUP1 PUSH4 0x8803DBEE EQ PUSH2 0x966 JUMPI DUP1 PUSH4 0xAD5C4648 EQ PUSH2 0xA7F JUMPI DUP1 PUSH4 0xAD615DEC EQ PUSH2 0xAD6 JUMPI DUP1 PUSH4 0xBAA2ABDE EQ PUSH2 0xB39 JUMPI DUP1 PUSH4 0xC45A0155 EQ PUSH2 0xC0D JUMPI PUSH2 0x174 JUMP JUMPDEST DUP1 PUSH4 0x2195995C GT PUSH2 0xE7 JUMPI DUP1 PUSH4 0x2195995C EQ PUSH2 0x4CD JUMPI DUP1 PUSH4 0x38ED1739 EQ PUSH2 0x5CF JUMPI DUP1 PUSH4 0x4A25D94A EQ PUSH2 0x6E8 JUMPI DUP1 PUSH4 0x7FF36AB5 EQ PUSH2 0x801 JUMPI DUP1 PUSH4 0x85F8C259 EQ PUSH2 0x903 JUMPI PUSH2 0x174 JUMP JUMPDEST DUP1 PUSH4 0x2751CEC EQ PUSH2 0x179 JUMPI DUP1 PUSH4 0x54D50D4 EQ PUSH2 0x22D JUMPI DUP1 PUSH4 0x18CBAFE5 EQ PUSH2 0x290 JUMPI DUP1 PUSH4 0x1F00CA74 EQ PUSH2 0x3A9 JUMPI PUSH2 0x174 JUMP JUMPDEST CALLDATASIZE PUSH2 0x174 JUMPI PUSH32 0x0 PUSH20 0xFFFFFFFFFFFFFFFFFFFFFFFFFFFFFFFFFFFFFFFF AND CALLER PUSH20 0xFFFFFFFFFFFFFFFFFFFFFFFFFFFFFFFFFFFFFFFF AND EQ PUSH2 0x172 JUMPI INVALID JUMPDEST STOP JUMPDEST PUSH1 0x0 DUP1 REVERT JUMPDEST CALLVALUE DUP1 ISZERO PUSH2 0x185 JUMPI PUSH1 0x0 DUP1 REVERT JUMPDEST POP PUSH2 0x210 PUSH1 0x4 DUP1 CALLDATASIZE SUB PUSH1 0xC0 DUP2 LT ISZERO PUSH2 0x19C JUMPI PUSH1 0x0 DUP1 REVERT JUMPDEST DUP2 ADD SWAP1 DUP1 DUP1 CALLDATALOAD PUSH20 0xFFFFFFFFFFFFFFFFFFFFFFFFFFFFFFFFFFFFFFFF AND SWAP1 PUSH1 0x20 ADD SWAP1 SWAP3 SWAP2 SWAP1 DUP1 CALLDATALOAD SWAP1 PUSH1 0x20 ADD SWAP1 SWAP3 SWAP2 SWAP1 DUP1 CALLDATALOAD SWAP1 PUSH1 0x20 ADD SWAP1 SWAP3 SWAP2 SWAP1 DUP1 CALLDATALOAD SWAP1 PUSH1 0x20 ADD SWAP1 SWAP3 SWAP2 SWAP1 DUP1 CALLDATALOAD PUSH20 0xFFFFFFFFFFFFFFFFFFFFFFFFFFFFFFFFFFFFFFFF AND SWAP1 PUSH1 0x20 ADD SWAP1 SWAP3 SWAP2 SWAP1 DUP1 CALLDATALOAD SWAP1 PUSH1 0x20 ADD SWAP1 SWAP3 SWAP2 SWAP1 POP POP POP PUSH2 0x1100 JUMP JUMPDEST PUSH1 0x40 MLOAD DUP1 DUP4 DUP2 MSTORE PUSH1 0x20 ADD DUP3 DUP2 MSTORE PUSH1 0x20 ADD SWAP3 POP POP POP PUSH1 0x40 MLOAD DUP1 SWAP2 SUB SWAP1 RETURN JUMPDEST CALLVALUE DUP1 ISZERO PUSH2 0x239 JUMPI PUSH1 0x0 DUP1 REVERT JUMPDEST POP PUSH2 0x27A PUSH1 0x4 DUP1 CALLDATASIZE SUB PUSH1 0x60 DUP2 LT ISZERO PUSH2 0x250 JUMPI PUSH1 0x0 DUP1 REVERT JUMPDEST DUP2 ADD SWAP1 DUP1 DUP1 CALLDATALOAD SWAP1 PUSH1 0x20 ADD SWAP1 SWAP3 SWAP2 SWAP1 DUP1 CALLDATALOAD SWAP1 PUSH1 0x20 ADD SWAP1 SWAP3 SWAP2 SWAP1 DUP1 CALLDATALOAD SWAP1 PUSH1 0x20 ADD SWAP1 SWAP3 SWAP2 SWAP1 POP POP POP PUSH2 0x125D JUMP JUMPDEST PUSH1 0x40 MLOAD DUP1 DUP3 DUP2 MSTORE PUSH1 0x20 ADD SWAP2 POP POP PUSH1 0x40 MLOAD DUP1 SWAP2 SUB SWAP1 RETURN JUMPDEST CALLVALUE DUP1 ISZERO PUSH2 0x29C JUMPI PUSH1 0x0 DUP1 REVERT JUMPDEST POP PUSH2 0x352 PUSH1 0x4 DUP1 CALLDATASIZE SUB PUSH1 0xA0 DUP2 LT ISZERO PUSH2 0x2B3 JUMPI PUSH1 0x0 DUP1 REVERT JUMPDEST DUP2 ADD SWAP1 DUP1 DUP1 CALLDATALOAD SWAP1 PUSH1 0x20 ADD SWAP1 SWAP3 SWAP2 SWAP1 DUP1 CALLDATALOAD SWAP1 PUSH1 0x20 ADD SWAP1 SWAP3 SWAP2 SWAP1 DUP1 CALLDATALOAD SWAP1 PUSH1 0x20 ADD SWAP1 PUSH5 0x100000000 DUP2 GT ISZERO PUSH2 0x2E4 JUMPI PUSH1 0x0 DUP1 REVERT JUMPDEST DUP3 ADD DUP4 PUSH1 0x20 DUP3 ADD GT ISZERO PUSH2 0x2F6 JUMPI PUSH1 0x0 DUP1 REVERT JUMPDEST DUP1 CALLDATALOAD SWAP1 PUSH1 0x20 ADD SWAP2 DUP5 PUSH1 0x20 DUP4 MUL DUP5 ADD GT PUSH5 0x100000000 DUP4 GT OR ISZERO PUSH2 0x318 JUMPI PUSH1 0x0 DUP1 REVERT JUMPDEST SWAP1 SWAP2 SWAP3 SWAP4 SWAP2 SWAP3 SWAP4 SWAP1 DUP1 CALLDATALOAD PUSH20 0xFFFFFFFFFFFFFFFFFFFFFFFFFFFFFFFFFFFFFFFF AND SWAP1 PUSH1 0x20 ADD SWAP1 SWAP3 SWAP2 SWAP1 DUP1 CALLDATALOAD SWAP1 PUSH1 0x20 ADD SWAP1 SWAP3 SWAP2 SWAP1 POP POP POP PUSH2 0x1273 JUMP JUMPDEST PUSH1 0x40 MLOAD DUP1 DUP1 PUSH1 0x20 ADD DUP3 DUP2 SUB DUP3 MSTORE DUP4 DUP2 DUP2 MLOAD DUP2 MSTORE PUSH1 0x20 ADD SWAP2 POP DUP1 MLOAD SWAP1 PUSH1 0x20 ADD SWAP1 PUSH1 0x20 MUL DUP1 DUP4 DUP4 PUSH1 0x0 JUMPDEST DUP4 DUP2 LT ISZERO PUSH2 0x395 JUMPI DUP1 DUP3 ADD MLOAD DUP2 DUP5 ADD MSTORE PUSH1 0x20 DUP2 ADD SWAP1 POP PUSH2 0x37A JUMP JUMPDEST POP POP POP POP SWAP1 POP ADD SWAP3 POP POP POP PUSH1 0x40 MLOAD DUP1 SWAP2 SUB SWAP1 RETURN JUMPDEST CALLVALUE DUP1 ISZERO PUSH2 0x3B5 JUMPI PUSH1 0x0 DUP1 REVERT JUMPDEST POP PUSH2 0x476 PUSH1 0x4 DUP1 CALLDATASIZE SUB PUSH1 0x40 DUP2 LT ISZERO PUSH2 0x3CC JUMPI PUSH1 0x0 DUP1 REVERT JUMPDEST DUP2 ADD SWAP1 DUP1 DUP1 CALLDATALOAD SWAP1 PUSH1 0x20 ADD SWAP1 SWAP3 SWAP2 SWAP1 DUP1 CALLDATALOAD SWAP1 PUSH1 0x20 ADD SWAP1 PUSH5 0x100000000 DUP2 GT ISZERO PUSH2 0x3F3 JUMPI PUSH1 0x0 DUP1 REVERT JUMPDEST DUP3 ADD DUP4 PUSH1 0x20 DUP3 ADD GT ISZERO PUSH2 0x405 JUMPI PUSH1 0x0 DUP1 REVERT JUMPDEST DUP1 CALLDATALOAD SWAP1 PUSH1 0x20 ADD SWAP2 DUP5 PUSH1 0x20 DUP4 MUL DUP5 ADD GT PUSH5 0x100000000 DUP4 GT OR ISZERO PUSH2 0x427 JUMPI PUSH1 0x0 DUP1 REVERT JUMPDEST SWAP2 SWAP1 DUP1 DUP1 PUSH1 0x20 MUL PUSH1 0x20 ADD PUSH1 0x40 MLOAD SWAP1 DUP2 ADD PUSH1 0x40 MSTORE DUP1 SWAP4 SWAP3 SWAP2 SWAP1 DUP2 DUP2 MSTORE PUSH1 0x20 ADD DUP4 DUP4 PUSH1 0x20 MUL DUP1 DUP3 DUP5 CALLDATACOPY PUSH1 0x0 DUP2 DUP5 ADD MSTORE PUSH1 0x1F NOT PUSH1 0x1F DUP3 ADD AND SWAP1 POP DUP1 DUP4 ADD SWAP3 POP POP POP POP POP POP POP SWAP2 SWAP3 SWAP2 SWAP3 SWAP1 POP POP POP PUSH2 0x1698 JUMP JUMPDEST PUSH1 0x40 MLOAD DUP1 DUP1 PUSH1 0x20 ADD DUP3 DUP2 SUB DUP3 MSTORE DUP4 DUP2 DUP2 MLOAD DUP2 MSTORE PUSH1 0x20 ADD SWAP2 POP DUP1 MLOAD SWAP1 PUSH1 0x20 ADD SWAP1 PUSH1 0x20 MUL DUP1 DUP4 DUP4 PUSH1 0x0 JUMPDEST DUP4 DUP2 LT ISZERO PUSH2 0x4B9 JUMPI DUP1 DUP3 ADD MLOAD DUP2 DUP5 ADD MSTORE PUSH1 0x20 DUP2 ADD SWAP1 POP PUSH2 0x49E JUMP JUMPDEST POP POP POP POP SWAP1 POP ADD SWAP3 POP POP POP PUSH1 0x40 MLOAD DUP1 SWAP2 SUB SWAP1 RETURN JUMPDEST CALLVALUE DUP1 ISZERO PUSH2 0x4D9 JUMPI PUSH1 0x0 DUP1 REVERT JUMPDEST POP PUSH2 0x5B2 PUSH1 0x4 DUP1 CALLDATASIZE SUB PUSH2 0x160 DUP2 LT ISZERO PUSH2 0x4F1 JUMPI PUSH1 0x0 DUP1 REVERT JUMPDEST DUP2 ADD SWAP1 DUP1 DUP1 CALLDATALOAD PUSH20 0xFFFFFFFFFFFFFFFFFFFFFFFFFFFFFFFFFFFFFFFF AND SWAP1 PUSH1 0x20 ADD SWAP1 SWAP3 SWAP2 SWAP1 DUP1 CALLDATALOAD PUSH20 0xFFFFFFFFFFFFFFFFFFFFFFFFFFFFFFFFFFFFFFFF AND SWAP1 PUSH1 0x20 ADD SWAP1 SWAP3 SWAP2 SWAP1 DUP1 CALLDATALOAD SWAP1 PUSH1 0x20 ADD SWAP1 SWAP3 SWAP2 SWAP1 DUP1 CALLDATALOAD SWAP1 PUSH1 0x20 ADD SWAP1 SWAP3 SWAP2 SWAP1 DUP1 CALLDATALOAD SWAP1 PUSH1 0x20 ADD SWAP1 SWAP3 SWAP2 SWAP1 DUP1 CALLDATALOAD PUSH20 0xFFFFFFFFFFFFFFFFFFFFFFFFFFFFFFFFFFFFFFFF AND SWAP1 PUSH1 0x20 ADD SWAP1 SWAP3 SWAP2 SWAP1 DUP1 CALLDATALOAD SWAP1 PUSH1 0x20 ADD SWAP1 SWAP3 SWAP2 SWAP1 DUP1 CALLDATALOAD ISZERO ISZERO SWAP1 PUSH1 0x20 ADD SWAP1 SWAP3 SWAP2 SWAP1 DUP1 CALLDATALOAD PUSH1 0xFF AND SWAP1 PUSH1 0x20 ADD SWAP1 SWAP3 SWAP2 SWAP1 DUP1 CALLDATALOAD SWAP1 PUSH1 0x20 ADD SWAP1 SWAP3 SWAP2 SWAP1 DUP1 CALLDATALOAD SWAP1 PUSH1 0x20 ADD SWAP1 SWAP3 SWAP2 SWAP1 POP POP POP PUSH2 0x16CD JUMP JUMPDEST PUSH1 0x40 MLOAD DUP1 DUP4 DUP2 MSTORE PUSH1 0x20 ADD DUP3 DUP2 MSTORE PUSH1 0x20 ADD SWAP3 POP POP POP PUSH1 0x40 MLOAD DUP1 SWAP2 SUB SWAP1 RETURN JUMPDEST CALLVALUE DUP1 ISZERO PUSH2 0x5DB JUMPI PUSH1 0x0 DUP1 REVERT JUMPDEST POP PUSH2 0x691 PUSH1 0x4 DUP1 CALLDATASIZE SUB PUSH1 0xA0 DUP2 LT ISZERO PUSH2 0x5F2 JUMPI PUSH1 0x0 DUP1 REVERT JUMPDEST DUP2 ADD SWAP1 DUP1 DUP1 CALLDATALOAD SWAP1 PUSH1 0x20 ADD SWAP1 SWAP3 SWAP2 SWAP1 DUP1 CALLDATALOAD SWAP1 PUSH1 0x20 ADD SWAP1 SWAP3 SWAP2 SWAP1 DUP1 CALLDATALOAD SWAP1 PUSH1 0x20 ADD SWAP1 PUSH5 0x100000000 DUP2 GT ISZERO PUSH2 0x623 JUMPI PUSH1 0x0 DUP1 REVERT JUMPDEST DUP3 ADD DUP4 PUSH1 0x20 DUP3 ADD GT ISZERO PUSH2 0x635 JUMPI PUSH1 0x0 DUP1 REVERT JUMPDEST DUP1 CALLDATALOAD SWAP1 PUSH1 0x20 ADD SWAP2 DUP5 PUSH1 0x20 DUP4 MUL DUP5 ADD GT PUSH5 0x100000000 DUP4 GT OR ISZERO PUSH2 0x657 JUMPI PUSH1 0x0 DUP1 REVERT JUMPDEST SWAP1 SWAP2 SWAP3 SWAP4 SWAP2 SWAP3 SWAP4 SWAP1 DUP1 CALLDATALOAD PUSH20 0xFFFFFFFFFFFFFFFFFFFFFFFFFFFFFFFFFFFFFFFF AND SWAP1 PUSH1 0x20 ADD SWAP1 SWAP3 SWAP2 SWAP1 DUP1 CALLDATALOAD SWAP1 PUSH1 0x20 ADD SWAP1 SWAP3 SWAP2 SWAP1 POP POP POP PUSH2 0x1852 JUMP JUMPDEST PUSH1 0x40 MLOAD DUP1 DUP1 PUSH1 0x20 ADD DUP3 DUP2 SUB DUP3 MSTORE DUP4 DUP2 DUP2 MLOAD DUP2 MSTORE PUSH1 0x20 ADD SWAP2 POP DUP1 MLOAD SWAP1 PUSH1 0x20 ADD SWAP1 PUSH1 0x20 MUL DUP1 DUP4 DUP4 PUSH1 0x0 JUMPDEST DUP4 DUP2 LT ISZERO PUSH2 0x6D4 JUMPI DUP1 DUP3 ADD MLOAD DUP2 DUP5 ADD MSTORE PUSH1 0x20 DUP2 ADD SWAP1 POP PUSH2 0x6B9 JUMP JUMPDEST POP POP POP POP SWAP1 POP ADD SWAP3 POP POP POP PUSH1 0x40 MLOAD DUP1 SWAP2 SUB SWAP1 RETURN JUMPDEST CALLVALUE DUP1 ISZERO PUSH2 0x6F4 JUMPI PUSH1 0x0 DUP1 REVERT JUMPDEST POP PUSH2 0x7AA PUSH1 0x4 DUP1 CALLDATASIZE SUB PUSH1 0xA0 DUP2 LT ISZERO PUSH2 0x70B JUMPI PUSH1 0x0 DUP1 REVERT JUMPDEST DUP2 ADD SWAP1 DUP1 DUP1 CALLDATALOAD SWAP1 PUSH1 0x20 ADD SWAP1 SWAP3 SWAP2 SWAP1 DUP1 CALLDATALOAD SWAP1 PUSH1 0x20 ADD SWAP1 SWAP3 SWAP2 SWAP1 DUP1 CALLDATALOAD SWAP1 PUSH1 0x20 ADD SWAP1 PUSH5 0x100000000 DUP2 GT ISZERO PUSH2 0x73C JUMPI PUSH1 0x0 DUP1 REVERT JUMPDEST DUP3 ADD DUP4 PUSH1 0x20 DUP3 ADD GT ISZERO PUSH2 0x74E JUMPI PUSH1 0x0 DUP1 REVERT JUMPDEST DUP1 CALLDATALOAD SWAP1 PUSH1 0x20 ADD SWAP2 DUP5 PUSH1 0x20 DUP4 MUL DUP5 ADD GT PUSH5 0x100000000 DUP4 GT OR ISZERO PUSH2 0x770 JUMPI PUSH1 0x0 DUP1 REVERT JUMPDEST SWAP1 SWAP2 SWAP3 SWAP4 SWAP2 SWAP3 SWAP4 SWAP1 DUP1 CALLDATALOAD PUSH20 0xFFFFFFFFFFFFFFFFFFFFFFFFFFFFFFFFFFFFFFFF AND SWAP1 PUSH1 0x20 ADD SWAP1 SWAP3 SWAP2 SWAP1 DUP1 CALLDATALOAD SWAP1 PUSH1 0x20 ADD SWAP1 SWAP3 SWAP2 SWAP1 POP POP POP PUSH2 0x1AC5 JUMP JUMPDEST PUSH1 0x40 MLOAD DUP1 DUP1 PUSH1 0x20 ADD DUP3 DUP2 SUB DUP3 MSTORE DUP4 DUP2 DUP2 MLOAD DUP2 MSTORE PUSH1 0x20 ADD SWAP2 POP DUP1 MLOAD SWAP1 PUSH1 0x20 ADD SWAP1 PUSH1 0x20 MUL DUP1 DUP4 DUP4 PUSH1 0x0 JUMPDEST DUP4 DUP2 LT ISZERO PUSH2 0x7ED JUMPI DUP1 DUP3 ADD MLOAD DUP2 DUP5 ADD MSTORE PUSH1 0x20 DUP2 ADD SWAP1 POP PUSH2 0x7D2 JUMP JUMPDEST POP POP POP POP SWAP1 POP ADD SWAP3 POP POP POP PUSH1 0x40 MLOAD DUP1 SWAP2 SUB SWAP1 RETURN JUMPDEST PUSH2 0x8AC PUSH1 0x4 DUP1 CALLDATASIZE SUB PUSH1 0x80 DUP2 LT ISZERO PUSH2 0x817 JUMPI PUSH1 0x0 DUP1 REVERT JUMPDEST DUP2 ADD SWAP1 DUP1 DUP1 CALLDATALOAD SWAP1 PUSH1 0x20 ADD SWAP1 SWAP3 SWAP2 SWAP1 DUP1 CALLDATALOAD SWAP1 PUSH1 0x20 ADD SWAP1 PUSH5 0x100000000 DUP2 GT ISZERO PUSH2 0x83E JUMPI PUSH1 0x0 DUP1 REVERT JUMPDEST DUP3 ADD DUP4 PUSH1 0x20 DUP3 ADD GT ISZERO PUSH2 0x850 JUMPI PUSH1 0x0 DUP1 REVERT JUMPDEST DUP1 CALLDATALOAD SWAP1 PUSH1 0x20 ADD SWAP2 DUP5 PUSH1 0x20 DUP4 MUL DUP5 ADD GT PUSH5 0x100000000 DUP4 GT OR ISZERO PUSH2 0x872 JUMPI PUSH1 0x0 DUP1 REVERT JUMPDEST SWAP1 SWAP2 SWAP3 SWAP4 SWAP2 SWAP3 SWAP4 SWAP1 DUP1 CALLDATALOAD PUSH20 0xFFFFFFFFFFFFFFFFFFFFFFFFFFFFFFFFFFFFFFFF AND SWAP1 PUSH1 0x20 ADD SWAP1 SWAP3 SWAP2 SWAP1 DUP1 CALLDATALOAD SWAP1 PUSH1 0x20 ADD SWAP1 SWAP3 SWAP2 SWAP1 POP POP POP PUSH2 0x1EE7 JUMP JUMPDEST PUSH1 0x40 MLOAD DUP1 DUP1 PUSH1 0x20 ADD DUP3 DUP2 SUB DUP3 MSTORE DUP4 DUP2 DUP2 MLOAD DUP2 MSTORE PUSH1 0x20 ADD SWAP2 POP DUP1 MLOAD SWAP1 PUSH1 0x20 ADD SWAP1 PUSH1 0x20 MUL DUP1 DUP4 DUP4 PUSH1 0x0 JUMPDEST DUP4 DUP2 LT ISZERO PUSH2 0x8EF JUMPI DUP1 DUP3 ADD MLOAD DUP2 DUP5 ADD MSTORE PUSH1 0x20 DUP2 ADD SWAP1 POP PUSH2 0x8D4 JUMP JUMPDEST POP POP POP POP SWAP1 POP ADD SWAP3 POP POP POP PUSH1 0x40 MLOAD DUP1 SWAP2 SUB SWAP1 RETURN JUMPDEST CALLVALUE DUP1 ISZERO PUSH2 0x90F JUMPI PUSH1 0x0 DUP1 REVERT JUMPDEST POP PUSH2 0x950 PUSH1 0x4 DUP1 CALLDATASIZE SUB PUSH1 0x60 DUP2 LT ISZERO PUSH2 0x926 JUMPI PUSH1 0x0 DUP1 REVERT JUMPDEST DUP2 ADD SWAP1 DUP1 DUP1 CALLDATALOAD SWAP1 PUSH1 0x20 ADD SWAP1 SWAP3 SWAP2 SWAP1 DUP1 CALLDATALOAD SWAP1 PUSH1 0x20 ADD SWAP1 SWAP3 SWAP2 SWAP1 DUP1 CALLDATALOAD SWAP1 PUSH1 0x20 ADD SWAP1 SWAP3 SWAP2 SWAP1 POP POP POP PUSH2 0x238B JUMP JUMPDEST PUSH1 0x40 MLOAD DUP1 DUP3 DUP2 MSTORE PUSH1 0x20 ADD SWAP2 POP POP PUSH1 0x40 MLOAD DUP1 SWAP2 SUB SWAP1 RETURN JUMPDEST CALLVALUE DUP1 ISZERO PUSH2 0x972 JUMPI PUSH1 0x0 DUP1 REVERT JUMPDEST POP PUSH2 0xA28 PUSH1 0x4 DUP1 CALLDATASIZE SUB PUSH1 0xA0 DUP2 LT ISZERO PUSH2 0x989 JUMPI PUSH1 0x0 DUP1 REVERT JUMPDEST DUP2 ADD SWAP1 DUP1 DUP1 CALLDATALOAD SWAP1 PUSH1 0x20 ADD SWAP1 SWAP3 SWAP2 SWAP1 DUP1 CALLDATALOAD SWAP1 PUSH1 0x20 ADD SWAP1 SWAP3 SWAP2 SWAP1 DUP1 CALLDATALOAD SWAP1 PUSH1 0x20 ADD SWAP1 PUSH5 0x100000000 DUP2 GT ISZERO PUSH2 0x9BA JUMPI PUSH1 0x0 DUP1 REVERT JUMPDEST DUP3 ADD DUP4 PUSH1 0x20 DUP3 ADD GT ISZERO PUSH2 0x9CC JUMPI PUSH1 0x0 DUP1 REVERT JUMPDEST DUP1 CALLDATALOAD SWAP1 PUSH1 0x20 ADD SWAP2 DUP5 PUSH1 0x20 DUP4 MUL DUP5 ADD GT PUSH5 0x100000000 DUP4 GT OR ISZERO PUSH2 0x9EE JUMPI PUSH1 0x0 DUP1 REVERT JUMPDEST SWAP1 SWAP2 SWAP3 SWAP4 SWAP2 SWAP3 SWAP4 SWAP1 DUP1 CALLDATALOAD PUSH20 0xFFFFFFFFFFFFFFFFFFFFFFFFFFFFFFFFFFFFFFFF AND SWAP1 PUSH1 0x20 ADD SWAP1 SWAP3 SWAP2 SWAP1 DUP1 CALLDATALOAD SWAP1 PUSH1 0x20 ADD SWAP1 SWAP3 SWAP2 SWAP1 POP POP POP PUSH2 0x23A1 JUMP JUMPDEST PUSH1 0x40 MLOAD DUP1 DUP1 PUSH1 0x20 ADD DUP3 DUP2 SUB DUP3 MSTORE DUP4 DUP2 DUP2 MLOAD DUP2 MSTORE PUSH1 0x20 ADD SWAP2 POP DUP1 MLOAD SWAP1 PUSH1 0x20 ADD SWAP1 PUSH1 0x20 MUL DUP1 DUP4 DUP4 PUSH1 0x0 JUMPDEST DUP4 DUP2 LT ISZERO PUSH2 0xA6B JUMPI DUP1 DUP3 ADD MLOAD DUP2 DUP5 ADD MSTORE PUSH1 0x20 DUP2 ADD SWAP1 POP PUSH2 0xA50 JUMP JUMPDEST POP POP POP POP SWAP1 POP ADD SWAP3 POP POP POP PUSH1 0x40 MLOAD DUP1 SWAP2 SUB SWAP1 RETURN JUMPDEST CALLVALUE DUP1 ISZERO PUSH2 0xA8B JUMPI PUSH1 0x0 DUP1 REVERT JUMPDEST POP PUSH2 0xA94 PUSH2 0x2611 JUMP JUMPDEST PUSH1 0x40 MLOAD DUP1 DUP3 PUSH20 0xFFFFFFFFFFFFFFFFFFFFFFFFFFFFFFFFFFFFFFFF AND PUSH20 0xFFFFFFFFFFFFFFFFFFFFFFFFFFFFFFFFFFFFFFFF AND DUP2 MSTORE PUSH1 0x20 ADD SWAP2 POP POP PUSH1 0x40 MLOAD DUP1 SWAP2 SUB SWAP1 RETURN JUMPDEST CALLVALUE DUP1 ISZERO PUSH2 0xAE2 JUMPI PUSH1 0x0 DUP1 REVERT JUMPDEST POP PUSH2 0xB23 PUSH1 0x4 DUP1 CALLDATASIZE SUB PUSH1 0x60 DUP2 LT ISZERO PUSH2 0xAF9 JUMPI PUSH1 0x0 DUP1 REVERT JUMPDEST DUP2 ADD SWAP1 DUP1 DUP1 CALLDATALOAD SWAP1 PUSH1 0x20 ADD SWAP1 SWAP3 SWAP2 SWAP1 DUP1 CALLDATALOAD SWAP1 PUSH1 0x20 ADD SWAP1 SWAP3 SWAP2 SWAP1 DUP1 CALLDATALOAD SWAP1 PUSH1 0x20 ADD SWAP1 SWAP3 SWAP2 SWAP1 POP POP POP PUSH2 0x2635 JUMP JUMPDEST PUSH1 0x40 MLOAD DUP1 DUP3 DUP2 MSTORE PUSH1 0x20 ADD SWAP2 POP POP PUSH1 0x40 MLOAD DUP1 SWAP2 SUB SWAP1 RETURN JUMPDEST CALLVALUE DUP1 ISZERO PUSH2 0xB45 JUMPI PUSH1 0x0 DUP1 REVERT JUMPDEST POP PUSH2 0xBF0 PUSH1 0x4 DUP1 CALLDATASIZE SUB PUSH1 0xE0 DUP2 LT ISZERO PUSH2 0xB5C JUMPI PUSH1 0x0 DUP1 REVERT JUMPDEST DUP2 ADD SWAP1 DUP1 DUP1 CALLDATALOAD PUSH20 0xFFFFFFFFFFFFFFFFFFFFFFFFFFFFFFFFFFFFFFFF AND SWAP1 PUSH1 0x20 ADD SWAP1 SWAP3 SWAP2 SWAP1 DUP1 CALLDATALOAD PUSH20 0xFFFFFFFFFFFFFFFFFFFFFFFFFFFFFFFFFFFFFFFF AND SWAP1 PUSH1 0x20 ADD SWAP1 SWAP3 SWAP2 SWAP1 DUP1 CALLDATALOAD SWAP1 PUSH1 0x20 ADD SWAP1 SWAP3 SWAP2 SWAP1 DUP1 CALLDATALOAD SWAP1 PUSH1 0x20 ADD SWAP1 SWAP3 SWAP2 SWAP1 DUP1 CALLDATALOAD SWAP1 PUSH1 0x20 ADD SWAP1 SWAP3 SWAP2 SWAP1 DUP1 CALLDATALOAD PUSH20 0xFFFFFFFFFFFFFFFFFFFFFFFFFFFFFFFFFFFFFFFF AND SWAP1 PUSH1 0x20 ADD SWAP1 SWAP3 SWAP2 SWAP1 DUP1 CALLDATALOAD SWAP1 PUSH1 0x20 ADD SWAP1 SWAP3 SWAP2 SWAP1 POP POP POP PUSH2 0x264B JUMP JUMPDEST PUSH1 0x40 MLOAD DUP1 DUP4 DUP2 MSTORE PUSH1 0x20 ADD DUP3 DUP2 MSTORE PUSH1 0x20 ADD SWAP3 POP POP POP PUSH1 0x40 MLOAD DUP1 SWAP2 SUB SWAP1 RETURN JUMPDEST CALLVALUE DUP1 ISZERO PUSH2 0xC19 JUMPI PUSH1 0x0 DUP1 REVERT JUMPDEST POP PUSH2 0xC22 PUSH2 0x29CC JUMP JUMPDEST PUSH1 0x40 MLOAD DUP1 DUP3 PUSH20 0xFFFFFFFFFFFFFFFFFFFFFFFFFFFFFFFFFFFFFFFF AND PUSH20 0xFFFFFFFFFFFFFFFFFFFFFFFFFFFFFFFFFFFFFFFF AND DUP2 MSTORE PUSH1 0x20 ADD SWAP2 POP POP PUSH1 0x40 MLOAD DUP1 SWAP2 SUB SWAP1 RETURN JUMPDEST CALLVALUE DUP1 ISZERO PUSH2 0xC70 JUMPI PUSH1 0x0 DUP1 REVERT JUMPDEST POP PUSH2 0xD31 PUSH1 0x4 DUP1 CALLDATASIZE SUB PUSH1 0x40 DUP2 LT ISZERO PUSH2 0xC87 JUMPI PUSH1 0x0 DUP1 REVERT JUMPDEST DUP2 ADD SWAP1 DUP1 DUP1 CALLDATALOAD SWAP1 PUSH1 0x20 ADD SWAP1 SWAP3 SWAP2 SWAP1 DUP1 CALLDATALOAD SWAP1 PUSH1 0x20 ADD SWAP1 PUSH5 0x100000000 DUP2 GT ISZERO PUSH2 0xCAE JUMPI PUSH1 0x0 DUP1 REVERT JUMPDEST DUP3 ADD DUP4 PUSH1 0x20 DUP3 ADD GT ISZERO PUSH2 0xCC0 JUMPI PUSH1 0x0 DUP1 REVERT JUMPDEST DUP1 CALLDATALOAD SWAP1 PUSH1 0x20 ADD SWAP2 DUP5 PUSH1 0x20 DUP4 MUL DUP5 ADD GT PUSH5 0x100000000 DUP4 GT OR ISZERO PUSH2 0xCE2 JUMPI PUSH1 0x0 DUP1 REVERT JUMPDEST SWAP2 SWAP1 DUP1 DUP1 PUSH1 0x20 MUL PUSH1 0x20 ADD PUSH1 0x40 MLOAD SWAP1 DUP2 ADD PUSH1 0x40 MSTORE DUP1 SWAP4 SWAP3 SWAP2 SWAP1 DUP2 DUP2 MSTORE PUSH1 0x20 ADD DUP4 DUP4 PUSH1 0x20 MUL DUP1 DUP3 DUP5 CALLDATACOPY PUSH1 0x0 DUP2 DUP5 ADD MSTORE PUSH1 0x1F NOT PUSH1 0x1F DUP3 ADD AND SWAP1 POP DUP1 DUP4 ADD SWAP3 POP POP POP POP POP POP POP SWAP2 SWAP3 SWAP2 SWAP3 SWAP1 POP POP POP PUSH2 0x29F0 JUMP JUMPDEST PUSH1 0x40 MLOAD DUP1 DUP1 PUSH1 0x20 ADD DUP3 DUP2 SUB DUP3 MSTORE DUP4 DUP2 DUP2 MLOAD DUP2 MSTORE PUSH1 0x20 ADD SWAP2 POP DUP1 MLOAD SWAP1 PUSH1 0x20 ADD SWAP1 PUSH1 0x20 MUL DUP1 DUP4 DUP4 PUSH1 0x0 JUMPDEST DUP4 DUP2 LT ISZERO PUSH2 0xD74 JUMPI DUP1 DUP3 ADD MLOAD DUP2 DUP5 ADD MSTORE PUSH1 0x20 DUP2 ADD SWAP1 POP PUSH2 0xD59 JUMP JUMPDEST POP POP POP POP SWAP1 POP ADD SWAP3 POP POP POP PUSH1 0x40 MLOAD DUP1 SWAP2 SUB SWAP1 RETURN JUMPDEST CALLVALUE DUP1 ISZERO PUSH2 0xD94 JUMPI PUSH1 0x0 DUP1 REVERT JUMPDEST POP PUSH2 0xE4D PUSH1 0x4 DUP1 CALLDATASIZE SUB PUSH2 0x140 DUP2 LT ISZERO PUSH2 0xDAC JUMPI PUSH1 0x0 DUP1 REVERT JUMPDEST DUP2 ADD SWAP1 DUP1 DUP1 CALLDATALOAD PUSH20 0xFFFFFFFFFFFFFFFFFFFFFFFFFFFFFFFFFFFFFFFF AND SWAP1 PUSH1 0x20 ADD SWAP1 SWAP3 SWAP2 SWAP1 DUP1 CALLDATALOAD SWAP1 PUSH1 0x20 ADD SWAP1 SWAP3 SWAP2 SWAP1 DUP1 CALLDATALOAD SWAP1 PUSH1 0x20 ADD SWAP1 SWAP3 SWAP2 SWAP1 DUP1 CALLDATALOAD SWAP1 PUSH1 0x20 ADD SWAP1 SWAP3 SWAP2 SWAP1 DUP1 CALLDATALOAD PUSH20 0xFFFFFFFFFFFFFFFFFFFFFFFFFFFFFFFFFFFFFFFF AND SWAP1 PUSH1 0x20 ADD SWAP1 SWAP3 SWAP2 SWAP1 DUP1 CALLDATALOAD SWAP1 PUSH1 0x20 ADD SWAP1 SWAP3 SWAP2 SWAP1 DUP1 CALLDATALOAD ISZERO ISZERO SWAP1 PUSH1 0x20 ADD SWAP1 SWAP3 SWAP2 SWAP1 DUP1 CALLDATALOAD PUSH1 0xFF AND SWAP1 PUSH1 0x20 ADD SWAP1 SWAP3 SWAP2 SWAP1 DUP1 CALLDATALOAD SWAP1 PUSH1 0x20 ADD SWAP1 SWAP3 SWAP2 SWAP1 DUP1 CALLDATALOAD SWAP1 PUSH1 0x20 ADD SWAP1 SWAP3 SWAP2 SWAP1 POP POP POP PUSH2 0x2A25 JUMP JUMPDEST PUSH1 0x40 MLOAD DUP1 DUP4 DUP2 MSTORE PUSH1 0x20 ADD DUP3 DUP2 MSTORE PUSH1 0x20 ADD SWAP3 POP POP POP PUSH1 0x40 MLOAD DUP1 SWAP2 SUB SWAP1 RETURN JUMPDEST CALLVALUE DUP1 ISZERO PUSH2 0xE76 JUMPI PUSH1 0x0 DUP1 REVERT JUMPDEST POP PUSH2 0xF2C PUSH1 0x4 DUP1 CALLDATASIZE SUB PUSH2 0x100 DUP2 LT ISZERO PUSH2 0xE8E JUMPI PUSH1 0x0 DUP1 REVERT JUMPDEST DUP2 ADD SWAP1 DUP1 DUP1 CALLDATALOAD PUSH20 0xFFFFFFFFFFFFFFFFFFFFFFFFFFFFFFFFFFFFFFFF AND SWAP1 PUSH1 0x20 ADD SWAP1 SWAP3 SWAP2 SWAP1 DUP1 CALLDATALOAD PUSH20 0xFFFFFFFFFFFFFFFFFFFFFFFFFFFFFFFFFFFFFFFF AND SWAP1 PUSH1 0x20 ADD SWAP1 SWAP3 SWAP2 SWAP1 DUP1 CALLDATALOAD SWAP1 PUSH1 0x20 ADD SWAP1 SWAP3 SWAP2 SWAP1 DUP1 CALLDATALOAD SWAP1 PUSH1 0x20 ADD SWAP1 SWAP3 SWAP2 SWAP1 DUP1 CALLDATALOAD SWAP1 PUSH1 0x20 ADD SWAP1 SWAP3 SWAP2 SWAP1 DUP1 CALLDATALOAD SWAP1 PUSH1 0x20 ADD SWAP1 SWAP3 SWAP2 SWAP1 DUP1 CALLDATALOAD PUSH20 0xFFFFFFFFFFFFFFFFFFFFFFFFFFFFFFFFFFFFFFFF AND SWAP1 PUSH1 0x20 ADD SWAP1 SWAP3 SWAP2 SWAP1 DUP1 CALLDATALOAD SWAP1 PUSH1 0x20 ADD SWAP1 SWAP3 SWAP2 SWAP1 POP POP POP PUSH2 0x2BC8 JUMP JUMPDEST PUSH1 0x40 MLOAD DUP1 DUP5 DUP2 MSTORE PUSH1 0x20 ADD DUP4 DUP2 MSTORE PUSH1 0x20 ADD DUP3 DUP2 MSTORE PUSH1 0x20 ADD SWAP4 POP POP POP POP PUSH1 0x40 MLOAD DUP1 SWAP2 SUB SWAP1 RETURN JUMPDEST PUSH2 0xFDA PUSH1 0x4 DUP1 CALLDATASIZE SUB PUSH1 0xC0 DUP2 LT ISZERO PUSH2 0xF66 JUMPI PUSH1 0x0 DUP1 REVERT JUMPDEST DUP2 ADD SWAP1 DUP1 DUP1 CALLDATALOAD PUSH20 0xFFFFFFFFFFFFFFFFFFFFFFFFFFFFFFFFFFFFFFFF AND SWAP1 PUSH1 0x20 ADD SWAP1 SWAP3 SWAP2 SWAP1 DUP1 CALLDATALOAD SWAP1 PUSH1 0x20 ADD SWAP1 SWAP3 SWAP2 SWAP1 DUP1 CALLDATALOAD SWAP1 PUSH1 0x20 ADD SWAP1 SWAP3 SWAP2 SWAP1 DUP1 CALLDATALOAD SWAP1 PUSH1 0x20 ADD SWAP1 SWAP3 SWAP2 SWAP1 DUP1 CALLDATALOAD PUSH20 0xFFFFFFFFFFFFFFFFFFFFFFFFFFFFFFFFFFFFFFFF AND SWAP1 PUSH1 0x20 ADD SWAP1 SWAP3 SWAP2 SWAP1 DUP1 CALLDATALOAD SWAP1 PUSH1 0x20 ADD SWAP1 SWAP3 SWAP2 SWAP1 POP POP POP PUSH2 0x2D6D JUMP JUMPDEST PUSH1 0x40 MLOAD DUP1 DUP5 DUP2 MSTORE PUSH1 0x20 ADD DUP4 DUP2 MSTORE PUSH1 0x20 ADD DUP3 DUP2 MSTORE PUSH1 0x20 ADD SWAP4 POP POP POP POP PUSH1 0x40 MLOAD DUP1 SWAP2 SUB SWAP1 RETURN JUMPDEST PUSH2 0x10A9 PUSH1 0x4 DUP1 CALLDATASIZE SUB PUSH1 0x80 DUP2 LT ISZERO PUSH2 0x1014 JUMPI PUSH1 0x0 DUP1 REVERT JUMPDEST DUP2 ADD SWAP1 DUP1 DUP1 CALLDATALOAD SWAP1 PUSH1 0x20 ADD SWAP1 SWAP3 SWAP2 SWAP1 DUP1 CALLDATALOAD SWAP1 PUSH1 0x20 ADD SWAP1 PUSH5 0x100000000 DUP2 GT ISZERO PUSH2 0x103B JUMPI PUSH1 0x0 DUP1 REVERT JUMPDEST DUP3 ADD DUP4 PUSH1 0x20 DUP3 ADD GT ISZERO PUSH2 0x104D JUMPI PUSH1 0x0 DUP1 REVERT JUMPDEST DUP1 CALLDATALOAD SWAP1 PUSH1 0x20 ADD SWAP2 DUP5 PUSH1 0x20 DUP4 MUL DUP5 ADD GT PUSH5 0x100000000 DUP4 GT OR ISZERO PUSH2 0x106F JUMPI PUSH1 0x0 DUP1 REVERT JUMPDEST SWAP1 SWAP2 SWAP3 SWAP4 SWAP2 SWAP3 SWAP4 SWAP1 DUP1 CALLDATALOAD PUSH20 0xFFFFFFFFFFFFFFFFFFFFFFFFFFFFFFFFFFFFFFFF AND SWAP1 PUSH1 0x20 ADD SWAP1 SWAP3 SWAP2 SWAP1 DUP1 CALLDATALOAD SWAP1 PUSH1 0x20 ADD SWAP1 SWAP3 SWAP2 SWAP1 POP POP POP PUSH2 0x30C2 JUMP JUMPDEST PUSH1 0x40 MLOAD DUP1 DUP1 PUSH1 0x20 ADD DUP3 DUP2 SUB DUP3 MSTORE DUP4 DUP2 DUP2 MLOAD DUP2 MSTORE PUSH1 0x20 ADD SWAP2 POP DUP1 MLOAD SWAP1 PUSH1 0x20 ADD SWAP1 PUSH1 0x20 MUL DUP1 DUP4 DUP4 PUSH1 0x0 JUMPDEST DUP4 DUP2 LT ISZERO PUSH2 0x10EC JUMPI DUP1 DUP3 ADD MLOAD DUP2 DUP5 ADD MSTORE PUSH1 0x20 DUP2 ADD SWAP1 POP PUSH2 0x10D1 JUMP JUMPDEST POP POP POP POP SWAP1 POP ADD SWAP3 POP POP POP PUSH1 0x40 MLOAD DUP1 SWAP2 SUB SWAP1 RETURN JUMPDEST PUSH1 0x0 DUP1 DUP3 TIMESTAMP DUP2 LT ISZERO PUSH2 0x117A JUMPI PUSH1 0x40 MLOAD PUSH32 0x8C379A000000000000000000000000000000000000000000000000000000000 DUP2 MSTORE PUSH1 0x4 ADD DUP1 DUP1 PUSH1 0x20 ADD DUP3 DUP2 SUB DUP3 MSTORE PUSH1 0x15 DUP2 MSTORE PUSH1 0x20 ADD DUP1 PUSH32 0x45787A6F6E65526F757465723A20455850495245440000000000000000000000 DUP2 MSTORE POP PUSH1 0x20 ADD SWAP2 POP POP PUSH1 0x40 MLOAD DUP1 SWAP2 SUB SWAP1 REVERT JUMPDEST PUSH2 0x11A9 DUP10 PUSH32 0x0 DUP11 DUP11 DUP11 ADDRESS DUP11 PUSH2 0x264B JUMP JUMPDEST DUP1 SWAP4 POP DUP2 SWAP5 POP POP POP PUSH2 0x11BC DUP10 DUP7 DUP6 PUSH2 0x35A0 JUMP JUMPDEST PUSH32 0x0 PUSH20 0xFFFFFFFFFFFFFFFFFFFFFFFFFFFFFFFFFFFFFFFF AND PUSH4 0x2E1A7D4D DUP4 PUSH1 0x40 MLOAD DUP3 PUSH4 0xFFFFFFFF AND PUSH1 0xE0 SHL DUP2 MSTORE PUSH1 0x4 ADD DUP1 DUP3 DUP2 MSTORE PUSH1 0x20 ADD SWAP2 POP POP PUSH1 0x0 PUSH1 0x40 MLOAD DUP1 DUP4 SUB DUP2 PUSH1 0x0 DUP8 DUP1 EXTCODESIZE ISZERO DUP1 ISZERO PUSH2 0x122F JUMPI PUSH1 0x0 DUP1 REVERT JUMPDEST POP GAS CALL ISZERO DUP1 ISZERO PUSH2 0x1243 JUMPI RETURNDATASIZE PUSH1 0x0 DUP1 RETURNDATACOPY RETURNDATASIZE PUSH1 0x0 REVERT JUMPDEST POP POP POP POP PUSH2 0x1251 DUP6 DUP4 PUSH2 0x377C JUMP JUMPDEST POP SWAP7 POP SWAP7 SWAP5 POP POP POP POP POP JUMP JUMPDEST PUSH1 0x0 PUSH2 0x126A DUP5 DUP5 DUP5 PUSH2 0x38DB JUMP JUMPDEST SWAP1 POP SWAP4 SWAP3 POP POP POP JUMP JUMPDEST PUSH1 0x60 DUP2 TIMESTAMP DUP2 LT ISZERO PUSH2 0x12EC JUMPI PUSH1 0x40 MLOAD PUSH32 0x8C379A000000000000000000000000000000000000000000000000000000000 DUP2 MSTORE PUSH1 0x4 ADD DUP1 DUP1 PUSH1 0x20 ADD DUP3 DUP2 SUB DUP3 MSTORE PUSH1 0x15 DUP2 MSTORE PUSH1 0x20 ADD DUP1 PUSH32 0x45787A6F6E65526F757465723A20455850495245440000000000000000000000 DUP2 MSTORE POP PUSH1 0x20 ADD SWAP2 POP POP PUSH1 0x40 MLOAD DUP1 SWAP2 SUB SWAP1 REVERT JUMPDEST PUSH32 0x0 PUSH20 0xFFFFFFFFFFFFFFFFFFFFFFFFFFFFFFFFFFFFFFFF AND DUP7 DUP7 PUSH1 0x1 DUP10 DUP10 SWAP1 POP SUB DUP2 DUP2 LT PUSH2 0x1335 JUMPI INVALID JUMPDEST SWAP1 POP PUSH1 0x20 MUL ADD CALLDATALOAD PUSH20 0xFFFFFFFFFFFFFFFFFFFFFFFFFFFFFFFFFFFFFFFF AND PUSH20 0xFFFFFFFFFFFFFFFFFFFFFFFFFFFFFFFFFFFFFFFF AND EQ PUSH2 0x13DB JUMPI PUSH1 0x40 MLOAD PUSH32 0x8C379A000000000000000000000000000000000000000000000000000000000 DUP2 MSTORE PUSH1 0x4 ADD DUP1 DUP1 PUSH1 0x20 ADD DUP3 DUP2 SUB DUP3 MSTORE PUSH1 0x1A DUP2 MSTORE PUSH1 0x20 ADD DUP1 PUSH32 0x45787A6F6E65526F757465723A20494E56414C49445F50415448000000000000 DUP2 MSTORE POP PUSH1 0x20 ADD SWAP2 POP POP PUSH1 0x40 MLOAD DUP1 SWAP2 SUB SWAP1 REVERT JUMPDEST PUSH2 0x1447 PUSH32 0x0 DUP10 DUP9 DUP9 DUP1 DUP1 PUSH1 0x20 MUL PUSH1 0x20 ADD PUSH1 0x40 MLOAD SWAP1 DUP2 ADD PUSH1 0x40 MSTORE DUP1 SWAP4 SWAP3 SWAP2 SWAP1 DUP2 DUP2 MSTORE PUSH1 0x20 ADD DUP4 DUP4 PUSH1 0x20 MUL DUP1 DUP3 DUP5 CALLDATACOPY PUSH1 0x0 DUP2 DUP5 ADD MSTORE PUSH1 0x1F NOT PUSH1 0x1F DUP3 ADD AND SWAP1 POP DUP1 DUP4 ADD SWAP3 POP POP POP POP POP POP POP PUSH2 0x3A0B JUMP JUMPDEST SWAP2 POP DUP7 DUP3 PUSH1 0x1 DUP5 MLOAD SUB DUP2 MLOAD DUP2 LT PUSH2 0x145A JUMPI INVALID JUMPDEST PUSH1 0x20 MUL PUSH1 0x20 ADD ADD MLOAD LT ISZERO PUSH2 0x14B9 JUMPI PUSH1 0x40 MLOAD PUSH32 0x8C379A000000000000000000000000000000000000000000000000000000000 DUP2 MSTORE PUSH1 0x4 ADD DUP1 DUP1 PUSH1 0x20 ADD DUP3 DUP2 SUB DUP3 MSTORE PUSH1 0x28 DUP2 MSTORE PUSH1 0x20 ADD DUP1 PUSH2 0x4EED PUSH1 0x28 SWAP2 CODECOPY PUSH1 0x40 ADD SWAP2 POP POP PUSH1 0x40 MLOAD DUP1 SWAP2 SUB SWAP1 REVERT JUMPDEST PUSH2 0x157E DUP7 DUP7 PUSH1 0x0 DUP2 DUP2 LT PUSH2 0x14C9 JUMPI INVALID JUMPDEST SWAP1 POP PUSH1 0x20 MUL ADD CALLDATALOAD PUSH20 0xFFFFFFFFFFFFFFFFFFFFFFFFFFFFFFFFFFFFFFFF AND CALLER PUSH2 0x1564 PUSH32 0x0 DUP11 DUP11 PUSH1 0x0 DUP2 DUP2 LT PUSH2 0x1518 JUMPI INVALID JUMPDEST SWAP1 POP PUSH1 0x20 MUL ADD CALLDATALOAD PUSH20 0xFFFFFFFFFFFFFFFFFFFFFFFFFFFFFFFFFFFFFFFF AND DUP12 DUP12 PUSH1 0x1 DUP2 DUP2 LT PUSH2 0x1542 JUMPI INVALID JUMPDEST SWAP1 POP PUSH1 0x20 MUL ADD CALLDATALOAD PUSH20 0xFFFFFFFFFFFFFFFFFFFFFFFFFFFFFFFFFFFFFFFF AND PUSH2 0x3B83 JUMP JUMPDEST DUP6 PUSH1 0x0 DUP2 MLOAD DUP2 LT PUSH2 0x1571 JUMPI INVALID JUMPDEST PUSH1 0x20 MUL PUSH1 0x20 ADD ADD MLOAD PUSH2 0x3CDE JUMP JUMPDEST PUSH2 0x15CA DUP3 DUP8 DUP8 DUP1 DUP1 PUSH1 0x20 MUL PUSH1 0x20 ADD PUSH1 0x40 MLOAD SWAP1 DUP2 ADD PUSH1 0x40 MSTORE DUP1 SWAP4 SWAP3 SWAP2 SWAP1 DUP2 DUP2 MSTORE PUSH1 0x20 ADD DUP4 DUP4 PUSH1 0x20 MUL DUP1 DUP3 DUP5 CALLDATACOPY PUSH1 0x0 DUP2 DUP5 ADD MSTORE PUSH1 0x1F NOT PUSH1 0x1F DUP3 ADD AND SWAP1 POP DUP1 DUP4 ADD SWAP3 POP POP POP POP POP POP POP ADDRESS PUSH2 0x3EEF JUMP JUMPDEST PUSH32 0x0 PUSH20 0xFFFFFFFFFFFFFFFFFFFFFFFFFFFFFFFFFFFFFFFF AND PUSH4 0x2E1A7D4D DUP4 PUSH1 0x1 DUP6 MLOAD SUB DUP2 MLOAD DUP2 LT PUSH2 0x1616 JUMPI INVALID JUMPDEST PUSH1 0x20 MUL PUSH1 0x20 ADD ADD MLOAD PUSH1 0x40 MLOAD DUP3 PUSH4 0xFFFFFFFF AND PUSH1 0xE0 SHL DUP2 MSTORE PUSH1 0x4 ADD DUP1 DUP3 DUP2 MSTORE PUSH1 0x20 ADD SWAP2 POP POP PUSH1 0x0 PUSH1 0x40 MLOAD DUP1 DUP4 SUB DUP2 PUSH1 0x0 DUP8 DUP1 EXTCODESIZE ISZERO DUP1 ISZERO PUSH2 0x1654 JUMPI PUSH1 0x0 DUP1 REVERT JUMPDEST POP GAS CALL ISZERO DUP1 ISZERO PUSH2 0x1668 JUMPI RETURNDATASIZE PUSH1 0x0 DUP1 RETURNDATACOPY RETURNDATASIZE PUSH1 0x0 REVERT JUMPDEST POP POP POP POP PUSH2 0x168D DUP5 DUP4 PUSH1 0x1 DUP6 MLOAD SUB DUP2 MLOAD DUP2 LT PUSH2 0x1680 JUMPI INVALID JUMPDEST PUSH1 0x20 MUL PUSH1 0x20 ADD ADD MLOAD PUSH2 0x377C JUMP JUMPDEST POP SWAP7 SWAP6 POP POP POP POP POP POP JUMP JUMPDEST PUSH1 0x60 PUSH2 0x16C5 PUSH32 0x0 DUP5 DUP5 PUSH2 0x419A JUMP JUMPDEST SWAP1 POP SWAP3 SWAP2 POP POP JUMP JUMPDEST PUSH1 0x0 DUP1 PUSH1 0x0 PUSH2 0x16FD PUSH32 0x0 DUP16 DUP16 PUSH2 0x3B83 JUMP JUMPDEST SWAP1 POP PUSH1 0x0 DUP8 PUSH2 0x170C JUMPI DUP13 PUSH2 0x172E JUMP JUMPDEST PUSH32 0xFFFFFFFFFFFFFFFFFFFFFFFFFFFFFFFFFFFFFFFFFFFFFFFFFFFFFFFFFFFFFFFF JUMPDEST SWAP1 POP DUP2 PUSH20 0xFFFFFFFFFFFFFFFFFFFFFFFFFFFFFFFFFFFFFFFF AND PUSH4 0xD505ACCF CALLER ADDRESS DUP5 DUP14 DUP13 DUP13 DUP13 PUSH1 0x40 MLOAD DUP9 PUSH4 0xFFFFFFFF AND PUSH1 0xE0 SHL DUP2 MSTORE PUSH1 0x4 ADD DUP1 DUP9 PUSH20 0xFFFFFFFFFFFFFFFFFFFFFFFFFFFFFFFFFFFFFFFF AND PUSH20 0xFFFFFFFFFFFFFFFFFFFFFFFFFFFFFFFFFFFFFFFF AND DUP2 MSTORE PUSH1 0x20 ADD DUP8 PUSH20 0xFFFFFFFFFFFFFFFFFFFFFFFFFFFFFFFFFFFFFFFF AND PUSH20 0xFFFFFFFFFFFFFFFFFFFFFFFFFFFFFFFFFFFFFFFF AND DUP2 MSTORE PUSH1 0x20 ADD DUP7 DUP2 MSTORE PUSH1 0x20 ADD DUP6 DUP2 MSTORE PUSH1 0x20 ADD DUP5 PUSH1 0xFF AND PUSH1 0xFF AND DUP2 MSTORE PUSH1 0x20 ADD DUP4 DUP2 MSTORE PUSH1 0x20 ADD DUP3 DUP2 MSTORE PUSH1 0x20 ADD SWAP8 POP POP POP POP POP POP POP POP PUSH1 0x0 PUSH1 0x40 MLOAD DUP1 DUP4 SUB DUP2 PUSH1 0x0 DUP8 DUP1 EXTCODESIZE ISZERO DUP1 ISZERO PUSH2 0x1811 JUMPI PUSH1 0x0 DUP1 REVERT JUMPDEST POP GAS CALL ISZERO DUP1 ISZERO PUSH2 0x1825 JUMPI RETURNDATASIZE PUSH1 0x0 DUP1 RETURNDATACOPY RETURNDATASIZE PUSH1 0x0 REVERT JUMPDEST POP POP POP POP PUSH2 0x1838 DUP16 DUP16 DUP16 DUP16 DUP16 DUP16 DUP16 PUSH2 0x264B JUMP JUMPDEST DUP1 SWAP5 POP DUP2 SWAP6 POP POP POP POP POP SWAP12 POP SWAP12 SWAP10 POP POP POP POP POP POP POP POP POP POP JUMP JUMPDEST PUSH1 0x60 DUP2 TIMESTAMP DUP2 LT ISZERO PUSH2 0x18CB JUMPI PUSH1 0x40 MLOAD PUSH32 0x8C379A000000000000000000000000000000000000000000000000000000000 DUP2 MSTORE PUSH1 0x4 ADD DUP1 DUP1 PUSH1 0x20 ADD DUP3 DUP2 SUB DUP3 MSTORE PUSH1 0x15 DUP2 MSTORE PUSH1 0x20 ADD DUP1 PUSH32 0x45787A6F6E65526F757465723A20455850495245440000000000000000000000 DUP2 MSTORE POP PUSH1 0x20 ADD SWAP2 POP POP PUSH1 0x40 MLOAD DUP1 SWAP2 SUB SWAP1 REVERT JUMPDEST PUSH2 0x1937 PUSH32 0x0 DUP10 DUP9 DUP9 DUP1 DUP1 PUSH1 0x20 MUL PUSH1 0x20 ADD PUSH1 0x40 MLOAD SWAP1 DUP2 ADD PUSH1 0x40 MSTORE DUP1 SWAP4 SWAP3 SWAP2 SWAP1 DUP2 DUP2 MSTORE PUSH1 0x20 ADD DUP4 DUP4 PUSH1 0x20 MUL DUP1 DUP3 DUP5 CALLDATACOPY PUSH1 0x0 DUP2 DUP5 ADD MSTORE PUSH1 0x1F NOT PUSH1 0x1F DUP3 ADD AND SWAP1 POP DUP1 DUP4 ADD SWAP3 POP POP POP POP POP POP POP PUSH2 0x3A0B JUMP JUMPDEST SWAP2 POP DUP7 DUP3 PUSH1 0x1 DUP5 MLOAD SUB DUP2 MLOAD DUP2 LT PUSH2 0x194A JUMPI INVALID JUMPDEST PUSH1 0x20 MUL PUSH1 0x20 ADD ADD MLOAD LT ISZERO PUSH2 0x19A9 JUMPI PUSH1 0x40 MLOAD PUSH32 0x8C379A000000000000000000000000000000000000000000000000000000000 DUP2 MSTORE PUSH1 0x4 ADD DUP1 DUP1 PUSH1 0x20 ADD DUP3 DUP2 SUB DUP3 MSTORE PUSH1 0x28 DUP2 MSTORE PUSH1 0x20 ADD DUP1 PUSH2 0x4EED PUSH1 0x28 SWAP2 CODECOPY PUSH1 0x40 ADD SWAP2 POP POP PUSH1 0x40 MLOAD DUP1 SWAP2 SUB SWAP1 REVERT JUMPDEST PUSH2 0x1A6E DUP7 DUP7 PUSH1 0x0 DUP2 DUP2 LT PUSH2 0x19B9 JUMPI INVALID JUMPDEST SWAP1 POP PUSH1 0x20 MUL ADD CALLDATALOAD PUSH20 0xFFFFFFFFFFFFFFFFFFFFFFFFFFFFFFFFFFFFFFFF AND CALLER PUSH2 0x1A54 PUSH32 0x0 DUP11 DUP11 PUSH1 0x0 DUP2 DUP2 LT PUSH2 0x1A08 JUMPI INVALID JUMPDEST SWAP1 POP PUSH1 0x20 MUL ADD CALLDATALOAD PUSH20 0xFFFFFFFFFFFFFFFFFFFFFFFFFFFFFFFFFFFFFFFF AND DUP12 DUP12 PUSH1 0x1 DUP2 DUP2 LT PUSH2 0x1A32 JUMPI INVALID JUMPDEST SWAP1 POP PUSH1 0x20 MUL ADD CALLDATALOAD PUSH20 0xFFFFFFFFFFFFFFFFFFFFFFFFFFFFFFFFFFFFFFFF AND PUSH2 0x3B83 JUMP JUMPDEST DUP6 PUSH1 0x0 DUP2 MLOAD DUP2 LT PUSH2 0x1A61 JUMPI INVALID JUMPDEST PUSH1 0x20 MUL PUSH1 0x20 ADD ADD MLOAD PUSH2 0x3CDE JUMP JUMPDEST PUSH2 0x1ABA DUP3 DUP8 DUP8 DUP1 DUP1 PUSH1 0x20 MUL PUSH1 0x20 ADD PUSH1 0x40 MLOAD SWAP1 DUP2 ADD PUSH1 0x40 MSTORE DUP1 SWAP4 SWAP3 SWAP2 SWAP1 DUP2 DUP2 MSTORE PUSH1 0x20 ADD DUP4 DUP4 PUSH1 0x20 MUL DUP1 DUP3 DUP5 CALLDATACOPY PUSH1 0x0 DUP2 DUP5 ADD MSTORE PUSH1 0x1F NOT PUSH1 0x1F DUP3 ADD AND SWAP1 POP DUP1 DUP4 ADD SWAP3 POP POP POP POP POP POP POP DUP7 PUSH2 0x3EEF JUMP JUMPDEST POP SWAP7 SWAP6 POP POP POP POP POP POP JUMP JUMPDEST PUSH1 0x60 DUP2 TIMESTAMP DUP2 LT ISZERO PUSH2 0x1B3E JUMPI PUSH1 0x40 MLOAD PUSH32 0x8C379A000000000000000000000000000000000000000000000000000000000 DUP2 MSTORE PUSH1 0x4 ADD DUP1 DUP1 PUSH1 0x20 ADD DUP3 DUP2 SUB DUP3 MSTORE PUSH1 0x15 DUP2 MSTORE PUSH1 0x20 ADD DUP1 PUSH32 0x45787A6F6E65526F757465723A20455850495245440000000000000000000000 DUP2 MSTORE POP PUSH1 0x20 ADD SWAP2 POP POP PUSH1 0x40 MLOAD DUP1 SWAP2 SUB SWAP1 REVERT JUMPDEST PUSH32 0x0 PUSH20 0xFFFFFFFFFFFFFFFFFFFFFFFFFFFFFFFFFFFFFFFF AND DUP7 DUP7 PUSH1 0x1 DUP10 DUP10 SWAP1 POP SUB DUP2 DUP2 LT PUSH2 0x1B87 JUMPI INVALID JUMPDEST SWAP1 POP PUSH1 0x20 MUL ADD CALLDATALOAD PUSH20 0xFFFFFFFFFFFFFFFFFFFFFFFFFFFFFFFFFFFFFFFF AND PUSH20 0xFFFFFFFFFFFFFFFFFFFFFFFFFFFFFFFFFFFFFFFF AND EQ PUSH2 0x1C2D JUMPI PUSH1 0x40 MLOAD PUSH32 0x8C379A000000000000000000000000000000000000000000000000000000000 DUP2 MSTORE PUSH1 0x4 ADD DUP1 DUP1 PUSH1 0x20 ADD DUP3 DUP2 SUB DUP3 MSTORE PUSH1 0x1A DUP2 MSTORE PUSH1 0x20 ADD DUP1 PUSH32 0x45787A6F6E65526F757465723A20494E56414C49445F50415448000000000000 DUP2 MSTORE POP PUSH1 0x20 ADD SWAP2 POP POP PUSH1 0x40 MLOAD DUP1 SWAP2 SUB SWAP1 REVERT JUMPDEST PUSH2 0x1C99 PUSH32 0x0 DUP10 DUP9 DUP9 DUP1 DUP1 PUSH1 0x20 MUL PUSH1 0x20 ADD PUSH1 0x40 MLOAD SWAP1 DUP2 ADD PUSH1 0x40 MSTORE DUP1 SWAP4 SWAP3 SWAP2 SWAP1 DUP2 DUP2 MSTORE PUSH1 0x20 ADD DUP4 DUP4 PUSH1 0x20 MUL DUP1 DUP3 DUP5 CALLDATACOPY PUSH1 0x0 DUP2 DUP5 ADD MSTORE PUSH1 0x1F NOT PUSH1 0x1F DUP3 ADD AND SWAP1 POP DUP1 DUP4 ADD SWAP3 POP POP POP POP POP POP POP PUSH2 0x419A JUMP JUMPDEST SWAP2 POP DUP7 DUP3 PUSH1 0x0 DUP2 MLOAD DUP2 LT PUSH2 0x1CA9 JUMPI INVALID JUMPDEST PUSH1 0x20 MUL PUSH1 0x20 ADD ADD MLOAD GT ISZERO PUSH2 0x1D08 JUMPI PUSH1 0x40 MLOAD PUSH32 0x8C379A000000000000000000000000000000000000000000000000000000000 DUP2 MSTORE PUSH1 0x4 ADD DUP1 DUP1 PUSH1 0x20 ADD DUP3 DUP2 SUB DUP3 MSTORE PUSH1 0x24 DUP2 MSTORE PUSH1 0x20 ADD DUP1 PUSH2 0x4D37 PUSH1 0x24 SWAP2 CODECOPY PUSH1 0x40 ADD SWAP2 POP POP PUSH1 0x40 MLOAD DUP1 SWAP2 SUB SWAP1 REVERT JUMPDEST PUSH2 0x1DCD DUP7 DUP7 PUSH1 0x0 DUP2 DUP2 LT PUSH2 0x1D18 JUMPI INVALID JUMPDEST SWAP1 POP PUSH1 0x20 MUL ADD CALLDATALOAD PUSH20 0xFFFFFFFFFFFFFFFFFFFFFFFFFFFFFFFFFFFFFFFF AND CALLER PUSH2 0x1DB3 PUSH32 0x0 DUP11 DUP11 PUSH1 0x0 DUP2 DUP2 LT PUSH2 0x1D67 JUMPI INVALID JUMPDEST SWAP1 POP PUSH1 0x20 MUL ADD CALLDATALOAD PUSH20 0xFFFFFFFFFFFFFFFFFFFFFFFFFFFFFFFFFFFFFFFF AND DUP12 DUP12 PUSH1 0x1 DUP2 DUP2 LT PUSH2 0x1D91 JUMPI INVALID JUMPDEST SWAP1 POP PUSH1 0x20 MUL ADD CALLDATALOAD PUSH20 0xFFFFFFFFFFFFFFFFFFFFFFFFFFFFFFFFFFFFFFFF AND PUSH2 0x3B83 JUMP JUMPDEST DUP6 PUSH1 0x0 DUP2 MLOAD DUP2 LT PUSH2 0x1DC0 JUMPI INVALID JUMPDEST PUSH1 0x20 MUL PUSH1 0x20 ADD ADD MLOAD PUSH2 0x3CDE JUMP JUMPDEST PUSH2 0x1E19 DUP3 DUP8 DUP8 DUP1 DUP1 PUSH1 0x20 MUL PUSH1 0x20 ADD PUSH1 0x40 MLOAD SWAP1 DUP2 ADD PUSH1 0x40 MSTORE DUP1 SWAP4 SWAP3 SWAP2 SWAP1 DUP2 DUP2 MSTORE PUSH1 0x20 ADD DUP4 DUP4 PUSH1 0x20 MUL DUP1 DUP3 DUP5 CALLDATACOPY PUSH1 0x0 DUP2 DUP5 ADD MSTORE PUSH1 0x1F NOT PUSH1 0x1F DUP3 ADD AND SWAP1 POP DUP1 DUP4 ADD SWAP3 POP POP POP POP POP POP POP ADDRESS PUSH2 0x3EEF JUMP JUMPDEST PUSH32 0x0 PUSH20 0xFFFFFFFFFFFFFFFFFFFFFFFFFFFFFFFFFFFFFFFF AND PUSH4 0x2E1A7D4D DUP4 PUSH1 0x1 DUP6 MLOAD SUB DUP2 MLOAD DUP2 LT PUSH2 0x1E65 JUMPI INVALID JUMPDEST PUSH1 0x20 MUL PUSH1 0x20 ADD ADD MLOAD PUSH1 0x40 MLOAD DUP3 PUSH4 0xFFFFFFFF AND PUSH1 0xE0 SHL DUP2 MSTORE PUSH1 0x4 ADD DUP1 DUP3 DUP2 MSTORE PUSH1 0x20 ADD SWAP2 POP POP PUSH1 0x0 PUSH1 0x40 MLOAD DUP1 DUP4 SUB DUP2 PUSH1 0x0 DUP8 DUP1 EXTCODESIZE ISZERO DUP1 ISZERO PUSH2 0x1EA3 JUMPI PUSH1 0x0 DUP1 REVERT JUMPDEST POP GAS CALL ISZERO DUP1 ISZERO PUSH2 0x1EB7 JUMPI RETURNDATASIZE PUSH1 0x0 DUP1 RETURNDATACOPY RETURNDATASIZE PUSH1 0x0 REVERT JUMPDEST POP POP POP POP PUSH2 0x1EDC DUP5 DUP4 PUSH1 0x1 DUP6 MLOAD SUB DUP2 MLOAD DUP2 LT PUSH2 0x1ECF JUMPI INVALID JUMPDEST PUSH1 0x20 MUL PUSH1 0x20 ADD ADD MLOAD PUSH2 0x377C JUMP JUMPDEST POP SWAP7 SWAP6 POP POP POP POP POP POP JUMP JUMPDEST PUSH1 0x60 DUP2 TIMESTAMP DUP2 LT ISZERO PUSH2 0x1F60 JUMPI PUSH1 0x40 MLOAD PUSH32 0x8C379A000000000000000000000000000000000000000000000000000000000 DUP2 MSTORE PUSH1 0x4 ADD DUP1 DUP1 PUSH1 0x20 ADD DUP3 DUP2 SUB DUP3 MSTORE PUSH1 0x15 DUP2 MSTORE PUSH1 0x20 ADD DUP1 PUSH32 0x45787A6F6E65526F757465723A20455850495245440000000000000000000000 DUP2 MSTORE POP PUSH1 0x20 ADD SWAP2 POP POP PUSH1 0x40 MLOAD DUP1 SWAP2 SUB SWAP1 REVERT JUMPDEST PUSH32 0x0 PUSH20 0xFFFFFFFFFFFFFFFFFFFFFFFFFFFFFFFFFFFFFFFF AND DUP7 DUP7 PUSH1 0x0 DUP2 DUP2 LT PUSH2 0x1FA4 JUMPI INVALID JUMPDEST SWAP1 POP PUSH1 0x20 MUL ADD CALLDATALOAD PUSH20 0xFFFFFFFFFFFFFFFFFFFFFFFFFFFFFFFFFFFFFFFF AND PUSH20 0xFFFFFFFFFFFFFFFFFFFFFFFFFFFFFFFFFFFFFFFF AND EQ PUSH2 0x204A JUMPI PUSH1 0x40 MLOAD PUSH32 0x8C379A000000000000000000000000000000000000000000000000000000000 DUP2 MSTORE PUSH1 0x4 ADD DUP1 DUP1 PUSH1 0x20 ADD DUP3 DUP2 SUB DUP3 MSTORE PUSH1 0x1A DUP2 MSTORE PUSH1 0x20 ADD DUP1 PUSH32 0x45787A6F6E65526F757465723A20494E56414C49445F50415448000000000000 DUP2 MSTORE POP PUSH1 0x20 ADD SWAP2 POP POP PUSH1 0x40 MLOAD DUP1 SWAP2 SUB SWAP1 REVERT JUMPDEST PUSH2 0x20B6 PUSH32 0x0 CALLVALUE DUP9 DUP9 DUP1 DUP1 PUSH1 0x20 MUL PUSH1 0x20 ADD PUSH1 0x40 MLOAD SWAP1 DUP2 ADD PUSH1 0x40 MSTORE DUP1 SWAP4 SWAP3 SWAP2 SWAP1 DUP2 DUP2 MSTORE PUSH1 0x20 ADD DUP4 DUP4 PUSH1 0x20 MUL DUP1 DUP3 DUP5 CALLDATACOPY PUSH1 0x0 DUP2 DUP5 ADD MSTORE PUSH1 0x1F NOT PUSH1 0x1F DUP3 ADD AND SWAP1 POP DUP1 DUP4 ADD SWAP3 POP POP POP POP POP POP POP PUSH2 0x3A0B JUMP JUMPDEST SWAP2 POP DUP7 DUP3 PUSH1 0x1 DUP5 MLOAD SUB DUP2 MLOAD DUP2 LT PUSH2 0x20C9 JUMPI INVALID JUMPDEST PUSH1 0x20 MUL PUSH1 0x20 ADD ADD MLOAD LT ISZERO PUSH2 0x2128 JUMPI PUSH1 0x40 MLOAD PUSH32 0x8C379A000000000000000000000000000000000000000000000000000000000 DUP2 MSTORE PUSH1 0x4 ADD DUP1 DUP1 PUSH1 0x20 ADD DUP3 DUP2 SUB DUP3 MSTORE PUSH1 0x28 DUP2 MSTORE PUSH1 0x20 ADD DUP1 PUSH2 0x4EED PUSH1 0x28 SWAP2 CODECOPY PUSH1 0x40 ADD SWAP2 POP POP PUSH1 0x40 MLOAD DUP1 SWAP2 SUB SWAP1 REVERT JUMPDEST PUSH32 0x0 PUSH20 0xFFFFFFFFFFFFFFFFFFFFFFFFFFFFFFFFFFFFFFFF AND PUSH4 0xD0E30DB0 DUP4 PUSH1 0x0 DUP2 MLOAD DUP2 LT PUSH2 0x2171 JUMPI INVALID JUMPDEST PUSH1 0x20 MUL PUSH1 0x20 ADD ADD MLOAD PUSH1 0x40 MLOAD DUP3 PUSH4 0xFFFFFFFF AND PUSH1 0xE0 SHL DUP2 MSTORE PUSH1 0x4 ADD PUSH1 0x0 PUSH1 0x40 MLOAD DUP1 DUP4 SUB DUP2 DUP6 DUP9 DUP1 EXTCODESIZE ISZERO DUP1 ISZERO PUSH2 0x21A4 JUMPI PUSH1 0x0 DUP1 REVERT JUMPDEST POP GAS CALL ISZERO DUP1 ISZERO PUSH2 0x21B8 JUMPI RETURNDATASIZE PUSH1 0x0 DUP1 RETURNDATACOPY RETURNDATASIZE PUSH1 0x0 REVERT JUMPDEST POP POP POP POP POP PUSH32 0x0 PUSH20 0xFFFFFFFFFFFFFFFFFFFFFFFFFFFFFFFFFFFFFFFF AND PUSH4 0xA9059CBB PUSH2 0x2276 PUSH32 0x0 DUP10 DUP10 PUSH1 0x0 DUP2 DUP2 LT PUSH2 0x222A JUMPI INVALID JUMPDEST SWAP1 POP PUSH1 0x20 MUL ADD CALLDATALOAD PUSH20 0xFFFFFFFFFFFFFFFFFFFFFFFFFFFFFFFFFFFFFFFF AND DUP11 DUP11 PUSH1 0x1 DUP2 DUP2 LT PUSH2 0x2254 JUMPI INVALID JUMPDEST SWAP1 POP PUSH1 0x20 MUL ADD CALLDATALOAD PUSH20 0xFFFFFFFFFFFFFFFFFFFFFFFFFFFFFFFFFFFFFFFF AND PUSH2 0x3B83 JUMP JUMPDEST DUP5 PUSH1 0x0 DUP2 MLOAD DUP2 LT PUSH2 0x2283 JUMPI INVALID JUMPDEST PUSH1 0x20 MUL PUSH1 0x20 ADD ADD MLOAD PUSH1 0x40 MLOAD DUP4 PUSH4 0xFFFFFFFF AND PUSH1 0xE0 SHL DUP2 MSTORE PUSH1 0x4 ADD DUP1 DUP4 PUSH20 0xFFFFFFFFFFFFFFFFFFFFFFFFFFFFFFFFFFFFFFFF AND PUSH20 0xFFFFFFFFFFFFFFFFFFFFFFFFFFFFFFFFFFFFFFFF AND DUP2 MSTORE PUSH1 0x20 ADD DUP3 DUP2 MSTORE PUSH1 0x20 ADD SWAP3 POP POP POP PUSH1 0x20 PUSH1 0x40 MLOAD DUP1 DUP4 SUB DUP2 PUSH1 0x0 DUP8 DUP1 EXTCODESIZE ISZERO DUP1 ISZERO PUSH2 0x22F4 JUMPI PUSH1 0x0 DUP1 REVERT JUMPDEST POP GAS CALL ISZERO DUP1 ISZERO PUSH2 0x2308 JUMPI RETURNDATASIZE PUSH1 0x0 DUP1 RETURNDATACOPY RETURNDATASIZE PUSH1 0x0 REVERT JUMPDEST POP POP POP POP PUSH1 0x40 MLOAD RETURNDATASIZE PUSH1 0x20 DUP2 LT ISZERO PUSH2 0x231E JUMPI PUSH1 0x0 DUP1 REVERT JUMPDEST DUP2 ADD SWAP1 DUP1 DUP1 MLOAD SWAP1 PUSH1 0x20 ADD SWAP1 SWAP3 SWAP2 SWAP1 POP POP POP PUSH2 0x2335 JUMPI INVALID JUMPDEST PUSH2 0x2381 DUP3 DUP8 DUP8 DUP1 DUP1 PUSH1 0x20 MUL PUSH1 0x20 ADD PUSH1 0x40 MLOAD SWAP1 DUP2 ADD PUSH1 0x40 MSTORE DUP1 SWAP4 SWAP3 SWAP2 SWAP1 DUP2 DUP2 MSTORE PUSH1 0x20 ADD DUP4 DUP4 PUSH1 0x20 MUL DUP1 DUP3 DUP5 CALLDATACOPY PUSH1 0x0 DUP2 DUP5 ADD MSTORE PUSH1 0x1F NOT PUSH1 0x1F DUP3 ADD AND SWAP1 POP DUP1 DUP4 ADD SWAP3 POP POP POP POP POP POP POP DUP7 PUSH2 0x3EEF JUMP JUMPDEST POP SWAP6 SWAP5 POP POP POP POP POP JUMP JUMPDEST PUSH1 0x0 PUSH2 0x2398 DUP5 DUP5 DUP5 PUSH2 0x38DB JUMP JUMPDEST SWAP1 POP SWAP4 SWAP3 POP POP POP JUMP JUMPDEST PUSH1 0x60 DUP2 TIMESTAMP DUP2 LT ISZERO PUSH2 0x241A JUMPI PUSH1 0x40 MLOAD PUSH32 0x8C379A000000000000000000000000000000000000000000000000000000000 DUP2 MSTORE PUSH1 0x4 ADD DUP1 DUP1 PUSH1 0x20 ADD DUP3 DUP2 SUB DUP3 MSTORE PUSH1 0x15 DUP2 MSTORE PUSH1 0x20 ADD DUP1 PUSH32 0x45787A6F6E65526F757465723A20455850495245440000000000000000000000 DUP2 MSTORE POP PUSH1 0x20 ADD SWAP2 POP POP PUSH1 0x40 MLOAD DUP1 SWAP2 SUB SWAP1 REVERT JUMPDEST PUSH2 0x2486 PUSH32 0x0 DUP10 DUP9 DUP9 DUP1 DUP1 PUSH1 0x20 MUL PUSH1 0x20 ADD PUSH1 0x40 MLOAD SWAP1 DUP2 ADD PUSH1 0x40 MSTORE DUP1 SWAP4 SWAP3 SWAP2 SWAP1 DUP2 DUP2 MSTORE PUSH1 0x20 ADD DUP4 DUP4 PUSH1 0x20 MUL DUP1 DUP3 DUP5 CALLDATACOPY PUSH1 0x0 DUP2 DUP5 ADD MSTORE PUSH1 0x1F NOT PUSH1 0x1F DUP3 ADD AND SWAP1 POP DUP1 DUP4 ADD SWAP3 POP POP POP POP POP POP POP PUSH2 0x419A JUMP JUMPDEST SWAP2 POP DUP7 DUP3 PUSH1 0x0 DUP2 MLOAD DUP2 LT PUSH2 0x2496 JUMPI INVALID JUMPDEST PUSH1 0x20 MUL PUSH1 0x20 ADD ADD MLOAD GT ISZERO PUSH2 0x24F5 JUMPI PUSH1 0x40 MLOAD PUSH32 0x8C379A000000000000000000000000000000000000000000000000000000000 DUP2 MSTORE PUSH1 0x4 ADD DUP1 DUP1 PUSH1 0x20 ADD DUP3 DUP2 SUB DUP3 MSTORE PUSH1 0x24 DUP2 MSTORE PUSH1 0x20 ADD DUP1 PUSH2 0x4D37 PUSH1 0x24 SWAP2 CODECOPY PUSH1 0x40 ADD SWAP2 POP POP PUSH1 0x40 MLOAD DUP1 SWAP2 SUB SWAP1 REVERT JUMPDEST PUSH2 0x25BA DUP7 DUP7 PUSH1 0x0 DUP2 DUP2 LT PUSH2 0x2505 JUMPI INVALID JUMPDEST SWAP1 POP PUSH1 0x20 MUL ADD CALLDATALOAD PUSH20 0xFFFFFFFFFFFFFFFFFFFFFFFFFFFFFFFFFFFFFFFF AND CALLER PUSH2 0x25A0 PUSH32 0x0 DUP11 DUP11 PUSH1 0x0 DUP2 DUP2 LT PUSH2 0x2554 JUMPI INVALID JUMPDEST SWAP1 POP PUSH1 0x20 MUL ADD CALLDATALOAD PUSH20 0xFFFFFFFFFFFFFFFFFFFFFFFFFFFFFFFFFFFFFFFF AND DUP12 DUP12 PUSH1 0x1 DUP2 DUP2 LT PUSH2 0x257E JUMPI INVALID JUMPDEST SWAP1 POP PUSH1 0x20 MUL ADD CALLDATALOAD PUSH20 0xFFFFFFFFFFFFFFFFFFFFFFFFFFFFFFFFFFFFFFFF AND PUSH2 0x3B83 JUMP JUMPDEST DUP6 PUSH1 0x0 DUP2 MLOAD DUP2 LT PUSH2 0x25AD JUMPI INVALID JUMPDEST PUSH1 0x20 MUL PUSH1 0x20 ADD ADD MLOAD PUSH2 0x3CDE JUMP JUMPDEST PUSH2 0x2606 DUP3 DUP8 DUP8 DUP1 DUP1 PUSH1 0x20 MUL PUSH1 0x20 ADD PUSH1 0x40 MLOAD SWAP1 DUP2 ADD PUSH1 0x40 MSTORE DUP1 SWAP4 SWAP3 SWAP2 SWAP1 DUP2 DUP2 MSTORE PUSH1 0x20 ADD DUP4 DUP4 PUSH1 0x20 MUL DUP1 DUP3 DUP5 CALLDATACOPY PUSH1 0x0 DUP2 DUP5 ADD MSTORE PUSH1 0x1F NOT PUSH1 0x1F DUP3 ADD AND SWAP1 POP DUP1 DUP4 ADD SWAP3 POP POP POP POP POP POP POP DUP7 PUSH2 0x3EEF JUMP JUMPDEST POP SWAP7 SWAP6 POP POP POP POP POP POP JUMP JUMPDEST PUSH32 0x0 DUP2 JUMP JUMPDEST PUSH1 0x0 PUSH2 0x2642 DUP5 DUP5 DUP5 PUSH2 0x431A JUMP JUMPDEST SWAP1 POP SWAP4 SWAP3 POP POP POP JUMP JUMPDEST PUSH1 0x0 DUP1 DUP3 TIMESTAMP DUP2 LT ISZERO PUSH2 0x26C5 JUMPI PUSH1 0x40 MLOAD PUSH32 0x8C379A000000000000000000000000000000000000000000000000000000000 DUP2 MSTORE PUSH1 0x4 ADD DUP1 DUP1 PUSH1 0x20 ADD DUP3 DUP2 SUB DUP3 MSTORE PUSH1 0x15 DUP2 MSTORE PUSH1 0x20 ADD DUP1 PUSH32 0x45787A6F6E65526F757465723A20455850495245440000000000000000000000 DUP2 MSTORE POP PUSH1 0x20 ADD SWAP2 POP POP PUSH1 0x40 MLOAD DUP1 SWAP2 SUB SWAP1 REVERT JUMPDEST PUSH1 0x0 PUSH2 0x26F2 PUSH32 0x0 DUP13 DUP13 PUSH2 0x3B83 JUMP JUMPDEST SWAP1 POP DUP1 PUSH20 0xFFFFFFFFFFFFFFFFFFFFFFFFFFFFFFFFFFFFFFFF AND PUSH4 0x23B872DD CALLER DUP4 DUP13 PUSH1 0x40 MLOAD DUP5 PUSH4 0xFFFFFFFF AND PUSH1 0xE0 SHL DUP2 MSTORE PUSH1 0x4 ADD DUP1 DUP5 PUSH20 0xFFFFFFFFFFFFFFFFFFFFFFFFFFFFFFFFFFFFFFFF AND PUSH20 0xFFFFFFFFFFFFFFFFFFFFFFFFFFFFFFFFFFFFFFFF AND DUP2 MSTORE PUSH1 0x20 ADD DUP4 PUSH20 0xFFFFFFFFFFFFFFFFFFFFFFFFFFFFFFFFFFFFFFFF AND PUSH20 0xFFFFFFFFFFFFFFFFFFFFFFFFFFFFFFFFFFFFFFFF AND DUP2 MSTORE PUSH1 0x20 ADD DUP3 DUP2 MSTORE PUSH1 0x20 ADD SWAP4 POP POP POP POP PUSH1 0x20 PUSH1 0x40 MLOAD DUP1 DUP4 SUB DUP2 PUSH1 0x0 DUP8 DUP1 EXTCODESIZE ISZERO DUP1 ISZERO PUSH2 0x27AF JUMPI PUSH1 0x0 DUP1 REVERT JUMPDEST POP GAS CALL ISZERO DUP1 ISZERO PUSH2 0x27C3 JUMPI RETURNDATASIZE PUSH1 0x0 DUP1 RETURNDATACOPY RETURNDATASIZE PUSH1 0x0 REVERT JUMPDEST POP POP POP POP PUSH1 0x40 MLOAD RETURNDATASIZE PUSH1 0x20 DUP2 LT ISZERO PUSH2 0x27D9 JUMPI PUSH1 0x0 DUP1 REVERT JUMPDEST DUP2 ADD SWAP1 DUP1 DUP1 MLOAD SWAP1 PUSH1 0x20 ADD SWAP1 SWAP3 SWAP2 SWAP1 POP POP POP POP PUSH1 0x0 DUP1 DUP3 PUSH20 0xFFFFFFFFFFFFFFFFFFFFFFFFFFFFFFFFFFFFFFFF AND PUSH4 0x89AFCB44 DUP10 PUSH1 0x40 MLOAD DUP3 PUSH4 0xFFFFFFFF AND PUSH1 0xE0 SHL DUP2 MSTORE PUSH1 0x4 ADD DUP1 DUP3 PUSH20 0xFFFFFFFFFFFFFFFFFFFFFFFFFFFFFFFFFFFFFFFF AND PUSH20 0xFFFFFFFFFFFFFFFFFFFFFFFFFFFFFFFFFFFFFFFF AND DUP2 MSTORE PUSH1 0x20 ADD SWAP2 POP POP PUSH1 0x40 DUP1 MLOAD DUP1 DUP4 SUB DUP2 PUSH1 0x0 DUP8 DUP1 EXTCODESIZE ISZERO DUP1 ISZERO PUSH2 0x286C JUMPI PUSH1 0x0 DUP1 REVERT JUMPDEST POP GAS CALL ISZERO DUP1 ISZERO PUSH2 0x2880 JUMPI RETURNDATASIZE PUSH1 0x0 DUP1 RETURNDATACOPY RETURNDATASIZE PUSH1 0x0 REVERT JUMPDEST POP POP POP POP PUSH1 0x40 MLOAD RETURNDATASIZE PUSH1 0x40 DUP2 LT ISZERO PUSH2 0x2896 JUMPI PUSH1 0x0 DUP1 REVERT JUMPDEST DUP2 ADD SWAP1 DUP1 DUP1 MLOAD SWAP1 PUSH1 0x20 ADD SWAP1 SWAP3 SWAP2 SWAP1 DUP1 MLOAD SWAP1 PUSH1 0x20 ADD SWAP1 SWAP3 SWAP2 SWAP1 POP POP POP SWAP2 POP SWAP2 POP PUSH1 0x0 PUSH2 0x28C1 DUP15 DUP15 PUSH2 0x43FE JUMP JUMPDEST POP SWAP1 POP DUP1 PUSH20 0xFFFFFFFFFFFFFFFFFFFFFFFFFFFFFFFFFFFFFFFF AND DUP15 PUSH20 0xFFFFFFFFFFFFFFFFFFFFFFFFFFFFFFFFFFFFFFFF AND EQ PUSH2 0x28FE JUMPI DUP2 DUP4 PUSH2 0x2901 JUMP JUMPDEST DUP3 DUP3 JUMPDEST DUP1 SWAP8 POP DUP2 SWAP9 POP POP POP DUP11 DUP8 LT ISZERO PUSH2 0x2962 JUMPI PUSH1 0x40 MLOAD PUSH32 0x8C379A000000000000000000000000000000000000000000000000000000000 DUP2 MSTORE PUSH1 0x4 ADD DUP1 DUP1 PUSH1 0x20 ADD DUP3 DUP2 SUB DUP3 MSTORE PUSH1 0x23 DUP2 MSTORE PUSH1 0x20 ADD DUP1 PUSH2 0x4D7E PUSH1 0x23 SWAP2 CODECOPY PUSH1 0x40 ADD SWAP2 POP POP PUSH1 0x40 MLOAD DUP1 SWAP2 SUB SWAP1 REVERT JUMPDEST DUP10 DUP7 LT ISZERO PUSH2 0x29BB JUMPI PUSH1 0x40 MLOAD PUSH32 0x8C379A000000000000000000000000000000000000000000000000000000000 DUP2 MSTORE PUSH1 0x4 ADD DUP1 DUP1 PUSH1 0x20 ADD DUP3 DUP2 SUB DUP3 MSTORE PUSH1 0x23 DUP2 MSTORE PUSH1 0x20 ADD DUP1 PUSH2 0x4D5B PUSH1 0x23 SWAP2 CODECOPY PUSH1 0x40 ADD SWAP2 POP POP PUSH1 0x40 MLOAD DUP1 SWAP2 SUB SWAP1 REVERT JUMPDEST POP POP POP POP POP SWAP8 POP SWAP8 SWAP6 POP POP POP POP POP POP JUMP JUMPDEST PUSH32 0x0 DUP2 JUMP JUMPDEST PUSH1 0x60 PUSH2 0x2A1D PUSH32 0x0 DUP5 DUP5 PUSH2 0x3A0B JUMP JUMPDEST SWAP1 POP SWAP3 SWAP2 POP POP JUMP JUMPDEST PUSH1 0x0 DUP1 PUSH1 0x0 PUSH2 0x2A75 PUSH32 0x0 DUP15 PUSH32 0x0 PUSH2 0x3B83 JUMP JUMPDEST SWAP1 POP PUSH1 0x0 DUP8 PUSH2 0x2A84 JUMPI DUP13 PUSH2 0x2AA6 JUMP JUMPDEST PUSH32 0xFFFFFFFFFFFFFFFFFFFFFFFFFFFFFFFFFFFFFFFFFFFFFFFFFFFFFFFFFFFFFFFF JUMPDEST SWAP1 POP DUP2 PUSH20 0xFFFFFFFFFFFFFFFFFFFFFFFFFFFFFFFFFFFFFFFF AND PUSH4 0xD505ACCF CALLER ADDRESS DUP5 DUP14 DUP13 DUP13 DUP13 PUSH1 0x40 MLOAD DUP9 PUSH4 0xFFFFFFFF AND PUSH1 0xE0 SHL DUP2 MSTORE PUSH1 0x4 ADD DUP1 DUP9 PUSH20 0xFFFFFFFFFFFFFFFFFFFFFFFFFFFFFFFFFFFFFFFF AND PUSH20 0xFFFFFFFFFFFFFFFFFFFFFFFFFFFFFFFFFFFFFFFF AND DUP2 MSTORE PUSH1 0x20 ADD DUP8 PUSH20 0xFFFFFFFFFFFFFFFFFFFFFFFFFFFFFFFFFFFFFFFF AND PUSH20 0xFFFFFFFFFFFFFFFFFFFFFFFFFFFFFFFFFFFFFFFF AND DUP2 MSTORE PUSH1 0x20 ADD DUP7 DUP2 MSTORE PUSH1 0x20 ADD DUP6 DUP2 MSTORE PUSH1 0x20 ADD DUP5 PUSH1 0xFF AND PUSH1 0xFF AND DUP2 MSTORE PUSH1 0x20 ADD DUP4 DUP2 MSTORE PUSH1 0x20 ADD DUP3 DUP2 MSTORE PUSH1 0x20 ADD SWAP8 POP POP POP POP POP POP POP POP PUSH1 0x0 PUSH1 0x40 MLOAD DUP1 DUP4 SUB DUP2 PUSH1 0x0 DUP8 DUP1 EXTCODESIZE ISZERO DUP1 ISZERO PUSH2 0x2B89 JUMPI PUSH1 0x0 DUP1 REVERT JUMPDEST POP GAS CALL ISZERO DUP1 ISZERO PUSH2 0x2B9D JUMPI RETURNDATASIZE PUSH1 0x0 DUP1 RETURNDATACOPY RETURNDATASIZE PUSH1 0x0 REVERT JUMPDEST POP POP POP POP PUSH2 0x2BAF DUP15 DUP15 DUP15 DUP15 DUP15 DUP15 PUSH2 0x1100 JUMP JUMPDEST DUP1 SWAP5 POP DUP2 SWAP6 POP POP POP POP POP SWAP11 POP SWAP11 SWAP9 POP POP POP POP POP POP POP POP POP JUMP JUMPDEST PUSH1 0x0 DUP1 PUSH1 0x0 DUP4 TIMESTAMP DUP2 LT ISZERO PUSH2 0x2C44 JUMPI PUSH1 0x40 MLOAD PUSH32 0x8C379A000000000000000000000000000000000000000000000000000000000 DUP2 MSTORE PUSH1 0x4 ADD DUP1 DUP1 PUSH1 0x20 ADD DUP3 DUP2 SUB DUP3 MSTORE PUSH1 0x15 DUP2 MSTORE PUSH1 0x20 ADD DUP1 PUSH32 0x45787A6F6E65526F757465723A20455850495245440000000000000000000000 DUP2 MSTORE POP PUSH1 0x20 ADD SWAP2 POP POP PUSH1 0x40 MLOAD DUP1 SWAP2 SUB SWAP1 REVERT JUMPDEST PUSH2 0x2C52 DUP13 DUP13 DUP13 DUP13 DUP13 DUP13 PUSH2 0x4575 JUMP JUMPDEST DUP1 SWAP5 POP DUP2 SWAP6 POP POP POP PUSH1 0x0 PUSH2 0x2C87 PUSH32 0x0 DUP15 DUP15 PUSH2 0x3B83 JUMP JUMPDEST SWAP1 POP PUSH2 0x2C95 DUP14 CALLER DUP4 DUP9 PUSH2 0x3CDE JUMP JUMPDEST PUSH2 0x2CA1 DUP13 CALLER DUP4 DUP8 PUSH2 0x3CDE JUMP JUMPDEST DUP1 PUSH20 0xFFFFFFFFFFFFFFFFFFFFFFFFFFFFFFFFFFFFFFFF AND PUSH4 0x6A627842 DUP9 PUSH1 0x40 MLOAD DUP3 PUSH4 0xFFFFFFFF AND PUSH1 0xE0 SHL DUP2 MSTORE PUSH1 0x4 ADD DUP1 DUP3 PUSH20 0xFFFFFFFFFFFFFFFFFFFFFFFFFFFFFFFFFFFFFFFF AND PUSH20 0xFFFFFFFFFFFFFFFFFFFFFFFFFFFFFFFFFFFFFFFF AND DUP2 MSTORE PUSH1 0x20 ADD SWAP2 POP POP PUSH1 0x20 PUSH1 0x40 MLOAD DUP1 DUP4 SUB DUP2 PUSH1 0x0 DUP8 DUP1 EXTCODESIZE ISZERO DUP1 ISZERO PUSH2 0x2D20 JUMPI PUSH1 0x0 DUP1 REVERT JUMPDEST POP GAS CALL ISZERO DUP1 ISZERO PUSH2 0x2D34 JUMPI RETURNDATASIZE PUSH1 0x0 DUP1 RETURNDATACOPY RETURNDATASIZE PUSH1 0x0 REVERT JUMPDEST POP POP POP POP PUSH1 0x40 MLOAD RETURNDATASIZE PUSH1 0x20 DUP2 LT ISZERO PUSH2 0x2D4A JUMPI PUSH1 0x0 DUP1 REVERT JUMPDEST DUP2 ADD SWAP1 DUP1 DUP1 MLOAD SWAP1 PUSH1 0x20 ADD SWAP1 SWAP3 SWAP2 SWAP1 POP POP POP SWAP3 POP POP POP SWAP9 POP SWAP9 POP SWAP9 SWAP6 POP POP POP POP POP POP JUMP JUMPDEST PUSH1 0x0 DUP1 PUSH1 0x0 DUP4 TIMESTAMP DUP2 LT ISZERO PUSH2 0x2DE9 JUMPI PUSH1 0x40 MLOAD PUSH32 0x8C379A000000000000000000000000000000000000000000000000000000000 DUP2 MSTORE PUSH1 0x4 ADD DUP1 DUP1 PUSH1 0x20 ADD DUP3 DUP2 SUB DUP3 MSTORE PUSH1 0x15 DUP2 MSTORE PUSH1 0x20 ADD DUP1 PUSH32 0x45787A6F6E65526F757465723A20455850495245440000000000000000000000 DUP2 MSTORE POP PUSH1 0x20 ADD SWAP2 POP POP PUSH1 0x40 MLOAD DUP1 SWAP2 SUB SWAP1 REVERT JUMPDEST PUSH2 0x2E17 DUP11 PUSH32 0x0 DUP12 CALLVALUE DUP13 DUP13 PUSH2 0x4575 JUMP JUMPDEST DUP1 SWAP5 POP DUP2 SWAP6 POP POP POP PUSH1 0x0 PUSH2 0x2E6C PUSH32 0x0 DUP13 PUSH32 0x0 PUSH2 0x3B83 JUMP JUMPDEST SWAP1 POP PUSH2 0x2E7A DUP12 CALLER DUP4 DUP9 PUSH2 0x3CDE JUMP JUMPDEST PUSH32 0x0 PUSH20 0xFFFFFFFFFFFFFFFFFFFFFFFFFFFFFFFFFFFFFFFF AND PUSH4 0xD0E30DB0 DUP6 PUSH1 0x40 MLOAD DUP3 PUSH4 0xFFFFFFFF AND PUSH1 0xE0 SHL DUP2 MSTORE PUSH1 0x4 ADD PUSH1 0x0 PUSH1 0x40 MLOAD DUP1 DUP4 SUB DUP2 DUP6 DUP9 DUP1 EXTCODESIZE ISZERO DUP1 ISZERO PUSH2 0x2EE2 JUMPI PUSH1 0x0 DUP1 REVERT JUMPDEST POP GAS CALL ISZERO DUP1 ISZERO PUSH2 0x2EF6 JUMPI RETURNDATASIZE PUSH1 0x0 DUP1 RETURNDATACOPY RETURNDATASIZE PUSH1 0x0 REVERT JUMPDEST POP POP POP POP POP PUSH32 0x0 PUSH20 0xFFFFFFFFFFFFFFFFFFFFFFFFFFFFFFFFFFFFFFFF AND PUSH4 0xA9059CBB DUP3 DUP7 PUSH1 0x40 MLOAD DUP4 PUSH4 0xFFFFFFFF AND PUSH1 0xE0 SHL DUP2 MSTORE PUSH1 0x4 ADD DUP1 DUP4 PUSH20 0xFFFFFFFFFFFFFFFFFFFFFFFFFFFFFFFFFFFFFFFF AND PUSH20 0xFFFFFFFFFFFFFFFFFFFFFFFFFFFFFFFFFFFFFFFF AND DUP2 MSTORE PUSH1 0x20 ADD DUP3 DUP2 MSTORE PUSH1 0x20 ADD SWAP3 POP POP POP PUSH1 0x20 PUSH1 0x40 MLOAD DUP1 DUP4 SUB DUP2 PUSH1 0x0 DUP8 DUP1 EXTCODESIZE ISZERO DUP1 ISZERO PUSH2 0x2FA2 JUMPI PUSH1 0x0 DUP1 REVERT JUMPDEST POP GAS CALL ISZERO DUP1 ISZERO PUSH2 0x2FB6 JUMPI RETURNDATASIZE PUSH1 0x0 DUP1 RETURNDATACOPY RETURNDATASIZE PUSH1 0x0 REVERT JUMPDEST POP POP POP POP PUSH1 0x40 MLOAD RETURNDATASIZE PUSH1 0x20 DUP2 LT ISZERO PUSH2 0x2FCC JUMPI PUSH1 0x0 DUP1 REVERT JUMPDEST DUP2 ADD SWAP1 DUP1 DUP1 MLOAD SWAP1 PUSH1 0x20 ADD SWAP1 SWAP3 SWAP2 SWAP1 POP POP POP PUSH2 0x2FE3 JUMPI INVALID JUMPDEST DUP1 PUSH20 0xFFFFFFFFFFFFFFFFFFFFFFFFFFFFFFFFFFFFFFFF AND PUSH4 0x6A627842 DUP9 PUSH1 0x40 MLOAD DUP3 PUSH4 0xFFFFFFFF AND PUSH1 0xE0 SHL DUP2 MSTORE PUSH1 0x4 ADD DUP1 DUP3 PUSH20 0xFFFFFFFFFFFFFFFFFFFFFFFFFFFFFFFFFFFFFFFF AND PUSH20 0xFFFFFFFFFFFFFFFFFFFFFFFFFFFFFFFFFFFFFFFF AND DUP2 MSTORE PUSH1 0x20 ADD SWAP2 POP POP PUSH1 0x20 PUSH1 0x40 MLOAD DUP1 DUP4 SUB DUP2 PUSH1 0x0 DUP8 DUP1 EXTCODESIZE ISZERO DUP1 ISZERO PUSH2 0x3062 JUMPI PUSH1 0x0 DUP1 REVERT JUMPDEST POP GAS CALL ISZERO DUP1 ISZERO PUSH2 0x3076 JUMPI RETURNDATASIZE PUSH1 0x0 DUP1 RETURNDATACOPY RETURNDATASIZE PUSH1 0x0 REVERT JUMPDEST POP POP POP POP PUSH1 0x40 MLOAD RETURNDATASIZE PUSH1 0x20 DUP2 LT ISZERO PUSH2 0x308C JUMPI PUSH1 0x0 DUP1 REVERT JUMPDEST DUP2 ADD SWAP1 DUP1 DUP1 MLOAD SWAP1 PUSH1 0x20 ADD SWAP1 SWAP3 SWAP2 SWAP1 POP POP POP SWAP3 POP DUP4 CALLVALUE GT ISZERO PUSH2 0x30B4 JUMPI PUSH2 0x30B3 CALLER DUP6 CALLVALUE SUB PUSH2 0x377C JUMP JUMPDEST JUMPDEST POP POP SWAP7 POP SWAP7 POP SWAP7 SWAP4 POP POP POP POP JUMP JUMPDEST PUSH1 0x60 DUP2 TIMESTAMP DUP2 LT ISZERO PUSH2 0x313B JUMPI PUSH1 0x40 MLOAD PUSH32 0x8C379A000000000000000000000000000000000000000000000000000000000 DUP2 MSTORE PUSH1 0x4 ADD DUP1 DUP1 PUSH1 0x20 ADD DUP3 DUP2 SUB DUP3 MSTORE PUSH1 0x15 DUP2 MSTORE PUSH1 0x20 ADD DUP1 PUSH32 0x45787A6F6E65526F757465723A20455850495245440000000000000000000000 DUP2 MSTORE POP PUSH1 0x20 ADD SWAP2 POP POP PUSH1 0x40 MLOAD DUP1 SWAP2 SUB SWAP1 REVERT JUMPDEST PUSH32 0x0 PUSH20 0xFFFFFFFFFFFFFFFFFFFFFFFFFFFFFFFFFFFFFFFF AND DUP7 DUP7 PUSH1 0x0 DUP2 DUP2 LT PUSH2 0x317F JUMPI INVALID JUMPDEST SWAP1 POP PUSH1 0x20 MUL ADD CALLDATALOAD PUSH20 0xFFFFFFFFFFFFFFFFFFFFFFFFFFFFFFFFFFFFFFFF AND PUSH20 0xFFFFFFFFFFFFFFFFFFFFFFFFFFFFFFFFFFFFFFFF AND EQ PUSH2 0x3225 JUMPI PUSH1 0x40 MLOAD PUSH32 0x8C379A000000000000000000000000000000000000000000000000000000000 DUP2 MSTORE PUSH1 0x4 ADD DUP1 DUP1 PUSH1 0x20 ADD DUP3 DUP2 SUB DUP3 MSTORE PUSH1 0x1A DUP2 MSTORE PUSH1 0x20 ADD DUP1 PUSH32 0x45787A6F6E65526F757465723A20494E56414C49445F50415448000000000000 DUP2 MSTORE POP PUSH1 0x20 ADD SWAP2 POP POP PUSH1 0x40 MLOAD DUP1 SWAP2 SUB SWAP1 REVERT JUMPDEST PUSH2 0x3291 PUSH32 0x0 DUP9 DUP9 DUP9 DUP1 DUP1 PUSH1 0x20 MUL PUSH1 0x20 ADD PUSH1 0x40 MLOAD SWAP1 DUP2 ADD PUSH1 0x40 MSTORE DUP1 SWAP4 SWAP3 SWAP2 SWAP1 DUP2 DUP2 MSTORE PUSH1 0x20 ADD DUP4 DUP4 PUSH1 0x20 MUL DUP1 DUP3 DUP5 CALLDATACOPY PUSH1 0x0 DUP2 DUP5 ADD MSTORE PUSH1 0x1F NOT PUSH1 0x1F DUP3 ADD AND SWAP1 POP DUP1 DUP4 ADD SWAP3 POP POP POP POP POP POP POP PUSH2 0x419A JUMP JUMPDEST SWAP2 POP CALLVALUE DUP3 PUSH1 0x0 DUP2 MLOAD DUP2 LT PUSH2 0x32A1 JUMPI INVALID JUMPDEST PUSH1 0x20 MUL PUSH1 0x20 ADD ADD MLOAD GT ISZERO PUSH2 0x3300 JUMPI PUSH1 0x40 MLOAD PUSH32 0x8C379A000000000000000000000000000000000000000000000000000000000 DUP2 MSTORE PUSH1 0x4 ADD DUP1 DUP1 PUSH1 0x20 ADD DUP3 DUP2 SUB DUP3 MSTORE PUSH1 0x24 DUP2 MSTORE PUSH1 0x20 ADD DUP1 PUSH2 0x4D37 PUSH1 0x24 SWAP2 CODECOPY PUSH1 0x40 ADD SWAP2 POP POP PUSH1 0x40 MLOAD DUP1 SWAP2 SUB SWAP1 REVERT JUMPDEST PUSH32 0x0 PUSH20 0xFFFFFFFFFFFFFFFFFFFFFFFFFFFFFFFFFFFFFFFF AND PUSH4 0xD0E30DB0 DUP4 PUSH1 0x0 DUP2 MLOAD DUP2 LT PUSH2 0x3349 JUMPI INVALID JUMPDEST PUSH1 0x20 MUL PUSH1 0x20 ADD ADD MLOAD PUSH1 0x40 MLOAD DUP3 PUSH4 0xFFFFFFFF AND PUSH1 0xE0 SHL DUP2 MSTORE PUSH1 0x4 ADD PUSH1 0x0 PUSH1 0x40 MLOAD DUP1 DUP4 SUB DUP2 DUP6 DUP9 DUP1 EXTCODESIZE ISZERO DUP1 ISZERO PUSH2 0x337C JUMPI PUSH1 0x0 DUP1 REVERT JUMPDEST POP GAS CALL ISZERO DUP1 ISZERO PUSH2 0x3390 JUMPI RETURNDATASIZE PUSH1 0x0 DUP1 RETURNDATACOPY RETURNDATASIZE PUSH1 0x0 REVERT JUMPDEST POP POP POP POP POP PUSH32 0x0 PUSH20 0xFFFFFFFFFFFFFFFFFFFFFFFFFFFFFFFFFFFFFFFF AND PUSH4 0xA9059CBB PUSH2 0x344E PUSH32 0x0 DUP10 DUP10 PUSH1 0x0 DUP2 DUP2 LT PUSH2 0x3402 JUMPI INVALID JUMPDEST SWAP1 POP PUSH1 0x20 MUL ADD CALLDATALOAD PUSH20 0xFFFFFFFFFFFFFFFFFFFFFFFFFFFFFFFFFFFFFFFF AND DUP11 DUP11 PUSH1 0x1 DUP2 DUP2 LT PUSH2 0x342C JUMPI INVALID JUMPDEST SWAP1 POP PUSH1 0x20 MUL ADD CALLDATALOAD PUSH20 0xFFFFFFFFFFFFFFFFFFFFFFFFFFFFFFFFFFFFFFFF AND PUSH2 0x3B83 JUMP JUMPDEST DUP5 PUSH1 0x0 DUP2 MLOAD DUP2 LT PUSH2 0x345B JUMPI INVALID JUMPDEST PUSH1 0x20 MUL PUSH1 0x20 ADD ADD MLOAD PUSH1 0x40 MLOAD DUP4 PUSH4 0xFFFFFFFF AND PUSH1 0xE0 SHL DUP2 MSTORE PUSH1 0x4 ADD DUP1 DUP4 PUSH20 0xFFFFFFFFFFFFFFFFFFFFFFFFFFFFFFFFFFFFFFFF AND PUSH20 0xFFFFFFFFFFFFFFFFFFFFFFFFFFFFFFFFFFFFFFFF AND DUP2 MSTORE PUSH1 0x20 ADD DUP3 DUP2 MSTORE PUSH1 0x20 ADD SWAP3 POP POP POP PUSH1 0x20 PUSH1 0x40 MLOAD DUP1 DUP4 SUB DUP2 PUSH1 0x0 DUP8 DUP1 EXTCODESIZE ISZERO DUP1 ISZERO PUSH2 0x34CC JUMPI PUSH1 0x0 DUP1 REVERT JUMPDEST POP GAS CALL ISZERO DUP1 ISZERO PUSH2 0x34E0 JUMPI RETURNDATASIZE PUSH1 0x0 DUP1 RETURNDATACOPY RETURNDATASIZE PUSH1 0x0 REVERT JUMPDEST POP POP POP POP PUSH1 0x40 MLOAD RETURNDATASIZE PUSH1 0x20 DUP2 LT ISZERO PUSH2 0x34F6 JUMPI PUSH1 0x0 DUP1 REVERT JUMPDEST DUP2 ADD SWAP1 DUP1 DUP1 MLOAD SWAP1 PUSH1 0x20 ADD SWAP1 SWAP3 SWAP2 SWAP1 POP POP POP PUSH2 0x350D JUMPI INVALID JUMPDEST PUSH2 0x3559 DUP3 DUP8 DUP8 DUP1 DUP1 PUSH1 0x20 MUL PUSH1 0x20 ADD PUSH1 0x40 MLOAD SWAP1 DUP2 ADD PUSH1 0x40 MSTORE DUP1 SWAP4 SWAP3 SWAP2 SWAP1 DUP2 DUP2 MSTORE PUSH1 0x20 ADD DUP4 DUP4 PUSH1 0x20 MUL DUP1 DUP3 DUP5 CALLDATACOPY PUSH1 0x0 DUP2 DUP5 ADD MSTORE PUSH1 0x1F NOT PUSH1 0x1F DUP3 ADD AND SWAP1 POP DUP1 DUP4 ADD SWAP3 POP POP POP POP POP POP POP DUP7 PUSH2 0x3EEF JUMP JUMPDEST DUP2 PUSH1 0x0 DUP2 MLOAD DUP2 LT PUSH2 0x3566 JUMPI INVALID JUMPDEST PUSH1 0x20 MUL PUSH1 0x20 ADD ADD MLOAD CALLVALUE GT ISZERO PUSH2 0x3596 JUMPI PUSH2 0x3595 CALLER DUP4 PUSH1 0x0 DUP2 MLOAD DUP2 LT PUSH2 0x3586 JUMPI INVALID JUMPDEST PUSH1 0x20 MUL PUSH1 0x20 ADD ADD MLOAD CALLVALUE SUB PUSH2 0x377C JUMP JUMPDEST JUMPDEST POP SWAP6 SWAP5 POP POP POP POP POP JUMP JUMPDEST PUSH1 0x0 PUSH1 0x60 DUP5 PUSH20 0xFFFFFFFFFFFFFFFFFFFFFFFFFFFFFFFFFFFFFFFF AND PUSH4 0xA9059CBB DUP6 DUP6 PUSH1 0x40 MLOAD PUSH1 0x24 ADD DUP1 DUP4 PUSH20 0xFFFFFFFFFFFFFFFFFFFFFFFFFFFFFFFFFFFFFFFF AND PUSH20 0xFFFFFFFFFFFFFFFFFFFFFFFFFFFFFFFFFFFFFFFF AND DUP2 MSTORE PUSH1 0x20 ADD DUP3 DUP2 MSTORE PUSH1 0x20 ADD SWAP3 POP POP POP PUSH1 0x40 MLOAD PUSH1 0x20 DUP2 DUP4 SUB SUB DUP2 MSTORE SWAP1 PUSH1 0x40 MSTORE SWAP1 PUSH1 0xE0 SHL PUSH1 0x20 DUP3 ADD DUP1 MLOAD PUSH28 0xFFFFFFFFFFFFFFFFFFFFFFFFFFFFFFFFFFFFFFFFFFFFFFFFFFFFFFFF DUP4 DUP2 DUP4 AND OR DUP4 MSTORE POP POP POP POP PUSH1 0x40 MLOAD DUP1 DUP3 DUP1 MLOAD SWAP1 PUSH1 0x20 ADD SWAP1 DUP1 DUP4 DUP4 JUMPDEST PUSH1 0x20 DUP4 LT PUSH2 0x3679 JUMPI DUP1 MLOAD DUP3 MSTORE PUSH1 0x20 DUP3 ADD SWAP2 POP PUSH1 0x20 DUP2 ADD SWAP1 POP PUSH1 0x20 DUP4 SUB SWAP3 POP PUSH2 0x3656 JUMP JUMPDEST PUSH1 0x1 DUP4 PUSH1 0x20 SUB PUSH2 0x100 EXP SUB DUP1 NOT DUP3 MLOAD AND DUP2 DUP5 MLOAD AND DUP1 DUP3 OR DUP6 MSTORE POP POP POP POP POP POP SWAP1 POP ADD SWAP2 POP POP PUSH1 0x0 PUSH1 0x40 MLOAD DUP1 DUP4 SUB DUP2 PUSH1 0x0 DUP7 GAS CALL SWAP2 POP POP RETURNDATASIZE DUP1 PUSH1 0x0 DUP2 EQ PUSH2 0x36DB JUMPI PUSH1 0x40 MLOAD SWAP2 POP PUSH1 0x1F NOT PUSH1 0x3F RETURNDATASIZE ADD AND DUP3 ADD PUSH1 0x40 MSTORE RETURNDATASIZE DUP3 MSTORE RETURNDATASIZE PUSH1 0x0 PUSH1 0x20 DUP5 ADD RETURNDATACOPY PUSH2 0x36E0 JUMP JUMPDEST PUSH1 0x60 SWAP2 POP JUMPDEST POP SWAP2 POP SWAP2 POP DUP2 DUP1 ISZERO PUSH2 0x3720 JUMPI POP PUSH1 0x0 DUP2 MLOAD EQ DUP1 PUSH2 0x371F JUMPI POP DUP1 DUP1 PUSH1 0x20 ADD SWAP1 MLOAD PUSH1 0x20 DUP2 LT ISZERO PUSH2 0x370D JUMPI PUSH1 0x0 DUP1 REVERT JUMPDEST DUP2 ADD SWAP1 DUP1 DUP1 MLOAD SWAP1 PUSH1 0x20 ADD SWAP1 SWAP3 SWAP2 SWAP1 POP POP POP JUMPDEST JUMPDEST PUSH2 0x3775 JUMPI PUSH1 0x40 MLOAD PUSH32 0x8C379A000000000000000000000000000000000000000000000000000000000 DUP2 MSTORE PUSH1 0x4 ADD DUP1 DUP1 PUSH1 0x20 ADD DUP3 DUP2 SUB DUP3 MSTORE PUSH1 0x2D DUP2 MSTORE PUSH1 0x20 ADD DUP1 PUSH2 0x4E97 PUSH1 0x2D SWAP2 CODECOPY PUSH1 0x40 ADD SWAP2 POP POP PUSH1 0x40 MLOAD DUP1 SWAP2 SUB SWAP1 REVERT JUMPDEST POP POP POP POP POP JUMP JUMPDEST PUSH1 0x0 DUP3 PUSH20 0xFFFFFFFFFFFFFFFFFFFFFFFFFFFFFFFFFFFFFFFF AND DUP3 PUSH1 0x0 PUSH8 0xFFFFFFFFFFFFFFFF DUP2 GT DUP1 ISZERO PUSH2 0x37AE JUMPI PUSH1 0x0 DUP1 REVERT JUMPDEST POP PUSH1 0x40 MLOAD SWAP1 DUP1 DUP3 MSTORE DUP1 PUSH1 0x1F ADD PUSH1 0x1F NOT AND PUSH1 0x20 ADD DUP3 ADD PUSH1 0x40 MSTORE DUP1 ISZERO PUSH2 0x37E1 JUMPI DUP2 PUSH1 0x20 ADD PUSH1 0x1 DUP3 MUL DUP1 CALLDATASIZE DUP4 CALLDATACOPY DUP1 DUP3 ADD SWAP2 POP POP SWAP1 POP JUMPDEST POP PUSH1 0x40 MLOAD DUP1 DUP3 DUP1 MLOAD SWAP1 PUSH1 0x20 ADD SWAP1 DUP1 DUP4 DUP4 JUMPDEST PUSH1 0x20 DUP4 LT PUSH2 0x3815 JUMPI DUP1 MLOAD DUP3 MSTORE PUSH1 0x20 DUP3 ADD SWAP2 POP PUSH1 0x20 DUP2 ADD SWAP1 POP PUSH1 0x20 DUP4 SUB SWAP3 POP PUSH2 0x37F2 JUMP JUMPDEST PUSH1 0x1 DUP4 PUSH1 0x20 SUB PUSH2 0x100 EXP SUB DUP1 NOT DUP3 MLOAD AND DUP2 DUP5 MLOAD AND DUP1 DUP3 OR DUP6 MSTORE POP POP POP POP POP POP SWAP1 POP ADD SWAP2 POP POP PUSH1 0x0 PUSH1 0x40 MLOAD DUP1 DUP4 SUB DUP2 DUP6 DUP8 GAS CALL SWAP3 POP POP POP RETURNDATASIZE DUP1 PUSH1 0x0 DUP2 EQ PUSH2 0x3877 JUMPI PUSH1 0x40 MLOAD SWAP2 POP PUSH1 0x1F NOT PUSH1 0x3F RETURNDATASIZE ADD AND DUP3 ADD PUSH1 0x40 MSTORE RETURNDATASIZE DUP3 MSTORE RETURNDATASIZE PUSH1 0x0 PUSH1 0x20 DUP5 ADD RETURNDATACOPY PUSH2 0x387C JUMP JUMPDEST PUSH1 0x60 SWAP2 POP JUMPDEST POP POP SWAP1 POP DUP1 PUSH2 0x38D6 JUMPI PUSH1 0x40 MLOAD PUSH32 0x8C379A000000000000000000000000000000000000000000000000000000000 DUP2 MSTORE PUSH1 0x4 ADD DUP1 DUP1 PUSH1 0x20 ADD DUP3 DUP2 SUB DUP3 MSTORE PUSH1 0x34 DUP2 MSTORE PUSH1 0x20 ADD DUP1 PUSH2 0x4DD2 PUSH1 0x34 SWAP2 CODECOPY PUSH1 0x40 ADD SWAP2 POP POP PUSH1 0x40 MLOAD DUP1 SWAP2 SUB SWAP1 REVERT JUMPDEST POP POP POP JUMP JUMPDEST PUSH1 0x0 DUP1 DUP5 GT PUSH2 0x3935 JUMPI PUSH1 0x40 MLOAD PUSH32 0x8C379A000000000000000000000000000000000000000000000000000000000 DUP2 MSTORE PUSH1 0x4 ADD DUP1 DUP1 PUSH1 0x20 ADD DUP3 DUP2 SUB DUP3 MSTORE PUSH1 0x28 DUP2 MSTORE PUSH1 0x20 ADD DUP1 PUSH2 0x4E06 PUSH1 0x28 SWAP2 CODECOPY PUSH1 0x40 ADD SWAP2 POP POP PUSH1 0x40 MLOAD DUP1 SWAP2 SUB SWAP1 REVERT JUMPDEST PUSH1 0x0 DUP4 GT DUP1 ISZERO PUSH2 0x3945 JUMPI POP PUSH1 0x0 DUP3 GT JUMPDEST PUSH2 0x399A JUMPI PUSH1 0x40 MLOAD PUSH32 0x8C379A000000000000000000000000000000000000000000000000000000000 DUP2 MSTORE PUSH1 0x4 ADD DUP1 DUP1 PUSH1 0x20 ADD DUP3 DUP2 SUB DUP3 MSTORE PUSH1 0x25 DUP2 MSTORE PUSH1 0x20 ADD DUP1 PUSH2 0x4E72 PUSH1 0x25 SWAP2 CODECOPY PUSH1 0x40 ADD SWAP2 POP POP PUSH1 0x40 MLOAD DUP1 SWAP2 SUB SWAP1 REVERT JUMPDEST PUSH1 0x0 PUSH2 0x39B1 PUSH2 0x26F7 DUP7 PUSH2 0x4929 SWAP1 SWAP2 SWAP1 PUSH4 0xFFFFFFFF AND JUMP JUMPDEST SWAP1 POP PUSH1 0x0 PUSH2 0x39C8 DUP5 DUP4 PUSH2 0x4929 SWAP1 SWAP2 SWAP1 PUSH4 0xFFFFFFFF AND JUMP JUMPDEST SWAP1 POP PUSH1 0x0 PUSH2 0x39F3 DUP4 PUSH2 0x39E5 PUSH2 0x2710 DUP10 PUSH2 0x4929 SWAP1 SWAP2 SWAP1 PUSH4 0xFFFFFFFF AND JUMP JUMPDEST PUSH2 0x49BE SWAP1 SWAP2 SWAP1 PUSH4 0xFFFFFFFF AND JUMP JUMPDEST SWAP1 POP DUP1 DUP3 DUP2 PUSH2 0x39FE JUMPI INVALID JUMPDEST DIV SWAP4 POP POP POP POP SWAP4 SWAP3 POP POP POP JUMP JUMPDEST PUSH1 0x60 PUSH1 0x2 DUP3 MLOAD LT ISZERO PUSH2 0x3A85 JUMPI PUSH1 0x40 MLOAD PUSH32 0x8C379A000000000000000000000000000000000000000000000000000000000 DUP2 MSTORE PUSH1 0x4 ADD DUP1 DUP1 PUSH1 0x20 ADD DUP3 DUP2 SUB DUP3 MSTORE PUSH1 0x1B DUP2 MSTORE PUSH1 0x20 ADD DUP1 PUSH32 0x45787A6F6E654C6962726172793A20494E56414C49445F504154480000000000 DUP2 MSTORE POP PUSH1 0x20 ADD SWAP2 POP POP PUSH1 0x40 MLOAD DUP1 SWAP2 SUB SWAP1 REVERT JUMPDEST DUP2 MLOAD PUSH8 0xFFFFFFFFFFFFFFFF DUP2 GT DUP1 ISZERO PUSH2 0x3A9D JUMPI PUSH1 0x0 DUP1 REVERT JUMPDEST POP PUSH1 0x40 MLOAD SWAP1 DUP1 DUP3 MSTORE DUP1 PUSH1 0x20 MUL PUSH1 0x20 ADD DUP3 ADD PUSH1 0x40 MSTORE DUP1 ISZERO PUSH2 0x3ACC JUMPI DUP2 PUSH1 0x20 ADD PUSH1 0x20 DUP3 MUL DUP1 CALLDATASIZE DUP4 CALLDATACOPY DUP1 DUP3 ADD SWAP2 POP POP SWAP1 POP JUMPDEST POP SWAP1 POP DUP3 DUP2 PUSH1 0x0 DUP2 MLOAD DUP2 LT PUSH2 0x3ADD JUMPI INVALID JUMPDEST PUSH1 0x20 MUL PUSH1 0x20 ADD ADD DUP2 DUP2 MSTORE POP POP PUSH1 0x0 JUMPDEST PUSH1 0x1 DUP4 MLOAD SUB DUP2 LT ISZERO PUSH2 0x3B7B JUMPI PUSH1 0x0 DUP1 PUSH2 0x3B2F DUP8 DUP7 DUP6 DUP2 MLOAD DUP2 LT PUSH2 0x3B0B JUMPI INVALID JUMPDEST PUSH1 0x20 MUL PUSH1 0x20 ADD ADD MLOAD DUP8 PUSH1 0x1 DUP8 ADD DUP2 MLOAD DUP2 LT PUSH2 0x3B22 JUMPI INVALID JUMPDEST PUSH1 0x20 MUL PUSH1 0x20 ADD ADD MLOAD PUSH2 0x4A41 JUMP JUMPDEST SWAP2 POP SWAP2 POP PUSH2 0x3B51 DUP5 DUP5 DUP2 MLOAD DUP2 LT PUSH2 0x3B42 JUMPI INVALID JUMPDEST PUSH1 0x20 MUL PUSH1 0x20 ADD ADD MLOAD DUP4 DUP4 PUSH2 0x38DB JUMP JUMPDEST DUP5 PUSH1 0x1 DUP6 ADD DUP2 MLOAD DUP2 LT PUSH2 0x3B60 JUMPI INVALID JUMPDEST PUSH1 0x20 MUL PUSH1 0x20 ADD ADD DUP2 DUP2 MSTORE POP POP POP POP DUP1 DUP1 PUSH1 0x1 ADD SWAP2 POP POP PUSH2 0x3AEC JUMP JUMPDEST POP SWAP4 SWAP3 POP POP POP JUMP JUMPDEST PUSH1 0x0 DUP1 PUSH1 0x0 PUSH2 0x3B92 DUP6 DUP6 PUSH2 0x43FE JUMP JUMPDEST SWAP2 POP SWAP2 POP DUP6 DUP3 DUP3 PUSH1 0x40 MLOAD PUSH1 0x20 ADD DUP1 DUP4 PUSH20 0xFFFFFFFFFFFFFFFFFFFFFFFFFFFFFFFFFFFFFFFF AND PUSH20 0xFFFFFFFFFFFFFFFFFFFFFFFFFFFFFFFFFFFFFFFF AND PUSH1 0x60 SHL DUP2 MSTORE PUSH1 0x14 ADD DUP3 PUSH20 0xFFFFFFFFFFFFFFFFFFFFFFFFFFFFFFFFFFFFFFFF AND PUSH20 0xFFFFFFFFFFFFFFFFFFFFFFFFFFFFFFFFFFFFFFFF AND PUSH1 0x60 SHL DUP2 MSTORE PUSH1 0x14 ADD SWAP3 POP POP POP PUSH1 0x40 MLOAD PUSH1 0x20 DUP2 DUP4 SUB SUB DUP2 MSTORE SWAP1 PUSH1 0x40 MSTORE DUP1 MLOAD SWAP1 PUSH1 0x20 ADD KECCAK256 PUSH1 0x40 MLOAD PUSH1 0x20 ADD DUP1 DUP1 PUSH32 0xFF00000000000000000000000000000000000000000000000000000000000000 DUP2 MSTORE POP PUSH1 0x1 ADD DUP4 PUSH20 0xFFFFFFFFFFFFFFFFFFFFFFFFFFFFFFFFFFFFFFFF AND PUSH20 0xFFFFFFFFFFFFFFFFFFFFFFFFFFFFFFFFFFFFFFFF AND PUSH1 0x60 SHL DUP2 MSTORE PUSH1 0x14 ADD DUP3 DUP2 MSTORE PUSH1 0x20 ADD DUP1 PUSH32 0xA5934690703A592A07E841CA29D5E5C79B5E22ED4749057BB216DC31100BE1C0 DUP2 MSTORE POP PUSH1 0x20 ADD SWAP3 POP POP POP PUSH1 0x40 MLOAD PUSH1 0x20 DUP2 DUP4 SUB SUB DUP2 MSTORE SWAP1 PUSH1 0x40 MSTORE DUP1 MLOAD SWAP1 PUSH1 0x20 ADD KECCAK256 PUSH1 0x0 SHR SWAP3 POP POP POP SWAP4 SWAP3 POP POP POP JUMP JUMPDEST PUSH1 0x0 PUSH1 0x60 DUP6 PUSH20 0xFFFFFFFFFFFFFFFFFFFFFFFFFFFFFFFFFFFFFFFF AND PUSH4 0x23B872DD DUP7 DUP7 DUP7 PUSH1 0x40 MLOAD PUSH1 0x24 ADD DUP1 DUP5 PUSH20 0xFFFFFFFFFFFFFFFFFFFFFFFFFFFFFFFFFFFFFFFF AND PUSH20 0xFFFFFFFFFFFFFFFFFFFFFFFFFFFFFFFFFFFFFFFF AND DUP2 MSTORE PUSH1 0x20 ADD DUP4 PUSH20 0xFFFFFFFFFFFFFFFFFFFFFFFFFFFFFFFFFFFFFFFF AND PUSH20 0xFFFFFFFFFFFFFFFFFFFFFFFFFFFFFFFFFFFFFFFF AND DUP2 MSTORE PUSH1 0x20 ADD DUP3 DUP2 MSTORE PUSH1 0x20 ADD SWAP4 POP POP POP POP PUSH1 0x40 MLOAD PUSH1 0x20 DUP2 DUP4 SUB SUB DUP2 MSTORE SWAP1 PUSH1 0x40 MSTORE SWAP1 PUSH1 0xE0 SHL PUSH1 0x20 DUP3 ADD DUP1 MLOAD PUSH28 0xFFFFFFFFFFFFFFFFFFFFFFFFFFFFFFFFFFFFFFFFFFFFFFFFFFFFFFFF DUP4 DUP2 DUP4 AND OR DUP4 MSTORE POP POP POP POP PUSH1 0x40 MLOAD DUP1 DUP3 DUP1 MLOAD SWAP1 PUSH1 0x20 ADD SWAP1 DUP1 DUP4 DUP4 JUMPDEST PUSH1 0x20 DUP4 LT PUSH2 0x3DEB JUMPI DUP1 MLOAD DUP3 MSTORE PUSH1 0x20 DUP3 ADD SWAP2 POP PUSH1 0x20 DUP2 ADD SWAP1 POP PUSH1 0x20 DUP4 SUB SWAP3 POP PUSH2 0x3DC8 JUMP JUMPDEST PUSH1 0x1 DUP4 PUSH1 0x20 SUB PUSH2 0x100 EXP SUB DUP1 NOT DUP3 MLOAD AND DUP2 DUP5 MLOAD AND DUP1 DUP3 OR DUP6 MSTORE POP POP POP POP POP POP SWAP1 POP ADD SWAP2 POP POP PUSH1 0x0 PUSH1 0x40 MLOAD DUP1 DUP4 SUB DUP2 PUSH1 0x0 DUP7 GAS CALL SWAP2 POP POP RETURNDATASIZE DUP1 PUSH1 0x0 DUP2 EQ PUSH2 0x3E4D JUMPI PUSH1 0x40 MLOAD SWAP2 POP PUSH1 0x1F NOT PUSH1 0x3F RETURNDATASIZE ADD AND DUP3 ADD PUSH1 0x40 MSTORE RETURNDATASIZE DUP3 MSTORE RETURNDATASIZE PUSH1 0x0 PUSH1 0x20 DUP5 ADD RETURNDATACOPY PUSH2 0x3E52 JUMP JUMPDEST PUSH1 0x60 SWAP2 POP JUMPDEST POP SWAP2 POP SWAP2 POP DUP2 DUP1 ISZERO PUSH2 0x3E92 JUMPI POP PUSH1 0x0 DUP2 MLOAD EQ DUP1 PUSH2 0x3E91 JUMPI POP DUP1 DUP1 PUSH1 0x20 ADD SWAP1 MLOAD PUSH1 0x20 DUP2 LT ISZERO PUSH2 0x3E7F JUMPI PUSH1 0x0 DUP1 REVERT JUMPDEST DUP2 ADD SWAP1 DUP1 DUP1 MLOAD SWAP1 PUSH1 0x20 ADD SWAP1 SWAP3 SWAP2 SWAP1 POP POP POP JUMPDEST JUMPDEST PUSH2 0x3EE7 JUMPI PUSH1 0x40 MLOAD PUSH32 0x8C379A000000000000000000000000000000000000000000000000000000000 DUP2 MSTORE PUSH1 0x4 ADD DUP1 DUP1 PUSH1 0x20 ADD DUP3 DUP2 SUB DUP3 MSTORE PUSH1 0x31 DUP2 MSTORE PUSH1 0x20 ADD DUP1 PUSH2 0x4DA1 PUSH1 0x31 SWAP2 CODECOPY PUSH1 0x40 ADD SWAP2 POP POP PUSH1 0x40 MLOAD DUP1 SWAP2 SUB SWAP1 REVERT JUMPDEST POP POP POP POP POP POP JUMP JUMPDEST PUSH1 0x0 JUMPDEST PUSH1 0x1 DUP4 MLOAD SUB DUP2 LT ISZERO PUSH2 0x4194 JUMPI PUSH1 0x0 DUP1 DUP5 DUP4 DUP2 MLOAD DUP2 LT PUSH2 0x3F0D JUMPI INVALID JUMPDEST PUSH1 0x20 MUL PUSH1 0x20 ADD ADD MLOAD DUP6 PUSH1 0x1 DUP6 ADD DUP2 MLOAD DUP2 LT PUSH2 0x3F24 JUMPI INVALID JUMPDEST PUSH1 0x20 MUL PUSH1 0x20 ADD ADD MLOAD SWAP2 POP SWAP2 POP PUSH1 0x0 PUSH2 0x3F3C DUP4 DUP4 PUSH2 0x43FE JUMP JUMPDEST POP SWAP1 POP PUSH1 0x0 DUP8 PUSH1 0x1 DUP7 ADD DUP2 MLOAD DUP2 LT PUSH2 0x3F50 JUMPI INVALID JUMPDEST PUSH1 0x20 MUL PUSH1 0x20 ADD ADD MLOAD SWAP1 POP PUSH1 0x0 DUP1 DUP4 PUSH20 0xFFFFFFFFFFFFFFFFFFFFFFFFFFFFFFFFFFFFFFFF AND DUP7 PUSH20 0xFFFFFFFFFFFFFFFFFFFFFFFFFFFFFFFFFFFFFFFF AND EQ PUSH2 0x3F98 JUMPI DUP3 PUSH1 0x0 PUSH2 0x3F9C JUMP JUMPDEST PUSH1 0x0 DUP4 JUMPDEST SWAP2 POP SWAP2 POP PUSH1 0x0 PUSH1 0x2 DUP11 MLOAD SUB DUP9 LT PUSH2 0x3FB3 JUMPI DUP9 PUSH2 0x3FF5 JUMP JUMPDEST PUSH2 0x3FF4 PUSH32 0x0 DUP8 DUP13 PUSH1 0x2 DUP13 ADD DUP2 MLOAD DUP2 LT PUSH2 0x3FE7 JUMPI INVALID JUMPDEST PUSH1 0x20 MUL PUSH1 0x20 ADD ADD MLOAD PUSH2 0x3B83 JUMP JUMPDEST JUMPDEST SWAP1 POP PUSH2 0x4022 PUSH32 0x0 DUP9 DUP9 PUSH2 0x3B83 JUMP JUMPDEST PUSH20 0xFFFFFFFFFFFFFFFFFFFFFFFFFFFFFFFFFFFFFFFF AND PUSH4 0x22C0D9F DUP5 DUP5 DUP5 PUSH1 0x0 PUSH8 0xFFFFFFFFFFFFFFFF DUP2 GT DUP1 ISZERO PUSH2 0x4058 JUMPI PUSH1 0x0 DUP1 REVERT JUMPDEST POP PUSH1 0x40 MLOAD SWAP1 DUP1 DUP3 MSTORE DUP1 PUSH1 0x1F ADD PUSH1 0x1F NOT AND PUSH1 0x20 ADD DUP3 ADD PUSH1 0x40 MSTORE DUP1 ISZERO PUSH2 0x408B JUMPI DUP2 PUSH1 0x20 ADD PUSH1 0x1 DUP3 MUL DUP1 CALLDATASIZE DUP4 CALLDATACOPY DUP1 DUP3 ADD SWAP2 POP POP SWAP1 POP JUMPDEST POP PUSH1 0x40 MLOAD DUP6 PUSH4 0xFFFFFFFF AND PUSH1 0xE0 SHL DUP2 MSTORE PUSH1 0x4 ADD DUP1 DUP6 DUP2 MSTORE PUSH1 0x20 ADD DUP5 DUP2 MSTORE PUSH1 0x20 ADD DUP4 PUSH20 0xFFFFFFFFFFFFFFFFFFFFFFFFFFFFFFFFFFFFFFFF AND PUSH20 0xFFFFFFFFFFFFFFFFFFFFFFFFFFFFFFFFFFFFFFFF AND DUP2 MSTORE PUSH1 0x20 ADD DUP1 PUSH1 0x20 ADD DUP3 DUP2 SUB DUP3 MSTORE DUP4 DUP2 DUP2 MLOAD DUP2 MSTORE PUSH1 0x20 ADD SWAP2 POP DUP1 MLOAD SWAP1 PUSH1 0x20 ADD SWAP1 DUP1 DUP4 DUP4 PUSH1 0x0 JUMPDEST DUP4 DUP2 LT ISZERO PUSH2 0x4119 JUMPI DUP1 DUP3 ADD MLOAD DUP2 DUP5 ADD MSTORE PUSH1 0x20 DUP2 ADD SWAP1 POP PUSH2 0x40FE JUMP JUMPDEST POP POP POP POP SWAP1 POP SWAP1 DUP2 ADD SWAP1 PUSH1 0x1F AND DUP1 ISZERO PUSH2 0x4146 JUMPI DUP1 DUP3 SUB DUP1 MLOAD PUSH1 0x1 DUP4 PUSH1 0x20 SUB PUSH2 0x100 EXP SUB NOT AND DUP2 MSTORE PUSH1 0x20 ADD SWAP2 POP JUMPDEST POP SWAP6 POP POP POP POP POP POP PUSH1 0x0 PUSH1 0x40 MLOAD DUP1 DUP4 SUB DUP2 PUSH1 0x0 DUP8 DUP1 EXTCODESIZE ISZERO DUP1 ISZERO PUSH2 0x4168 JUMPI PUSH1 0x0 DUP1 REVERT JUMPDEST POP GAS CALL ISZERO DUP1 ISZERO PUSH2 0x417C JUMPI RETURNDATASIZE PUSH1 0x0 DUP1 RETURNDATACOPY RETURNDATASIZE PUSH1 0x0 REVERT JUMPDEST POP POP POP POP POP POP POP POP POP POP POP DUP1 DUP1 PUSH1 0x1 ADD SWAP2 POP POP PUSH2 0x3EF2 JUMP JUMPDEST POP POP POP POP JUMP JUMPDEST PUSH1 0x60 PUSH1 0x2 DUP3 MLOAD LT ISZERO PUSH2 0x4214 JUMPI PUSH1 0x40 MLOAD PUSH32 0x8C379A000000000000000000000000000000000000000000000000000000000 DUP2 MSTORE PUSH1 0x4 ADD DUP1 DUP1 PUSH1 0x20 ADD DUP3 DUP2 SUB DUP3 MSTORE PUSH1 0x1B DUP2 MSTORE PUSH1 0x20 ADD DUP1 PUSH32 0x45787A6F6E654C6962726172793A20494E56414C49445F504154480000000000 DUP2 MSTORE POP PUSH1 0x20 ADD SWAP2 POP POP PUSH1 0x40 MLOAD DUP1 SWAP2 SUB SWAP1 REVERT JUMPDEST DUP2 MLOAD PUSH8 0xFFFFFFFFFFFFFFFF DUP2 GT DUP1 ISZERO PUSH2 0x422C JUMPI PUSH1 0x0 DUP1 REVERT JUMPDEST POP PUSH1 0x40 MLOAD SWAP1 DUP1 DUP3 MSTORE DUP1 PUSH1 0x20 MUL PUSH1 0x20 ADD DUP3 ADD PUSH1 0x40 MSTORE DUP1 ISZERO PUSH2 0x425B JUMPI DUP2 PUSH1 0x20 ADD PUSH1 0x20 DUP3 MUL DUP1 CALLDATASIZE DUP4 CALLDATACOPY DUP1 DUP3 ADD SWAP2 POP POP SWAP1 POP JUMPDEST POP SWAP1 POP DUP3 DUP2 PUSH1 0x1 DUP4 MLOAD SUB DUP2 MLOAD DUP2 LT PUSH2 0x426F JUMPI INVALID JUMPDEST PUSH1 0x20 MUL PUSH1 0x20 ADD ADD DUP2 DUP2 MSTORE POP POP PUSH1 0x0 PUSH1 0x1 DUP4 MLOAD SUB SWAP1 POP JUMPDEST PUSH1 0x0 DUP2 GT ISZERO PUSH2 0x4312 JUMPI PUSH1 0x0 DUP1 PUSH2 0x42C5 DUP8 DUP7 PUSH1 0x1 DUP7 SUB DUP2 MLOAD DUP2 LT PUSH2 0x42A4 JUMPI INVALID JUMPDEST PUSH1 0x20 MUL PUSH1 0x20 ADD ADD MLOAD DUP8 DUP7 DUP2 MLOAD DUP2 LT PUSH2 0x42B8 JUMPI INVALID JUMPDEST PUSH1 0x20 MUL PUSH1 0x20 ADD ADD MLOAD PUSH2 0x4A41 JUMP JUMPDEST SWAP2 POP SWAP2 POP PUSH2 0x42E7 DUP5 DUP5 DUP2 MLOAD DUP2 LT PUSH2 0x42D8 JUMPI INVALID JUMPDEST PUSH1 0x20 MUL PUSH1 0x20 ADD ADD MLOAD DUP4 DUP4 PUSH2 0x4B76 JUMP JUMPDEST DUP5 PUSH1 0x1 DUP6 SUB DUP2 MLOAD DUP2 LT PUSH2 0x42F6 JUMPI INVALID JUMPDEST PUSH1 0x20 MUL PUSH1 0x20 ADD ADD DUP2 DUP2 MSTORE POP POP POP POP DUP1 DUP1 PUSH1 0x1 SWAP1 SUB SWAP2 POP POP PUSH2 0x4285 JUMP JUMPDEST POP SWAP4 SWAP3 POP POP POP JUMP JUMPDEST PUSH1 0x0 DUP1 DUP5 GT PUSH2 0x4374 JUMPI PUSH1 0x40 MLOAD PUSH32 0x8C379A000000000000000000000000000000000000000000000000000000000 DUP2 MSTORE PUSH1 0x4 ADD DUP1 DUP1 PUSH1 0x20 ADD DUP3 DUP2 SUB DUP3 MSTORE PUSH1 0x22 DUP2 MSTORE PUSH1 0x20 ADD DUP1 PUSH2 0x4E2E PUSH1 0x22 SWAP2 CODECOPY PUSH1 0x40 ADD SWAP2 POP POP PUSH1 0x40 MLOAD DUP1 SWAP2 SUB SWAP1 REVERT JUMPDEST PUSH1 0x0 DUP4 GT DUP1 ISZERO PUSH2 0x4384 JUMPI POP PUSH1 0x0 DUP3 GT JUMPDEST PUSH2 0x43D9 JUMPI PUSH1 0x40 MLOAD PUSH32 0x8C379A000000000000000000000000000000000000000000000000000000000 DUP2 MSTORE PUSH1 0x4 ADD DUP1 DUP1 PUSH1 0x20 ADD DUP3 DUP2 SUB DUP3 MSTORE PUSH1 0x25 DUP2 MSTORE PUSH1 0x20 ADD DUP1 PUSH2 0x4E72 PUSH1 0x25 SWAP2 CODECOPY PUSH1 0x40 ADD SWAP2 POP POP PUSH1 0x40 MLOAD DUP1 SWAP2 SUB SWAP1 REVERT JUMPDEST DUP3 PUSH2 0x43ED DUP4 DUP7 PUSH2 0x4929 SWAP1 SWAP2 SWAP1 PUSH4 0xFFFFFFFF AND JUMP JUMPDEST DUP2 PUSH2 0x43F4 JUMPI INVALID JUMPDEST DIV SWAP1 POP SWAP4 SWAP3 POP POP POP JUMP JUMPDEST PUSH1 0x0 DUP1 DUP3 PUSH20 0xFFFFFFFFFFFFFFFFFFFFFFFFFFFFFFFFFFFFFFFF AND DUP5 PUSH20 0xFFFFFFFFFFFFFFFFFFFFFFFFFFFFFFFFFFFFFFFF AND EQ ISZERO PUSH2 0x4486 JUMPI PUSH1 0x40 MLOAD PUSH32 0x8C379A000000000000000000000000000000000000000000000000000000000 DUP2 MSTORE PUSH1 0x4 ADD DUP1 DUP1 PUSH1 0x20 ADD DUP3 DUP2 SUB DUP3 MSTORE PUSH1 0x22 DUP2 MSTORE PUSH1 0x20 ADD DUP1 PUSH2 0x4E50 PUSH1 0x22 SWAP2 CODECOPY PUSH1 0x40 ADD SWAP2 POP POP PUSH1 0x40 MLOAD DUP1 SWAP2 SUB SWAP1 REVERT JUMPDEST DUP3 PUSH20 0xFFFFFFFFFFFFFFFFFFFFFFFFFFFFFFFFFFFFFFFF AND DUP5 PUSH20 0xFFFFFFFFFFFFFFFFFFFFFFFFFFFFFFFFFFFFFFFF AND LT PUSH2 0x44C0 JUMPI DUP3 DUP5 PUSH2 0x44C3 JUMP JUMPDEST DUP4 DUP4 JUMPDEST DUP1 SWAP3 POP DUP2 SWAP4 POP POP POP PUSH1 0x0 PUSH20 0xFFFFFFFFFFFFFFFFFFFFFFFFFFFFFFFFFFFFFFFF AND DUP3 PUSH20 0xFFFFFFFFFFFFFFFFFFFFFFFFFFFFFFFFFFFFFFFF AND EQ ISZERO PUSH2 0x456E JUMPI PUSH1 0x40 MLOAD PUSH32 0x8C379A000000000000000000000000000000000000000000000000000000000 DUP2 MSTORE PUSH1 0x4 ADD DUP1 DUP1 PUSH1 0x20 ADD DUP3 DUP2 SUB DUP3 MSTORE PUSH1 0x1B DUP2 MSTORE PUSH1 0x20 ADD DUP1 PUSH32 0x45787A6F6E654C6962726172793A205A45524F5F414444524553530000000000 DUP2 MSTORE POP PUSH1 0x20 ADD SWAP2 POP POP PUSH1 0x40 MLOAD DUP1 SWAP2 SUB SWAP1 REVERT JUMPDEST SWAP3 POP SWAP3 SWAP1 POP JUMP JUMPDEST PUSH1 0x0 DUP1 PUSH1 0x0 PUSH20 0xFFFFFFFFFFFFFFFFFFFFFFFFFFFFFFFFFFFFFFFF AND PUSH32 0x0 PUSH20 0xFFFFFFFFFFFFFFFFFFFFFFFFFFFFFFFFFFFFFFFF AND PUSH4 0xE6A43905 DUP11 DUP11 PUSH1 0x40 MLOAD DUP4 PUSH4 0xFFFFFFFF AND PUSH1 0xE0 SHL DUP2 MSTORE PUSH1 0x4 ADD DUP1 DUP4 PUSH20 0xFFFFFFFFFFFFFFFFFFFFFFFFFFFFFFFFFFFFFFFF AND PUSH20 0xFFFFFFFFFFFFFFFFFFFFFFFFFFFFFFFFFFFFFFFF AND DUP2 MSTORE PUSH1 0x20 ADD DUP3 PUSH20 0xFFFFFFFFFFFFFFFFFFFFFFFFFFFFFFFFFFFFFFFF AND PUSH20 0xFFFFFFFFFFFFFFFFFFFFFFFFFFFFFFFFFFFFFFFF AND DUP2 MSTORE PUSH1 0x20 ADD SWAP3 POP POP POP PUSH1 0x20 PUSH1 0x40 MLOAD DUP1 DUP4 SUB DUP2 DUP7 DUP1 EXTCODESIZE ISZERO DUP1 ISZERO PUSH2 0x4661 JUMPI PUSH1 0x0 DUP1 REVERT JUMPDEST POP GAS STATICCALL ISZERO DUP1 ISZERO PUSH2 0x4675 JUMPI RETURNDATASIZE PUSH1 0x0 DUP1 RETURNDATACOPY RETURNDATASIZE PUSH1 0x0 REVERT JUMPDEST POP POP POP POP PUSH1 0x40 MLOAD RETURNDATASIZE PUSH1 0x20 DUP2 LT ISZERO PUSH2 0x468B JUMPI PUSH1 0x0 DUP1 REVERT JUMPDEST DUP2 ADD SWAP1 DUP1 DUP1 MLOAD SWAP1 PUSH1 0x20 ADD SWAP1 SWAP3 SWAP2 SWAP1 POP POP POP PUSH20 0xFFFFFFFFFFFFFFFFFFFFFFFFFFFFFFFFFFFFFFFF AND EQ ISZERO PUSH2 0x47C8 JUMPI PUSH32 0x0 PUSH20 0xFFFFFFFFFFFFFFFFFFFFFFFFFFFFFFFFFFFFFFFF AND PUSH4 0xC9C65396 DUP10 DUP10 PUSH1 0x40 MLOAD DUP4 PUSH4 0xFFFFFFFF AND PUSH1 0xE0 SHL DUP2 MSTORE PUSH1 0x4 ADD DUP1 DUP4 PUSH20 0xFFFFFFFFFFFFFFFFFFFFFFFFFFFFFFFFFFFFFFFF AND PUSH20 0xFFFFFFFFFFFFFFFFFFFFFFFFFFFFFFFFFFFFFFFF AND DUP2 MSTORE PUSH1 0x20 ADD DUP3 PUSH20 0xFFFFFFFFFFFFFFFFFFFFFFFFFFFFFFFFFFFFFFFF AND PUSH20 0xFFFFFFFFFFFFFFFFFFFFFFFFFFFFFFFFFFFFFFFF AND DUP2 MSTORE PUSH1 0x20 ADD SWAP3 POP POP POP PUSH1 0x20 PUSH1 0x40 MLOAD DUP1 DUP4 SUB DUP2 PUSH1 0x0 DUP8 DUP1 EXTCODESIZE ISZERO DUP1 ISZERO PUSH2 0x478B JUMPI PUSH1 0x0 DUP1 REVERT JUMPDEST POP GAS CALL ISZERO DUP1 ISZERO PUSH2 0x479F JUMPI RETURNDATASIZE PUSH1 0x0 DUP1 RETURNDATACOPY RETURNDATASIZE PUSH1 0x0 REVERT JUMPDEST POP POP POP POP PUSH1 0x40 MLOAD RETURNDATASIZE PUSH1 0x20 DUP2 LT ISZERO PUSH2 0x47B5 JUMPI PUSH1 0x0 DUP1 REVERT JUMPDEST DUP2 ADD SWAP1 DUP1 DUP1 MLOAD SWAP1 PUSH1 0x20 ADD SWAP1 SWAP3 SWAP2 SWAP1 POP POP POP POP JUMPDEST PUSH1 0x0 DUP1 PUSH2 0x47F6 PUSH32 0x0 DUP12 DUP12 PUSH2 0x4A41 JUMP JUMPDEST SWAP2 POP SWAP2 POP PUSH1 0x0 DUP3 EQ DUP1 ISZERO PUSH2 0x480A JUMPI POP PUSH1 0x0 DUP2 EQ JUMPDEST ISZERO PUSH2 0x481E JUMPI DUP8 DUP8 DUP1 SWAP5 POP DUP2 SWAP6 POP POP POP PUSH2 0x491C JUMP JUMPDEST PUSH1 0x0 PUSH2 0x482B DUP10 DUP5 DUP5 PUSH2 0x431A JUMP JUMPDEST SWAP1 POP DUP8 DUP2 GT PUSH2 0x489C JUMPI DUP6 DUP2 LT ISZERO PUSH2 0x488D JUMPI PUSH1 0x40 MLOAD PUSH32 0x8C379A000000000000000000000000000000000000000000000000000000000 DUP2 MSTORE PUSH1 0x4 ADD DUP1 DUP1 PUSH1 0x20 ADD DUP3 DUP2 SUB DUP3 MSTORE PUSH1 0x23 DUP2 MSTORE PUSH1 0x20 ADD DUP1 PUSH2 0x4D5B PUSH1 0x23 SWAP2 CODECOPY PUSH1 0x40 ADD SWAP2 POP POP PUSH1 0x40 MLOAD DUP1 SWAP2 SUB SWAP1 REVERT JUMPDEST DUP9 DUP2 DUP1 SWAP6 POP DUP2 SWAP7 POP POP POP PUSH2 0x491A JUMP JUMPDEST PUSH1 0x0 PUSH2 0x48A9 DUP10 DUP5 DUP7 PUSH2 0x431A JUMP JUMPDEST SWAP1 POP DUP10 DUP2 GT ISZERO PUSH2 0x48B5 JUMPI INVALID JUMPDEST DUP8 DUP2 LT ISZERO PUSH2 0x490E JUMPI PUSH1 0x40 MLOAD PUSH32 0x8C379A000000000000000000000000000000000000000000000000000000000 DUP2 MSTORE PUSH1 0x4 ADD DUP1 DUP1 PUSH1 0x20 ADD DUP3 DUP2 SUB DUP3 MSTORE PUSH1 0x23 DUP2 MSTORE PUSH1 0x20 ADD DUP1 PUSH2 0x4D7E PUSH1 0x23 SWAP2 CODECOPY PUSH1 0x40 ADD SWAP2 POP POP PUSH1 0x40 MLOAD DUP1 SWAP2 SUB SWAP1 REVERT JUMPDEST DUP1 DUP10 DUP1 SWAP7 POP DUP2 SWAP8 POP POP POP POP JUMPDEST POP JUMPDEST POP POP SWAP7 POP SWAP7 SWAP5 POP POP POP POP POP JUMP JUMPDEST PUSH1 0x0 DUP1 DUP3 EQ DUP1 PUSH2 0x4946 JUMPI POP DUP3 DUP3 DUP4 DUP6 MUL SWAP3 POP DUP3 DUP2 PUSH2 0x4943 JUMPI INVALID JUMPDEST DIV EQ JUMPDEST PUSH2 0x49B8 JUMPI PUSH1 0x40 MLOAD PUSH32 0x8C379A000000000000000000000000000000000000000000000000000000000 DUP2 MSTORE PUSH1 0x4 ADD DUP1 DUP1 PUSH1 0x20 ADD DUP3 DUP2 SUB DUP3 MSTORE PUSH1 0x14 DUP2 MSTORE PUSH1 0x20 ADD DUP1 PUSH32 0x64732D6D6174682D6D756C2D6F766572666C6F77000000000000000000000000 DUP2 MSTORE POP PUSH1 0x20 ADD SWAP2 POP POP PUSH1 0x40 MLOAD DUP1 SWAP2 SUB SWAP1 REVERT JUMPDEST SWAP3 SWAP2 POP POP JUMP JUMPDEST PUSH1 0x0 DUP3 DUP3 DUP5 ADD SWAP2 POP DUP2 LT ISZERO PUSH2 0x4A3B JUMPI PUSH1 0x40 MLOAD PUSH32 0x8C379A000000000000000000000000000000000000000000000000000000000 DUP2 MSTORE PUSH1 0x4 ADD DUP1 DUP1 PUSH1 0x20 ADD DUP3 DUP2 SUB DUP3 MSTORE PUSH1 0x14 DUP2 MSTORE PUSH1 0x20 ADD DUP1 PUSH32 0x64732D6D6174682D6164642D6F766572666C6F77000000000000000000000000 DUP2 MSTORE POP PUSH1 0x20 ADD SWAP2 POP POP PUSH1 0x40 MLOAD DUP1 SWAP2 SUB SWAP1 REVERT JUMPDEST SWAP3 SWAP2 POP POP JUMP JUMPDEST PUSH1 0x0 DUP1 PUSH1 0x0 PUSH2 0x4A50 DUP6 DUP6 PUSH2 0x43FE JUMP JUMPDEST POP SWAP1 POP PUSH2 0x4A5E DUP7 DUP7 DUP7 PUSH2 0x3B83 JUMP JUMPDEST POP PUSH1 0x0 DUP1 PUSH2 0x4A6D DUP9 DUP9 DUP9 PUSH2 0x3B83 JUMP JUMPDEST PUSH20 0xFFFFFFFFFFFFFFFFFFFFFFFFFFFFFFFFFFFFFFFF AND PUSH4 0x902F1AC PUSH1 0x40 MLOAD DUP2 PUSH4 0xFFFFFFFF AND PUSH1 0xE0 SHL DUP2 MSTORE PUSH1 0x4 ADD PUSH1 0x60 PUSH1 0x40 MLOAD DUP1 DUP4 SUB DUP2 DUP7 DUP1 EXTCODESIZE ISZERO DUP1 ISZERO PUSH2 0x4AB2 JUMPI PUSH1 0x0 DUP1 REVERT JUMPDEST POP GAS STATICCALL ISZERO DUP1 ISZERO PUSH2 0x4AC6 JUMPI RETURNDATASIZE PUSH1 0x0 DUP1 RETURNDATACOPY RETURNDATASIZE PUSH1 0x0 REVERT JUMPDEST POP POP POP POP PUSH1 0x40 MLOAD RETURNDATASIZE PUSH1 0x60 DUP2 LT ISZERO PUSH2 0x4ADC JUMPI PUSH1 0x0 DUP1 REVERT JUMPDEST DUP2 ADD SWAP1 DUP1 DUP1 MLOAD SWAP1 PUSH1 0x20 ADD SWAP1 SWAP3 SWAP2 SWAP1 DUP1 MLOAD SWAP1 PUSH1 0x20 ADD SWAP1 SWAP3 SWAP2 SWAP1 DUP1 MLOAD SWAP1 PUSH1 0x20 ADD SWAP1 SWAP3 SWAP2 SWAP1 POP POP POP POP PUSH14 0xFFFFFFFFFFFFFFFFFFFFFFFFFFFF AND SWAP2 POP PUSH14 0xFFFFFFFFFFFFFFFFFFFFFFFFFFFF AND SWAP2 POP DUP3 PUSH20 0xFFFFFFFFFFFFFFFFFFFFFFFFFFFFFFFFFFFFFFFF AND DUP8 PUSH20 0xFFFFFFFFFFFFFFFFFFFFFFFFFFFFFFFFFFFFFFFF AND EQ PUSH2 0x4B60 JUMPI DUP1 DUP3 PUSH2 0x4B63 JUMP JUMPDEST DUP2 DUP2 JUMPDEST DUP1 SWAP6 POP DUP2 SWAP7 POP POP POP POP POP POP SWAP4 POP SWAP4 SWAP2 POP POP JUMP JUMPDEST PUSH1 0x0 DUP1 DUP5 GT PUSH2 0x4BD0 JUMPI PUSH1 0x40 MLOAD PUSH32 0x8C379A000000000000000000000000000000000000000000000000000000000 DUP2 MSTORE PUSH1 0x4 ADD DUP1 DUP1 PUSH1 0x20 ADD DUP3 DUP2 SUB DUP3 MSTORE PUSH1 0x29 DUP2 MSTORE PUSH1 0x20 ADD DUP1 PUSH2 0x4EC4 PUSH1 0x29 SWAP2 CODECOPY PUSH1 0x40 ADD SWAP2 POP POP PUSH1 0x40 MLOAD DUP1 SWAP2 SUB SWAP1 REVERT JUMPDEST PUSH1 0x0 DUP4 GT DUP1 ISZERO PUSH2 0x4BE0 JUMPI POP PUSH1 0x0 DUP3 GT JUMPDEST PUSH2 0x4C35 JUMPI PUSH1 0x40 MLOAD PUSH32 0x8C379A000000000000000000000000000000000000000000000000000000000 DUP2 MSTORE PUSH1 0x4 ADD DUP1 DUP1 PUSH1 0x20 ADD DUP3 DUP2 SUB DUP3 MSTORE PUSH1 0x25 DUP2 MSTORE PUSH1 0x20 ADD DUP1 PUSH2 0x4E72 PUSH1 0x25 SWAP2 CODECOPY PUSH1 0x40 ADD SWAP2 POP POP PUSH1 0x40 MLOAD DUP1 SWAP2 SUB SWAP1 REVERT JUMPDEST PUSH1 0x0 PUSH2 0x4C5E PUSH2 0x2710 PUSH2 0x4C50 DUP8 DUP8 PUSH2 0x4929 SWAP1 SWAP2 SWAP1 PUSH4 0xFFFFFFFF AND JUMP JUMPDEST PUSH2 0x4929 SWAP1 SWAP2 SWAP1 PUSH4 0xFFFFFFFF AND JUMP JUMPDEST SWAP1 POP PUSH1 0x0 PUSH2 0x4C89 PUSH2 0x26F7 PUSH2 0x4C7B DUP9 DUP8 PUSH2 0x4CB3 SWAP1 SWAP2 SWAP1 PUSH4 0xFFFFFFFF AND JUMP JUMPDEST PUSH2 0x4929 SWAP1 SWAP2 SWAP1 PUSH4 0xFFFFFFFF AND JUMP JUMPDEST SWAP1 POP PUSH2 0x4CA8 PUSH1 0x1 DUP3 DUP5 DUP2 PUSH2 0x4C99 JUMPI INVALID JUMPDEST DIV PUSH2 0x49BE SWAP1 SWAP2 SWAP1 PUSH4 0xFFFFFFFF AND JUMP JUMPDEST SWAP3 POP POP POP SWAP4 SWAP3 POP POP POP JUMP JUMPDEST PUSH1 0x0 DUP3 DUP3 DUP5 SUB SWAP2 POP DUP2 GT ISZERO PUSH2 0x4D30 JUMPI PUSH1 0x40 MLOAD PUSH32 0x8C379A000000000000000000000000000000000000000000000000000000000 DUP2 MSTORE PUSH1 0x4 ADD DUP1 DUP1 PUSH1 0x20 ADD DUP3 DUP2 SUB DUP3 MSTORE PUSH1 0x15 DUP2 MSTORE PUSH1 0x20 ADD DUP1 PUSH32 0x64732D6D6174682D7375622D756E646572666C6F770000000000000000000000 DUP2 MSTORE POP PUSH1 0x20 ADD SWAP2 POP POP PUSH1 0x40 MLOAD DUP1 SWAP2 SUB SWAP1 REVERT JUMPDEST SWAP3 SWAP2 POP POP JUMP INVALID GASLIMIT PUSH25 0x7A6F6E65526F757465723A204558434553534956455F494E50 SSTORE SLOAD 0x5F COINBASE 0x4D 0x4F SSTORE 0x4E SLOAD GASLIMIT PUSH25 0x7A6F6E65526F757465723A20494E53554646494349454E545F TIMESTAMP 0x5F COINBASE 0x4D 0x4F SSTORE 0x4E SLOAD GASLIMIT PUSH25 0x7A6F6E65526F757465723A20494E53554646494349454E545F COINBASE 0x5F COINBASE 0x4D 0x4F SSTORE 0x4E SLOAD SLOAD PUSH19 0x616E7366657248656C7065723A3A7472616E73 PUSH7 0x657246726F6D3A KECCAK256 PUSH21 0x72616E7366657246726F6D206661696C6564547261 PUSH15 0x7366657248656C7065723A3A736166 PUSH6 0x5472616E7366 PUSH6 0x724554483A20 GASLIMIT SLOAD 0x48 KECCAK256 PUSH21 0x72616E73666572206661696C656445787A6F6E654C PUSH10 0x62726172793A20494E53 SSTORE CHAINID CHAINID 0x49 NUMBER 0x49 GASLIMIT 0x4E SLOAD 0x5F 0x49 0x4E POP SSTORE SLOAD 0x5F COINBASE 0x4D 0x4F SSTORE 0x4E SLOAD GASLIMIT PUSH25 0x7A6F6E654C6962726172793A20494E53554646494349454E54 0x5F COINBASE 0x4D 0x4F SSTORE 0x4E SLOAD GASLIMIT PUSH25 0x7A6F6E654C6962726172793A204944454E544943414C5F4144 DIFFICULTY MSTORE GASLIMIT MSTORE8 MSTORE8 GASLIMIT MSTORE8 GASLIMIT PUSH25 0x7A6F6E654C6962726172793A20494E53554646494349454E54 0x5F 0x4C 0x49 MLOAD SSTORE 0x49 DIFFICULTY 0x49 SLOAD MSIZE SLOAD PUSH19 0x616E7366657248656C7065723A3A7361666554 PUSH19 0x616E736665723A207472616E73666572206661 PUSH10 0x6C656445787A6F6E654C PUSH10 0x62726172793A20494E53 SSTORE CHAINID CHAINID 0x49 NUMBER 0x49 GASLIMIT 0x4E SLOAD 0x5F 0x4F SSTORE SLOAD POP SSTORE SLOAD 0x5F COINBASE 0x4D 0x4F SSTORE 0x4E SLOAD GASLIMIT PUSH25 0x7A6F6E65526F757465723A20494E53554646494349454E545F 0x4F SSTORE SLOAD POP SSTORE SLOAD 0x5F COINBASE 0x4D 0x4F SSTORE 0x4E SLOAD LOG2 PUSH5 0x6970667358 0x22 SLT KECCAK256 PUSH22 0xD9853AB6B88116116E169CB01DD69D2400EB93C7D9B3 DUP7 PUSH30 0xCB52484E6FE58764736F6C63430006060033000000000000000000000000 "
				},
				"gasEstimates": {
					"creation": {
						"codeDepositCost": "4059600",
						"executionCost": "infinite",
						"totalCost": "infinite"
					},
					"external": {
						"WETH()": "infinite",
						"addLiquidity(address,address,uint256,uint256,uint256,uint256,address,uint256)": "infinite",
						"addLiquidityETH(address,uint256,uint256,uint256,address,uint256)": "infinite",
						"factory()": "infinite",
						"getAmountIn(uint256,uint256,uint256)": "infinite",
						"getAmountOut(uint256,uint256,uint256)": "infinite",
						"getAmountsIn(uint256,address[])": "infinite",
						"getAmountsOut(uint256,address[])": "infinite",
						"quote(uint256,uint256,uint256)": "infinite",
						"removeLiquidity(address,address,uint256,uint256,uint256,address,uint256)": "infinite",
						"removeLiquidityETH(address,uint256,uint256,uint256,address,uint256)": "infinite",
						"removeLiquidityETHWithPermit(address,uint256,uint256,uint256,address,uint256,bool,uint8,bytes32,bytes32)": "infinite",
						"removeLiquidityWithPermit(address,address,uint256,uint256,uint256,address,uint256,bool,uint8,bytes32,bytes32)": "infinite",
						"swapETHForExactTokens(uint256,address[],address,uint256)": "infinite",
						"swapExactETHForTokens(uint256,address[],address,uint256)": "infinite",
						"swapExactTokensForETH(uint256,uint256,address[],address,uint256)": "infinite",
						"swapExactTokensForTokens(uint256,uint256,address[],address,uint256)": "infinite",
						"swapTokensForExactETH(uint256,uint256,address[],address,uint256)": "infinite",
						"swapTokensForExactTokens(uint256,uint256,address[],address,uint256)": "infinite"
					},
					"internal": {
						"_addLiquidity(address,address,uint256,uint256,uint256,uint256)": "infinite",
						"_swap(uint256[] memory,address[] memory,address)": "infinite"
					}
				},
				"methodIdentifiers": {
					"WETH()": "ad5c4648",
					"addLiquidity(address,address,uint256,uint256,uint256,uint256,address,uint256)": "e8e33700",
					"addLiquidityETH(address,uint256,uint256,uint256,address,uint256)": "f305d719",
					"factory()": "c45a0155",
					"getAmountIn(uint256,uint256,uint256)": "85f8c259",
					"getAmountOut(uint256,uint256,uint256)": "054d50d4",
					"getAmountsIn(uint256,address[])": "1f00ca74",
					"getAmountsOut(uint256,address[])": "d06ca61f",
					"quote(uint256,uint256,uint256)": "ad615dec",
					"removeLiquidity(address,address,uint256,uint256,uint256,address,uint256)": "baa2abde",
					"removeLiquidityETH(address,uint256,uint256,uint256,address,uint256)": "02751cec",
					"removeLiquidityETHWithPermit(address,uint256,uint256,uint256,address,uint256,bool,uint8,bytes32,bytes32)": "ded9382a",
					"removeLiquidityWithPermit(address,address,uint256,uint256,uint256,address,uint256,bool,uint8,bytes32,bytes32)": "2195995c",
					"swapETHForExactTokens(uint256,address[],address,uint256)": "fb3bdb41",
					"swapExactETHForTokens(uint256,address[],address,uint256)": "7ff36ab5",
					"swapExactTokensForETH(uint256,uint256,address[],address,uint256)": "18cbafe5",
					"swapExactTokensForTokens(uint256,uint256,address[],address,uint256)": "38ed1739",
					"swapTokensForExactETH(uint256,uint256,address[],address,uint256)": "4a25d94a",
					"swapTokensForExactTokens(uint256,uint256,address[],address,uint256)": "8803dbee"
				}
			},
			"storageLayout": {
				"storage": [],
				"types": null
			},
			"userdoc": {
				"methods": {}
			}
		}
	}
}