{
	"data": {
		"bytecode": {
			"linkReferences": {},
			"object": "608060405234801561000f575f5ffd5b50604051615d14380380615d148339818101604052810190610031919061031b565b805f73ffffffffffffffffffffffffffffffffffffffff168173ffffffffffffffffffffffffffffffffffffffff16036100a2575f6040517f1e4fbdf7000000000000000000000000000000000000000000000000000000008152600401610099919061038e565b60405180910390fd5b6100b1816101c960201b60201c565b50600180819055508360065f6101000a81548173ffffffffffffffffffffffffffffffffffffffff021916908373ffffffffffffffffffffffffffffffffffffffff1602179055508360025f6101000a81548173ffffffffffffffffffffffffffffffffffffffff021916908373ffffffffffffffffffffffffffffffffffffffff1602179055508260055f6101000a81548173ffffffffffffffffffffffffffffffffffffffff021916908373ffffffffffffffffffffffffffffffffffffffff1602179055508260035f6101000a81548173ffffffffffffffffffffffffffffffffffffffff021916908373ffffffffffffffffffffffffffffffffffffffff16021790555081600481905550505050506103a7565b5f5f5f9054906101000a900473ffffffffffffffffffffffffffffffffffffffff169050815f5f6101000a81548173ffffffffffffffffffffffffffffffffffffffff021916908373ffffffffffffffffffffffffffffffffffffffff1602179055508173ffffffffffffffffffffffffffffffffffffffff168173ffffffffffffffffffffffffffffffffffffffff167f8be0079c531659141344cd1fd0a4f28419497f9722a3daafe3b4186f6b6457e060405160405180910390a35050565b5f5ffd5b5f73ffffffffffffffffffffffffffffffffffffffff82169050919050565b5f6102b78261028e565b9050919050565b6102c7816102ad565b81146102d1575f5ffd5b50565b5f815190506102e2816102be565b92915050565b5f819050919050565b6102fa816102e8565b8114610304575f5ffd5b50565b5f81519050610315816102f1565b92915050565b5f5f5f5f608085870312156103335761033261028a565b5b5f610340878288016102d4565b9450506020610351878288016102d4565b935050604061036287828801610307565b9250506060610373878288016102d4565b91505092959194509250565b610388816102ad565b82525050565b5f6020820190506103a15f83018461037f565b92915050565b615960806103b45f395ff3fe608060405260043610610117575f3560e01c80635fcbdaed1161009f5780638da5cb5b116100635780638da5cb5b146103db5780638dd9500214610405578063b421e91e1461042f578063e3ceb16b14610457578063f2fde38b146104735761017b565b80635fcbdaed1461030f578063715018a61461033757806382c98b2d1461034d57806384b731151461038b57806387e3f21c146103b35761017b565b80632b4652eb116100e65780632b4652eb146102275780632f883da41461024f5780633b0a48bb1461028d5780633f138d4b146102cb5780635cb88a3f146102f35761017b565b8063098d32281461017f5780630f4e4e63146101a957806324a6ad68146101d3578063257d9bb8146101fd5761017b565b3661017b5760065f9054906101000a900473ffffffffffffffffffffffffffffffffffffffff1673ffffffffffffffffffffffffffffffffffffffff163373ffffffffffffffffffffffffffffffffffffffff1614610179576101786144a1565b5b005b5f5ffd5b34801561018a575f5ffd5b5061019361049b565b6040516101a091906144e6565b60405180910390f35b3480156101b4575f5ffd5b506101bd6104bf565b6040516101ca91906144e6565b60405180910390f35b3480156101de575f5ffd5b506101e76104c5565b6040516101f49190614579565b60405180910390f35b348015610208575f5ffd5b506102116104ea565b60405161021e91906144e6565b60405180910390f35b348015610232575f5ffd5b5061024d600480360381019061024891906145cd565b6104f0565b005b34801561025a575f5ffd5b5061027560048036038101906102709190614633565b610539565b60405161028493929190614692565b60405180910390f35b348015610298575f5ffd5b506102b360048036038101906102ae9190614633565b610a06565b6040516102c293929190614692565b60405180910390f35b3480156102d6575f5ffd5b506102f160048036038101906102ec91906146c7565b610dc5565b005b61030d600480360381019061030891906146c7565b610e4a565b005b34801561031a575f5ffd5b5061033560048036038101906103309190614705565b610f8b565b005b348015610342575f5ffd5b5061034b6111f9565b005b348015610358575f5ffd5b50610373600480360381019061036e9190614755565b61120c565b604051610382939291906147e6565b60405180910390f35b348015610396575f5ffd5b506103b160048036038101906103ac919061481b565b6119bd565b005b3480156103be575f5ffd5b506103d960048036038101906103d4919061487f565b611ab8565b005b3480156103e6575f5ffd5b506103ef611b89565b6040516103fc91906148e3565b60405180910390f35b348015610410575f5ffd5b50610419611bb0565b604051610426919061491c565b60405180910390f35b34801561043a575f5ffd5b506104556004803603810190610450919061495f565b611bd5565b005b610471600480360381019061046c9190614a10565b611cdf565b005b34801561047e575f5ffd5b5061049960048036038101906104949190614a99565b611e59565b005b7fffffffffffffffffffffffffffffffffffffffffffffffffffffffffffffffff81565b60045481565b60035f9054906101000a900473ffffffffffffffffffffffffffffffffffffffff1681565b6103e881565b6104f8611edd565b806004819055507fc7e29c44236bfea8bef0d337e382f5f27ec5bc4d425d82437f115f9b59d2ba798160405161052e91906144e6565b60405180910390a150565b5f5f5f5f8673ffffffffffffffffffffffffffffffffffffffff16630dfe16816040518163ffffffff1660e01b8152600401602060405180830381865afa158015610586573d5f5f3e3d5ffd5b505050506040513d601f19601f820116820180604052508101906105aa9190614ad8565b90505f8773ffffffffffffffffffffffffffffffffffffffff1663d21220a76040518163ffffffff1660e01b8152600401602060405180830381865afa1580156105f6573d5f5f3e3d5ffd5b505050506040513d601f19601f8201168201806040525081019061061a9190614ad8565b90508173ffffffffffffffffffffffffffffffffffffffff168673ffffffffffffffffffffffffffffffffffffffff16148061068157508073ffffffffffffffffffffffffffffffffffffffff168673ffffffffffffffffffffffffffffffffffffffff16145b6106c0576040517f08c379a00000000000000000000000000000000000000000000000000000000081526004016106b790614b5d565b60405180910390fd5b5f5f8973ffffffffffffffffffffffffffffffffffffffff16630902f1ac6040518163ffffffff1660e01b8152600401606060405180830381865afa15801561070b573d5f5f3e3d5ffd5b505050506040513d601f19601f8201168201806040525081019061072f9190614bf7565b506dffffffffffffffffffffffffffff1691506dffffffffffffffffffffffffffff1691508773ffffffffffffffffffffffffffffffffffffffff168373ffffffffffffffffffffffffffffffffffffffff16036108c2575f8a73ffffffffffffffffffffffffffffffffffffffff166318160ddd6040518163ffffffff1660e01b8152600401602060405180830381865afa1580156107d1573d5f5f3e3d5ffd5b505050506040513d601f19601f820116820180604052508101906107f59190614c5b565b838b6108019190614cb3565b61080b9190614d21565b9050610818818484611f64565b975060035f9054906101000a900473ffffffffffffffffffffffffffffffffffffffff1673ffffffffffffffffffffffffffffffffffffffff1663054d50d48985856040518463ffffffff1660e01b815260040161087893929190614d51565b602060405180830381865afa158015610893573d5f5f3e3d5ffd5b505050506040513d601f19601f820116820180604052508101906108b79190614c5b565b9650849550506109f9565b5f8a73ffffffffffffffffffffffffffffffffffffffff166318160ddd6040518163ffffffff1660e01b8152600401602060405180830381865afa15801561090c573d5f5f3e3d5ffd5b505050506040513d601f19601f820116820180604052508101906109309190614c5b565b828b61093c9190614cb3565b6109469190614d21565b9050610953818385611f64565b975060035f9054906101000a900473ffffffffffffffffffffffffffffffffffffffff1673ffffffffffffffffffffffffffffffffffffffff1663054d50d48984866040518463ffffffff1660e01b81526004016109b393929190614d51565b602060405180830381865afa1580156109ce573d5f5f3e3d5ffd5b505050506040513d601f19601f820116820180604052508101906109f29190614c5b565b9650839550505b5050505093509350939050565b5f5f5f5f8473ffffffffffffffffffffffffffffffffffffffff16630dfe16816040518163ffffffff1660e01b8152600401602060405180830381865afa158015610a53573d5f5f3e3d5ffd5b505050506040513d601f19601f82011682018060405250810190610a779190614ad8565b90505f8573ffffffffffffffffffffffffffffffffffffffff1663d21220a76040518163ffffffff1660e01b8152600401602060405180830381865afa158015610ac3573d5f5f3e3d5ffd5b505050506040513d601f19601f82011682018060405250810190610ae79190614ad8565b90508173ffffffffffffffffffffffffffffffffffffffff168873ffffffffffffffffffffffffffffffffffffffff161480610b4e57508073ffffffffffffffffffffffffffffffffffffffff168873ffffffffffffffffffffffffffffffffffffffff16145b610b8d576040517f08c379a0000000000000000000000000000000000000000000000000000000008152600401610b8490614dd0565b60405180910390fd5b5f5f8773ffffffffffffffffffffffffffffffffffffffff16630902f1ac6040518163ffffffff1660e01b8152600401606060405180830381865afa158015610bd8573d5f5f3e3d5ffd5b505050506040513d601f19601f82011682018060405250810190610bfc9190614bf7565b506dffffffffffffffffffffffffffff1691506dffffffffffffffffffffffffffff1691508973ffffffffffffffffffffffffffffffffffffffff168473ffffffffffffffffffffffffffffffffffffffff1603610d0857829450610c62898383611f64565b965060035f9054906101000a900473ffffffffffffffffffffffffffffffffffffffff1673ffffffffffffffffffffffffffffffffffffffff1663054d50d48884846040518463ffffffff1660e01b8152600401610cc293929190614d51565b602060405180830381865afa158015610cdd573d5f5f3e3d5ffd5b505050506040513d601f19601f82011682018060405250810190610d019190614c5b565b9550610db8565b839450610d16898284611f64565b965060035f9054906101000a900473ffffffffffffffffffffffffffffffffffffffff1673ffffffffffffffffffffffffffffffffffffffff1663054d50d48883856040518463ffffffff1660e01b8152600401610d7693929190614d51565b602060405180830381865afa158015610d91573d5f5f3e3d5ffd5b505050506040513d601f19601f82011682018060405250810190610db59190614c5b565b95505b5050505093509350939050565b610dcd611edd565b610df833828473ffffffffffffffffffffffffffffffffffffffff1661210c9092919063ffffffff16565b8173ffffffffffffffffffffffffffffffffffffffff167f74545154aac348a3eac92596bd1971957ca94795f4e954ec5f613b55fab7812982604051610e3e91906144e6565b60405180910390a25050565b610e5261218b565b60025f9054906101000a900473ffffffffffffffffffffffffffffffffffffffff1673ffffffffffffffffffffffffffffffffffffffff1663d0e30db0346040518263ffffffff1660e01b81526004015f604051808303818588803b158015610eb9575f5ffd5b505af1158015610ecb573d5f5f3e3d5ffd5b50505050505f610efe60065f9054906101000a900473ffffffffffffffffffffffffffffffffffffffff163485856121da565b90503373ffffffffffffffffffffffffffffffffffffffff168373ffffffffffffffffffffffffffffffffffffffff165f73ffffffffffffffffffffffffffffffffffffffff167fa71185a0ff368de4e9e445d8601c4fbd50d9b674e4e43f5f8feafb8d64a2e13e3485604051610f76929190614dee565b60405180910390a450610f876128ea565b5050565b610f9361218b565b610fc03384848673ffffffffffffffffffffffffffffffffffffffff166128f3909392919063ffffffff16565b5f610fed8460065f9054906101000a900473ffffffffffffffffffffffffffffffffffffffff1684612975565b905060025f9054906101000a900473ffffffffffffffffffffffffffffffffffffffff1673ffffffffffffffffffffffffffffffffffffffff16632e1a7d4d826040518263ffffffff1660e01b815260040161104991906144e6565b5f604051808303815f87803b158015611060575f5ffd5b505af1158015611072573d5f5f3e3d5ffd5b505050505f3373ffffffffffffffffffffffffffffffffffffffff16825f67ffffffffffffffff8111156110a9576110a8614e15565b5b6040519080825280601f01601f1916602001820160405280156110db5781602001600182028036833780820191505090505b506040516110e99190614e94565b5f6040518083038185875af1925050503d805f8114611123576040519150601f19603f3d011682016040523d82523d5f602084013e611128565b606091505b505090508061116c576040517f08c379a000000000000000000000000000000000000000000000000000000000815260040161116390614ef4565b60405180910390fd5b3373ffffffffffffffffffffffffffffffffffffffff165f73ffffffffffffffffffffffffffffffffffffffff168673ffffffffffffffffffffffffffffffffffffffff167f20ef8a4c975ec6c340089d8171a0f9c6a6324b11e3ecc4353155186f6c638c2887866040516111e2929190614dee565b60405180910390a450506111f46128ea565b505050565b611201611edd565b61120a5f612fa7565b565b5f5f5f8373ffffffffffffffffffffffffffffffffffffffff16630dfe16816040518163ffffffff1660e01b8152600401602060405180830381865afa158015611258573d5f5f3e3d5ffd5b505050506040513d601f19601f8201168201806040525081019061127c9190614ad8565b73ffffffffffffffffffffffffffffffffffffffff168873ffffffffffffffffffffffffffffffffffffffff16148061134c57508373ffffffffffffffffffffffffffffffffffffffff1663d21220a76040518163ffffffff1660e01b8152600401602060405180830381865afa1580156112f9573d5f5f3e3d5ffd5b505050506040513d601f19601f8201168201806040525081019061131d9190614ad8565b73ffffffffffffffffffffffffffffffffffffffff168873ffffffffffffffffffffffffffffffffffffffff16145b61138b576040517f08c379a000000000000000000000000000000000000000000000000000000000815260040161138290614f5c565b60405180910390fd5b8373ffffffffffffffffffffffffffffffffffffffff16630dfe16816040518163ffffffff1660e01b8152600401602060405180830381865afa1580156113d4573d5f5f3e3d5ffd5b505050506040513d601f19601f820116820180604052508101906113f89190614ad8565b73ffffffffffffffffffffffffffffffffffffffff168773ffffffffffffffffffffffffffffffffffffffff1614806114c857508373ffffffffffffffffffffffffffffffffffffffff1663d21220a76040518163ffffffff1660e01b8152600401602060405180830381865afa158015611475573d5f5f3e3d5ffd5b505050506040513d601f19601f820116820180604052508101906114999190614ad8565b73ffffffffffffffffffffffffffffffffffffffff168773ffffffffffffffffffffffffffffffffffffffff16145b611507576040517f08c379a00000000000000000000000000000000000000000000000000000000081526004016114fe90614fc4565b60405180910390fd5b8673ffffffffffffffffffffffffffffffffffffffff168873ffffffffffffffffffffffffffffffffffffffff1603611575576040517f08c379a000000000000000000000000000000000000000000000000000000000815260040161156c9061502c565b60405180910390fd5b5f5f8573ffffffffffffffffffffffffffffffffffffffff16630902f1ac6040518163ffffffff1660e01b8152600401606060405180830381865afa1580156115c0573d5f5f3e3d5ffd5b505050506040513d601f19601f820116820180604052508101906115e49190614bf7565b506dffffffffffffffffffffffffffff1691506dffffffffffffffffffffffffffff1691508573ffffffffffffffffffffffffffffffffffffffff16630dfe16816040518163ffffffff1660e01b8152600401602060405180830381865afa158015611652573d5f5f3e3d5ffd5b505050506040513d601f19601f820116820180604052508101906116769190614ad8565b73ffffffffffffffffffffffffffffffffffffffff168a73ffffffffffffffffffffffffffffffffffffffff160361182e5781876116b49190614cb3565b81896116c09190614cb3565b116116cb575f6116ce565b60015b92506116dd8888848487613068565b945082156117895760035f9054906101000a900473ffffffffffffffffffffffffffffffffffffffff1673ffffffffffffffffffffffffffffffffffffffff1663054d50d48684846040518463ffffffff1660e01b815260040161174393929190614d51565b602060405180830381865afa15801561175e573d5f5f3e3d5ffd5b505050506040513d601f19601f820116820180604052508101906117829190614c5b565b9350611829565b60035f9054906101000a900473ffffffffffffffffffffffffffffffffffffffff1673ffffffffffffffffffffffffffffffffffffffff1663054d50d48683856040518463ffffffff1660e01b81526004016117e793929190614d51565b602060405180830381865afa158015611802573d5f5f3e3d5ffd5b505050506040513d601f19601f820116820180604052508101906118269190614c5b565b93505b6119b0565b808761183a9190614cb3565b82896118469190614cb3565b11611851575f611854565b60015b92506118638888838587613068565b9450821561190f5760035f9054906101000a900473ffffffffffffffffffffffffffffffffffffffff1673ffffffffffffffffffffffffffffffffffffffff1663054d50d48683856040518463ffffffff1660e01b81526004016118c993929190614d51565b602060405180830381865afa1580156118e4573d5f5f3e3d5ffd5b505050506040513d601f19601f820116820180604052508101906119089190614c5b565b93506119af565b60035f9054906101000a900473ffffffffffffffffffffffffffffffffffffffff1673ffffffffffffffffffffffffffffffffffffffff1663054d50d48684846040518463ffffffff1660e01b815260040161196d93929190614d51565b602060405180830381865afa158015611988573d5f5f3e3d5ffd5b505050506040513d601f19601f820116820180604052508101906119ac9190614c5b565b93505b5b5050955095509592505050565b6119c561218b565b6119f23385848773ffffffffffffffffffffffffffffffffffffffff166128f3909392919063ffffffff16565b5f6119fe858584612975565b9050611a2b33828673ffffffffffffffffffffffffffffffffffffffff1661210c9092919063ffffffff16565b3373ffffffffffffffffffffffffffffffffffffffff168473ffffffffffffffffffffffffffffffffffffffff168673ffffffffffffffffffffffffffffffffffffffff167f20ef8a4c975ec6c340089d8171a0f9c6a6324b11e3ecc4353155186f6c638c288685604051611aa1929190614dee565b60405180910390a450611ab26128ea565b50505050565b611ac061218b565b611aed3330858773ffffffffffffffffffffffffffffffffffffffff166128f3909392919063ffffffff16565b5f611afa858585856121da565b90503373ffffffffffffffffffffffffffffffffffffffff168373ffffffffffffffffffffffffffffffffffffffff168673ffffffffffffffffffffffffffffffffffffffff167fa71185a0ff368de4e9e445d8601c4fbd50d9b674e4e43f5f8feafb8d64a2e13e8785604051611b72929190614dee565b60405180910390a450611b836128ea565b50505050565b5f5f5f9054906101000a900473ffffffffffffffffffffffffffffffffffffffff16905090565b60025f9054906101000a900473ffffffffffffffffffffffffffffffffffffffff1681565b611bdd61218b565b611c0a3330888b73ffffffffffffffffffffffffffffffffffffffff166128f3909392919063ffffffff16565b611c373330878a73ffffffffffffffffffffffffffffffffffffffff166128f3909392919063ffffffff16565b5f611c488989898989898989613514565b90503373ffffffffffffffffffffffffffffffffffffffff168873ffffffffffffffffffffffffffffffffffffffff168a73ffffffffffffffffffffffffffffffffffffffff167f4ff29158e89c3af93365bf0fa1d14c5768109fb139f24b97c8a7d510b2d5e3f6888b8b87604051611cc4949392919061504a565b60405180910390a450611cd56128ea565b5050505050505050565b611ce761218b565b60025f9054906101000a900473ffffffffffffffffffffffffffffffffffffffff1673ffffffffffffffffffffffffffffffffffffffff1663d0e30db0346040518263ffffffff1660e01b81526004015f604051808303818588803b158015611d4e575f5ffd5b505af1158015611d60573d5f5f3e3d5ffd5b5050505050611d923330878973ffffffffffffffffffffffffffffffffffffffff166128f3909392919063ffffffff16565b5f611dc460065f9054906101000a900473ffffffffffffffffffffffffffffffffffffffff1688348989898989613514565b90503373ffffffffffffffffffffffffffffffffffffffff168773ffffffffffffffffffffffffffffffffffffffff165f73ffffffffffffffffffffffffffffffffffffffff167f4ff29158e89c3af93365bf0fa1d14c5768109fb139f24b97c8a7d510b2d5e3f688348b87604051611e40949392919061504a565b60405180910390a450611e516128ea565b505050505050565b611e61611edd565b5f73ffffffffffffffffffffffffffffffffffffffff168173ffffffffffffffffffffffffffffffffffffffff1603611ed1575f6040517f1e4fbdf7000000000000000000000000000000000000000000000000000000008152600401611ec891906148e3565b60405180910390fd5b611eda81612fa7565b50565b611ee5613fe9565b73ffffffffffffffffffffffffffffffffffffffff16611f03611b89565b73ffffffffffffffffffffffffffffffffffffffff1614611f6257611f26613fe9565b6040517f118cdaa7000000000000000000000000000000000000000000000000000000008152600401611f5991906148e3565b60405180910390fd5b565b5f5f600285611f739190614d21565b90505f60035f9054906101000a900473ffffffffffffffffffffffffffffffffffffffff1673ffffffffffffffffffffffffffffffffffffffff1663054d50d48387876040518463ffffffff1660e01b8152600401611fd493929190614d51565b602060405180830381865afa158015611fef573d5f5f3e3d5ffd5b505050506040513d601f19601f820116820180604052508101906120139190614c5b565b90505f60035f9054906101000a900473ffffffffffffffffffffffffffffffffffffffff1673ffffffffffffffffffffffffffffffffffffffff1663ad615dec848589612060919061508d565b858961206c91906150c0565b6040518463ffffffff1660e01b815260040161208a93929190614d51565b602060405180830381865afa1580156120a5573d5f5f3e3d5ffd5b505050506040513d601f19601f820116820180604052508101906120c99190614c5b565b90506120f5818385866120dc9190614cb3565b6120e69190614cb3565b6120f09190614d21565b613ff0565b8761210091906150c0565b93505050509392505050565b612186838473ffffffffffffffffffffffffffffffffffffffff1663a9059cbb858560405160240161213f9291906150f3565b604051602081830303815290604052915060e01b6020820180517bffffffffffffffffffffffffffffffffffffffffffffffffffffffff83818316178352505050506141b6565b505050565b6002600154036121d0576040517f08c379a00000000000000000000000000000000000000000000000000000000081526004016121c790615164565b60405180910390fd5b6002600181905550565b5f6103e8841015612220576040517f08c379a0000000000000000000000000000000000000000000000000000000008152600401612217906151cc565b60405180910390fd5b5f8373ffffffffffffffffffffffffffffffffffffffff16630dfe16816040518163ffffffff1660e01b8152600401602060405180830381865afa15801561226a573d5f5f3e3d5ffd5b505050506040513d601f19601f8201168201806040525081019061228e9190614ad8565b90505f8473ffffffffffffffffffffffffffffffffffffffff1663d21220a76040518163ffffffff1660e01b8152600401602060405180830381865afa1580156122da573d5f5f3e3d5ffd5b505050506040513d601f19601f820116820180604052508101906122fe9190614ad8565b90508173ffffffffffffffffffffffffffffffffffffffff168773ffffffffffffffffffffffffffffffffffffffff16148061236557508073ffffffffffffffffffffffffffffffffffffffff168773ffffffffffffffffffffffffffffffffffffffff16145b6123a4576040517f08c379a000000000000000000000000000000000000000000000000000000000815260040161239b90614dd0565b60405180910390fd5b5f600267ffffffffffffffff8111156123c0576123bf614e15565b5b6040519080825280602002602001820160405280156123ee5781602001602082028036833780820191505090505b50905087815f81518110612405576124046151ea565b5b602002602001019073ffffffffffffffffffffffffffffffffffffffff16908173ffffffffffffffffffffffffffffffffffffffff16815250505f5f5f8873ffffffffffffffffffffffffffffffffffffffff16630902f1ac6040518163ffffffff1660e01b8152600401606060405180830381865afa15801561248b573d5f5f3e3d5ffd5b505050506040513d601f19601f820116820180604052508101906124af9190614bf7565b506dffffffffffffffffffffffffffff1691506dffffffffffffffffffffffffffff1691506103e882101580156124e857506103e88110155b612527576040517f08c379a000000000000000000000000000000000000000000000000000000000815260040161251e90615261565b60405180910390fd5b8a73ffffffffffffffffffffffffffffffffffffffff168673ffffffffffffffffffffffffffffffffffffffff160361260b576125658a8383611f64565b9250848460018151811061257c5761257b6151ea565b5b602002602001019073ffffffffffffffffffffffffffffffffffffffff16908173ffffffffffffffffffffffffffffffffffffffff168152505060045483836125c59190614d21565b1015612606576040517f08c379a00000000000000000000000000000000000000000000000000000000081526004016125fd906152c9565b60405180910390fd5b6126b8565b6126168a8284611f64565b9250858460018151811061262d5761262c6151ea565b5b602002602001019073ffffffffffffffffffffffffffffffffffffffff16908173ffffffffffffffffffffffffffffffffffffffff168152505060045483826126769190614d21565b10156126b7576040517f08c379a00000000000000000000000000000000000000000000000000000000081526004016126ae906152c9565b60405180910390fd5b5b50506126c38961424b565b5f60035f9054906101000a900473ffffffffffffffffffffffffffffffffffffffff1673ffffffffffffffffffffffffffffffffffffffff166338ed173983898630426040518663ffffffff1660e01b815260040161272695949392919061539e565b5f604051808303815f875af1158015612741573d5f5f3e3d5ffd5b505050506040513d5f823e3d601f19601f820116820180604052508101906127699190615519565b90508973ffffffffffffffffffffffffffffffffffffffff168573ffffffffffffffffffffffffffffffffffffffff16036127ac576127a78461424b565b6127b6565b6127b58561424b565b5b60035f9054906101000a900473ffffffffffffffffffffffffffffffffffffffff1673ffffffffffffffffffffffffffffffffffffffff1663e8e33700845f81518110612806576128056151ea565b5b602002602001015185600181518110612822576128216151ea565b5b6020026020010151845f8151811061283d5761283c6151ea565b5b60200260200101518d61285091906150c0565b85600181518110612864576128636151ea565b5b602002602001015160018033426040518963ffffffff1660e01b8152600401612894989796959493929190615599565b6060604051808303815f875af11580156128b0573d5f5f3e3d5ffd5b505050506040513d601f19601f820116820180604052508101906128d49190615615565b9091509050809650505050505050949350505050565b60018081905550565b61296f848573ffffffffffffffffffffffffffffffffffffffff166323b872dd86868660405160240161292893929190615665565b604051602081830303815290604052915060e01b6020820180517bffffffffffffffffffffffffffffffffffffffffffffffffffffffff83818316178352505050506141b6565b50505050565b5f5f8473ffffffffffffffffffffffffffffffffffffffff16630dfe16816040518163ffffffff1660e01b8152600401602060405180830381865afa1580156129c0573d5f5f3e3d5ffd5b505050506040513d601f19601f820116820180604052508101906129e49190614ad8565b90505f8573ffffffffffffffffffffffffffffffffffffffff1663d21220a76040518163ffffffff1660e01b8152600401602060405180830381865afa158015612a30573d5f5f3e3d5ffd5b505050506040513d601f19601f82011682018060405250810190612a549190614ad8565b90508173ffffffffffffffffffffffffffffffffffffffff168573ffffffffffffffffffffffffffffffffffffffff161480612abb57508073ffffffffffffffffffffffffffffffffffffffff168573ffffffffffffffffffffffffffffffffffffffff16145b612afa576040517f08c379a0000000000000000000000000000000000000000000000000000000008152600401612af190614b5d565b60405180910390fd5b5f5f8773ffffffffffffffffffffffffffffffffffffffff166389afcb44306040518263ffffffff1660e01b8152600401612b3591906148e3565b60408051808303815f875af1158015612b50573d5f5f3e3d5ffd5b505050506040513d601f19601f82011682018060405250810190612b74919061569a565b915091506103e8821015612bbd576040517f08c379a0000000000000000000000000000000000000000000000000000000008152600401612bb490615748565b60405180910390fd5b6103e8811015612c02576040517f08c379a0000000000000000000000000000000000000000000000000000000008152600401612bf9906157d6565b60405180910390fd5b5f600267ffffffffffffffff811115612c1e57612c1d614e15565b5b604051908082528060200260200182016040528015612c4c5781602001602082028036833780820191505090505b5090508781600181518110612c6457612c636151ea565b5b602002602001019073ffffffffffffffffffffffffffffffffffffffff16908173ffffffffffffffffffffffffffffffffffffffff16815250505f8873ffffffffffffffffffffffffffffffffffffffff168673ffffffffffffffffffffffffffffffffffffffff1603612da85784825f81518110612ce657612ce56151ea565b5b602002602001019073ffffffffffffffffffffffffffffffffffffffff16908173ffffffffffffffffffffffffffffffffffffffff16815250508473ffffffffffffffffffffffffffffffffffffffff166370a08231306040518263ffffffff1660e01b8152600401612d5991906148e3565b602060405180830381865afa158015612d74573d5f5f3e3d5ffd5b505050506040513d601f19601f82011682018060405250810190612d989190614c5b565b9050612da38561424b565b612e7a565b85825f81518110612dbc57612dbb6151ea565b5b602002602001019073ffffffffffffffffffffffffffffffffffffffff16908173ffffffffffffffffffffffffffffffffffffffff16815250508573ffffffffffffffffffffffffffffffffffffffff166370a08231306040518263ffffffff1660e01b8152600401612e2f91906148e3565b602060405180830381865afa158015612e4a573d5f5f3e3d5ffd5b505050506040513d601f19601f82011682018060405250810190612e6e9190614c5b565b9050612e798661424b565b5b60035f9054906101000a900473ffffffffffffffffffffffffffffffffffffffff1673ffffffffffffffffffffffffffffffffffffffff166338ed1739828a8530426040518663ffffffff1660e01b8152600401612edc95949392919061539e565b5f604051808303815f875af1158015612ef7573d5f5f3e3d5ffd5b505050506040513d5f823e3d601f19601f82011682018060405250810190612f1f9190615519565b508873ffffffffffffffffffffffffffffffffffffffff166370a08231306040518263ffffffff1660e01b8152600401612f5991906148e3565b602060405180830381865afa158015612f74573d5f5f3e3d5ffd5b505050506040513d601f19601f82011682018060405250810190612f989190614c5b565b96505050505050509392505050565b5f5f5f9054906101000a900473ffffffffffffffffffffffffffffffffffffffff169050815f5f6101000a81548173ffffffffffffffffffffffffffffffffffffffff021916908373ffffffffffffffffffffffffffffffffffffffff1602179055508173ffffffffffffffffffffffffffffffffffffffff168173ffffffffffffffffffffffffffffffffffffffff167f8be0079c531659141344cd1fd0a4f28419497f9722a3daafe3b4186f6b6457e060405160405180910390a35050565b5f5f84866130769190614cb3565b84886130829190614cb3565b1161308d575f613090565b60015b9050821515811515146130d8576040517f08c379a00000000000000000000000000000000000000000000000000000000081526004016130cf9061583e565b60405180910390fd5b80156132f6575f60028587896130ee9190614cb3565b6130f89190614d21565b8961310391906150c0565b61310d9190614d21565b90505f60035f9054906101000a900473ffffffffffffffffffffffffffffffffffffffff1673ffffffffffffffffffffffffffffffffffffffff1663054d50d48389896040518463ffffffff1660e01b815260040161316e93929190614d51565b602060405180830381865afa158015613189573d5f5f3e3d5ffd5b505050506040513d601f19601f820116820180604052508101906131ad9190614c5b565b90505f60035f9054906101000a900473ffffffffffffffffffffffffffffffffffffffff1673ffffffffffffffffffffffffffffffffffffffff1663ad615dec84858b6131fa919061508d565b858b61320691906150c0565b6040518463ffffffff1660e01b815260040161322493929190614d51565b602060405180830381865afa15801561323f573d5f5f3e3d5ffd5b505050506040513d601f19601f820116820180604052508101906132639190614c5b565b90506002828861327391906150c0565b848a61327f919061508d565b8b61328a9190614cb3565b6132949190614d21565b8b61329f91906150c0565b6132a99190614d21565b92506132d5818385866132bc9190614cb3565b6132c69190614cb3565b6132d09190614d21565b613ff0565b8360026132e29190614cb3565b6132ec91906150c0565b945050505061350a565b5f600286868a6133069190614cb3565b6133109190614d21565b8861331b91906150c0565b6133259190614d21565b90505f60035f9054906101000a900473ffffffffffffffffffffffffffffffffffffffff1673ffffffffffffffffffffffffffffffffffffffff1663054d50d483888a6040518463ffffffff1660e01b815260040161338693929190614d51565b602060405180830381865afa1580156133a1573d5f5f3e3d5ffd5b505050506040513d601f19601f820116820180604052508101906133c59190614c5b565b90505f60035f9054906101000a900473ffffffffffffffffffffffffffffffffffffffff1673ffffffffffffffffffffffffffffffffffffffff1663ad615dec84858a613412919061508d565b858c61341e91906150c0565b6040518463ffffffff1660e01b815260040161343c93929190614d51565b602060405180830381865afa158015613457573d5f5f3e3d5ffd5b505050506040513d601f19601f8201168201806040525081019061347b9190614c5b565b90506002828961348b91906150c0565b8489613497919061508d565b8c6134a29190614cb3565b6134ac9190614d21565b8a6134b791906150c0565b6134c19190614d21565b92506134ed818385866134d49190614cb3565b6134de9190614cb3565b6134e89190614d21565b613ff0565b8360026134fa9190614cb3565b61350491906150c0565b94505050505b5095945050505050565b5f8473ffffffffffffffffffffffffffffffffffffffff16630dfe16816040518163ffffffff1660e01b8152600401602060405180830381865afa15801561355e573d5f5f3e3d5ffd5b505050506040513d601f19601f820116820180604052508101906135829190614ad8565b73ffffffffffffffffffffffffffffffffffffffff168973ffffffffffffffffffffffffffffffffffffffff16148061365257508473ffffffffffffffffffffffffffffffffffffffff1663d21220a76040518163ffffffff1660e01b8152600401602060405180830381865afa1580156135ff573d5f5f3e3d5ffd5b505050506040513d601f19601f820116820180604052508101906136239190614ad8565b73ffffffffffffffffffffffffffffffffffffffff168973ffffffffffffffffffffffffffffffffffffffff16145b613691576040517f08c379a000000000000000000000000000000000000000000000000000000000815260040161368890614f5c565b60405180910390fd5b8473ffffffffffffffffffffffffffffffffffffffff16630dfe16816040518163ffffffff1660e01b8152600401602060405180830381865afa1580156136da573d5f5f3e3d5ffd5b505050506040513d601f19601f820116820180604052508101906136fe9190614ad8565b73ffffffffffffffffffffffffffffffffffffffff168873ffffffffffffffffffffffffffffffffffffffff1614806137ce57508473ffffffffffffffffffffffffffffffffffffffff1663d21220a76040518163ffffffff1660e01b8152600401602060405180830381865afa15801561377b573d5f5f3e3d5ffd5b505050506040513d601f19601f8201168201806040525081019061379f9190614ad8565b73ffffffffffffffffffffffffffffffffffffffff168873ffffffffffffffffffffffffffffffffffffffff16145b61380d576040517f08c379a000000000000000000000000000000000000000000000000000000000815260040161380490614fc4565b60405180910390fd5b8773ffffffffffffffffffffffffffffffffffffffff168973ffffffffffffffffffffffffffffffffffffffff160361387b576040517f08c379a00000000000000000000000000000000000000000000000000000000081526004016138729061502c565b60405180910390fd5b5f5f5f8773ffffffffffffffffffffffffffffffffffffffff16630902f1ac6040518163ffffffff1660e01b8152600401606060405180830381865afa1580156138c7573d5f5f3e3d5ffd5b505050506040513d601f19601f820116820180604052508101906138eb9190614bf7565b506dffffffffffffffffffffffffffff1691506dffffffffffffffffffffffffffff1691506103e8821015801561392457506103e88110155b613963576040517f08c379a000000000000000000000000000000000000000000000000000000000815260040161395a90615261565b60405180910390fd5b8773ffffffffffffffffffffffffffffffffffffffff16630dfe16816040518163ffffffff1660e01b8152600401602060405180830381865afa1580156139ac573d5f5f3e3d5ffd5b505050506040513d601f19601f820116820180604052508101906139d09190614ad8565b73ffffffffffffffffffffffffffffffffffffffff168c73ffffffffffffffffffffffffffffffffffffffff1603613a6657613a0f8a8a848489613068565b92506004548383613a209190614d21565b1015613a61576040517f08c379a0000000000000000000000000000000000000000000000000000000008152600401613a58906152c9565b60405180910390fd5b613ac6565b613a738a8a838589613068565b92506004548382613a849190614d21565b1015613ac5576040517f08c379a0000000000000000000000000000000000000000000000000000000008152600401613abc906152c9565b60405180910390fd5b5b505084811115613b0b576040517f08c379a0000000000000000000000000000000000000000000000000000000008152600401613b02906158a6565b60405180910390fd5b5f600267ffffffffffffffff811115613b2757613b26614e15565b5b604051908082528060200260200182016040528015613b555781602001602082028036833780820191505090505b5090508315613c09578a815f81518110613b7257613b716151ea565b5b602002602001019073ffffffffffffffffffffffffffffffffffffffff16908173ffffffffffffffffffffffffffffffffffffffff16815250508981600181518110613bc157613bc06151ea565b5b602002602001019073ffffffffffffffffffffffffffffffffffffffff16908173ffffffffffffffffffffffffffffffffffffffff1681525050613c048b61424b565b613cb0565b89815f81518110613c1d57613c1c6151ea565b5b602002602001019073ffffffffffffffffffffffffffffffffffffffff16908173ffffffffffffffffffffffffffffffffffffffff16815250508a81600181518110613c6c57613c6b6151ea565b5b602002602001019073ffffffffffffffffffffffffffffffffffffffff16908173ffffffffffffffffffffffffffffffffffffffff1681525050613caf8a61424b565b5b5f60035f9054906101000a900473ffffffffffffffffffffffffffffffffffffffff1673ffffffffffffffffffffffffffffffffffffffff166338ed173984888530426040518663ffffffff1660e01b8152600401613d1395949392919061539e565b5f604051808303815f875af1158015613d2e573d5f5f3e3d5ffd5b505050506040513d5f823e3d601f19601f82011682018060405250810190613d569190615519565b90508415613e9e57613d678b61424b565b60035f9054906101000a900473ffffffffffffffffffffffffffffffffffffffff1673ffffffffffffffffffffffffffffffffffffffff1663e8e33700835f81518110613db757613db66151ea565b5b602002602001015184600181518110613dd357613dd26151ea565b5b6020026020010151845f81518110613dee57613ded6151ea565b5b60200260200101518e613e0191906150c0565b85600181518110613e1557613e146151ea565b5b60200260200101518e613e28919061508d565b60018033426040518963ffffffff1660e01b8152600401613e50989796959493929190615599565b6060604051808303815f875af1158015613e6c573d5f5f3e3d5ffd5b505050506040513d601f19601f82011682018060405250810190613e909190615615565b909150905080945050613fda565b613ea78c61424b565b60035f9054906101000a900473ffffffffffffffffffffffffffffffffffffffff1673ffffffffffffffffffffffffffffffffffffffff1663e8e33700835f81518110613ef757613ef66151ea565b5b602002602001015184600181518110613f1357613f126151ea565b5b6020026020010151845f81518110613f2e57613f2d6151ea565b5b60200260200101518d613f4191906150c0565b85600181518110613f5557613f546151ea565b5b60200260200101518f613f68919061508d565b60018033426040518963ffffffff1660e01b8152600401613f90989796959493929190615599565b6060604051808303815f875af1158015613fac573d5f5f3e3d5ffd5b505050506040513d601f19601f82011682018060405250810190613fd09190615615565b9091509050809450505b50505098975050505050505050565b5f33905090565b5f5f8203614000575f90506141b1565b5f8290505f60019050700100000000000000000000000000000000821061403057608082901c9150604081901b90505b68010000000000000000821061404f57604082901c9150602081901b90505b640100000000821061406a57602082901c9150601081901b90505b62010000821061408357601082901c9150600881901b90505b610100821061409b57600882901c9150600481901b90505b601082106140b257600482901c9150600281901b90505b600882106140c257600181901b90505b600181856140d09190614d21565b826140db919061508d565b901c9050600181856140ed9190614d21565b826140f8919061508d565b901c90506001818561410a9190614d21565b82614115919061508d565b901c9050600181856141279190614d21565b82614132919061508d565b901c9050600181856141449190614d21565b8261414f919061508d565b901c9050600181856141619190614d21565b8261416c919061508d565b901c90506001818561417e9190614d21565b82614189919061508d565b901c90505f818561419a9190614d21565b90508082106141a957806141ab565b815b93505050505b919050565b5f6141e0828473ffffffffffffffffffffffffffffffffffffffff166142f290919063ffffffff16565b90505f81511415801561420457508080602001905181019061420291906158d8565b155b1561424657826040517f5274afe700000000000000000000000000000000000000000000000000000000815260040161423d91906148e3565b60405180910390fd5b505050565b5f8190505f8173ffffffffffffffffffffffffffffffffffffffff1663dd62ed3e3060055f9054906101000a900473ffffffffffffffffffffffffffffffffffffffff166040518363ffffffff1660e01b81526004016142ac929190615903565b602060405180830381865afa1580156142c7573d5f5f3e3d5ffd5b505050506040513d601f19601f820116820180604052508101906142eb9190614c5b565b9050505050565b60606142ff83835f614307565b905092915050565b60608147101561434e57306040517fcd78605900000000000000000000000000000000000000000000000000000000815260040161434591906148e3565b60405180910390fd5b5f5f8573ffffffffffffffffffffffffffffffffffffffff1684866040516143769190614e94565b5f6040518083038185875af1925050503d805f81146143b0576040519150601f19603f3d011682016040523d82523d5f602084013e6143b5565b606091505b50915091506143c58683836143d0565b925050509392505050565b6060826143e5576143e08261445d565b614455565b5f825114801561440b57505f8473ffffffffffffffffffffffffffffffffffffffff163b145b1561444d57836040517f9996b31500000000000000000000000000000000000000000000000000000000815260040161444491906148e3565b60405180910390fd5b819050614456565b5b9392505050565b5f8151111561446f5780518082602001fd5b6040517f1425ea4200000000000000000000000000000000000000000000000000000000815260040160405180910390fd5b7f4e487b71000000000000000000000000000000000000000000000000000000005f52600160045260245ffd5b5f819050919050565b6144e0816144ce565b82525050565b5f6020820190506144f95f8301846144d7565b92915050565b5f73ffffffffffffffffffffffffffffffffffffffff82169050919050565b5f819050919050565b5f61454161453c614537846144ff565b61451e565b6144ff565b9050919050565b5f61455282614527565b9050919050565b5f61456382614548565b9050919050565b61457381614559565b82525050565b5f60208201905061458c5f83018461456a565b92915050565b5f604051905090565b5f5ffd5b5f5ffd5b6145ac816144ce565b81146145b6575f5ffd5b50565b5f813590506145c7816145a3565b92915050565b5f602082840312156145e2576145e161459b565b5b5f6145ef848285016145b9565b91505092915050565b5f614602826144ff565b9050919050565b614612816145f8565b811461461c575f5ffd5b50565b5f8135905061462d81614609565b92915050565b5f5f5f6060848603121561464a5761464961459b565b5b5f6146578682870161461f565b9350506020614668868287016145b9565b92505060406146798682870161461f565b9150509250925092565b61468c816145f8565b82525050565b5f6060820190506146a55f8301866144d7565b6146b260208301856144d7565b6146bf6040830184614683565b949350505050565b5f5f604083850312156146dd576146dc61459b565b5b5f6146ea8582860161461f565b92505060206146fb858286016145b9565b9150509250929050565b5f5f5f6060848603121561471c5761471b61459b565b5b5f6147298682870161461f565b935050602061473a868287016145b9565b925050604061474b868287016145b9565b9150509250925092565b5f5f5f5f5f60a0868803121561476e5761476d61459b565b5b5f61477b8882890161461f565b955050602061478c8882890161461f565b945050604061479d888289016145b9565b93505060606147ae888289016145b9565b92505060806147bf8882890161461f565b9150509295509295909350565b5f8115159050919050565b6147e0816147cc565b82525050565b5f6060820190506147f95f8301866144d7565b61480660208301856144d7565b61481360408301846147d7565b949350505050565b5f5f5f5f608085870312156148335761483261459b565b5b5f6148408782880161461f565b94505060206148518782880161461f565b9350506040614862878288016145b9565b9250506060614873878288016145b9565b91505092959194509250565b5f5f5f5f608085870312156148975761489661459b565b5b5f6148a48782880161461f565b94505060206148b5878288016145b9565b93505060406148c68782880161461f565b92505060606148d7878288016145b9565b91505092959194509250565b5f6020820190506148f65f830184614683565b92915050565b5f61490682614548565b9050919050565b614916816148fc565b82525050565b5f60208201905061492f5f83018461490d565b92915050565b61493e816147cc565b8114614948575f5ffd5b50565b5f8135905061495981614935565b92915050565b5f5f5f5f5f5f5f5f610100898b03121561497c5761497b61459b565b5b5f6149898b828c0161461f565b985050602061499a8b828c0161461f565b97505060406149ab8b828c016145b9565b96505060606149bc8b828c016145b9565b95505060806149cd8b828c0161461f565b94505060a06149de8b828c016145b9565b93505060c06149ef8b828c016145b9565b92505060e0614a008b828c0161494b565b9150509295985092959890939650565b5f5f5f5f5f5f60c08789031215614a2a57614a2961459b565b5b5f614a3789828a0161461f565b9650506020614a4889828a016145b9565b9550506040614a5989828a0161461f565b9450506060614a6a89828a016145b9565b9350506080614a7b89828a016145b9565b92505060a0614a8c89828a0161494b565b9150509295509295509295565b5f60208284031215614aae57614aad61459b565b5b5f614abb8482850161461f565b91505092915050565b5f81519050614ad281614609565b92915050565b5f60208284031215614aed57614aec61459b565b5b5f614afa84828501614ac4565b91505092915050565b5f82825260208201905092915050565b7f5a61703a20546f6b656e206e6f7420696e204c500000000000000000000000005f82015250565b5f614b47601483614b03565b9150614b5282614b13565b602082019050919050565b5f6020820190508181035f830152614b7481614b3b565b9050919050565b5f6dffffffffffffffffffffffffffff82169050919050565b614b9d81614b7b565b8114614ba7575f5ffd5b50565b5f81519050614bb881614b94565b92915050565b5f63ffffffff82169050919050565b614bd681614bbe565b8114614be0575f5ffd5b50565b5f81519050614bf181614bcd565b92915050565b5f5f5f60608486031215614c0e57614c0d61459b565b5b5f614c1b86828701614baa565b9350506020614c2c86828701614baa565b9250506040614c3d86828701614be3565b9150509250925092565b5f81519050614c55816145a3565b92915050565b5f60208284031215614c7057614c6f61459b565b5b5f614c7d84828501614c47565b91505092915050565b7f4e487b71000000000000000000000000000000000000000000000000000000005f52601160045260245ffd5b5f614cbd826144ce565b9150614cc8836144ce565b9250828202614cd6816144ce565b91508282048414831517614ced57614cec614c86565b5b5092915050565b7f4e487b71000000000000000000000000000000000000000000000000000000005f52601260045260245ffd5b5f614d2b826144ce565b9150614d36836144ce565b925082614d4657614d45614cf4565b5b828204905092915050565b5f606082019050614d645f8301866144d7565b614d7160208301856144d7565b614d7e60408301846144d7565b949350505050565b7f5a61703a2057726f6e6720746f6b656e730000000000000000000000000000005f82015250565b5f614dba601183614b03565b9150614dc582614d86565b602082019050919050565b5f6020820190508181035f830152614de781614dae565b9050919050565b5f604082019050614e015f8301856144d7565b614e0e60208301846144d7565b9392505050565b7f4e487b71000000000000000000000000000000000000000000000000000000005f52604160045260245ffd5b5f81519050919050565b5f81905092915050565b8281835e5f83830152505050565b5f614e6e82614e42565b614e788185614e4c565b9350614e88818560208601614e56565b80840191505092915050565b5f614e9f8284614e64565b915081905092915050565b7f424e423a207472616e73666572206661696c00000000000000000000000000005f82015250565b5f614ede601283614b03565b9150614ee982614eaa565b602082019050919050565b5f6020820190508181035f830152614f0b81614ed2565b9050919050565b7f5a61703a2057726f6e6720746f6b656e300000000000000000000000000000005f82015250565b5f614f46601183614b03565b9150614f5182614f12565b602082019050919050565b5f6020820190508181035f830152614f7381614f3a565b9050919050565b7f5a61703a2057726f6e6720746f6b656e310000000000000000000000000000005f82015250565b5f614fae601183614b03565b9150614fb982614f7a565b602082019050919050565b5f6020820190508181035f830152614fdb81614fa2565b9050919050565b7f5a61703a2053616d6520746f6b656e73000000000000000000000000000000005f82015250565b5f615016601083614b03565b915061502182614fe2565b602082019050919050565b5f6020820190508181035f8301526150438161500a565b9050919050565b5f60808201905061505d5f830187614683565b61506a60208301866144d7565b61507760408301856144d7565b61508460608301846144d7565b95945050505050565b5f615097826144ce565b91506150a2836144ce565b92508282019050808211156150ba576150b9614c86565b5b92915050565b5f6150ca826144ce565b91506150d5836144ce565b92508282039050818111156150ed576150ec614c86565b5b92915050565b5f6040820190506151065f830185614683565b61511360208301846144d7565b9392505050565b7f5265656e7472616e637947756172643a207265656e7472616e742063616c6c005f82015250565b5f61514e601f83614b03565b91506151598261511a565b602082019050919050565b5f6020820190508181035f83015261517b81615142565b9050919050565b7f5a61703a20416d6f756e7420746f6f206c6f77000000000000000000000000005f82015250565b5f6151b6601383614b03565b91506151c182615182565b602082019050919050565b5f6020820190508181035f8301526151e3816151aa565b9050919050565b7f4e487b71000000000000000000000000000000000000000000000000000000005f52603260045260245ffd5b7f5a61703a20526573657276657320746f6f206c6f7700000000000000000000005f82015250565b5f61524b601583614b03565b915061525682615217565b602082019050919050565b5f6020820190508181035f8301526152788161523f565b9050919050565b7f5a61703a205175616e7469747920686967686572207468616e206c696d6974005f82015250565b5f6152b3601f83614b03565b91506152be8261527f565b602082019050919050565b5f6020820190508181035f8301526152e0816152a7565b9050919050565b5f81519050919050565b5f82825260208201905092915050565b5f819050602082019050919050565b615319816145f8565b82525050565b5f61532a8383615310565b60208301905092915050565b5f602082019050919050565b5f61534c826152e7565b61535681856152f1565b935061536183615301565b805f5b83811015615391578151615378888261531f565b975061538383615336565b925050600181019050615364565b5085935050505092915050565b5f60a0820190506153b15f8301886144d7565b6153be60208301876144d7565b81810360408301526153d08186615342565b90506153df6060830185614683565b6153ec60808301846144d7565b9695505050505050565b5f5ffd5b5f601f19601f8301169050919050565b615413826153fa565b810181811067ffffffffffffffff8211171561543257615431614e15565b5b80604052505050565b5f615444614592565b9050615450828261540a565b919050565b5f67ffffffffffffffff82111561546f5761546e614e15565b5b602082029050602081019050919050565b5f5ffd5b5f61549661549184615455565b61543b565b905080838252602082019050602084028301858111156154b9576154b8615480565b5b835b818110156154e257806154ce8882614c47565b8452602084019350506020810190506154bb565b5050509392505050565b5f82601f830112615500576154ff6153f6565b5b8151615510848260208601615484565b91505092915050565b5f6020828403121561552e5761552d61459b565b5b5f82015167ffffffffffffffff81111561554b5761554a61459f565b5b615557848285016154ec565b91505092915050565b5f819050919050565b5f61558361557e61557984615560565b61451e565b6144ce565b9050919050565b61559381615569565b82525050565b5f610100820190506155ad5f83018b614683565b6155ba602083018a614683565b6155c760408301896144d7565b6155d460608301886144d7565b6155e1608083018761558a565b6155ee60a083018661558a565b6155fb60c0830185614683565b61560860e08301846144d7565b9998505050505050505050565b5f5f5f6060848603121561562c5761562b61459b565b5b5f61563986828701614c47565b935050602061564a86828701614c47565b925050604061565b86828701614c47565b9150509250925092565b5f6060820190506156785f830186614683565b6156856020830185614683565b61569260408301846144d7565b949350505050565b5f5f604083850312156156b0576156af61459b565b5b5f6156bd85828601614c47565b92505060206156ce85828601614c47565b9150509250929050565b7f65787a6f6e65526f757465723a20494e53554646494349454e545f415f414d4f5f8201527f554e540000000000000000000000000000000000000000000000000000000000602082015250565b5f615732602383614b03565b915061573d826156d8565b604082019050919050565b5f6020820190508181035f83015261575f81615726565b9050919050565b7f65787a6f6e65526f757465723a20494e53554646494349454e545f425f414d4f5f8201527f554e540000000000000000000000000000000000000000000000000000000000602082015250565b5f6157c0602383614b03565b91506157cb82615766565b604082019050919050565b5f6020820190508181035f8301526157ed816157b4565b9050919050565b7f5a61703a2057726f6e6720747261646520646972656374696f6e0000000000005f82015250565b5f615828601a83614b03565b9150615833826157f4565b602082019050919050565b5f6020820190508181035f8301526158558161581c565b9050919050565b7f5a61703a20416d6f756e7420746f207377617020746f6f2068696768000000005f82015250565b5f615890601c83614b03565b915061589b8261585c565b602082019050919050565b5f6020820190508181035f8301526158bd81615884565b9050919050565b5f815190506158d281614935565b92915050565b5f602082840312156158ed576158ec61459b565b5b5f6158fa848285016158c4565b91505092915050565b5f6040820190506159165f830185614683565b6159236020830184614683565b939250505056fea26469706673582212203c42efaf0cc948bfff24e7aa09126875b93b8e0727b1d207b1475dbb70bb813c64736f6c634300081b0033",
			"opcodes": "PUSH1 0x80 PUSH1 0x40 MSTORE CALLVALUE DUP1 ISZERO PUSH2 0xF JUMPI PUSH0 PUSH0 REVERT JUMPDEST POP PUSH1 0x40 MLOAD PUSH2 0x5D14 CODESIZE SUB DUP1 PUSH2 0x5D14 DUP4 CODECOPY DUP2 DUP2 ADD PUSH1 0x40 MSTORE DUP2 ADD SWAP1 PUSH2 0x31 SWAP2 SWAP1 PUSH2 0x31B JUMP JUMPDEST DUP1 PUSH0 PUSH20 0xFFFFFFFFFFFFFFFFFFFFFFFFFFFFFFFFFFFFFFFF AND DUP2 PUSH20 0xFFFFFFFFFFFFFFFFFFFFFFFFFFFFFFFFFFFFFFFF AND SUB PUSH2 0xA2 JUMPI PUSH0 PUSH1 0x40 MLOAD PUSH32 0x1E4FBDF700000000000000000000000000000000000000000000000000000000 DUP2 MSTORE PUSH1 0x4 ADD PUSH2 0x99 SWAP2 SWAP1 PUSH2 0x38E JUMP JUMPDEST PUSH1 0x40 MLOAD DUP1 SWAP2 SUB SWAP1 REVERT JUMPDEST PUSH2 0xB1 DUP2 PUSH2 0x1C9 PUSH1 0x20 SHL PUSH1 0x20 SHR JUMP JUMPDEST POP PUSH1 0x1 DUP1 DUP2 SWAP1 SSTORE POP DUP4 PUSH1 0x6 PUSH0 PUSH2 0x100 EXP DUP2 SLOAD DUP2 PUSH20 0xFFFFFFFFFFFFFFFFFFFFFFFFFFFFFFFFFFFFFFFF MUL NOT AND SWAP1 DUP4 PUSH20 0xFFFFFFFFFFFFFFFFFFFFFFFFFFFFFFFFFFFFFFFF AND MUL OR SWAP1 SSTORE POP DUP4 PUSH1 0x2 PUSH0 PUSH2 0x100 EXP DUP2 SLOAD DUP2 PUSH20 0xFFFFFFFFFFFFFFFFFFFFFFFFFFFFFFFFFFFFFFFF MUL NOT AND SWAP1 DUP4 PUSH20 0xFFFFFFFFFFFFFFFFFFFFFFFFFFFFFFFFFFFFFFFF AND MUL OR SWAP1 SSTORE POP DUP3 PUSH1 0x5 PUSH0 PUSH2 0x100 EXP DUP2 SLOAD DUP2 PUSH20 0xFFFFFFFFFFFFFFFFFFFFFFFFFFFFFFFFFFFFFFFF MUL NOT AND SWAP1 DUP4 PUSH20 0xFFFFFFFFFFFFFFFFFFFFFFFFFFFFFFFFFFFFFFFF AND MUL OR SWAP1 SSTORE POP DUP3 PUSH1 0x3 PUSH0 PUSH2 0x100 EXP DUP2 SLOAD DUP2 PUSH20 0xFFFFFFFFFFFFFFFFFFFFFFFFFFFFFFFFFFFFFFFF MUL NOT AND SWAP1 DUP4 PUSH20 0xFFFFFFFFFFFFFFFFFFFFFFFFFFFFFFFFFFFFFFFF AND MUL OR SWAP1 SSTORE POP DUP2 PUSH1 0x4 DUP2 SWAP1 SSTORE POP POP POP POP POP PUSH2 0x3A7 JUMP JUMPDEST PUSH0 PUSH0 PUSH0 SWAP1 SLOAD SWAP1 PUSH2 0x100 EXP SWAP1 DIV PUSH20 0xFFFFFFFFFFFFFFFFFFFFFFFFFFFFFFFFFFFFFFFF AND SWAP1 POP DUP2 PUSH0 PUSH0 PUSH2 0x100 EXP DUP2 SLOAD DUP2 PUSH20 0xFFFFFFFFFFFFFFFFFFFFFFFFFFFFFFFFFFFFFFFF MUL NOT AND SWAP1 DUP4 PUSH20 0xFFFFFFFFFFFFFFFFFFFFFFFFFFFFFFFFFFFFFFFF AND MUL OR SWAP1 SSTORE POP DUP2 PUSH20 0xFFFFFFFFFFFFFFFFFFFFFFFFFFFFFFFFFFFFFFFF AND DUP2 PUSH20 0xFFFFFFFFFFFFFFFFFFFFFFFFFFFFFFFFFFFFFFFF AND PUSH32 0x8BE0079C531659141344CD1FD0A4F28419497F9722A3DAAFE3B4186F6B6457E0 PUSH1 0x40 MLOAD PUSH1 0x40 MLOAD DUP1 SWAP2 SUB SWAP1 LOG3 POP POP JUMP JUMPDEST PUSH0 PUSH0 REVERT JUMPDEST PUSH0 PUSH20 0xFFFFFFFFFFFFFFFFFFFFFFFFFFFFFFFFFFFFFFFF DUP3 AND SWAP1 POP SWAP2 SWAP1 POP JUMP JUMPDEST PUSH0 PUSH2 0x2B7 DUP3 PUSH2 0x28E JUMP JUMPDEST SWAP1 POP SWAP2 SWAP1 POP JUMP JUMPDEST PUSH2 0x2C7 DUP2 PUSH2 0x2AD JUMP JUMPDEST DUP2 EQ PUSH2 0x2D1 JUMPI PUSH0 PUSH0 REVERT JUMPDEST POP JUMP JUMPDEST PUSH0 DUP2 MLOAD SWAP1 POP PUSH2 0x2E2 DUP2 PUSH2 0x2BE JUMP JUMPDEST SWAP3 SWAP2 POP POP JUMP JUMPDEST PUSH0 DUP2 SWAP1 POP SWAP2 SWAP1 POP JUMP JUMPDEST PUSH2 0x2FA DUP2 PUSH2 0x2E8 JUMP JUMPDEST DUP2 EQ PUSH2 0x304 JUMPI PUSH0 PUSH0 REVERT JUMPDEST POP JUMP JUMPDEST PUSH0 DUP2 MLOAD SWAP1 POP PUSH2 0x315 DUP2 PUSH2 0x2F1 JUMP JUMPDEST SWAP3 SWAP2 POP POP JUMP JUMPDEST PUSH0 PUSH0 PUSH0 PUSH0 PUSH1 0x80 DUP6 DUP8 SUB SLT ISZERO PUSH2 0x333 JUMPI PUSH2 0x332 PUSH2 0x28A JUMP JUMPDEST JUMPDEST PUSH0 PUSH2 0x340 DUP8 DUP3 DUP9 ADD PUSH2 0x2D4 JUMP JUMPDEST SWAP5 POP POP PUSH1 0x20 PUSH2 0x351 DUP8 DUP3 DUP9 ADD PUSH2 0x2D4 JUMP JUMPDEST SWAP4 POP POP PUSH1 0x40 PUSH2 0x362 DUP8 DUP3 DUP9 ADD PUSH2 0x307 JUMP JUMPDEST SWAP3 POP POP PUSH1 0x60 PUSH2 0x373 DUP8 DUP3 DUP9 ADD PUSH2 0x2D4 JUMP JUMPDEST SWAP2 POP POP SWAP3 SWAP6 SWAP2 SWAP5 POP SWAP3 POP JUMP JUMPDEST PUSH2 0x388 DUP2 PUSH2 0x2AD JUMP JUMPDEST DUP3 MSTORE POP POP JUMP JUMPDEST PUSH0 PUSH1 0x20 DUP3 ADD SWAP1 POP PUSH2 0x3A1 PUSH0 DUP4 ADD DUP5 PUSH2 0x37F JUMP JUMPDEST SWAP3 SWAP2 POP POP JUMP JUMPDEST PUSH2 0x5960 DUP1 PUSH2 0x3B4 PUSH0 CODECOPY PUSH0 RETURN INVALID PUSH1 0x80 PUSH1 0x40 MSTORE PUSH1 0x4 CALLDATASIZE LT PUSH2 0x117 JUMPI PUSH0 CALLDATALOAD PUSH1 0xE0 SHR DUP1 PUSH4 0x5FCBDAED GT PUSH2 0x9F JUMPI DUP1 PUSH4 0x8DA5CB5B GT PUSH2 0x63 JUMPI DUP1 PUSH4 0x8DA5CB5B EQ PUSH2 0x3DB JUMPI DUP1 PUSH4 0x8DD95002 EQ PUSH2 0x405 JUMPI DUP1 PUSH4 0xB421E91E EQ PUSH2 0x42F JUMPI DUP1 PUSH4 0xE3CEB16B EQ PUSH2 0x457 JUMPI DUP1 PUSH4 0xF2FDE38B EQ PUSH2 0x473 JUMPI PUSH2 0x17B JUMP JUMPDEST DUP1 PUSH4 0x5FCBDAED EQ PUSH2 0x30F JUMPI DUP1 PUSH4 0x715018A6 EQ PUSH2 0x337 JUMPI DUP1 PUSH4 0x82C98B2D EQ PUSH2 0x34D JUMPI DUP1 PUSH4 0x84B73115 EQ PUSH2 0x38B JUMPI DUP1 PUSH4 0x87E3F21C EQ PUSH2 0x3B3 JUMPI PUSH2 0x17B JUMP JUMPDEST DUP1 PUSH4 0x2B4652EB GT PUSH2 0xE6 JUMPI DUP1 PUSH4 0x2B4652EB EQ PUSH2 0x227 JUMPI DUP1 PUSH4 0x2F883DA4 EQ PUSH2 0x24F JUMPI DUP1 PUSH4 0x3B0A48BB EQ PUSH2 0x28D JUMPI DUP1 PUSH4 0x3F138D4B EQ PUSH2 0x2CB JUMPI DUP1 PUSH4 0x5CB88A3F EQ PUSH2 0x2F3 JUMPI PUSH2 0x17B JUMP JUMPDEST DUP1 PUSH4 0x98D3228 EQ PUSH2 0x17F JUMPI DUP1 PUSH4 0xF4E4E63 EQ PUSH2 0x1A9 JUMPI DUP1 PUSH4 0x24A6AD68 EQ PUSH2 0x1D3 JUMPI DUP1 PUSH4 0x257D9BB8 EQ PUSH2 0x1FD JUMPI PUSH2 0x17B JUMP JUMPDEST CALLDATASIZE PUSH2 0x17B JUMPI PUSH1 0x6 PUSH0 SWAP1 SLOAD SWAP1 PUSH2 0x100 EXP SWAP1 DIV PUSH20 0xFFFFFFFFFFFFFFFFFFFFFFFFFFFFFFFFFFFFFFFF AND PUSH20 0xFFFFFFFFFFFFFFFFFFFFFFFFFFFFFFFFFFFFFFFF AND CALLER PUSH20 0xFFFFFFFFFFFFFFFFFFFFFFFFFFFFFFFFFFFFFFFF AND EQ PUSH2 0x179 JUMPI PUSH2 0x178 PUSH2 0x44A1 JUMP JUMPDEST JUMPDEST STOP JUMPDEST PUSH0 PUSH0 REVERT JUMPDEST CALLVALUE DUP1 ISZERO PUSH2 0x18A JUMPI PUSH0 PUSH0 REVERT JUMPDEST POP PUSH2 0x193 PUSH2 0x49B JUMP JUMPDEST PUSH1 0x40 MLOAD PUSH2 0x1A0 SWAP2 SWAP1 PUSH2 0x44E6 JUMP JUMPDEST PUSH1 0x40 MLOAD DUP1 SWAP2 SUB SWAP1 RETURN JUMPDEST CALLVALUE DUP1 ISZERO PUSH2 0x1B4 JUMPI PUSH0 PUSH0 REVERT JUMPDEST POP PUSH2 0x1BD PUSH2 0x4BF JUMP JUMPDEST PUSH1 0x40 MLOAD PUSH2 0x1CA SWAP2 SWAP1 PUSH2 0x44E6 JUMP JUMPDEST PUSH1 0x40 MLOAD DUP1 SWAP2 SUB SWAP1 RETURN JUMPDEST CALLVALUE DUP1 ISZERO PUSH2 0x1DE JUMPI PUSH0 PUSH0 REVERT JUMPDEST POP PUSH2 0x1E7 PUSH2 0x4C5 JUMP JUMPDEST PUSH1 0x40 MLOAD PUSH2 0x1F4 SWAP2 SWAP1 PUSH2 0x4579 JUMP JUMPDEST PUSH1 0x40 MLOAD DUP1 SWAP2 SUB SWAP1 RETURN JUMPDEST CALLVALUE DUP1 ISZERO PUSH2 0x208 JUMPI PUSH0 PUSH0 REVERT JUMPDEST POP PUSH2 0x211 PUSH2 0x4EA JUMP JUMPDEST PUSH1 0x40 MLOAD PUSH2 0x21E SWAP2 SWAP1 PUSH2 0x44E6 JUMP JUMPDEST PUSH1 0x40 MLOAD DUP1 SWAP2 SUB SWAP1 RETURN JUMPDEST CALLVALUE DUP1 ISZERO PUSH2 0x232 JUMPI PUSH0 PUSH0 REVERT JUMPDEST POP PUSH2 0x24D PUSH1 0x4 DUP1 CALLDATASIZE SUB DUP2 ADD SWAP1 PUSH2 0x248 SWAP2 SWAP1 PUSH2 0x45CD JUMP JUMPDEST PUSH2 0x4F0 JUMP JUMPDEST STOP JUMPDEST CALLVALUE DUP1 ISZERO PUSH2 0x25A JUMPI PUSH0 PUSH0 REVERT JUMPDEST POP PUSH2 0x275 PUSH1 0x4 DUP1 CALLDATASIZE SUB DUP2 ADD SWAP1 PUSH2 0x270 SWAP2 SWAP1 PUSH2 0x4633 JUMP JUMPDEST PUSH2 0x539 JUMP JUMPDEST PUSH1 0x40 MLOAD PUSH2 0x284 SWAP4 SWAP3 SWAP2 SWAP1 PUSH2 0x4692 JUMP JUMPDEST PUSH1 0x40 MLOAD DUP1 SWAP2 SUB SWAP1 RETURN JUMPDEST CALLVALUE DUP1 ISZERO PUSH2 0x298 JUMPI PUSH0 PUSH0 REVERT JUMPDEST POP PUSH2 0x2B3 PUSH1 0x4 DUP1 CALLDATASIZE SUB DUP2 ADD SWAP1 PUSH2 0x2AE SWAP2 SWAP1 PUSH2 0x4633 JUMP JUMPDEST PUSH2 0xA06 JUMP JUMPDEST PUSH1 0x40 MLOAD PUSH2 0x2C2 SWAP4 SWAP3 SWAP2 SWAP1 PUSH2 0x4692 JUMP JUMPDEST PUSH1 0x40 MLOAD DUP1 SWAP2 SUB SWAP1 RETURN JUMPDEST CALLVALUE DUP1 ISZERO PUSH2 0x2D6 JUMPI PUSH0 PUSH0 REVERT JUMPDEST POP PUSH2 0x2F1 PUSH1 0x4 DUP1 CALLDATASIZE SUB DUP2 ADD SWAP1 PUSH2 0x2EC SWAP2 SWAP1 PUSH2 0x46C7 JUMP JUMPDEST PUSH2 0xDC5 JUMP JUMPDEST STOP JUMPDEST PUSH2 0x30D PUSH1 0x4 DUP1 CALLDATASIZE SUB DUP2 ADD SWAP1 PUSH2 0x308 SWAP2 SWAP1 PUSH2 0x46C7 JUMP JUMPDEST PUSH2 0xE4A JUMP JUMPDEST STOP JUMPDEST CALLVALUE DUP1 ISZERO PUSH2 0x31A JUMPI PUSH0 PUSH0 REVERT JUMPDEST POP PUSH2 0x335 PUSH1 0x4 DUP1 CALLDATASIZE SUB DUP2 ADD SWAP1 PUSH2 0x330 SWAP2 SWAP1 PUSH2 0x4705 JUMP JUMPDEST PUSH2 0xF8B JUMP JUMPDEST STOP JUMPDEST CALLVALUE DUP1 ISZERO PUSH2 0x342 JUMPI PUSH0 PUSH0 REVERT JUMPDEST POP PUSH2 0x34B PUSH2 0x11F9 JUMP JUMPDEST STOP JUMPDEST CALLVALUE DUP1 ISZERO PUSH2 0x358 JUMPI PUSH0 PUSH0 REVERT JUMPDEST POP PUSH2 0x373 PUSH1 0x4 DUP1 CALLDATASIZE SUB DUP2 ADD SWAP1 PUSH2 0x36E SWAP2 SWAP1 PUSH2 0x4755 JUMP JUMPDEST PUSH2 0x120C JUMP JUMPDEST PUSH1 0x40 MLOAD PUSH2 0x382 SWAP4 SWAP3 SWAP2 SWAP1 PUSH2 0x47E6 JUMP JUMPDEST PUSH1 0x40 MLOAD DUP1 SWAP2 SUB SWAP1 RETURN JUMPDEST CALLVALUE DUP1 ISZERO PUSH2 0x396 JUMPI PUSH0 PUSH0 REVERT JUMPDEST POP PUSH2 0x3B1 PUSH1 0x4 DUP1 CALLDATASIZE SUB DUP2 ADD SWAP1 PUSH2 0x3AC SWAP2 SWAP1 PUSH2 0x481B JUMP JUMPDEST PUSH2 0x19BD JUMP JUMPDEST STOP JUMPDEST CALLVALUE DUP1 ISZERO PUSH2 0x3BE JUMPI PUSH0 PUSH0 REVERT JUMPDEST POP PUSH2 0x3D9 PUSH1 0x4 DUP1 CALLDATASIZE SUB DUP2 ADD SWAP1 PUSH2 0x3D4 SWAP2 SWAP1 PUSH2 0x487F JUMP JUMPDEST PUSH2 0x1AB8 JUMP JUMPDEST STOP JUMPDEST CALLVALUE DUP1 ISZERO PUSH2 0x3E6 JUMPI PUSH0 PUSH0 REVERT JUMPDEST POP PUSH2 0x3EF PUSH2 0x1B89 JUMP JUMPDEST PUSH1 0x40 MLOAD PUSH2 0x3FC SWAP2 SWAP1 PUSH2 0x48E3 JUMP JUMPDEST PUSH1 0x40 MLOAD DUP1 SWAP2 SUB SWAP1 RETURN JUMPDEST CALLVALUE DUP1 ISZERO PUSH2 0x410 JUMPI PUSH0 PUSH0 REVERT JUMPDEST POP PUSH2 0x419 PUSH2 0x1BB0 JUMP JUMPDEST PUSH1 0x40 MLOAD PUSH2 0x426 SWAP2 SWAP1 PUSH2 0x491C JUMP JUMPDEST PUSH1 0x40 MLOAD DUP1 SWAP2 SUB SWAP1 RETURN JUMPDEST CALLVALUE DUP1 ISZERO PUSH2 0x43A JUMPI PUSH0 PUSH0 REVERT JUMPDEST POP PUSH2 0x455 PUSH1 0x4 DUP1 CALLDATASIZE SUB DUP2 ADD SWAP1 PUSH2 0x450 SWAP2 SWAP1 PUSH2 0x495F JUMP JUMPDEST PUSH2 0x1BD5 JUMP JUMPDEST STOP JUMPDEST PUSH2 0x471 PUSH1 0x4 DUP1 CALLDATASIZE SUB DUP2 ADD SWAP1 PUSH2 0x46C SWAP2 SWAP1 PUSH2 0x4A10 JUMP JUMPDEST PUSH2 0x1CDF JUMP JUMPDEST STOP JUMPDEST CALLVALUE DUP1 ISZERO PUSH2 0x47E JUMPI PUSH0 PUSH0 REVERT JUMPDEST POP PUSH2 0x499 PUSH1 0x4 DUP1 CALLDATASIZE SUB DUP2 ADD SWAP1 PUSH2 0x494 SWAP2 SWAP1 PUSH2 0x4A99 JUMP JUMPDEST PUSH2 0x1E59 JUMP JUMPDEST STOP JUMPDEST PUSH32 0xFFFFFFFFFFFFFFFFFFFFFFFFFFFFFFFFFFFFFFFFFFFFFFFFFFFFFFFFFFFFFFFF DUP2 JUMP JUMPDEST PUSH1 0x4 SLOAD DUP2 JUMP JUMPDEST PUSH1 0x3 PUSH0 SWAP1 SLOAD SWAP1 PUSH2 0x100 EXP SWAP1 DIV PUSH20 0xFFFFFFFFFFFFFFFFFFFFFFFFFFFFFFFFFFFFFFFF AND DUP2 JUMP JUMPDEST PUSH2 0x3E8 DUP2 JUMP JUMPDEST PUSH2 0x4F8 PUSH2 0x1EDD JUMP JUMPDEST DUP1 PUSH1 0x4 DUP2 SWAP1 SSTORE POP PUSH32 0xC7E29C44236BFEA8BEF0D337E382F5F27EC5BC4D425D82437F115F9B59D2BA79 DUP2 PUSH1 0x40 MLOAD PUSH2 0x52E SWAP2 SWAP1 PUSH2 0x44E6 JUMP JUMPDEST PUSH1 0x40 MLOAD DUP1 SWAP2 SUB SWAP1 LOG1 POP JUMP JUMPDEST PUSH0 PUSH0 PUSH0 PUSH0 DUP7 PUSH20 0xFFFFFFFFFFFFFFFFFFFFFFFFFFFFFFFFFFFFFFFF AND PUSH4 0xDFE1681 PUSH1 0x40 MLOAD DUP2 PUSH4 0xFFFFFFFF AND PUSH1 0xE0 SHL DUP2 MSTORE PUSH1 0x4 ADD PUSH1 0x20 PUSH1 0x40 MLOAD DUP1 DUP4 SUB DUP2 DUP7 GAS STATICCALL ISZERO DUP1 ISZERO PUSH2 0x586 JUMPI RETURNDATASIZE PUSH0 PUSH0 RETURNDATACOPY RETURNDATASIZE PUSH0 REVERT JUMPDEST POP POP POP POP PUSH1 0x40 MLOAD RETURNDATASIZE PUSH1 0x1F NOT PUSH1 0x1F DUP3 ADD AND DUP3 ADD DUP1 PUSH1 0x40 MSTORE POP DUP2 ADD SWAP1 PUSH2 0x5AA SWAP2 SWAP1 PUSH2 0x4AD8 JUMP JUMPDEST SWAP1 POP PUSH0 DUP8 PUSH20 0xFFFFFFFFFFFFFFFFFFFFFFFFFFFFFFFFFFFFFFFF AND PUSH4 0xD21220A7 PUSH1 0x40 MLOAD DUP2 PUSH4 0xFFFFFFFF AND PUSH1 0xE0 SHL DUP2 MSTORE PUSH1 0x4 ADD PUSH1 0x20 PUSH1 0x40 MLOAD DUP1 DUP4 SUB DUP2 DUP7 GAS STATICCALL ISZERO DUP1 ISZERO PUSH2 0x5F6 JUMPI RETURNDATASIZE PUSH0 PUSH0 RETURNDATACOPY RETURNDATASIZE PUSH0 REVERT JUMPDEST POP POP POP POP PUSH1 0x40 MLOAD RETURNDATASIZE PUSH1 0x1F NOT PUSH1 0x1F DUP3 ADD AND DUP3 ADD DUP1 PUSH1 0x40 MSTORE POP DUP2 ADD SWAP1 PUSH2 0x61A SWAP2 SWAP1 PUSH2 0x4AD8 JUMP JUMPDEST SWAP1 POP DUP2 PUSH20 0xFFFFFFFFFFFFFFFFFFFFFFFFFFFFFFFFFFFFFFFF AND DUP7 PUSH20 0xFFFFFFFFFFFFFFFFFFFFFFFFFFFFFFFFFFFFFFFF AND EQ DUP1 PUSH2 0x681 JUMPI POP DUP1 PUSH20 0xFFFFFFFFFFFFFFFFFFFFFFFFFFFFFFFFFFFFFFFF AND DUP7 PUSH20 0xFFFFFFFFFFFFFFFFFFFFFFFFFFFFFFFFFFFFFFFF AND EQ JUMPDEST PUSH2 0x6C0 JUMPI PUSH1 0x40 MLOAD PUSH32 0x8C379A000000000000000000000000000000000000000000000000000000000 DUP2 MSTORE PUSH1 0x4 ADD PUSH2 0x6B7 SWAP1 PUSH2 0x4B5D JUMP JUMPDEST PUSH1 0x40 MLOAD DUP1 SWAP2 SUB SWAP1 REVERT JUMPDEST PUSH0 PUSH0 DUP10 PUSH20 0xFFFFFFFFFFFFFFFFFFFFFFFFFFFFFFFFFFFFFFFF AND PUSH4 0x902F1AC PUSH1 0x40 MLOAD DUP2 PUSH4 0xFFFFFFFF AND PUSH1 0xE0 SHL DUP2 MSTORE PUSH1 0x4 ADD PUSH1 0x60 PUSH1 0x40 MLOAD DUP1 DUP4 SUB DUP2 DUP7 GAS STATICCALL ISZERO DUP1 ISZERO PUSH2 0x70B JUMPI RETURNDATASIZE PUSH0 PUSH0 RETURNDATACOPY RETURNDATASIZE PUSH0 REVERT JUMPDEST POP POP POP POP PUSH1 0x40 MLOAD RETURNDATASIZE PUSH1 0x1F NOT PUSH1 0x1F DUP3 ADD AND DUP3 ADD DUP1 PUSH1 0x40 MSTORE POP DUP2 ADD SWAP1 PUSH2 0x72F SWAP2 SWAP1 PUSH2 0x4BF7 JUMP JUMPDEST POP PUSH14 0xFFFFFFFFFFFFFFFFFFFFFFFFFFFF AND SWAP2 POP PUSH14 0xFFFFFFFFFFFFFFFFFFFFFFFFFFFF AND SWAP2 POP DUP8 PUSH20 0xFFFFFFFFFFFFFFFFFFFFFFFFFFFFFFFFFFFFFFFF AND DUP4 PUSH20 0xFFFFFFFFFFFFFFFFFFFFFFFFFFFFFFFFFFFFFFFF AND SUB PUSH2 0x8C2 JUMPI PUSH0 DUP11 PUSH20 0xFFFFFFFFFFFFFFFFFFFFFFFFFFFFFFFFFFFFFFFF AND PUSH4 0x18160DDD PUSH1 0x40 MLOAD DUP2 PUSH4 0xFFFFFFFF AND PUSH1 0xE0 SHL DUP2 MSTORE PUSH1 0x4 ADD PUSH1 0x20 PUSH1 0x40 MLOAD DUP1 DUP4 SUB DUP2 DUP7 GAS STATICCALL ISZERO DUP1 ISZERO PUSH2 0x7D1 JUMPI RETURNDATASIZE PUSH0 PUSH0 RETURNDATACOPY RETURNDATASIZE PUSH0 REVERT JUMPDEST POP POP POP POP PUSH1 0x40 MLOAD RETURNDATASIZE PUSH1 0x1F NOT PUSH1 0x1F DUP3 ADD AND DUP3 ADD DUP1 PUSH1 0x40 MSTORE POP DUP2 ADD SWAP1 PUSH2 0x7F5 SWAP2 SWAP1 PUSH2 0x4C5B JUMP JUMPDEST DUP4 DUP12 PUSH2 0x801 SWAP2 SWAP1 PUSH2 0x4CB3 JUMP JUMPDEST PUSH2 0x80B SWAP2 SWAP1 PUSH2 0x4D21 JUMP JUMPDEST SWAP1 POP PUSH2 0x818 DUP2 DUP5 DUP5 PUSH2 0x1F64 JUMP JUMPDEST SWAP8 POP PUSH1 0x3 PUSH0 SWAP1 SLOAD SWAP1 PUSH2 0x100 EXP SWAP1 DIV PUSH20 0xFFFFFFFFFFFFFFFFFFFFFFFFFFFFFFFFFFFFFFFF AND PUSH20 0xFFFFFFFFFFFFFFFFFFFFFFFFFFFFFFFFFFFFFFFF AND PUSH4 0x54D50D4 DUP10 DUP6 DUP6 PUSH1 0x40 MLOAD DUP5 PUSH4 0xFFFFFFFF AND PUSH1 0xE0 SHL DUP2 MSTORE PUSH1 0x4 ADD PUSH2 0x878 SWAP4 SWAP3 SWAP2 SWAP1 PUSH2 0x4D51 JUMP JUMPDEST PUSH1 0x20 PUSH1 0x40 MLOAD DUP1 DUP4 SUB DUP2 DUP7 GAS STATICCALL ISZERO DUP1 ISZERO PUSH2 0x893 JUMPI RETURNDATASIZE PUSH0 PUSH0 RETURNDATACOPY RETURNDATASIZE PUSH0 REVERT JUMPDEST POP POP POP POP PUSH1 0x40 MLOAD RETURNDATASIZE PUSH1 0x1F NOT PUSH1 0x1F DUP3 ADD AND DUP3 ADD DUP1 PUSH1 0x40 MSTORE POP DUP2 ADD SWAP1 PUSH2 0x8B7 SWAP2 SWAP1 PUSH2 0x4C5B JUMP JUMPDEST SWAP7 POP DUP5 SWAP6 POP POP PUSH2 0x9F9 JUMP JUMPDEST PUSH0 DUP11 PUSH20 0xFFFFFFFFFFFFFFFFFFFFFFFFFFFFFFFFFFFFFFFF AND PUSH4 0x18160DDD PUSH1 0x40 MLOAD DUP2 PUSH4 0xFFFFFFFF AND PUSH1 0xE0 SHL DUP2 MSTORE PUSH1 0x4 ADD PUSH1 0x20 PUSH1 0x40 MLOAD DUP1 DUP4 SUB DUP2 DUP7 GAS STATICCALL ISZERO DUP1 ISZERO PUSH2 0x90C JUMPI RETURNDATASIZE PUSH0 PUSH0 RETURNDATACOPY RETURNDATASIZE PUSH0 REVERT JUMPDEST POP POP POP POP PUSH1 0x40 MLOAD RETURNDATASIZE PUSH1 0x1F NOT PUSH1 0x1F DUP3 ADD AND DUP3 ADD DUP1 PUSH1 0x40 MSTORE POP DUP2 ADD SWAP1 PUSH2 0x930 SWAP2 SWAP1 PUSH2 0x4C5B JUMP JUMPDEST DUP3 DUP12 PUSH2 0x93C SWAP2 SWAP1 PUSH2 0x4CB3 JUMP JUMPDEST PUSH2 0x946 SWAP2 SWAP1 PUSH2 0x4D21 JUMP JUMPDEST SWAP1 POP PUSH2 0x953 DUP2 DUP4 DUP6 PUSH2 0x1F64 JUMP JUMPDEST SWAP8 POP PUSH1 0x3 PUSH0 SWAP1 SLOAD SWAP1 PUSH2 0x100 EXP SWAP1 DIV PUSH20 0xFFFFFFFFFFFFFFFFFFFFFFFFFFFFFFFFFFFFFFFF AND PUSH20 0xFFFFFFFFFFFFFFFFFFFFFFFFFFFFFFFFFFFFFFFF AND PUSH4 0x54D50D4 DUP10 DUP5 DUP7 PUSH1 0x40 MLOAD DUP5 PUSH4 0xFFFFFFFF AND PUSH1 0xE0 SHL DUP2 MSTORE PUSH1 0x4 ADD PUSH2 0x9B3 SWAP4 SWAP3 SWAP2 SWAP1 PUSH2 0x4D51 JUMP JUMPDEST PUSH1 0x20 PUSH1 0x40 MLOAD DUP1 DUP4 SUB DUP2 DUP7 GAS STATICCALL ISZERO DUP1 ISZERO PUSH2 0x9CE JUMPI RETURNDATASIZE PUSH0 PUSH0 RETURNDATACOPY RETURNDATASIZE PUSH0 REVERT JUMPDEST POP POP POP POP PUSH1 0x40 MLOAD RETURNDATASIZE PUSH1 0x1F NOT PUSH1 0x1F DUP3 ADD AND DUP3 ADD DUP1 PUSH1 0x40 MSTORE POP DUP2 ADD SWAP1 PUSH2 0x9F2 SWAP2 SWAP1 PUSH2 0x4C5B JUMP JUMPDEST SWAP7 POP DUP4 SWAP6 POP POP JUMPDEST POP POP POP POP SWAP4 POP SWAP4 POP SWAP4 SWAP1 POP JUMP JUMPDEST PUSH0 PUSH0 PUSH0 PUSH0 DUP5 PUSH20 0xFFFFFFFFFFFFFFFFFFFFFFFFFFFFFFFFFFFFFFFF AND PUSH4 0xDFE1681 PUSH1 0x40 MLOAD DUP2 PUSH4 0xFFFFFFFF AND PUSH1 0xE0 SHL DUP2 MSTORE PUSH1 0x4 ADD PUSH1 0x20 PUSH1 0x40 MLOAD DUP1 DUP4 SUB DUP2 DUP7 GAS STATICCALL ISZERO DUP1 ISZERO PUSH2 0xA53 JUMPI RETURNDATASIZE PUSH0 PUSH0 RETURNDATACOPY RETURNDATASIZE PUSH0 REVERT JUMPDEST POP POP POP POP PUSH1 0x40 MLOAD RETURNDATASIZE PUSH1 0x1F NOT PUSH1 0x1F DUP3 ADD AND DUP3 ADD DUP1 PUSH1 0x40 MSTORE POP DUP2 ADD SWAP1 PUSH2 0xA77 SWAP2 SWAP1 PUSH2 0x4AD8 JUMP JUMPDEST SWAP1 POP PUSH0 DUP6 PUSH20 0xFFFFFFFFFFFFFFFFFFFFFFFFFFFFFFFFFFFFFFFF AND PUSH4 0xD21220A7 PUSH1 0x40 MLOAD DUP2 PUSH4 0xFFFFFFFF AND PUSH1 0xE0 SHL DUP2 MSTORE PUSH1 0x4 ADD PUSH1 0x20 PUSH1 0x40 MLOAD DUP1 DUP4 SUB DUP2 DUP7 GAS STATICCALL ISZERO DUP1 ISZERO PUSH2 0xAC3 JUMPI RETURNDATASIZE PUSH0 PUSH0 RETURNDATACOPY RETURNDATASIZE PUSH0 REVERT JUMPDEST POP POP POP POP PUSH1 0x40 MLOAD RETURNDATASIZE PUSH1 0x1F NOT PUSH1 0x1F DUP3 ADD AND DUP3 ADD DUP1 PUSH1 0x40 MSTORE POP DUP2 ADD SWAP1 PUSH2 0xAE7 SWAP2 SWAP1 PUSH2 0x4AD8 JUMP JUMPDEST SWAP1 POP DUP2 PUSH20 0xFFFFFFFFFFFFFFFFFFFFFFFFFFFFFFFFFFFFFFFF AND DUP9 PUSH20 0xFFFFFFFFFFFFFFFFFFFFFFFFFFFFFFFFFFFFFFFF AND EQ DUP1 PUSH2 0xB4E JUMPI POP DUP1 PUSH20 0xFFFFFFFFFFFFFFFFFFFFFFFFFFFFFFFFFFFFFFFF AND DUP9 PUSH20 0xFFFFFFFFFFFFFFFFFFFFFFFFFFFFFFFFFFFFFFFF AND EQ JUMPDEST PUSH2 0xB8D JUMPI PUSH1 0x40 MLOAD PUSH32 0x8C379A000000000000000000000000000000000000000000000000000000000 DUP2 MSTORE PUSH1 0x4 ADD PUSH2 0xB84 SWAP1 PUSH2 0x4DD0 JUMP JUMPDEST PUSH1 0x40 MLOAD DUP1 SWAP2 SUB SWAP1 REVERT JUMPDEST PUSH0 PUSH0 DUP8 PUSH20 0xFFFFFFFFFFFFFFFFFFFFFFFFFFFFFFFFFFFFFFFF AND PUSH4 0x902F1AC PUSH1 0x40 MLOAD DUP2 PUSH4 0xFFFFFFFF AND PUSH1 0xE0 SHL DUP2 MSTORE PUSH1 0x4 ADD PUSH1 0x60 PUSH1 0x40 MLOAD DUP1 DUP4 SUB DUP2 DUP7 GAS STATICCALL ISZERO DUP1 ISZERO PUSH2 0xBD8 JUMPI RETURNDATASIZE PUSH0 PUSH0 RETURNDATACOPY RETURNDATASIZE PUSH0 REVERT JUMPDEST POP POP POP POP PUSH1 0x40 MLOAD RETURNDATASIZE PUSH1 0x1F NOT PUSH1 0x1F DUP3 ADD AND DUP3 ADD DUP1 PUSH1 0x40 MSTORE POP DUP2 ADD SWAP1 PUSH2 0xBFC SWAP2 SWAP1 PUSH2 0x4BF7 JUMP JUMPDEST POP PUSH14 0xFFFFFFFFFFFFFFFFFFFFFFFFFFFF AND SWAP2 POP PUSH14 0xFFFFFFFFFFFFFFFFFFFFFFFFFFFF AND SWAP2 POP DUP10 PUSH20 0xFFFFFFFFFFFFFFFFFFFFFFFFFFFFFFFFFFFFFFFF AND DUP5 PUSH20 0xFFFFFFFFFFFFFFFFFFFFFFFFFFFFFFFFFFFFFFFF AND SUB PUSH2 0xD08 JUMPI DUP3 SWAP5 POP PUSH2 0xC62 DUP10 DUP4 DUP4 PUSH2 0x1F64 JUMP JUMPDEST SWAP7 POP PUSH1 0x3 PUSH0 SWAP1 SLOAD SWAP1 PUSH2 0x100 EXP SWAP1 DIV PUSH20 0xFFFFFFFFFFFFFFFFFFFFFFFFFFFFFFFFFFFFFFFF AND PUSH20 0xFFFFFFFFFFFFFFFFFFFFFFFFFFFFFFFFFFFFFFFF AND PUSH4 0x54D50D4 DUP9 DUP5 DUP5 PUSH1 0x40 MLOAD DUP5 PUSH4 0xFFFFFFFF AND PUSH1 0xE0 SHL DUP2 MSTORE PUSH1 0x4 ADD PUSH2 0xCC2 SWAP4 SWAP3 SWAP2 SWAP1 PUSH2 0x4D51 JUMP JUMPDEST PUSH1 0x20 PUSH1 0x40 MLOAD DUP1 DUP4 SUB DUP2 DUP7 GAS STATICCALL ISZERO DUP1 ISZERO PUSH2 0xCDD JUMPI RETURNDATASIZE PUSH0 PUSH0 RETURNDATACOPY RETURNDATASIZE PUSH0 REVERT JUMPDEST POP POP POP POP PUSH1 0x40 MLOAD RETURNDATASIZE PUSH1 0x1F NOT PUSH1 0x1F DUP3 ADD AND DUP3 ADD DUP1 PUSH1 0x40 MSTORE POP DUP2 ADD SWAP1 PUSH2 0xD01 SWAP2 SWAP1 PUSH2 0x4C5B JUMP JUMPDEST SWAP6 POP PUSH2 0xDB8 JUMP JUMPDEST DUP4 SWAP5 POP PUSH2 0xD16 DUP10 DUP3 DUP5 PUSH2 0x1F64 JUMP JUMPDEST SWAP7 POP PUSH1 0x3 PUSH0 SWAP1 SLOAD SWAP1 PUSH2 0x100 EXP SWAP1 DIV PUSH20 0xFFFFFFFFFFFFFFFFFFFFFFFFFFFFFFFFFFFFFFFF AND PUSH20 0xFFFFFFFFFFFFFFFFFFFFFFFFFFFFFFFFFFFFFFFF AND PUSH4 0x54D50D4 DUP9 DUP4 DUP6 PUSH1 0x40 MLOAD DUP5 PUSH4 0xFFFFFFFF AND PUSH1 0xE0 SHL DUP2 MSTORE PUSH1 0x4 ADD PUSH2 0xD76 SWAP4 SWAP3 SWAP2 SWAP1 PUSH2 0x4D51 JUMP JUMPDEST PUSH1 0x20 PUSH1 0x40 MLOAD DUP1 DUP4 SUB DUP2 DUP7 GAS STATICCALL ISZERO DUP1 ISZERO PUSH2 0xD91 JUMPI RETURNDATASIZE PUSH0 PUSH0 RETURNDATACOPY RETURNDATASIZE PUSH0 REVERT JUMPDEST POP POP POP POP PUSH1 0x40 MLOAD RETURNDATASIZE PUSH1 0x1F NOT PUSH1 0x1F DUP3 ADD AND DUP3 ADD DUP1 PUSH1 0x40 MSTORE POP DUP2 ADD SWAP1 PUSH2 0xDB5 SWAP2 SWAP1 PUSH2 0x4C5B JUMP JUMPDEST SWAP6 POP JUMPDEST POP POP POP POP SWAP4 POP SWAP4 POP SWAP4 SWAP1 POP JUMP JUMPDEST PUSH2 0xDCD PUSH2 0x1EDD JUMP JUMPDEST PUSH2 0xDF8 CALLER DUP3 DUP5 PUSH20 0xFFFFFFFFFFFFFFFFFFFFFFFFFFFFFFFFFFFFFFFF AND PUSH2 0x210C SWAP1 SWAP3 SWAP2 SWAP1 PUSH4 0xFFFFFFFF AND JUMP JUMPDEST DUP2 PUSH20 0xFFFFFFFFFFFFFFFFFFFFFFFFFFFFFFFFFFFFFFFF AND PUSH32 0x74545154AAC348A3EAC92596BD1971957CA94795F4E954EC5F613B55FAB78129 DUP3 PUSH1 0x40 MLOAD PUSH2 0xE3E SWAP2 SWAP1 PUSH2 0x44E6 JUMP JUMPDEST PUSH1 0x40 MLOAD DUP1 SWAP2 SUB SWAP1 LOG2 POP POP JUMP JUMPDEST PUSH2 0xE52 PUSH2 0x218B JUMP JUMPDEST PUSH1 0x2 PUSH0 SWAP1 SLOAD SWAP1 PUSH2 0x100 EXP SWAP1 DIV PUSH20 0xFFFFFFFFFFFFFFFFFFFFFFFFFFFFFFFFFFFFFFFF AND PUSH20 0xFFFFFFFFFFFFFFFFFFFFFFFFFFFFFFFFFFFFFFFF AND PUSH4 0xD0E30DB0 CALLVALUE PUSH1 0x40 MLOAD DUP3 PUSH4 0xFFFFFFFF AND PUSH1 0xE0 SHL DUP2 MSTORE PUSH1 0x4 ADD PUSH0 PUSH1 0x40 MLOAD DUP1 DUP4 SUB DUP2 DUP6 DUP9 DUP1 EXTCODESIZE ISZERO DUP1 ISZERO PUSH2 0xEB9 JUMPI PUSH0 PUSH0 REVERT JUMPDEST POP GAS CALL ISZERO DUP1 ISZERO PUSH2 0xECB JUMPI RETURNDATASIZE PUSH0 PUSH0 RETURNDATACOPY RETURNDATASIZE PUSH0 REVERT JUMPDEST POP POP POP POP POP PUSH0 PUSH2 0xEFE PUSH1 0x6 PUSH0 SWAP1 SLOAD SWAP1 PUSH2 0x100 EXP SWAP1 DIV PUSH20 0xFFFFFFFFFFFFFFFFFFFFFFFFFFFFFFFFFFFFFFFF AND CALLVALUE DUP6 DUP6 PUSH2 0x21DA JUMP JUMPDEST SWAP1 POP CALLER PUSH20 0xFFFFFFFFFFFFFFFFFFFFFFFFFFFFFFFFFFFFFFFF AND DUP4 PUSH20 0xFFFFFFFFFFFFFFFFFFFFFFFFFFFFFFFFFFFFFFFF AND PUSH0 PUSH20 0xFFFFFFFFFFFFFFFFFFFFFFFFFFFFFFFFFFFFFFFF AND PUSH32 0xA71185A0FF368DE4E9E445D8601C4FBD50D9B674E4E43F5F8FEAFB8D64A2E13E CALLVALUE DUP6 PUSH1 0x40 MLOAD PUSH2 0xF76 SWAP3 SWAP2 SWAP1 PUSH2 0x4DEE JUMP JUMPDEST PUSH1 0x40 MLOAD DUP1 SWAP2 SUB SWAP1 LOG4 POP PUSH2 0xF87 PUSH2 0x28EA JUMP JUMPDEST POP POP JUMP JUMPDEST PUSH2 0xF93 PUSH2 0x218B JUMP JUMPDEST PUSH2 0xFC0 CALLER DUP5 DUP5 DUP7 PUSH20 0xFFFFFFFFFFFFFFFFFFFFFFFFFFFFFFFFFFFFFFFF AND PUSH2 0x28F3 SWAP1 SWAP4 SWAP3 SWAP2 SWAP1 PUSH4 0xFFFFFFFF AND JUMP JUMPDEST PUSH0 PUSH2 0xFED DUP5 PUSH1 0x6 PUSH0 SWAP1 SLOAD SWAP1 PUSH2 0x100 EXP SWAP1 DIV PUSH20 0xFFFFFFFFFFFFFFFFFFFFFFFFFFFFFFFFFFFFFFFF AND DUP5 PUSH2 0x2975 JUMP JUMPDEST SWAP1 POP PUSH1 0x2 PUSH0 SWAP1 SLOAD SWAP1 PUSH2 0x100 EXP SWAP1 DIV PUSH20 0xFFFFFFFFFFFFFFFFFFFFFFFFFFFFFFFFFFFFFFFF AND PUSH20 0xFFFFFFFFFFFFFFFFFFFFFFFFFFFFFFFFFFFFFFFF AND PUSH4 0x2E1A7D4D DUP3 PUSH1 0x40 MLOAD DUP3 PUSH4 0xFFFFFFFF AND PUSH1 0xE0 SHL DUP2 MSTORE PUSH1 0x4 ADD PUSH2 0x1049 SWAP2 SWAP1 PUSH2 0x44E6 JUMP JUMPDEST PUSH0 PUSH1 0x40 MLOAD DUP1 DUP4 SUB DUP2 PUSH0 DUP8 DUP1 EXTCODESIZE ISZERO DUP1 ISZERO PUSH2 0x1060 JUMPI PUSH0 PUSH0 REVERT JUMPDEST POP GAS CALL ISZERO DUP1 ISZERO PUSH2 0x1072 JUMPI RETURNDATASIZE PUSH0 PUSH0 RETURNDATACOPY RETURNDATASIZE PUSH0 REVERT JUMPDEST POP POP POP POP PUSH0 CALLER PUSH20 0xFFFFFFFFFFFFFFFFFFFFFFFFFFFFFFFFFFFFFFFF AND DUP3 PUSH0 PUSH8 0xFFFFFFFFFFFFFFFF DUP2 GT ISZERO PUSH2 0x10A9 JUMPI PUSH2 0x10A8 PUSH2 0x4E15 JUMP JUMPDEST JUMPDEST PUSH1 0x40 MLOAD SWAP1 DUP1 DUP3 MSTORE DUP1 PUSH1 0x1F ADD PUSH1 0x1F NOT AND PUSH1 0x20 ADD DUP3 ADD PUSH1 0x40 MSTORE DUP1 ISZERO PUSH2 0x10DB JUMPI DUP2 PUSH1 0x20 ADD PUSH1 0x1 DUP3 MUL DUP1 CALLDATASIZE DUP4 CALLDATACOPY DUP1 DUP3 ADD SWAP2 POP POP SWAP1 POP JUMPDEST POP PUSH1 0x40 MLOAD PUSH2 0x10E9 SWAP2 SWAP1 PUSH2 0x4E94 JUMP JUMPDEST PUSH0 PUSH1 0x40 MLOAD DUP1 DUP4 SUB DUP2 DUP6 DUP8 GAS CALL SWAP3 POP POP POP RETURNDATASIZE DUP1 PUSH0 DUP2 EQ PUSH2 0x1123 JUMPI PUSH1 0x40 MLOAD SWAP2 POP PUSH1 0x1F NOT PUSH1 0x3F RETURNDATASIZE ADD AND DUP3 ADD PUSH1 0x40 MSTORE RETURNDATASIZE DUP3 MSTORE RETURNDATASIZE PUSH0 PUSH1 0x20 DUP5 ADD RETURNDATACOPY PUSH2 0x1128 JUMP JUMPDEST PUSH1 0x60 SWAP2 POP JUMPDEST POP POP SWAP1 POP DUP1 PUSH2 0x116C JUMPI PUSH1 0x40 MLOAD PUSH32 0x8C379A000000000000000000000000000000000000000000000000000000000 DUP2 MSTORE PUSH1 0x4 ADD PUSH2 0x1163 SWAP1 PUSH2 0x4EF4 JUMP JUMPDEST PUSH1 0x40 MLOAD DUP1 SWAP2 SUB SWAP1 REVERT JUMPDEST CALLER PUSH20 0xFFFFFFFFFFFFFFFFFFFFFFFFFFFFFFFFFFFFFFFF AND PUSH0 PUSH20 0xFFFFFFFFFFFFFFFFFFFFFFFFFFFFFFFFFFFFFFFF AND DUP7 PUSH20 0xFFFFFFFFFFFFFFFFFFFFFFFFFFFFFFFFFFFFFFFF AND PUSH32 0x20EF8A4C975EC6C340089D8171A0F9C6A6324B11E3ECC4353155186F6C638C28 DUP8 DUP7 PUSH1 0x40 MLOAD PUSH2 0x11E2 SWAP3 SWAP2 SWAP1 PUSH2 0x4DEE JUMP JUMPDEST PUSH1 0x40 MLOAD DUP1 SWAP2 SUB SWAP1 LOG4 POP POP PUSH2 0x11F4 PUSH2 0x28EA JUMP JUMPDEST POP POP POP JUMP JUMPDEST PUSH2 0x1201 PUSH2 0x1EDD JUMP JUMPDEST PUSH2 0x120A PUSH0 PUSH2 0x2FA7 JUMP JUMPDEST JUMP JUMPDEST PUSH0 PUSH0 PUSH0 DUP4 PUSH20 0xFFFFFFFFFFFFFFFFFFFFFFFFFFFFFFFFFFFFFFFF AND PUSH4 0xDFE1681 PUSH1 0x40 MLOAD DUP2 PUSH4 0xFFFFFFFF AND PUSH1 0xE0 SHL DUP2 MSTORE PUSH1 0x4 ADD PUSH1 0x20 PUSH1 0x40 MLOAD DUP1 DUP4 SUB DUP2 DUP7 GAS STATICCALL ISZERO DUP1 ISZERO PUSH2 0x1258 JUMPI RETURNDATASIZE PUSH0 PUSH0 RETURNDATACOPY RETURNDATASIZE PUSH0 REVERT JUMPDEST POP POP POP POP PUSH1 0x40 MLOAD RETURNDATASIZE PUSH1 0x1F NOT PUSH1 0x1F DUP3 ADD AND DUP3 ADD DUP1 PUSH1 0x40 MSTORE POP DUP2 ADD SWAP1 PUSH2 0x127C SWAP2 SWAP1 PUSH2 0x4AD8 JUMP JUMPDEST PUSH20 0xFFFFFFFFFFFFFFFFFFFFFFFFFFFFFFFFFFFFFFFF AND DUP9 PUSH20 0xFFFFFFFFFFFFFFFFFFFFFFFFFFFFFFFFFFFFFFFF AND EQ DUP1 PUSH2 0x134C JUMPI POP DUP4 PUSH20 0xFFFFFFFFFFFFFFFFFFFFFFFFFFFFFFFFFFFFFFFF AND PUSH4 0xD21220A7 PUSH1 0x40 MLOAD DUP2 PUSH4 0xFFFFFFFF AND PUSH1 0xE0 SHL DUP2 MSTORE PUSH1 0x4 ADD PUSH1 0x20 PUSH1 0x40 MLOAD DUP1 DUP4 SUB DUP2 DUP7 GAS STATICCALL ISZERO DUP1 ISZERO PUSH2 0x12F9 JUMPI RETURNDATASIZE PUSH0 PUSH0 RETURNDATACOPY RETURNDATASIZE PUSH0 REVERT JUMPDEST POP POP POP POP PUSH1 0x40 MLOAD RETURNDATASIZE PUSH1 0x1F NOT PUSH1 0x1F DUP3 ADD AND DUP3 ADD DUP1 PUSH1 0x40 MSTORE POP DUP2 ADD SWAP1 PUSH2 0x131D SWAP2 SWAP1 PUSH2 0x4AD8 JUMP JUMPDEST PUSH20 0xFFFFFFFFFFFFFFFFFFFFFFFFFFFFFFFFFFFFFFFF AND DUP9 PUSH20 0xFFFFFFFFFFFFFFFFFFFFFFFFFFFFFFFFFFFFFFFF AND EQ JUMPDEST PUSH2 0x138B JUMPI PUSH1 0x40 MLOAD PUSH32 0x8C379A000000000000000000000000000000000000000000000000000000000 DUP2 MSTORE PUSH1 0x4 ADD PUSH2 0x1382 SWAP1 PUSH2 0x4F5C JUMP JUMPDEST PUSH1 0x40 MLOAD DUP1 SWAP2 SUB SWAP1 REVERT JUMPDEST DUP4 PUSH20 0xFFFFFFFFFFFFFFFFFFFFFFFFFFFFFFFFFFFFFFFF AND PUSH4 0xDFE1681 PUSH1 0x40 MLOAD DUP2 PUSH4 0xFFFFFFFF AND PUSH1 0xE0 SHL DUP2 MSTORE PUSH1 0x4 ADD PUSH1 0x20 PUSH1 0x40 MLOAD DUP1 DUP4 SUB DUP2 DUP7 GAS STATICCALL ISZERO DUP1 ISZERO PUSH2 0x13D4 JUMPI RETURNDATASIZE PUSH0 PUSH0 RETURNDATACOPY RETURNDATASIZE PUSH0 REVERT JUMPDEST POP POP POP POP PUSH1 0x40 MLOAD RETURNDATASIZE PUSH1 0x1F NOT PUSH1 0x1F DUP3 ADD AND DUP3 ADD DUP1 PUSH1 0x40 MSTORE POP DUP2 ADD SWAP1 PUSH2 0x13F8 SWAP2 SWAP1 PUSH2 0x4AD8 JUMP JUMPDEST PUSH20 0xFFFFFFFFFFFFFFFFFFFFFFFFFFFFFFFFFFFFFFFF AND DUP8 PUSH20 0xFFFFFFFFFFFFFFFFFFFFFFFFFFFFFFFFFFFFFFFF AND EQ DUP1 PUSH2 0x14C8 JUMPI POP DUP4 PUSH20 0xFFFFFFFFFFFFFFFFFFFFFFFFFFFFFFFFFFFFFFFF AND PUSH4 0xD21220A7 PUSH1 0x40 MLOAD DUP2 PUSH4 0xFFFFFFFF AND PUSH1 0xE0 SHL DUP2 MSTORE PUSH1 0x4 ADD PUSH1 0x20 PUSH1 0x40 MLOAD DUP1 DUP4 SUB DUP2 DUP7 GAS STATICCALL ISZERO DUP1 ISZERO PUSH2 0x1475 JUMPI RETURNDATASIZE PUSH0 PUSH0 RETURNDATACOPY RETURNDATASIZE PUSH0 REVERT JUMPDEST POP POP POP POP PUSH1 0x40 MLOAD RETURNDATASIZE PUSH1 0x1F NOT PUSH1 0x1F DUP3 ADD AND DUP3 ADD DUP1 PUSH1 0x40 MSTORE POP DUP2 ADD SWAP1 PUSH2 0x1499 SWAP2 SWAP1 PUSH2 0x4AD8 JUMP JUMPDEST PUSH20 0xFFFFFFFFFFFFFFFFFFFFFFFFFFFFFFFFFFFFFFFF AND DUP8 PUSH20 0xFFFFFFFFFFFFFFFFFFFFFFFFFFFFFFFFFFFFFFFF AND EQ JUMPDEST PUSH2 0x1507 JUMPI PUSH1 0x40 MLOAD PUSH32 0x8C379A000000000000000000000000000000000000000000000000000000000 DUP2 MSTORE PUSH1 0x4 ADD PUSH2 0x14FE SWAP1 PUSH2 0x4FC4 JUMP JUMPDEST PUSH1 0x40 MLOAD DUP1 SWAP2 SUB SWAP1 REVERT JUMPDEST DUP7 PUSH20 0xFFFFFFFFFFFFFFFFFFFFFFFFFFFFFFFFFFFFFFFF AND DUP9 PUSH20 0xFFFFFFFFFFFFFFFFFFFFFFFFFFFFFFFFFFFFFFFF AND SUB PUSH2 0x1575 JUMPI PUSH1 0x40 MLOAD PUSH32 0x8C379A000000000000000000000000000000000000000000000000000000000 DUP2 MSTORE PUSH1 0x4 ADD PUSH2 0x156C SWAP1 PUSH2 0x502C JUMP JUMPDEST PUSH1 0x40 MLOAD DUP1 SWAP2 SUB SWAP1 REVERT JUMPDEST PUSH0 PUSH0 DUP6 PUSH20 0xFFFFFFFFFFFFFFFFFFFFFFFFFFFFFFFFFFFFFFFF AND PUSH4 0x902F1AC PUSH1 0x40 MLOAD DUP2 PUSH4 0xFFFFFFFF AND PUSH1 0xE0 SHL DUP2 MSTORE PUSH1 0x4 ADD PUSH1 0x60 PUSH1 0x40 MLOAD DUP1 DUP4 SUB DUP2 DUP7 GAS STATICCALL ISZERO DUP1 ISZERO PUSH2 0x15C0 JUMPI RETURNDATASIZE PUSH0 PUSH0 RETURNDATACOPY RETURNDATASIZE PUSH0 REVERT JUMPDEST POP POP POP POP PUSH1 0x40 MLOAD RETURNDATASIZE PUSH1 0x1F NOT PUSH1 0x1F DUP3 ADD AND DUP3 ADD DUP1 PUSH1 0x40 MSTORE POP DUP2 ADD SWAP1 PUSH2 0x15E4 SWAP2 SWAP1 PUSH2 0x4BF7 JUMP JUMPDEST POP PUSH14 0xFFFFFFFFFFFFFFFFFFFFFFFFFFFF AND SWAP2 POP PUSH14 0xFFFFFFFFFFFFFFFFFFFFFFFFFFFF AND SWAP2 POP DUP6 PUSH20 0xFFFFFFFFFFFFFFFFFFFFFFFFFFFFFFFFFFFFFFFF AND PUSH4 0xDFE1681 PUSH1 0x40 MLOAD DUP2 PUSH4 0xFFFFFFFF AND PUSH1 0xE0 SHL DUP2 MSTORE PUSH1 0x4 ADD PUSH1 0x20 PUSH1 0x40 MLOAD DUP1 DUP4 SUB DUP2 DUP7 GAS STATICCALL ISZERO DUP1 ISZERO PUSH2 0x1652 JUMPI RETURNDATASIZE PUSH0 PUSH0 RETURNDATACOPY RETURNDATASIZE PUSH0 REVERT JUMPDEST POP POP POP POP PUSH1 0x40 MLOAD RETURNDATASIZE PUSH1 0x1F NOT PUSH1 0x1F DUP3 ADD AND DUP3 ADD DUP1 PUSH1 0x40 MSTORE POP DUP2 ADD SWAP1 PUSH2 0x1676 SWAP2 SWAP1 PUSH2 0x4AD8 JUMP JUMPDEST PUSH20 0xFFFFFFFFFFFFFFFFFFFFFFFFFFFFFFFFFFFFFFFF AND DUP11 PUSH20 0xFFFFFFFFFFFFFFFFFFFFFFFFFFFFFFFFFFFFFFFF AND SUB PUSH2 0x182E JUMPI DUP2 DUP8 PUSH2 0x16B4 SWAP2 SWAP1 PUSH2 0x4CB3 JUMP JUMPDEST DUP2 DUP10 PUSH2 0x16C0 SWAP2 SWAP1 PUSH2 0x4CB3 JUMP JUMPDEST GT PUSH2 0x16CB JUMPI PUSH0 PUSH2 0x16CE JUMP JUMPDEST PUSH1 0x1 JUMPDEST SWAP3 POP PUSH2 0x16DD DUP9 DUP9 DUP5 DUP5 DUP8 PUSH2 0x3068 JUMP JUMPDEST SWAP5 POP DUP3 ISZERO PUSH2 0x1789 JUMPI PUSH1 0x3 PUSH0 SWAP1 SLOAD SWAP1 PUSH2 0x100 EXP SWAP1 DIV PUSH20 0xFFFFFFFFFFFFFFFFFFFFFFFFFFFFFFFFFFFFFFFF AND PUSH20 0xFFFFFFFFFFFFFFFFFFFFFFFFFFFFFFFFFFFFFFFF AND PUSH4 0x54D50D4 DUP7 DUP5 DUP5 PUSH1 0x40 MLOAD DUP5 PUSH4 0xFFFFFFFF AND PUSH1 0xE0 SHL DUP2 MSTORE PUSH1 0x4 ADD PUSH2 0x1743 SWAP4 SWAP3 SWAP2 SWAP1 PUSH2 0x4D51 JUMP JUMPDEST PUSH1 0x20 PUSH1 0x40 MLOAD DUP1 DUP4 SUB DUP2 DUP7 GAS STATICCALL ISZERO DUP1 ISZERO PUSH2 0x175E JUMPI RETURNDATASIZE PUSH0 PUSH0 RETURNDATACOPY RETURNDATASIZE PUSH0 REVERT JUMPDEST POP POP POP POP PUSH1 0x40 MLOAD RETURNDATASIZE PUSH1 0x1F NOT PUSH1 0x1F DUP3 ADD AND DUP3 ADD DUP1 PUSH1 0x40 MSTORE POP DUP2 ADD SWAP1 PUSH2 0x1782 SWAP2 SWAP1 PUSH2 0x4C5B JUMP JUMPDEST SWAP4 POP PUSH2 0x1829 JUMP JUMPDEST PUSH1 0x3 PUSH0 SWAP1 SLOAD SWAP1 PUSH2 0x100 EXP SWAP1 DIV PUSH20 0xFFFFFFFFFFFFFFFFFFFFFFFFFFFFFFFFFFFFFFFF AND PUSH20 0xFFFFFFFFFFFFFFFFFFFFFFFFFFFFFFFFFFFFFFFF AND PUSH4 0x54D50D4 DUP7 DUP4 DUP6 PUSH1 0x40 MLOAD DUP5 PUSH4 0xFFFFFFFF AND PUSH1 0xE0 SHL DUP2 MSTORE PUSH1 0x4 ADD PUSH2 0x17E7 SWAP4 SWAP3 SWAP2 SWAP1 PUSH2 0x4D51 JUMP JUMPDEST PUSH1 0x20 PUSH1 0x40 MLOAD DUP1 DUP4 SUB DUP2 DUP7 GAS STATICCALL ISZERO DUP1 ISZERO PUSH2 0x1802 JUMPI RETURNDATASIZE PUSH0 PUSH0 RETURNDATACOPY RETURNDATASIZE PUSH0 REVERT JUMPDEST POP POP POP POP PUSH1 0x40 MLOAD RETURNDATASIZE PUSH1 0x1F NOT PUSH1 0x1F DUP3 ADD AND DUP3 ADD DUP1 PUSH1 0x40 MSTORE POP DUP2 ADD SWAP1 PUSH2 0x1826 SWAP2 SWAP1 PUSH2 0x4C5B JUMP JUMPDEST SWAP4 POP JUMPDEST PUSH2 0x19B0 JUMP JUMPDEST DUP1 DUP8 PUSH2 0x183A SWAP2 SWAP1 PUSH2 0x4CB3 JUMP JUMPDEST DUP3 DUP10 PUSH2 0x1846 SWAP2 SWAP1 PUSH2 0x4CB3 JUMP JUMPDEST GT PUSH2 0x1851 JUMPI PUSH0 PUSH2 0x1854 JUMP JUMPDEST PUSH1 0x1 JUMPDEST SWAP3 POP PUSH2 0x1863 DUP9 DUP9 DUP4 DUP6 DUP8 PUSH2 0x3068 JUMP JUMPDEST SWAP5 POP DUP3 ISZERO PUSH2 0x190F JUMPI PUSH1 0x3 PUSH0 SWAP1 SLOAD SWAP1 PUSH2 0x100 EXP SWAP1 DIV PUSH20 0xFFFFFFFFFFFFFFFFFFFFFFFFFFFFFFFFFFFFFFFF AND PUSH20 0xFFFFFFFFFFFFFFFFFFFFFFFFFFFFFFFFFFFFFFFF AND PUSH4 0x54D50D4 DUP7 DUP4 DUP6 PUSH1 0x40 MLOAD DUP5 PUSH4 0xFFFFFFFF AND PUSH1 0xE0 SHL DUP2 MSTORE PUSH1 0x4 ADD PUSH2 0x18C9 SWAP4 SWAP3 SWAP2 SWAP1 PUSH2 0x4D51 JUMP JUMPDEST PUSH1 0x20 PUSH1 0x40 MLOAD DUP1 DUP4 SUB DUP2 DUP7 GAS STATICCALL ISZERO DUP1 ISZERO PUSH2 0x18E4 JUMPI RETURNDATASIZE PUSH0 PUSH0 RETURNDATACOPY RETURNDATASIZE PUSH0 REVERT JUMPDEST POP POP POP POP PUSH1 0x40 MLOAD RETURNDATASIZE PUSH1 0x1F NOT PUSH1 0x1F DUP3 ADD AND DUP3 ADD DUP1 PUSH1 0x40 MSTORE POP DUP2 ADD SWAP1 PUSH2 0x1908 SWAP2 SWAP1 PUSH2 0x4C5B JUMP JUMPDEST SWAP4 POP PUSH2 0x19AF JUMP JUMPDEST PUSH1 0x3 PUSH0 SWAP1 SLOAD SWAP1 PUSH2 0x100 EXP SWAP1 DIV PUSH20 0xFFFFFFFFFFFFFFFFFFFFFFFFFFFFFFFFFFFFFFFF AND PUSH20 0xFFFFFFFFFFFFFFFFFFFFFFFFFFFFFFFFFFFFFFFF AND PUSH4 0x54D50D4 DUP7 DUP5 DUP5 PUSH1 0x40 MLOAD DUP5 PUSH4 0xFFFFFFFF AND PUSH1 0xE0 SHL DUP2 MSTORE PUSH1 0x4 ADD PUSH2 0x196D SWAP4 SWAP3 SWAP2 SWAP1 PUSH2 0x4D51 JUMP JUMPDEST PUSH1 0x20 PUSH1 0x40 MLOAD DUP1 DUP4 SUB DUP2 DUP7 GAS STATICCALL ISZERO DUP1 ISZERO PUSH2 0x1988 JUMPI RETURNDATASIZE PUSH0 PUSH0 RETURNDATACOPY RETURNDATASIZE PUSH0 REVERT JUMPDEST POP POP POP POP PUSH1 0x40 MLOAD RETURNDATASIZE PUSH1 0x1F NOT PUSH1 0x1F DUP3 ADD AND DUP3 ADD DUP1 PUSH1 0x40 MSTORE POP DUP2 ADD SWAP1 PUSH2 0x19AC SWAP2 SWAP1 PUSH2 0x4C5B JUMP JUMPDEST SWAP4 POP JUMPDEST JUMPDEST POP POP SWAP6 POP SWAP6 POP SWAP6 SWAP3 POP POP POP JUMP JUMPDEST PUSH2 0x19C5 PUSH2 0x218B JUMP JUMPDEST PUSH2 0x19F2 CALLER DUP6 DUP5 DUP8 PUSH20 0xFFFFFFFFFFFFFFFFFFFFFFFFFFFFFFFFFFFFFFFF AND PUSH2 0x28F3 SWAP1 SWAP4 SWAP3 SWAP2 SWAP1 PUSH4 0xFFFFFFFF AND JUMP JUMPDEST PUSH0 PUSH2 0x19FE DUP6 DUP6 DUP5 PUSH2 0x2975 JUMP JUMPDEST SWAP1 POP PUSH2 0x1A2B CALLER DUP3 DUP7 PUSH20 0xFFFFFFFFFFFFFFFFFFFFFFFFFFFFFFFFFFFFFFFF AND PUSH2 0x210C SWAP1 SWAP3 SWAP2 SWAP1 PUSH4 0xFFFFFFFF AND JUMP JUMPDEST CALLER PUSH20 0xFFFFFFFFFFFFFFFFFFFFFFFFFFFFFFFFFFFFFFFF AND DUP5 PUSH20 0xFFFFFFFFFFFFFFFFFFFFFFFFFFFFFFFFFFFFFFFF AND DUP7 PUSH20 0xFFFFFFFFFFFFFFFFFFFFFFFFFFFFFFFFFFFFFFFF AND PUSH32 0x20EF8A4C975EC6C340089D8171A0F9C6A6324B11E3ECC4353155186F6C638C28 DUP7 DUP6 PUSH1 0x40 MLOAD PUSH2 0x1AA1 SWAP3 SWAP2 SWAP1 PUSH2 0x4DEE JUMP JUMPDEST PUSH1 0x40 MLOAD DUP1 SWAP2 SUB SWAP1 LOG4 POP PUSH2 0x1AB2 PUSH2 0x28EA JUMP JUMPDEST POP POP POP POP JUMP JUMPDEST PUSH2 0x1AC0 PUSH2 0x218B JUMP JUMPDEST PUSH2 0x1AED CALLER ADDRESS DUP6 DUP8 PUSH20 0xFFFFFFFFFFFFFFFFFFFFFFFFFFFFFFFFFFFFFFFF AND PUSH2 0x28F3 SWAP1 SWAP4 SWAP3 SWAP2 SWAP1 PUSH4 0xFFFFFFFF AND JUMP JUMPDEST PUSH0 PUSH2 0x1AFA DUP6 DUP6 DUP6 DUP6 PUSH2 0x21DA JUMP JUMPDEST SWAP1 POP CALLER PUSH20 0xFFFFFFFFFFFFFFFFFFFFFFFFFFFFFFFFFFFFFFFF AND DUP4 PUSH20 0xFFFFFFFFFFFFFFFFFFFFFFFFFFFFFFFFFFFFFFFF AND DUP7 PUSH20 0xFFFFFFFFFFFFFFFFFFFFFFFFFFFFFFFFFFFFFFFF AND PUSH32 0xA71185A0FF368DE4E9E445D8601C4FBD50D9B674E4E43F5F8FEAFB8D64A2E13E DUP8 DUP6 PUSH1 0x40 MLOAD PUSH2 0x1B72 SWAP3 SWAP2 SWAP1 PUSH2 0x4DEE JUMP JUMPDEST PUSH1 0x40 MLOAD DUP1 SWAP2 SUB SWAP1 LOG4 POP PUSH2 0x1B83 PUSH2 0x28EA JUMP JUMPDEST POP POP POP POP JUMP JUMPDEST PUSH0 PUSH0 PUSH0 SWAP1 SLOAD SWAP1 PUSH2 0x100 EXP SWAP1 DIV PUSH20 0xFFFFFFFFFFFFFFFFFFFFFFFFFFFFFFFFFFFFFFFF AND SWAP1 POP SWAP1 JUMP JUMPDEST PUSH1 0x2 PUSH0 SWAP1 SLOAD SWAP1 PUSH2 0x100 EXP SWAP1 DIV PUSH20 0xFFFFFFFFFFFFFFFFFFFFFFFFFFFFFFFFFFFFFFFF AND DUP2 JUMP JUMPDEST PUSH2 0x1BDD PUSH2 0x218B JUMP JUMPDEST PUSH2 0x1C0A CALLER ADDRESS DUP9 DUP12 PUSH20 0xFFFFFFFFFFFFFFFFFFFFFFFFFFFFFFFFFFFFFFFF AND PUSH2 0x28F3 SWAP1 SWAP4 SWAP3 SWAP2 SWAP1 PUSH4 0xFFFFFFFF AND JUMP JUMPDEST PUSH2 0x1C37 CALLER ADDRESS DUP8 DUP11 PUSH20 0xFFFFFFFFFFFFFFFFFFFFFFFFFFFFFFFFFFFFFFFF AND PUSH2 0x28F3 SWAP1 SWAP4 SWAP3 SWAP2 SWAP1 PUSH4 0xFFFFFFFF AND JUMP JUMPDEST PUSH0 PUSH2 0x1C48 DUP10 DUP10 DUP10 DUP10 DUP10 DUP10 DUP10 DUP10 PUSH2 0x3514 JUMP JUMPDEST SWAP1 POP CALLER PUSH20 0xFFFFFFFFFFFFFFFFFFFFFFFFFFFFFFFFFFFFFFFF AND DUP9 PUSH20 0xFFFFFFFFFFFFFFFFFFFFFFFFFFFFFFFFFFFFFFFF AND DUP11 PUSH20 0xFFFFFFFFFFFFFFFFFFFFFFFFFFFFFFFFFFFFFFFF AND PUSH32 0x4FF29158E89C3AF93365BF0FA1D14C5768109FB139F24B97C8A7D510B2D5E3F6 DUP9 DUP12 DUP12 DUP8 PUSH1 0x40 MLOAD PUSH2 0x1CC4 SWAP5 SWAP4 SWAP3 SWAP2 SWAP1 PUSH2 0x504A JUMP JUMPDEST PUSH1 0x40 MLOAD DUP1 SWAP2 SUB SWAP1 LOG4 POP PUSH2 0x1CD5 PUSH2 0x28EA JUMP JUMPDEST POP POP POP POP POP POP POP POP JUMP JUMPDEST PUSH2 0x1CE7 PUSH2 0x218B JUMP JUMPDEST PUSH1 0x2 PUSH0 SWAP1 SLOAD SWAP1 PUSH2 0x100 EXP SWAP1 DIV PUSH20 0xFFFFFFFFFFFFFFFFFFFFFFFFFFFFFFFFFFFFFFFF AND PUSH20 0xFFFFFFFFFFFFFFFFFFFFFFFFFFFFFFFFFFFFFFFF AND PUSH4 0xD0E30DB0 CALLVALUE PUSH1 0x40 MLOAD DUP3 PUSH4 0xFFFFFFFF AND PUSH1 0xE0 SHL DUP2 MSTORE PUSH1 0x4 ADD PUSH0 PUSH1 0x40 MLOAD DUP1 DUP4 SUB DUP2 DUP6 DUP9 DUP1 EXTCODESIZE ISZERO DUP1 ISZERO PUSH2 0x1D4E JUMPI PUSH0 PUSH0 REVERT JUMPDEST POP GAS CALL ISZERO DUP1 ISZERO PUSH2 0x1D60 JUMPI RETURNDATASIZE PUSH0 PUSH0 RETURNDATACOPY RETURNDATASIZE PUSH0 REVERT JUMPDEST POP POP POP POP POP PUSH2 0x1D92 CALLER ADDRESS DUP8 DUP10 PUSH20 0xFFFFFFFFFFFFFFFFFFFFFFFFFFFFFFFFFFFFFFFF AND PUSH2 0x28F3 SWAP1 SWAP4 SWAP3 SWAP2 SWAP1 PUSH4 0xFFFFFFFF AND JUMP JUMPDEST PUSH0 PUSH2 0x1DC4 PUSH1 0x6 PUSH0 SWAP1 SLOAD SWAP1 PUSH2 0x100 EXP SWAP1 DIV PUSH20 0xFFFFFFFFFFFFFFFFFFFFFFFFFFFFFFFFFFFFFFFF AND DUP9 CALLVALUE DUP10 DUP10 DUP10 DUP10 DUP10 PUSH2 0x3514 JUMP JUMPDEST SWAP1 POP CALLER PUSH20 0xFFFFFFFFFFFFFFFFFFFFFFFFFFFFFFFFFFFFFFFF AND DUP8 PUSH20 0xFFFFFFFFFFFFFFFFFFFFFFFFFFFFFFFFFFFFFFFF AND PUSH0 PUSH20 0xFFFFFFFFFFFFFFFFFFFFFFFFFFFFFFFFFFFFFFFF AND PUSH32 0x4FF29158E89C3AF93365BF0FA1D14C5768109FB139F24B97C8A7D510B2D5E3F6 DUP9 CALLVALUE DUP12 DUP8 PUSH1 0x40 MLOAD PUSH2 0x1E40 SWAP5 SWAP4 SWAP3 SWAP2 SWAP1 PUSH2 0x504A JUMP JUMPDEST PUSH1 0x40 MLOAD DUP1 SWAP2 SUB SWAP1 LOG4 POP PUSH2 0x1E51 PUSH2 0x28EA JUMP JUMPDEST POP POP POP POP POP POP JUMP JUMPDEST PUSH2 0x1E61 PUSH2 0x1EDD JUMP JUMPDEST PUSH0 PUSH20 0xFFFFFFFFFFFFFFFFFFFFFFFFFFFFFFFFFFFFFFFF AND DUP2 PUSH20 0xFFFFFFFFFFFFFFFFFFFFFFFFFFFFFFFFFFFFFFFF AND SUB PUSH2 0x1ED1 JUMPI PUSH0 PUSH1 0x40 MLOAD PUSH32 0x1E4FBDF700000000000000000000000000000000000000000000000000000000 DUP2 MSTORE PUSH1 0x4 ADD PUSH2 0x1EC8 SWAP2 SWAP1 PUSH2 0x48E3 JUMP JUMPDEST PUSH1 0x40 MLOAD DUP1 SWAP2 SUB SWAP1 REVERT JUMPDEST PUSH2 0x1EDA DUP2 PUSH2 0x2FA7 JUMP JUMPDEST POP JUMP JUMPDEST PUSH2 0x1EE5 PUSH2 0x3FE9 JUMP JUMPDEST PUSH20 0xFFFFFFFFFFFFFFFFFFFFFFFFFFFFFFFFFFFFFFFF AND PUSH2 0x1F03 PUSH2 0x1B89 JUMP JUMPDEST PUSH20 0xFFFFFFFFFFFFFFFFFFFFFFFFFFFFFFFFFFFFFFFF AND EQ PUSH2 0x1F62 JUMPI PUSH2 0x1F26 PUSH2 0x3FE9 JUMP JUMPDEST PUSH1 0x40 MLOAD PUSH32 0x118CDAA700000000000000000000000000000000000000000000000000000000 DUP2 MSTORE PUSH1 0x4 ADD PUSH2 0x1F59 SWAP2 SWAP1 PUSH2 0x48E3 JUMP JUMPDEST PUSH1 0x40 MLOAD DUP1 SWAP2 SUB SWAP1 REVERT JUMPDEST JUMP JUMPDEST PUSH0 PUSH0 PUSH1 0x2 DUP6 PUSH2 0x1F73 SWAP2 SWAP1 PUSH2 0x4D21 JUMP JUMPDEST SWAP1 POP PUSH0 PUSH1 0x3 PUSH0 SWAP1 SLOAD SWAP1 PUSH2 0x100 EXP SWAP1 DIV PUSH20 0xFFFFFFFFFFFFFFFFFFFFFFFFFFFFFFFFFFFFFFFF AND PUSH20 0xFFFFFFFFFFFFFFFFFFFFFFFFFFFFFFFFFFFFFFFF AND PUSH4 0x54D50D4 DUP4 DUP8 DUP8 PUSH1 0x40 MLOAD DUP5 PUSH4 0xFFFFFFFF AND PUSH1 0xE0 SHL DUP2 MSTORE PUSH1 0x4 ADD PUSH2 0x1FD4 SWAP4 SWAP3 SWAP2 SWAP1 PUSH2 0x4D51 JUMP JUMPDEST PUSH1 0x20 PUSH1 0x40 MLOAD DUP1 DUP4 SUB DUP2 DUP7 GAS STATICCALL ISZERO DUP1 ISZERO PUSH2 0x1FEF JUMPI RETURNDATASIZE PUSH0 PUSH0 RETURNDATACOPY RETURNDATASIZE PUSH0 REVERT JUMPDEST POP POP POP POP PUSH1 0x40 MLOAD RETURNDATASIZE PUSH1 0x1F NOT PUSH1 0x1F DUP3 ADD AND DUP3 ADD DUP1 PUSH1 0x40 MSTORE POP DUP2 ADD SWAP1 PUSH2 0x2013 SWAP2 SWAP1 PUSH2 0x4C5B JUMP JUMPDEST SWAP1 POP PUSH0 PUSH1 0x3 PUSH0 SWAP1 SLOAD SWAP1 PUSH2 0x100 EXP SWAP1 DIV PUSH20 0xFFFFFFFFFFFFFFFFFFFFFFFFFFFFFFFFFFFFFFFF AND PUSH20 0xFFFFFFFFFFFFFFFFFFFFFFFFFFFFFFFFFFFFFFFF AND PUSH4 0xAD615DEC DUP5 DUP6 DUP10 PUSH2 0x2060 SWAP2 SWAP1 PUSH2 0x508D JUMP JUMPDEST DUP6 DUP10 PUSH2 0x206C SWAP2 SWAP1 PUSH2 0x50C0 JUMP JUMPDEST PUSH1 0x40 MLOAD DUP5 PUSH4 0xFFFFFFFF AND PUSH1 0xE0 SHL DUP2 MSTORE PUSH1 0x4 ADD PUSH2 0x208A SWAP4 SWAP3 SWAP2 SWAP1 PUSH2 0x4D51 JUMP JUMPDEST PUSH1 0x20 PUSH1 0x40 MLOAD DUP1 DUP4 SUB DUP2 DUP7 GAS STATICCALL ISZERO DUP1 ISZERO PUSH2 0x20A5 JUMPI RETURNDATASIZE PUSH0 PUSH0 RETURNDATACOPY RETURNDATASIZE PUSH0 REVERT JUMPDEST POP POP POP POP PUSH1 0x40 MLOAD RETURNDATASIZE PUSH1 0x1F NOT PUSH1 0x1F DUP3 ADD AND DUP3 ADD DUP1 PUSH1 0x40 MSTORE POP DUP2 ADD SWAP1 PUSH2 0x20C9 SWAP2 SWAP1 PUSH2 0x4C5B JUMP JUMPDEST SWAP1 POP PUSH2 0x20F5 DUP2 DUP4 DUP6 DUP7 PUSH2 0x20DC SWAP2 SWAP1 PUSH2 0x4CB3 JUMP JUMPDEST PUSH2 0x20E6 SWAP2 SWAP1 PUSH2 0x4CB3 JUMP JUMPDEST PUSH2 0x20F0 SWAP2 SWAP1 PUSH2 0x4D21 JUMP JUMPDEST PUSH2 0x3FF0 JUMP JUMPDEST DUP8 PUSH2 0x2100 SWAP2 SWAP1 PUSH2 0x50C0 JUMP JUMPDEST SWAP4 POP POP POP POP SWAP4 SWAP3 POP POP POP JUMP JUMPDEST PUSH2 0x2186 DUP4 DUP5 PUSH20 0xFFFFFFFFFFFFFFFFFFFFFFFFFFFFFFFFFFFFFFFF AND PUSH4 0xA9059CBB DUP6 DUP6 PUSH1 0x40 MLOAD PUSH1 0x24 ADD PUSH2 0x213F SWAP3 SWAP2 SWAP1 PUSH2 0x50F3 JUMP JUMPDEST PUSH1 0x40 MLOAD PUSH1 0x20 DUP2 DUP4 SUB SUB DUP2 MSTORE SWAP1 PUSH1 0x40 MSTORE SWAP2 POP PUSH1 0xE0 SHL PUSH1 0x20 DUP3 ADD DUP1 MLOAD PUSH28 0xFFFFFFFFFFFFFFFFFFFFFFFFFFFFFFFFFFFFFFFFFFFFFFFFFFFFFFFF DUP4 DUP2 DUP4 AND OR DUP4 MSTORE POP POP POP POP PUSH2 0x41B6 JUMP JUMPDEST POP POP POP JUMP JUMPDEST PUSH1 0x2 PUSH1 0x1 SLOAD SUB PUSH2 0x21D0 JUMPI PUSH1 0x40 MLOAD PUSH32 0x8C379A000000000000000000000000000000000000000000000000000000000 DUP2 MSTORE PUSH1 0x4 ADD PUSH2 0x21C7 SWAP1 PUSH2 0x5164 JUMP JUMPDEST PUSH1 0x40 MLOAD DUP1 SWAP2 SUB SWAP1 REVERT JUMPDEST PUSH1 0x2 PUSH1 0x1 DUP2 SWAP1 SSTORE POP JUMP JUMPDEST PUSH0 PUSH2 0x3E8 DUP5 LT ISZERO PUSH2 0x2220 JUMPI PUSH1 0x40 MLOAD PUSH32 0x8C379A000000000000000000000000000000000000000000000000000000000 DUP2 MSTORE PUSH1 0x4 ADD PUSH2 0x2217 SWAP1 PUSH2 0x51CC JUMP JUMPDEST PUSH1 0x40 MLOAD DUP1 SWAP2 SUB SWAP1 REVERT JUMPDEST PUSH0 DUP4 PUSH20 0xFFFFFFFFFFFFFFFFFFFFFFFFFFFFFFFFFFFFFFFF AND PUSH4 0xDFE1681 PUSH1 0x40 MLOAD DUP2 PUSH4 0xFFFFFFFF AND PUSH1 0xE0 SHL DUP2 MSTORE PUSH1 0x4 ADD PUSH1 0x20 PUSH1 0x40 MLOAD DUP1 DUP4 SUB DUP2 DUP7 GAS STATICCALL ISZERO DUP1 ISZERO PUSH2 0x226A JUMPI RETURNDATASIZE PUSH0 PUSH0 RETURNDATACOPY RETURNDATASIZE PUSH0 REVERT JUMPDEST POP POP POP POP PUSH1 0x40 MLOAD RETURNDATASIZE PUSH1 0x1F NOT PUSH1 0x1F DUP3 ADD AND DUP3 ADD DUP1 PUSH1 0x40 MSTORE POP DUP2 ADD SWAP1 PUSH2 0x228E SWAP2 SWAP1 PUSH2 0x4AD8 JUMP JUMPDEST SWAP1 POP PUSH0 DUP5 PUSH20 0xFFFFFFFFFFFFFFFFFFFFFFFFFFFFFFFFFFFFFFFF AND PUSH4 0xD21220A7 PUSH1 0x40 MLOAD DUP2 PUSH4 0xFFFFFFFF AND PUSH1 0xE0 SHL DUP2 MSTORE PUSH1 0x4 ADD PUSH1 0x20 PUSH1 0x40 MLOAD DUP1 DUP4 SUB DUP2 DUP7 GAS STATICCALL ISZERO DUP1 ISZERO PUSH2 0x22DA JUMPI RETURNDATASIZE PUSH0 PUSH0 RETURNDATACOPY RETURNDATASIZE PUSH0 REVERT JUMPDEST POP POP POP POP PUSH1 0x40 MLOAD RETURNDATASIZE PUSH1 0x1F NOT PUSH1 0x1F DUP3 ADD AND DUP3 ADD DUP1 PUSH1 0x40 MSTORE POP DUP2 ADD SWAP1 PUSH2 0x22FE SWAP2 SWAP1 PUSH2 0x4AD8 JUMP JUMPDEST SWAP1 POP DUP2 PUSH20 0xFFFFFFFFFFFFFFFFFFFFFFFFFFFFFFFFFFFFFFFF AND DUP8 PUSH20 0xFFFFFFFFFFFFFFFFFFFFFFFFFFFFFFFFFFFFFFFF AND EQ DUP1 PUSH2 0x2365 JUMPI POP DUP1 PUSH20 0xFFFFFFFFFFFFFFFFFFFFFFFFFFFFFFFFFFFFFFFF AND DUP8 PUSH20 0xFFFFFFFFFFFFFFFFFFFFFFFFFFFFFFFFFFFFFFFF AND EQ JUMPDEST PUSH2 0x23A4 JUMPI PUSH1 0x40 MLOAD PUSH32 0x8C379A000000000000000000000000000000000000000000000000000000000 DUP2 MSTORE PUSH1 0x4 ADD PUSH2 0x239B SWAP1 PUSH2 0x4DD0 JUMP JUMPDEST PUSH1 0x40 MLOAD DUP1 SWAP2 SUB SWAP1 REVERT JUMPDEST PUSH0 PUSH1 0x2 PUSH8 0xFFFFFFFFFFFFFFFF DUP2 GT ISZERO PUSH2 0x23C0 JUMPI PUSH2 0x23BF PUSH2 0x4E15 JUMP JUMPDEST JUMPDEST PUSH1 0x40 MLOAD SWAP1 DUP1 DUP3 MSTORE DUP1 PUSH1 0x20 MUL PUSH1 0x20 ADD DUP3 ADD PUSH1 0x40 MSTORE DUP1 ISZERO PUSH2 0x23EE JUMPI DUP2 PUSH1 0x20 ADD PUSH1 0x20 DUP3 MUL DUP1 CALLDATASIZE DUP4 CALLDATACOPY DUP1 DUP3 ADD SWAP2 POP POP SWAP1 POP JUMPDEST POP SWAP1 POP DUP8 DUP2 PUSH0 DUP2 MLOAD DUP2 LT PUSH2 0x2405 JUMPI PUSH2 0x2404 PUSH2 0x51EA JUMP JUMPDEST JUMPDEST PUSH1 0x20 MUL PUSH1 0x20 ADD ADD SWAP1 PUSH20 0xFFFFFFFFFFFFFFFFFFFFFFFFFFFFFFFFFFFFFFFF AND SWAP1 DUP2 PUSH20 0xFFFFFFFFFFFFFFFFFFFFFFFFFFFFFFFFFFFFFFFF AND DUP2 MSTORE POP POP PUSH0 PUSH0 PUSH0 DUP9 PUSH20 0xFFFFFFFFFFFFFFFFFFFFFFFFFFFFFFFFFFFFFFFF AND PUSH4 0x902F1AC PUSH1 0x40 MLOAD DUP2 PUSH4 0xFFFFFFFF AND PUSH1 0xE0 SHL DUP2 MSTORE PUSH1 0x4 ADD PUSH1 0x60 PUSH1 0x40 MLOAD DUP1 DUP4 SUB DUP2 DUP7 GAS STATICCALL ISZERO DUP1 ISZERO PUSH2 0x248B JUMPI RETURNDATASIZE PUSH0 PUSH0 RETURNDATACOPY RETURNDATASIZE PUSH0 REVERT JUMPDEST POP POP POP POP PUSH1 0x40 MLOAD RETURNDATASIZE PUSH1 0x1F NOT PUSH1 0x1F DUP3 ADD AND DUP3 ADD DUP1 PUSH1 0x40 MSTORE POP DUP2 ADD SWAP1 PUSH2 0x24AF SWAP2 SWAP1 PUSH2 0x4BF7 JUMP JUMPDEST POP PUSH14 0xFFFFFFFFFFFFFFFFFFFFFFFFFFFF AND SWAP2 POP PUSH14 0xFFFFFFFFFFFFFFFFFFFFFFFFFFFF AND SWAP2 POP PUSH2 0x3E8 DUP3 LT ISZERO DUP1 ISZERO PUSH2 0x24E8 JUMPI POP PUSH2 0x3E8 DUP2 LT ISZERO JUMPDEST PUSH2 0x2527 JUMPI PUSH1 0x40 MLOAD PUSH32 0x8C379A000000000000000000000000000000000000000000000000000000000 DUP2 MSTORE PUSH1 0x4 ADD PUSH2 0x251E SWAP1 PUSH2 0x5261 JUMP JUMPDEST PUSH1 0x40 MLOAD DUP1 SWAP2 SUB SWAP1 REVERT JUMPDEST DUP11 PUSH20 0xFFFFFFFFFFFFFFFFFFFFFFFFFFFFFFFFFFFFFFFF AND DUP7 PUSH20 0xFFFFFFFFFFFFFFFFFFFFFFFFFFFFFFFFFFFFFFFF AND SUB PUSH2 0x260B JUMPI PUSH2 0x2565 DUP11 DUP4 DUP4 PUSH2 0x1F64 JUMP JUMPDEST SWAP3 POP DUP5 DUP5 PUSH1 0x1 DUP2 MLOAD DUP2 LT PUSH2 0x257C JUMPI PUSH2 0x257B PUSH2 0x51EA JUMP JUMPDEST JUMPDEST PUSH1 0x20 MUL PUSH1 0x20 ADD ADD SWAP1 PUSH20 0xFFFFFFFFFFFFFFFFFFFFFFFFFFFFFFFFFFFFFFFF AND SWAP1 DUP2 PUSH20 0xFFFFFFFFFFFFFFFFFFFFFFFFFFFFFFFFFFFFFFFF AND DUP2 MSTORE POP POP PUSH1 0x4 SLOAD DUP4 DUP4 PUSH2 0x25C5 SWAP2 SWAP1 PUSH2 0x4D21 JUMP JUMPDEST LT ISZERO PUSH2 0x2606 JUMPI PUSH1 0x40 MLOAD PUSH32 0x8C379A000000000000000000000000000000000000000000000000000000000 DUP2 MSTORE PUSH1 0x4 ADD PUSH2 0x25FD SWAP1 PUSH2 0x52C9 JUMP JUMPDEST PUSH1 0x40 MLOAD DUP1 SWAP2 SUB SWAP1 REVERT JUMPDEST PUSH2 0x26B8 JUMP JUMPDEST PUSH2 0x2616 DUP11 DUP3 DUP5 PUSH2 0x1F64 JUMP JUMPDEST SWAP3 POP DUP6 DUP5 PUSH1 0x1 DUP2 MLOAD DUP2 LT PUSH2 0x262D JUMPI PUSH2 0x262C PUSH2 0x51EA JUMP JUMPDEST JUMPDEST PUSH1 0x20 MUL PUSH1 0x20 ADD ADD SWAP1 PUSH20 0xFFFFFFFFFFFFFFFFFFFFFFFFFFFFFFFFFFFFFFFF AND SWAP1 DUP2 PUSH20 0xFFFFFFFFFFFFFFFFFFFFFFFFFFFFFFFFFFFFFFFF AND DUP2 MSTORE POP POP PUSH1 0x4 SLOAD DUP4 DUP3 PUSH2 0x2676 SWAP2 SWAP1 PUSH2 0x4D21 JUMP JUMPDEST LT ISZERO PUSH2 0x26B7 JUMPI PUSH1 0x40 MLOAD PUSH32 0x8C379A000000000000000000000000000000000000000000000000000000000 DUP2 MSTORE PUSH1 0x4 ADD PUSH2 0x26AE SWAP1 PUSH2 0x52C9 JUMP JUMPDEST PUSH1 0x40 MLOAD DUP1 SWAP2 SUB SWAP1 REVERT JUMPDEST JUMPDEST POP POP PUSH2 0x26C3 DUP10 PUSH2 0x424B JUMP JUMPDEST PUSH0 PUSH1 0x3 PUSH0 SWAP1 SLOAD SWAP1 PUSH2 0x100 EXP SWAP1 DIV PUSH20 0xFFFFFFFFFFFFFFFFFFFFFFFFFFFFFFFFFFFFFFFF AND PUSH20 0xFFFFFFFFFFFFFFFFFFFFFFFFFFFFFFFFFFFFFFFF AND PUSH4 0x38ED1739 DUP4 DUP10 DUP7 ADDRESS TIMESTAMP PUSH1 0x40 MLOAD DUP7 PUSH4 0xFFFFFFFF AND PUSH1 0xE0 SHL DUP2 MSTORE PUSH1 0x4 ADD PUSH2 0x2726 SWAP6 SWAP5 SWAP4 SWAP3 SWAP2 SWAP1 PUSH2 0x539E JUMP JUMPDEST PUSH0 PUSH1 0x40 MLOAD DUP1 DUP4 SUB DUP2 PUSH0 DUP8 GAS CALL ISZERO DUP1 ISZERO PUSH2 0x2741 JUMPI RETURNDATASIZE PUSH0 PUSH0 RETURNDATACOPY RETURNDATASIZE PUSH0 REVERT JUMPDEST POP POP POP POP PUSH1 0x40 MLOAD RETURNDATASIZE PUSH0 DUP3 RETURNDATACOPY RETURNDATASIZE PUSH1 0x1F NOT PUSH1 0x1F DUP3 ADD AND DUP3 ADD DUP1 PUSH1 0x40 MSTORE POP DUP2 ADD SWAP1 PUSH2 0x2769 SWAP2 SWAP1 PUSH2 0x5519 JUMP JUMPDEST SWAP1 POP DUP10 PUSH20 0xFFFFFFFFFFFFFFFFFFFFFFFFFFFFFFFFFFFFFFFF AND DUP6 PUSH20 0xFFFFFFFFFFFFFFFFFFFFFFFFFFFFFFFFFFFFFFFF AND SUB PUSH2 0x27AC JUMPI PUSH2 0x27A7 DUP5 PUSH2 0x424B JUMP JUMPDEST PUSH2 0x27B6 JUMP JUMPDEST PUSH2 0x27B5 DUP6 PUSH2 0x424B JUMP JUMPDEST JUMPDEST PUSH1 0x3 PUSH0 SWAP1 SLOAD SWAP1 PUSH2 0x100 EXP SWAP1 DIV PUSH20 0xFFFFFFFFFFFFFFFFFFFFFFFFFFFFFFFFFFFFFFFF AND PUSH20 0xFFFFFFFFFFFFFFFFFFFFFFFFFFFFFFFFFFFFFFFF AND PUSH4 0xE8E33700 DUP5 PUSH0 DUP2 MLOAD DUP2 LT PUSH2 0x2806 JUMPI PUSH2 0x2805 PUSH2 0x51EA JUMP JUMPDEST JUMPDEST PUSH1 0x20 MUL PUSH1 0x20 ADD ADD MLOAD DUP6 PUSH1 0x1 DUP2 MLOAD DUP2 LT PUSH2 0x2822 JUMPI PUSH2 0x2821 PUSH2 0x51EA JUMP JUMPDEST JUMPDEST PUSH1 0x20 MUL PUSH1 0x20 ADD ADD MLOAD DUP5 PUSH0 DUP2 MLOAD DUP2 LT PUSH2 0x283D JUMPI PUSH2 0x283C PUSH2 0x51EA JUMP JUMPDEST JUMPDEST PUSH1 0x20 MUL PUSH1 0x20 ADD ADD MLOAD DUP14 PUSH2 0x2850 SWAP2 SWAP1 PUSH2 0x50C0 JUMP JUMPDEST DUP6 PUSH1 0x1 DUP2 MLOAD DUP2 LT PUSH2 0x2864 JUMPI PUSH2 0x2863 PUSH2 0x51EA JUMP JUMPDEST JUMPDEST PUSH1 0x20 MUL PUSH1 0x20 ADD ADD MLOAD PUSH1 0x1 DUP1 CALLER TIMESTAMP PUSH1 0x40 MLOAD DUP10 PUSH4 0xFFFFFFFF AND PUSH1 0xE0 SHL DUP2 MSTORE PUSH1 0x4 ADD PUSH2 0x2894 SWAP9 SWAP8 SWAP7 SWAP6 SWAP5 SWAP4 SWAP3 SWAP2 SWAP1 PUSH2 0x5599 JUMP JUMPDEST PUSH1 0x60 PUSH1 0x40 MLOAD DUP1 DUP4 SUB DUP2 PUSH0 DUP8 GAS CALL ISZERO DUP1 ISZERO PUSH2 0x28B0 JUMPI RETURNDATASIZE PUSH0 PUSH0 RETURNDATACOPY RETURNDATASIZE PUSH0 REVERT JUMPDEST POP POP POP POP PUSH1 0x40 MLOAD RETURNDATASIZE PUSH1 0x1F NOT PUSH1 0x1F DUP3 ADD AND DUP3 ADD DUP1 PUSH1 0x40 MSTORE POP DUP2 ADD SWAP1 PUSH2 0x28D4 SWAP2 SWAP1 PUSH2 0x5615 JUMP JUMPDEST SWAP1 SWAP2 POP SWAP1 POP DUP1 SWAP7 POP POP POP POP POP POP POP SWAP5 SWAP4 POP POP POP POP JUMP JUMPDEST PUSH1 0x1 DUP1 DUP2 SWAP1 SSTORE POP JUMP JUMPDEST PUSH2 0x296F DUP5 DUP6 PUSH20 0xFFFFFFFFFFFFFFFFFFFFFFFFFFFFFFFFFFFFFFFF AND PUSH4 0x23B872DD DUP7 DUP7 DUP7 PUSH1 0x40 MLOAD PUSH1 0x24 ADD PUSH2 0x2928 SWAP4 SWAP3 SWAP2 SWAP1 PUSH2 0x5665 JUMP JUMPDEST PUSH1 0x40 MLOAD PUSH1 0x20 DUP2 DUP4 SUB SUB DUP2 MSTORE SWAP1 PUSH1 0x40 MSTORE SWAP2 POP PUSH1 0xE0 SHL PUSH1 0x20 DUP3 ADD DUP1 MLOAD PUSH28 0xFFFFFFFFFFFFFFFFFFFFFFFFFFFFFFFFFFFFFFFFFFFFFFFFFFFFFFFF DUP4 DUP2 DUP4 AND OR DUP4 MSTORE POP POP POP POP PUSH2 0x41B6 JUMP JUMPDEST POP POP POP POP JUMP JUMPDEST PUSH0 PUSH0 DUP5 PUSH20 0xFFFFFFFFFFFFFFFFFFFFFFFFFFFFFFFFFFFFFFFF AND PUSH4 0xDFE1681 PUSH1 0x40 MLOAD DUP2 PUSH4 0xFFFFFFFF AND PUSH1 0xE0 SHL DUP2 MSTORE PUSH1 0x4 ADD PUSH1 0x20 PUSH1 0x40 MLOAD DUP1 DUP4 SUB DUP2 DUP7 GAS STATICCALL ISZERO DUP1 ISZERO PUSH2 0x29C0 JUMPI RETURNDATASIZE PUSH0 PUSH0 RETURNDATACOPY RETURNDATASIZE PUSH0 REVERT JUMPDEST POP POP POP POP PUSH1 0x40 MLOAD RETURNDATASIZE PUSH1 0x1F NOT PUSH1 0x1F DUP3 ADD AND DUP3 ADD DUP1 PUSH1 0x40 MSTORE POP DUP2 ADD SWAP1 PUSH2 0x29E4 SWAP2 SWAP1 PUSH2 0x4AD8 JUMP JUMPDEST SWAP1 POP PUSH0 DUP6 PUSH20 0xFFFFFFFFFFFFFFFFFFFFFFFFFFFFFFFFFFFFFFFF AND PUSH4 0xD21220A7 PUSH1 0x40 MLOAD DUP2 PUSH4 0xFFFFFFFF AND PUSH1 0xE0 SHL DUP2 MSTORE PUSH1 0x4 ADD PUSH1 0x20 PUSH1 0x40 MLOAD DUP1 DUP4 SUB DUP2 DUP7 GAS STATICCALL ISZERO DUP1 ISZERO PUSH2 0x2A30 JUMPI RETURNDATASIZE PUSH0 PUSH0 RETURNDATACOPY RETURNDATASIZE PUSH0 REVERT JUMPDEST POP POP POP POP PUSH1 0x40 MLOAD RETURNDATASIZE PUSH1 0x1F NOT PUSH1 0x1F DUP3 ADD AND DUP3 ADD DUP1 PUSH1 0x40 MSTORE POP DUP2 ADD SWAP1 PUSH2 0x2A54 SWAP2 SWAP1 PUSH2 0x4AD8 JUMP JUMPDEST SWAP1 POP DUP2 PUSH20 0xFFFFFFFFFFFFFFFFFFFFFFFFFFFFFFFFFFFFFFFF AND DUP6 PUSH20 0xFFFFFFFFFFFFFFFFFFFFFFFFFFFFFFFFFFFFFFFF AND EQ DUP1 PUSH2 0x2ABB JUMPI POP DUP1 PUSH20 0xFFFFFFFFFFFFFFFFFFFFFFFFFFFFFFFFFFFFFFFF AND DUP6 PUSH20 0xFFFFFFFFFFFFFFFFFFFFFFFFFFFFFFFFFFFFFFFF AND EQ JUMPDEST PUSH2 0x2AFA JUMPI PUSH1 0x40 MLOAD PUSH32 0x8C379A000000000000000000000000000000000000000000000000000000000 DUP2 MSTORE PUSH1 0x4 ADD PUSH2 0x2AF1 SWAP1 PUSH2 0x4B5D JUMP JUMPDEST PUSH1 0x40 MLOAD DUP1 SWAP2 SUB SWAP1 REVERT JUMPDEST PUSH0 PUSH0 DUP8 PUSH20 0xFFFFFFFFFFFFFFFFFFFFFFFFFFFFFFFFFFFFFFFF AND PUSH4 0x89AFCB44 ADDRESS PUSH1 0x40 MLOAD DUP3 PUSH4 0xFFFFFFFF AND PUSH1 0xE0 SHL DUP2 MSTORE PUSH1 0x4 ADD PUSH2 0x2B35 SWAP2 SWAP1 PUSH2 0x48E3 JUMP JUMPDEST PUSH1 0x40 DUP1 MLOAD DUP1 DUP4 SUB DUP2 PUSH0 DUP8 GAS CALL ISZERO DUP1 ISZERO PUSH2 0x2B50 JUMPI RETURNDATASIZE PUSH0 PUSH0 RETURNDATACOPY RETURNDATASIZE PUSH0 REVERT JUMPDEST POP POP POP POP PUSH1 0x40 MLOAD RETURNDATASIZE PUSH1 0x1F NOT PUSH1 0x1F DUP3 ADD AND DUP3 ADD DUP1 PUSH1 0x40 MSTORE POP DUP2 ADD SWAP1 PUSH2 0x2B74 SWAP2 SWAP1 PUSH2 0x569A JUMP JUMPDEST SWAP2 POP SWAP2 POP PUSH2 0x3E8 DUP3 LT ISZERO PUSH2 0x2BBD JUMPI PUSH1 0x40 MLOAD PUSH32 0x8C379A000000000000000000000000000000000000000000000000000000000 DUP2 MSTORE PUSH1 0x4 ADD PUSH2 0x2BB4 SWAP1 PUSH2 0x5748 JUMP JUMPDEST PUSH1 0x40 MLOAD DUP1 SWAP2 SUB SWAP1 REVERT JUMPDEST PUSH2 0x3E8 DUP2 LT ISZERO PUSH2 0x2C02 JUMPI PUSH1 0x40 MLOAD PUSH32 0x8C379A000000000000000000000000000000000000000000000000000000000 DUP2 MSTORE PUSH1 0x4 ADD PUSH2 0x2BF9 SWAP1 PUSH2 0x57D6 JUMP JUMPDEST PUSH1 0x40 MLOAD DUP1 SWAP2 SUB SWAP1 REVERT JUMPDEST PUSH0 PUSH1 0x2 PUSH8 0xFFFFFFFFFFFFFFFF DUP2 GT ISZERO PUSH2 0x2C1E JUMPI PUSH2 0x2C1D PUSH2 0x4E15 JUMP JUMPDEST JUMPDEST PUSH1 0x40 MLOAD SWAP1 DUP1 DUP3 MSTORE DUP1 PUSH1 0x20 MUL PUSH1 0x20 ADD DUP3 ADD PUSH1 0x40 MSTORE DUP1 ISZERO PUSH2 0x2C4C JUMPI DUP2 PUSH1 0x20 ADD PUSH1 0x20 DUP3 MUL DUP1 CALLDATASIZE DUP4 CALLDATACOPY DUP1 DUP3 ADD SWAP2 POP POP SWAP1 POP JUMPDEST POP SWAP1 POP DUP8 DUP2 PUSH1 0x1 DUP2 MLOAD DUP2 LT PUSH2 0x2C64 JUMPI PUSH2 0x2C63 PUSH2 0x51EA JUMP JUMPDEST JUMPDEST PUSH1 0x20 MUL PUSH1 0x20 ADD ADD SWAP1 PUSH20 0xFFFFFFFFFFFFFFFFFFFFFFFFFFFFFFFFFFFFFFFF AND SWAP1 DUP2 PUSH20 0xFFFFFFFFFFFFFFFFFFFFFFFFFFFFFFFFFFFFFFFF AND DUP2 MSTORE POP POP PUSH0 DUP9 PUSH20 0xFFFFFFFFFFFFFFFFFFFFFFFFFFFFFFFFFFFFFFFF AND DUP7 PUSH20 0xFFFFFFFFFFFFFFFFFFFFFFFFFFFFFFFFFFFFFFFF AND SUB PUSH2 0x2DA8 JUMPI DUP5 DUP3 PUSH0 DUP2 MLOAD DUP2 LT PUSH2 0x2CE6 JUMPI PUSH2 0x2CE5 PUSH2 0x51EA JUMP JUMPDEST JUMPDEST PUSH1 0x20 MUL PUSH1 0x20 ADD ADD SWAP1 PUSH20 0xFFFFFFFFFFFFFFFFFFFFFFFFFFFFFFFFFFFFFFFF AND SWAP1 DUP2 PUSH20 0xFFFFFFFFFFFFFFFFFFFFFFFFFFFFFFFFFFFFFFFF AND DUP2 MSTORE POP POP DUP5 PUSH20 0xFFFFFFFFFFFFFFFFFFFFFFFFFFFFFFFFFFFFFFFF AND PUSH4 0x70A08231 ADDRESS PUSH1 0x40 MLOAD DUP3 PUSH4 0xFFFFFFFF AND PUSH1 0xE0 SHL DUP2 MSTORE PUSH1 0x4 ADD PUSH2 0x2D59 SWAP2 SWAP1 PUSH2 0x48E3 JUMP JUMPDEST PUSH1 0x20 PUSH1 0x40 MLOAD DUP1 DUP4 SUB DUP2 DUP7 GAS STATICCALL ISZERO DUP1 ISZERO PUSH2 0x2D74 JUMPI RETURNDATASIZE PUSH0 PUSH0 RETURNDATACOPY RETURNDATASIZE PUSH0 REVERT JUMPDEST POP POP POP POP PUSH1 0x40 MLOAD RETURNDATASIZE PUSH1 0x1F NOT PUSH1 0x1F DUP3 ADD AND DUP3 ADD DUP1 PUSH1 0x40 MSTORE POP DUP2 ADD SWAP1 PUSH2 0x2D98 SWAP2 SWAP1 PUSH2 0x4C5B JUMP JUMPDEST SWAP1 POP PUSH2 0x2DA3 DUP6 PUSH2 0x424B JUMP JUMPDEST PUSH2 0x2E7A JUMP JUMPDEST DUP6 DUP3 PUSH0 DUP2 MLOAD DUP2 LT PUSH2 0x2DBC JUMPI PUSH2 0x2DBB PUSH2 0x51EA JUMP JUMPDEST JUMPDEST PUSH1 0x20 MUL PUSH1 0x20 ADD ADD SWAP1 PUSH20 0xFFFFFFFFFFFFFFFFFFFFFFFFFFFFFFFFFFFFFFFF AND SWAP1 DUP2 PUSH20 0xFFFFFFFFFFFFFFFFFFFFFFFFFFFFFFFFFFFFFFFF AND DUP2 MSTORE POP POP DUP6 PUSH20 0xFFFFFFFFFFFFFFFFFFFFFFFFFFFFFFFFFFFFFFFF AND PUSH4 0x70A08231 ADDRESS PUSH1 0x40 MLOAD DUP3 PUSH4 0xFFFFFFFF AND PUSH1 0xE0 SHL DUP2 MSTORE PUSH1 0x4 ADD PUSH2 0x2E2F SWAP2 SWAP1 PUSH2 0x48E3 JUMP JUMPDEST PUSH1 0x20 PUSH1 0x40 MLOAD DUP1 DUP4 SUB DUP2 DUP7 GAS STATICCALL ISZERO DUP1 ISZERO PUSH2 0x2E4A JUMPI RETURNDATASIZE PUSH0 PUSH0 RETURNDATACOPY RETURNDATASIZE PUSH0 REVERT JUMPDEST POP POP POP POP PUSH1 0x40 MLOAD RETURNDATASIZE PUSH1 0x1F NOT PUSH1 0x1F DUP3 ADD AND DUP3 ADD DUP1 PUSH1 0x40 MSTORE POP DUP2 ADD SWAP1 PUSH2 0x2E6E SWAP2 SWAP1 PUSH2 0x4C5B JUMP JUMPDEST SWAP1 POP PUSH2 0x2E79 DUP7 PUSH2 0x424B JUMP JUMPDEST JUMPDEST PUSH1 0x3 PUSH0 SWAP1 SLOAD SWAP1 PUSH2 0x100 EXP SWAP1 DIV PUSH20 0xFFFFFFFFFFFFFFFFFFFFFFFFFFFFFFFFFFFFFFFF AND PUSH20 0xFFFFFFFFFFFFFFFFFFFFFFFFFFFFFFFFFFFFFFFF AND PUSH4 0x38ED1739 DUP3 DUP11 DUP6 ADDRESS TIMESTAMP PUSH1 0x40 MLOAD DUP7 PUSH4 0xFFFFFFFF AND PUSH1 0xE0 SHL DUP2 MSTORE PUSH1 0x4 ADD PUSH2 0x2EDC SWAP6 SWAP5 SWAP4 SWAP3 SWAP2 SWAP1 PUSH2 0x539E JUMP JUMPDEST PUSH0 PUSH1 0x40 MLOAD DUP1 DUP4 SUB DUP2 PUSH0 DUP8 GAS CALL ISZERO DUP1 ISZERO PUSH2 0x2EF7 JUMPI RETURNDATASIZE PUSH0 PUSH0 RETURNDATACOPY RETURNDATASIZE PUSH0 REVERT JUMPDEST POP POP POP POP PUSH1 0x40 MLOAD RETURNDATASIZE PUSH0 DUP3 RETURNDATACOPY RETURNDATASIZE PUSH1 0x1F NOT PUSH1 0x1F DUP3 ADD AND DUP3 ADD DUP1 PUSH1 0x40 MSTORE POP DUP2 ADD SWAP1 PUSH2 0x2F1F SWAP2 SWAP1 PUSH2 0x5519 JUMP JUMPDEST POP DUP9 PUSH20 0xFFFFFFFFFFFFFFFFFFFFFFFFFFFFFFFFFFFFFFFF AND PUSH4 0x70A08231 ADDRESS PUSH1 0x40 MLOAD DUP3 PUSH4 0xFFFFFFFF AND PUSH1 0xE0 SHL DUP2 MSTORE PUSH1 0x4 ADD PUSH2 0x2F59 SWAP2 SWAP1 PUSH2 0x48E3 JUMP JUMPDEST PUSH1 0x20 PUSH1 0x40 MLOAD DUP1 DUP4 SUB DUP2 DUP7 GAS STATICCALL ISZERO DUP1 ISZERO PUSH2 0x2F74 JUMPI RETURNDATASIZE PUSH0 PUSH0 RETURNDATACOPY RETURNDATASIZE PUSH0 REVERT JUMPDEST POP POP POP POP PUSH1 0x40 MLOAD RETURNDATASIZE PUSH1 0x1F NOT PUSH1 0x1F DUP3 ADD AND DUP3 ADD DUP1 PUSH1 0x40 MSTORE POP DUP2 ADD SWAP1 PUSH2 0x2F98 SWAP2 SWAP1 PUSH2 0x4C5B JUMP JUMPDEST SWAP7 POP POP POP POP POP POP POP SWAP4 SWAP3 POP POP POP JUMP JUMPDEST PUSH0 PUSH0 PUSH0 SWAP1 SLOAD SWAP1 PUSH2 0x100 EXP SWAP1 DIV PUSH20 0xFFFFFFFFFFFFFFFFFFFFFFFFFFFFFFFFFFFFFFFF AND SWAP1 POP DUP2 PUSH0 PUSH0 PUSH2 0x100 EXP DUP2 SLOAD DUP2 PUSH20 0xFFFFFFFFFFFFFFFFFFFFFFFFFFFFFFFFFFFFFFFF MUL NOT AND SWAP1 DUP4 PUSH20 0xFFFFFFFFFFFFFFFFFFFFFFFFFFFFFFFFFFFFFFFF AND MUL OR SWAP1 SSTORE POP DUP2 PUSH20 0xFFFFFFFFFFFFFFFFFFFFFFFFFFFFFFFFFFFFFFFF AND DUP2 PUSH20 0xFFFFFFFFFFFFFFFFFFFFFFFFFFFFFFFFFFFFFFFF AND PUSH32 0x8BE0079C531659141344CD1FD0A4F28419497F9722A3DAAFE3B4186F6B6457E0 PUSH1 0x40 MLOAD PUSH1 0x40 MLOAD DUP1 SWAP2 SUB SWAP1 LOG3 POP POP JUMP JUMPDEST PUSH0 PUSH0 DUP5 DUP7 PUSH2 0x3076 SWAP2 SWAP1 PUSH2 0x4CB3 JUMP JUMPDEST DUP5 DUP9 PUSH2 0x3082 SWAP2 SWAP1 PUSH2 0x4CB3 JUMP JUMPDEST GT PUSH2 0x308D JUMPI PUSH0 PUSH2 0x3090 JUMP JUMPDEST PUSH1 0x1 JUMPDEST SWAP1 POP DUP3 ISZERO ISZERO DUP2 ISZERO ISZERO EQ PUSH2 0x30D8 JUMPI PUSH1 0x40 MLOAD PUSH32 0x8C379A000000000000000000000000000000000000000000000000000000000 DUP2 MSTORE PUSH1 0x4 ADD PUSH2 0x30CF SWAP1 PUSH2 0x583E JUMP JUMPDEST PUSH1 0x40 MLOAD DUP1 SWAP2 SUB SWAP1 REVERT JUMPDEST DUP1 ISZERO PUSH2 0x32F6 JUMPI PUSH0 PUSH1 0x2 DUP6 DUP8 DUP10 PUSH2 0x30EE SWAP2 SWAP1 PUSH2 0x4CB3 JUMP JUMPDEST PUSH2 0x30F8 SWAP2 SWAP1 PUSH2 0x4D21 JUMP JUMPDEST DUP10 PUSH2 0x3103 SWAP2 SWAP1 PUSH2 0x50C0 JUMP JUMPDEST PUSH2 0x310D SWAP2 SWAP1 PUSH2 0x4D21 JUMP JUMPDEST SWAP1 POP PUSH0 PUSH1 0x3 PUSH0 SWAP1 SLOAD SWAP1 PUSH2 0x100 EXP SWAP1 DIV PUSH20 0xFFFFFFFFFFFFFFFFFFFFFFFFFFFFFFFFFFFFFFFF AND PUSH20 0xFFFFFFFFFFFFFFFFFFFFFFFFFFFFFFFFFFFFFFFF AND PUSH4 0x54D50D4 DUP4 DUP10 DUP10 PUSH1 0x40 MLOAD DUP5 PUSH4 0xFFFFFFFF AND PUSH1 0xE0 SHL DUP2 MSTORE PUSH1 0x4 ADD PUSH2 0x316E SWAP4 SWAP3 SWAP2 SWAP1 PUSH2 0x4D51 JUMP JUMPDEST PUSH1 0x20 PUSH1 0x40 MLOAD DUP1 DUP4 SUB DUP2 DUP7 GAS STATICCALL ISZERO DUP1 ISZERO PUSH2 0x3189 JUMPI RETURNDATASIZE PUSH0 PUSH0 RETURNDATACOPY RETURNDATASIZE PUSH0 REVERT JUMPDEST POP POP POP POP PUSH1 0x40 MLOAD RETURNDATASIZE PUSH1 0x1F NOT PUSH1 0x1F DUP3 ADD AND DUP3 ADD DUP1 PUSH1 0x40 MSTORE POP DUP2 ADD SWAP1 PUSH2 0x31AD SWAP2 SWAP1 PUSH2 0x4C5B JUMP JUMPDEST SWAP1 POP PUSH0 PUSH1 0x3 PUSH0 SWAP1 SLOAD SWAP1 PUSH2 0x100 EXP SWAP1 DIV PUSH20 0xFFFFFFFFFFFFFFFFFFFFFFFFFFFFFFFFFFFFFFFF AND PUSH20 0xFFFFFFFFFFFFFFFFFFFFFFFFFFFFFFFFFFFFFFFF AND PUSH4 0xAD615DEC DUP5 DUP6 DUP12 PUSH2 0x31FA SWAP2 SWAP1 PUSH2 0x508D JUMP JUMPDEST DUP6 DUP12 PUSH2 0x3206 SWAP2 SWAP1 PUSH2 0x50C0 JUMP JUMPDEST PUSH1 0x40 MLOAD DUP5 PUSH4 0xFFFFFFFF AND PUSH1 0xE0 SHL DUP2 MSTORE PUSH1 0x4 ADD PUSH2 0x3224 SWAP4 SWAP3 SWAP2 SWAP1 PUSH2 0x4D51 JUMP JUMPDEST PUSH1 0x20 PUSH1 0x40 MLOAD DUP1 DUP4 SUB DUP2 DUP7 GAS STATICCALL ISZERO DUP1 ISZERO PUSH2 0x323F JUMPI RETURNDATASIZE PUSH0 PUSH0 RETURNDATACOPY RETURNDATASIZE PUSH0 REVERT JUMPDEST POP POP POP POP PUSH1 0x40 MLOAD RETURNDATASIZE PUSH1 0x1F NOT PUSH1 0x1F DUP3 ADD AND DUP3 ADD DUP1 PUSH1 0x40 MSTORE POP DUP2 ADD SWAP1 PUSH2 0x3263 SWAP2 SWAP1 PUSH2 0x4C5B JUMP JUMPDEST SWAP1 POP PUSH1 0x2 DUP3 DUP9 PUSH2 0x3273 SWAP2 SWAP1 PUSH2 0x50C0 JUMP JUMPDEST DUP5 DUP11 PUSH2 0x327F SWAP2 SWAP1 PUSH2 0x508D JUMP JUMPDEST DUP12 PUSH2 0x328A SWAP2 SWAP1 PUSH2 0x4CB3 JUMP JUMPDEST PUSH2 0x3294 SWAP2 SWAP1 PUSH2 0x4D21 JUMP JUMPDEST DUP12 PUSH2 0x329F SWAP2 SWAP1 PUSH2 0x50C0 JUMP JUMPDEST PUSH2 0x32A9 SWAP2 SWAP1 PUSH2 0x4D21 JUMP JUMPDEST SWAP3 POP PUSH2 0x32D5 DUP2 DUP4 DUP6 DUP7 PUSH2 0x32BC SWAP2 SWAP1 PUSH2 0x4CB3 JUMP JUMPDEST PUSH2 0x32C6 SWAP2 SWAP1 PUSH2 0x4CB3 JUMP JUMPDEST PUSH2 0x32D0 SWAP2 SWAP1 PUSH2 0x4D21 JUMP JUMPDEST PUSH2 0x3FF0 JUMP JUMPDEST DUP4 PUSH1 0x2 PUSH2 0x32E2 SWAP2 SWAP1 PUSH2 0x4CB3 JUMP JUMPDEST PUSH2 0x32EC SWAP2 SWAP1 PUSH2 0x50C0 JUMP JUMPDEST SWAP5 POP POP POP POP PUSH2 0x350A JUMP JUMPDEST PUSH0 PUSH1 0x2 DUP7 DUP7 DUP11 PUSH2 0x3306 SWAP2 SWAP1 PUSH2 0x4CB3 JUMP JUMPDEST PUSH2 0x3310 SWAP2 SWAP1 PUSH2 0x4D21 JUMP JUMPDEST DUP9 PUSH2 0x331B SWAP2 SWAP1 PUSH2 0x50C0 JUMP JUMPDEST PUSH2 0x3325 SWAP2 SWAP1 PUSH2 0x4D21 JUMP JUMPDEST SWAP1 POP PUSH0 PUSH1 0x3 PUSH0 SWAP1 SLOAD SWAP1 PUSH2 0x100 EXP SWAP1 DIV PUSH20 0xFFFFFFFFFFFFFFFFFFFFFFFFFFFFFFFFFFFFFFFF AND PUSH20 0xFFFFFFFFFFFFFFFFFFFFFFFFFFFFFFFFFFFFFFFF AND PUSH4 0x54D50D4 DUP4 DUP9 DUP11 PUSH1 0x40 MLOAD DUP5 PUSH4 0xFFFFFFFF AND PUSH1 0xE0 SHL DUP2 MSTORE PUSH1 0x4 ADD PUSH2 0x3386 SWAP4 SWAP3 SWAP2 SWAP1 PUSH2 0x4D51 JUMP JUMPDEST PUSH1 0x20 PUSH1 0x40 MLOAD DUP1 DUP4 SUB DUP2 DUP7 GAS STATICCALL ISZERO DUP1 ISZERO PUSH2 0x33A1 JUMPI RETURNDATASIZE PUSH0 PUSH0 RETURNDATACOPY RETURNDATASIZE PUSH0 REVERT JUMPDEST POP POP POP POP PUSH1 0x40 MLOAD RETURNDATASIZE PUSH1 0x1F NOT PUSH1 0x1F DUP3 ADD AND DUP3 ADD DUP1 PUSH1 0x40 MSTORE POP DUP2 ADD SWAP1 PUSH2 0x33C5 SWAP2 SWAP1 PUSH2 0x4C5B JUMP JUMPDEST SWAP1 POP PUSH0 PUSH1 0x3 PUSH0 SWAP1 SLOAD SWAP1 PUSH2 0x100 EXP SWAP1 DIV PUSH20 0xFFFFFFFFFFFFFFFFFFFFFFFFFFFFFFFFFFFFFFFF AND PUSH20 0xFFFFFFFFFFFFFFFFFFFFFFFFFFFFFFFFFFFFFFFF AND PUSH4 0xAD615DEC DUP5 DUP6 DUP11 PUSH2 0x3412 SWAP2 SWAP1 PUSH2 0x508D JUMP JUMPDEST DUP6 DUP13 PUSH2 0x341E SWAP2 SWAP1 PUSH2 0x50C0 JUMP JUMPDEST PUSH1 0x40 MLOAD DUP5 PUSH4 0xFFFFFFFF AND PUSH1 0xE0 SHL DUP2 MSTORE PUSH1 0x4 ADD PUSH2 0x343C SWAP4 SWAP3 SWAP2 SWAP1 PUSH2 0x4D51 JUMP JUMPDEST PUSH1 0x20 PUSH1 0x40 MLOAD DUP1 DUP4 SUB DUP2 DUP7 GAS STATICCALL ISZERO DUP1 ISZERO PUSH2 0x3457 JUMPI RETURNDATASIZE PUSH0 PUSH0 RETURNDATACOPY RETURNDATASIZE PUSH0 REVERT JUMPDEST POP POP POP POP PUSH1 0x40 MLOAD RETURNDATASIZE PUSH1 0x1F NOT PUSH1 0x1F DUP3 ADD AND DUP3 ADD DUP1 PUSH1 0x40 MSTORE POP DUP2 ADD SWAP1 PUSH2 0x347B SWAP2 SWAP1 PUSH2 0x4C5B JUMP JUMPDEST SWAP1 POP PUSH1 0x2 DUP3 DUP10 PUSH2 0x348B SWAP2 SWAP1 PUSH2 0x50C0 JUMP JUMPDEST DUP5 DUP10 PUSH2 0x3497 SWAP2 SWAP1 PUSH2 0x508D JUMP JUMPDEST DUP13 PUSH2 0x34A2 SWAP2 SWAP1 PUSH2 0x4CB3 JUMP JUMPDEST PUSH2 0x34AC SWAP2 SWAP1 PUSH2 0x4D21 JUMP JUMPDEST DUP11 PUSH2 0x34B7 SWAP2 SWAP1 PUSH2 0x50C0 JUMP JUMPDEST PUSH2 0x34C1 SWAP2 SWAP1 PUSH2 0x4D21 JUMP JUMPDEST SWAP3 POP PUSH2 0x34ED DUP2 DUP4 DUP6 DUP7 PUSH2 0x34D4 SWAP2 SWAP1 PUSH2 0x4CB3 JUMP JUMPDEST PUSH2 0x34DE SWAP2 SWAP1 PUSH2 0x4CB3 JUMP JUMPDEST PUSH2 0x34E8 SWAP2 SWAP1 PUSH2 0x4D21 JUMP JUMPDEST PUSH2 0x3FF0 JUMP JUMPDEST DUP4 PUSH1 0x2 PUSH2 0x34FA SWAP2 SWAP1 PUSH2 0x4CB3 JUMP JUMPDEST PUSH2 0x3504 SWAP2 SWAP1 PUSH2 0x50C0 JUMP JUMPDEST SWAP5 POP POP POP POP JUMPDEST POP SWAP6 SWAP5 POP POP POP POP POP JUMP JUMPDEST PUSH0 DUP5 PUSH20 0xFFFFFFFFFFFFFFFFFFFFFFFFFFFFFFFFFFFFFFFF AND PUSH4 0xDFE1681 PUSH1 0x40 MLOAD DUP2 PUSH4 0xFFFFFFFF AND PUSH1 0xE0 SHL DUP2 MSTORE PUSH1 0x4 ADD PUSH1 0x20 PUSH1 0x40 MLOAD DUP1 DUP4 SUB DUP2 DUP7 GAS STATICCALL ISZERO DUP1 ISZERO PUSH2 0x355E JUMPI RETURNDATASIZE PUSH0 PUSH0 RETURNDATACOPY RETURNDATASIZE PUSH0 REVERT JUMPDEST POP POP POP POP PUSH1 0x40 MLOAD RETURNDATASIZE PUSH1 0x1F NOT PUSH1 0x1F DUP3 ADD AND DUP3 ADD DUP1 PUSH1 0x40 MSTORE POP DUP2 ADD SWAP1 PUSH2 0x3582 SWAP2 SWAP1 PUSH2 0x4AD8 JUMP JUMPDEST PUSH20 0xFFFFFFFFFFFFFFFFFFFFFFFFFFFFFFFFFFFFFFFF AND DUP10 PUSH20 0xFFFFFFFFFFFFFFFFFFFFFFFFFFFFFFFFFFFFFFFF AND EQ DUP1 PUSH2 0x3652 JUMPI POP DUP5 PUSH20 0xFFFFFFFFFFFFFFFFFFFFFFFFFFFFFFFFFFFFFFFF AND PUSH4 0xD21220A7 PUSH1 0x40 MLOAD DUP2 PUSH4 0xFFFFFFFF AND PUSH1 0xE0 SHL DUP2 MSTORE PUSH1 0x4 ADD PUSH1 0x20 PUSH1 0x40 MLOAD DUP1 DUP4 SUB DUP2 DUP7 GAS STATICCALL ISZERO DUP1 ISZERO PUSH2 0x35FF JUMPI RETURNDATASIZE PUSH0 PUSH0 RETURNDATACOPY RETURNDATASIZE PUSH0 REVERT JUMPDEST POP POP POP POP PUSH1 0x40 MLOAD RETURNDATASIZE PUSH1 0x1F NOT PUSH1 0x1F DUP3 ADD AND DUP3 ADD DUP1 PUSH1 0x40 MSTORE POP DUP2 ADD SWAP1 PUSH2 0x3623 SWAP2 SWAP1 PUSH2 0x4AD8 JUMP JUMPDEST PUSH20 0xFFFFFFFFFFFFFFFFFFFFFFFFFFFFFFFFFFFFFFFF AND DUP10 PUSH20 0xFFFFFFFFFFFFFFFFFFFFFFFFFFFFFFFFFFFFFFFF AND EQ JUMPDEST PUSH2 0x3691 JUMPI PUSH1 0x40 MLOAD PUSH32 0x8C379A000000000000000000000000000000000000000000000000000000000 DUP2 MSTORE PUSH1 0x4 ADD PUSH2 0x3688 SWAP1 PUSH2 0x4F5C JUMP JUMPDEST PUSH1 0x40 MLOAD DUP1 SWAP2 SUB SWAP1 REVERT JUMPDEST DUP5 PUSH20 0xFFFFFFFFFFFFFFFFFFFFFFFFFFFFFFFFFFFFFFFF AND PUSH4 0xDFE1681 PUSH1 0x40 MLOAD DUP2 PUSH4 0xFFFFFFFF AND PUSH1 0xE0 SHL DUP2 MSTORE PUSH1 0x4 ADD PUSH1 0x20 PUSH1 0x40 MLOAD DUP1 DUP4 SUB DUP2 DUP7 GAS STATICCALL ISZERO DUP1 ISZERO PUSH2 0x36DA JUMPI RETURNDATASIZE PUSH0 PUSH0 RETURNDATACOPY RETURNDATASIZE PUSH0 REVERT JUMPDEST POP POP POP POP PUSH1 0x40 MLOAD RETURNDATASIZE PUSH1 0x1F NOT PUSH1 0x1F DUP3 ADD AND DUP3 ADD DUP1 PUSH1 0x40 MSTORE POP DUP2 ADD SWAP1 PUSH2 0x36FE SWAP2 SWAP1 PUSH2 0x4AD8 JUMP JUMPDEST PUSH20 0xFFFFFFFFFFFFFFFFFFFFFFFFFFFFFFFFFFFFFFFF AND DUP9 PUSH20 0xFFFFFFFFFFFFFFFFFFFFFFFFFFFFFFFFFFFFFFFF AND EQ DUP1 PUSH2 0x37CE JUMPI POP DUP5 PUSH20 0xFFFFFFFFFFFFFFFFFFFFFFFFFFFFFFFFFFFFFFFF AND PUSH4 0xD21220A7 PUSH1 0x40 MLOAD DUP2 PUSH4 0xFFFFFFFF AND PUSH1 0xE0 SHL DUP2 MSTORE PUSH1 0x4 ADD PUSH1 0x20 PUSH1 0x40 MLOAD DUP1 DUP4 SUB DUP2 DUP7 GAS STATICCALL ISZERO DUP1 ISZERO PUSH2 0x377B JUMPI RETURNDATASIZE PUSH0 PUSH0 RETURNDATACOPY RETURNDATASIZE PUSH0 REVERT JUMPDEST POP POP POP POP PUSH1 0x40 MLOAD RETURNDATASIZE PUSH1 0x1F NOT PUSH1 0x1F DUP3 ADD AND DUP3 ADD DUP1 PUSH1 0x40 MSTORE POP DUP2 ADD SWAP1 PUSH2 0x379F SWAP2 SWAP1 PUSH2 0x4AD8 JUMP JUMPDEST PUSH20 0xFFFFFFFFFFFFFFFFFFFFFFFFFFFFFFFFFFFFFFFF AND DUP9 PUSH20 0xFFFFFFFFFFFFFFFFFFFFFFFFFFFFFFFFFFFFFFFF AND EQ JUMPDEST PUSH2 0x380D JUMPI PUSH1 0x40 MLOAD PUSH32 0x8C379A000000000000000000000000000000000000000000000000000000000 DUP2 MSTORE PUSH1 0x4 ADD PUSH2 0x3804 SWAP1 PUSH2 0x4FC4 JUMP JUMPDEST PUSH1 0x40 MLOAD DUP1 SWAP2 SUB SWAP1 REVERT JUMPDEST DUP8 PUSH20 0xFFFFFFFFFFFFFFFFFFFFFFFFFFFFFFFFFFFFFFFF AND DUP10 PUSH20 0xFFFFFFFFFFFFFFFFFFFFFFFFFFFFFFFFFFFFFFFF AND SUB PUSH2 0x387B JUMPI PUSH1 0x40 MLOAD PUSH32 0x8C379A000000000000000000000000000000000000000000000000000000000 DUP2 MSTORE PUSH1 0x4 ADD PUSH2 0x3872 SWAP1 PUSH2 0x502C JUMP JUMPDEST PUSH1 0x40 MLOAD DUP1 SWAP2 SUB SWAP1 REVERT JUMPDEST PUSH0 PUSH0 PUSH0 DUP8 PUSH20 0xFFFFFFFFFFFFFFFFFFFFFFFFFFFFFFFFFFFFFFFF AND PUSH4 0x902F1AC PUSH1 0x40 MLOAD DUP2 PUSH4 0xFFFFFFFF AND PUSH1 0xE0 SHL DUP2 MSTORE PUSH1 0x4 ADD PUSH1 0x60 PUSH1 0x40 MLOAD DUP1 DUP4 SUB DUP2 DUP7 GAS STATICCALL ISZERO DUP1 ISZERO PUSH2 0x38C7 JUMPI RETURNDATASIZE PUSH0 PUSH0 RETURNDATACOPY RETURNDATASIZE PUSH0 REVERT JUMPDEST POP POP POP POP PUSH1 0x40 MLOAD RETURNDATASIZE PUSH1 0x1F NOT PUSH1 0x1F DUP3 ADD AND DUP3 ADD DUP1 PUSH1 0x40 MSTORE POP DUP2 ADD SWAP1 PUSH2 0x38EB SWAP2 SWAP1 PUSH2 0x4BF7 JUMP JUMPDEST POP PUSH14 0xFFFFFFFFFFFFFFFFFFFFFFFFFFFF AND SWAP2 POP PUSH14 0xFFFFFFFFFFFFFFFFFFFFFFFFFFFF AND SWAP2 POP PUSH2 0x3E8 DUP3 LT ISZERO DUP1 ISZERO PUSH2 0x3924 JUMPI POP PUSH2 0x3E8 DUP2 LT ISZERO JUMPDEST PUSH2 0x3963 JUMPI PUSH1 0x40 MLOAD PUSH32 0x8C379A000000000000000000000000000000000000000000000000000000000 DUP2 MSTORE PUSH1 0x4 ADD PUSH2 0x395A SWAP1 PUSH2 0x5261 JUMP JUMPDEST PUSH1 0x40 MLOAD DUP1 SWAP2 SUB SWAP1 REVERT JUMPDEST DUP8 PUSH20 0xFFFFFFFFFFFFFFFFFFFFFFFFFFFFFFFFFFFFFFFF AND PUSH4 0xDFE1681 PUSH1 0x40 MLOAD DUP2 PUSH4 0xFFFFFFFF AND PUSH1 0xE0 SHL DUP2 MSTORE PUSH1 0x4 ADD PUSH1 0x20 PUSH1 0x40 MLOAD DUP1 DUP4 SUB DUP2 DUP7 GAS STATICCALL ISZERO DUP1 ISZERO PUSH2 0x39AC JUMPI RETURNDATASIZE PUSH0 PUSH0 RETURNDATACOPY RETURNDATASIZE PUSH0 REVERT JUMPDEST POP POP POP POP PUSH1 0x40 MLOAD RETURNDATASIZE PUSH1 0x1F NOT PUSH1 0x1F DUP3 ADD AND DUP3 ADD DUP1 PUSH1 0x40 MSTORE POP DUP2 ADD SWAP1 PUSH2 0x39D0 SWAP2 SWAP1 PUSH2 0x4AD8 JUMP JUMPDEST PUSH20 0xFFFFFFFFFFFFFFFFFFFFFFFFFFFFFFFFFFFFFFFF AND DUP13 PUSH20 0xFFFFFFFFFFFFFFFFFFFFFFFFFFFFFFFFFFFFFFFF AND SUB PUSH2 0x3A66 JUMPI PUSH2 0x3A0F DUP11 DUP11 DUP5 DUP5 DUP10 PUSH2 0x3068 JUMP JUMPDEST SWAP3 POP PUSH1 0x4 SLOAD DUP4 DUP4 PUSH2 0x3A20 SWAP2 SWAP1 PUSH2 0x4D21 JUMP JUMPDEST LT ISZERO PUSH2 0x3A61 JUMPI PUSH1 0x40 MLOAD PUSH32 0x8C379A000000000000000000000000000000000000000000000000000000000 DUP2 MSTORE PUSH1 0x4 ADD PUSH2 0x3A58 SWAP1 PUSH2 0x52C9 JUMP JUMPDEST PUSH1 0x40 MLOAD DUP1 SWAP2 SUB SWAP1 REVERT JUMPDEST PUSH2 0x3AC6 JUMP JUMPDEST PUSH2 0x3A73 DUP11 DUP11 DUP4 DUP6 DUP10 PUSH2 0x3068 JUMP JUMPDEST SWAP3 POP PUSH1 0x4 SLOAD DUP4 DUP3 PUSH2 0x3A84 SWAP2 SWAP1 PUSH2 0x4D21 JUMP JUMPDEST LT ISZERO PUSH2 0x3AC5 JUMPI PUSH1 0x40 MLOAD PUSH32 0x8C379A000000000000000000000000000000000000000000000000000000000 DUP2 MSTORE PUSH1 0x4 ADD PUSH2 0x3ABC SWAP1 PUSH2 0x52C9 JUMP JUMPDEST PUSH1 0x40 MLOAD DUP1 SWAP2 SUB SWAP1 REVERT JUMPDEST JUMPDEST POP POP DUP5 DUP2 GT ISZERO PUSH2 0x3B0B JUMPI PUSH1 0x40 MLOAD PUSH32 0x8C379A000000000000000000000000000000000000000000000000000000000 DUP2 MSTORE PUSH1 0x4 ADD PUSH2 0x3B02 SWAP1 PUSH2 0x58A6 JUMP JUMPDEST PUSH1 0x40 MLOAD DUP1 SWAP2 SUB SWAP1 REVERT JUMPDEST PUSH0 PUSH1 0x2 PUSH8 0xFFFFFFFFFFFFFFFF DUP2 GT ISZERO PUSH2 0x3B27 JUMPI PUSH2 0x3B26 PUSH2 0x4E15 JUMP JUMPDEST JUMPDEST PUSH1 0x40 MLOAD SWAP1 DUP1 DUP3 MSTORE DUP1 PUSH1 0x20 MUL PUSH1 0x20 ADD DUP3 ADD PUSH1 0x40 MSTORE DUP1 ISZERO PUSH2 0x3B55 JUMPI DUP2 PUSH1 0x20 ADD PUSH1 0x20 DUP3 MUL DUP1 CALLDATASIZE DUP4 CALLDATACOPY DUP1 DUP3 ADD SWAP2 POP POP SWAP1 POP JUMPDEST POP SWAP1 POP DUP4 ISZERO PUSH2 0x3C09 JUMPI DUP11 DUP2 PUSH0 DUP2 MLOAD DUP2 LT PUSH2 0x3B72 JUMPI PUSH2 0x3B71 PUSH2 0x51EA JUMP JUMPDEST JUMPDEST PUSH1 0x20 MUL PUSH1 0x20 ADD ADD SWAP1 PUSH20 0xFFFFFFFFFFFFFFFFFFFFFFFFFFFFFFFFFFFFFFFF AND SWAP1 DUP2 PUSH20 0xFFFFFFFFFFFFFFFFFFFFFFFFFFFFFFFFFFFFFFFF AND DUP2 MSTORE POP POP DUP10 DUP2 PUSH1 0x1 DUP2 MLOAD DUP2 LT PUSH2 0x3BC1 JUMPI PUSH2 0x3BC0 PUSH2 0x51EA JUMP JUMPDEST JUMPDEST PUSH1 0x20 MUL PUSH1 0x20 ADD ADD SWAP1 PUSH20 0xFFFFFFFFFFFFFFFFFFFFFFFFFFFFFFFFFFFFFFFF AND SWAP1 DUP2 PUSH20 0xFFFFFFFFFFFFFFFFFFFFFFFFFFFFFFFFFFFFFFFF AND DUP2 MSTORE POP POP PUSH2 0x3C04 DUP12 PUSH2 0x424B JUMP JUMPDEST PUSH2 0x3CB0 JUMP JUMPDEST DUP10 DUP2 PUSH0 DUP2 MLOAD DUP2 LT PUSH2 0x3C1D JUMPI PUSH2 0x3C1C PUSH2 0x51EA JUMP JUMPDEST JUMPDEST PUSH1 0x20 MUL PUSH1 0x20 ADD ADD SWAP1 PUSH20 0xFFFFFFFFFFFFFFFFFFFFFFFFFFFFFFFFFFFFFFFF AND SWAP1 DUP2 PUSH20 0xFFFFFFFFFFFFFFFFFFFFFFFFFFFFFFFFFFFFFFFF AND DUP2 MSTORE POP POP DUP11 DUP2 PUSH1 0x1 DUP2 MLOAD DUP2 LT PUSH2 0x3C6C JUMPI PUSH2 0x3C6B PUSH2 0x51EA JUMP JUMPDEST JUMPDEST PUSH1 0x20 MUL PUSH1 0x20 ADD ADD SWAP1 PUSH20 0xFFFFFFFFFFFFFFFFFFFFFFFFFFFFFFFFFFFFFFFF AND SWAP1 DUP2 PUSH20 0xFFFFFFFFFFFFFFFFFFFFFFFFFFFFFFFFFFFFFFFF AND DUP2 MSTORE POP POP PUSH2 0x3CAF DUP11 PUSH2 0x424B JUMP JUMPDEST JUMPDEST PUSH0 PUSH1 0x3 PUSH0 SWAP1 SLOAD SWAP1 PUSH2 0x100 EXP SWAP1 DIV PUSH20 0xFFFFFFFFFFFFFFFFFFFFFFFFFFFFFFFFFFFFFFFF AND PUSH20 0xFFFFFFFFFFFFFFFFFFFFFFFFFFFFFFFFFFFFFFFF AND PUSH4 0x38ED1739 DUP5 DUP9 DUP6 ADDRESS TIMESTAMP PUSH1 0x40 MLOAD DUP7 PUSH4 0xFFFFFFFF AND PUSH1 0xE0 SHL DUP2 MSTORE PUSH1 0x4 ADD PUSH2 0x3D13 SWAP6 SWAP5 SWAP4 SWAP3 SWAP2 SWAP1 PUSH2 0x539E JUMP JUMPDEST PUSH0 PUSH1 0x40 MLOAD DUP1 DUP4 SUB DUP2 PUSH0 DUP8 GAS CALL ISZERO DUP1 ISZERO PUSH2 0x3D2E JUMPI RETURNDATASIZE PUSH0 PUSH0 RETURNDATACOPY RETURNDATASIZE PUSH0 REVERT JUMPDEST POP POP POP POP PUSH1 0x40 MLOAD RETURNDATASIZE PUSH0 DUP3 RETURNDATACOPY RETURNDATASIZE PUSH1 0x1F NOT PUSH1 0x1F DUP3 ADD AND DUP3 ADD DUP1 PUSH1 0x40 MSTORE POP DUP2 ADD SWAP1 PUSH2 0x3D56 SWAP2 SWAP1 PUSH2 0x5519 JUMP JUMPDEST SWAP1 POP DUP5 ISZERO PUSH2 0x3E9E JUMPI PUSH2 0x3D67 DUP12 PUSH2 0x424B JUMP JUMPDEST PUSH1 0x3 PUSH0 SWAP1 SLOAD SWAP1 PUSH2 0x100 EXP SWAP1 DIV PUSH20 0xFFFFFFFFFFFFFFFFFFFFFFFFFFFFFFFFFFFFFFFF AND PUSH20 0xFFFFFFFFFFFFFFFFFFFFFFFFFFFFFFFFFFFFFFFF AND PUSH4 0xE8E33700 DUP4 PUSH0 DUP2 MLOAD DUP2 LT PUSH2 0x3DB7 JUMPI PUSH2 0x3DB6 PUSH2 0x51EA JUMP JUMPDEST JUMPDEST PUSH1 0x20 MUL PUSH1 0x20 ADD ADD MLOAD DUP5 PUSH1 0x1 DUP2 MLOAD DUP2 LT PUSH2 0x3DD3 JUMPI PUSH2 0x3DD2 PUSH2 0x51EA JUMP JUMPDEST JUMPDEST PUSH1 0x20 MUL PUSH1 0x20 ADD ADD MLOAD DUP5 PUSH0 DUP2 MLOAD DUP2 LT PUSH2 0x3DEE JUMPI PUSH2 0x3DED PUSH2 0x51EA JUMP JUMPDEST JUMPDEST PUSH1 0x20 MUL PUSH1 0x20 ADD ADD MLOAD DUP15 PUSH2 0x3E01 SWAP2 SWAP1 PUSH2 0x50C0 JUMP JUMPDEST DUP6 PUSH1 0x1 DUP2 MLOAD DUP2 LT PUSH2 0x3E15 JUMPI PUSH2 0x3E14 PUSH2 0x51EA JUMP JUMPDEST JUMPDEST PUSH1 0x20 MUL PUSH1 0x20 ADD ADD MLOAD DUP15 PUSH2 0x3E28 SWAP2 SWAP1 PUSH2 0x508D JUMP JUMPDEST PUSH1 0x1 DUP1 CALLER TIMESTAMP PUSH1 0x40 MLOAD DUP10 PUSH4 0xFFFFFFFF AND PUSH1 0xE0 SHL DUP2 MSTORE PUSH1 0x4 ADD PUSH2 0x3E50 SWAP9 SWAP8 SWAP7 SWAP6 SWAP5 SWAP4 SWAP3 SWAP2 SWAP1 PUSH2 0x5599 JUMP JUMPDEST PUSH1 0x60 PUSH1 0x40 MLOAD DUP1 DUP4 SUB DUP2 PUSH0 DUP8 GAS CALL ISZERO DUP1 ISZERO PUSH2 0x3E6C JUMPI RETURNDATASIZE PUSH0 PUSH0 RETURNDATACOPY RETURNDATASIZE PUSH0 REVERT JUMPDEST POP POP POP POP PUSH1 0x40 MLOAD RETURNDATASIZE PUSH1 0x1F NOT PUSH1 0x1F DUP3 ADD AND DUP3 ADD DUP1 PUSH1 0x40 MSTORE POP DUP2 ADD SWAP1 PUSH2 0x3E90 SWAP2 SWAP1 PUSH2 0x5615 JUMP JUMPDEST SWAP1 SWAP2 POP SWAP1 POP DUP1 SWAP5 POP POP PUSH2 0x3FDA JUMP JUMPDEST PUSH2 0x3EA7 DUP13 PUSH2 0x424B JUMP JUMPDEST PUSH1 0x3 PUSH0 SWAP1 SLOAD SWAP1 PUSH2 0x100 EXP SWAP1 DIV PUSH20 0xFFFFFFFFFFFFFFFFFFFFFFFFFFFFFFFFFFFFFFFF AND PUSH20 0xFFFFFFFFFFFFFFFFFFFFFFFFFFFFFFFFFFFFFFFF AND PUSH4 0xE8E33700 DUP4 PUSH0 DUP2 MLOAD DUP2 LT PUSH2 0x3EF7 JUMPI PUSH2 0x3EF6 PUSH2 0x51EA JUMP JUMPDEST JUMPDEST PUSH1 0x20 MUL PUSH1 0x20 ADD ADD MLOAD DUP5 PUSH1 0x1 DUP2 MLOAD DUP2 LT PUSH2 0x3F13 JUMPI PUSH2 0x3F12 PUSH2 0x51EA JUMP JUMPDEST JUMPDEST PUSH1 0x20 MUL PUSH1 0x20 ADD ADD MLOAD DUP5 PUSH0 DUP2 MLOAD DUP2 LT PUSH2 0x3F2E JUMPI PUSH2 0x3F2D PUSH2 0x51EA JUMP JUMPDEST JUMPDEST PUSH1 0x20 MUL PUSH1 0x20 ADD ADD MLOAD DUP14 PUSH2 0x3F41 SWAP2 SWAP1 PUSH2 0x50C0 JUMP JUMPDEST DUP6 PUSH1 0x1 DUP2 MLOAD DUP2 LT PUSH2 0x3F55 JUMPI PUSH2 0x3F54 PUSH2 0x51EA JUMP JUMPDEST JUMPDEST PUSH1 0x20 MUL PUSH1 0x20 ADD ADD MLOAD DUP16 PUSH2 0x3F68 SWAP2 SWAP1 PUSH2 0x508D JUMP JUMPDEST PUSH1 0x1 DUP1 CALLER TIMESTAMP PUSH1 0x40 MLOAD DUP10 PUSH4 0xFFFFFFFF AND PUSH1 0xE0 SHL DUP2 MSTORE PUSH1 0x4 ADD PUSH2 0x3F90 SWAP9 SWAP8 SWAP7 SWAP6 SWAP5 SWAP4 SWAP3 SWAP2 SWAP1 PUSH2 0x5599 JUMP JUMPDEST PUSH1 0x60 PUSH1 0x40 MLOAD DUP1 DUP4 SUB DUP2 PUSH0 DUP8 GAS CALL ISZERO DUP1 ISZERO PUSH2 0x3FAC JUMPI RETURNDATASIZE PUSH0 PUSH0 RETURNDATACOPY RETURNDATASIZE PUSH0 REVERT JUMPDEST POP POP POP POP PUSH1 0x40 MLOAD RETURNDATASIZE PUSH1 0x1F NOT PUSH1 0x1F DUP3 ADD AND DUP3 ADD DUP1 PUSH1 0x40 MSTORE POP DUP2 ADD SWAP1 PUSH2 0x3FD0 SWAP2 SWAP1 PUSH2 0x5615 JUMP JUMPDEST SWAP1 SWAP2 POP SWAP1 POP DUP1 SWAP5 POP POP JUMPDEST POP POP POP SWAP9 SWAP8 POP POP POP POP POP POP POP POP JUMP JUMPDEST PUSH0 CALLER SWAP1 POP SWAP1 JUMP JUMPDEST PUSH0 PUSH0 DUP3 SUB PUSH2 0x4000 JUMPI PUSH0 SWAP1 POP PUSH2 0x41B1 JUMP JUMPDEST PUSH0 DUP3 SWAP1 POP PUSH0 PUSH1 0x1 SWAP1 POP PUSH17 0x100000000000000000000000000000000 DUP3 LT PUSH2 0x4030 JUMPI PUSH1 0x80 DUP3 SWAP1 SHR SWAP2 POP PUSH1 0x40 DUP2 SWAP1 SHL SWAP1 POP JUMPDEST PUSH9 0x10000000000000000 DUP3 LT PUSH2 0x404F JUMPI PUSH1 0x40 DUP3 SWAP1 SHR SWAP2 POP PUSH1 0x20 DUP2 SWAP1 SHL SWAP1 POP JUMPDEST PUSH5 0x100000000 DUP3 LT PUSH2 0x406A JUMPI PUSH1 0x20 DUP3 SWAP1 SHR SWAP2 POP PUSH1 0x10 DUP2 SWAP1 SHL SWAP1 POP JUMPDEST PUSH3 0x10000 DUP3 LT PUSH2 0x4083 JUMPI PUSH1 0x10 DUP3 SWAP1 SHR SWAP2 POP PUSH1 0x8 DUP2 SWAP1 SHL SWAP1 POP JUMPDEST PUSH2 0x100 DUP3 LT PUSH2 0x409B JUMPI PUSH1 0x8 DUP3 SWAP1 SHR SWAP2 POP PUSH1 0x4 DUP2 SWAP1 SHL SWAP1 POP JUMPDEST PUSH1 0x10 DUP3 LT PUSH2 0x40B2 JUMPI PUSH1 0x4 DUP3 SWAP1 SHR SWAP2 POP PUSH1 0x2 DUP2 SWAP1 SHL SWAP1 POP JUMPDEST PUSH1 0x8 DUP3 LT PUSH2 0x40C2 JUMPI PUSH1 0x1 DUP2 SWAP1 SHL SWAP1 POP JUMPDEST PUSH1 0x1 DUP2 DUP6 PUSH2 0x40D0 SWAP2 SWAP1 PUSH2 0x4D21 JUMP JUMPDEST DUP3 PUSH2 0x40DB SWAP2 SWAP1 PUSH2 0x508D JUMP JUMPDEST SWAP1 SHR SWAP1 POP PUSH1 0x1 DUP2 DUP6 PUSH2 0x40ED SWAP2 SWAP1 PUSH2 0x4D21 JUMP JUMPDEST DUP3 PUSH2 0x40F8 SWAP2 SWAP1 PUSH2 0x508D JUMP JUMPDEST SWAP1 SHR SWAP1 POP PUSH1 0x1 DUP2 DUP6 PUSH2 0x410A SWAP2 SWAP1 PUSH2 0x4D21 JUMP JUMPDEST DUP3 PUSH2 0x4115 SWAP2 SWAP1 PUSH2 0x508D JUMP JUMPDEST SWAP1 SHR SWAP1 POP PUSH1 0x1 DUP2 DUP6 PUSH2 0x4127 SWAP2 SWAP1 PUSH2 0x4D21 JUMP JUMPDEST DUP3 PUSH2 0x4132 SWAP2 SWAP1 PUSH2 0x508D JUMP JUMPDEST SWAP1 SHR SWAP1 POP PUSH1 0x1 DUP2 DUP6 PUSH2 0x4144 SWAP2 SWAP1 PUSH2 0x4D21 JUMP JUMPDEST DUP3 PUSH2 0x414F SWAP2 SWAP1 PUSH2 0x508D JUMP JUMPDEST SWAP1 SHR SWAP1 POP PUSH1 0x1 DUP2 DUP6 PUSH2 0x4161 SWAP2 SWAP1 PUSH2 0x4D21 JUMP JUMPDEST DUP3 PUSH2 0x416C SWAP2 SWAP1 PUSH2 0x508D JUMP JUMPDEST SWAP1 SHR SWAP1 POP PUSH1 0x1 DUP2 DUP6 PUSH2 0x417E SWAP2 SWAP1 PUSH2 0x4D21 JUMP JUMPDEST DUP3 PUSH2 0x4189 SWAP2 SWAP1 PUSH2 0x508D JUMP JUMPDEST SWAP1 SHR SWAP1 POP PUSH0 DUP2 DUP6 PUSH2 0x419A SWAP2 SWAP1 PUSH2 0x4D21 JUMP JUMPDEST SWAP1 POP DUP1 DUP3 LT PUSH2 0x41A9 JUMPI DUP1 PUSH2 0x41AB JUMP JUMPDEST DUP2 JUMPDEST SWAP4 POP POP POP POP JUMPDEST SWAP2 SWAP1 POP JUMP JUMPDEST PUSH0 PUSH2 0x41E0 DUP3 DUP5 PUSH20 0xFFFFFFFFFFFFFFFFFFFFFFFFFFFFFFFFFFFFFFFF AND PUSH2 0x42F2 SWAP1 SWAP2 SWAP1 PUSH4 0xFFFFFFFF AND JUMP JUMPDEST SWAP1 POP PUSH0 DUP2 MLOAD EQ ISZERO DUP1 ISZERO PUSH2 0x4204 JUMPI POP DUP1 DUP1 PUSH1 0x20 ADD SWAP1 MLOAD DUP2 ADD SWAP1 PUSH2 0x4202 SWAP2 SWAP1 PUSH2 0x58D8 JUMP JUMPDEST ISZERO JUMPDEST ISZERO PUSH2 0x4246 JUMPI DUP3 PUSH1 0x40 MLOAD PUSH32 0x5274AFE700000000000000000000000000000000000000000000000000000000 DUP2 MSTORE PUSH1 0x4 ADD PUSH2 0x423D SWAP2 SWAP1 PUSH2 0x48E3 JUMP JUMPDEST PUSH1 0x40 MLOAD DUP1 SWAP2 SUB SWAP1 REVERT JUMPDEST POP POP POP JUMP JUMPDEST PUSH0 DUP2 SWAP1 POP PUSH0 DUP2 PUSH20 0xFFFFFFFFFFFFFFFFFFFFFFFFFFFFFFFFFFFFFFFF AND PUSH4 0xDD62ED3E ADDRESS PUSH1 0x5 PUSH0 SWAP1 SLOAD SWAP1 PUSH2 0x100 EXP SWAP1 DIV PUSH20 0xFFFFFFFFFFFFFFFFFFFFFFFFFFFFFFFFFFFFFFFF AND PUSH1 0x40 MLOAD DUP4 PUSH4 0xFFFFFFFF AND PUSH1 0xE0 SHL DUP2 MSTORE PUSH1 0x4 ADD PUSH2 0x42AC SWAP3 SWAP2 SWAP1 PUSH2 0x5903 JUMP JUMPDEST PUSH1 0x20 PUSH1 0x40 MLOAD DUP1 DUP4 SUB DUP2 DUP7 GAS STATICCALL ISZERO DUP1 ISZERO PUSH2 0x42C7 JUMPI RETURNDATASIZE PUSH0 PUSH0 RETURNDATACOPY RETURNDATASIZE PUSH0 REVERT JUMPDEST POP POP POP POP PUSH1 0x40 MLOAD RETURNDATASIZE PUSH1 0x1F NOT PUSH1 0x1F DUP3 ADD AND DUP3 ADD DUP1 PUSH1 0x40 MSTORE POP DUP2 ADD SWAP1 PUSH2 0x42EB SWAP2 SWAP1 PUSH2 0x4C5B JUMP JUMPDEST SWAP1 POP POP POP POP JUMP JUMPDEST PUSH1 0x60 PUSH2 0x42FF DUP4 DUP4 PUSH0 PUSH2 0x4307 JUMP JUMPDEST SWAP1 POP SWAP3 SWAP2 POP POP JUMP JUMPDEST PUSH1 0x60 DUP2 SELFBALANCE LT ISZERO PUSH2 0x434E JUMPI ADDRESS PUSH1 0x40 MLOAD PUSH32 0xCD78605900000000000000000000000000000000000000000000000000000000 DUP2 MSTORE PUSH1 0x4 ADD PUSH2 0x4345 SWAP2 SWAP1 PUSH2 0x48E3 JUMP JUMPDEST PUSH1 0x40 MLOAD DUP1 SWAP2 SUB SWAP1 REVERT JUMPDEST PUSH0 PUSH0 DUP6 PUSH20 0xFFFFFFFFFFFFFFFFFFFFFFFFFFFFFFFFFFFFFFFF AND DUP5 DUP7 PUSH1 0x40 MLOAD PUSH2 0x4376 SWAP2 SWAP1 PUSH2 0x4E94 JUMP JUMPDEST PUSH0 PUSH1 0x40 MLOAD DUP1 DUP4 SUB DUP2 DUP6 DUP8 GAS CALL SWAP3 POP POP POP RETURNDATASIZE DUP1 PUSH0 DUP2 EQ PUSH2 0x43B0 JUMPI PUSH1 0x40 MLOAD SWAP2 POP PUSH1 0x1F NOT PUSH1 0x3F RETURNDATASIZE ADD AND DUP3 ADD PUSH1 0x40 MSTORE RETURNDATASIZE DUP3 MSTORE RETURNDATASIZE PUSH0 PUSH1 0x20 DUP5 ADD RETURNDATACOPY PUSH2 0x43B5 JUMP JUMPDEST PUSH1 0x60 SWAP2 POP JUMPDEST POP SWAP2 POP SWAP2 POP PUSH2 0x43C5 DUP7 DUP4 DUP4 PUSH2 0x43D0 JUMP JUMPDEST SWAP3 POP POP POP SWAP4 SWAP3 POP POP POP JUMP JUMPDEST PUSH1 0x60 DUP3 PUSH2 0x43E5 JUMPI PUSH2 0x43E0 DUP3 PUSH2 0x445D JUMP JUMPDEST PUSH2 0x4455 JUMP JUMPDEST PUSH0 DUP3 MLOAD EQ DUP1 ISZERO PUSH2 0x440B JUMPI POP PUSH0 DUP5 PUSH20 0xFFFFFFFFFFFFFFFFFFFFFFFFFFFFFFFFFFFFFFFF AND EXTCODESIZE EQ JUMPDEST ISZERO PUSH2 0x444D JUMPI DUP4 PUSH1 0x40 MLOAD PUSH32 0x9996B31500000000000000000000000000000000000000000000000000000000 DUP2 MSTORE PUSH1 0x4 ADD PUSH2 0x4444 SWAP2 SWAP1 PUSH2 0x48E3 JUMP JUMPDEST PUSH1 0x40 MLOAD DUP1 SWAP2 SUB SWAP1 REVERT JUMPDEST DUP2 SWAP1 POP PUSH2 0x4456 JUMP JUMPDEST JUMPDEST SWAP4 SWAP3 POP POP POP JUMP JUMPDEST PUSH0 DUP2 MLOAD GT ISZERO PUSH2 0x446F JUMPI DUP1 MLOAD DUP1 DUP3 PUSH1 0x20 ADD REVERT JUMPDEST PUSH1 0x40 MLOAD PUSH32 0x1425EA4200000000000000000000000000000000000000000000000000000000 DUP2 MSTORE PUSH1 0x4 ADD PUSH1 0x40 MLOAD DUP1 SWAP2 SUB SWAP1 REVERT JUMPDEST PUSH32 0x4E487B7100000000000000000000000000000000000000000000000000000000 PUSH0 MSTORE PUSH1 0x1 PUSH1 0x4 MSTORE PUSH1 0x24 PUSH0 REVERT JUMPDEST PUSH0 DUP2 SWAP1 POP SWAP2 SWAP1 POP JUMP JUMPDEST PUSH2 0x44E0 DUP2 PUSH2 0x44CE JUMP JUMPDEST DUP3 MSTORE POP POP JUMP JUMPDEST PUSH0 PUSH1 0x20 DUP3 ADD SWAP1 POP PUSH2 0x44F9 PUSH0 DUP4 ADD DUP5 PUSH2 0x44D7 JUMP JUMPDEST SWAP3 SWAP2 POP POP JUMP JUMPDEST PUSH0 PUSH20 0xFFFFFFFFFFFFFFFFFFFFFFFFFFFFFFFFFFFFFFFF DUP3 AND SWAP1 POP SWAP2 SWAP1 POP JUMP JUMPDEST PUSH0 DUP2 SWAP1 POP SWAP2 SWAP1 POP JUMP JUMPDEST PUSH0 PUSH2 0x4541 PUSH2 0x453C PUSH2 0x4537 DUP5 PUSH2 0x44FF JUMP JUMPDEST PUSH2 0x451E JUMP JUMPDEST PUSH2 0x44FF JUMP JUMPDEST SWAP1 POP SWAP2 SWAP1 POP JUMP JUMPDEST PUSH0 PUSH2 0x4552 DUP3 PUSH2 0x4527 JUMP JUMPDEST SWAP1 POP SWAP2 SWAP1 POP JUMP JUMPDEST PUSH0 PUSH2 0x4563 DUP3 PUSH2 0x4548 JUMP JUMPDEST SWAP1 POP SWAP2 SWAP1 POP JUMP JUMPDEST PUSH2 0x4573 DUP2 PUSH2 0x4559 JUMP JUMPDEST DUP3 MSTORE POP POP JUMP JUMPDEST PUSH0 PUSH1 0x20 DUP3 ADD SWAP1 POP PUSH2 0x458C PUSH0 DUP4 ADD DUP5 PUSH2 0x456A JUMP JUMPDEST SWAP3 SWAP2 POP POP JUMP JUMPDEST PUSH0 PUSH1 0x40 MLOAD SWAP1 POP SWAP1 JUMP JUMPDEST PUSH0 PUSH0 REVERT JUMPDEST PUSH0 PUSH0 REVERT JUMPDEST PUSH2 0x45AC DUP2 PUSH2 0x44CE JUMP JUMPDEST DUP2 EQ PUSH2 0x45B6 JUMPI PUSH0 PUSH0 REVERT JUMPDEST POP JUMP JUMPDEST PUSH0 DUP2 CALLDATALOAD SWAP1 POP PUSH2 0x45C7 DUP2 PUSH2 0x45A3 JUMP JUMPDEST SWAP3 SWAP2 POP POP JUMP JUMPDEST PUSH0 PUSH1 0x20 DUP3 DUP5 SUB SLT ISZERO PUSH2 0x45E2 JUMPI PUSH2 0x45E1 PUSH2 0x459B JUMP JUMPDEST JUMPDEST PUSH0 PUSH2 0x45EF DUP5 DUP3 DUP6 ADD PUSH2 0x45B9 JUMP JUMPDEST SWAP2 POP POP SWAP3 SWAP2 POP POP JUMP JUMPDEST PUSH0 PUSH2 0x4602 DUP3 PUSH2 0x44FF JUMP JUMPDEST SWAP1 POP SWAP2 SWAP1 POP JUMP JUMPDEST PUSH2 0x4612 DUP2 PUSH2 0x45F8 JUMP JUMPDEST DUP2 EQ PUSH2 0x461C JUMPI PUSH0 PUSH0 REVERT JUMPDEST POP JUMP JUMPDEST PUSH0 DUP2 CALLDATALOAD SWAP1 POP PUSH2 0x462D DUP2 PUSH2 0x4609 JUMP JUMPDEST SWAP3 SWAP2 POP POP JUMP JUMPDEST PUSH0 PUSH0 PUSH0 PUSH1 0x60 DUP5 DUP7 SUB SLT ISZERO PUSH2 0x464A JUMPI PUSH2 0x4649 PUSH2 0x459B JUMP JUMPDEST JUMPDEST PUSH0 PUSH2 0x4657 DUP7 DUP3 DUP8 ADD PUSH2 0x461F JUMP JUMPDEST SWAP4 POP POP PUSH1 0x20 PUSH2 0x4668 DUP7 DUP3 DUP8 ADD PUSH2 0x45B9 JUMP JUMPDEST SWAP3 POP POP PUSH1 0x40 PUSH2 0x4679 DUP7 DUP3 DUP8 ADD PUSH2 0x461F JUMP JUMPDEST SWAP2 POP POP SWAP3 POP SWAP3 POP SWAP3 JUMP JUMPDEST PUSH2 0x468C DUP2 PUSH2 0x45F8 JUMP JUMPDEST DUP3 MSTORE POP POP JUMP JUMPDEST PUSH0 PUSH1 0x60 DUP3 ADD SWAP1 POP PUSH2 0x46A5 PUSH0 DUP4 ADD DUP7 PUSH2 0x44D7 JUMP JUMPDEST PUSH2 0x46B2 PUSH1 0x20 DUP4 ADD DUP6 PUSH2 0x44D7 JUMP JUMPDEST PUSH2 0x46BF PUSH1 0x40 DUP4 ADD DUP5 PUSH2 0x4683 JUMP JUMPDEST SWAP5 SWAP4 POP POP POP POP JUMP JUMPDEST PUSH0 PUSH0 PUSH1 0x40 DUP4 DUP6 SUB SLT ISZERO PUSH2 0x46DD JUMPI PUSH2 0x46DC PUSH2 0x459B JUMP JUMPDEST JUMPDEST PUSH0 PUSH2 0x46EA DUP6 DUP3 DUP7 ADD PUSH2 0x461F JUMP JUMPDEST SWAP3 POP POP PUSH1 0x20 PUSH2 0x46FB DUP6 DUP3 DUP7 ADD PUSH2 0x45B9 JUMP JUMPDEST SWAP2 POP POP SWAP3 POP SWAP3 SWAP1 POP JUMP JUMPDEST PUSH0 PUSH0 PUSH0 PUSH1 0x60 DUP5 DUP7 SUB SLT ISZERO PUSH2 0x471C JUMPI PUSH2 0x471B PUSH2 0x459B JUMP JUMPDEST JUMPDEST PUSH0 PUSH2 0x4729 DUP7 DUP3 DUP8 ADD PUSH2 0x461F JUMP JUMPDEST SWAP4 POP POP PUSH1 0x20 PUSH2 0x473A DUP7 DUP3 DUP8 ADD PUSH2 0x45B9 JUMP JUMPDEST SWAP3 POP POP PUSH1 0x40 PUSH2 0x474B DUP7 DUP3 DUP8 ADD PUSH2 0x45B9 JUMP JUMPDEST SWAP2 POP POP SWAP3 POP SWAP3 POP SWAP3 JUMP JUMPDEST PUSH0 PUSH0 PUSH0 PUSH0 PUSH0 PUSH1 0xA0 DUP7 DUP9 SUB SLT ISZERO PUSH2 0x476E JUMPI PUSH2 0x476D PUSH2 0x459B JUMP JUMPDEST JUMPDEST PUSH0 PUSH2 0x477B DUP9 DUP3 DUP10 ADD PUSH2 0x461F JUMP JUMPDEST SWAP6 POP POP PUSH1 0x20 PUSH2 0x478C DUP9 DUP3 DUP10 ADD PUSH2 0x461F JUMP JUMPDEST SWAP5 POP POP PUSH1 0x40 PUSH2 0x479D DUP9 DUP3 DUP10 ADD PUSH2 0x45B9 JUMP JUMPDEST SWAP4 POP POP PUSH1 0x60 PUSH2 0x47AE DUP9 DUP3 DUP10 ADD PUSH2 0x45B9 JUMP JUMPDEST SWAP3 POP POP PUSH1 0x80 PUSH2 0x47BF DUP9 DUP3 DUP10 ADD PUSH2 0x461F JUMP JUMPDEST SWAP2 POP POP SWAP3 SWAP6 POP SWAP3 SWAP6 SWAP1 SWAP4 POP JUMP JUMPDEST PUSH0 DUP2 ISZERO ISZERO SWAP1 POP SWAP2 SWAP1 POP JUMP JUMPDEST PUSH2 0x47E0 DUP2 PUSH2 0x47CC JUMP JUMPDEST DUP3 MSTORE POP POP JUMP JUMPDEST PUSH0 PUSH1 0x60 DUP3 ADD SWAP1 POP PUSH2 0x47F9 PUSH0 DUP4 ADD DUP7 PUSH2 0x44D7 JUMP JUMPDEST PUSH2 0x4806 PUSH1 0x20 DUP4 ADD DUP6 PUSH2 0x44D7 JUMP JUMPDEST PUSH2 0x4813 PUSH1 0x40 DUP4 ADD DUP5 PUSH2 0x47D7 JUMP JUMPDEST SWAP5 SWAP4 POP POP POP POP JUMP JUMPDEST PUSH0 PUSH0 PUSH0 PUSH0 PUSH1 0x80 DUP6 DUP8 SUB SLT ISZERO PUSH2 0x4833 JUMPI PUSH2 0x4832 PUSH2 0x459B JUMP JUMPDEST JUMPDEST PUSH0 PUSH2 0x4840 DUP8 DUP3 DUP9 ADD PUSH2 0x461F JUMP JUMPDEST SWAP5 POP POP PUSH1 0x20 PUSH2 0x4851 DUP8 DUP3 DUP9 ADD PUSH2 0x461F JUMP JUMPDEST SWAP4 POP POP PUSH1 0x40 PUSH2 0x4862 DUP8 DUP3 DUP9 ADD PUSH2 0x45B9 JUMP JUMPDEST SWAP3 POP POP PUSH1 0x60 PUSH2 0x4873 DUP8 DUP3 DUP9 ADD PUSH2 0x45B9 JUMP JUMPDEST SWAP2 POP POP SWAP3 SWAP6 SWAP2 SWAP5 POP SWAP3 POP JUMP JUMPDEST PUSH0 PUSH0 PUSH0 PUSH0 PUSH1 0x80 DUP6 DUP8 SUB SLT ISZERO PUSH2 0x4897 JUMPI PUSH2 0x4896 PUSH2 0x459B JUMP JUMPDEST JUMPDEST PUSH0 PUSH2 0x48A4 DUP8 DUP3 DUP9 ADD PUSH2 0x461F JUMP JUMPDEST SWAP5 POP POP PUSH1 0x20 PUSH2 0x48B5 DUP8 DUP3 DUP9 ADD PUSH2 0x45B9 JUMP JUMPDEST SWAP4 POP POP PUSH1 0x40 PUSH2 0x48C6 DUP8 DUP3 DUP9 ADD PUSH2 0x461F JUMP JUMPDEST SWAP3 POP POP PUSH1 0x60 PUSH2 0x48D7 DUP8 DUP3 DUP9 ADD PUSH2 0x45B9 JUMP JUMPDEST SWAP2 POP POP SWAP3 SWAP6 SWAP2 SWAP5 POP SWAP3 POP JUMP JUMPDEST PUSH0 PUSH1 0x20 DUP3 ADD SWAP1 POP PUSH2 0x48F6 PUSH0 DUP4 ADD DUP5 PUSH2 0x4683 JUMP JUMPDEST SWAP3 SWAP2 POP POP JUMP JUMPDEST PUSH0 PUSH2 0x4906 DUP3 PUSH2 0x4548 JUMP JUMPDEST SWAP1 POP SWAP2 SWAP1 POP JUMP JUMPDEST PUSH2 0x4916 DUP2 PUSH2 0x48FC JUMP JUMPDEST DUP3 MSTORE POP POP JUMP JUMPDEST PUSH0 PUSH1 0x20 DUP3 ADD SWAP1 POP PUSH2 0x492F PUSH0 DUP4 ADD DUP5 PUSH2 0x490D JUMP JUMPDEST SWAP3 SWAP2 POP POP JUMP JUMPDEST PUSH2 0x493E DUP2 PUSH2 0x47CC JUMP JUMPDEST DUP2 EQ PUSH2 0x4948 JUMPI PUSH0 PUSH0 REVERT JUMPDEST POP JUMP JUMPDEST PUSH0 DUP2 CALLDATALOAD SWAP1 POP PUSH2 0x4959 DUP2 PUSH2 0x4935 JUMP JUMPDEST SWAP3 SWAP2 POP POP JUMP JUMPDEST PUSH0 PUSH0 PUSH0 PUSH0 PUSH0 PUSH0 PUSH0 PUSH0 PUSH2 0x100 DUP10 DUP12 SUB SLT ISZERO PUSH2 0x497C JUMPI PUSH2 0x497B PUSH2 0x459B JUMP JUMPDEST JUMPDEST PUSH0 PUSH2 0x4989 DUP12 DUP3 DUP13 ADD PUSH2 0x461F JUMP JUMPDEST SWAP9 POP POP PUSH1 0x20 PUSH2 0x499A DUP12 DUP3 DUP13 ADD PUSH2 0x461F JUMP JUMPDEST SWAP8 POP POP PUSH1 0x40 PUSH2 0x49AB DUP12 DUP3 DUP13 ADD PUSH2 0x45B9 JUMP JUMPDEST SWAP7 POP POP PUSH1 0x60 PUSH2 0x49BC DUP12 DUP3 DUP13 ADD PUSH2 0x45B9 JUMP JUMPDEST SWAP6 POP POP PUSH1 0x80 PUSH2 0x49CD DUP12 DUP3 DUP13 ADD PUSH2 0x461F JUMP JUMPDEST SWAP5 POP POP PUSH1 0xA0 PUSH2 0x49DE DUP12 DUP3 DUP13 ADD PUSH2 0x45B9 JUMP JUMPDEST SWAP4 POP POP PUSH1 0xC0 PUSH2 0x49EF DUP12 DUP3 DUP13 ADD PUSH2 0x45B9 JUMP JUMPDEST SWAP3 POP POP PUSH1 0xE0 PUSH2 0x4A00 DUP12 DUP3 DUP13 ADD PUSH2 0x494B JUMP JUMPDEST SWAP2 POP POP SWAP3 SWAP6 SWAP9 POP SWAP3 SWAP6 SWAP9 SWAP1 SWAP4 SWAP7 POP JUMP JUMPDEST PUSH0 PUSH0 PUSH0 PUSH0 PUSH0 PUSH0 PUSH1 0xC0 DUP8 DUP10 SUB SLT ISZERO PUSH2 0x4A2A JUMPI PUSH2 0x4A29 PUSH2 0x459B JUMP JUMPDEST JUMPDEST PUSH0 PUSH2 0x4A37 DUP10 DUP3 DUP11 ADD PUSH2 0x461F JUMP JUMPDEST SWAP7 POP POP PUSH1 0x20 PUSH2 0x4A48 DUP10 DUP3 DUP11 ADD PUSH2 0x45B9 JUMP JUMPDEST SWAP6 POP POP PUSH1 0x40 PUSH2 0x4A59 DUP10 DUP3 DUP11 ADD PUSH2 0x461F JUMP JUMPDEST SWAP5 POP POP PUSH1 0x60 PUSH2 0x4A6A DUP10 DUP3 DUP11 ADD PUSH2 0x45B9 JUMP JUMPDEST SWAP4 POP POP PUSH1 0x80 PUSH2 0x4A7B DUP10 DUP3 DUP11 ADD PUSH2 0x45B9 JUMP JUMPDEST SWAP3 POP POP PUSH1 0xA0 PUSH2 0x4A8C DUP10 DUP3 DUP11 ADD PUSH2 0x494B JUMP JUMPDEST SWAP2 POP POP SWAP3 SWAP6 POP SWAP3 SWAP6 POP SWAP3 SWAP6 JUMP JUMPDEST PUSH0 PUSH1 0x20 DUP3 DUP5 SUB SLT ISZERO PUSH2 0x4AAE JUMPI PUSH2 0x4AAD PUSH2 0x459B JUMP JUMPDEST JUMPDEST PUSH0 PUSH2 0x4ABB DUP5 DUP3 DUP6 ADD PUSH2 0x461F JUMP JUMPDEST SWAP2 POP POP SWAP3 SWAP2 POP POP JUMP JUMPDEST PUSH0 DUP2 MLOAD SWAP1 POP PUSH2 0x4AD2 DUP2 PUSH2 0x4609 JUMP JUMPDEST SWAP3 SWAP2 POP POP JUMP JUMPDEST PUSH0 PUSH1 0x20 DUP3 DUP5 SUB SLT ISZERO PUSH2 0x4AED JUMPI PUSH2 0x4AEC PUSH2 0x459B JUMP JUMPDEST JUMPDEST PUSH0 PUSH2 0x4AFA DUP5 DUP3 DUP6 ADD PUSH2 0x4AC4 JUMP JUMPDEST SWAP2 POP POP SWAP3 SWAP2 POP POP JUMP JUMPDEST PUSH0 DUP3 DUP3 MSTORE PUSH1 0x20 DUP3 ADD SWAP1 POP SWAP3 SWAP2 POP POP JUMP JUMPDEST PUSH32 0x5A61703A20546F6B656E206E6F7420696E204C50000000000000000000000000 PUSH0 DUP3 ADD MSTORE POP JUMP JUMPDEST PUSH0 PUSH2 0x4B47 PUSH1 0x14 DUP4 PUSH2 0x4B03 JUMP JUMPDEST SWAP2 POP PUSH2 0x4B52 DUP3 PUSH2 0x4B13 JUMP JUMPDEST PUSH1 0x20 DUP3 ADD SWAP1 POP SWAP2 SWAP1 POP JUMP JUMPDEST PUSH0 PUSH1 0x20 DUP3 ADD SWAP1 POP DUP2 DUP2 SUB PUSH0 DUP4 ADD MSTORE PUSH2 0x4B74 DUP2 PUSH2 0x4B3B JUMP JUMPDEST SWAP1 POP SWAP2 SWAP1 POP JUMP JUMPDEST PUSH0 PUSH14 0xFFFFFFFFFFFFFFFFFFFFFFFFFFFF DUP3 AND SWAP1 POP SWAP2 SWAP1 POP JUMP JUMPDEST PUSH2 0x4B9D DUP2 PUSH2 0x4B7B JUMP JUMPDEST DUP2 EQ PUSH2 0x4BA7 JUMPI PUSH0 PUSH0 REVERT JUMPDEST POP JUMP JUMPDEST PUSH0 DUP2 MLOAD SWAP1 POP PUSH2 0x4BB8 DUP2 PUSH2 0x4B94 JUMP JUMPDEST SWAP3 SWAP2 POP POP JUMP JUMPDEST PUSH0 PUSH4 0xFFFFFFFF DUP3 AND SWAP1 POP SWAP2 SWAP1 POP JUMP JUMPDEST PUSH2 0x4BD6 DUP2 PUSH2 0x4BBE JUMP JUMPDEST DUP2 EQ PUSH2 0x4BE0 JUMPI PUSH0 PUSH0 REVERT JUMPDEST POP JUMP JUMPDEST PUSH0 DUP2 MLOAD SWAP1 POP PUSH2 0x4BF1 DUP2 PUSH2 0x4BCD JUMP JUMPDEST SWAP3 SWAP2 POP POP JUMP JUMPDEST PUSH0 PUSH0 PUSH0 PUSH1 0x60 DUP5 DUP7 SUB SLT ISZERO PUSH2 0x4C0E JUMPI PUSH2 0x4C0D PUSH2 0x459B JUMP JUMPDEST JUMPDEST PUSH0 PUSH2 0x4C1B DUP7 DUP3 DUP8 ADD PUSH2 0x4BAA JUMP JUMPDEST SWAP4 POP POP PUSH1 0x20 PUSH2 0x4C2C DUP7 DUP3 DUP8 ADD PUSH2 0x4BAA JUMP JUMPDEST SWAP3 POP POP PUSH1 0x40 PUSH2 0x4C3D DUP7 DUP3 DUP8 ADD PUSH2 0x4BE3 JUMP JUMPDEST SWAP2 POP POP SWAP3 POP SWAP3 POP SWAP3 JUMP JUMPDEST PUSH0 DUP2 MLOAD SWAP1 POP PUSH2 0x4C55 DUP2 PUSH2 0x45A3 JUMP JUMPDEST SWAP3 SWAP2 POP POP JUMP JUMPDEST PUSH0 PUSH1 0x20 DUP3 DUP5 SUB SLT ISZERO PUSH2 0x4C70 JUMPI PUSH2 0x4C6F PUSH2 0x459B JUMP JUMPDEST JUMPDEST PUSH0 PUSH2 0x4C7D DUP5 DUP3 DUP6 ADD PUSH2 0x4C47 JUMP JUMPDEST SWAP2 POP POP SWAP3 SWAP2 POP POP JUMP JUMPDEST PUSH32 0x4E487B7100000000000000000000000000000000000000000000000000000000 PUSH0 MSTORE PUSH1 0x11 PUSH1 0x4 MSTORE PUSH1 0x24 PUSH0 REVERT JUMPDEST PUSH0 PUSH2 0x4CBD DUP3 PUSH2 0x44CE JUMP JUMPDEST SWAP2 POP PUSH2 0x4CC8 DUP4 PUSH2 0x44CE JUMP JUMPDEST SWAP3 POP DUP3 DUP3 MUL PUSH2 0x4CD6 DUP2 PUSH2 0x44CE JUMP JUMPDEST SWAP2 POP DUP3 DUP3 DIV DUP5 EQ DUP4 ISZERO OR PUSH2 0x4CED JUMPI PUSH2 0x4CEC PUSH2 0x4C86 JUMP JUMPDEST JUMPDEST POP SWAP3 SWAP2 POP POP JUMP JUMPDEST PUSH32 0x4E487B7100000000000000000000000000000000000000000000000000000000 PUSH0 MSTORE PUSH1 0x12 PUSH1 0x4 MSTORE PUSH1 0x24 PUSH0 REVERT JUMPDEST PUSH0 PUSH2 0x4D2B DUP3 PUSH2 0x44CE JUMP JUMPDEST SWAP2 POP PUSH2 0x4D36 DUP4 PUSH2 0x44CE JUMP JUMPDEST SWAP3 POP DUP3 PUSH2 0x4D46 JUMPI PUSH2 0x4D45 PUSH2 0x4CF4 JUMP JUMPDEST JUMPDEST DUP3 DUP3 DIV SWAP1 POP SWAP3 SWAP2 POP POP JUMP JUMPDEST PUSH0 PUSH1 0x60 DUP3 ADD SWAP1 POP PUSH2 0x4D64 PUSH0 DUP4 ADD DUP7 PUSH2 0x44D7 JUMP JUMPDEST PUSH2 0x4D71 PUSH1 0x20 DUP4 ADD DUP6 PUSH2 0x44D7 JUMP JUMPDEST PUSH2 0x4D7E PUSH1 0x40 DUP4 ADD DUP5 PUSH2 0x44D7 JUMP JUMPDEST SWAP5 SWAP4 POP POP POP POP JUMP JUMPDEST PUSH32 0x5A61703A2057726F6E6720746F6B656E73000000000000000000000000000000 PUSH0 DUP3 ADD MSTORE POP JUMP JUMPDEST PUSH0 PUSH2 0x4DBA PUSH1 0x11 DUP4 PUSH2 0x4B03 JUMP JUMPDEST SWAP2 POP PUSH2 0x4DC5 DUP3 PUSH2 0x4D86 JUMP JUMPDEST PUSH1 0x20 DUP3 ADD SWAP1 POP SWAP2 SWAP1 POP JUMP JUMPDEST PUSH0 PUSH1 0x20 DUP3 ADD SWAP1 POP DUP2 DUP2 SUB PUSH0 DUP4 ADD MSTORE PUSH2 0x4DE7 DUP2 PUSH2 0x4DAE JUMP JUMPDEST SWAP1 POP SWAP2 SWAP1 POP JUMP JUMPDEST PUSH0 PUSH1 0x40 DUP3 ADD SWAP1 POP PUSH2 0x4E01 PUSH0 DUP4 ADD DUP6 PUSH2 0x44D7 JUMP JUMPDEST PUSH2 0x4E0E PUSH1 0x20 DUP4 ADD DUP5 PUSH2 0x44D7 JUMP JUMPDEST SWAP4 SWAP3 POP POP POP JUMP JUMPDEST PUSH32 0x4E487B7100000000000000000000000000000000000000000000000000000000 PUSH0 MSTORE PUSH1 0x41 PUSH1 0x4 MSTORE PUSH1 0x24 PUSH0 REVERT JUMPDEST PUSH0 DUP2 MLOAD SWAP1 POP SWAP2 SWAP1 POP JUMP JUMPDEST PUSH0 DUP2 SWAP1 POP SWAP3 SWAP2 POP POP JUMP JUMPDEST DUP3 DUP2 DUP4 MCOPY PUSH0 DUP4 DUP4 ADD MSTORE POP POP POP JUMP JUMPDEST PUSH0 PUSH2 0x4E6E DUP3 PUSH2 0x4E42 JUMP JUMPDEST PUSH2 0x4E78 DUP2 DUP6 PUSH2 0x4E4C JUMP JUMPDEST SWAP4 POP PUSH2 0x4E88 DUP2 DUP6 PUSH1 0x20 DUP7 ADD PUSH2 0x4E56 JUMP JUMPDEST DUP1 DUP5 ADD SWAP2 POP POP SWAP3 SWAP2 POP POP JUMP JUMPDEST PUSH0 PUSH2 0x4E9F DUP3 DUP5 PUSH2 0x4E64 JUMP JUMPDEST SWAP2 POP DUP2 SWAP1 POP SWAP3 SWAP2 POP POP JUMP JUMPDEST PUSH32 0x424E423A207472616E73666572206661696C0000000000000000000000000000 PUSH0 DUP3 ADD MSTORE POP JUMP JUMPDEST PUSH0 PUSH2 0x4EDE PUSH1 0x12 DUP4 PUSH2 0x4B03 JUMP JUMPDEST SWAP2 POP PUSH2 0x4EE9 DUP3 PUSH2 0x4EAA JUMP JUMPDEST PUSH1 0x20 DUP3 ADD SWAP1 POP SWAP2 SWAP1 POP JUMP JUMPDEST PUSH0 PUSH1 0x20 DUP3 ADD SWAP1 POP DUP2 DUP2 SUB PUSH0 DUP4 ADD MSTORE PUSH2 0x4F0B DUP2 PUSH2 0x4ED2 JUMP JUMPDEST SWAP1 POP SWAP2 SWAP1 POP JUMP JUMPDEST PUSH32 0x5A61703A2057726F6E6720746F6B656E30000000000000000000000000000000 PUSH0 DUP3 ADD MSTORE POP JUMP JUMPDEST PUSH0 PUSH2 0x4F46 PUSH1 0x11 DUP4 PUSH2 0x4B03 JUMP JUMPDEST SWAP2 POP PUSH2 0x4F51 DUP3 PUSH2 0x4F12 JUMP JUMPDEST PUSH1 0x20 DUP3 ADD SWAP1 POP SWAP2 SWAP1 POP JUMP JUMPDEST PUSH0 PUSH1 0x20 DUP3 ADD SWAP1 POP DUP2 DUP2 SUB PUSH0 DUP4 ADD MSTORE PUSH2 0x4F73 DUP2 PUSH2 0x4F3A JUMP JUMPDEST SWAP1 POP SWAP2 SWAP1 POP JUMP JUMPDEST PUSH32 0x5A61703A2057726F6E6720746F6B656E31000000000000000000000000000000 PUSH0 DUP3 ADD MSTORE POP JUMP JUMPDEST PUSH0 PUSH2 0x4FAE PUSH1 0x11 DUP4 PUSH2 0x4B03 JUMP JUMPDEST SWAP2 POP PUSH2 0x4FB9 DUP3 PUSH2 0x4F7A JUMP JUMPDEST PUSH1 0x20 DUP3 ADD SWAP1 POP SWAP2 SWAP1 POP JUMP JUMPDEST PUSH0 PUSH1 0x20 DUP3 ADD SWAP1 POP DUP2 DUP2 SUB PUSH0 DUP4 ADD MSTORE PUSH2 0x4FDB DUP2 PUSH2 0x4FA2 JUMP JUMPDEST SWAP1 POP SWAP2 SWAP1 POP JUMP JUMPDEST PUSH32 0x5A61703A2053616D6520746F6B656E7300000000000000000000000000000000 PUSH0 DUP3 ADD MSTORE POP JUMP JUMPDEST PUSH0 PUSH2 0x5016 PUSH1 0x10 DUP4 PUSH2 0x4B03 JUMP JUMPDEST SWAP2 POP PUSH2 0x5021 DUP3 PUSH2 0x4FE2 JUMP JUMPDEST PUSH1 0x20 DUP3 ADD SWAP1 POP SWAP2 SWAP1 POP JUMP JUMPDEST PUSH0 PUSH1 0x20 DUP3 ADD SWAP1 POP DUP2 DUP2 SUB PUSH0 DUP4 ADD MSTORE PUSH2 0x5043 DUP2 PUSH2 0x500A JUMP JUMPDEST SWAP1 POP SWAP2 SWAP1 POP JUMP JUMPDEST PUSH0 PUSH1 0x80 DUP3 ADD SWAP1 POP PUSH2 0x505D PUSH0 DUP4 ADD DUP8 PUSH2 0x4683 JUMP JUMPDEST PUSH2 0x506A PUSH1 0x20 DUP4 ADD DUP7 PUSH2 0x44D7 JUMP JUMPDEST PUSH2 0x5077 PUSH1 0x40 DUP4 ADD DUP6 PUSH2 0x44D7 JUMP JUMPDEST PUSH2 0x5084 PUSH1 0x60 DUP4 ADD DUP5 PUSH2 0x44D7 JUMP JUMPDEST SWAP6 SWAP5 POP POP POP POP POP JUMP JUMPDEST PUSH0 PUSH2 0x5097 DUP3 PUSH2 0x44CE JUMP JUMPDEST SWAP2 POP PUSH2 0x50A2 DUP4 PUSH2 0x44CE JUMP JUMPDEST SWAP3 POP DUP3 DUP3 ADD SWAP1 POP DUP1 DUP3 GT ISZERO PUSH2 0x50BA JUMPI PUSH2 0x50B9 PUSH2 0x4C86 JUMP JUMPDEST JUMPDEST SWAP3 SWAP2 POP POP JUMP JUMPDEST PUSH0 PUSH2 0x50CA DUP3 PUSH2 0x44CE JUMP JUMPDEST SWAP2 POP PUSH2 0x50D5 DUP4 PUSH2 0x44CE JUMP JUMPDEST SWAP3 POP DUP3 DUP3 SUB SWAP1 POP DUP2 DUP2 GT ISZERO PUSH2 0x50ED JUMPI PUSH2 0x50EC PUSH2 0x4C86 JUMP JUMPDEST JUMPDEST SWAP3 SWAP2 POP POP JUMP JUMPDEST PUSH0 PUSH1 0x40 DUP3 ADD SWAP1 POP PUSH2 0x5106 PUSH0 DUP4 ADD DUP6 PUSH2 0x4683 JUMP JUMPDEST PUSH2 0x5113 PUSH1 0x20 DUP4 ADD DUP5 PUSH2 0x44D7 JUMP JUMPDEST SWAP4 SWAP3 POP POP POP JUMP JUMPDEST PUSH32 0x5265656E7472616E637947756172643A207265656E7472616E742063616C6C00 PUSH0 DUP3 ADD MSTORE POP JUMP JUMPDEST PUSH0 PUSH2 0x514E PUSH1 0x1F DUP4 PUSH2 0x4B03 JUMP JUMPDEST SWAP2 POP PUSH2 0x5159 DUP3 PUSH2 0x511A JUMP JUMPDEST PUSH1 0x20 DUP3 ADD SWAP1 POP SWAP2 SWAP1 POP JUMP JUMPDEST PUSH0 PUSH1 0x20 DUP3 ADD SWAP1 POP DUP2 DUP2 SUB PUSH0 DUP4 ADD MSTORE PUSH2 0x517B DUP2 PUSH2 0x5142 JUMP JUMPDEST SWAP1 POP SWAP2 SWAP1 POP JUMP JUMPDEST PUSH32 0x5A61703A20416D6F756E7420746F6F206C6F7700000000000000000000000000 PUSH0 DUP3 ADD MSTORE POP JUMP JUMPDEST PUSH0 PUSH2 0x51B6 PUSH1 0x13 DUP4 PUSH2 0x4B03 JUMP JUMPDEST SWAP2 POP PUSH2 0x51C1 DUP3 PUSH2 0x5182 JUMP JUMPDEST PUSH1 0x20 DUP3 ADD SWAP1 POP SWAP2 SWAP1 POP JUMP JUMPDEST PUSH0 PUSH1 0x20 DUP3 ADD SWAP1 POP DUP2 DUP2 SUB PUSH0 DUP4 ADD MSTORE PUSH2 0x51E3 DUP2 PUSH2 0x51AA JUMP JUMPDEST SWAP1 POP SWAP2 SWAP1 POP JUMP JUMPDEST PUSH32 0x4E487B7100000000000000000000000000000000000000000000000000000000 PUSH0 MSTORE PUSH1 0x32 PUSH1 0x4 MSTORE PUSH1 0x24 PUSH0 REVERT JUMPDEST PUSH32 0x5A61703A20526573657276657320746F6F206C6F770000000000000000000000 PUSH0 DUP3 ADD MSTORE POP JUMP JUMPDEST PUSH0 PUSH2 0x524B PUSH1 0x15 DUP4 PUSH2 0x4B03 JUMP JUMPDEST SWAP2 POP PUSH2 0x5256 DUP3 PUSH2 0x5217 JUMP JUMPDEST PUSH1 0x20 DUP3 ADD SWAP1 POP SWAP2 SWAP1 POP JUMP JUMPDEST PUSH0 PUSH1 0x20 DUP3 ADD SWAP1 POP DUP2 DUP2 SUB PUSH0 DUP4 ADD MSTORE PUSH2 0x5278 DUP2 PUSH2 0x523F JUMP JUMPDEST SWAP1 POP SWAP2 SWAP1 POP JUMP JUMPDEST PUSH32 0x5A61703A205175616E7469747920686967686572207468616E206C696D697400 PUSH0 DUP3 ADD MSTORE POP JUMP JUMPDEST PUSH0 PUSH2 0x52B3 PUSH1 0x1F DUP4 PUSH2 0x4B03 JUMP JUMPDEST SWAP2 POP PUSH2 0x52BE DUP3 PUSH2 0x527F JUMP JUMPDEST PUSH1 0x20 DUP3 ADD SWAP1 POP SWAP2 SWAP1 POP JUMP JUMPDEST PUSH0 PUSH1 0x20 DUP3 ADD SWAP1 POP DUP2 DUP2 SUB PUSH0 DUP4 ADD MSTORE PUSH2 0x52E0 DUP2 PUSH2 0x52A7 JUMP JUMPDEST SWAP1 POP SWAP2 SWAP1 POP JUMP JUMPDEST PUSH0 DUP2 MLOAD SWAP1 POP SWAP2 SWAP1 POP JUMP JUMPDEST PUSH0 DUP3 DUP3 MSTORE PUSH1 0x20 DUP3 ADD SWAP1 POP SWAP3 SWAP2 POP POP JUMP JUMPDEST PUSH0 DUP2 SWAP1 POP PUSH1 0x20 DUP3 ADD SWAP1 POP SWAP2 SWAP1 POP JUMP JUMPDEST PUSH2 0x5319 DUP2 PUSH2 0x45F8 JUMP JUMPDEST DUP3 MSTORE POP POP JUMP JUMPDEST PUSH0 PUSH2 0x532A DUP4 DUP4 PUSH2 0x5310 JUMP JUMPDEST PUSH1 0x20 DUP4 ADD SWAP1 POP SWAP3 SWAP2 POP POP JUMP JUMPDEST PUSH0 PUSH1 0x20 DUP3 ADD SWAP1 POP SWAP2 SWAP1 POP JUMP JUMPDEST PUSH0 PUSH2 0x534C DUP3 PUSH2 0x52E7 JUMP JUMPDEST PUSH2 0x5356 DUP2 DUP6 PUSH2 0x52F1 JUMP JUMPDEST SWAP4 POP PUSH2 0x5361 DUP4 PUSH2 0x5301 JUMP JUMPDEST DUP1 PUSH0 JUMPDEST DUP4 DUP2 LT ISZERO PUSH2 0x5391 JUMPI DUP2 MLOAD PUSH2 0x5378 DUP9 DUP3 PUSH2 0x531F JUMP JUMPDEST SWAP8 POP PUSH2 0x5383 DUP4 PUSH2 0x5336 JUMP JUMPDEST SWAP3 POP POP PUSH1 0x1 DUP2 ADD SWAP1 POP PUSH2 0x5364 JUMP JUMPDEST POP DUP6 SWAP4 POP POP POP POP SWAP3 SWAP2 POP POP JUMP JUMPDEST PUSH0 PUSH1 0xA0 DUP3 ADD SWAP1 POP PUSH2 0x53B1 PUSH0 DUP4 ADD DUP9 PUSH2 0x44D7 JUMP JUMPDEST PUSH2 0x53BE PUSH1 0x20 DUP4 ADD DUP8 PUSH2 0x44D7 JUMP JUMPDEST DUP2 DUP2 SUB PUSH1 0x40 DUP4 ADD MSTORE PUSH2 0x53D0 DUP2 DUP7 PUSH2 0x5342 JUMP JUMPDEST SWAP1 POP PUSH2 0x53DF PUSH1 0x60 DUP4 ADD DUP6 PUSH2 0x4683 JUMP JUMPDEST PUSH2 0x53EC PUSH1 0x80 DUP4 ADD DUP5 PUSH2 0x44D7 JUMP JUMPDEST SWAP7 SWAP6 POP POP POP POP POP POP JUMP JUMPDEST PUSH0 PUSH0 REVERT JUMPDEST PUSH0 PUSH1 0x1F NOT PUSH1 0x1F DUP4 ADD AND SWAP1 POP SWAP2 SWAP1 POP JUMP JUMPDEST PUSH2 0x5413 DUP3 PUSH2 0x53FA JUMP JUMPDEST DUP2 ADD DUP2 DUP2 LT PUSH8 0xFFFFFFFFFFFFFFFF DUP3 GT OR ISZERO PUSH2 0x5432 JUMPI PUSH2 0x5431 PUSH2 0x4E15 JUMP JUMPDEST JUMPDEST DUP1 PUSH1 0x40 MSTORE POP POP POP JUMP JUMPDEST PUSH0 PUSH2 0x5444 PUSH2 0x4592 JUMP JUMPDEST SWAP1 POP PUSH2 0x5450 DUP3 DUP3 PUSH2 0x540A JUMP JUMPDEST SWAP2 SWAP1 POP JUMP JUMPDEST PUSH0 PUSH8 0xFFFFFFFFFFFFFFFF DUP3 GT ISZERO PUSH2 0x546F JUMPI PUSH2 0x546E PUSH2 0x4E15 JUMP JUMPDEST JUMPDEST PUSH1 0x20 DUP3 MUL SWAP1 POP PUSH1 0x20 DUP2 ADD SWAP1 POP SWAP2 SWAP1 POP JUMP JUMPDEST PUSH0 PUSH0 REVERT JUMPDEST PUSH0 PUSH2 0x5496 PUSH2 0x5491 DUP5 PUSH2 0x5455 JUMP JUMPDEST PUSH2 0x543B JUMP JUMPDEST SWAP1 POP DUP1 DUP4 DUP3 MSTORE PUSH1 0x20 DUP3 ADD SWAP1 POP PUSH1 0x20 DUP5 MUL DUP4 ADD DUP6 DUP2 GT ISZERO PUSH2 0x54B9 JUMPI PUSH2 0x54B8 PUSH2 0x5480 JUMP JUMPDEST JUMPDEST DUP4 JUMPDEST DUP2 DUP2 LT ISZERO PUSH2 0x54E2 JUMPI DUP1 PUSH2 0x54CE DUP9 DUP3 PUSH2 0x4C47 JUMP JUMPDEST DUP5 MSTORE PUSH1 0x20 DUP5 ADD SWAP4 POP POP PUSH1 0x20 DUP2 ADD SWAP1 POP PUSH2 0x54BB JUMP JUMPDEST POP POP POP SWAP4 SWAP3 POP POP POP JUMP JUMPDEST PUSH0 DUP3 PUSH1 0x1F DUP4 ADD SLT PUSH2 0x5500 JUMPI PUSH2 0x54FF PUSH2 0x53F6 JUMP JUMPDEST JUMPDEST DUP2 MLOAD PUSH2 0x5510 DUP5 DUP3 PUSH1 0x20 DUP7 ADD PUSH2 0x5484 JUMP JUMPDEST SWAP2 POP POP SWAP3 SWAP2 POP POP JUMP JUMPDEST PUSH0 PUSH1 0x20 DUP3 DUP5 SUB SLT ISZERO PUSH2 0x552E JUMPI PUSH2 0x552D PUSH2 0x459B JUMP JUMPDEST JUMPDEST PUSH0 DUP3 ADD MLOAD PUSH8 0xFFFFFFFFFFFFFFFF DUP2 GT ISZERO PUSH2 0x554B JUMPI PUSH2 0x554A PUSH2 0x459F JUMP JUMPDEST JUMPDEST PUSH2 0x5557 DUP5 DUP3 DUP6 ADD PUSH2 0x54EC JUMP JUMPDEST SWAP2 POP POP SWAP3 SWAP2 POP POP JUMP JUMPDEST PUSH0 DUP2 SWAP1 POP SWAP2 SWAP1 POP JUMP JUMPDEST PUSH0 PUSH2 0x5583 PUSH2 0x557E PUSH2 0x5579 DUP5 PUSH2 0x5560 JUMP JUMPDEST PUSH2 0x451E JUMP JUMPDEST PUSH2 0x44CE JUMP JUMPDEST SWAP1 POP SWAP2 SWAP1 POP JUMP JUMPDEST PUSH2 0x5593 DUP2 PUSH2 0x5569 JUMP JUMPDEST DUP3 MSTORE POP POP JUMP JUMPDEST PUSH0 PUSH2 0x100 DUP3 ADD SWAP1 POP PUSH2 0x55AD PUSH0 DUP4 ADD DUP12 PUSH2 0x4683 JUMP JUMPDEST PUSH2 0x55BA PUSH1 0x20 DUP4 ADD DUP11 PUSH2 0x4683 JUMP JUMPDEST PUSH2 0x55C7 PUSH1 0x40 DUP4 ADD DUP10 PUSH2 0x44D7 JUMP JUMPDEST PUSH2 0x55D4 PUSH1 0x60 DUP4 ADD DUP9 PUSH2 0x44D7 JUMP JUMPDEST PUSH2 0x55E1 PUSH1 0x80 DUP4 ADD DUP8 PUSH2 0x558A JUMP JUMPDEST PUSH2 0x55EE PUSH1 0xA0 DUP4 ADD DUP7 PUSH2 0x558A JUMP JUMPDEST PUSH2 0x55FB PUSH1 0xC0 DUP4 ADD DUP6 PUSH2 0x4683 JUMP JUMPDEST PUSH2 0x5608 PUSH1 0xE0 DUP4 ADD DUP5 PUSH2 0x44D7 JUMP JUMPDEST SWAP10 SWAP9 POP POP POP POP POP POP POP POP POP JUMP JUMPDEST PUSH0 PUSH0 PUSH0 PUSH1 0x60 DUP5 DUP7 SUB SLT ISZERO PUSH2 0x562C JUMPI PUSH2 0x562B PUSH2 0x459B JUMP JUMPDEST JUMPDEST PUSH0 PUSH2 0x5639 DUP7 DUP3 DUP8 ADD PUSH2 0x4C47 JUMP JUMPDEST SWAP4 POP POP PUSH1 0x20 PUSH2 0x564A DUP7 DUP3 DUP8 ADD PUSH2 0x4C47 JUMP JUMPDEST SWAP3 POP POP PUSH1 0x40 PUSH2 0x565B DUP7 DUP3 DUP8 ADD PUSH2 0x4C47 JUMP JUMPDEST SWAP2 POP POP SWAP3 POP SWAP3 POP SWAP3 JUMP JUMPDEST PUSH0 PUSH1 0x60 DUP3 ADD SWAP1 POP PUSH2 0x5678 PUSH0 DUP4 ADD DUP7 PUSH2 0x4683 JUMP JUMPDEST PUSH2 0x5685 PUSH1 0x20 DUP4 ADD DUP6 PUSH2 0x4683 JUMP JUMPDEST PUSH2 0x5692 PUSH1 0x40 DUP4 ADD DUP5 PUSH2 0x44D7 JUMP JUMPDEST SWAP5 SWAP4 POP POP POP POP JUMP JUMPDEST PUSH0 PUSH0 PUSH1 0x40 DUP4 DUP6 SUB SLT ISZERO PUSH2 0x56B0 JUMPI PUSH2 0x56AF PUSH2 0x459B JUMP JUMPDEST JUMPDEST PUSH0 PUSH2 0x56BD DUP6 DUP3 DUP7 ADD PUSH2 0x4C47 JUMP JUMPDEST SWAP3 POP POP PUSH1 0x20 PUSH2 0x56CE DUP6 DUP3 DUP7 ADD PUSH2 0x4C47 JUMP JUMPDEST SWAP2 POP POP SWAP3 POP SWAP3 SWAP1 POP JUMP JUMPDEST PUSH32 0x65787A6F6E65526F757465723A20494E53554646494349454E545F415F414D4F PUSH0 DUP3 ADD MSTORE PUSH32 0x554E540000000000000000000000000000000000000000000000000000000000 PUSH1 0x20 DUP3 ADD MSTORE POP JUMP JUMPDEST PUSH0 PUSH2 0x5732 PUSH1 0x23 DUP4 PUSH2 0x4B03 JUMP JUMPDEST SWAP2 POP PUSH2 0x573D DUP3 PUSH2 0x56D8 JUMP JUMPDEST PUSH1 0x40 DUP3 ADD SWAP1 POP SWAP2 SWAP1 POP JUMP JUMPDEST PUSH0 PUSH1 0x20 DUP3 ADD SWAP1 POP DUP2 DUP2 SUB PUSH0 DUP4 ADD MSTORE PUSH2 0x575F DUP2 PUSH2 0x5726 JUMP JUMPDEST SWAP1 POP SWAP2 SWAP1 POP JUMP JUMPDEST PUSH32 0x65787A6F6E65526F757465723A20494E53554646494349454E545F425F414D4F PUSH0 DUP3 ADD MSTORE PUSH32 0x554E540000000000000000000000000000000000000000000000000000000000 PUSH1 0x20 DUP3 ADD MSTORE POP JUMP JUMPDEST PUSH0 PUSH2 0x57C0 PUSH1 0x23 DUP4 PUSH2 0x4B03 JUMP JUMPDEST SWAP2 POP PUSH2 0x57CB DUP3 PUSH2 0x5766 JUMP JUMPDEST PUSH1 0x40 DUP3 ADD SWAP1 POP SWAP2 SWAP1 POP JUMP JUMPDEST PUSH0 PUSH1 0x20 DUP3 ADD SWAP1 POP DUP2 DUP2 SUB PUSH0 DUP4 ADD MSTORE PUSH2 0x57ED DUP2 PUSH2 0x57B4 JUMP JUMPDEST SWAP1 POP SWAP2 SWAP1 POP JUMP JUMPDEST PUSH32 0x5A61703A2057726F6E6720747261646520646972656374696F6E000000000000 PUSH0 DUP3 ADD MSTORE POP JUMP JUMPDEST PUSH0 PUSH2 0x5828 PUSH1 0x1A DUP4 PUSH2 0x4B03 JUMP JUMPDEST SWAP2 POP PUSH2 0x5833 DUP3 PUSH2 0x57F4 JUMP JUMPDEST PUSH1 0x20 DUP3 ADD SWAP1 POP SWAP2 SWAP1 POP JUMP JUMPDEST PUSH0 PUSH1 0x20 DUP3 ADD SWAP1 POP DUP2 DUP2 SUB PUSH0 DUP4 ADD MSTORE PUSH2 0x5855 DUP2 PUSH2 0x581C JUMP JUMPDEST SWAP1 POP SWAP2 SWAP1 POP JUMP JUMPDEST PUSH32 0x5A61703A20416D6F756E7420746F207377617020746F6F206869676800000000 PUSH0 DUP3 ADD MSTORE POP JUMP JUMPDEST PUSH0 PUSH2 0x5890 PUSH1 0x1C DUP4 PUSH2 0x4B03 JUMP JUMPDEST SWAP2 POP PUSH2 0x589B DUP3 PUSH2 0x585C JUMP JUMPDEST PUSH1 0x20 DUP3 ADD SWAP1 POP SWAP2 SWAP1 POP JUMP JUMPDEST PUSH0 PUSH1 0x20 DUP3 ADD SWAP1 POP DUP2 DUP2 SUB PUSH0 DUP4 ADD MSTORE PUSH2 0x58BD DUP2 PUSH2 0x5884 JUMP JUMPDEST SWAP1 POP SWAP2 SWAP1 POP JUMP JUMPDEST PUSH0 DUP2 MLOAD SWAP1 POP PUSH2 0x58D2 DUP2 PUSH2 0x4935 JUMP JUMPDEST SWAP3 SWAP2 POP POP JUMP JUMPDEST PUSH0 PUSH1 0x20 DUP3 DUP5 SUB SLT ISZERO PUSH2 0x58ED JUMPI PUSH2 0x58EC PUSH2 0x459B JUMP JUMPDEST JUMPDEST PUSH0 PUSH2 0x58FA DUP5 DUP3 DUP6 ADD PUSH2 0x58C4 JUMP JUMPDEST SWAP2 POP POP SWAP3 SWAP2 POP POP JUMP JUMPDEST PUSH0 PUSH1 0x40 DUP3 ADD SWAP1 POP PUSH2 0x5916 PUSH0 DUP4 ADD DUP6 PUSH2 0x4683 JUMP JUMPDEST PUSH2 0x5923 PUSH1 0x20 DUP4 ADD DUP5 PUSH2 0x4683 JUMP JUMPDEST SWAP4 SWAP3 POP POP POP JUMP INVALID LOG2 PUSH5 0x6970667358 0x22 SLT KECCAK256 EXTCODECOPY TIMESTAMP 0xEF 0xAF 0xC 0xC9 BASEFEE 0xBF SELFDESTRUCT 0x24 0xE7 0xAA MULMOD SLT PUSH9 0x75B93B8E0727B1D207 0xB1 SELFBALANCE TSTORE 0xBB PUSH17 0xBB813C64736F6C634300081B0033000000 "
		},
		"gasEstimates": {
			"creation": {
				"codeDepositCost": "4576000",
				"executionCost": "infinite",
				"totalCost": "infinite"
			},
			"external": {
				"MAX_INT()": "349",
				"MINIMUM_AMOUNT()": "415",
				"WBNB()": "infinite",
				"estimateZapInRebalancingSwap(address,address,uint256,uint256,address)": "infinite",
				"estimateZapInSwap(address,uint256,address)": "infinite",
				"estimateZapOutSwap(address,uint256,address)": "infinite",
				"exzoneRouter()": "infinite",
				"maxZapReverseRatio()": "2471",
				"owner()": "2536",
				"recoverWrongTokens(address,uint256)": "infinite",
				"renounceOwnership()": "infinite",
				"transferOwnership(address)": "infinite",
				"updateMaxZapInverseRatio(uint256)": "infinite",
				"zapInBNB(address,uint256)": "infinite",
				"zapInBNBRebalancing(address,uint256,address,uint256,uint256,bool)": "infinite",
				"zapInToken(address,uint256,address,uint256)": "infinite",
				"zapInTokenRebalancing(address,address,uint256,uint256,address,uint256,uint256,bool)": "infinite",
				"zapOutBNB(address,uint256,uint256)": "infinite",
				"zapOutToken(address,address,uint256,uint256)": "infinite"
			},
			"internal": {
				"_approveTokenIfNeeded(address)": "infinite",
				"_calculateAmountToSwap(uint256,uint256,uint256)": "infinite",
				"_calculateAmountToSwapForRebalancing(uint256,uint256,uint256,uint256,bool)": "infinite",
				"_zapIn(address,uint256,address,uint256)": "infinite",
				"_zapInRebalancing(address,address,uint256,uint256,address,uint256,uint256,bool)": "infinite",
				"_zapOut(address,address,uint256)": "infinite"
			}
		},
		"methodIdentifiers": {
			"MAX_INT()": "098d3228",
			"MINIMUM_AMOUNT()": "257d9bb8",
			"WBNB()": "8dd95002",
			"estimateZapInRebalancingSwap(address,address,uint256,uint256,address)": "82c98b2d",
			"estimateZapInSwap(address,uint256,address)": "3b0a48bb",
			"estimateZapOutSwap(address,uint256,address)": "2f883da4",
			"exzoneRouter()": "24a6ad68",
			"maxZapReverseRatio()": "0f4e4e63",
			"owner()": "8da5cb5b",
			"recoverWrongTokens(address,uint256)": "3f138d4b",
			"renounceOwnership()": "715018a6",
			"transferOwnership(address)": "f2fde38b",
			"updateMaxZapInverseRatio(uint256)": "2b4652eb",
			"zapInBNB(address,uint256)": "5cb88a3f",
			"zapInBNBRebalancing(address,uint256,address,uint256,uint256,bool)": "e3ceb16b",
			"zapInToken(address,uint256,address,uint256)": "87e3f21c",
			"zapInTokenRebalancing(address,address,uint256,uint256,address,uint256,uint256,bool)": "b421e91e",
			"zapOutBNB(address,uint256,uint256)": "5fcbdaed",
			"zapOutToken(address,address,uint256,uint256)": "84b73115"
		}
	},
	"abi": [
		{
			"inputs": [
				{
					"internalType": "address",
					"name": "_WBNBAddress",
					"type": "address"
				},
				{
					"internalType": "address",
					"name": "_exzoneRouter",
					"type": "address"
				},
				{
					"internalType": "uint256",
					"name": "_maxZapReverseRatio",
					"type": "uint256"
				},
				{
					"internalType": "address",
					"name": "initialOwner",
					"type": "address"
				}
			],
			"stateMutability": "nonpayable",
			"type": "constructor"
		},
		{
			"inputs": [
				{
					"internalType": "address",
					"name": "target",
					"type": "address"
				}
			],
			"name": "AddressEmptyCode",
			"type": "error"
		},
		{
			"inputs": [
				{
					"internalType": "address",
					"name": "account",
					"type": "address"
				}
			],
			"name": "AddressInsufficientBalance",
			"type": "error"
		},
		{
			"inputs": [],
			"name": "FailedInnerCall",
			"type": "error"
		},
		{
			"inputs": [
				{
					"internalType": "address",
					"name": "owner",
					"type": "address"
				}
			],
			"name": "OwnableInvalidOwner",
			"type": "error"
		},
		{
			"inputs": [
				{
					"internalType": "address",
					"name": "account",
					"type": "address"
				}
			],
			"name": "OwnableUnauthorizedAccount",
			"type": "error"
		},
		{
			"inputs": [
				{
					"internalType": "address",
					"name": "token",
					"type": "address"
				}
			],
			"name": "SafeERC20FailedOperation",
			"type": "error"
		},
		{
			"anonymous": false,
			"inputs": [
				{
					"indexed": true,
					"internalType": "address",
					"name": "tokenAddress",
					"type": "address"
				},
				{
					"indexed": false,
					"internalType": "uint256",
					"name": "amountTokens",
					"type": "uint256"
				}
			],
			"name": "AdminTokenRecovery",
			"type": "event"
		},
		{
			"anonymous": false,
			"inputs": [
				{
					"indexed": false,
					"internalType": "uint256",
					"name": "maxZapReverseRatio",
					"type": "uint256"
				}
			],
			"name": "NewMaxZapReverseRatio",
			"type": "event"
		},
		{
			"anonymous": false,
			"inputs": [
				{
					"indexed": true,
					"internalType": "address",
					"name": "previousOwner",
					"type": "address"
				},
				{
					"indexed": true,
					"internalType": "address",
					"name": "newOwner",
					"type": "address"
				}
			],
			"name": "OwnershipTransferred",
			"type": "event"
		},
		{
			"anonymous": false,
			"inputs": [
				{
					"indexed": true,
					"internalType": "address",
					"name": "tokenToZap",
					"type": "address"
				},
				{
					"indexed": true,
					"internalType": "address",
					"name": "lpToken",
					"type": "address"
				},
				{
					"indexed": false,
					"internalType": "uint256",
					"name": "tokenAmountIn",
					"type": "uint256"
				},
				{
					"indexed": false,
					"internalType": "uint256",
					"name": "lpTokenAmountReceived",
					"type": "uint256"
				},
				{
					"indexed": true,
					"internalType": "address",
					"name": "user",
					"type": "address"
				}
			],
			"name": "ZapIn",
			"type": "event"
		},
		{
			"anonymous": false,
			"inputs": [
				{
					"indexed": true,
					"internalType": "address",
					"name": "token0ToZap",
					"type": "address"
				},
				{
					"indexed": true,
					"internalType": "address",
					"name": "token1ToZap",
					"type": "address"
				},
				{
					"indexed": false,
					"internalType": "address",
					"name": "lpToken",
					"type": "address"
				},
				{
					"indexed": false,
					"internalType": "uint256",
					"name": "token0AmountIn",
					"type": "uint256"
				},
				{
					"indexed": false,
					"internalType": "uint256",
					"name": "token1AmountIn",
					"type": "uint256"
				},
				{
					"indexed": false,
					"internalType": "uint256",
					"name": "lpTokenAmountReceived",
					"type": "uint256"
				},
				{
					"indexed": true,
					"internalType": "address",
					"name": "user",
					"type": "address"
				}
			],
			"name": "ZapInRebalancing",
			"type": "event"
		},
		{
			"anonymous": false,
			"inputs": [
				{
					"indexed": true,
					"internalType": "address",
					"name": "lpToken",
					"type": "address"
				},
				{
					"indexed": true,
					"internalType": "address",
					"name": "tokenToReceive",
					"type": "address"
				},
				{
					"indexed": false,
					"internalType": "uint256",
					"name": "lpTokenAmount",
					"type": "uint256"
				},
				{
					"indexed": false,
					"internalType": "uint256",
					"name": "tokenAmountReceived",
					"type": "uint256"
				},
				{
					"indexed": true,
					"internalType": "address",
					"name": "user",
					"type": "address"
				}
			],
			"name": "ZapOut",
			"type": "event"
		},
		{
			"inputs": [],
			"name": "MAX_INT",
			"outputs": [
				{
					"internalType": "uint256",
					"name": "",
					"type": "uint256"
				}
			],
			"stateMutability": "view",
			"type": "function"
		},
		{
			"inputs": [],
			"name": "MINIMUM_AMOUNT",
			"outputs": [
				{
					"internalType": "uint256",
					"name": "",
					"type": "uint256"
				}
			],
			"stateMutability": "view",
			"type": "function"
		},
		{
			"inputs": [],
			"name": "WBNB",
			"outputs": [
				{
					"internalType": "contract IWETH",
					"name": "",
					"type": "address"
				}
			],
			"stateMutability": "view",
			"type": "function"
		},
		{
			"inputs": [
				{
					"internalType": "address",
					"name": "_token0ToZap",
					"type": "address"
				},
				{
					"internalType": "address",
					"name": "_token1ToZap",
					"type": "address"
				},
				{
					"internalType": "uint256",
					"name": "_token0AmountIn",
					"type": "uint256"
				},
				{
					"internalType": "uint256",
					"name": "_token1AmountIn",
					"type": "uint256"
				},
				{
					"internalType": "address",
					"name": "_lpToken",
					"type": "address"
				}
			],
			"name": "estimateZapInRebalancingSwap",
			"outputs": [
				{
					"internalType": "uint256",
					"name": "swapAmountIn",
					"type": "uint256"
				},
				{
					"internalType": "uint256",
					"name": "swapAmountOut",
					"type": "uint256"
				},
				{
					"internalType": "bool",
					"name": "sellToken0",
					"type": "bool"
				}
			],
			"stateMutability": "view",
			"type": "function"
		},
		{
			"inputs": [
				{
					"internalType": "address",
					"name": "_tokenToZap",
					"type": "address"
				},
				{
					"internalType": "uint256",
					"name": "_tokenAmountIn",
					"type": "uint256"
				},
				{
					"internalType": "address",
					"name": "_lpToken",
					"type": "address"
				}
			],
			"name": "estimateZapInSwap",
			"outputs": [
				{
					"internalType": "uint256",
					"name": "swapAmountIn",
					"type": "uint256"
				},
				{
					"internalType": "uint256",
					"name": "swapAmountOut",
					"type": "uint256"
				},
				{
					"internalType": "address",
					"name": "swapTokenOut",
					"type": "address"
				}
			],
			"stateMutability": "view",
			"type": "function"
		},
		{
			"inputs": [
				{
					"internalType": "address",
					"name": "_lpToken",
					"type": "address"
				},
				{
					"internalType": "uint256",
					"name": "_lpTokenAmount",
					"type": "uint256"
				},
				{
					"internalType": "address",
					"name": "_tokenToReceive",
					"type": "address"
				}
			],
			"name": "estimateZapOutSwap",
			"outputs": [
				{
					"internalType": "uint256",
					"name": "swapAmountIn",
					"type": "uint256"
				},
				{
					"internalType": "uint256",
					"name": "swapAmountOut",
					"type": "uint256"
				},
				{
					"internalType": "address",
					"name": "swapTokenOut",
					"type": "address"
				}
			],
			"stateMutability": "view",
			"type": "function"
		},
		{
			"inputs": [],
			"name": "exzoneRouter",
			"outputs": [
				{
					"internalType": "contract IExzoneRouter02",
					"name": "",
					"type": "address"
				}
			],
			"stateMutability": "view",
			"type": "function"
		},
		{
			"inputs": [],
			"name": "maxZapReverseRatio",
			"outputs": [
				{
					"internalType": "uint256",
					"name": "",
					"type": "uint256"
				}
			],
			"stateMutability": "view",
			"type": "function"
		},
		{
			"inputs": [],
			"name": "owner",
			"outputs": [
				{
					"internalType": "address",
					"name": "",
					"type": "address"
				}
			],
			"stateMutability": "view",
			"type": "function"
		},
		{
			"inputs": [
				{
					"internalType": "address",
					"name": "_tokenAddress",
					"type": "address"
				},
				{
					"internalType": "uint256",
					"name": "_tokenAmount",
					"type": "uint256"
				}
			],
			"name": "recoverWrongTokens",
			"outputs": [],
			"stateMutability": "nonpayable",
			"type": "function"
		},
		{
			"inputs": [],
			"name": "renounceOwnership",
			"outputs": [],
			"stateMutability": "nonpayable",
			"type": "function"
		},
		{
			"inputs": [
				{
					"internalType": "address",
					"name": "newOwner",
					"type": "address"
				}
			],
			"name": "transferOwnership",
			"outputs": [],
			"stateMutability": "nonpayable",
			"type": "function"
		},
		{
			"inputs": [
				{
					"internalType": "uint256",
					"name": "_maxZapInverseRatio",
					"type": "uint256"
				}
			],
			"name": "updateMaxZapInverseRatio",
			"outputs": [],
			"stateMutability": "nonpayable",
			"type": "function"
		},
		{
			"inputs": [
				{
					"internalType": "address",
					"name": "_lpToken",
					"type": "address"
				},
				{
					"internalType": "uint256",
					"name": "_tokenAmountOutMin",
					"type": "uint256"
				}
			],
			"name": "zapInBNB",
			"outputs": [],
			"stateMutability": "payable",
			"type": "function"
		},
		{
			"inputs": [
				{
					"internalType": "address",
					"name": "_token1ToZap",
					"type": "address"
				},
				{
					"internalType": "uint256",
					"name": "_token1AmountIn",
					"type": "uint256"
				},
				{
					"internalType": "address",
					"name": "_lpToken",
					"type": "address"
				},
				{
					"internalType": "uint256",
					"name": "_tokenAmountInMax",
					"type": "uint256"
				},
				{
					"internalType": "uint256",
					"name": "_tokenAmountOutMin",
					"type": "uint256"
				},
				{
					"internalType": "bool",
					"name": "_isToken0Sold",
					"type": "bool"
				}
			],
			"name": "zapInBNBRebalancing",
			"outputs": [],
			"stateMutability": "payable",
			"type": "function"
		},
		{
			"inputs": [
				{
					"internalType": "address",
					"name": "_tokenToZap",
					"type": "address"
				},
				{
					"internalType": "uint256",
					"name": "_tokenAmountIn",
					"type": "uint256"
				},
				{
					"internalType": "address",
					"name": "_lpToken",
					"type": "address"
				},
				{
					"internalType": "uint256",
					"name": "_tokenAmountOutMin",
					"type": "uint256"
				}
			],
			"name": "zapInToken",
			"outputs": [],
			"stateMutability": "nonpayable",
			"type": "function"
		},
		{
			"inputs": [
				{
					"internalType": "address",
					"name": "_token0ToZap",
					"type": "address"
				},
				{
					"internalType": "address",
					"name": "_token1ToZap",
					"type": "address"
				},
				{
					"internalType": "uint256",
					"name": "_token0AmountIn",
					"type": "uint256"
				},
				{
					"internalType": "uint256",
					"name": "_token1AmountIn",
					"type": "uint256"
				},
				{
					"internalType": "address",
					"name": "_lpToken",
					"type": "address"
				},
				{
					"internalType": "uint256",
					"name": "_tokenAmountInMax",
					"type": "uint256"
				},
				{
					"internalType": "uint256",
					"name": "_tokenAmountOutMin",
					"type": "uint256"
				},
				{
					"internalType": "bool",
					"name": "_isToken0Sold",
					"type": "bool"
				}
			],
			"name": "zapInTokenRebalancing",
			"outputs": [],
			"stateMutability": "nonpayable",
			"type": "function"
		},
		{
			"inputs": [
				{
					"internalType": "address",
					"name": "_lpToken",
					"type": "address"
				},
				{
					"internalType": "uint256",
					"name": "_lpTokenAmount",
					"type": "uint256"
				},
				{
					"internalType": "uint256",
					"name": "_tokenAmountOutMin",
					"type": "uint256"
				}
			],
			"name": "zapOutBNB",
			"outputs": [],
			"stateMutability": "nonpayable",
			"type": "function"
		},
		{
			"inputs": [
				{
					"internalType": "address",
					"name": "_lpToken",
					"type": "address"
				},
				{
					"internalType": "address",
					"name": "_tokenToReceive",
					"type": "address"
				},
				{
					"internalType": "uint256",
					"name": "_lpTokenAmount",
					"type": "uint256"
				},
				{
					"internalType": "uint256",
					"name": "_tokenAmountOutMin",
					"type": "uint256"
				}
			],
			"name": "zapOutToken",
			"outputs": [],
			"stateMutability": "nonpayable",
			"type": "function"
		},
		{
			"stateMutability": "payable",
			"type": "receive"
		}
	]
}